{
  "_format": "hh-sol-artifact-1",
  "contractName": "SongNFTTrade",
  "sourceName": "contracts/SongNFTTrade.sol",
  "abi": [
    {
      "inputs": [
        {
          "internalType": "address",
          "name": "_token",
          "type": "address"
        },
        {
          "internalType": "address",
          "name": "_nft",
          "type": "address"
        }
      ],
      "stateMutability": "nonpayable",
      "type": "constructor"
    },
    {
      "anonymous": false,
      "inputs": [
        {
          "indexed": true,
          "internalType": "address",
          "name": "singer",
          "type": "address"
        },
        {
          "indexed": false,
          "internalType": "uint256",
          "name": "price",
          "type": "uint256"
        },
        {
          "indexed": false,
          "internalType": "string",
          "name": "tokenURI",
          "type": "string"
        },
        {
          "indexed": false,
          "internalType": "uint256",
          "name": "tokenId",
          "type": "uint256"
        },
        {
          "indexed": false,
          "internalType": "uint256",
          "name": "amount",
          "type": "uint256"
        }
      ],
      "name": "ReleasedSong",
      "type": "event"
    },
    {
      "anonymous": false,
      "inputs": [
        {
          "indexed": true,
          "internalType": "uint256",
          "name": "tokenId",
          "type": "uint256"
        },
        {
          "indexed": false,
          "internalType": "address",
          "name": "buyer",
          "type": "address"
        },
        {
          "indexed": false,
          "internalType": "uint256",
          "name": "price",
          "type": "uint256"
        },
        {
          "indexed": false,
          "internalType": "address",
          "name": "singer",
          "type": "address"
        }
      ],
      "name": "SongPurchased",
      "type": "event"
    },
    {
      "inputs": [
        {
          "internalType": "address",
          "name": "user",
          "type": "address"
        }
      ],
      "name": "getSongInfos",
      "outputs": [
        {
          "components": [
            {
              "internalType": "uint256",
              "name": "tokenId",
              "type": "uint256"
            },
            {
              "internalType": "string",
              "name": "tokenURI",
              "type": "string"
            },
            {
              "internalType": "uint256",
              "name": "balance",
              "type": "uint256"
            },
            {
              "internalType": "uint256",
              "name": "price",
              "type": "uint256"
            }
          ],
          "internalType": "struct SongNFTTrade.SongDetails[]",
          "name": "",
          "type": "tuple[]"
        }
      ],
      "stateMutability": "view",
      "type": "function"
    },
    {
      "inputs": [],
      "name": "nft",
      "outputs": [
        {
          "internalType": "contract SongNFT",
          "name": "",
          "type": "address"
        }
      ],
      "stateMutability": "view",
      "type": "function"
    },
    {
      "inputs": [
        {
          "internalType": "uint256",
          "name": "tokenId",
          "type": "uint256"
        },
        {
          "internalType": "address",
          "name": "singer",
          "type": "address"
        }
      ],
      "name": "purchaseSong",
      "outputs": [],
      "stateMutability": "nonpayable",
      "type": "function"
    },
    {
      "inputs": [
        {
          "internalType": "uint256",
          "name": "amount",
          "type": "uint256"
        },
        {
          "internalType": "uint256",
          "name": "price",
          "type": "uint256"
        },
        {
          "internalType": "string",
          "name": "uri",
          "type": "string"
        }
      ],
      "name": "releasedSong",
      "outputs": [],
      "stateMutability": "nonpayable",
      "type": "function"
    },
    {
      "inputs": [
        {
          "internalType": "address",
          "name": "",
          "type": "address"
        },
        {
          "internalType": "uint256",
          "name": "",
          "type": "uint256"
        }
      ],
      "name": "songPricesByAddr",
      "outputs": [
        {
          "internalType": "uint256",
          "name": "",
          "type": "uint256"
        }
      ],
      "stateMutability": "view",
      "type": "function"
    },
    {
      "inputs": [],
      "name": "token",
      "outputs": [
        {
          "internalType": "contract MPToken",
          "name": "",
          "type": "address"
        }
      ],
      "stateMutability": "view",
      "type": "function"
    }
  ],
  "bytecode": "0x608060405234801561001057600080fd5b506040516117e33803806117e38339818101604052810190610032919061011d565b816000806101000a81548173ffffffffffffffffffffffffffffffffffffffff021916908373ffffffffffffffffffffffffffffffffffffffff16021790555080600160006101000a81548173ffffffffffffffffffffffffffffffffffffffff021916908373ffffffffffffffffffffffffffffffffffffffff160217905550505061015d565b600080fd5b600073ffffffffffffffffffffffffffffffffffffffff82169050919050565b60006100ea826100bf565b9050919050565b6100fa816100df565b811461010557600080fd5b50565b600081519050610117816100f1565b92915050565b60008060408385031215610134576101336100ba565b5b600061014285828601610108565b925050602061015385828601610108565b9150509250929050565b6116778061016c6000396000f3fe608060405234801561001057600080fd5b50600436106100625760003560e01c806347ccca02146100675780635aba30e314610085578063baa1c491146100a1578063c89e774e146100bd578063d6fc9f89146100ed578063fc0c546a1461011d575b600080fd5b61006f61013b565b60405161007c9190610bc8565b60405180910390f35b61009f600480360381019061009a9190610d73565b610161565b005b6100bb60048036038101906100b69190610e20565b61039c565b005b6100d760048036038101906100d29190610e60565b610782565b6040516100e49190611040565b60405180910390f35b61010760048036038101906101029190611062565b610ad8565b60405161011491906110b1565b60405180910390f35b610125610afd565b60405161013291906110ed565b60405180910390f35b600160009054906101000a900473ffffffffffffffffffffffffffffffffffffffff1681565b6000600160009054906101000a900473ffffffffffffffffffffffffffffffffffffffff1673ffffffffffffffffffffffffffffffffffffffff16631c75cfb46040518163ffffffff1660e01b8152600401602060405180830381865afa1580156101d0573d6000803e3d6000fd5b505050506040513d601f19601f820116820180604052508101906101f4919061111d565b905082600260003373ffffffffffffffffffffffffffffffffffffffff1673ffffffffffffffffffffffffffffffffffffffff168152602001908152602001600020600083815260200190815260200160002081905550600360003373ffffffffffffffffffffffffffffffffffffffff1673ffffffffffffffffffffffffffffffffffffffff168152602001908152602001600020819080600181540180825580915050600190039060005260206000200160009091909190915055600160009054906101000a900473ffffffffffffffffffffffffffffffffffffffff1673ffffffffffffffffffffffffffffffffffffffff1663d3fc98643386856040518463ffffffff1660e01b8152600401610310939291906111a3565b600060405180830381600087803b15801561032a57600080fd5b505af115801561033e573d6000803e3d6000fd5b505050503373ffffffffffffffffffffffffffffffffffffffff167fd454868b32bff89b28c358765c82e681ed1012c2bccbd81e2e7d406d3bae687a8484848860405161038e94939291906111e1565b60405180910390a250505050565b6000600160009054906101000a900473ffffffffffffffffffffffffffffffffffffffff1673ffffffffffffffffffffffffffffffffffffffff1662fdd58e83856040518363ffffffff1660e01b81526004016103fa92919061122d565b602060405180830381865afa158015610417573d6000803e3d6000fd5b505050506040513d601f19601f8201168201806040525081019061043b919061111d565b1161047b576040517f08c379a0000000000000000000000000000000000000000000000000000000008152600401610472906112a2565b60405180910390fd5b6000600260008373ffffffffffffffffffffffffffffffffffffffff1673ffffffffffffffffffffffffffffffffffffffff168152602001908152602001600020600084815260200190815260200160002054905060008111610513576040517f08c379a000000000000000000000000000000000000000000000000000000000815260040161050a9061130e565b60405180910390fd5b60008054906101000a900473ffffffffffffffffffffffffffffffffffffffff1673ffffffffffffffffffffffffffffffffffffffff166323b872dd3384846040518463ffffffff1660e01b81526004016105709392919061132e565b6020604051808303816000875af115801561058f573d6000803e3d6000fd5b505050506040513d601f19601f820116820180604052508101906105b3919061139d565b6105f2576040517f08c379a00000000000000000000000000000000000000000000000000000000081526004016105e990611416565b60405180910390fd5b600160009054906101000a900473ffffffffffffffffffffffffffffffffffffffff1673ffffffffffffffffffffffffffffffffffffffff16630febdd4983338660016040518563ffffffff1660e01b81526004016106549493929190611471565b600060405180830381600087803b15801561066e57600080fd5b505af1158015610682573d6000803e3d6000fd5b5050505080600260003373ffffffffffffffffffffffffffffffffffffffff1673ffffffffffffffffffffffffffffffffffffffff168152602001908152602001600020600085815260200190815260200160002081905550600360003373ffffffffffffffffffffffffffffffffffffffff1673ffffffffffffffffffffffffffffffffffffffff168152602001908152602001600020839080600181540180825580915050600190039060005260206000200160009091909190915055827f4c6b442b91275055375949d16e86a32fe7c913ef1e584669570e5074022ba63e338385604051610775939291906114b6565b60405180910390a2505050565b60606000600360008473ffffffffffffffffffffffffffffffffffffffff1673ffffffffffffffffffffffffffffffffffffffff16815260200190815260200160002080548060200260200160405190810160405280929190818152602001828054801561080f57602002820191906000526020600020905b8154815260200190600101908083116107fb575b505050505090506000815190506000811161085f576040517f08c379a000000000000000000000000000000000000000000000000000000000815260040161085690611539565b60405180910390fd5b60008167ffffffffffffffff81111561087b5761087a610c48565b5b6040519080825280602002602001820160405280156108b457816020015b6108a1610b21565b8152602001906001900390816108995790505b50905060005b82811015610acc5760008482815181106108d7576108d6611559565b5b602002602001015190506000600160009054906101000a900473ffffffffffffffffffffffffffffffffffffffff1673ffffffffffffffffffffffffffffffffffffffff16630e89341c836040518263ffffffff1660e01b815260040161093e91906110b1565b600060405180830381865afa15801561095b573d6000803e3d6000fd5b505050506040513d6000823e3d601f19601f8201168201806040525081019061098491906115f8565b90506000600160009054906101000a900473ffffffffffffffffffffffffffffffffffffffff1673ffffffffffffffffffffffffffffffffffffffff1662fdd58e8a856040518363ffffffff1660e01b81526004016109e492919061122d565b602060405180830381865afa158015610a01573d6000803e3d6000fd5b505050506040513d601f19601f82011682018060405250810190610a25919061111d565b90506000600260008b73ffffffffffffffffffffffffffffffffffffffff1673ffffffffffffffffffffffffffffffffffffffff1681526020019081526020016000206000858152602001908152602001600020549050604051806080016040528085815260200184815260200183815260200182815250868681518110610ab057610aaf611559565b5b60200260200101819052505050505080806001019150506108ba565b50809350505050919050565b6002602052816000526040600020602052806000526040600020600091509150505481565b60008054906101000a900473ffffffffffffffffffffffffffffffffffffffff1681565b6040518060800160405280600081526020016060815260200160008152602001600081525090565b600073ffffffffffffffffffffffffffffffffffffffff82169050919050565b6000819050919050565b6000610b8e610b89610b8484610b49565b610b69565b610b49565b9050919050565b6000610ba082610b73565b9050919050565b6000610bb282610b95565b9050919050565b610bc281610ba7565b82525050565b6000602082019050610bdd6000830184610bb9565b92915050565b6000604051905090565b600080fd5b600080fd5b6000819050919050565b610c0a81610bf7565b8114610c1557600080fd5b50565b600081359050610c2781610c01565b92915050565b600080fd5b600080fd5b6000601f19601f8301169050919050565b7f4e487b7100000000000000000000000000000000000000000000000000000000600052604160045260246000fd5b610c8082610c37565b810181811067ffffffffffffffff82111715610c9f57610c9e610c48565b5b80604052505050565b6000610cb2610be3565b9050610cbe8282610c77565b919050565b600067ffffffffffffffff821115610cde57610cdd610c48565b5b610ce782610c37565b9050602081019050919050565b82818337600083830152505050565b6000610d16610d1184610cc3565b610ca8565b905082815260208101848484011115610d3257610d31610c32565b5b610d3d848285610cf4565b509392505050565b600082601f830112610d5a57610d59610c2d565b5b8135610d6a848260208601610d03565b91505092915050565b600080600060608486031215610d8c57610d8b610bed565b5b6000610d9a86828701610c18565b9350506020610dab86828701610c18565b925050604084013567ffffffffffffffff811115610dcc57610dcb610bf2565b5b610dd886828701610d45565b9150509250925092565b6000610ded82610b49565b9050919050565b610dfd81610de2565b8114610e0857600080fd5b50565b600081359050610e1a81610df4565b92915050565b60008060408385031215610e3757610e36610bed565b5b6000610e4585828601610c18565b9250506020610e5685828601610e0b565b9150509250929050565b600060208284031215610e7657610e75610bed565b5b6000610e8484828501610e0b565b91505092915050565b600081519050919050565b600082825260208201905092915050565b6000819050602082019050919050565b610ec281610bf7565b82525050565b600081519050919050565b600082825260208201905092915050565b60005b83811015610f02578082015181840152602081019050610ee7565b60008484015250505050565b6000610f1982610ec8565b610f238185610ed3565b9350610f33818560208601610ee4565b610f3c81610c37565b840191505092915050565b6000608083016000830151610f5f6000860182610eb9565b5060208301518482036020860152610f778282610f0e565b9150506040830151610f8c6040860182610eb9565b506060830151610f9f6060860182610eb9565b508091505092915050565b6000610fb68383610f47565b905092915050565b6000602082019050919050565b6000610fd682610e8d565b610fe08185610e98565b935083602082028501610ff285610ea9565b8060005b8581101561102e578484038952815161100f8582610faa565b945061101a83610fbe565b925060208a01995050600181019050610ff6565b50829750879550505050505092915050565b6000602082019050818103600083015261105a8184610fcb565b905092915050565b6000806040838503121561107957611078610bed565b5b600061108785828601610e0b565b925050602061109885828601610c18565b9150509250929050565b6110ab81610bf7565b82525050565b60006020820190506110c660008301846110a2565b92915050565b60006110d782610b95565b9050919050565b6110e7816110cc565b82525050565b600060208201905061110260008301846110de565b92915050565b60008151905061111781610c01565b92915050565b60006020828403121561113357611132610bed565b5b600061114184828501611108565b91505092915050565b61115381610de2565b82525050565b600082825260208201905092915050565b600061117582610ec8565b61117f8185611159565b935061118f818560208601610ee4565b61119881610c37565b840191505092915050565b60006060820190506111b8600083018661114a565b6111c560208301856110a2565b81810360408301526111d7818461116a565b9050949350505050565b60006080820190506111f660008301876110a2565b8181036020830152611208818661116a565b905061121760408301856110a2565b61122460608301846110a2565b95945050505050565b6000604082019050611242600083018561114a565b61124f60208301846110a2565b9392505050565b7f536f6c64206f7574000000000000000000000000000000000000000000000000600082015250565b600061128c600883611159565b915061129782611256565b602082019050919050565b600060208201905081810360008301526112bb8161127f565b9050919050565b7f536f6e67206e6f74206c697374656420666f722073616c650000000000000000600082015250565b60006112f8601883611159565b9150611303826112c2565b602082019050919050565b60006020820190508181036000830152611327816112eb565b9050919050565b6000606082019050611343600083018661114a565b611350602083018561114a565b61135d60408301846110a2565b949350505050565b60008115159050919050565b61137a81611365565b811461138557600080fd5b50565b60008151905061139781611371565b92915050565b6000602082840312156113b3576113b2610bed565b5b60006113c184828501611388565b91505092915050565b7f546f6b656e207472616e73666572206661696c65640000000000000000000000600082015250565b6000611400601583611159565b915061140b826113ca565b602082019050919050565b6000602082019050818103600083015261142f816113f3565b9050919050565b6000819050919050565b600061145b61145661145184611436565b610b69565b610bf7565b9050919050565b61146b81611440565b82525050565b6000608082019050611486600083018761114a565b611493602083018661114a565b6114a060408301856110a2565b6114ad6060830184611462565b95945050505050565b60006060820190506114cb600083018661114a565b6114d860208301856110a2565b6114e5604083018461114a565b949350505050565b7f4e6f20736f6e67732072656c6561736564000000000000000000000000000000600082015250565b6000611523601183611159565b915061152e826114ed565b602082019050919050565b6000602082019050818103600083015261155281611516565b9050919050565b7f4e487b7100000000000000000000000000000000000000000000000000000000600052603260045260246000fd5b600061159b61159684610cc3565b610ca8565b9050828152602081018484840111156115b7576115b6610c32565b5b6115c2848285610ee4565b509392505050565b600082601f8301126115df576115de610c2d565b5b81516115ef848260208601611588565b91505092915050565b60006020828403121561160e5761160d610bed565b5b600082015167ffffffffffffffff81111561162c5761162b610bf2565b5b611638848285016115ca565b9150509291505056fea26469706673582212204c33da62626cc86618751ed22b551f2e9a265932541988e44cdf851f3b560cc064736f6c634300081a0033",
  "linkReferences": {},
  "deployedLinkReferences": {}
}