{
  "_format": "hh-sol-artifact-1",
  "contractName": "SongNFT",
  "sourceName": "contracts/SongNFT.sol",
  "abi": [
    {
      "inputs": [],
      "stateMutability": "nonpayable",
      "type": "constructor"
    },
    {
      "inputs": [
        {
          "internalType": "address",
          "name": "sender",
          "type": "address"
        },
        {
          "internalType": "uint256",
          "name": "balance",
          "type": "uint256"
        },
        {
          "internalType": "uint256",
          "name": "needed",
          "type": "uint256"
        },
        {
          "internalType": "uint256",
          "name": "tokenId",
          "type": "uint256"
        }
      ],
      "name": "ERC1155InsufficientBalance",
      "type": "error"
    },
    {
      "inputs": [
        {
          "internalType": "address",
          "name": "approver",
          "type": "address"
        }
      ],
      "name": "ERC1155InvalidApprover",
      "type": "error"
    },
    {
      "inputs": [
        {
          "internalType": "uint256",
          "name": "idsLength",
          "type": "uint256"
        },
        {
          "internalType": "uint256",
          "name": "valuesLength",
          "type": "uint256"
        }
      ],
      "name": "ERC1155InvalidArrayLength",
      "type": "error"
    },
    {
      "inputs": [
        {
          "internalType": "address",
          "name": "operator",
          "type": "address"
        }
      ],
      "name": "ERC1155InvalidOperator",
      "type": "error"
    },
    {
      "inputs": [
        {
          "internalType": "address",
          "name": "receiver",
          "type": "address"
        }
      ],
      "name": "ERC1155InvalidReceiver",
      "type": "error"
    },
    {
      "inputs": [
        {
          "internalType": "address",
          "name": "sender",
          "type": "address"
        }
      ],
      "name": "ERC1155InvalidSender",
      "type": "error"
    },
    {
      "inputs": [
        {
          "internalType": "address",
          "name": "operator",
          "type": "address"
        },
        {
          "internalType": "address",
          "name": "owner",
          "type": "address"
        }
      ],
      "name": "ERC1155MissingApprovalForAll",
      "type": "error"
    },
    {
      "anonymous": false,
      "inputs": [
        {
          "indexed": true,
          "internalType": "address",
          "name": "account",
          "type": "address"
        },
        {
          "indexed": true,
          "internalType": "address",
          "name": "operator",
          "type": "address"
        },
        {
          "indexed": false,
          "internalType": "bool",
          "name": "approved",
          "type": "bool"
        }
      ],
      "name": "ApprovalForAll",
      "type": "event"
    },
    {
      "anonymous": false,
      "inputs": [
        {
          "indexed": true,
          "internalType": "address",
          "name": "operator",
          "type": "address"
        },
        {
          "indexed": true,
          "internalType": "address",
          "name": "from",
          "type": "address"
        },
        {
          "indexed": true,
          "internalType": "address",
          "name": "to",
          "type": "address"
        },
        {
          "indexed": false,
          "internalType": "uint256[]",
          "name": "ids",
          "type": "uint256[]"
        },
        {
          "indexed": false,
          "internalType": "uint256[]",
          "name": "values",
          "type": "uint256[]"
        }
      ],
      "name": "TransferBatch",
      "type": "event"
    },
    {
      "anonymous": false,
      "inputs": [
        {
          "indexed": true,
          "internalType": "address",
          "name": "operator",
          "type": "address"
        },
        {
          "indexed": true,
          "internalType": "address",
          "name": "from",
          "type": "address"
        },
        {
          "indexed": true,
          "internalType": "address",
          "name": "to",
          "type": "address"
        },
        {
          "indexed": false,
          "internalType": "uint256",
          "name": "id",
          "type": "uint256"
        },
        {
          "indexed": false,
          "internalType": "uint256",
          "name": "value",
          "type": "uint256"
        }
      ],
      "name": "TransferSingle",
      "type": "event"
    },
    {
      "anonymous": false,
      "inputs": [
        {
          "indexed": false,
          "internalType": "string",
          "name": "value",
          "type": "string"
        },
        {
          "indexed": true,
          "internalType": "uint256",
          "name": "id",
          "type": "uint256"
        }
      ],
      "name": "URI",
      "type": "event"
    },
    {
      "inputs": [
        {
          "internalType": "address",
          "name": "account",
          "type": "address"
        },
        {
          "internalType": "uint256",
          "name": "id",
          "type": "uint256"
        }
      ],
      "name": "balanceOf",
      "outputs": [
        {
          "internalType": "uint256",
          "name": "",
          "type": "uint256"
        }
      ],
      "stateMutability": "view",
      "type": "function"
    },
    {
      "inputs": [
        {
          "internalType": "address[]",
          "name": "accounts",
          "type": "address[]"
        },
        {
          "internalType": "uint256[]",
          "name": "ids",
          "type": "uint256[]"
        }
      ],
      "name": "balanceOfBatch",
      "outputs": [
        {
          "internalType": "uint256[]",
          "name": "",
          "type": "uint256[]"
        }
      ],
      "stateMutability": "view",
      "type": "function"
    },
    {
      "inputs": [],
      "name": "currentID",
      "outputs": [
        {
          "internalType": "uint256",
          "name": "",
          "type": "uint256"
        }
      ],
      "stateMutability": "view",
      "type": "function"
    },
    {
      "inputs": [
        {
          "internalType": "address",
          "name": "account",
          "type": "address"
        },
        {
          "internalType": "address",
          "name": "operator",
          "type": "address"
        }
      ],
      "name": "isApprovedForAll",
      "outputs": [
        {
          "internalType": "bool",
          "name": "",
          "type": "bool"
        }
      ],
      "stateMutability": "view",
      "type": "function"
    },
    {
      "inputs": [
        {
          "internalType": "address",
          "name": "to",
          "type": "address"
        },
        {
          "internalType": "uint256",
          "name": "amount",
          "type": "uint256"
        },
        {
          "internalType": "string",
          "name": "uri",
          "type": "string"
        }
      ],
      "name": "mint",
      "outputs": [],
      "stateMutability": "nonpayable",
      "type": "function"
    },
    {
      "inputs": [
        {
          "internalType": "address",
          "name": "from",
          "type": "address"
        },
        {
          "internalType": "address",
          "name": "to",
          "type": "address"
        },
        {
          "internalType": "uint256[]",
          "name": "ids",
          "type": "uint256[]"
        },
        {
          "internalType": "uint256[]",
          "name": "values",
          "type": "uint256[]"
        },
        {
          "internalType": "bytes",
          "name": "data",
          "type": "bytes"
        }
      ],
      "name": "safeBatchTransferFrom",
      "outputs": [],
      "stateMutability": "nonpayable",
      "type": "function"
    },
    {
      "inputs": [
        {
          "internalType": "address",
          "name": "from",
          "type": "address"
        },
        {
          "internalType": "address",
          "name": "to",
          "type": "address"
        },
        {
          "internalType": "uint256",
          "name": "id",
          "type": "uint256"
        },
        {
          "internalType": "uint256",
          "name": "value",
          "type": "uint256"
        }
      ],
      "name": "safeTransferFrom",
      "outputs": [],
      "stateMutability": "nonpayable",
      "type": "function"
    },
    {
      "inputs": [
        {
          "internalType": "address",
          "name": "from",
          "type": "address"
        },
        {
          "internalType": "address",
          "name": "to",
          "type": "address"
        },
        {
          "internalType": "uint256",
          "name": "id",
          "type": "uint256"
        },
        {
          "internalType": "uint256",
          "name": "value",
          "type": "uint256"
        },
        {
          "internalType": "bytes",
          "name": "data",
          "type": "bytes"
        }
      ],
      "name": "safeTransferFrom",
      "outputs": [],
      "stateMutability": "nonpayable",
      "type": "function"
    },
    {
      "inputs": [
        {
          "internalType": "address",
          "name": "operator",
          "type": "address"
        },
        {
          "internalType": "bool",
          "name": "approved",
          "type": "bool"
        }
      ],
      "name": "setApprovalForAll",
      "outputs": [],
      "stateMutability": "nonpayable",
      "type": "function"
    },
    {
      "inputs": [
        {
          "internalType": "bytes4",
          "name": "interfaceId",
          "type": "bytes4"
        }
      ],
      "name": "supportsInterface",
      "outputs": [
        {
          "internalType": "bool",
          "name": "",
          "type": "bool"
        }
      ],
      "stateMutability": "view",
      "type": "function"
    },
    {
      "inputs": [
        {
          "internalType": "uint256",
          "name": "tokenId",
          "type": "uint256"
        }
      ],
      "name": "uri",
      "outputs": [
        {
          "internalType": "string",
          "name": "",
          "type": "string"
        }
      ],
      "stateMutability": "view",
      "type": "function"
    }
  ],
  "bytecode": "0x6080604052604051806020016040528060008152506003908161002291906102b8565b5034801561002f57600080fd5b506040518060200160405280600081525061004f8161005560201b60201c565b5061038a565b806002908161006491906102b8565b5050565b600081519050919050565b7f4e487b7100000000000000000000000000000000000000000000000000000000600052604160045260246000fd5b7f4e487b7100000000000000000000000000000000000000000000000000000000600052602260045260246000fd5b600060028204905060018216806100e957607f821691505b6020821081036100fc576100fb6100a2565b5b50919050565b60008190508160005260206000209050919050565b60006020601f8301049050919050565b600082821b905092915050565b6000600883026101647fffffffffffffffffffffffffffffffffffffffffffffffffffffffffffffffff82610127565b61016e8683610127565b95508019841693508086168417925050509392505050565b6000819050919050565b6000819050919050565b60006101b56101b06101ab84610186565b610190565b610186565b9050919050565b6000819050919050565b6101cf8361019a565b6101e36101db826101bc565b848454610134565b825550505050565b600090565b6101f86101eb565b6102038184846101c6565b505050565b5b818110156102275761021c6000826101f0565b600181019050610209565b5050565b601f82111561026c5761023d81610102565b61024684610117565b81016020851015610255578190505b61026961026185610117565b830182610208565b50505b505050565b600082821c905092915050565b600061028f60001984600802610271565b1980831691505092915050565b60006102a8838361027e565b9150826002028217905092915050565b6102c182610068565b67ffffffffffffffff8111156102da576102d9610073565b5b6102e482546100d1565b6102ef82828561022b565b600060209050601f8311600181146103225760008415610310578287015190505b61031a858261029c565b865550610382565b601f19841661033086610102565b60005b8281101561035857848901518255600182019150602085019450602081019050610333565b868310156103755784890151610371601f89168261027e565b8355505b6001600288020188555050505b505050505050565b6126d9806103996000396000f3fe608060405234801561001057600080fd5b50600436106100a85760003560e01c80632eb2c2d6116100715780632eb2c2d6146101775780634e1273f414610193578063a22cb465146101c3578063d3fc9864146101df578063e985e9c5146101fb578063f242432a1461022b576100a8565b8062fdd58e146100ad57806301ffc9a7146100dd5780630e89341c1461010d5780630febdd491461013d5780631c75cfb414610159575b600080fd5b6100c760048036038101906100c29190611612565b610247565b6040516100d49190611661565b60405180910390f35b6100f760048036038101906100f291906116d4565b6102a1565b604051610104919061171c565b60405180910390f35b61012760048036038101906101229190611737565b610383565b60405161013491906117f4565b60405180910390f35b61015760048036038101906101529190611816565b610468565b005b61016161048a565b60405161016e9190611661565b60405180910390f35b610191600480360381019061018c9190611a7a565b610490565b005b6101ad60048036038101906101a89190611c0c565b610538565b6040516101ba9190611d42565b60405180910390f35b6101dd60048036038101906101d89190611d90565b610641565b005b6101f960048036038101906101f49190611e71565b610657565b005b61021560048036038101906102109190611ee0565b61069d565b604051610222919061171c565b60405180910390f35b61024560048036038101906102409190611f20565b610731565b005b600080600083815260200190815260200160002060008473ffffffffffffffffffffffffffffffffffffffff1673ffffffffffffffffffffffffffffffffffffffff16815260200190815260200160002054905092915050565b60007fd9b67a26000000000000000000000000000000000000000000000000000000007bffffffffffffffffffffffffffffffffffffffffffffffffffffffff1916827bffffffffffffffffffffffffffffffffffffffffffffffffffffffff1916148061036c57507f0e89341c000000000000000000000000000000000000000000000000000000007bffffffffffffffffffffffffffffffffffffffffffffffffffffffff1916827bffffffffffffffffffffffffffffffffffffffffffffffffffffffff1916145b8061037c575061037b826107d9565b5b9050919050565b606060006004600084815260200190815260200160002080546103a590611fe6565b80601f01602080910402602001604051908101604052809291908181526020018280546103d190611fe6565b801561041e5780601f106103f35761010080835404028352916020019161041e565b820191906000526020600020905b81548152906001019060200180831161040157829003601f168201915b50505050509050600081511161043c5761043783610843565b610460565b6003816040516020016104509291906120eb565b6040516020818303038152906040525b915050919050565b6104848484848460405180602001604052806000815250610731565b50505050565b60055481565b600061049a6108d7565b90508073ffffffffffffffffffffffffffffffffffffffff168673ffffffffffffffffffffffffffffffffffffffff16141580156104df57506104dd868261069d565b155b156105235780866040517fe237d92200000000000000000000000000000000000000000000000000000000815260040161051a92919061211e565b60405180910390fd5b61053086868686866108df565b505050505050565b6060815183511461058457815183516040517f5b05999100000000000000000000000000000000000000000000000000000000815260040161057b929190612147565b60405180910390fd5b6000835167ffffffffffffffff8111156105a1576105a0611882565b5b6040519080825280602002602001820160405280156105cf5781602001602082028036833780820191505090505b50905060005b84518110156106365761060c6105f482876109d790919063ffffffff16565b61060783876109eb90919063ffffffff16565b610247565b82828151811061061f5761061e612170565b5b6020026020010181815250508060010190506105d5565b508091505092915050565b61065361064c6108d7565b83836109ff565b5050565b610674836005548460405180602001604052806000815250610b6f565b61068060055482610c08565b60056000815480929190610693906121ce565b9190505550505050565b6000600160008473ffffffffffffffffffffffffffffffffffffffff1673ffffffffffffffffffffffffffffffffffffffff16815260200190815260200160002060008373ffffffffffffffffffffffffffffffffffffffff1673ffffffffffffffffffffffffffffffffffffffff16815260200190815260200160002060009054906101000a900460ff16905092915050565b600061073b6108d7565b90508073ffffffffffffffffffffffffffffffffffffffff168673ffffffffffffffffffffffffffffffffffffffff1614158015610780575061077e868261069d565b155b156107c45780866040517fe237d9220000000000000000000000000000000000000000000000000000000081526004016107bb92919061211e565b60405180910390fd5b6107d18686868686610c6d565b505050505050565b60007f01ffc9a7000000000000000000000000000000000000000000000000000000007bffffffffffffffffffffffffffffffffffffffffffffffffffffffff1916827bffffffffffffffffffffffffffffffffffffffffffffffffffffffff1916149050919050565b60606002805461085290611fe6565b80601f016020809104026020016040519081016040528092919081815260200182805461087e90611fe6565b80156108cb5780601f106108a0576101008083540402835291602001916108cb565b820191906000526020600020905b8154815290600101906020018083116108ae57829003601f168201915b50505050509050919050565b600033905090565b600073ffffffffffffffffffffffffffffffffffffffff168473ffffffffffffffffffffffffffffffffffffffff16036109515760006040517f57f447ce0000000000000000000000000000000000000000000000000000000081526004016109489190612216565b60405180910390fd5b600073ffffffffffffffffffffffffffffffffffffffff168573ffffffffffffffffffffffffffffffffffffffff16036109c35760006040517f01a835140000000000000000000000000000000000000000000000000000000081526004016109ba9190612216565b60405180910390fd5b6109d08585858585610d78565b5050505050565b600060208202602084010151905092915050565b600060208202602084010151905092915050565b600073ffffffffffffffffffffffffffffffffffffffff168273ffffffffffffffffffffffffffffffffffffffff1603610a715760006040517fced3e100000000000000000000000000000000000000000000000000000000008152600401610a689190612216565b60405180910390fd5b80600160008573ffffffffffffffffffffffffffffffffffffffff1673ffffffffffffffffffffffffffffffffffffffff16815260200190815260200160002060008473ffffffffffffffffffffffffffffffffffffffff1673ffffffffffffffffffffffffffffffffffffffff16815260200190815260200160002060006101000a81548160ff0219169083151502179055508173ffffffffffffffffffffffffffffffffffffffff168373ffffffffffffffffffffffffffffffffffffffff167f17307eab39ab6107e8899845ad3d59bd9653f200f220920489ca2b5937696c3183604051610b62919061171c565b60405180910390a3505050565b600073ffffffffffffffffffffffffffffffffffffffff168473ffffffffffffffffffffffffffffffffffffffff1603610be15760006040517f57f447ce000000000000000000000000000000000000000000000000000000008152600401610bd89190612216565b60405180910390fd5b600080610bee8585610e2a565b91509150610c00600087848487610d78565b505050505050565b80600460008481526020019081526020016000209081610c2891906123c8565b50817f6bb7ff708619ba0610cba295a58592e0451dee2622938c8755667688daf3529b610c5484610383565b604051610c6191906117f4565b60405180910390a25050565b600073ffffffffffffffffffffffffffffffffffffffff168473ffffffffffffffffffffffffffffffffffffffff1603610cdf5760006040517f57f447ce000000000000000000000000000000000000000000000000000000008152600401610cd69190612216565b60405180910390fd5b600073ffffffffffffffffffffffffffffffffffffffff168573ffffffffffffffffffffffffffffffffffffffff1603610d515760006040517f01a83514000000000000000000000000000000000000000000000000000000008152600401610d489190612216565b60405180910390fd5b600080610d5e8585610e2a565b91509150610d6f8787848487610d78565b50505050505050565b610d8485858585610e5a565b600073ffffffffffffffffffffffffffffffffffffffff168473ffffffffffffffffffffffffffffffffffffffff1614610e23576000610dc26108d7565b90506001845103610e12576000610de36000866109eb90919063ffffffff16565b90506000610dfb6000866109eb90919063ffffffff16565b9050610e0b838989858589611202565b5050610e21565b610e208187878787876113b6565b5b505b5050505050565b60608060405191506001825283602083015260408201905060018152826020820152604081016040529250929050565b8051825114610ea457815181516040517f5b059991000000000000000000000000000000000000000000000000000000008152600401610e9b929190612147565b60405180910390fd5b6000610eae6108d7565b905060005b83518110156110bd576000610ed182866109eb90919063ffffffff16565b90506000610ee883866109eb90919063ffffffff16565b9050600073ffffffffffffffffffffffffffffffffffffffff168873ffffffffffffffffffffffffffffffffffffffff161461101557600080600084815260200190815260200160002060008a73ffffffffffffffffffffffffffffffffffffffff1673ffffffffffffffffffffffffffffffffffffffff16815260200190815260200160002054905081811015610fbd57888183856040517f03dee4c5000000000000000000000000000000000000000000000000000000008152600401610fb4949392919061249a565b60405180910390fd5b81810360008085815260200190815260200160002060008b73ffffffffffffffffffffffffffffffffffffffff1673ffffffffffffffffffffffffffffffffffffffff16815260200190815260200160002081905550505b600073ffffffffffffffffffffffffffffffffffffffff168773ffffffffffffffffffffffffffffffffffffffff16146110b0578060008084815260200190815260200160002060008973ffffffffffffffffffffffffffffffffffffffff1673ffffffffffffffffffffffffffffffffffffffff16815260200190815260200160002060008282546110a891906124df565b925050819055505b5050806001019050610eb3565b50600183510361117c5760006110dd6000856109eb90919063ffffffff16565b905060006110f56000856109eb90919063ffffffff16565b90508573ffffffffffffffffffffffffffffffffffffffff168773ffffffffffffffffffffffffffffffffffffffff168473ffffffffffffffffffffffffffffffffffffffff167fc3d58168c5ae7397731d063d5bbf3d657854427343f4c083240f7aacaa2d0f62858560405161116d929190612147565b60405180910390a450506111fb565b8373ffffffffffffffffffffffffffffffffffffffff168573ffffffffffffffffffffffffffffffffffffffff168273ffffffffffffffffffffffffffffffffffffffff167f4a39dc06d4c0dbc64b70af90fd698a233a518aa5d07e595d983b8c0526c8f7fb86866040516111f2929190612513565b60405180910390a45b5050505050565b60008473ffffffffffffffffffffffffffffffffffffffff163b11156113ae578373ffffffffffffffffffffffffffffffffffffffff1663f23a6e6187878686866040518663ffffffff1660e01b815260040161126395949392919061259f565b6020604051808303816000875af192505050801561129f57506040513d601f19601f8201168201806040525081019061129c919061260e565b60015b611323573d80600081146112cf576040519150601f19603f3d011682016040523d82523d6000602084013e6112d4565b606091505b50600081510361131b57846040517f57f447ce0000000000000000000000000000000000000000000000000000000081526004016113129190612216565b60405180910390fd5b805181602001fd5b63f23a6e6160e01b7bffffffffffffffffffffffffffffffffffffffffffffffffffffffff1916817bffffffffffffffffffffffffffffffffffffffffffffffffffffffff1916146113ac57846040517f57f447ce0000000000000000000000000000000000000000000000000000000081526004016113a39190612216565b60405180910390fd5b505b505050505050565b60008473ffffffffffffffffffffffffffffffffffffffff163b1115611562578373ffffffffffffffffffffffffffffffffffffffff1663bc197c8187878686866040518663ffffffff1660e01b815260040161141795949392919061263b565b6020604051808303816000875af192505050801561145357506040513d601f19601f82011682018060405250810190611450919061260e565b60015b6114d7573d8060008114611483576040519150601f19603f3d011682016040523d82523d6000602084013e611488565b606091505b5060008151036114cf57846040517f57f447ce0000000000000000000000000000000000000000000000000000000081526004016114c69190612216565b60405180910390fd5b805181602001fd5b63bc197c8160e01b7bffffffffffffffffffffffffffffffffffffffffffffffffffffffff1916817bffffffffffffffffffffffffffffffffffffffffffffffffffffffff19161461156057846040517f57f447ce0000000000000000000000000000000000000000000000000000000081526004016115579190612216565b60405180910390fd5b505b505050505050565b6000604051905090565b600080fd5b600080fd5b600073ffffffffffffffffffffffffffffffffffffffff82169050919050565b60006115a98261157e565b9050919050565b6115b98161159e565b81146115c457600080fd5b50565b6000813590506115d6816115b0565b92915050565b6000819050919050565b6115ef816115dc565b81146115fa57600080fd5b50565b60008135905061160c816115e6565b92915050565b6000806040838503121561162957611628611574565b5b6000611637858286016115c7565b9250506020611648858286016115fd565b9150509250929050565b61165b816115dc565b82525050565b60006020820190506116766000830184611652565b92915050565b60007fffffffff0000000000000000000000000000000000000000000000000000000082169050919050565b6116b18161167c565b81146116bc57600080fd5b50565b6000813590506116ce816116a8565b92915050565b6000602082840312156116ea576116e9611574565b5b60006116f8848285016116bf565b91505092915050565b60008115159050919050565b61171681611701565b82525050565b6000602082019050611731600083018461170d565b92915050565b60006020828403121561174d5761174c611574565b5b600061175b848285016115fd565b91505092915050565b600081519050919050565b600082825260208201905092915050565b60005b8381101561179e578082015181840152602081019050611783565b60008484015250505050565b6000601f19601f8301169050919050565b60006117c682611764565b6117d0818561176f565b93506117e0818560208601611780565b6117e9816117aa565b840191505092915050565b6000602082019050818103600083015261180e81846117bb565b905092915050565b600080600080608085870312156118305761182f611574565b5b600061183e878288016115c7565b945050602061184f878288016115c7565b9350506040611860878288016115fd565b9250506060611871878288016115fd565b91505092959194509250565b600080fd5b7f4e487b7100000000000000000000000000000000000000000000000000000000600052604160045260246000fd5b6118ba826117aa565b810181811067ffffffffffffffff821117156118d9576118d8611882565b5b80604052505050565b60006118ec61156a565b90506118f882826118b1565b919050565b600067ffffffffffffffff82111561191857611917611882565b5b602082029050602081019050919050565b600080fd5b600061194161193c846118fd565b6118e2565b9050808382526020820190506020840283018581111561196457611963611929565b5b835b8181101561198d578061197988826115fd565b845260208401935050602081019050611966565b5050509392505050565b600082601f8301126119ac576119ab61187d565b5b81356119bc84826020860161192e565b91505092915050565b600080fd5b600067ffffffffffffffff8211156119e5576119e4611882565b5b6119ee826117aa565b9050602081019050919050565b82818337600083830152505050565b6000611a1d611a18846119ca565b6118e2565b905082815260208101848484011115611a3957611a386119c5565b5b611a448482856119fb565b509392505050565b600082601f830112611a6157611a6061187d565b5b8135611a71848260208601611a0a565b91505092915050565b600080600080600060a08688031215611a9657611a95611574565b5b6000611aa4888289016115c7565b9550506020611ab5888289016115c7565b945050604086013567ffffffffffffffff811115611ad657611ad5611579565b5b611ae288828901611997565b935050606086013567ffffffffffffffff811115611b0357611b02611579565b5b611b0f88828901611997565b925050608086013567ffffffffffffffff811115611b3057611b2f611579565b5b611b3c88828901611a4c565b9150509295509295909350565b600067ffffffffffffffff821115611b6457611b63611882565b5b602082029050602081019050919050565b6000611b88611b8384611b49565b6118e2565b90508083825260208201905060208402830185811115611bab57611baa611929565b5b835b81811015611bd45780611bc088826115c7565b845260208401935050602081019050611bad565b5050509392505050565b600082601f830112611bf357611bf261187d565b5b8135611c03848260208601611b75565b91505092915050565b60008060408385031215611c2357611c22611574565b5b600083013567ffffffffffffffff811115611c4157611c40611579565b5b611c4d85828601611bde565b925050602083013567ffffffffffffffff811115611c6e57611c6d611579565b5b611c7a85828601611997565b9150509250929050565b600081519050919050565b600082825260208201905092915050565b6000819050602082019050919050565b611cb9816115dc565b82525050565b6000611ccb8383611cb0565b60208301905092915050565b6000602082019050919050565b6000611cef82611c84565b611cf98185611c8f565b9350611d0483611ca0565b8060005b83811015611d35578151611d1c8882611cbf565b9750611d2783611cd7565b925050600181019050611d08565b5085935050505092915050565b60006020820190508181036000830152611d5c8184611ce4565b905092915050565b611d6d81611701565b8114611d7857600080fd5b50565b600081359050611d8a81611d64565b92915050565b60008060408385031215611da757611da6611574565b5b6000611db5858286016115c7565b9250506020611dc685828601611d7b565b9150509250929050565b600067ffffffffffffffff821115611deb57611dea611882565b5b611df4826117aa565b9050602081019050919050565b6000611e14611e0f84611dd0565b6118e2565b905082815260208101848484011115611e3057611e2f6119c5565b5b611e3b8482856119fb565b509392505050565b600082601f830112611e5857611e5761187d565b5b8135611e68848260208601611e01565b91505092915050565b600080600060608486031215611e8a57611e89611574565b5b6000611e98868287016115c7565b9350506020611ea9868287016115fd565b925050604084013567ffffffffffffffff811115611eca57611ec9611579565b5b611ed686828701611e43565b9150509250925092565b60008060408385031215611ef757611ef6611574565b5b6000611f05858286016115c7565b9250506020611f16858286016115c7565b9150509250929050565b600080600080600060a08688031215611f3c57611f3b611574565b5b6000611f4a888289016115c7565b9550506020611f5b888289016115c7565b9450506040611f6c888289016115fd565b9350506060611f7d888289016115fd565b925050608086013567ffffffffffffffff811115611f9e57611f9d611579565b5b611faa88828901611a4c565b9150509295509295909350565b7f4e487b7100000000000000000000000000000000000000000000000000000000600052602260045260246000fd5b60006002820490506001821680611ffe57607f821691505b60208210810361201157612010611fb7565b5b50919050565b600081905092915050565b60008190508160005260206000209050919050565b6000815461204481611fe6565b61204e8186612017565b94506001821660008114612069576001811461207e576120b1565b60ff19831686528115158202860193506120b1565b61208785612022565b60005b838110156120a95781548189015260018201915060208101905061208a565b838801955050505b50505092915050565b60006120c582611764565b6120cf8185612017565b93506120df818560208601611780565b80840191505092915050565b60006120f78285612037565b915061210382846120ba565b91508190509392505050565b6121188161159e565b82525050565b6000604082019050612133600083018561210f565b612140602083018461210f565b9392505050565b600060408201905061215c6000830185611652565b6121696020830184611652565b9392505050565b7f4e487b7100000000000000000000000000000000000000000000000000000000600052603260045260246000fd5b7f4e487b7100000000000000000000000000000000000000000000000000000000600052601160045260246000fd5b60006121d9826115dc565b91507fffffffffffffffffffffffffffffffffffffffffffffffffffffffffffffffff820361220b5761220a61219f565b5b600182019050919050565b600060208201905061222b600083018461210f565b92915050565b60006020601f8301049050919050565b600082821b905092915050565b60006008830261227e7fffffffffffffffffffffffffffffffffffffffffffffffffffffffffffffffff82612241565b6122888683612241565b95508019841693508086168417925050509392505050565b6000819050919050565b60006122c56122c06122bb846115dc565b6122a0565b6115dc565b9050919050565b6000819050919050565b6122df836122aa565b6122f36122eb826122cc565b84845461224e565b825550505050565b600090565b6123086122fb565b6123138184846122d6565b505050565b5b818110156123375761232c600082612300565b600181019050612319565b5050565b601f82111561237c5761234d81612022565b61235684612231565b81016020851015612365578190505b61237961237185612231565b830182612318565b50505b505050565b600082821c905092915050565b600061239f60001984600802612381565b1980831691505092915050565b60006123b8838361238e565b9150826002028217905092915050565b6123d182611764565b67ffffffffffffffff8111156123ea576123e9611882565b5b6123f48254611fe6565b6123ff82828561233b565b600060209050601f8311600181146124325760008415612420578287015190505b61242a85826123ac565b865550612492565b601f19841661244086612022565b60005b8281101561246857848901518255600182019150602085019450602081019050612443565b868310156124855784890151612481601f89168261238e565b8355505b6001600288020188555050505b505050505050565b60006080820190506124af600083018761210f565b6124bc6020830186611652565b6124c96040830185611652565b6124d66060830184611652565b95945050505050565b60006124ea826115dc565b91506124f5836115dc565b925082820190508082111561250d5761250c61219f565b5b92915050565b6000604082019050818103600083015261252d8185611ce4565b905081810360208301526125418184611ce4565b90509392505050565b600081519050919050565b600082825260208201905092915050565b60006125718261254a565b61257b8185612555565b935061258b818560208601611780565b612594816117aa565b840191505092915050565b600060a0820190506125b4600083018861210f565b6125c1602083018761210f565b6125ce6040830186611652565b6125db6060830185611652565b81810360808301526125ed8184612566565b90509695505050505050565b600081519050612608816116a8565b92915050565b60006020828403121561262457612623611574565b5b6000612632848285016125f9565b91505092915050565b600060a082019050612650600083018861210f565b61265d602083018761210f565b818103604083015261266f8186611ce4565b905081810360608301526126838185611ce4565b905081810360808301526126978184612566565b9050969550505050505056fea2646970667358221220ef84610e9d42148c4daeece4c50e64b6ac5809a5ced8d7bd5e0d9a19fe6ec5bd64736f6c634300081a0033",
  "linkReferences": {},
  "deployedLinkReferences": {}
}