{
	"contracts/SongNFT.sol": {
		"SongNFT": {
			"abi": [
				{
					"inputs": [],
					"stateMutability": "nonpayable",
					"type": "constructor"
				},
				{
					"inputs": [
						{
							"internalType": "address",
							"name": "sender",
							"type": "address"
						},
						{
							"internalType": "uint256",
							"name": "balance",
							"type": "uint256"
						},
						{
							"internalType": "uint256",
							"name": "needed",
							"type": "uint256"
						},
						{
							"internalType": "uint256",
							"name": "tokenId",
							"type": "uint256"
						}
					],
					"name": "ERC1155InsufficientBalance",
					"type": "error"
				},
				{
					"inputs": [
						{
							"internalType": "address",
							"name": "approver",
							"type": "address"
						}
					],
					"name": "ERC1155InvalidApprover",
					"type": "error"
				},
				{
					"inputs": [
						{
							"internalType": "uint256",
							"name": "idsLength",
							"type": "uint256"
						},
						{
							"internalType": "uint256",
							"name": "valuesLength",
							"type": "uint256"
						}
					],
					"name": "ERC1155InvalidArrayLength",
					"type": "error"
				},
				{
					"inputs": [
						{
							"internalType": "address",
							"name": "operator",
							"type": "address"
						}
					],
					"name": "ERC1155InvalidOperator",
					"type": "error"
				},
				{
					"inputs": [
						{
							"internalType": "address",
							"name": "receiver",
							"type": "address"
						}
					],
					"name": "ERC1155InvalidReceiver",
					"type": "error"
				},
				{
					"inputs": [
						{
							"internalType": "address",
							"name": "sender",
							"type": "address"
						}
					],
					"name": "ERC1155InvalidSender",
					"type": "error"
				},
				{
					"inputs": [
						{
							"internalType": "address",
							"name": "operator",
							"type": "address"
						},
						{
							"internalType": "address",
							"name": "owner",
							"type": "address"
						}
					],
					"name": "ERC1155MissingApprovalForAll",
					"type": "error"
				},
				{
					"anonymous": false,
					"inputs": [
						{
							"indexed": true,
							"internalType": "address",
							"name": "account",
							"type": "address"
						},
						{
							"indexed": true,
							"internalType": "address",
							"name": "operator",
							"type": "address"
						},
						{
							"indexed": false,
							"internalType": "bool",
							"name": "approved",
							"type": "bool"
						}
					],
					"name": "ApprovalForAll",
					"type": "event"
				},
				{
					"anonymous": false,
					"inputs": [
						{
							"indexed": true,
							"internalType": "address",
							"name": "operator",
							"type": "address"
						},
						{
							"indexed": true,
							"internalType": "address",
							"name": "from",
							"type": "address"
						},
						{
							"indexed": true,
							"internalType": "address",
							"name": "to",
							"type": "address"
						},
						{
							"indexed": false,
							"internalType": "uint256[]",
							"name": "ids",
							"type": "uint256[]"
						},
						{
							"indexed": false,
							"internalType": "uint256[]",
							"name": "values",
							"type": "uint256[]"
						}
					],
					"name": "TransferBatch",
					"type": "event"
				},
				{
					"anonymous": false,
					"inputs": [
						{
							"indexed": true,
							"internalType": "address",
							"name": "operator",
							"type": "address"
						},
						{
							"indexed": true,
							"internalType": "address",
							"name": "from",
							"type": "address"
						},
						{
							"indexed": true,
							"internalType": "address",
							"name": "to",
							"type": "address"
						},
						{
							"indexed": false,
							"internalType": "uint256",
							"name": "id",
							"type": "uint256"
						},
						{
							"indexed": false,
							"internalType": "uint256",
							"name": "value",
							"type": "uint256"
						}
					],
					"name": "TransferSingle",
					"type": "event"
				},
				{
					"anonymous": false,
					"inputs": [
						{
							"indexed": false,
							"internalType": "string",
							"name": "value",
							"type": "string"
						},
						{
							"indexed": true,
							"internalType": "uint256",
							"name": "id",
							"type": "uint256"
						}
					],
					"name": "URI",
					"type": "event"
				},
				{
					"inputs": [
						{
							"internalType": "address",
							"name": "account",
							"type": "address"
						},
						{
							"internalType": "uint256",
							"name": "id",
							"type": "uint256"
						}
					],
					"name": "balanceOf",
					"outputs": [
						{
							"internalType": "uint256",
							"name": "",
							"type": "uint256"
						}
					],
					"stateMutability": "view",
					"type": "function"
				},
				{
					"inputs": [
						{
							"internalType": "address[]",
							"name": "accounts",
							"type": "address[]"
						},
						{
							"internalType": "uint256[]",
							"name": "ids",
							"type": "uint256[]"
						}
					],
					"name": "balanceOfBatch",
					"outputs": [
						{
							"internalType": "uint256[]",
							"name": "",
							"type": "uint256[]"
						}
					],
					"stateMutability": "view",
					"type": "function"
				},
				{
					"inputs": [],
					"name": "currentID",
					"outputs": [
						{
							"internalType": "uint256",
							"name": "",
							"type": "uint256"
						}
					],
					"stateMutability": "view",
					"type": "function"
				},
				{
					"inputs": [
						{
							"internalType": "address",
							"name": "account",
							"type": "address"
						},
						{
							"internalType": "address",
							"name": "operator",
							"type": "address"
						}
					],
					"name": "isApprovedForAll",
					"outputs": [
						{
							"internalType": "bool",
							"name": "",
							"type": "bool"
						}
					],
					"stateMutability": "view",
					"type": "function"
				},
				{
					"inputs": [
						{
							"internalType": "uint256",
							"name": "amount",
							"type": "uint256"
						},
						{
							"internalType": "string",
							"name": "uri",
							"type": "string"
						}
					],
					"name": "mint",
					"outputs": [],
					"stateMutability": "nonpayable",
					"type": "function"
				},
				{
					"inputs": [
						{
							"internalType": "address",
							"name": "from",
							"type": "address"
						},
						{
							"internalType": "address",
							"name": "to",
							"type": "address"
						},
						{
							"internalType": "uint256[]",
							"name": "ids",
							"type": "uint256[]"
						},
						{
							"internalType": "uint256[]",
							"name": "values",
							"type": "uint256[]"
						},
						{
							"internalType": "bytes",
							"name": "data",
							"type": "bytes"
						}
					],
					"name": "safeBatchTransferFrom",
					"outputs": [],
					"stateMutability": "nonpayable",
					"type": "function"
				},
				{
					"inputs": [
						{
							"internalType": "address",
							"name": "from",
							"type": "address"
						},
						{
							"internalType": "address",
							"name": "to",
							"type": "address"
						},
						{
							"internalType": "uint256",
							"name": "id",
							"type": "uint256"
						},
						{
							"internalType": "uint256",
							"name": "value",
							"type": "uint256"
						}
					],
					"name": "safeTransferFrom",
					"outputs": [],
					"stateMutability": "nonpayable",
					"type": "function"
				},
				{
					"inputs": [
						{
							"internalType": "address",
							"name": "from",
							"type": "address"
						},
						{
							"internalType": "address",
							"name": "to",
							"type": "address"
						},
						{
							"internalType": "uint256",
							"name": "id",
							"type": "uint256"
						},
						{
							"internalType": "uint256",
							"name": "value",
							"type": "uint256"
						},
						{
							"internalType": "bytes",
							"name": "data",
							"type": "bytes"
						}
					],
					"name": "safeTransferFrom",
					"outputs": [],
					"stateMutability": "nonpayable",
					"type": "function"
				},
				{
					"inputs": [
						{
							"internalType": "address",
							"name": "operator",
							"type": "address"
						},
						{
							"internalType": "bool",
							"name": "approved",
							"type": "bool"
						}
					],
					"name": "setApprovalForAll",
					"outputs": [],
					"stateMutability": "nonpayable",
					"type": "function"
				},
				{
					"inputs": [
						{
							"internalType": "bytes4",
							"name": "interfaceId",
							"type": "bytes4"
						}
					],
					"name": "supportsInterface",
					"outputs": [
						{
							"internalType": "bool",
							"name": "",
							"type": "bool"
						}
					],
					"stateMutability": "view",
					"type": "function"
				},
				{
					"inputs": [
						{
							"internalType": "uint256",
							"name": "tokenId",
							"type": "uint256"
						}
					],
					"name": "uri",
					"outputs": [
						{
							"internalType": "string",
							"name": "",
							"type": "string"
						}
					],
					"stateMutability": "view",
					"type": "function"
				}
			],
			"devdoc": {
				"errors": {
					"ERC1155InsufficientBalance(address,uint256,uint256,uint256)": [
						{
							"details": "Indicates an error related to the current `balance` of a `sender`. Used in transfers.",
							"params": {
								"balance": "Current balance for the interacting account.",
								"needed": "Minimum amount required to perform a transfer.",
								"sender": "Address whose tokens are being transferred.",
								"tokenId": "Identifier number of a token."
							}
						}
					],
					"ERC1155InvalidApprover(address)": [
						{
							"details": "Indicates a failure with the `approver` of a token to be approved. Used in approvals.",
							"params": {
								"approver": "Address initiating an approval operation."
							}
						}
					],
					"ERC1155InvalidArrayLength(uint256,uint256)": [
						{
							"details": "Indicates an array length mismatch between ids and values in a safeBatchTransferFrom operation. Used in batch transfers.",
							"params": {
								"idsLength": "Length of the array of token identifiers",
								"valuesLength": "Length of the array of token amounts"
							}
						}
					],
					"ERC1155InvalidOperator(address)": [
						{
							"details": "Indicates a failure with the `operator` to be approved. Used in approvals.",
							"params": {
								"operator": "Address that may be allowed to operate on tokens without being their owner."
							}
						}
					],
					"ERC1155InvalidReceiver(address)": [
						{
							"details": "Indicates a failure with the token `receiver`. Used in transfers.",
							"params": {
								"receiver": "Address to which tokens are being transferred."
							}
						}
					],
					"ERC1155InvalidSender(address)": [
						{
							"details": "Indicates a failure with the token `sender`. Used in transfers.",
							"params": {
								"sender": "Address whose tokens are being transferred."
							}
						}
					],
					"ERC1155MissingApprovalForAll(address,address)": [
						{
							"details": "Indicates a failure with the `operator`’s approval. Used in transfers.",
							"params": {
								"operator": "Address that may be allowed to operate on tokens without being their owner.",
								"owner": "Address of the current owner of a token."
							}
						}
					]
				},
				"events": {
					"ApprovalForAll(address,address,bool)": {
						"details": "Emitted when `account` grants or revokes permission to `operator` to transfer their tokens, according to `approved`."
					},
					"TransferBatch(address,address,address,uint256[],uint256[])": {
						"details": "Equivalent to multiple {TransferSingle} events, where `operator`, `from` and `to` are the same for all transfers."
					},
					"TransferSingle(address,address,address,uint256,uint256)": {
						"details": "Emitted when `value` amount of tokens of type `id` are transferred from `from` to `to` by `operator`."
					},
					"URI(string,uint256)": {
						"details": "Emitted when the URI for token type `id` changes to `value`, if it is a non-programmatic URI. If an {URI} event was emitted for `id`, the standard https://eips.ethereum.org/EIPS/eip-1155#metadata-extensions[guarantees] that `value` will equal the value returned by {IERC1155MetadataURI-uri}."
					}
				},
				"kind": "dev",
				"methods": {
					"balanceOf(address,uint256)": {
						"details": "See {IERC1155-balanceOf}."
					},
					"balanceOfBatch(address[],uint256[])": {
						"details": "See {IERC1155-balanceOfBatch}. Requirements: - `accounts` and `ids` must have the same length."
					},
					"isApprovedForAll(address,address)": {
						"details": "See {IERC1155-isApprovedForAll}."
					},
					"safeBatchTransferFrom(address,address,uint256[],uint256[],bytes)": {
						"details": "See {IERC1155-safeBatchTransferFrom}."
					},
					"safeTransferFrom(address,address,uint256,uint256,bytes)": {
						"details": "See {IERC1155-safeTransferFrom}."
					},
					"setApprovalForAll(address,bool)": {
						"details": "See {IERC1155-setApprovalForAll}."
					},
					"supportsInterface(bytes4)": {
						"details": "See {IERC165-supportsInterface}."
					},
					"uri(uint256)": {
						"details": "See {IERC1155MetadataURI-uri}. This implementation returns the concatenation of the `_baseURI` and the token-specific uri if the latter is set This enables the following behaviors: - if `_tokenURIs[tokenId]` is set, then the result is the concatenation   of `_baseURI` and `_tokenURIs[tokenId]` (keep in mind that `_baseURI`   is empty per default); - if `_tokenURIs[tokenId]` is NOT set then we fallback to `super.uri()`   which in most cases will contain `ERC1155._uri`; - if `_tokenURIs[tokenId]` is NOT set, and if the parents do not have a   uri value set, then the result is empty."
					}
				},
				"version": 1
			},
			"evm": {
				"assembly": "    /* \"contracts/SongNFT.sol\":249:712  contract SongNFT is ERC1155URIStorage {... */\n  mstore(0x40, 0x80)\n    /* \"@openzeppelin/contracts/token/ERC1155/extensions/ERC1155URIStorage.sol\":476:504  string private _baseURI = \"\" */\n  mload(0x40)\n  dup1\n  0x20\n  add\n  0x40\n  mstore\n  dup1\n  0x00\n  dup2\n  mstore\n  pop\n  0x03\n  swap1\n  dup2\n  tag_1\n  swap2\n  swap1\n  tag_2\n  jump\t// in\ntag_1:\n  pop\n    /* \"contracts/SongNFT.sol\":293:320  constructor() ERC1155(\"\"){} */\n  callvalue\n  dup1\n  iszero\n  tag_3\n  jumpi\n  0x00\n  dup1\n  revert\ntag_3:\n  pop\n    /* \"@openzeppelin/contracts/token/ERC1155/ERC1155.sol\":1251:1313  constructor(string memory uri_) {... */\n  mload(0x40)\n  dup1\n  0x20\n  add\n  0x40\n  mstore\n  dup1\n  0x00\n  dup2\n  mstore\n  pop\n    /* \"@openzeppelin/contracts/token/ERC1155/ERC1155.sol\":1293:1306  _setURI(uri_) */\n  tag_7\n    /* \"@openzeppelin/contracts/token/ERC1155/ERC1155.sol\":1301:1305  uri_ */\n  dup2\n    /* \"@openzeppelin/contracts/token/ERC1155/ERC1155.sol\":1293:1300  _setURI */\n  shl(0x20, tag_8)\n    /* \"@openzeppelin/contracts/token/ERC1155/ERC1155.sol\":1293:1306  _setURI(uri_) */\n  0x20\n  shr\n  jump\t// in\ntag_7:\n    /* \"@openzeppelin/contracts/token/ERC1155/ERC1155.sol\":1251:1313  constructor(string memory uri_) {... */\n  pop\n    /* \"contracts/SongNFT.sol\":249:712  contract SongNFT is ERC1155URIStorage {... */\n  jump(tag_10)\n    /* \"@openzeppelin/contracts/token/ERC1155/ERC1155.sol\":10282:10368  function _setURI(string memory newuri) internal virtual {... */\ntag_8:\n    /* \"@openzeppelin/contracts/token/ERC1155/ERC1155.sol\":10355:10361  newuri */\n  dup1\n    /* \"@openzeppelin/contracts/token/ERC1155/ERC1155.sol\":10348:10352  _uri */\n  0x02\n    /* \"@openzeppelin/contracts/token/ERC1155/ERC1155.sol\":10348:10361  _uri = newuri */\n  swap1\n  dup2\n  tag_12\n  swap2\n  swap1\n  tag_2\n  jump\t// in\ntag_12:\n  pop\n    /* \"@openzeppelin/contracts/token/ERC1155/ERC1155.sol\":10282:10368  function _setURI(string memory newuri) internal virtual {... */\n  pop\n  jump\t// out\n    /* \"#utility.yul\":7:106   */\ntag_13:\n    /* \"#utility.yul\":59:65   */\n  0x00\n    /* \"#utility.yul\":93:98   */\n  dup2\n    /* \"#utility.yul\":87:99   */\n  mload\n    /* \"#utility.yul\":77:99   */\n  swap1\n  pop\n    /* \"#utility.yul\":7:106   */\n  swap2\n  swap1\n  pop\n  jump\t// out\n    /* \"#utility.yul\":112:292   */\ntag_14:\n    /* \"#utility.yul\":160:237   */\n  0x4e487b7100000000000000000000000000000000000000000000000000000000\n    /* \"#utility.yul\":157:158   */\n  0x00\n    /* \"#utility.yul\":150:238   */\n  mstore\n    /* \"#utility.yul\":257:261   */\n  0x41\n    /* \"#utility.yul\":254:255   */\n  0x04\n    /* \"#utility.yul\":247:262   */\n  mstore\n    /* \"#utility.yul\":281:285   */\n  0x24\n    /* \"#utility.yul\":278:279   */\n  0x00\n    /* \"#utility.yul\":271:286   */\n  revert\n    /* \"#utility.yul\":298:478   */\ntag_15:\n    /* \"#utility.yul\":346:423   */\n  0x4e487b7100000000000000000000000000000000000000000000000000000000\n    /* \"#utility.yul\":343:344   */\n  0x00\n    /* \"#utility.yul\":336:424   */\n  mstore\n    /* \"#utility.yul\":443:447   */\n  0x22\n    /* \"#utility.yul\":440:441   */\n  0x04\n    /* \"#utility.yul\":433:448   */\n  mstore\n    /* \"#utility.yul\":467:471   */\n  0x24\n    /* \"#utility.yul\":464:465   */\n  0x00\n    /* \"#utility.yul\":457:472   */\n  revert\n    /* \"#utility.yul\":484:804   */\ntag_16:\n    /* \"#utility.yul\":528:534   */\n  0x00\n    /* \"#utility.yul\":565:566   */\n  0x02\n    /* \"#utility.yul\":559:563   */\n  dup3\n    /* \"#utility.yul\":555:567   */\n  div\n    /* \"#utility.yul\":545:567   */\n  swap1\n  pop\n    /* \"#utility.yul\":612:613   */\n  0x01\n    /* \"#utility.yul\":606:610   */\n  dup3\n    /* \"#utility.yul\":602:614   */\n  and\n    /* \"#utility.yul\":633:651   */\n  dup1\n    /* \"#utility.yul\":623:704   */\n  tag_38\n  jumpi\n    /* \"#utility.yul\":689:693   */\n  0x7f\n    /* \"#utility.yul\":681:687   */\n  dup3\n    /* \"#utility.yul\":677:694   */\n  and\n    /* \"#utility.yul\":667:694   */\n  swap2\n  pop\n    /* \"#utility.yul\":623:704   */\ntag_38:\n    /* \"#utility.yul\":751:753   */\n  0x20\n    /* \"#utility.yul\":743:749   */\n  dup3\n    /* \"#utility.yul\":740:754   */\n  lt\n    /* \"#utility.yul\":720:738   */\n  dup2\n    /* \"#utility.yul\":717:755   */\n  sub\n    /* \"#utility.yul\":714:798   */\n  tag_39\n  jumpi\n    /* \"#utility.yul\":770:788   */\n  tag_40\n  tag_15\n  jump\t// in\ntag_40:\n    /* \"#utility.yul\":714:798   */\ntag_39:\n    /* \"#utility.yul\":535:804   */\n  pop\n    /* \"#utility.yul\":484:804   */\n  swap2\n  swap1\n  pop\n  jump\t// out\n    /* \"#utility.yul\":810:951   */\ntag_17:\n    /* \"#utility.yul\":859:863   */\n  0x00\n    /* \"#utility.yul\":882:885   */\n  dup2\n    /* \"#utility.yul\":874:885   */\n  swap1\n  pop\n    /* \"#utility.yul\":905:908   */\n  dup2\n    /* \"#utility.yul\":902:903   */\n  0x00\n    /* \"#utility.yul\":895:909   */\n  mstore\n    /* \"#utility.yul\":939:943   */\n  0x20\n    /* \"#utility.yul\":936:937   */\n  0x00\n    /* \"#utility.yul\":926:944   */\n  keccak256\n    /* \"#utility.yul\":918:944   */\n  swap1\n  pop\n    /* \"#utility.yul\":810:951   */\n  swap2\n  swap1\n  pop\n  jump\t// out\n    /* \"#utility.yul\":957:1050   */\ntag_18:\n    /* \"#utility.yul\":994:1000   */\n  0x00\n    /* \"#utility.yul\":1041:1043   */\n  0x20\n    /* \"#utility.yul\":1036:1038   */\n  0x1f\n    /* \"#utility.yul\":1029:1034   */\n  dup4\n    /* \"#utility.yul\":1025:1039   */\n  add\n    /* \"#utility.yul\":1021:1044   */\n  div\n    /* \"#utility.yul\":1011:1044   */\n  swap1\n  pop\n    /* \"#utility.yul\":957:1050   */\n  swap2\n  swap1\n  pop\n  jump\t// out\n    /* \"#utility.yul\":1056:1163   */\ntag_19:\n    /* \"#utility.yul\":1100:1108   */\n  0x00\n    /* \"#utility.yul\":1150:1155   */\n  dup3\n    /* \"#utility.yul\":1144:1148   */\n  dup3\n    /* \"#utility.yul\":1140:1156   */\n  shl\n    /* \"#utility.yul\":1119:1156   */\n  swap1\n  pop\n    /* \"#utility.yul\":1056:1163   */\n  swap3\n  swap2\n  pop\n  pop\n  jump\t// out\n    /* \"#utility.yul\":1169:1562   */\ntag_20:\n    /* \"#utility.yul\":1238:1244   */\n  0x00\n    /* \"#utility.yul\":1288:1289   */\n  0x08\n    /* \"#utility.yul\":1276:1286   */\n  dup4\n    /* \"#utility.yul\":1272:1290   */\n  mul\n    /* \"#utility.yul\":1311:1408   */\n  tag_45\n    /* \"#utility.yul\":1341:1407   */\n  0xffffffffffffffffffffffffffffffffffffffffffffffffffffffffffffffff\n    /* \"#utility.yul\":1330:1339   */\n  dup3\n    /* \"#utility.yul\":1311:1408   */\n  tag_19\n  jump\t// in\ntag_45:\n    /* \"#utility.yul\":1429:1468   */\n  tag_46\n    /* \"#utility.yul\":1459:1467   */\n  dup7\n    /* \"#utility.yul\":1448:1457   */\n  dup4\n    /* \"#utility.yul\":1429:1468   */\n  tag_19\n  jump\t// in\ntag_46:\n    /* \"#utility.yul\":1417:1468   */\n  swap6\n  pop\n    /* \"#utility.yul\":1501:1505   */\n  dup1\n    /* \"#utility.yul\":1497:1506   */\n  not\n    /* \"#utility.yul\":1490:1495   */\n  dup5\n    /* \"#utility.yul\":1486:1507   */\n  and\n    /* \"#utility.yul\":1477:1507   */\n  swap4\n  pop\n    /* \"#utility.yul\":1550:1554   */\n  dup1\n    /* \"#utility.yul\":1540:1548   */\n  dup7\n    /* \"#utility.yul\":1536:1555   */\n  and\n    /* \"#utility.yul\":1529:1534   */\n  dup5\n    /* \"#utility.yul\":1526:1556   */\n  or\n    /* \"#utility.yul\":1516:1556   */\n  swap3\n  pop\n    /* \"#utility.yul\":1245:1562   */\n  pop\n  pop\n    /* \"#utility.yul\":1169:1562   */\n  swap4\n  swap3\n  pop\n  pop\n  pop\n  jump\t// out\n    /* \"#utility.yul\":1568:1645   */\ntag_21:\n    /* \"#utility.yul\":1605:1612   */\n  0x00\n    /* \"#utility.yul\":1634:1639   */\n  dup2\n    /* \"#utility.yul\":1623:1639   */\n  swap1\n  pop\n    /* \"#utility.yul\":1568:1645   */\n  swap2\n  swap1\n  pop\n  jump\t// out\n    /* \"#utility.yul\":1651:1711   */\ntag_22:\n    /* \"#utility.yul\":1679:1682   */\n  0x00\n    /* \"#utility.yul\":1700:1705   */\n  dup2\n    /* \"#utility.yul\":1693:1705   */\n  swap1\n  pop\n    /* \"#utility.yul\":1651:1711   */\n  swap2\n  swap1\n  pop\n  jump\t// out\n    /* \"#utility.yul\":1717:1859   */\ntag_23:\n    /* \"#utility.yul\":1767:1776   */\n  0x00\n    /* \"#utility.yul\":1800:1853   */\n  tag_50\n    /* \"#utility.yul\":1818:1852   */\n  tag_51\n    /* \"#utility.yul\":1827:1851   */\n  tag_52\n    /* \"#utility.yul\":1845:1850   */\n  dup5\n    /* \"#utility.yul\":1827:1851   */\n  tag_21\n  jump\t// in\ntag_52:\n    /* \"#utility.yul\":1818:1852   */\n  tag_22\n  jump\t// in\ntag_51:\n    /* \"#utility.yul\":1800:1853   */\n  tag_21\n  jump\t// in\ntag_50:\n    /* \"#utility.yul\":1787:1853   */\n  swap1\n  pop\n    /* \"#utility.yul\":1717:1859   */\n  swap2\n  swap1\n  pop\n  jump\t// out\n    /* \"#utility.yul\":1865:1940   */\ntag_24:\n    /* \"#utility.yul\":1908:1911   */\n  0x00\n    /* \"#utility.yul\":1929:1934   */\n  dup2\n    /* \"#utility.yul\":1922:1934   */\n  swap1\n  pop\n    /* \"#utility.yul\":1865:1940   */\n  swap2\n  swap1\n  pop\n  jump\t// out\n    /* \"#utility.yul\":1946:2215   */\ntag_25:\n    /* \"#utility.yul\":2056:2095   */\n  tag_55\n    /* \"#utility.yul\":2087:2094   */\n  dup4\n    /* \"#utility.yul\":2056:2095   */\n  tag_23\n  jump\t// in\ntag_55:\n    /* \"#utility.yul\":2117:2208   */\n  tag_56\n    /* \"#utility.yul\":2166:2207   */\n  tag_57\n    /* \"#utility.yul\":2190:2206   */\n  dup3\n    /* \"#utility.yul\":2166:2207   */\n  tag_24\n  jump\t// in\ntag_57:\n    /* \"#utility.yul\":2158:2164   */\n  dup5\n    /* \"#utility.yul\":2151:2155   */\n  dup5\n    /* \"#utility.yul\":2145:2156   */\n  sload\n    /* \"#utility.yul\":2117:2208   */\n  tag_20\n  jump\t// in\ntag_56:\n    /* \"#utility.yul\":2111:2115   */\n  dup3\n    /* \"#utility.yul\":2104:2209   */\n  sstore\n    /* \"#utility.yul\":2022:2215   */\n  pop\n    /* \"#utility.yul\":1946:2215   */\n  pop\n  pop\n  pop\n  jump\t// out\n    /* \"#utility.yul\":2221:2294   */\ntag_26:\n    /* \"#utility.yul\":2266:2269   */\n  0x00\n    /* \"#utility.yul\":2221:2294   */\n  swap1\n  jump\t// out\n    /* \"#utility.yul\":2300:2489   */\ntag_27:\n    /* \"#utility.yul\":2377:2409   */\n  tag_60\n  tag_26\n  jump\t// in\ntag_60:\n    /* \"#utility.yul\":2418:2483   */\n  tag_61\n    /* \"#utility.yul\":2476:2482   */\n  dup2\n    /* \"#utility.yul\":2468:2474   */\n  dup5\n    /* \"#utility.yul\":2462:2466   */\n  dup5\n    /* \"#utility.yul\":2418:2483   */\n  tag_25\n  jump\t// in\ntag_61:\n    /* \"#utility.yul\":2353:2489   */\n  pop\n    /* \"#utility.yul\":2300:2489   */\n  pop\n  pop\n  jump\t// out\n    /* \"#utility.yul\":2495:2681   */\ntag_28:\n    /* \"#utility.yul\":2555:2675   */\ntag_63:\n    /* \"#utility.yul\":2572:2575   */\n  dup2\n    /* \"#utility.yul\":2565:2570   */\n  dup2\n    /* \"#utility.yul\":2562:2576   */\n  lt\n    /* \"#utility.yul\":2555:2675   */\n  iszero\n  tag_65\n  jumpi\n    /* \"#utility.yul\":2626:2665   */\n  tag_66\n    /* \"#utility.yul\":2663:2664   */\n  0x00\n    /* \"#utility.yul\":2656:2661   */\n  dup3\n    /* \"#utility.yul\":2626:2665   */\n  tag_27\n  jump\t// in\ntag_66:\n    /* \"#utility.yul\":2599:2600   */\n  0x01\n    /* \"#utility.yul\":2592:2597   */\n  dup2\n    /* \"#utility.yul\":2588:2601   */\n  add\n    /* \"#utility.yul\":2579:2601   */\n  swap1\n  pop\n    /* \"#utility.yul\":2555:2675   */\n  jump(tag_63)\ntag_65:\n    /* \"#utility.yul\":2495:2681   */\n  pop\n  pop\n  jump\t// out\n    /* \"#utility.yul\":2687:3230   */\ntag_29:\n    /* \"#utility.yul\":2788:2790   */\n  0x1f\n    /* \"#utility.yul\":2783:2786   */\n  dup3\n    /* \"#utility.yul\":2780:2791   */\n  gt\n    /* \"#utility.yul\":2777:3223   */\n  iszero\n  tag_68\n  jumpi\n    /* \"#utility.yul\":2822:2860   */\n  tag_69\n    /* \"#utility.yul\":2854:2859   */\n  dup2\n    /* \"#utility.yul\":2822:2860   */\n  tag_17\n  jump\t// in\ntag_69:\n    /* \"#utility.yul\":2906:2935   */\n  tag_70\n    /* \"#utility.yul\":2924:2934   */\n  dup5\n    /* \"#utility.yul\":2906:2935   */\n  tag_18\n  jump\t// in\ntag_70:\n    /* \"#utility.yul\":2896:2904   */\n  dup2\n    /* \"#utility.yul\":2892:2936   */\n  add\n    /* \"#utility.yul\":3089:3091   */\n  0x20\n    /* \"#utility.yul\":3077:3087   */\n  dup6\n    /* \"#utility.yul\":3074:3092   */\n  lt\n    /* \"#utility.yul\":3071:3120   */\n  iszero\n  tag_71\n  jumpi\n    /* \"#utility.yul\":3110:3118   */\n  dup2\n    /* \"#utility.yul\":3095:3118   */\n  swap1\n  pop\n    /* \"#utility.yul\":3071:3120   */\ntag_71:\n    /* \"#utility.yul\":3133:3213   */\n  tag_72\n    /* \"#utility.yul\":3189:3211   */\n  tag_73\n    /* \"#utility.yul\":3207:3210   */\n  dup6\n    /* \"#utility.yul\":3189:3211   */\n  tag_18\n  jump\t// in\ntag_73:\n    /* \"#utility.yul\":3179:3187   */\n  dup4\n    /* \"#utility.yul\":3175:3212   */\n  add\n    /* \"#utility.yul\":3162:3173   */\n  dup3\n    /* \"#utility.yul\":3133:3213   */\n  tag_28\n  jump\t// in\ntag_72:\n    /* \"#utility.yul\":2792:3223   */\n  pop\n  pop\n    /* \"#utility.yul\":2777:3223   */\ntag_68:\n    /* \"#utility.yul\":2687:3230   */\n  pop\n  pop\n  pop\n  jump\t// out\n    /* \"#utility.yul\":3236:3353   */\ntag_30:\n    /* \"#utility.yul\":3290:3298   */\n  0x00\n    /* \"#utility.yul\":3340:3345   */\n  dup3\n    /* \"#utility.yul\":3334:3338   */\n  dup3\n    /* \"#utility.yul\":3330:3346   */\n  shr\n    /* \"#utility.yul\":3309:3346   */\n  swap1\n  pop\n    /* \"#utility.yul\":3236:3353   */\n  swap3\n  swap2\n  pop\n  pop\n  jump\t// out\n    /* \"#utility.yul\":3359:3528   */\ntag_31:\n    /* \"#utility.yul\":3403:3409   */\n  0x00\n    /* \"#utility.yul\":3436:3487   */\n  tag_76\n    /* \"#utility.yul\":3484:3485   */\n  0x00\n    /* \"#utility.yul\":3480:3486   */\n  not\n    /* \"#utility.yul\":3472:3477   */\n  dup5\n    /* \"#utility.yul\":3469:3470   */\n  0x08\n    /* \"#utility.yul\":3465:3478   */\n  mul\n    /* \"#utility.yul\":3436:3487   */\n  tag_30\n  jump\t// in\ntag_76:\n    /* \"#utility.yul\":3432:3488   */\n  not\n    /* \"#utility.yul\":3517:3521   */\n  dup1\n    /* \"#utility.yul\":3511:3515   */\n  dup4\n    /* \"#utility.yul\":3507:3522   */\n  and\n    /* \"#utility.yul\":3497:3522   */\n  swap2\n  pop\n    /* \"#utility.yul\":3410:3528   */\n  pop\n    /* \"#utility.yul\":3359:3528   */\n  swap3\n  swap2\n  pop\n  pop\n  jump\t// out\n    /* \"#utility.yul\":3533:3828   */\ntag_32:\n    /* \"#utility.yul\":3609:3613   */\n  0x00\n    /* \"#utility.yul\":3755:3784   */\n  tag_78\n    /* \"#utility.yul\":3780:3783   */\n  dup4\n    /* \"#utility.yul\":3774:3778   */\n  dup4\n    /* \"#utility.yul\":3755:3784   */\n  tag_31\n  jump\t// in\ntag_78:\n    /* \"#utility.yul\":3747:3784   */\n  swap2\n  pop\n    /* \"#utility.yul\":3817:3820   */\n  dup3\n    /* \"#utility.yul\":3814:3815   */\n  0x02\n    /* \"#utility.yul\":3810:3821   */\n  mul\n    /* \"#utility.yul\":3804:3808   */\n  dup3\n    /* \"#utility.yul\":3801:3822   */\n  or\n    /* \"#utility.yul\":3793:3822   */\n  swap1\n  pop\n    /* \"#utility.yul\":3533:3828   */\n  swap3\n  swap2\n  pop\n  pop\n  jump\t// out\n    /* \"#utility.yul\":3833:5228   */\ntag_2:\n    /* \"#utility.yul\":3950:3987   */\n  tag_80\n    /* \"#utility.yul\":3983:3986   */\n  dup3\n    /* \"#utility.yul\":3950:3987   */\n  tag_13\n  jump\t// in\ntag_80:\n    /* \"#utility.yul\":4052:4070   */\n  0xffffffffffffffff\n    /* \"#utility.yul\":4044:4050   */\n  dup2\n    /* \"#utility.yul\":4041:4071   */\n  gt\n    /* \"#utility.yul\":4038:4094   */\n  iszero\n  tag_81\n  jumpi\n    /* \"#utility.yul\":4074:4092   */\n  tag_82\n  tag_14\n  jump\t// in\ntag_82:\n    /* \"#utility.yul\":4038:4094   */\ntag_81:\n    /* \"#utility.yul\":4118:4156   */\n  tag_83\n    /* \"#utility.yul\":4150:4154   */\n  dup3\n    /* \"#utility.yul\":4144:4155   */\n  sload\n    /* \"#utility.yul\":4118:4156   */\n  tag_16\n  jump\t// in\ntag_83:\n    /* \"#utility.yul\":4203:4270   */\n  tag_84\n    /* \"#utility.yul\":4263:4269   */\n  dup3\n    /* \"#utility.yul\":4255:4261   */\n  dup3\n    /* \"#utility.yul\":4249:4253   */\n  dup6\n    /* \"#utility.yul\":4203:4270   */\n  tag_29\n  jump\t// in\ntag_84:\n    /* \"#utility.yul\":4297:4298   */\n  0x00\n    /* \"#utility.yul\":4321:4325   */\n  0x20\n    /* \"#utility.yul\":4308:4325   */\n  swap1\n  pop\n    /* \"#utility.yul\":4353:4355   */\n  0x1f\n    /* \"#utility.yul\":4345:4351   */\n  dup4\n    /* \"#utility.yul\":4342:4356   */\n  gt\n    /* \"#utility.yul\":4370:4371   */\n  0x01\n    /* \"#utility.yul\":4365:4983   */\n  dup2\n  eq\n  tag_86\n  jumpi\n    /* \"#utility.yul\":5027:5028   */\n  0x00\n    /* \"#utility.yul\":5044:5050   */\n  dup5\n    /* \"#utility.yul\":5041:5118   */\n  iszero\n  tag_87\n  jumpi\n    /* \"#utility.yul\":5093:5102   */\n  dup3\n    /* \"#utility.yul\":5088:5091   */\n  dup8\n    /* \"#utility.yul\":5084:5103   */\n  add\n    /* \"#utility.yul\":5078:5104   */\n  mload\n    /* \"#utility.yul\":5069:5104   */\n  swap1\n  pop\n    /* \"#utility.yul\":5041:5118   */\ntag_87:\n    /* \"#utility.yul\":5144:5211   */\n  tag_88\n    /* \"#utility.yul\":5204:5210   */\n  dup6\n    /* \"#utility.yul\":5197:5202   */\n  dup3\n    /* \"#utility.yul\":5144:5211   */\n  tag_32\n  jump\t// in\ntag_88:\n    /* \"#utility.yul\":5138:5142   */\n  dup7\n    /* \"#utility.yul\":5131:5212   */\n  sstore\n    /* \"#utility.yul\":5000:5222   */\n  pop\n    /* \"#utility.yul\":4335:5222   */\n  jump(tag_85)\n    /* \"#utility.yul\":4365:4983   */\ntag_86:\n    /* \"#utility.yul\":4417:4421   */\n  0x1f\n    /* \"#utility.yul\":4413:4422   */\n  not\n    /* \"#utility.yul\":4405:4411   */\n  dup5\n    /* \"#utility.yul\":4401:4423   */\n  and\n    /* \"#utility.yul\":4451:4488   */\n  tag_89\n    /* \"#utility.yul\":4483:4487   */\n  dup7\n    /* \"#utility.yul\":4451:4488   */\n  tag_17\n  jump\t// in\ntag_89:\n    /* \"#utility.yul\":4510:4511   */\n  0x00\n    /* \"#utility.yul\":4524:4732   */\ntag_90:\n    /* \"#utility.yul\":4538:4545   */\n  dup3\n    /* \"#utility.yul\":4535:4536   */\n  dup2\n    /* \"#utility.yul\":4532:4546   */\n  lt\n    /* \"#utility.yul\":4524:4732   */\n  iszero\n  tag_92\n  jumpi\n    /* \"#utility.yul\":4617:4626   */\n  dup5\n    /* \"#utility.yul\":4612:4615   */\n  dup10\n    /* \"#utility.yul\":4608:4627   */\n  add\n    /* \"#utility.yul\":4602:4628   */\n  mload\n    /* \"#utility.yul\":4594:4600   */\n  dup3\n    /* \"#utility.yul\":4587:4629   */\n  sstore\n    /* \"#utility.yul\":4668:4669   */\n  0x01\n    /* \"#utility.yul\":4660:4666   */\n  dup3\n    /* \"#utility.yul\":4656:4670   */\n  add\n    /* \"#utility.yul\":4646:4670   */\n  swap2\n  pop\n    /* \"#utility.yul\":4715:4717   */\n  0x20\n    /* \"#utility.yul\":4704:4713   */\n  dup6\n    /* \"#utility.yul\":4700:4718   */\n  add\n    /* \"#utility.yul\":4687:4718   */\n  swap5\n  pop\n    /* \"#utility.yul\":4561:4565   */\n  0x20\n    /* \"#utility.yul\":4558:4559   */\n  dup2\n    /* \"#utility.yul\":4554:4566   */\n  add\n    /* \"#utility.yul\":4549:4566   */\n  swap1\n  pop\n    /* \"#utility.yul\":4524:4732   */\n  jump(tag_90)\ntag_92:\n    /* \"#utility.yul\":4760:4766   */\n  dup7\n    /* \"#utility.yul\":4751:4758   */\n  dup4\n    /* \"#utility.yul\":4748:4767   */\n  lt\n    /* \"#utility.yul\":4745:4924   */\n  iszero\n  tag_93\n  jumpi\n    /* \"#utility.yul\":4818:4827   */\n  dup5\n    /* \"#utility.yul\":4813:4816   */\n  dup10\n    /* \"#utility.yul\":4809:4828   */\n  add\n    /* \"#utility.yul\":4803:4829   */\n  mload\n    /* \"#utility.yul\":4861:4909   */\n  tag_94\n    /* \"#utility.yul\":4903:4907   */\n  0x1f\n    /* \"#utility.yul\":4895:4901   */\n  dup10\n    /* \"#utility.yul\":4891:4908   */\n  and\n    /* \"#utility.yul\":4880:4889   */\n  dup3\n    /* \"#utility.yul\":4861:4909   */\n  tag_31\n  jump\t// in\ntag_94:\n    /* \"#utility.yul\":4853:4859   */\n  dup4\n    /* \"#utility.yul\":4846:4910   */\n  sstore\n    /* \"#utility.yul\":4768:4924   */\n  pop\n    /* \"#utility.yul\":4745:4924   */\ntag_93:\n    /* \"#utility.yul\":4970:4971   */\n  0x01\n    /* \"#utility.yul\":4966:4967   */\n  0x02\n    /* \"#utility.yul\":4958:4964   */\n  dup9\n    /* \"#utility.yul\":4954:4968   */\n  mul\n    /* \"#utility.yul\":4950:4972   */\n  add\n    /* \"#utility.yul\":4944:4948   */\n  dup9\n    /* \"#utility.yul\":4937:4973   */\n  sstore\n    /* \"#utility.yul\":4372:4983   */\n  pop\n  pop\n  pop\n    /* \"#utility.yul\":4335:5222   */\ntag_85:\n  pop\n    /* \"#utility.yul\":3925:5228   */\n  pop\n  pop\n  pop\n    /* \"#utility.yul\":3833:5228   */\n  pop\n  pop\n  jump\t// out\n    /* \"contracts/SongNFT.sol\":249:712  contract SongNFT is ERC1155URIStorage {... */\ntag_10:\n  dataSize(sub_0)\n  dup1\n  dataOffset(sub_0)\n  0x00\n  codecopy\n  0x00\n  return\nstop\n\nsub_0: assembly {\n        /* \"contracts/SongNFT.sol\":249:712  contract SongNFT is ERC1155URIStorage {... */\n      mstore(0x40, 0x80)\n      callvalue\n      dup1\n      iszero\n      tag_1\n      jumpi\n      0x00\n      dup1\n      revert\n    tag_1:\n      pop\n      jumpi(tag_2, lt(calldatasize, 0x04))\n      shr(0xe0, calldataload(0x00))\n      dup1\n      0x2eb2c2d6\n      gt\n      tag_14\n      jumpi\n      dup1\n      0x2eb2c2d6\n      eq\n      tag_8\n      jumpi\n      dup1\n      0x4e1273f4\n      eq\n      tag_9\n      jumpi\n      dup1\n      0x77097fc8\n      eq\n      tag_10\n      jumpi\n      dup1\n      0xa22cb465\n      eq\n      tag_11\n      jumpi\n      dup1\n      0xe985e9c5\n      eq\n      tag_12\n      jumpi\n      dup1\n      0xf242432a\n      eq\n      tag_13\n      jumpi\n      jump(tag_2)\n    tag_14:\n      dup1\n      0xfdd58e\n      eq\n      tag_3\n      jumpi\n      dup1\n      0x01ffc9a7\n      eq\n      tag_4\n      jumpi\n      dup1\n      0x0e89341c\n      eq\n      tag_5\n      jumpi\n      dup1\n      0x0febdd49\n      eq\n      tag_6\n      jumpi\n      dup1\n      0x1c75cfb4\n      eq\n      tag_7\n      jumpi\n    tag_2:\n      0x00\n      dup1\n      revert\n        /* \"@openzeppelin/contracts/token/ERC1155/ERC1155.sol\":2247:2379  function balanceOf(address account, uint256 id) public view virtual returns (uint256) {... */\n    tag_3:\n      tag_15\n      0x04\n      dup1\n      calldatasize\n      sub\n      dup2\n      add\n      swap1\n      tag_16\n      swap2\n      swap1\n      tag_17\n      jump\t// in\n    tag_16:\n      tag_18\n      jump\t// in\n    tag_15:\n      mload(0x40)\n      tag_19\n      swap2\n      swap1\n      tag_20\n      jump\t// in\n    tag_19:\n      mload(0x40)\n      dup1\n      swap2\n      sub\n      swap1\n      return\n        /* \"@openzeppelin/contracts/token/ERC1155/ERC1155.sol\":1380:1685  function supportsInterface(bytes4 interfaceId) public view virtual override(ERC165, IERC165) returns (bool) {... */\n    tag_4:\n      tag_21\n      0x04\n      dup1\n      calldatasize\n      sub\n      dup2\n      add\n      swap1\n      tag_22\n      swap2\n      swap1\n      tag_23\n      jump\t// in\n    tag_22:\n      tag_24\n      jump\t// in\n    tag_21:\n      mload(0x40)\n      tag_25\n      swap2\n      swap1\n      tag_26\n      jump\t// in\n    tag_25:\n      mload(0x40)\n      dup1\n      swap2\n      sub\n      swap1\n      return\n        /* \"@openzeppelin/contracts/token/ERC1155/extensions/ERC1155URIStorage.sol\":1331:1663  function uri(uint256 tokenId) public view virtual override returns (string memory) {... */\n    tag_5:\n      tag_27\n      0x04\n      dup1\n      calldatasize\n      sub\n      dup2\n      add\n      swap1\n      tag_28\n      swap2\n      swap1\n      tag_29\n      jump\t// in\n    tag_28:\n      tag_30\n      jump\t// in\n    tag_27:\n      mload(0x40)\n      tag_31\n      swap2\n      swap1\n      tag_32\n      jump\t// in\n    tag_31:\n      mload(0x40)\n      dup1\n      swap2\n      sub\n      swap1\n      return\n        /* \"contracts/SongNFT.sol\":554:710  function safeTransferFrom(address from, address to, uint256 id, uint256 value) external  {... */\n    tag_6:\n      tag_33\n      0x04\n      dup1\n      calldatasize\n      sub\n      dup2\n      add\n      swap1\n      tag_34\n      swap2\n      swap1\n      tag_35\n      jump\t// in\n    tag_34:\n      tag_36\n      jump\t// in\n    tag_33:\n      stop\n        /* \"contracts/SongNFT.sol\":326:350  uint256 public currentID */\n    tag_7:\n      tag_37\n      tag_38\n      jump\t// in\n    tag_37:\n      mload(0x40)\n      tag_39\n      swap2\n      swap1\n      tag_20\n      jump\t// in\n    tag_39:\n      mload(0x40)\n      dup1\n      swap2\n      sub\n      swap1\n      return\n        /* \"@openzeppelin/contracts/token/ERC1155/ERC1155.sol\":4014:4443  function safeBatchTransferFrom(... */\n    tag_8:\n      tag_40\n      0x04\n      dup1\n      calldatasize\n      sub\n      dup2\n      add\n      swap1\n      tag_41\n      swap2\n      swap1\n      tag_42\n      jump\t// in\n    tag_41:\n      tag_43\n      jump\t// in\n    tag_40:\n      stop\n        /* \"@openzeppelin/contracts/token/ERC1155/ERC1155.sol\":2536:3088  function balanceOfBatch(... */\n    tag_9:\n      tag_44\n      0x04\n      dup1\n      calldatasize\n      sub\n      dup2\n      add\n      swap1\n      tag_45\n      swap2\n      swap1\n      tag_46\n      jump\t// in\n    tag_45:\n      tag_47\n      jump\t// in\n    tag_44:\n      mload(0x40)\n      tag_48\n      swap2\n      swap1\n      tag_49\n      jump\t// in\n    tag_48:\n      mload(0x40)\n      dup1\n      swap2\n      sub\n      swap1\n      return\n        /* \"contracts/SongNFT.sol\":357:548  function mint(... */\n    tag_10:\n      tag_50\n      0x04\n      dup1\n      calldatasize\n      sub\n      dup2\n      add\n      swap1\n      tag_51\n      swap2\n      swap1\n      tag_52\n      jump\t// in\n    tag_51:\n      tag_53\n      jump\t// in\n    tag_50:\n      stop\n        /* \"@openzeppelin/contracts/token/ERC1155/ERC1155.sol\":3156:3300  function setApprovalForAll(address operator, bool approved) public virtual {... */\n    tag_11:\n      tag_54\n      0x04\n      dup1\n      calldatasize\n      sub\n      dup2\n      add\n      swap1\n      tag_55\n      swap2\n      swap1\n      tag_56\n      jump\t// in\n    tag_55:\n      tag_57\n      jump\t// in\n    tag_54:\n      stop\n        /* \"@openzeppelin/contracts/token/ERC1155/ERC1155.sol\":3367:3524  function isApprovedForAll(address account, address operator) public view virtual returns (bool) {... */\n    tag_12:\n      tag_58\n      0x04\n      dup1\n      calldatasize\n      sub\n      dup2\n      add\n      swap1\n      tag_59\n      swap2\n      swap1\n      tag_60\n      jump\t// in\n    tag_59:\n      tag_61\n      jump\t// in\n    tag_58:\n      mload(0x40)\n      tag_62\n      swap2\n      swap1\n      tag_26\n      jump\t// in\n    tag_62:\n      mload(0x40)\n      dup1\n      swap2\n      sub\n      swap1\n      return\n        /* \"@openzeppelin/contracts/token/ERC1155/ERC1155.sol\":3591:3942  function safeTransferFrom(address from, address to, uint256 id, uint256 value, bytes memory data) public virtual {... */\n    tag_13:\n      tag_63\n      0x04\n      dup1\n      calldatasize\n      sub\n      dup2\n      add\n      swap1\n      tag_64\n      swap2\n      swap1\n      tag_65\n      jump\t// in\n    tag_64:\n      tag_66\n      jump\t// in\n    tag_63:\n      stop\n        /* \"@openzeppelin/contracts/token/ERC1155/ERC1155.sol\":2247:2379  function balanceOf(address account, uint256 id) public view virtual returns (uint256) {... */\n    tag_18:\n        /* \"@openzeppelin/contracts/token/ERC1155/ERC1155.sol\":2324:2331  uint256 */\n      0x00\n        /* \"@openzeppelin/contracts/token/ERC1155/ERC1155.sol\":2350:2359  _balances */\n      dup1\n        /* \"@openzeppelin/contracts/token/ERC1155/ERC1155.sol\":2350:2363  _balances[id] */\n      0x00\n        /* \"@openzeppelin/contracts/token/ERC1155/ERC1155.sol\":2360:2362  id */\n      dup4\n        /* \"@openzeppelin/contracts/token/ERC1155/ERC1155.sol\":2350:2363  _balances[id] */\n      dup2\n      mstore\n      0x20\n      add\n      swap1\n      dup2\n      mstore\n      0x20\n      add\n      0x00\n      keccak256\n        /* \"@openzeppelin/contracts/token/ERC1155/ERC1155.sol\":2350:2372  _balances[id][account] */\n      0x00\n        /* \"@openzeppelin/contracts/token/ERC1155/ERC1155.sol\":2364:2371  account */\n      dup5\n        /* \"@openzeppelin/contracts/token/ERC1155/ERC1155.sol\":2350:2372  _balances[id][account] */\n      0xffffffffffffffffffffffffffffffffffffffff\n      and\n      0xffffffffffffffffffffffffffffffffffffffff\n      and\n      dup2\n      mstore\n      0x20\n      add\n      swap1\n      dup2\n      mstore\n      0x20\n      add\n      0x00\n      keccak256\n      sload\n        /* \"@openzeppelin/contracts/token/ERC1155/ERC1155.sol\":2343:2372  return _balances[id][account] */\n      swap1\n      pop\n        /* \"@openzeppelin/contracts/token/ERC1155/ERC1155.sol\":2247:2379  function balanceOf(address account, uint256 id) public view virtual returns (uint256) {... */\n      swap3\n      swap2\n      pop\n      pop\n      jump\t// out\n        /* \"@openzeppelin/contracts/token/ERC1155/ERC1155.sol\":1380:1685  function supportsInterface(bytes4 interfaceId) public view virtual override(ERC165, IERC165) returns (bool) {... */\n    tag_24:\n        /* \"@openzeppelin/contracts/token/ERC1155/ERC1155.sol\":1482:1486  bool */\n      0x00\n        /* \"@openzeppelin/contracts/token/ERC1155/ERC1155.sol\":1532:1558  type(IERC1155).interfaceId */\n      0xd9b67a2600000000000000000000000000000000000000000000000000000000\n        /* \"@openzeppelin/contracts/token/ERC1155/ERC1155.sol\":1517:1558  interfaceId == type(IERC1155).interfaceId */\n      not(0xffffffffffffffffffffffffffffffffffffffffffffffffffffffff)\n      and\n        /* \"@openzeppelin/contracts/token/ERC1155/ERC1155.sol\":1517:1528  interfaceId */\n      dup3\n        /* \"@openzeppelin/contracts/token/ERC1155/ERC1155.sol\":1517:1558  interfaceId == type(IERC1155).interfaceId */\n      not(0xffffffffffffffffffffffffffffffffffffffffffffffffffffffff)\n      and\n      eq\n        /* \"@openzeppelin/contracts/token/ERC1155/ERC1155.sol\":1517:1626  interfaceId == type(IERC1155).interfaceId ||... */\n      dup1\n      tag_69\n      jumpi\n      pop\n        /* \"@openzeppelin/contracts/token/ERC1155/ERC1155.sol\":1589:1626  type(IERC1155MetadataURI).interfaceId */\n      0x0e89341c00000000000000000000000000000000000000000000000000000000\n        /* \"@openzeppelin/contracts/token/ERC1155/ERC1155.sol\":1574:1626  interfaceId == type(IERC1155MetadataURI).interfaceId */\n      not(0xffffffffffffffffffffffffffffffffffffffffffffffffffffffff)\n      and\n        /* \"@openzeppelin/contracts/token/ERC1155/ERC1155.sol\":1574:1585  interfaceId */\n      dup3\n        /* \"@openzeppelin/contracts/token/ERC1155/ERC1155.sol\":1574:1626  interfaceId == type(IERC1155MetadataURI).interfaceId */\n      not(0xffffffffffffffffffffffffffffffffffffffffffffffffffffffff)\n      and\n      eq\n        /* \"@openzeppelin/contracts/token/ERC1155/ERC1155.sol\":1517:1626  interfaceId == type(IERC1155).interfaceId ||... */\n    tag_69:\n        /* \"@openzeppelin/contracts/token/ERC1155/ERC1155.sol\":1517:1678  interfaceId == type(IERC1155).interfaceId ||... */\n      dup1\n      tag_70\n      jumpi\n      pop\n        /* \"@openzeppelin/contracts/token/ERC1155/ERC1155.sol\":1642:1678  super.supportsInterface(interfaceId) */\n      tag_71\n        /* \"@openzeppelin/contracts/token/ERC1155/ERC1155.sol\":1666:1677  interfaceId */\n      dup3\n        /* \"@openzeppelin/contracts/token/ERC1155/ERC1155.sol\":1642:1665  super.supportsInterface */\n      tag_72\n        /* \"@openzeppelin/contracts/token/ERC1155/ERC1155.sol\":1642:1678  super.supportsInterface(interfaceId) */\n      jump\t// in\n    tag_71:\n        /* \"@openzeppelin/contracts/token/ERC1155/ERC1155.sol\":1517:1678  interfaceId == type(IERC1155).interfaceId ||... */\n    tag_70:\n        /* \"@openzeppelin/contracts/token/ERC1155/ERC1155.sol\":1498:1678  return... */\n      swap1\n      pop\n        /* \"@openzeppelin/contracts/token/ERC1155/ERC1155.sol\":1380:1685  function supportsInterface(bytes4 interfaceId) public view virtual override(ERC165, IERC165) returns (bool) {... */\n      swap2\n      swap1\n      pop\n      jump\t// out\n        /* \"@openzeppelin/contracts/token/ERC1155/extensions/ERC1155URIStorage.sol\":1331:1663  function uri(uint256 tokenId) public view virtual override returns (string memory) {... */\n    tag_30:\n        /* \"@openzeppelin/contracts/token/ERC1155/extensions/ERC1155URIStorage.sol\":1399:1412  string memory */\n      0x60\n        /* \"@openzeppelin/contracts/token/ERC1155/extensions/ERC1155URIStorage.sol\":1424:1446  string memory tokenURI */\n      0x00\n        /* \"@openzeppelin/contracts/token/ERC1155/extensions/ERC1155URIStorage.sol\":1449:1459  _tokenURIs */\n      0x04\n        /* \"@openzeppelin/contracts/token/ERC1155/extensions/ERC1155URIStorage.sol\":1449:1468  _tokenURIs[tokenId] */\n      0x00\n        /* \"@openzeppelin/contracts/token/ERC1155/extensions/ERC1155URIStorage.sol\":1460:1467  tokenId */\n      dup5\n        /* \"@openzeppelin/contracts/token/ERC1155/extensions/ERC1155URIStorage.sol\":1449:1468  _tokenURIs[tokenId] */\n      dup2\n      mstore\n      0x20\n      add\n      swap1\n      dup2\n      mstore\n      0x20\n      add\n      0x00\n      keccak256\n        /* \"@openzeppelin/contracts/token/ERC1155/extensions/ERC1155URIStorage.sol\":1424:1468  string memory tokenURI = _tokenURIs[tokenId] */\n      dup1\n      sload\n      tag_74\n      swap1\n      tag_75\n      jump\t// in\n    tag_74:\n      dup1\n      0x1f\n      add\n      0x20\n      dup1\n      swap2\n      div\n      mul\n      0x20\n      add\n      mload(0x40)\n      swap1\n      dup2\n      add\n      0x40\n      mstore\n      dup1\n      swap3\n      swap2\n      swap1\n      dup2\n      dup2\n      mstore\n      0x20\n      add\n      dup3\n      dup1\n      sload\n      tag_76\n      swap1\n      tag_75\n      jump\t// in\n    tag_76:\n      dup1\n      iszero\n      tag_77\n      jumpi\n      dup1\n      0x1f\n      lt\n      tag_78\n      jumpi\n      0x0100\n      dup1\n      dup4\n      sload\n      div\n      mul\n      dup4\n      mstore\n      swap2\n      0x20\n      add\n      swap2\n      jump(tag_77)\n    tag_78:\n      dup3\n      add\n      swap2\n      swap1\n      0x00\n      mstore\n      keccak256(0x00, 0x20)\n      swap1\n    tag_79:\n      dup2\n      sload\n      dup2\n      mstore\n      swap1\n      0x01\n      add\n      swap1\n      0x20\n      add\n      dup1\n      dup4\n      gt\n      tag_79\n      jumpi\n      dup3\n      swap1\n      sub\n      0x1f\n      and\n      dup3\n      add\n      swap2\n    tag_77:\n      pop\n      pop\n      pop\n      pop\n      pop\n      swap1\n      pop\n        /* \"@openzeppelin/contracts/token/ERC1155/extensions/ERC1155URIStorage.sol\":1598:1599  0 */\n      0x00\n        /* \"@openzeppelin/contracts/token/ERC1155/extensions/ERC1155URIStorage.sol\":1579:1587  tokenURI */\n      dup2\n        /* \"@openzeppelin/contracts/token/ERC1155/extensions/ERC1155URIStorage.sol\":1573:1595  bytes(tokenURI).length */\n      mload\n        /* \"@openzeppelin/contracts/token/ERC1155/extensions/ERC1155URIStorage.sol\":1573:1599  bytes(tokenURI).length > 0 */\n      gt\n        /* \"@openzeppelin/contracts/token/ERC1155/extensions/ERC1155URIStorage.sol\":1573:1656  bytes(tokenURI).length > 0 ? string.concat(_baseURI, tokenURI) : super.uri(tokenId) */\n      tag_80\n      jumpi\n        /* \"@openzeppelin/contracts/token/ERC1155/extensions/ERC1155URIStorage.sol\":1638:1656  super.uri(tokenId) */\n      tag_81\n        /* \"@openzeppelin/contracts/token/ERC1155/extensions/ERC1155URIStorage.sol\":1648:1655  tokenId */\n      dup4\n        /* \"@openzeppelin/contracts/token/ERC1155/extensions/ERC1155URIStorage.sol\":1638:1647  super.uri */\n      tag_82\n        /* \"@openzeppelin/contracts/token/ERC1155/extensions/ERC1155URIStorage.sol\":1638:1656  super.uri(tokenId) */\n      jump\t// in\n    tag_81:\n        /* \"@openzeppelin/contracts/token/ERC1155/extensions/ERC1155URIStorage.sol\":1573:1656  bytes(tokenURI).length > 0 ? string.concat(_baseURI, tokenURI) : super.uri(tokenId) */\n      jump(tag_83)\n    tag_80:\n        /* \"@openzeppelin/contracts/token/ERC1155/extensions/ERC1155URIStorage.sol\":1616:1624  _baseURI */\n      0x03\n        /* \"@openzeppelin/contracts/token/ERC1155/extensions/ERC1155URIStorage.sol\":1626:1634  tokenURI */\n      dup2\n        /* \"@openzeppelin/contracts/token/ERC1155/extensions/ERC1155URIStorage.sol\":1602:1635  string.concat(_baseURI, tokenURI) */\n      add(0x20, mload(0x40))\n      tag_84\n      swap3\n      swap2\n      swap1\n      tag_85\n      jump\t// in\n    tag_84:\n      mload(0x40)\n      0x20\n      dup2\n      dup4\n      sub\n      sub\n      dup2\n      mstore\n      swap1\n      0x40\n      mstore\n        /* \"@openzeppelin/contracts/token/ERC1155/extensions/ERC1155URIStorage.sol\":1573:1656  bytes(tokenURI).length > 0 ? string.concat(_baseURI, tokenURI) : super.uri(tokenId) */\n    tag_83:\n        /* \"@openzeppelin/contracts/token/ERC1155/extensions/ERC1155URIStorage.sol\":1566:1656  return bytes(tokenURI).length > 0 ? string.concat(_baseURI, tokenURI) : super.uri(tokenId) */\n      swap2\n      pop\n      pop\n        /* \"@openzeppelin/contracts/token/ERC1155/extensions/ERC1155URIStorage.sol\":1331:1663  function uri(uint256 tokenId) public view virtual override returns (string memory) {... */\n      swap2\n      swap1\n      pop\n      jump\t// out\n        /* \"contracts/SongNFT.sol\":554:710  function safeTransferFrom(address from, address to, uint256 id, uint256 value) external  {... */\n    tag_36:\n        /* \"contracts/SongNFT.sol\":653:703  super.safeTransferFrom(from,  to,  id,  value, \"\") */\n      tag_87\n        /* \"contracts/SongNFT.sol\":676:680  from */\n      dup5\n        /* \"contracts/SongNFT.sol\":683:685  to */\n      dup5\n        /* \"contracts/SongNFT.sol\":688:690  id */\n      dup5\n        /* \"contracts/SongNFT.sol\":693:698  value */\n      dup5\n        /* \"contracts/SongNFT.sol\":653:703  super.safeTransferFrom(from,  to,  id,  value, \"\") */\n      mload(0x40)\n      dup1\n      0x20\n      add\n      0x40\n      mstore\n      dup1\n      0x00\n      dup2\n      mstore\n      pop\n        /* \"contracts/SongNFT.sol\":653:675  super.safeTransferFrom */\n      tag_66\n        /* \"contracts/SongNFT.sol\":653:703  super.safeTransferFrom(from,  to,  id,  value, \"\") */\n      jump\t// in\n    tag_87:\n        /* \"contracts/SongNFT.sol\":554:710  function safeTransferFrom(address from, address to, uint256 id, uint256 value) external  {... */\n      pop\n      pop\n      pop\n      pop\n      jump\t// out\n        /* \"contracts/SongNFT.sol\":326:350  uint256 public currentID */\n    tag_38:\n      sload(0x05)\n      dup2\n      jump\t// out\n        /* \"@openzeppelin/contracts/token/ERC1155/ERC1155.sol\":4014:4443  function safeBatchTransferFrom(... */\n    tag_43:\n        /* \"@openzeppelin/contracts/token/ERC1155/ERC1155.sol\":4208:4222  address sender */\n      0x00\n        /* \"@openzeppelin/contracts/token/ERC1155/ERC1155.sol\":4225:4237  _msgSender() */\n      tag_89\n        /* \"@openzeppelin/contracts/token/ERC1155/ERC1155.sol\":4225:4235  _msgSender */\n      tag_90\n        /* \"@openzeppelin/contracts/token/ERC1155/ERC1155.sol\":4225:4237  _msgSender() */\n      jump\t// in\n    tag_89:\n        /* \"@openzeppelin/contracts/token/ERC1155/ERC1155.sol\":4208:4237  address sender = _msgSender() */\n      swap1\n      pop\n        /* \"@openzeppelin/contracts/token/ERC1155/ERC1155.sol\":4259:4265  sender */\n      dup1\n        /* \"@openzeppelin/contracts/token/ERC1155/ERC1155.sol\":4251:4265  from != sender */\n      0xffffffffffffffffffffffffffffffffffffffff\n      and\n        /* \"@openzeppelin/contracts/token/ERC1155/ERC1155.sol\":4251:4255  from */\n      dup7\n        /* \"@openzeppelin/contracts/token/ERC1155/ERC1155.sol\":4251:4265  from != sender */\n      0xffffffffffffffffffffffffffffffffffffffff\n      and\n      eq\n      iszero\n        /* \"@openzeppelin/contracts/token/ERC1155/ERC1155.sol\":4251:4300  from != sender && !isApprovedForAll(from, sender) */\n      dup1\n      iszero\n      tag_91\n      jumpi\n      pop\n        /* \"@openzeppelin/contracts/token/ERC1155/ERC1155.sol\":4270:4300  isApprovedForAll(from, sender) */\n      tag_92\n        /* \"@openzeppelin/contracts/token/ERC1155/ERC1155.sol\":4287:4291  from */\n      dup7\n        /* \"@openzeppelin/contracts/token/ERC1155/ERC1155.sol\":4293:4299  sender */\n      dup3\n        /* \"@openzeppelin/contracts/token/ERC1155/ERC1155.sol\":4270:4286  isApprovedForAll */\n      tag_61\n        /* \"@openzeppelin/contracts/token/ERC1155/ERC1155.sol\":4270:4300  isApprovedForAll(from, sender) */\n      jump\t// in\n    tag_92:\n        /* \"@openzeppelin/contracts/token/ERC1155/ERC1155.sol\":4269:4300  !isApprovedForAll(from, sender) */\n      iszero\n        /* \"@openzeppelin/contracts/token/ERC1155/ERC1155.sol\":4251:4300  from != sender && !isApprovedForAll(from, sender) */\n    tag_91:\n        /* \"@openzeppelin/contracts/token/ERC1155/ERC1155.sol\":4247:4376  if (from != sender && !isApprovedForAll(from, sender)) {... */\n      iszero\n      tag_93\n      jumpi\n        /* \"@openzeppelin/contracts/token/ERC1155/ERC1155.sol\":4352:4358  sender */\n      dup1\n        /* \"@openzeppelin/contracts/token/ERC1155/ERC1155.sol\":4360:4364  from */\n      dup7\n        /* \"@openzeppelin/contracts/token/ERC1155/ERC1155.sol\":4323:4365  ERC1155MissingApprovalForAll(sender, from) */\n      mload(0x40)\n      0xe237d92200000000000000000000000000000000000000000000000000000000\n      dup2\n      mstore\n      0x04\n      add\n      tag_94\n      swap3\n      swap2\n      swap1\n      tag_95\n      jump\t// in\n    tag_94:\n      mload(0x40)\n      dup1\n      swap2\n      sub\n      swap1\n      revert\n        /* \"@openzeppelin/contracts/token/ERC1155/ERC1155.sol\":4247:4376  if (from != sender && !isApprovedForAll(from, sender)) {... */\n    tag_93:\n        /* \"@openzeppelin/contracts/token/ERC1155/ERC1155.sol\":4385:4436  _safeBatchTransferFrom(from, to, ids, values, data) */\n      tag_96\n        /* \"@openzeppelin/contracts/token/ERC1155/ERC1155.sol\":4408:4412  from */\n      dup7\n        /* \"@openzeppelin/contracts/token/ERC1155/ERC1155.sol\":4414:4416  to */\n      dup7\n        /* \"@openzeppelin/contracts/token/ERC1155/ERC1155.sol\":4418:4421  ids */\n      dup7\n        /* \"@openzeppelin/contracts/token/ERC1155/ERC1155.sol\":4423:4429  values */\n      dup7\n        /* \"@openzeppelin/contracts/token/ERC1155/ERC1155.sol\":4431:4435  data */\n      dup7\n        /* \"@openzeppelin/contracts/token/ERC1155/ERC1155.sol\":4385:4407  _safeBatchTransferFrom */\n      tag_97\n        /* \"@openzeppelin/contracts/token/ERC1155/ERC1155.sol\":4385:4436  _safeBatchTransferFrom(from, to, ids, values, data) */\n      jump\t// in\n    tag_96:\n        /* \"@openzeppelin/contracts/token/ERC1155/ERC1155.sol\":4198:4443  {... */\n      pop\n        /* \"@openzeppelin/contracts/token/ERC1155/ERC1155.sol\":4014:4443  function safeBatchTransferFrom(... */\n      pop\n      pop\n      pop\n      pop\n      pop\n      jump\t// out\n        /* \"@openzeppelin/contracts/token/ERC1155/ERC1155.sol\":2536:3088  function balanceOfBatch(... */\n    tag_47:\n        /* \"@openzeppelin/contracts/token/ERC1155/ERC1155.sol\":2660:2676  uint256[] memory */\n      0x60\n        /* \"@openzeppelin/contracts/token/ERC1155/ERC1155.sol\":2711:2714  ids */\n      dup2\n        /* \"@openzeppelin/contracts/token/ERC1155/ERC1155.sol\":2711:2721  ids.length */\n      mload\n        /* \"@openzeppelin/contracts/token/ERC1155/ERC1155.sol\":2692:2700  accounts */\n      dup4\n        /* \"@openzeppelin/contracts/token/ERC1155/ERC1155.sol\":2692:2707  accounts.length */\n      mload\n        /* \"@openzeppelin/contracts/token/ERC1155/ERC1155.sol\":2692:2721  accounts.length != ids.length */\n      eq\n        /* \"@openzeppelin/contracts/token/ERC1155/ERC1155.sol\":2688:2809  if (accounts.length != ids.length) {... */\n      tag_99\n      jumpi\n        /* \"@openzeppelin/contracts/token/ERC1155/ERC1155.sol\":2770:2773  ids */\n      dup2\n        /* \"@openzeppelin/contracts/token/ERC1155/ERC1155.sol\":2770:2780  ids.length */\n      mload\n        /* \"@openzeppelin/contracts/token/ERC1155/ERC1155.sol\":2782:2790  accounts */\n      dup4\n        /* \"@openzeppelin/contracts/token/ERC1155/ERC1155.sol\":2782:2797  accounts.length */\n      mload\n        /* \"@openzeppelin/contracts/token/ERC1155/ERC1155.sol\":2744:2798  ERC1155InvalidArrayLength(ids.length, accounts.length) */\n      mload(0x40)\n      0x5b05999100000000000000000000000000000000000000000000000000000000\n      dup2\n      mstore\n      0x04\n      add\n      tag_100\n      swap3\n      swap2\n      swap1\n      tag_101\n      jump\t// in\n    tag_100:\n      mload(0x40)\n      dup1\n      swap2\n      sub\n      swap1\n      revert\n        /* \"@openzeppelin/contracts/token/ERC1155/ERC1155.sol\":2688:2809  if (accounts.length != ids.length) {... */\n    tag_99:\n        /* \"@openzeppelin/contracts/token/ERC1155/ERC1155.sol\":2819:2849  uint256[] memory batchBalances */\n      0x00\n        /* \"@openzeppelin/contracts/token/ERC1155/ERC1155.sol\":2866:2874  accounts */\n      dup4\n        /* \"@openzeppelin/contracts/token/ERC1155/ERC1155.sol\":2866:2881  accounts.length */\n      mload\n        /* \"@openzeppelin/contracts/token/ERC1155/ERC1155.sol\":2852:2882  new uint256[](accounts.length) */\n      0xffffffffffffffff\n      dup2\n      gt\n      iszero\n      tag_102\n      jumpi\n      tag_103\n      tag_104\n      jump\t// in\n    tag_103:\n    tag_102:\n      mload(0x40)\n      swap1\n      dup1\n      dup3\n      mstore\n      dup1\n      0x20\n      mul\n      0x20\n      add\n      dup3\n      add\n      0x40\n      mstore\n      dup1\n      iszero\n      tag_105\n      jumpi\n      dup2\n      0x20\n      add\n      0x20\n      dup3\n      mul\n      dup1\n      calldatasize\n      dup4\n      calldatacopy\n      dup1\n      dup3\n      add\n      swap2\n      pop\n      pop\n      swap1\n      pop\n    tag_105:\n      pop\n        /* \"@openzeppelin/contracts/token/ERC1155/ERC1155.sol\":2819:2882  uint256[] memory batchBalances = new uint256[](accounts.length) */\n      swap1\n      pop\n        /* \"@openzeppelin/contracts/token/ERC1155/ERC1155.sol\":2898:2907  uint256 i */\n      0x00\n        /* \"@openzeppelin/contracts/token/ERC1155/ERC1155.sol\":2893:3051  for (uint256 i = 0; i < accounts.length; ++i) {... */\n    tag_106:\n        /* \"@openzeppelin/contracts/token/ERC1155/ERC1155.sol\":2917:2925  accounts */\n      dup5\n        /* \"@openzeppelin/contracts/token/ERC1155/ERC1155.sol\":2917:2932  accounts.length */\n      mload\n        /* \"@openzeppelin/contracts/token/ERC1155/ERC1155.sol\":2913:2914  i */\n      dup2\n        /* \"@openzeppelin/contracts/token/ERC1155/ERC1155.sol\":2913:2932  i < accounts.length */\n      lt\n        /* \"@openzeppelin/contracts/token/ERC1155/ERC1155.sol\":2893:3051  for (uint256 i = 0; i < accounts.length; ++i) {... */\n      iszero\n      tag_107\n      jumpi\n        /* \"@openzeppelin/contracts/token/ERC1155/ERC1155.sol\":2972:3040  balanceOf(accounts.unsafeMemoryAccess(i), ids.unsafeMemoryAccess(i)) */\n      tag_109\n        /* \"@openzeppelin/contracts/token/ERC1155/ERC1155.sol\":2982:3012  accounts.unsafeMemoryAccess(i) */\n      tag_110\n        /* \"@openzeppelin/contracts/token/ERC1155/ERC1155.sol\":3010:3011  i */\n      dup3\n        /* \"@openzeppelin/contracts/token/ERC1155/ERC1155.sol\":2982:2990  accounts */\n      dup8\n        /* \"@openzeppelin/contracts/token/ERC1155/ERC1155.sol\":2982:3009  accounts.unsafeMemoryAccess */\n      tag_111\n      swap1\n        /* \"@openzeppelin/contracts/token/ERC1155/ERC1155.sol\":2982:3012  accounts.unsafeMemoryAccess(i) */\n      swap2\n      swap1\n      0xffffffff\n      and\n      jump\t// in\n    tag_110:\n        /* \"@openzeppelin/contracts/token/ERC1155/ERC1155.sol\":3014:3039  ids.unsafeMemoryAccess(i) */\n      tag_112\n        /* \"@openzeppelin/contracts/token/ERC1155/ERC1155.sol\":3037:3038  i */\n      dup4\n        /* \"@openzeppelin/contracts/token/ERC1155/ERC1155.sol\":3014:3017  ids */\n      dup8\n        /* \"@openzeppelin/contracts/token/ERC1155/ERC1155.sol\":3014:3036  ids.unsafeMemoryAccess */\n      tag_113\n      swap1\n        /* \"@openzeppelin/contracts/token/ERC1155/ERC1155.sol\":3014:3039  ids.unsafeMemoryAccess(i) */\n      swap2\n      swap1\n      0xffffffff\n      and\n      jump\t// in\n    tag_112:\n        /* \"@openzeppelin/contracts/token/ERC1155/ERC1155.sol\":2972:2981  balanceOf */\n      tag_18\n        /* \"@openzeppelin/contracts/token/ERC1155/ERC1155.sol\":2972:3040  balanceOf(accounts.unsafeMemoryAccess(i), ids.unsafeMemoryAccess(i)) */\n      jump\t// in\n    tag_109:\n        /* \"@openzeppelin/contracts/token/ERC1155/ERC1155.sol\":2953:2966  batchBalances */\n      dup3\n        /* \"@openzeppelin/contracts/token/ERC1155/ERC1155.sol\":2967:2968  i */\n      dup3\n        /* \"@openzeppelin/contracts/token/ERC1155/ERC1155.sol\":2953:2969  batchBalances[i] */\n      dup2\n      mload\n      dup2\n      lt\n      tag_114\n      jumpi\n      tag_115\n      tag_116\n      jump\t// in\n    tag_115:\n    tag_114:\n      0x20\n      mul\n      0x20\n      add\n      add\n        /* \"@openzeppelin/contracts/token/ERC1155/ERC1155.sol\":2953:3040  batchBalances[i] = balanceOf(accounts.unsafeMemoryAccess(i), ids.unsafeMemoryAccess(i)) */\n      dup2\n      dup2\n      mstore\n      pop\n      pop\n        /* \"@openzeppelin/contracts/token/ERC1155/ERC1155.sol\":2934:2937  ++i */\n      dup1\n      0x01\n      add\n      swap1\n      pop\n        /* \"@openzeppelin/contracts/token/ERC1155/ERC1155.sol\":2893:3051  for (uint256 i = 0; i < accounts.length; ++i) {... */\n      jump(tag_106)\n    tag_107:\n      pop\n        /* \"@openzeppelin/contracts/token/ERC1155/ERC1155.sol\":3068:3081  batchBalances */\n      dup1\n        /* \"@openzeppelin/contracts/token/ERC1155/ERC1155.sol\":3061:3081  return batchBalances */\n      swap2\n      pop\n      pop\n        /* \"@openzeppelin/contracts/token/ERC1155/ERC1155.sol\":2536:3088  function balanceOfBatch(... */\n      swap3\n      swap2\n      pop\n      pop\n      jump\t// out\n        /* \"contracts/SongNFT.sol\":357:548  function mint(... */\n    tag_53:\n        /* \"contracts/SongNFT.sol\":447:487  _mint(msg.sender, currentID, amount, \"\") */\n      tag_118\n        /* \"contracts/SongNFT.sol\":453:463  msg.sender */\n      caller\n        /* \"contracts/SongNFT.sol\":465:474  currentID */\n      sload(0x05)\n        /* \"contracts/SongNFT.sol\":476:482  amount */\n      dup5\n        /* \"contracts/SongNFT.sol\":447:487  _mint(msg.sender, currentID, amount, \"\") */\n      mload(0x40)\n      dup1\n      0x20\n      add\n      0x40\n      mstore\n      dup1\n      0x00\n      dup2\n      mstore\n      pop\n        /* \"contracts/SongNFT.sol\":447:452  _mint */\n      tag_119\n        /* \"contracts/SongNFT.sol\":447:487  _mint(msg.sender, currentID, amount, \"\") */\n      jump\t// in\n    tag_118:\n        /* \"contracts/SongNFT.sol\":497:520  _setURI(currentID, uri) */\n      tag_120\n        /* \"contracts/SongNFT.sol\":505:514  currentID */\n      sload(0x05)\n        /* \"contracts/SongNFT.sol\":516:519  uri */\n      dup3\n        /* \"contracts/SongNFT.sol\":497:504  _setURI */\n      tag_121\n        /* \"contracts/SongNFT.sol\":497:520  _setURI(currentID, uri) */\n      jump\t// in\n    tag_120:\n        /* \"contracts/SongNFT.sol\":530:539  currentID */\n      0x05\n      0x00\n        /* \"contracts/SongNFT.sol\":530:541  currentID++ */\n      dup2\n      sload\n      dup1\n      swap3\n      swap2\n      swap1\n      tag_122\n      swap1\n      tag_123\n      jump\t// in\n    tag_122:\n      swap2\n      swap1\n      pop\n      sstore\n      pop\n        /* \"contracts/SongNFT.sol\":357:548  function mint(... */\n      pop\n      pop\n      jump\t// out\n        /* \"@openzeppelin/contracts/token/ERC1155/ERC1155.sol\":3156:3300  function setApprovalForAll(address operator, bool approved) public virtual {... */\n    tag_57:\n        /* \"@openzeppelin/contracts/token/ERC1155/ERC1155.sol\":3241:3293  _setApprovalForAll(_msgSender(), operator, approved) */\n      tag_125\n        /* \"@openzeppelin/contracts/token/ERC1155/ERC1155.sol\":3260:3272  _msgSender() */\n      tag_126\n        /* \"@openzeppelin/contracts/token/ERC1155/ERC1155.sol\":3260:3270  _msgSender */\n      tag_90\n        /* \"@openzeppelin/contracts/token/ERC1155/ERC1155.sol\":3260:3272  _msgSender() */\n      jump\t// in\n    tag_126:\n        /* \"@openzeppelin/contracts/token/ERC1155/ERC1155.sol\":3274:3282  operator */\n      dup4\n        /* \"@openzeppelin/contracts/token/ERC1155/ERC1155.sol\":3284:3292  approved */\n      dup4\n        /* \"@openzeppelin/contracts/token/ERC1155/ERC1155.sol\":3241:3259  _setApprovalForAll */\n      tag_127\n        /* \"@openzeppelin/contracts/token/ERC1155/ERC1155.sol\":3241:3293  _setApprovalForAll(_msgSender(), operator, approved) */\n      jump\t// in\n    tag_125:\n        /* \"@openzeppelin/contracts/token/ERC1155/ERC1155.sol\":3156:3300  function setApprovalForAll(address operator, bool approved) public virtual {... */\n      pop\n      pop\n      jump\t// out\n        /* \"@openzeppelin/contracts/token/ERC1155/ERC1155.sol\":3367:3524  function isApprovedForAll(address account, address operator) public view virtual returns (bool) {... */\n    tag_61:\n        /* \"@openzeppelin/contracts/token/ERC1155/ERC1155.sol\":3457:3461  bool */\n      0x00\n        /* \"@openzeppelin/contracts/token/ERC1155/ERC1155.sol\":3480:3498  _operatorApprovals */\n      0x01\n        /* \"@openzeppelin/contracts/token/ERC1155/ERC1155.sol\":3480:3507  _operatorApprovals[account] */\n      0x00\n        /* \"@openzeppelin/contracts/token/ERC1155/ERC1155.sol\":3499:3506  account */\n      dup5\n        /* \"@openzeppelin/contracts/token/ERC1155/ERC1155.sol\":3480:3507  _operatorApprovals[account] */\n      0xffffffffffffffffffffffffffffffffffffffff\n      and\n      0xffffffffffffffffffffffffffffffffffffffff\n      and\n      dup2\n      mstore\n      0x20\n      add\n      swap1\n      dup2\n      mstore\n      0x20\n      add\n      0x00\n      keccak256\n        /* \"@openzeppelin/contracts/token/ERC1155/ERC1155.sol\":3480:3517  _operatorApprovals[account][operator] */\n      0x00\n        /* \"@openzeppelin/contracts/token/ERC1155/ERC1155.sol\":3508:3516  operator */\n      dup4\n        /* \"@openzeppelin/contracts/token/ERC1155/ERC1155.sol\":3480:3517  _operatorApprovals[account][operator] */\n      0xffffffffffffffffffffffffffffffffffffffff\n      and\n      0xffffffffffffffffffffffffffffffffffffffff\n      and\n      dup2\n      mstore\n      0x20\n      add\n      swap1\n      dup2\n      mstore\n      0x20\n      add\n      0x00\n      keccak256\n      0x00\n      swap1\n      sload\n      swap1\n      0x0100\n      exp\n      swap1\n      div\n      0xff\n      and\n        /* \"@openzeppelin/contracts/token/ERC1155/ERC1155.sol\":3473:3517  return _operatorApprovals[account][operator] */\n      swap1\n      pop\n        /* \"@openzeppelin/contracts/token/ERC1155/ERC1155.sol\":3367:3524  function isApprovedForAll(address account, address operator) public view virtual returns (bool) {... */\n      swap3\n      swap2\n      pop\n      pop\n      jump\t// out\n        /* \"@openzeppelin/contracts/token/ERC1155/ERC1155.sol\":3591:3942  function safeTransferFrom(address from, address to, uint256 id, uint256 value, bytes memory data) public virtual {... */\n    tag_66:\n        /* \"@openzeppelin/contracts/token/ERC1155/ERC1155.sol\":3714:3728  address sender */\n      0x00\n        /* \"@openzeppelin/contracts/token/ERC1155/ERC1155.sol\":3731:3743  _msgSender() */\n      tag_130\n        /* \"@openzeppelin/contracts/token/ERC1155/ERC1155.sol\":3731:3741  _msgSender */\n      tag_90\n        /* \"@openzeppelin/contracts/token/ERC1155/ERC1155.sol\":3731:3743  _msgSender() */\n      jump\t// in\n    tag_130:\n        /* \"@openzeppelin/contracts/token/ERC1155/ERC1155.sol\":3714:3743  address sender = _msgSender() */\n      swap1\n      pop\n        /* \"@openzeppelin/contracts/token/ERC1155/ERC1155.sol\":3765:3771  sender */\n      dup1\n        /* \"@openzeppelin/contracts/token/ERC1155/ERC1155.sol\":3757:3771  from != sender */\n      0xffffffffffffffffffffffffffffffffffffffff\n      and\n        /* \"@openzeppelin/contracts/token/ERC1155/ERC1155.sol\":3757:3761  from */\n      dup7\n        /* \"@openzeppelin/contracts/token/ERC1155/ERC1155.sol\":3757:3771  from != sender */\n      0xffffffffffffffffffffffffffffffffffffffff\n      and\n      eq\n      iszero\n        /* \"@openzeppelin/contracts/token/ERC1155/ERC1155.sol\":3757:3806  from != sender && !isApprovedForAll(from, sender) */\n      dup1\n      iszero\n      tag_131\n      jumpi\n      pop\n        /* \"@openzeppelin/contracts/token/ERC1155/ERC1155.sol\":3776:3806  isApprovedForAll(from, sender) */\n      tag_132\n        /* \"@openzeppelin/contracts/token/ERC1155/ERC1155.sol\":3793:3797  from */\n      dup7\n        /* \"@openzeppelin/contracts/token/ERC1155/ERC1155.sol\":3799:3805  sender */\n      dup3\n        /* \"@openzeppelin/contracts/token/ERC1155/ERC1155.sol\":3776:3792  isApprovedForAll */\n      tag_61\n        /* \"@openzeppelin/contracts/token/ERC1155/ERC1155.sol\":3776:3806  isApprovedForAll(from, sender) */\n      jump\t// in\n    tag_132:\n        /* \"@openzeppelin/contracts/token/ERC1155/ERC1155.sol\":3775:3806  !isApprovedForAll(from, sender) */\n      iszero\n        /* \"@openzeppelin/contracts/token/ERC1155/ERC1155.sol\":3757:3806  from != sender && !isApprovedForAll(from, sender) */\n    tag_131:\n        /* \"@openzeppelin/contracts/token/ERC1155/ERC1155.sol\":3753:3882  if (from != sender && !isApprovedForAll(from, sender)) {... */\n      iszero\n      tag_133\n      jumpi\n        /* \"@openzeppelin/contracts/token/ERC1155/ERC1155.sol\":3858:3864  sender */\n      dup1\n        /* \"@openzeppelin/contracts/token/ERC1155/ERC1155.sol\":3866:3870  from */\n      dup7\n        /* \"@openzeppelin/contracts/token/ERC1155/ERC1155.sol\":3829:3871  ERC1155MissingApprovalForAll(sender, from) */\n      mload(0x40)\n      0xe237d92200000000000000000000000000000000000000000000000000000000\n      dup2\n      mstore\n      0x04\n      add\n      tag_134\n      swap3\n      swap2\n      swap1\n      tag_95\n      jump\t// in\n    tag_134:\n      mload(0x40)\n      dup1\n      swap2\n      sub\n      swap1\n      revert\n        /* \"@openzeppelin/contracts/token/ERC1155/ERC1155.sol\":3753:3882  if (from != sender && !isApprovedForAll(from, sender)) {... */\n    tag_133:\n        /* \"@openzeppelin/contracts/token/ERC1155/ERC1155.sol\":3891:3935  _safeTransferFrom(from, to, id, value, data) */\n      tag_135\n        /* \"@openzeppelin/contracts/token/ERC1155/ERC1155.sol\":3909:3913  from */\n      dup7\n        /* \"@openzeppelin/contracts/token/ERC1155/ERC1155.sol\":3915:3917  to */\n      dup7\n        /* \"@openzeppelin/contracts/token/ERC1155/ERC1155.sol\":3919:3921  id */\n      dup7\n        /* \"@openzeppelin/contracts/token/ERC1155/ERC1155.sol\":3923:3928  value */\n      dup7\n        /* \"@openzeppelin/contracts/token/ERC1155/ERC1155.sol\":3930:3934  data */\n      dup7\n        /* \"@openzeppelin/contracts/token/ERC1155/ERC1155.sol\":3891:3908  _safeTransferFrom */\n      tag_136\n        /* \"@openzeppelin/contracts/token/ERC1155/ERC1155.sol\":3891:3935  _safeTransferFrom(from, to, id, value, data) */\n      jump\t// in\n    tag_135:\n        /* \"@openzeppelin/contracts/token/ERC1155/ERC1155.sol\":3704:3942  {... */\n      pop\n        /* \"@openzeppelin/contracts/token/ERC1155/ERC1155.sol\":3591:3942  function safeTransferFrom(address from, address to, uint256 id, uint256 value, bytes memory data) public virtual {... */\n      pop\n      pop\n      pop\n      pop\n      pop\n      jump\t// out\n        /* \"@openzeppelin/contracts/utils/introspection/ERC165.sol\":762:908  function supportsInterface(bytes4 interfaceId) public view virtual returns (bool) {... */\n    tag_72:\n        /* \"@openzeppelin/contracts/utils/introspection/ERC165.sol\":838:842  bool */\n      0x00\n        /* \"@openzeppelin/contracts/utils/introspection/ERC165.sol\":876:901  type(IERC165).interfaceId */\n      0x01ffc9a700000000000000000000000000000000000000000000000000000000\n        /* \"@openzeppelin/contracts/utils/introspection/ERC165.sol\":861:901  interfaceId == type(IERC165).interfaceId */\n      not(0xffffffffffffffffffffffffffffffffffffffffffffffffffffffff)\n      and\n        /* \"@openzeppelin/contracts/utils/introspection/ERC165.sol\":861:872  interfaceId */\n      dup3\n        /* \"@openzeppelin/contracts/utils/introspection/ERC165.sol\":861:901  interfaceId == type(IERC165).interfaceId */\n      not(0xffffffffffffffffffffffffffffffffffffffffffffffffffffffff)\n      and\n      eq\n        /* \"@openzeppelin/contracts/utils/introspection/ERC165.sol\":854:901  return interfaceId == type(IERC165).interfaceId */\n      swap1\n      pop\n        /* \"@openzeppelin/contracts/utils/introspection/ERC165.sol\":762:908  function supportsInterface(bytes4 interfaceId) public view virtual returns (bool) {... */\n      swap2\n      swap1\n      pop\n      jump\t// out\n        /* \"@openzeppelin/contracts/token/ERC1155/ERC1155.sol\":2084:2187  function uri(uint256 /* id */) public view virtual returns (string memory) {... */\n    tag_82:\n        /* \"@openzeppelin/contracts/token/ERC1155/ERC1155.sol\":2144:2157  string memory */\n      0x60\n        /* \"@openzeppelin/contracts/token/ERC1155/ERC1155.sol\":2176:2180  _uri */\n      0x02\n        /* \"@openzeppelin/contracts/token/ERC1155/ERC1155.sol\":2169:2180  return _uri */\n      dup1\n      sload\n      tag_139\n      swap1\n      tag_75\n      jump\t// in\n    tag_139:\n      dup1\n      0x1f\n      add\n      0x20\n      dup1\n      swap2\n      div\n      mul\n      0x20\n      add\n      mload(0x40)\n      swap1\n      dup2\n      add\n      0x40\n      mstore\n      dup1\n      swap3\n      swap2\n      swap1\n      dup2\n      dup2\n      mstore\n      0x20\n      add\n      dup3\n      dup1\n      sload\n      tag_140\n      swap1\n      tag_75\n      jump\t// in\n    tag_140:\n      dup1\n      iszero\n      tag_141\n      jumpi\n      dup1\n      0x1f\n      lt\n      tag_142\n      jumpi\n      0x0100\n      dup1\n      dup4\n      sload\n      div\n      mul\n      dup4\n      mstore\n      swap2\n      0x20\n      add\n      swap2\n      jump(tag_141)\n    tag_142:\n      dup3\n      add\n      swap2\n      swap1\n      0x00\n      mstore\n      keccak256(0x00, 0x20)\n      swap1\n    tag_143:\n      dup2\n      sload\n      dup2\n      mstore\n      swap1\n      0x01\n      add\n      swap1\n      0x20\n      add\n      dup1\n      dup4\n      gt\n      tag_143\n      jumpi\n      dup3\n      swap1\n      sub\n      0x1f\n      and\n      dup3\n      add\n      swap2\n    tag_141:\n      pop\n      pop\n      pop\n      pop\n      pop\n      swap1\n      pop\n        /* \"@openzeppelin/contracts/token/ERC1155/ERC1155.sol\":2084:2187  function uri(uint256 /* id */) public view virtual returns (string memory) {... */\n      swap2\n      swap1\n      pop\n      jump\t// out\n        /* \"@openzeppelin/contracts/utils/Context.sol\":656:752  function _msgSender() internal view virtual returns (address) {... */\n    tag_90:\n        /* \"@openzeppelin/contracts/utils/Context.sol\":709:716  address */\n      0x00\n        /* \"@openzeppelin/contracts/utils/Context.sol\":735:745  msg.sender */\n      caller\n        /* \"@openzeppelin/contracts/utils/Context.sol\":728:745  return msg.sender */\n      swap1\n      pop\n        /* \"@openzeppelin/contracts/utils/Context.sol\":656:752  function _msgSender() internal view virtual returns (address) {... */\n      swap1\n      jump\t// out\n        /* \"@openzeppelin/contracts/token/ERC1155/ERC1155.sol\":9015:9460  function _safeBatchTransferFrom(... */\n    tag_97:\n        /* \"@openzeppelin/contracts/token/ERC1155/ERC1155.sol\":9222:9223  0 */\n      0x00\n        /* \"@openzeppelin/contracts/token/ERC1155/ERC1155.sol\":9208:9224  to == address(0) */\n      0xffffffffffffffffffffffffffffffffffffffff\n      and\n        /* \"@openzeppelin/contracts/token/ERC1155/ERC1155.sol\":9208:9210  to */\n      dup5\n        /* \"@openzeppelin/contracts/token/ERC1155/ERC1155.sol\":9208:9224  to == address(0) */\n      0xffffffffffffffffffffffffffffffffffffffff\n      and\n      sub\n        /* \"@openzeppelin/contracts/token/ERC1155/ERC1155.sol\":9204:9292  if (to == address(0)) {... */\n      tag_146\n      jumpi\n        /* \"@openzeppelin/contracts/token/ERC1155/ERC1155.sol\":9278:9279  0 */\n      0x00\n        /* \"@openzeppelin/contracts/token/ERC1155/ERC1155.sol\":9247:9281  ERC1155InvalidReceiver(address(0)) */\n      mload(0x40)\n      0x57f447ce00000000000000000000000000000000000000000000000000000000\n      dup2\n      mstore\n      0x04\n      add\n      tag_147\n      swap2\n      swap1\n      tag_148\n      jump\t// in\n    tag_147:\n      mload(0x40)\n      dup1\n      swap2\n      sub\n      swap1\n      revert\n        /* \"@openzeppelin/contracts/token/ERC1155/ERC1155.sol\":9204:9292  if (to == address(0)) {... */\n    tag_146:\n        /* \"@openzeppelin/contracts/token/ERC1155/ERC1155.sol\":9321:9322  0 */\n      0x00\n        /* \"@openzeppelin/contracts/token/ERC1155/ERC1155.sol\":9305:9323  from == address(0) */\n      0xffffffffffffffffffffffffffffffffffffffff\n      and\n        /* \"@openzeppelin/contracts/token/ERC1155/ERC1155.sol\":9305:9309  from */\n      dup6\n        /* \"@openzeppelin/contracts/token/ERC1155/ERC1155.sol\":9305:9323  from == address(0) */\n      0xffffffffffffffffffffffffffffffffffffffff\n      and\n      sub\n        /* \"@openzeppelin/contracts/token/ERC1155/ERC1155.sol\":9301:9389  if (from == address(0)) {... */\n      tag_149\n      jumpi\n        /* \"@openzeppelin/contracts/token/ERC1155/ERC1155.sol\":9375:9376  0 */\n      0x00\n        /* \"@openzeppelin/contracts/token/ERC1155/ERC1155.sol\":9346:9378  ERC1155InvalidSender(address(0)) */\n      mload(0x40)\n      0x01a8351400000000000000000000000000000000000000000000000000000000\n      dup2\n      mstore\n      0x04\n      add\n      tag_150\n      swap2\n      swap1\n      tag_148\n      jump\t// in\n    tag_150:\n      mload(0x40)\n      dup1\n      swap2\n      sub\n      swap1\n      revert\n        /* \"@openzeppelin/contracts/token/ERC1155/ERC1155.sol\":9301:9389  if (from == address(0)) {... */\n    tag_149:\n        /* \"@openzeppelin/contracts/token/ERC1155/ERC1155.sol\":9398:9453  _updateWithAcceptanceCheck(from, to, ids, values, data) */\n      tag_151\n        /* \"@openzeppelin/contracts/token/ERC1155/ERC1155.sol\":9425:9429  from */\n      dup6\n        /* \"@openzeppelin/contracts/token/ERC1155/ERC1155.sol\":9431:9433  to */\n      dup6\n        /* \"@openzeppelin/contracts/token/ERC1155/ERC1155.sol\":9435:9438  ids */\n      dup6\n        /* \"@openzeppelin/contracts/token/ERC1155/ERC1155.sol\":9440:9446  values */\n      dup6\n        /* \"@openzeppelin/contracts/token/ERC1155/ERC1155.sol\":9448:9452  data */\n      dup6\n        /* \"@openzeppelin/contracts/token/ERC1155/ERC1155.sol\":9398:9424  _updateWithAcceptanceCheck */\n      tag_152\n        /* \"@openzeppelin/contracts/token/ERC1155/ERC1155.sol\":9398:9453  _updateWithAcceptanceCheck(from, to, ids, values, data) */\n      jump\t// in\n    tag_151:\n        /* \"@openzeppelin/contracts/token/ERC1155/ERC1155.sol\":9015:9460  function _safeBatchTransferFrom(... */\n      pop\n      pop\n      pop\n      pop\n      pop\n      jump\t// out\n        /* \"@openzeppelin/contracts/utils/Arrays.sol\":4603:4800  function unsafeMemoryAccess(address[] memory arr, uint256 pos) internal pure returns (address res) {... */\n    tag_111:\n        /* \"@openzeppelin/contracts/utils/Arrays.sol\":4689:4700  address res */\n      0x00\n        /* \"@openzeppelin/contracts/utils/Arrays.sol\":4777:4781  0x20 */\n      0x20\n        /* \"@openzeppelin/contracts/utils/Arrays.sol\":4772:4775  pos */\n      dup3\n        /* \"@openzeppelin/contracts/utils/Arrays.sol\":4768:4782  mul(pos, 0x20) */\n      mul\n        /* \"@openzeppelin/contracts/utils/Arrays.sol\":4761:4765  0x20 */\n      0x20\n        /* \"@openzeppelin/contracts/utils/Arrays.sol\":4756:4759  arr */\n      dup5\n        /* \"@openzeppelin/contracts/utils/Arrays.sol\":4752:4766  add(arr, 0x20) */\n      add\n        /* \"@openzeppelin/contracts/utils/Arrays.sol\":4748:4783  add(add(arr, 0x20), mul(pos, 0x20)) */\n      add\n        /* \"@openzeppelin/contracts/utils/Arrays.sol\":4742:4784  mload(add(add(arr, 0x20), mul(pos, 0x20))) */\n      mload\n        /* \"@openzeppelin/contracts/utils/Arrays.sol\":4735:4784  res := mload(add(add(arr, 0x20), mul(pos, 0x20))) */\n      swap1\n      pop\n        /* \"@openzeppelin/contracts/utils/Arrays.sol\":4603:4800  function unsafeMemoryAccess(address[] memory arr, uint256 pos) internal pure returns (address res) {... */\n      swap3\n      swap2\n      pop\n      pop\n      jump\t// out\n        /* \"@openzeppelin/contracts/utils/Arrays.sol\":4204:4401  function unsafeMemoryAccess(uint256[] memory arr, uint256 pos) internal pure returns (uint256 res) {... */\n    tag_113:\n        /* \"@openzeppelin/contracts/utils/Arrays.sol\":4290:4301  uint256 res */\n      0x00\n        /* \"@openzeppelin/contracts/utils/Arrays.sol\":4378:4382  0x20 */\n      0x20\n        /* \"@openzeppelin/contracts/utils/Arrays.sol\":4373:4376  pos */\n      dup3\n        /* \"@openzeppelin/contracts/utils/Arrays.sol\":4369:4383  mul(pos, 0x20) */\n      mul\n        /* \"@openzeppelin/contracts/utils/Arrays.sol\":4362:4366  0x20 */\n      0x20\n        /* \"@openzeppelin/contracts/utils/Arrays.sol\":4357:4360  arr */\n      dup5\n        /* \"@openzeppelin/contracts/utils/Arrays.sol\":4353:4367  add(arr, 0x20) */\n      add\n        /* \"@openzeppelin/contracts/utils/Arrays.sol\":4349:4384  add(add(arr, 0x20), mul(pos, 0x20)) */\n      add\n        /* \"@openzeppelin/contracts/utils/Arrays.sol\":4343:4385  mload(add(add(arr, 0x20), mul(pos, 0x20))) */\n      mload\n        /* \"@openzeppelin/contracts/utils/Arrays.sol\":4336:4385  res := mload(add(add(arr, 0x20), mul(pos, 0x20))) */\n      swap1\n      pop\n        /* \"@openzeppelin/contracts/utils/Arrays.sol\":4204:4401  function unsafeMemoryAccess(uint256[] memory arr, uint256 pos) internal pure returns (uint256 res) {... */\n      swap3\n      swap2\n      pop\n      pop\n      jump\t// out\n        /* \"@openzeppelin/contracts/token/ERC1155/ERC1155.sol\":10746:11092  function _mint(address to, uint256 id, uint256 value, bytes memory data) internal {... */\n    tag_119:\n        /* \"@openzeppelin/contracts/token/ERC1155/ERC1155.sol\":10856:10857  0 */\n      0x00\n        /* \"@openzeppelin/contracts/token/ERC1155/ERC1155.sol\":10842:10858  to == address(0) */\n      0xffffffffffffffffffffffffffffffffffffffff\n      and\n        /* \"@openzeppelin/contracts/token/ERC1155/ERC1155.sol\":10842:10844  to */\n      dup5\n        /* \"@openzeppelin/contracts/token/ERC1155/ERC1155.sol\":10842:10858  to == address(0) */\n      0xffffffffffffffffffffffffffffffffffffffff\n      and\n      sub\n        /* \"@openzeppelin/contracts/token/ERC1155/ERC1155.sol\":10838:10926  if (to == address(0)) {... */\n      tag_156\n      jumpi\n        /* \"@openzeppelin/contracts/token/ERC1155/ERC1155.sol\":10912:10913  0 */\n      0x00\n        /* \"@openzeppelin/contracts/token/ERC1155/ERC1155.sol\":10881:10915  ERC1155InvalidReceiver(address(0)) */\n      mload(0x40)\n      0x57f447ce00000000000000000000000000000000000000000000000000000000\n      dup2\n      mstore\n      0x04\n      add\n      tag_157\n      swap2\n      swap1\n      tag_148\n      jump\t// in\n    tag_157:\n      mload(0x40)\n      dup1\n      swap2\n      sub\n      swap1\n      revert\n        /* \"@openzeppelin/contracts/token/ERC1155/ERC1155.sol\":10838:10926  if (to == address(0)) {... */\n    tag_156:\n        /* \"@openzeppelin/contracts/token/ERC1155/ERC1155.sol\":10936:10956  uint256[] memory ids */\n      0x00\n        /* \"@openzeppelin/contracts/token/ERC1155/ERC1155.sol\":10958:10981  uint256[] memory values */\n      dup1\n        /* \"@openzeppelin/contracts/token/ERC1155/ERC1155.sol\":10985:11014  _asSingletonArrays(id, value) */\n      tag_158\n        /* \"@openzeppelin/contracts/token/ERC1155/ERC1155.sol\":11004:11006  id */\n      dup6\n        /* \"@openzeppelin/contracts/token/ERC1155/ERC1155.sol\":11008:11013  value */\n      dup6\n        /* \"@openzeppelin/contracts/token/ERC1155/ERC1155.sol\":10985:11003  _asSingletonArrays */\n      tag_159\n        /* \"@openzeppelin/contracts/token/ERC1155/ERC1155.sol\":10985:11014  _asSingletonArrays(id, value) */\n      jump\t// in\n    tag_158:\n        /* \"@openzeppelin/contracts/token/ERC1155/ERC1155.sol\":10935:11014  (uint256[] memory ids, uint256[] memory values) = _asSingletonArrays(id, value) */\n      swap2\n      pop\n      swap2\n      pop\n        /* \"@openzeppelin/contracts/token/ERC1155/ERC1155.sol\":11024:11085  _updateWithAcceptanceCheck(address(0), to, ids, values, data) */\n      tag_160\n        /* \"@openzeppelin/contracts/token/ERC1155/ERC1155.sol\":11059:11060  0 */\n      0x00\n        /* \"@openzeppelin/contracts/token/ERC1155/ERC1155.sol\":11063:11065  to */\n      dup8\n        /* \"@openzeppelin/contracts/token/ERC1155/ERC1155.sol\":11067:11070  ids */\n      dup5\n        /* \"@openzeppelin/contracts/token/ERC1155/ERC1155.sol\":11072:11078  values */\n      dup5\n        /* \"@openzeppelin/contracts/token/ERC1155/ERC1155.sol\":11080:11084  data */\n      dup8\n        /* \"@openzeppelin/contracts/token/ERC1155/ERC1155.sol\":11024:11050  _updateWithAcceptanceCheck */\n      tag_152\n        /* \"@openzeppelin/contracts/token/ERC1155/ERC1155.sol\":11024:11085  _updateWithAcceptanceCheck(address(0), to, ids, values, data) */\n      jump\t// in\n    tag_160:\n        /* \"@openzeppelin/contracts/token/ERC1155/ERC1155.sol\":10828:11092  {... */\n      pop\n      pop\n        /* \"@openzeppelin/contracts/token/ERC1155/ERC1155.sol\":10746:11092  function _mint(address to, uint256 id, uint256 value, bytes memory data) internal {... */\n      pop\n      pop\n      pop\n      pop\n      jump\t// out\n        /* \"@openzeppelin/contracts/token/ERC1155/extensions/ERC1155URIStorage.sol\":1743:1906  function _setURI(uint256 tokenId, string memory tokenURI) internal virtual {... */\n    tag_121:\n        /* \"@openzeppelin/contracts/token/ERC1155/extensions/ERC1155URIStorage.sol\":1850:1858  tokenURI */\n      dup1\n        /* \"@openzeppelin/contracts/token/ERC1155/extensions/ERC1155URIStorage.sol\":1828:1838  _tokenURIs */\n      0x04\n        /* \"@openzeppelin/contracts/token/ERC1155/extensions/ERC1155URIStorage.sol\":1828:1847  _tokenURIs[tokenId] */\n      0x00\n        /* \"@openzeppelin/contracts/token/ERC1155/extensions/ERC1155URIStorage.sol\":1839:1846  tokenId */\n      dup5\n        /* \"@openzeppelin/contracts/token/ERC1155/extensions/ERC1155URIStorage.sol\":1828:1847  _tokenURIs[tokenId] */\n      dup2\n      mstore\n      0x20\n      add\n      swap1\n      dup2\n      mstore\n      0x20\n      add\n      0x00\n      keccak256\n        /* \"@openzeppelin/contracts/token/ERC1155/extensions/ERC1155URIStorage.sol\":1828:1858  _tokenURIs[tokenId] = tokenURI */\n      swap1\n      dup2\n      tag_162\n      swap2\n      swap1\n      tag_163\n      jump\t// in\n    tag_162:\n      pop\n        /* \"@openzeppelin/contracts/token/ERC1155/extensions/ERC1155URIStorage.sol\":1891:1898  tokenId */\n      dup2\n        /* \"@openzeppelin/contracts/token/ERC1155/extensions/ERC1155URIStorage.sol\":1873:1899  URI(uri(tokenId), tokenId) */\n      0x6bb7ff708619ba0610cba295a58592e0451dee2622938c8755667688daf3529b\n        /* \"@openzeppelin/contracts/token/ERC1155/extensions/ERC1155URIStorage.sol\":1877:1889  uri(tokenId) */\n      tag_164\n        /* \"@openzeppelin/contracts/token/ERC1155/extensions/ERC1155URIStorage.sol\":1881:1888  tokenId */\n      dup5\n        /* \"@openzeppelin/contracts/token/ERC1155/extensions/ERC1155URIStorage.sol\":1877:1880  uri */\n      tag_30\n        /* \"@openzeppelin/contracts/token/ERC1155/extensions/ERC1155URIStorage.sol\":1877:1889  uri(tokenId) */\n      jump\t// in\n    tag_164:\n        /* \"@openzeppelin/contracts/token/ERC1155/extensions/ERC1155URIStorage.sol\":1873:1899  URI(uri(tokenId), tokenId) */\n      mload(0x40)\n      tag_165\n      swap2\n      swap1\n      tag_32\n      jump\t// in\n    tag_165:\n      mload(0x40)\n      dup1\n      swap2\n      sub\n      swap1\n      log2\n        /* \"@openzeppelin/contracts/token/ERC1155/extensions/ERC1155URIStorage.sol\":1743:1906  function _setURI(uint256 tokenId, string memory tokenURI) internal virtual {... */\n      pop\n      pop\n      jump\t// out\n        /* \"@openzeppelin/contracts/token/ERC1155/ERC1155.sol\":13268:13583  function _setApprovalForAll(address owner, address operator, bool approved) internal virtual {... */\n    tag_127:\n        /* \"@openzeppelin/contracts/token/ERC1155/ERC1155.sol\":13395:13396  0 */\n      0x00\n        /* \"@openzeppelin/contracts/token/ERC1155/ERC1155.sol\":13375:13397  operator == address(0) */\n      0xffffffffffffffffffffffffffffffffffffffff\n      and\n        /* \"@openzeppelin/contracts/token/ERC1155/ERC1155.sol\":13375:13383  operator */\n      dup3\n        /* \"@openzeppelin/contracts/token/ERC1155/ERC1155.sol\":13375:13397  operator == address(0) */\n      0xffffffffffffffffffffffffffffffffffffffff\n      and\n      sub\n        /* \"@openzeppelin/contracts/token/ERC1155/ERC1155.sol\":13371:13465  if (operator == address(0)) {... */\n      tag_167\n      jumpi\n        /* \"@openzeppelin/contracts/token/ERC1155/ERC1155.sol\":13451:13452  0 */\n      0x00\n        /* \"@openzeppelin/contracts/token/ERC1155/ERC1155.sol\":13420:13454  ERC1155InvalidOperator(address(0)) */\n      mload(0x40)\n      0xced3e10000000000000000000000000000000000000000000000000000000000\n      dup2\n      mstore\n      0x04\n      add\n      tag_168\n      swap2\n      swap1\n      tag_148\n      jump\t// in\n    tag_168:\n      mload(0x40)\n      dup1\n      swap2\n      sub\n      swap1\n      revert\n        /* \"@openzeppelin/contracts/token/ERC1155/ERC1155.sol\":13371:13465  if (operator == address(0)) {... */\n    tag_167:\n        /* \"@openzeppelin/contracts/token/ERC1155/ERC1155.sol\":13512:13520  approved */\n      dup1\n        /* \"@openzeppelin/contracts/token/ERC1155/ERC1155.sol\":13474:13492  _operatorApprovals */\n      0x01\n        /* \"@openzeppelin/contracts/token/ERC1155/ERC1155.sol\":13474:13499  _operatorApprovals[owner] */\n      0x00\n        /* \"@openzeppelin/contracts/token/ERC1155/ERC1155.sol\":13493:13498  owner */\n      dup6\n        /* \"@openzeppelin/contracts/token/ERC1155/ERC1155.sol\":13474:13499  _operatorApprovals[owner] */\n      0xffffffffffffffffffffffffffffffffffffffff\n      and\n      0xffffffffffffffffffffffffffffffffffffffff\n      and\n      dup2\n      mstore\n      0x20\n      add\n      swap1\n      dup2\n      mstore\n      0x20\n      add\n      0x00\n      keccak256\n        /* \"@openzeppelin/contracts/token/ERC1155/ERC1155.sol\":13474:13509  _operatorApprovals[owner][operator] */\n      0x00\n        /* \"@openzeppelin/contracts/token/ERC1155/ERC1155.sol\":13500:13508  operator */\n      dup5\n        /* \"@openzeppelin/contracts/token/ERC1155/ERC1155.sol\":13474:13509  _operatorApprovals[owner][operator] */\n      0xffffffffffffffffffffffffffffffffffffffff\n      and\n      0xffffffffffffffffffffffffffffffffffffffff\n      and\n      dup2\n      mstore\n      0x20\n      add\n      swap1\n      dup2\n      mstore\n      0x20\n      add\n      0x00\n      keccak256\n      0x00\n        /* \"@openzeppelin/contracts/token/ERC1155/ERC1155.sol\":13474:13520  _operatorApprovals[owner][operator] = approved */\n      0x0100\n      exp\n      dup2\n      sload\n      dup2\n      0xff\n      mul\n      not\n      and\n      swap1\n      dup4\n      iszero\n      iszero\n      mul\n      or\n      swap1\n      sstore\n      pop\n        /* \"@openzeppelin/contracts/token/ERC1155/ERC1155.sol\":13557:13565  operator */\n      dup2\n        /* \"@openzeppelin/contracts/token/ERC1155/ERC1155.sol\":13535:13576  ApprovalForAll(owner, operator, approved) */\n      0xffffffffffffffffffffffffffffffffffffffff\n      and\n        /* \"@openzeppelin/contracts/token/ERC1155/ERC1155.sol\":13550:13555  owner */\n      dup4\n        /* \"@openzeppelin/contracts/token/ERC1155/ERC1155.sol\":13535:13576  ApprovalForAll(owner, operator, approved) */\n      0xffffffffffffffffffffffffffffffffffffffff\n      and\n      0x17307eab39ab6107e8899845ad3d59bd9653f200f220920489ca2b5937696c31\n        /* \"@openzeppelin/contracts/token/ERC1155/ERC1155.sol\":13567:13575  approved */\n      dup4\n        /* \"@openzeppelin/contracts/token/ERC1155/ERC1155.sol\":13535:13576  ApprovalForAll(owner, operator, approved) */\n      mload(0x40)\n      tag_169\n      swap2\n      swap1\n      tag_26\n      jump\t// in\n    tag_169:\n      mload(0x40)\n      dup1\n      swap2\n      sub\n      swap1\n      log3\n        /* \"@openzeppelin/contracts/token/ERC1155/ERC1155.sol\":13268:13583  function _setApprovalForAll(address owner, address operator, bool approved) internal virtual {... */\n      pop\n      pop\n      pop\n      jump\t// out\n        /* \"@openzeppelin/contracts/token/ERC1155/ERC1155.sol\":8151:8614  function _safeTransferFrom(address from, address to, uint256 id, uint256 value, bytes memory data) internal {... */\n    tag_136:\n        /* \"@openzeppelin/contracts/token/ERC1155/ERC1155.sol\":8287:8288  0 */\n      0x00\n        /* \"@openzeppelin/contracts/token/ERC1155/ERC1155.sol\":8273:8289  to == address(0) */\n      0xffffffffffffffffffffffffffffffffffffffff\n      and\n        /* \"@openzeppelin/contracts/token/ERC1155/ERC1155.sol\":8273:8275  to */\n      dup5\n        /* \"@openzeppelin/contracts/token/ERC1155/ERC1155.sol\":8273:8289  to == address(0) */\n      0xffffffffffffffffffffffffffffffffffffffff\n      and\n      sub\n        /* \"@openzeppelin/contracts/token/ERC1155/ERC1155.sol\":8269:8357  if (to == address(0)) {... */\n      tag_171\n      jumpi\n        /* \"@openzeppelin/contracts/token/ERC1155/ERC1155.sol\":8343:8344  0 */\n      0x00\n        /* \"@openzeppelin/contracts/token/ERC1155/ERC1155.sol\":8312:8346  ERC1155InvalidReceiver(address(0)) */\n      mload(0x40)\n      0x57f447ce00000000000000000000000000000000000000000000000000000000\n      dup2\n      mstore\n      0x04\n      add\n      tag_172\n      swap2\n      swap1\n      tag_148\n      jump\t// in\n    tag_172:\n      mload(0x40)\n      dup1\n      swap2\n      sub\n      swap1\n      revert\n        /* \"@openzeppelin/contracts/token/ERC1155/ERC1155.sol\":8269:8357  if (to == address(0)) {... */\n    tag_171:\n        /* \"@openzeppelin/contracts/token/ERC1155/ERC1155.sol\":8386:8387  0 */\n      0x00\n        /* \"@openzeppelin/contracts/token/ERC1155/ERC1155.sol\":8370:8388  from == address(0) */\n      0xffffffffffffffffffffffffffffffffffffffff\n      and\n        /* \"@openzeppelin/contracts/token/ERC1155/ERC1155.sol\":8370:8374  from */\n      dup6\n        /* \"@openzeppelin/contracts/token/ERC1155/ERC1155.sol\":8370:8388  from == address(0) */\n      0xffffffffffffffffffffffffffffffffffffffff\n      and\n      sub\n        /* \"@openzeppelin/contracts/token/ERC1155/ERC1155.sol\":8366:8454  if (from == address(0)) {... */\n      tag_173\n      jumpi\n        /* \"@openzeppelin/contracts/token/ERC1155/ERC1155.sol\":8440:8441  0 */\n      0x00\n        /* \"@openzeppelin/contracts/token/ERC1155/ERC1155.sol\":8411:8443  ERC1155InvalidSender(address(0)) */\n      mload(0x40)\n      0x01a8351400000000000000000000000000000000000000000000000000000000\n      dup2\n      mstore\n      0x04\n      add\n      tag_174\n      swap2\n      swap1\n      tag_148\n      jump\t// in\n    tag_174:\n      mload(0x40)\n      dup1\n      swap2\n      sub\n      swap1\n      revert\n        /* \"@openzeppelin/contracts/token/ERC1155/ERC1155.sol\":8366:8454  if (from == address(0)) {... */\n    tag_173:\n        /* \"@openzeppelin/contracts/token/ERC1155/ERC1155.sol\":8464:8484  uint256[] memory ids */\n      0x00\n        /* \"@openzeppelin/contracts/token/ERC1155/ERC1155.sol\":8486:8509  uint256[] memory values */\n      dup1\n        /* \"@openzeppelin/contracts/token/ERC1155/ERC1155.sol\":8513:8542  _asSingletonArrays(id, value) */\n      tag_175\n        /* \"@openzeppelin/contracts/token/ERC1155/ERC1155.sol\":8532:8534  id */\n      dup6\n        /* \"@openzeppelin/contracts/token/ERC1155/ERC1155.sol\":8536:8541  value */\n      dup6\n        /* \"@openzeppelin/contracts/token/ERC1155/ERC1155.sol\":8513:8531  _asSingletonArrays */\n      tag_159\n        /* \"@openzeppelin/contracts/token/ERC1155/ERC1155.sol\":8513:8542  _asSingletonArrays(id, value) */\n      jump\t// in\n    tag_175:\n        /* \"@openzeppelin/contracts/token/ERC1155/ERC1155.sol\":8463:8542  (uint256[] memory ids, uint256[] memory values) = _asSingletonArrays(id, value) */\n      swap2\n      pop\n      swap2\n      pop\n        /* \"@openzeppelin/contracts/token/ERC1155/ERC1155.sol\":8552:8607  _updateWithAcceptanceCheck(from, to, ids, values, data) */\n      tag_176\n        /* \"@openzeppelin/contracts/token/ERC1155/ERC1155.sol\":8579:8583  from */\n      dup8\n        /* \"@openzeppelin/contracts/token/ERC1155/ERC1155.sol\":8585:8587  to */\n      dup8\n        /* \"@openzeppelin/contracts/token/ERC1155/ERC1155.sol\":8589:8592  ids */\n      dup5\n        /* \"@openzeppelin/contracts/token/ERC1155/ERC1155.sol\":8594:8600  values */\n      dup5\n        /* \"@openzeppelin/contracts/token/ERC1155/ERC1155.sol\":8602:8606  data */\n      dup8\n        /* \"@openzeppelin/contracts/token/ERC1155/ERC1155.sol\":8552:8578  _updateWithAcceptanceCheck */\n      tag_152\n        /* \"@openzeppelin/contracts/token/ERC1155/ERC1155.sol\":8552:8607  _updateWithAcceptanceCheck(from, to, ids, values, data) */\n      jump\t// in\n    tag_176:\n        /* \"@openzeppelin/contracts/token/ERC1155/ERC1155.sol\":8259:8614  {... */\n      pop\n      pop\n        /* \"@openzeppelin/contracts/token/ERC1155/ERC1155.sol\":8151:8614  function _safeTransferFrom(address from, address to, uint256 id, uint256 value, bytes memory data) internal {... */\n      pop\n      pop\n      pop\n      pop\n      pop\n      jump\t// out\n        /* \"@openzeppelin/contracts/token/ERC1155/ERC1155.sol\":7004:7694  function _updateWithAcceptanceCheck(... */\n    tag_152:\n        /* \"@openzeppelin/contracts/token/ERC1155/ERC1155.sol\":7205:7235  _update(from, to, ids, values) */\n      tag_178\n        /* \"@openzeppelin/contracts/token/ERC1155/ERC1155.sol\":7213:7217  from */\n      dup6\n        /* \"@openzeppelin/contracts/token/ERC1155/ERC1155.sol\":7219:7221  to */\n      dup6\n        /* \"@openzeppelin/contracts/token/ERC1155/ERC1155.sol\":7223:7226  ids */\n      dup6\n        /* \"@openzeppelin/contracts/token/ERC1155/ERC1155.sol\":7228:7234  values */\n      dup6\n        /* \"@openzeppelin/contracts/token/ERC1155/ERC1155.sol\":7205:7212  _update */\n      tag_179\n        /* \"@openzeppelin/contracts/token/ERC1155/ERC1155.sol\":7205:7235  _update(from, to, ids, values) */\n      jump\t// in\n    tag_178:\n        /* \"@openzeppelin/contracts/token/ERC1155/ERC1155.sol\":7263:7264  0 */\n      0x00\n        /* \"@openzeppelin/contracts/token/ERC1155/ERC1155.sol\":7249:7265  to != address(0) */\n      0xffffffffffffffffffffffffffffffffffffffff\n      and\n        /* \"@openzeppelin/contracts/token/ERC1155/ERC1155.sol\":7249:7251  to */\n      dup5\n        /* \"@openzeppelin/contracts/token/ERC1155/ERC1155.sol\":7249:7265  to != address(0) */\n      0xffffffffffffffffffffffffffffffffffffffff\n      and\n      eq\n        /* \"@openzeppelin/contracts/token/ERC1155/ERC1155.sol\":7245:7688  if (to != address(0)) {... */\n      tag_180\n      jumpi\n        /* \"@openzeppelin/contracts/token/ERC1155/ERC1155.sol\":7281:7297  address operator */\n      0x00\n        /* \"@openzeppelin/contracts/token/ERC1155/ERC1155.sol\":7300:7312  _msgSender() */\n      tag_181\n        /* \"@openzeppelin/contracts/token/ERC1155/ERC1155.sol\":7300:7310  _msgSender */\n      tag_90\n        /* \"@openzeppelin/contracts/token/ERC1155/ERC1155.sol\":7300:7312  _msgSender() */\n      jump\t// in\n    tag_181:\n        /* \"@openzeppelin/contracts/token/ERC1155/ERC1155.sol\":7281:7312  address operator = _msgSender() */\n      swap1\n      pop\n        /* \"@openzeppelin/contracts/token/ERC1155/ERC1155.sol\":7344:7345  1 */\n      0x01\n        /* \"@openzeppelin/contracts/token/ERC1155/ERC1155.sol\":7330:7333  ids */\n      dup5\n        /* \"@openzeppelin/contracts/token/ERC1155/ERC1155.sol\":7330:7340  ids.length */\n      mload\n        /* \"@openzeppelin/contracts/token/ERC1155/ERC1155.sol\":7330:7345  ids.length == 1 */\n      sub\n        /* \"@openzeppelin/contracts/token/ERC1155/ERC1155.sol\":7326:7678  if (ids.length == 1) {... */\n      tag_182\n      jumpi\n        /* \"@openzeppelin/contracts/token/ERC1155/ERC1155.sol\":7365:7375  uint256 id */\n      0x00\n        /* \"@openzeppelin/contracts/token/ERC1155/ERC1155.sol\":7378:7403  ids.unsafeMemoryAccess(0) */\n      tag_183\n        /* \"@openzeppelin/contracts/token/ERC1155/ERC1155.sol\":7401:7402  0 */\n      0x00\n        /* \"@openzeppelin/contracts/token/ERC1155/ERC1155.sol\":7378:7381  ids */\n      dup7\n        /* \"@openzeppelin/contracts/token/ERC1155/ERC1155.sol\":7378:7400  ids.unsafeMemoryAccess */\n      tag_113\n      swap1\n        /* \"@openzeppelin/contracts/token/ERC1155/ERC1155.sol\":7378:7403  ids.unsafeMemoryAccess(0) */\n      swap2\n      swap1\n      0xffffffff\n      and\n      jump\t// in\n    tag_183:\n        /* \"@openzeppelin/contracts/token/ERC1155/ERC1155.sol\":7365:7403  uint256 id = ids.unsafeMemoryAccess(0) */\n      swap1\n      pop\n        /* \"@openzeppelin/contracts/token/ERC1155/ERC1155.sol\":7421:7434  uint256 value */\n      0x00\n        /* \"@openzeppelin/contracts/token/ERC1155/ERC1155.sol\":7437:7465  values.unsafeMemoryAccess(0) */\n      tag_184\n        /* \"@openzeppelin/contracts/token/ERC1155/ERC1155.sol\":7463:7464  0 */\n      0x00\n        /* \"@openzeppelin/contracts/token/ERC1155/ERC1155.sol\":7437:7443  values */\n      dup7\n        /* \"@openzeppelin/contracts/token/ERC1155/ERC1155.sol\":7437:7462  values.unsafeMemoryAccess */\n      tag_113\n      swap1\n        /* \"@openzeppelin/contracts/token/ERC1155/ERC1155.sol\":7437:7465  values.unsafeMemoryAccess(0) */\n      swap2\n      swap1\n      0xffffffff\n      and\n      jump\t// in\n    tag_184:\n        /* \"@openzeppelin/contracts/token/ERC1155/ERC1155.sol\":7421:7465  uint256 value = values.unsafeMemoryAccess(0) */\n      swap1\n      pop\n        /* \"@openzeppelin/contracts/token/ERC1155/ERC1155.sol\":7483:7550  _doSafeTransferAcceptanceCheck(operator, from, to, id, value, data) */\n      tag_185\n        /* \"@openzeppelin/contracts/token/ERC1155/ERC1155.sol\":7514:7522  operator */\n      dup4\n        /* \"@openzeppelin/contracts/token/ERC1155/ERC1155.sol\":7524:7528  from */\n      dup10\n        /* \"@openzeppelin/contracts/token/ERC1155/ERC1155.sol\":7530:7532  to */\n      dup10\n        /* \"@openzeppelin/contracts/token/ERC1155/ERC1155.sol\":7534:7536  id */\n      dup6\n        /* \"@openzeppelin/contracts/token/ERC1155/ERC1155.sol\":7538:7543  value */\n      dup6\n        /* \"@openzeppelin/contracts/token/ERC1155/ERC1155.sol\":7545:7549  data */\n      dup10\n        /* \"@openzeppelin/contracts/token/ERC1155/ERC1155.sol\":7483:7513  _doSafeTransferAcceptanceCheck */\n      tag_186\n        /* \"@openzeppelin/contracts/token/ERC1155/ERC1155.sol\":7483:7550  _doSafeTransferAcceptanceCheck(operator, from, to, id, value, data) */\n      jump\t// in\n    tag_185:\n        /* \"@openzeppelin/contracts/token/ERC1155/ERC1155.sol\":7347:7565  {... */\n      pop\n      pop\n        /* \"@openzeppelin/contracts/token/ERC1155/ERC1155.sol\":7326:7678  if (ids.length == 1) {... */\n      jump(tag_187)\n    tag_182:\n        /* \"@openzeppelin/contracts/token/ERC1155/ERC1155.sol\":7589:7663  _doSafeBatchTransferAcceptanceCheck(operator, from, to, ids, values, data) */\n      tag_188\n        /* \"@openzeppelin/contracts/token/ERC1155/ERC1155.sol\":7625:7633  operator */\n      dup2\n        /* \"@openzeppelin/contracts/token/ERC1155/ERC1155.sol\":7635:7639  from */\n      dup8\n        /* \"@openzeppelin/contracts/token/ERC1155/ERC1155.sol\":7641:7643  to */\n      dup8\n        /* \"@openzeppelin/contracts/token/ERC1155/ERC1155.sol\":7645:7648  ids */\n      dup8\n        /* \"@openzeppelin/contracts/token/ERC1155/ERC1155.sol\":7650:7656  values */\n      dup8\n        /* \"@openzeppelin/contracts/token/ERC1155/ERC1155.sol\":7658:7662  data */\n      dup8\n        /* \"@openzeppelin/contracts/token/ERC1155/ERC1155.sol\":7589:7624  _doSafeBatchTransferAcceptanceCheck */\n      tag_189\n        /* \"@openzeppelin/contracts/token/ERC1155/ERC1155.sol\":7589:7663  _doSafeBatchTransferAcceptanceCheck(operator, from, to, ids, values, data) */\n      jump\t// in\n    tag_188:\n        /* \"@openzeppelin/contracts/token/ERC1155/ERC1155.sol\":7326:7678  if (ids.length == 1) {... */\n    tag_187:\n        /* \"@openzeppelin/contracts/token/ERC1155/ERC1155.sol\":7267:7688  {... */\n      pop\n        /* \"@openzeppelin/contracts/token/ERC1155/ERC1155.sol\":7245:7688  if (to != address(0)) {... */\n    tag_180:\n        /* \"@openzeppelin/contracts/token/ERC1155/ERC1155.sol\":7004:7694  function _updateWithAcceptanceCheck(... */\n      pop\n      pop\n      pop\n      pop\n      pop\n      jump\t// out\n        /* \"@openzeppelin/contracts/token/ERC1155/ERC1155.sol\":16080:16929  function _asSingletonArrays(... */\n    tag_159:\n        /* \"@openzeppelin/contracts/token/ERC1155/ERC1155.sol\":16188:16211  uint256[] memory array1 */\n      0x60\n        /* \"@openzeppelin/contracts/token/ERC1155/ERC1155.sol\":16213:16236  uint256[] memory array2 */\n      dup1\n        /* \"@openzeppelin/contracts/token/ERC1155/ERC1155.sol\":16374:16378  0x40 */\n      0x40\n        /* \"@openzeppelin/contracts/token/ERC1155/ERC1155.sol\":16368:16379  mload(0x40) */\n      mload\n        /* \"@openzeppelin/contracts/token/ERC1155/ERC1155.sol\":16358:16379  array1 := mload(0x40) */\n      swap2\n      pop\n        /* \"@openzeppelin/contracts/token/ERC1155/ERC1155.sol\":16444:16445  1 */\n      0x01\n        /* \"@openzeppelin/contracts/token/ERC1155/ERC1155.sol\":16436:16442  array1 */\n      dup3\n        /* \"@openzeppelin/contracts/token/ERC1155/ERC1155.sol\":16429:16446  mstore(array1, 1) */\n      mstore\n        /* \"@openzeppelin/contracts/token/ERC1155/ERC1155.sol\":16582:16590  element1 */\n      dup4\n        /* \"@openzeppelin/contracts/token/ERC1155/ERC1155.sol\":16575:16579  0x20 */\n      0x20\n        /* \"@openzeppelin/contracts/token/ERC1155/ERC1155.sol\":16567:16573  array1 */\n      dup4\n        /* \"@openzeppelin/contracts/token/ERC1155/ERC1155.sol\":16563:16580  add(array1, 0x20) */\n      add\n        /* \"@openzeppelin/contracts/token/ERC1155/ERC1155.sol\":16556:16591  mstore(add(array1, 0x20), element1) */\n      mstore\n        /* \"@openzeppelin/contracts/token/ERC1155/ERC1155.sol\":16704:16708  0x40 */\n      0x40\n        /* \"@openzeppelin/contracts/token/ERC1155/ERC1155.sol\":16696:16702  array1 */\n      dup3\n        /* \"@openzeppelin/contracts/token/ERC1155/ERC1155.sol\":16692:16709  add(array1, 0x40) */\n      add\n        /* \"@openzeppelin/contracts/token/ERC1155/ERC1155.sol\":16682:16709  array2 := add(array1, 0x40) */\n      swap1\n      pop\n        /* \"@openzeppelin/contracts/token/ERC1155/ERC1155.sol\":16737:16738  1 */\n      0x01\n        /* \"@openzeppelin/contracts/token/ERC1155/ERC1155.sol\":16729:16735  array2 */\n      dup2\n        /* \"@openzeppelin/contracts/token/ERC1155/ERC1155.sol\":16722:16739  mstore(array2, 1) */\n      mstore\n        /* \"@openzeppelin/contracts/token/ERC1155/ERC1155.sol\":16778:16786  element2 */\n      dup3\n        /* \"@openzeppelin/contracts/token/ERC1155/ERC1155.sol\":16771:16775  0x20 */\n      0x20\n        /* \"@openzeppelin/contracts/token/ERC1155/ERC1155.sol\":16763:16769  array2 */\n      dup3\n        /* \"@openzeppelin/contracts/token/ERC1155/ERC1155.sol\":16759:16776  add(array2, 0x20) */\n      add\n        /* \"@openzeppelin/contracts/token/ERC1155/ERC1155.sol\":16752:16787  mstore(add(array2, 0x20), element2) */\n      mstore\n        /* \"@openzeppelin/contracts/token/ERC1155/ERC1155.sol\":16907:16911  0x40 */\n      0x40\n        /* \"@openzeppelin/contracts/token/ERC1155/ERC1155.sol\":16899:16905  array2 */\n      dup2\n        /* \"@openzeppelin/contracts/token/ERC1155/ERC1155.sol\":16895:16912  add(array2, 0x40) */\n      add\n        /* \"@openzeppelin/contracts/token/ERC1155/ERC1155.sol\":16889:16893  0x40 */\n      0x40\n        /* \"@openzeppelin/contracts/token/ERC1155/ERC1155.sol\":16882:16913  mstore(0x40, add(array2, 0x40)) */\n      mstore\n        /* \"@openzeppelin/contracts/token/ERC1155/ERC1155.sol\":16080:16929  function _asSingletonArrays(... */\n      swap3\n      pop\n      swap3\n      swap1\n      pop\n      jump\t// out\n        /* \"@openzeppelin/contracts/token/ERC1155/ERC1155.sol\":5144:6425  function _update(address from, address to, uint256[] memory ids, uint256[] memory values) internal virtual {... */\n    tag_179:\n        /* \"@openzeppelin/contracts/token/ERC1155/ERC1155.sol\":5279:5285  values */\n      dup1\n        /* \"@openzeppelin/contracts/token/ERC1155/ERC1155.sol\":5279:5292  values.length */\n      mload\n        /* \"@openzeppelin/contracts/token/ERC1155/ERC1155.sol\":5265:5268  ids */\n      dup3\n        /* \"@openzeppelin/contracts/token/ERC1155/ERC1155.sol\":5265:5275  ids.length */\n      mload\n        /* \"@openzeppelin/contracts/token/ERC1155/ERC1155.sol\":5265:5292  ids.length != values.length */\n      eq\n        /* \"@openzeppelin/contracts/token/ERC1155/ERC1155.sol\":5261:5378  if (ids.length != values.length) {... */\n      tag_192\n      jumpi\n        /* \"@openzeppelin/contracts/token/ERC1155/ERC1155.sol\":5341:5344  ids */\n      dup2\n        /* \"@openzeppelin/contracts/token/ERC1155/ERC1155.sol\":5341:5351  ids.length */\n      mload\n        /* \"@openzeppelin/contracts/token/ERC1155/ERC1155.sol\":5353:5359  values */\n      dup2\n        /* \"@openzeppelin/contracts/token/ERC1155/ERC1155.sol\":5353:5366  values.length */\n      mload\n        /* \"@openzeppelin/contracts/token/ERC1155/ERC1155.sol\":5315:5367  ERC1155InvalidArrayLength(ids.length, values.length) */\n      mload(0x40)\n      0x5b05999100000000000000000000000000000000000000000000000000000000\n      dup2\n      mstore\n      0x04\n      add\n      tag_193\n      swap3\n      swap2\n      swap1\n      tag_101\n      jump\t// in\n    tag_193:\n      mload(0x40)\n      dup1\n      swap2\n      sub\n      swap1\n      revert\n        /* \"@openzeppelin/contracts/token/ERC1155/ERC1155.sol\":5261:5378  if (ids.length != values.length) {... */\n    tag_192:\n        /* \"@openzeppelin/contracts/token/ERC1155/ERC1155.sol\":5388:5404  address operator */\n      0x00\n        /* \"@openzeppelin/contracts/token/ERC1155/ERC1155.sol\":5407:5419  _msgSender() */\n      tag_194\n        /* \"@openzeppelin/contracts/token/ERC1155/ERC1155.sol\":5407:5417  _msgSender */\n      tag_90\n        /* \"@openzeppelin/contracts/token/ERC1155/ERC1155.sol\":5407:5419  _msgSender() */\n      jump\t// in\n    tag_194:\n        /* \"@openzeppelin/contracts/token/ERC1155/ERC1155.sol\":5388:5419  address operator = _msgSender() */\n      swap1\n      pop\n        /* \"@openzeppelin/contracts/token/ERC1155/ERC1155.sol\":5435:5444  uint256 i */\n      0x00\n        /* \"@openzeppelin/contracts/token/ERC1155/ERC1155.sol\":5430:6121  for (uint256 i = 0; i < ids.length; ++i) {... */\n    tag_195:\n        /* \"@openzeppelin/contracts/token/ERC1155/ERC1155.sol\":5454:5457  ids */\n      dup4\n        /* \"@openzeppelin/contracts/token/ERC1155/ERC1155.sol\":5454:5464  ids.length */\n      mload\n        /* \"@openzeppelin/contracts/token/ERC1155/ERC1155.sol\":5450:5451  i */\n      dup2\n        /* \"@openzeppelin/contracts/token/ERC1155/ERC1155.sol\":5450:5464  i < ids.length */\n      lt\n        /* \"@openzeppelin/contracts/token/ERC1155/ERC1155.sol\":5430:6121  for (uint256 i = 0; i < ids.length; ++i) {... */\n      iszero\n      tag_196\n      jumpi\n        /* \"@openzeppelin/contracts/token/ERC1155/ERC1155.sol\":5485:5495  uint256 id */\n      0x00\n        /* \"@openzeppelin/contracts/token/ERC1155/ERC1155.sol\":5498:5523  ids.unsafeMemoryAccess(i) */\n      tag_198\n        /* \"@openzeppelin/contracts/token/ERC1155/ERC1155.sol\":5521:5522  i */\n      dup3\n        /* \"@openzeppelin/contracts/token/ERC1155/ERC1155.sol\":5498:5501  ids */\n      dup7\n        /* \"@openzeppelin/contracts/token/ERC1155/ERC1155.sol\":5498:5520  ids.unsafeMemoryAccess */\n      tag_113\n      swap1\n        /* \"@openzeppelin/contracts/token/ERC1155/ERC1155.sol\":5498:5523  ids.unsafeMemoryAccess(i) */\n      swap2\n      swap1\n      0xffffffff\n      and\n      jump\t// in\n    tag_198:\n        /* \"@openzeppelin/contracts/token/ERC1155/ERC1155.sol\":5485:5523  uint256 id = ids.unsafeMemoryAccess(i) */\n      swap1\n      pop\n        /* \"@openzeppelin/contracts/token/ERC1155/ERC1155.sol\":5537:5550  uint256 value */\n      0x00\n        /* \"@openzeppelin/contracts/token/ERC1155/ERC1155.sol\":5553:5581  values.unsafeMemoryAccess(i) */\n      tag_199\n        /* \"@openzeppelin/contracts/token/ERC1155/ERC1155.sol\":5579:5580  i */\n      dup4\n        /* \"@openzeppelin/contracts/token/ERC1155/ERC1155.sol\":5553:5559  values */\n      dup7\n        /* \"@openzeppelin/contracts/token/ERC1155/ERC1155.sol\":5553:5578  values.unsafeMemoryAccess */\n      tag_113\n      swap1\n        /* \"@openzeppelin/contracts/token/ERC1155/ERC1155.sol\":5553:5581  values.unsafeMemoryAccess(i) */\n      swap2\n      swap1\n      0xffffffff\n      and\n      jump\t// in\n    tag_199:\n        /* \"@openzeppelin/contracts/token/ERC1155/ERC1155.sol\":5537:5581  uint256 value = values.unsafeMemoryAccess(i) */\n      swap1\n      pop\n        /* \"@openzeppelin/contracts/token/ERC1155/ERC1155.sol\":5616:5617  0 */\n      0x00\n        /* \"@openzeppelin/contracts/token/ERC1155/ERC1155.sol\":5600:5618  from != address(0) */\n      0xffffffffffffffffffffffffffffffffffffffff\n      and\n        /* \"@openzeppelin/contracts/token/ERC1155/ERC1155.sol\":5600:5604  from */\n      dup9\n        /* \"@openzeppelin/contracts/token/ERC1155/ERC1155.sol\":5600:5618  from != address(0) */\n      0xffffffffffffffffffffffffffffffffffffffff\n      and\n      eq\n        /* \"@openzeppelin/contracts/token/ERC1155/ERC1155.sol\":5596:6016  if (from != address(0)) {... */\n      tag_200\n      jumpi\n        /* \"@openzeppelin/contracts/token/ERC1155/ERC1155.sol\":5638:5657  uint256 fromBalance */\n      0x00\n        /* \"@openzeppelin/contracts/token/ERC1155/ERC1155.sol\":5660:5669  _balances */\n      dup1\n        /* \"@openzeppelin/contracts/token/ERC1155/ERC1155.sol\":5660:5673  _balances[id] */\n      0x00\n        /* \"@openzeppelin/contracts/token/ERC1155/ERC1155.sol\":5670:5672  id */\n      dup5\n        /* \"@openzeppelin/contracts/token/ERC1155/ERC1155.sol\":5660:5673  _balances[id] */\n      dup2\n      mstore\n      0x20\n      add\n      swap1\n      dup2\n      mstore\n      0x20\n      add\n      0x00\n      keccak256\n        /* \"@openzeppelin/contracts/token/ERC1155/ERC1155.sol\":5660:5679  _balances[id][from] */\n      0x00\n        /* \"@openzeppelin/contracts/token/ERC1155/ERC1155.sol\":5674:5678  from */\n      dup11\n        /* \"@openzeppelin/contracts/token/ERC1155/ERC1155.sol\":5660:5679  _balances[id][from] */\n      0xffffffffffffffffffffffffffffffffffffffff\n      and\n      0xffffffffffffffffffffffffffffffffffffffff\n      and\n      dup2\n      mstore\n      0x20\n      add\n      swap1\n      dup2\n      mstore\n      0x20\n      add\n      0x00\n      keccak256\n      sload\n        /* \"@openzeppelin/contracts/token/ERC1155/ERC1155.sol\":5638:5679  uint256 fromBalance = _balances[id][from] */\n      swap1\n      pop\n        /* \"@openzeppelin/contracts/token/ERC1155/ERC1155.sol\":5715:5720  value */\n      dup2\n        /* \"@openzeppelin/contracts/token/ERC1155/ERC1155.sol\":5701:5712  fromBalance */\n      dup2\n        /* \"@openzeppelin/contracts/token/ERC1155/ERC1155.sol\":5701:5720  fromBalance < value */\n      lt\n        /* \"@openzeppelin/contracts/token/ERC1155/ERC1155.sol\":5697:5826  if (fromBalance < value) {... */\n      iszero\n      tag_201\n      jumpi\n        /* \"@openzeppelin/contracts/token/ERC1155/ERC1155.sol\":5778:5782  from */\n      dup9\n        /* \"@openzeppelin/contracts/token/ERC1155/ERC1155.sol\":5784:5795  fromBalance */\n      dup2\n        /* \"@openzeppelin/contracts/token/ERC1155/ERC1155.sol\":5797:5802  value */\n      dup4\n        /* \"@openzeppelin/contracts/token/ERC1155/ERC1155.sol\":5804:5806  id */\n      dup6\n        /* \"@openzeppelin/contracts/token/ERC1155/ERC1155.sol\":5751:5807  ERC1155InsufficientBalance(from, fromBalance, value, id) */\n      mload(0x40)\n      0x03dee4c500000000000000000000000000000000000000000000000000000000\n      dup2\n      mstore\n      0x04\n      add\n      tag_202\n      swap5\n      swap4\n      swap3\n      swap2\n      swap1\n      tag_203\n      jump\t// in\n    tag_202:\n      mload(0x40)\n      dup1\n      swap2\n      sub\n      swap1\n      revert\n        /* \"@openzeppelin/contracts/token/ERC1155/ERC1155.sol\":5697:5826  if (fromBalance < value) {... */\n    tag_201:\n        /* \"@openzeppelin/contracts/token/ERC1155/ERC1155.sol\":5978:5983  value */\n      dup2\n        /* \"@openzeppelin/contracts/token/ERC1155/ERC1155.sol\":5964:5975  fromBalance */\n      dup2\n        /* \"@openzeppelin/contracts/token/ERC1155/ERC1155.sol\":5964:5983  fromBalance - value */\n      sub\n        /* \"@openzeppelin/contracts/token/ERC1155/ERC1155.sol\":5942:5951  _balances */\n      0x00\n        /* \"@openzeppelin/contracts/token/ERC1155/ERC1155.sol\":5942:5955  _balances[id] */\n      dup1\n        /* \"@openzeppelin/contracts/token/ERC1155/ERC1155.sol\":5952:5954  id */\n      dup6\n        /* \"@openzeppelin/contracts/token/ERC1155/ERC1155.sol\":5942:5955  _balances[id] */\n      dup2\n      mstore\n      0x20\n      add\n      swap1\n      dup2\n      mstore\n      0x20\n      add\n      0x00\n      keccak256\n        /* \"@openzeppelin/contracts/token/ERC1155/ERC1155.sol\":5942:5961  _balances[id][from] */\n      0x00\n        /* \"@openzeppelin/contracts/token/ERC1155/ERC1155.sol\":5956:5960  from */\n      dup12\n        /* \"@openzeppelin/contracts/token/ERC1155/ERC1155.sol\":5942:5961  _balances[id][from] */\n      0xffffffffffffffffffffffffffffffffffffffff\n      and\n      0xffffffffffffffffffffffffffffffffffffffff\n      and\n      dup2\n      mstore\n      0x20\n      add\n      swap1\n      dup2\n      mstore\n      0x20\n      add\n      0x00\n      keccak256\n        /* \"@openzeppelin/contracts/token/ERC1155/ERC1155.sol\":5942:5983  _balances[id][from] = fromBalance - value */\n      dup2\n      swap1\n      sstore\n      pop\n        /* \"@openzeppelin/contracts/token/ERC1155/ERC1155.sol\":5620:6016  {... */\n      pop\n        /* \"@openzeppelin/contracts/token/ERC1155/ERC1155.sol\":5596:6016  if (from != address(0)) {... */\n    tag_200:\n        /* \"@openzeppelin/contracts/token/ERC1155/ERC1155.sol\":6048:6049  0 */\n      0x00\n        /* \"@openzeppelin/contracts/token/ERC1155/ERC1155.sol\":6034:6050  to != address(0) */\n      0xffffffffffffffffffffffffffffffffffffffff\n      and\n        /* \"@openzeppelin/contracts/token/ERC1155/ERC1155.sol\":6034:6036  to */\n      dup8\n        /* \"@openzeppelin/contracts/token/ERC1155/ERC1155.sol\":6034:6050  to != address(0) */\n      0xffffffffffffffffffffffffffffffffffffffff\n      and\n      eq\n        /* \"@openzeppelin/contracts/token/ERC1155/ERC1155.sol\":6030:6111  if (to != address(0)) {... */\n      tag_204\n      jumpi\n        /* \"@openzeppelin/contracts/token/ERC1155/ERC1155.sol\":6091:6096  value */\n      dup1\n        /* \"@openzeppelin/contracts/token/ERC1155/ERC1155.sol\":6070:6079  _balances */\n      0x00\n        /* \"@openzeppelin/contracts/token/ERC1155/ERC1155.sol\":6070:6083  _balances[id] */\n      dup1\n        /* \"@openzeppelin/contracts/token/ERC1155/ERC1155.sol\":6080:6082  id */\n      dup5\n        /* \"@openzeppelin/contracts/token/ERC1155/ERC1155.sol\":6070:6083  _balances[id] */\n      dup2\n      mstore\n      0x20\n      add\n      swap1\n      dup2\n      mstore\n      0x20\n      add\n      0x00\n      keccak256\n        /* \"@openzeppelin/contracts/token/ERC1155/ERC1155.sol\":6070:6087  _balances[id][to] */\n      0x00\n        /* \"@openzeppelin/contracts/token/ERC1155/ERC1155.sol\":6084:6086  to */\n      dup10\n        /* \"@openzeppelin/contracts/token/ERC1155/ERC1155.sol\":6070:6087  _balances[id][to] */\n      0xffffffffffffffffffffffffffffffffffffffff\n      and\n      0xffffffffffffffffffffffffffffffffffffffff\n      and\n      dup2\n      mstore\n      0x20\n      add\n      swap1\n      dup2\n      mstore\n      0x20\n      add\n      0x00\n      keccak256\n      0x00\n        /* \"@openzeppelin/contracts/token/ERC1155/ERC1155.sol\":6070:6096  _balances[id][to] += value */\n      dup3\n      dup3\n      sload\n      tag_205\n      swap2\n      swap1\n      tag_206\n      jump\t// in\n    tag_205:\n      swap3\n      pop\n      pop\n      dup2\n      swap1\n      sstore\n      pop\n        /* \"@openzeppelin/contracts/token/ERC1155/ERC1155.sol\":6030:6111  if (to != address(0)) {... */\n    tag_204:\n        /* \"@openzeppelin/contracts/token/ERC1155/ERC1155.sol\":5471:6121  {... */\n      pop\n      pop\n        /* \"@openzeppelin/contracts/token/ERC1155/ERC1155.sol\":5466:5469  ++i */\n      dup1\n      0x01\n      add\n      swap1\n      pop\n        /* \"@openzeppelin/contracts/token/ERC1155/ERC1155.sol\":5430:6121  for (uint256 i = 0; i < ids.length; ++i) {... */\n      jump(tag_195)\n    tag_196:\n      pop\n        /* \"@openzeppelin/contracts/token/ERC1155/ERC1155.sol\":6149:6150  1 */\n      0x01\n        /* \"@openzeppelin/contracts/token/ERC1155/ERC1155.sol\":6135:6138  ids */\n      dup4\n        /* \"@openzeppelin/contracts/token/ERC1155/ERC1155.sol\":6135:6145  ids.length */\n      mload\n        /* \"@openzeppelin/contracts/token/ERC1155/ERC1155.sol\":6135:6150  ids.length == 1 */\n      sub\n        /* \"@openzeppelin/contracts/token/ERC1155/ERC1155.sol\":6131:6419  if (ids.length == 1) {... */\n      tag_207\n      jumpi\n        /* \"@openzeppelin/contracts/token/ERC1155/ERC1155.sol\":6166:6176  uint256 id */\n      0x00\n        /* \"@openzeppelin/contracts/token/ERC1155/ERC1155.sol\":6179:6204  ids.unsafeMemoryAccess(0) */\n      tag_208\n        /* \"@openzeppelin/contracts/token/ERC1155/ERC1155.sol\":6202:6203  0 */\n      0x00\n        /* \"@openzeppelin/contracts/token/ERC1155/ERC1155.sol\":6179:6182  ids */\n      dup6\n        /* \"@openzeppelin/contracts/token/ERC1155/ERC1155.sol\":6179:6201  ids.unsafeMemoryAccess */\n      tag_113\n      swap1\n        /* \"@openzeppelin/contracts/token/ERC1155/ERC1155.sol\":6179:6204  ids.unsafeMemoryAccess(0) */\n      swap2\n      swap1\n      0xffffffff\n      and\n      jump\t// in\n    tag_208:\n        /* \"@openzeppelin/contracts/token/ERC1155/ERC1155.sol\":6166:6204  uint256 id = ids.unsafeMemoryAccess(0) */\n      swap1\n      pop\n        /* \"@openzeppelin/contracts/token/ERC1155/ERC1155.sol\":6218:6231  uint256 value */\n      0x00\n        /* \"@openzeppelin/contracts/token/ERC1155/ERC1155.sol\":6234:6262  values.unsafeMemoryAccess(0) */\n      tag_209\n        /* \"@openzeppelin/contracts/token/ERC1155/ERC1155.sol\":6260:6261  0 */\n      0x00\n        /* \"@openzeppelin/contracts/token/ERC1155/ERC1155.sol\":6234:6240  values */\n      dup6\n        /* \"@openzeppelin/contracts/token/ERC1155/ERC1155.sol\":6234:6259  values.unsafeMemoryAccess */\n      tag_113\n      swap1\n        /* \"@openzeppelin/contracts/token/ERC1155/ERC1155.sol\":6234:6262  values.unsafeMemoryAccess(0) */\n      swap2\n      swap1\n      0xffffffff\n      and\n      jump\t// in\n    tag_209:\n        /* \"@openzeppelin/contracts/token/ERC1155/ERC1155.sol\":6218:6262  uint256 value = values.unsafeMemoryAccess(0) */\n      swap1\n      pop\n        /* \"@openzeppelin/contracts/token/ERC1155/ERC1155.sol\":6312:6314  to */\n      dup6\n        /* \"@openzeppelin/contracts/token/ERC1155/ERC1155.sol\":6281:6326  TransferSingle(operator, from, to, id, value) */\n      0xffffffffffffffffffffffffffffffffffffffff\n      and\n        /* \"@openzeppelin/contracts/token/ERC1155/ERC1155.sol\":6306:6310  from */\n      dup8\n        /* \"@openzeppelin/contracts/token/ERC1155/ERC1155.sol\":6281:6326  TransferSingle(operator, from, to, id, value) */\n      0xffffffffffffffffffffffffffffffffffffffff\n      and\n        /* \"@openzeppelin/contracts/token/ERC1155/ERC1155.sol\":6296:6304  operator */\n      dup5\n        /* \"@openzeppelin/contracts/token/ERC1155/ERC1155.sol\":6281:6326  TransferSingle(operator, from, to, id, value) */\n      0xffffffffffffffffffffffffffffffffffffffff\n      and\n      0xc3d58168c5ae7397731d063d5bbf3d657854427343f4c083240f7aacaa2d0f62\n        /* \"@openzeppelin/contracts/token/ERC1155/ERC1155.sol\":6316:6318  id */\n      dup6\n        /* \"@openzeppelin/contracts/token/ERC1155/ERC1155.sol\":6320:6325  value */\n      dup6\n        /* \"@openzeppelin/contracts/token/ERC1155/ERC1155.sol\":6281:6326  TransferSingle(operator, from, to, id, value) */\n      mload(0x40)\n      tag_210\n      swap3\n      swap2\n      swap1\n      tag_101\n      jump\t// in\n    tag_210:\n      mload(0x40)\n      dup1\n      swap2\n      sub\n      swap1\n      log4\n        /* \"@openzeppelin/contracts/token/ERC1155/ERC1155.sol\":6152:6337  {... */\n      pop\n      pop\n        /* \"@openzeppelin/contracts/token/ERC1155/ERC1155.sol\":6131:6419  if (ids.length == 1) {... */\n      jump(tag_211)\n    tag_207:\n        /* \"@openzeppelin/contracts/token/ERC1155/ERC1155.sol\":6392:6394  to */\n      dup4\n        /* \"@openzeppelin/contracts/token/ERC1155/ERC1155.sol\":6362:6408  TransferBatch(operator, from, to, ids, values) */\n      0xffffffffffffffffffffffffffffffffffffffff\n      and\n        /* \"@openzeppelin/contracts/token/ERC1155/ERC1155.sol\":6386:6390  from */\n      dup6\n        /* \"@openzeppelin/contracts/token/ERC1155/ERC1155.sol\":6362:6408  TransferBatch(operator, from, to, ids, values) */\n      0xffffffffffffffffffffffffffffffffffffffff\n      and\n        /* \"@openzeppelin/contracts/token/ERC1155/ERC1155.sol\":6376:6384  operator */\n      dup3\n        /* \"@openzeppelin/contracts/token/ERC1155/ERC1155.sol\":6362:6408  TransferBatch(operator, from, to, ids, values) */\n      0xffffffffffffffffffffffffffffffffffffffff\n      and\n      0x4a39dc06d4c0dbc64b70af90fd698a233a518aa5d07e595d983b8c0526c8f7fb\n        /* \"@openzeppelin/contracts/token/ERC1155/ERC1155.sol\":6396:6399  ids */\n      dup7\n        /* \"@openzeppelin/contracts/token/ERC1155/ERC1155.sol\":6401:6407  values */\n      dup7\n        /* \"@openzeppelin/contracts/token/ERC1155/ERC1155.sol\":6362:6408  TransferBatch(operator, from, to, ids, values) */\n      mload(0x40)\n      tag_212\n      swap3\n      swap2\n      swap1\n      tag_213\n      jump\t// in\n    tag_212:\n      mload(0x40)\n      dup1\n      swap2\n      sub\n      swap1\n      log4\n        /* \"@openzeppelin/contracts/token/ERC1155/ERC1155.sol\":6131:6419  if (ids.length == 1) {... */\n    tag_211:\n        /* \"@openzeppelin/contracts/token/ERC1155/ERC1155.sol\":5251:6425  {... */\n      pop\n        /* \"@openzeppelin/contracts/token/ERC1155/ERC1155.sol\":5144:6425  function _update(address from, address to, uint256[] memory ids, uint256[] memory values) internal virtual {... */\n      pop\n      pop\n      pop\n      pop\n      jump\t// out\n        /* \"@openzeppelin/contracts/token/ERC1155/ERC1155.sol\":13761:14735  function _doSafeTransferAcceptanceCheck(... */\n    tag_186:\n        /* \"@openzeppelin/contracts/token/ERC1155/ERC1155.sol\":13984:13985  0 */\n      0x00\n        /* \"@openzeppelin/contracts/token/ERC1155/ERC1155.sol\":13967:13969  to */\n      dup5\n        /* \"@openzeppelin/contracts/token/ERC1155/ERC1155.sol\":13967:13981  to.code.length */\n      0xffffffffffffffffffffffffffffffffffffffff\n      and\n      extcodesize\n        /* \"@openzeppelin/contracts/token/ERC1155/ERC1155.sol\":13967:13985  to.code.length > 0 */\n      gt\n        /* \"@openzeppelin/contracts/token/ERC1155/ERC1155.sol\":13963:14729  if (to.code.length > 0) {... */\n      iszero\n      tag_215\n      jumpi\n        /* \"@openzeppelin/contracts/token/ERC1155/ERC1155.sol\":14022:14024  to */\n      dup4\n        /* \"@openzeppelin/contracts/token/ERC1155/ERC1155.sol\":14005:14043  IERC1155Receiver(to).onERC1155Received */\n      0xffffffffffffffffffffffffffffffffffffffff\n      and\n      0xf23a6e61\n        /* \"@openzeppelin/contracts/token/ERC1155/ERC1155.sol\":14044:14052  operator */\n      dup8\n        /* \"@openzeppelin/contracts/token/ERC1155/ERC1155.sol\":14054:14058  from */\n      dup8\n        /* \"@openzeppelin/contracts/token/ERC1155/ERC1155.sol\":14060:14062  id */\n      dup7\n        /* \"@openzeppelin/contracts/token/ERC1155/ERC1155.sol\":14064:14069  value */\n      dup7\n        /* \"@openzeppelin/contracts/token/ERC1155/ERC1155.sol\":14071:14075  data */\n      dup7\n        /* \"@openzeppelin/contracts/token/ERC1155/ERC1155.sol\":14005:14076  IERC1155Receiver(to).onERC1155Received(operator, from, id, value, data) */\n      mload(0x40)\n      dup7\n      0xffffffff\n      and\n      0xe0\n      shl\n      dup2\n      mstore\n      0x04\n      add\n      tag_216\n      swap6\n      swap5\n      swap4\n      swap3\n      swap2\n      swap1\n      tag_217\n      jump\t// in\n    tag_216:\n      0x20\n      mload(0x40)\n      dup1\n      dup4\n      sub\n      dup2\n      0x00\n      dup8\n      gas\n      call\n      swap3\n      pop\n      pop\n      pop\n      dup1\n      iszero\n      tag_218\n      jumpi\n      pop\n      mload(0x40)\n      returndatasize\n      not(0x1f)\n      0x1f\n      dup3\n      add\n      and\n      dup3\n      add\n      dup1\n      0x40\n      mstore\n      pop\n      dup2\n      add\n      swap1\n      tag_219\n      swap2\n      swap1\n      tag_220\n      jump\t// in\n    tag_219:\n      0x01\n    tag_218:\n        /* \"@openzeppelin/contracts/token/ERC1155/ERC1155.sol\":14001:14719  try IERC1155Receiver(to).onERC1155Received(operator, from, id, value, data) returns (bytes4 response) {... */\n      tag_221\n      jumpi\n      returndatasize\n      dup1\n      0x00\n      dup2\n      eq\n      tag_226\n      jumpi\n      mload(0x40)\n      swap2\n      pop\n      and(add(returndatasize, 0x3f), not(0x1f))\n      dup3\n      add\n      0x40\n      mstore\n      returndatasize\n      dup3\n      mstore\n      returndatasize\n      0x00\n      0x20\n      dup5\n      add\n      returndatacopy\n      jump(tag_225)\n    tag_226:\n      0x60\n      swap2\n      pop\n    tag_225:\n      pop\n        /* \"@openzeppelin/contracts/token/ERC1155/ERC1155.sol\":14377:14378  0 */\n      0x00\n        /* \"@openzeppelin/contracts/token/ERC1155/ERC1155.sol\":14360:14366  reason */\n      dup2\n        /* \"@openzeppelin/contracts/token/ERC1155/ERC1155.sol\":14360:14373  reason.length */\n      mload\n        /* \"@openzeppelin/contracts/token/ERC1155/ERC1155.sol\":14360:14378  reason.length == 0 */\n      sub\n        /* \"@openzeppelin/contracts/token/ERC1155/ERC1155.sol\":14356:14705  if (reason.length == 0) {... */\n      tag_227\n      jumpi\n        /* \"@openzeppelin/contracts/token/ERC1155/ERC1155.sol\":14487:14489  to */\n      dup5\n        /* \"@openzeppelin/contracts/token/ERC1155/ERC1155.sol\":14464:14490  ERC1155InvalidReceiver(to) */\n      mload(0x40)\n      0x57f447ce00000000000000000000000000000000000000000000000000000000\n      dup2\n      mstore\n      0x04\n      add\n      tag_228\n      swap2\n      swap1\n      tag_148\n      jump\t// in\n    tag_228:\n      mload(0x40)\n      dup1\n      swap2\n      sub\n      swap1\n      revert\n        /* \"@openzeppelin/contracts/token/ERC1155/ERC1155.sol\":14356:14705  if (reason.length == 0) {... */\n    tag_227:\n        /* \"@openzeppelin/contracts/token/ERC1155/ERC1155.sol\":14657:14663  reason */\n      dup1\n        /* \"@openzeppelin/contracts/token/ERC1155/ERC1155.sol\":14651:14664  mload(reason) */\n      mload\n        /* \"@openzeppelin/contracts/token/ERC1155/ERC1155.sol\":14642:14648  reason */\n      dup2\n        /* \"@openzeppelin/contracts/token/ERC1155/ERC1155.sol\":14638:14640  32 */\n      0x20\n        /* \"@openzeppelin/contracts/token/ERC1155/ERC1155.sol\":14634:14649  add(32, reason) */\n      add\n        /* \"@openzeppelin/contracts/token/ERC1155/ERC1155.sol\":14627:14665  revert(add(32, reason), mload(reason)) */\n      revert\n        /* \"@openzeppelin/contracts/token/ERC1155/ERC1155.sol\":14001:14719  try IERC1155Receiver(to).onERC1155Received(operator, from, id, value, data) returns (bytes4 response) {... */\n    tag_221:\n        /* \"@openzeppelin/contracts/token/ERC1155/ERC1155.sol\":14137:14180  IERC1155Receiver.onERC1155Received.selector */\n      shl(0xe0, 0xf23a6e61)\n        /* \"@openzeppelin/contracts/token/ERC1155/ERC1155.sol\":14125:14180  response != IERC1155Receiver.onERC1155Received.selector */\n      not(0xffffffffffffffffffffffffffffffffffffffffffffffffffffffff)\n      and\n        /* \"@openzeppelin/contracts/token/ERC1155/ERC1155.sol\":14125:14133  response */\n      dup2\n        /* \"@openzeppelin/contracts/token/ERC1155/ERC1155.sol\":14125:14180  response != IERC1155Receiver.onERC1155Received.selector */\n      not(0xffffffffffffffffffffffffffffffffffffffffffffffffffffffff)\n      and\n      eq\n        /* \"@openzeppelin/contracts/token/ERC1155/ERC1155.sol\":14121:14295  if (response != IERC1155Receiver.onERC1155Received.selector) {... */\n      tag_231\n      jumpi\n        /* \"@openzeppelin/contracts/token/ERC1155/ERC1155.sol\":14273:14275  to */\n      dup5\n        /* \"@openzeppelin/contracts/token/ERC1155/ERC1155.sol\":14250:14276  ERC1155InvalidReceiver(to) */\n      mload(0x40)\n      0x57f447ce00000000000000000000000000000000000000000000000000000000\n      dup2\n      mstore\n      0x04\n      add\n      tag_232\n      swap2\n      swap1\n      tag_148\n      jump\t// in\n    tag_232:\n      mload(0x40)\n      dup1\n      swap2\n      sub\n      swap1\n      revert\n        /* \"@openzeppelin/contracts/token/ERC1155/ERC1155.sol\":14121:14295  if (response != IERC1155Receiver.onERC1155Received.selector) {... */\n    tag_231:\n        /* \"@openzeppelin/contracts/token/ERC1155/ERC1155.sol\":14077:14309  returns (bytes4 response) {... */\n      pop\n        /* \"@openzeppelin/contracts/token/ERC1155/ERC1155.sol\":13963:14729  if (to.code.length > 0) {... */\n    tag_215:\n        /* \"@openzeppelin/contracts/token/ERC1155/ERC1155.sol\":13761:14735  function _doSafeTransferAcceptanceCheck(... */\n      pop\n      pop\n      pop\n      pop\n      pop\n      pop\n      jump\t// out\n        /* \"@openzeppelin/contracts/token/ERC1155/ERC1155.sol\":14923:15964  function _doSafeBatchTransferAcceptanceCheck(... */\n    tag_189:\n        /* \"@openzeppelin/contracts/token/ERC1155/ERC1155.sol\":15171:15172  0 */\n      0x00\n        /* \"@openzeppelin/contracts/token/ERC1155/ERC1155.sol\":15154:15156  to */\n      dup5\n        /* \"@openzeppelin/contracts/token/ERC1155/ERC1155.sol\":15154:15168  to.code.length */\n      0xffffffffffffffffffffffffffffffffffffffff\n      and\n      extcodesize\n        /* \"@openzeppelin/contracts/token/ERC1155/ERC1155.sol\":15154:15172  to.code.length > 0 */\n      gt\n        /* \"@openzeppelin/contracts/token/ERC1155/ERC1155.sol\":15150:15958  if (to.code.length > 0) {... */\n      iszero\n      tag_234\n      jumpi\n        /* \"@openzeppelin/contracts/token/ERC1155/ERC1155.sol\":15209:15211  to */\n      dup4\n        /* \"@openzeppelin/contracts/token/ERC1155/ERC1155.sol\":15192:15235  IERC1155Receiver(to).onERC1155BatchReceived */\n      0xffffffffffffffffffffffffffffffffffffffff\n      and\n      0xbc197c81\n        /* \"@openzeppelin/contracts/token/ERC1155/ERC1155.sol\":15236:15244  operator */\n      dup8\n        /* \"@openzeppelin/contracts/token/ERC1155/ERC1155.sol\":15246:15250  from */\n      dup8\n        /* \"@openzeppelin/contracts/token/ERC1155/ERC1155.sol\":15252:15255  ids */\n      dup7\n        /* \"@openzeppelin/contracts/token/ERC1155/ERC1155.sol\":15257:15263  values */\n      dup7\n        /* \"@openzeppelin/contracts/token/ERC1155/ERC1155.sol\":15265:15269  data */\n      dup7\n        /* \"@openzeppelin/contracts/token/ERC1155/ERC1155.sol\":15192:15270  IERC1155Receiver(to).onERC1155BatchReceived(operator, from, ids, values, data) */\n      mload(0x40)\n      dup7\n      0xffffffff\n      and\n      0xe0\n      shl\n      dup2\n      mstore\n      0x04\n      add\n      tag_235\n      swap6\n      swap5\n      swap4\n      swap3\n      swap2\n      swap1\n      tag_236\n      jump\t// in\n    tag_235:\n      0x20\n      mload(0x40)\n      dup1\n      dup4\n      sub\n      dup2\n      0x00\n      dup8\n      gas\n      call\n      swap3\n      pop\n      pop\n      pop\n      dup1\n      iszero\n      tag_237\n      jumpi\n      pop\n      mload(0x40)\n      returndatasize\n      not(0x1f)\n      0x1f\n      dup3\n      add\n      and\n      dup3\n      add\n      dup1\n      0x40\n      mstore\n      pop\n      dup2\n      add\n      swap1\n      tag_238\n      swap2\n      swap1\n      tag_220\n      jump\t// in\n    tag_238:\n      0x01\n    tag_237:\n        /* \"@openzeppelin/contracts/token/ERC1155/ERC1155.sol\":15188:15948  try IERC1155Receiver(to).onERC1155BatchReceived(operator, from, ids, values, data) returns (... */\n      tag_239\n      jumpi\n      returndatasize\n      dup1\n      0x00\n      dup2\n      eq\n      tag_244\n      jumpi\n      mload(0x40)\n      swap2\n      pop\n      and(add(returndatasize, 0x3f), not(0x1f))\n      dup3\n      add\n      0x40\n      mstore\n      returndatasize\n      dup3\n      mstore\n      returndatasize\n      0x00\n      0x20\n      dup5\n      add\n      returndatacopy\n      jump(tag_243)\n    tag_244:\n      0x60\n      swap2\n      pop\n    tag_243:\n      pop\n        /* \"@openzeppelin/contracts/token/ERC1155/ERC1155.sol\":15606:15607  0 */\n      0x00\n        /* \"@openzeppelin/contracts/token/ERC1155/ERC1155.sol\":15589:15595  reason */\n      dup2\n        /* \"@openzeppelin/contracts/token/ERC1155/ERC1155.sol\":15589:15602  reason.length */\n      mload\n        /* \"@openzeppelin/contracts/token/ERC1155/ERC1155.sol\":15589:15607  reason.length == 0 */\n      sub\n        /* \"@openzeppelin/contracts/token/ERC1155/ERC1155.sol\":15585:15934  if (reason.length == 0) {... */\n      tag_245\n      jumpi\n        /* \"@openzeppelin/contracts/token/ERC1155/ERC1155.sol\":15716:15718  to */\n      dup5\n        /* \"@openzeppelin/contracts/token/ERC1155/ERC1155.sol\":15693:15719  ERC1155InvalidReceiver(to) */\n      mload(0x40)\n      0x57f447ce00000000000000000000000000000000000000000000000000000000\n      dup2\n      mstore\n      0x04\n      add\n      tag_246\n      swap2\n      swap1\n      tag_148\n      jump\t// in\n    tag_246:\n      mload(0x40)\n      dup1\n      swap2\n      sub\n      swap1\n      revert\n        /* \"@openzeppelin/contracts/token/ERC1155/ERC1155.sol\":15585:15934  if (reason.length == 0) {... */\n    tag_245:\n        /* \"@openzeppelin/contracts/token/ERC1155/ERC1155.sol\":15886:15892  reason */\n      dup1\n        /* \"@openzeppelin/contracts/token/ERC1155/ERC1155.sol\":15880:15893  mload(reason) */\n      mload\n        /* \"@openzeppelin/contracts/token/ERC1155/ERC1155.sol\":15871:15877  reason */\n      dup2\n        /* \"@openzeppelin/contracts/token/ERC1155/ERC1155.sol\":15867:15869  32 */\n      0x20\n        /* \"@openzeppelin/contracts/token/ERC1155/ERC1155.sol\":15863:15878  add(32, reason) */\n      add\n        /* \"@openzeppelin/contracts/token/ERC1155/ERC1155.sol\":15856:15894  revert(add(32, reason), mload(reason)) */\n      revert\n        /* \"@openzeppelin/contracts/token/ERC1155/ERC1155.sol\":15188:15948  try IERC1155Receiver(to).onERC1155BatchReceived(operator, from, ids, values, data) returns (... */\n    tag_239:\n        /* \"@openzeppelin/contracts/token/ERC1155/ERC1155.sol\":15361:15409  IERC1155Receiver.onERC1155BatchReceived.selector */\n      shl(0xe0, 0xbc197c81)\n        /* \"@openzeppelin/contracts/token/ERC1155/ERC1155.sol\":15349:15409  response != IERC1155Receiver.onERC1155BatchReceived.selector */\n      not(0xffffffffffffffffffffffffffffffffffffffffffffffffffffffff)\n      and\n        /* \"@openzeppelin/contracts/token/ERC1155/ERC1155.sol\":15349:15357  response */\n      dup2\n        /* \"@openzeppelin/contracts/token/ERC1155/ERC1155.sol\":15349:15409  response != IERC1155Receiver.onERC1155BatchReceived.selector */\n      not(0xffffffffffffffffffffffffffffffffffffffffffffffffffffffff)\n      and\n      eq\n        /* \"@openzeppelin/contracts/token/ERC1155/ERC1155.sol\":15345:15524  if (response != IERC1155Receiver.onERC1155BatchReceived.selector) {... */\n      tag_249\n      jumpi\n        /* \"@openzeppelin/contracts/token/ERC1155/ERC1155.sol\":15502:15504  to */\n      dup5\n        /* \"@openzeppelin/contracts/token/ERC1155/ERC1155.sol\":15479:15505  ERC1155InvalidReceiver(to) */\n      mload(0x40)\n      0x57f447ce00000000000000000000000000000000000000000000000000000000\n      dup2\n      mstore\n      0x04\n      add\n      tag_250\n      swap2\n      swap1\n      tag_148\n      jump\t// in\n    tag_250:\n      mload(0x40)\n      dup1\n      swap2\n      sub\n      swap1\n      revert\n        /* \"@openzeppelin/contracts/token/ERC1155/ERC1155.sol\":15345:15524  if (response != IERC1155Receiver.onERC1155BatchReceived.selector) {... */\n    tag_249:\n        /* \"@openzeppelin/contracts/token/ERC1155/ERC1155.sol\":15271:15538  returns (... */\n      pop\n        /* \"@openzeppelin/contracts/token/ERC1155/ERC1155.sol\":15150:15958  if (to.code.length > 0) {... */\n    tag_234:\n        /* \"@openzeppelin/contracts/token/ERC1155/ERC1155.sol\":14923:15964  function _doSafeBatchTransferAcceptanceCheck(... */\n      pop\n      pop\n      pop\n      pop\n      pop\n      pop\n      jump\t// out\n        /* \"#utility.yul\":7:82   */\n    tag_251:\n        /* \"#utility.yul\":40:46   */\n      0x00\n        /* \"#utility.yul\":73:75   */\n      0x40\n        /* \"#utility.yul\":67:76   */\n      mload\n        /* \"#utility.yul\":57:76   */\n      swap1\n      pop\n        /* \"#utility.yul\":7:82   */\n      swap1\n      jump\t// out\n        /* \"#utility.yul\":88:205   */\n    tag_252:\n        /* \"#utility.yul\":197:198   */\n      0x00\n        /* \"#utility.yul\":194:195   */\n      dup1\n        /* \"#utility.yul\":187:199   */\n      revert\n        /* \"#utility.yul\":211:328   */\n    tag_253:\n        /* \"#utility.yul\":320:321   */\n      0x00\n        /* \"#utility.yul\":317:318   */\n      dup1\n        /* \"#utility.yul\":310:322   */\n      revert\n        /* \"#utility.yul\":334:460   */\n    tag_254:\n        /* \"#utility.yul\":371:378   */\n      0x00\n        /* \"#utility.yul\":411:453   */\n      0xffffffffffffffffffffffffffffffffffffffff\n        /* \"#utility.yul\":404:409   */\n      dup3\n        /* \"#utility.yul\":400:454   */\n      and\n        /* \"#utility.yul\":389:454   */\n      swap1\n      pop\n        /* \"#utility.yul\":334:460   */\n      swap2\n      swap1\n      pop\n      jump\t// out\n        /* \"#utility.yul\":466:562   */\n    tag_255:\n        /* \"#utility.yul\":503:510   */\n      0x00\n        /* \"#utility.yul\":532:556   */\n      tag_330\n        /* \"#utility.yul\":550:555   */\n      dup3\n        /* \"#utility.yul\":532:556   */\n      tag_254\n      jump\t// in\n    tag_330:\n        /* \"#utility.yul\":521:556   */\n      swap1\n      pop\n        /* \"#utility.yul\":466:562   */\n      swap2\n      swap1\n      pop\n      jump\t// out\n        /* \"#utility.yul\":568:690   */\n    tag_256:\n        /* \"#utility.yul\":641:665   */\n      tag_332\n        /* \"#utility.yul\":659:664   */\n      dup2\n        /* \"#utility.yul\":641:665   */\n      tag_255\n      jump\t// in\n    tag_332:\n        /* \"#utility.yul\":634:639   */\n      dup2\n        /* \"#utility.yul\":631:666   */\n      eq\n        /* \"#utility.yul\":621:684   */\n      tag_333\n      jumpi\n        /* \"#utility.yul\":680:681   */\n      0x00\n        /* \"#utility.yul\":677:678   */\n      dup1\n        /* \"#utility.yul\":670:682   */\n      revert\n        /* \"#utility.yul\":621:684   */\n    tag_333:\n        /* \"#utility.yul\":568:690   */\n      pop\n      jump\t// out\n        /* \"#utility.yul\":696:835   */\n    tag_257:\n        /* \"#utility.yul\":742:747   */\n      0x00\n        /* \"#utility.yul\":780:786   */\n      dup2\n        /* \"#utility.yul\":767:787   */\n      calldataload\n        /* \"#utility.yul\":758:787   */\n      swap1\n      pop\n        /* \"#utility.yul\":796:829   */\n      tag_335\n        /* \"#utility.yul\":823:828   */\n      dup2\n        /* \"#utility.yul\":796:829   */\n      tag_256\n      jump\t// in\n    tag_335:\n        /* \"#utility.yul\":696:835   */\n      swap3\n      swap2\n      pop\n      pop\n      jump\t// out\n        /* \"#utility.yul\":841:918   */\n    tag_258:\n        /* \"#utility.yul\":878:885   */\n      0x00\n        /* \"#utility.yul\":907:912   */\n      dup2\n        /* \"#utility.yul\":896:912   */\n      swap1\n      pop\n        /* \"#utility.yul\":841:918   */\n      swap2\n      swap1\n      pop\n      jump\t// out\n        /* \"#utility.yul\":924:1046   */\n    tag_259:\n        /* \"#utility.yul\":997:1021   */\n      tag_338\n        /* \"#utility.yul\":1015:1020   */\n      dup2\n        /* \"#utility.yul\":997:1021   */\n      tag_258\n      jump\t// in\n    tag_338:\n        /* \"#utility.yul\":990:995   */\n      dup2\n        /* \"#utility.yul\":987:1022   */\n      eq\n        /* \"#utility.yul\":977:1040   */\n      tag_339\n      jumpi\n        /* \"#utility.yul\":1036:1037   */\n      0x00\n        /* \"#utility.yul\":1033:1034   */\n      dup1\n        /* \"#utility.yul\":1026:1038   */\n      revert\n        /* \"#utility.yul\":977:1040   */\n    tag_339:\n        /* \"#utility.yul\":924:1046   */\n      pop\n      jump\t// out\n        /* \"#utility.yul\":1052:1191   */\n    tag_260:\n        /* \"#utility.yul\":1098:1103   */\n      0x00\n        /* \"#utility.yul\":1136:1142   */\n      dup2\n        /* \"#utility.yul\":1123:1143   */\n      calldataload\n        /* \"#utility.yul\":1114:1143   */\n      swap1\n      pop\n        /* \"#utility.yul\":1152:1185   */\n      tag_341\n        /* \"#utility.yul\":1179:1184   */\n      dup2\n        /* \"#utility.yul\":1152:1185   */\n      tag_259\n      jump\t// in\n    tag_341:\n        /* \"#utility.yul\":1052:1191   */\n      swap3\n      swap2\n      pop\n      pop\n      jump\t// out\n        /* \"#utility.yul\":1197:1671   */\n    tag_17:\n        /* \"#utility.yul\":1265:1271   */\n      0x00\n        /* \"#utility.yul\":1273:1279   */\n      dup1\n        /* \"#utility.yul\":1322:1324   */\n      0x40\n        /* \"#utility.yul\":1310:1319   */\n      dup4\n        /* \"#utility.yul\":1301:1308   */\n      dup6\n        /* \"#utility.yul\":1297:1320   */\n      sub\n        /* \"#utility.yul\":1293:1325   */\n      slt\n        /* \"#utility.yul\":1290:1409   */\n      iszero\n      tag_343\n      jumpi\n        /* \"#utility.yul\":1328:1407   */\n      tag_344\n      tag_252\n      jump\t// in\n    tag_344:\n        /* \"#utility.yul\":1290:1409   */\n    tag_343:\n        /* \"#utility.yul\":1448:1449   */\n      0x00\n        /* \"#utility.yul\":1473:1526   */\n      tag_345\n        /* \"#utility.yul\":1518:1525   */\n      dup6\n        /* \"#utility.yul\":1509:1515   */\n      dup3\n        /* \"#utility.yul\":1498:1507   */\n      dup7\n        /* \"#utility.yul\":1494:1516   */\n      add\n        /* \"#utility.yul\":1473:1526   */\n      tag_257\n      jump\t// in\n    tag_345:\n        /* \"#utility.yul\":1463:1526   */\n      swap3\n      pop\n        /* \"#utility.yul\":1419:1536   */\n      pop\n        /* \"#utility.yul\":1575:1577   */\n      0x20\n        /* \"#utility.yul\":1601:1654   */\n      tag_346\n        /* \"#utility.yul\":1646:1653   */\n      dup6\n        /* \"#utility.yul\":1637:1643   */\n      dup3\n        /* \"#utility.yul\":1626:1635   */\n      dup7\n        /* \"#utility.yul\":1622:1644   */\n      add\n        /* \"#utility.yul\":1601:1654   */\n      tag_260\n      jump\t// in\n    tag_346:\n        /* \"#utility.yul\":1591:1654   */\n      swap2\n      pop\n        /* \"#utility.yul\":1546:1664   */\n      pop\n        /* \"#utility.yul\":1197:1671   */\n      swap3\n      pop\n      swap3\n      swap1\n      pop\n      jump\t// out\n        /* \"#utility.yul\":1677:1795   */\n    tag_261:\n        /* \"#utility.yul\":1764:1788   */\n      tag_348\n        /* \"#utility.yul\":1782:1787   */\n      dup2\n        /* \"#utility.yul\":1764:1788   */\n      tag_258\n      jump\t// in\n    tag_348:\n        /* \"#utility.yul\":1759:1762   */\n      dup3\n        /* \"#utility.yul\":1752:1789   */\n      mstore\n        /* \"#utility.yul\":1677:1795   */\n      pop\n      pop\n      jump\t// out\n        /* \"#utility.yul\":1801:2023   */\n    tag_20:\n        /* \"#utility.yul\":1894:1898   */\n      0x00\n        /* \"#utility.yul\":1932:1934   */\n      0x20\n        /* \"#utility.yul\":1921:1930   */\n      dup3\n        /* \"#utility.yul\":1917:1935   */\n      add\n        /* \"#utility.yul\":1909:1935   */\n      swap1\n      pop\n        /* \"#utility.yul\":1945:2016   */\n      tag_350\n        /* \"#utility.yul\":2013:2014   */\n      0x00\n        /* \"#utility.yul\":2002:2011   */\n      dup4\n        /* \"#utility.yul\":1998:2015   */\n      add\n        /* \"#utility.yul\":1989:1995   */\n      dup5\n        /* \"#utility.yul\":1945:2016   */\n      tag_261\n      jump\t// in\n    tag_350:\n        /* \"#utility.yul\":1801:2023   */\n      swap3\n      swap2\n      pop\n      pop\n      jump\t// out\n        /* \"#utility.yul\":2029:2178   */\n    tag_262:\n        /* \"#utility.yul\":2065:2072   */\n      0x00\n        /* \"#utility.yul\":2105:2171   */\n      0xffffffff00000000000000000000000000000000000000000000000000000000\n        /* \"#utility.yul\":2098:2103   */\n      dup3\n        /* \"#utility.yul\":2094:2172   */\n      and\n        /* \"#utility.yul\":2083:2172   */\n      swap1\n      pop\n        /* \"#utility.yul\":2029:2178   */\n      swap2\n      swap1\n      pop\n      jump\t// out\n        /* \"#utility.yul\":2184:2304   */\n    tag_263:\n        /* \"#utility.yul\":2256:2279   */\n      tag_353\n        /* \"#utility.yul\":2273:2278   */\n      dup2\n        /* \"#utility.yul\":2256:2279   */\n      tag_262\n      jump\t// in\n    tag_353:\n        /* \"#utility.yul\":2249:2254   */\n      dup2\n        /* \"#utility.yul\":2246:2280   */\n      eq\n        /* \"#utility.yul\":2236:2298   */\n      tag_354\n      jumpi\n        /* \"#utility.yul\":2294:2295   */\n      0x00\n        /* \"#utility.yul\":2291:2292   */\n      dup1\n        /* \"#utility.yul\":2284:2296   */\n      revert\n        /* \"#utility.yul\":2236:2298   */\n    tag_354:\n        /* \"#utility.yul\":2184:2304   */\n      pop\n      jump\t// out\n        /* \"#utility.yul\":2310:2447   */\n    tag_264:\n        /* \"#utility.yul\":2355:2360   */\n      0x00\n        /* \"#utility.yul\":2393:2399   */\n      dup2\n        /* \"#utility.yul\":2380:2400   */\n      calldataload\n        /* \"#utility.yul\":2371:2400   */\n      swap1\n      pop\n        /* \"#utility.yul\":2409:2441   */\n      tag_356\n        /* \"#utility.yul\":2435:2440   */\n      dup2\n        /* \"#utility.yul\":2409:2441   */\n      tag_263\n      jump\t// in\n    tag_356:\n        /* \"#utility.yul\":2310:2447   */\n      swap3\n      swap2\n      pop\n      pop\n      jump\t// out\n        /* \"#utility.yul\":2453:2780   */\n    tag_23:\n        /* \"#utility.yul\":2511:2517   */\n      0x00\n        /* \"#utility.yul\":2560:2562   */\n      0x20\n        /* \"#utility.yul\":2548:2557   */\n      dup3\n        /* \"#utility.yul\":2539:2546   */\n      dup5\n        /* \"#utility.yul\":2535:2558   */\n      sub\n        /* \"#utility.yul\":2531:2563   */\n      slt\n        /* \"#utility.yul\":2528:2647   */\n      iszero\n      tag_358\n      jumpi\n        /* \"#utility.yul\":2566:2645   */\n      tag_359\n      tag_252\n      jump\t// in\n    tag_359:\n        /* \"#utility.yul\":2528:2647   */\n    tag_358:\n        /* \"#utility.yul\":2686:2687   */\n      0x00\n        /* \"#utility.yul\":2711:2763   */\n      tag_360\n        /* \"#utility.yul\":2755:2762   */\n      dup5\n        /* \"#utility.yul\":2746:2752   */\n      dup3\n        /* \"#utility.yul\":2735:2744   */\n      dup6\n        /* \"#utility.yul\":2731:2753   */\n      add\n        /* \"#utility.yul\":2711:2763   */\n      tag_264\n      jump\t// in\n    tag_360:\n        /* \"#utility.yul\":2701:2763   */\n      swap2\n      pop\n        /* \"#utility.yul\":2657:2773   */\n      pop\n        /* \"#utility.yul\":2453:2780   */\n      swap3\n      swap2\n      pop\n      pop\n      jump\t// out\n        /* \"#utility.yul\":2786:2876   */\n    tag_265:\n        /* \"#utility.yul\":2820:2827   */\n      0x00\n        /* \"#utility.yul\":2863:2868   */\n      dup2\n        /* \"#utility.yul\":2856:2869   */\n      iszero\n        /* \"#utility.yul\":2849:2870   */\n      iszero\n        /* \"#utility.yul\":2838:2870   */\n      swap1\n      pop\n        /* \"#utility.yul\":2786:2876   */\n      swap2\n      swap1\n      pop\n      jump\t// out\n        /* \"#utility.yul\":2882:2991   */\n    tag_266:\n        /* \"#utility.yul\":2963:2984   */\n      tag_363\n        /* \"#utility.yul\":2978:2983   */\n      dup2\n        /* \"#utility.yul\":2963:2984   */\n      tag_265\n      jump\t// in\n    tag_363:\n        /* \"#utility.yul\":2958:2961   */\n      dup3\n        /* \"#utility.yul\":2951:2985   */\n      mstore\n        /* \"#utility.yul\":2882:2991   */\n      pop\n      pop\n      jump\t// out\n        /* \"#utility.yul\":2997:3207   */\n    tag_26:\n        /* \"#utility.yul\":3084:3088   */\n      0x00\n        /* \"#utility.yul\":3122:3124   */\n      0x20\n        /* \"#utility.yul\":3111:3120   */\n      dup3\n        /* \"#utility.yul\":3107:3125   */\n      add\n        /* \"#utility.yul\":3099:3125   */\n      swap1\n      pop\n        /* \"#utility.yul\":3135:3200   */\n      tag_365\n        /* \"#utility.yul\":3197:3198   */\n      0x00\n        /* \"#utility.yul\":3186:3195   */\n      dup4\n        /* \"#utility.yul\":3182:3199   */\n      add\n        /* \"#utility.yul\":3173:3179   */\n      dup5\n        /* \"#utility.yul\":3135:3200   */\n      tag_266\n      jump\t// in\n    tag_365:\n        /* \"#utility.yul\":2997:3207   */\n      swap3\n      swap2\n      pop\n      pop\n      jump\t// out\n        /* \"#utility.yul\":3213:3542   */\n    tag_29:\n        /* \"#utility.yul\":3272:3278   */\n      0x00\n        /* \"#utility.yul\":3321:3323   */\n      0x20\n        /* \"#utility.yul\":3309:3318   */\n      dup3\n        /* \"#utility.yul\":3300:3307   */\n      dup5\n        /* \"#utility.yul\":3296:3319   */\n      sub\n        /* \"#utility.yul\":3292:3324   */\n      slt\n        /* \"#utility.yul\":3289:3408   */\n      iszero\n      tag_367\n      jumpi\n        /* \"#utility.yul\":3327:3406   */\n      tag_368\n      tag_252\n      jump\t// in\n    tag_368:\n        /* \"#utility.yul\":3289:3408   */\n    tag_367:\n        /* \"#utility.yul\":3447:3448   */\n      0x00\n        /* \"#utility.yul\":3472:3525   */\n      tag_369\n        /* \"#utility.yul\":3517:3524   */\n      dup5\n        /* \"#utility.yul\":3508:3514   */\n      dup3\n        /* \"#utility.yul\":3497:3506   */\n      dup6\n        /* \"#utility.yul\":3493:3515   */\n      add\n        /* \"#utility.yul\":3472:3525   */\n      tag_260\n      jump\t// in\n    tag_369:\n        /* \"#utility.yul\":3462:3525   */\n      swap2\n      pop\n        /* \"#utility.yul\":3418:3535   */\n      pop\n        /* \"#utility.yul\":3213:3542   */\n      swap3\n      swap2\n      pop\n      pop\n      jump\t// out\n        /* \"#utility.yul\":3548:3647   */\n    tag_267:\n        /* \"#utility.yul\":3600:3606   */\n      0x00\n        /* \"#utility.yul\":3634:3639   */\n      dup2\n        /* \"#utility.yul\":3628:3640   */\n      mload\n        /* \"#utility.yul\":3618:3640   */\n      swap1\n      pop\n        /* \"#utility.yul\":3548:3647   */\n      swap2\n      swap1\n      pop\n      jump\t// out\n        /* \"#utility.yul\":3653:3822   */\n    tag_268:\n        /* \"#utility.yul\":3737:3748   */\n      0x00\n        /* \"#utility.yul\":3771:3777   */\n      dup3\n        /* \"#utility.yul\":3766:3769   */\n      dup3\n        /* \"#utility.yul\":3759:3778   */\n      mstore\n        /* \"#utility.yul\":3811:3815   */\n      0x20\n        /* \"#utility.yul\":3806:3809   */\n      dup3\n        /* \"#utility.yul\":3802:3816   */\n      add\n        /* \"#utility.yul\":3787:3816   */\n      swap1\n      pop\n        /* \"#utility.yul\":3653:3822   */\n      swap3\n      swap2\n      pop\n      pop\n      jump\t// out\n        /* \"#utility.yul\":3828:3967   */\n    tag_269:\n        /* \"#utility.yul\":3917:3923   */\n      dup3\n        /* \"#utility.yul\":3912:3915   */\n      dup2\n        /* \"#utility.yul\":3907:3910   */\n      dup4\n        /* \"#utility.yul\":3901:3924   */\n      mcopy\n        /* \"#utility.yul\":3958:3959   */\n      0x00\n        /* \"#utility.yul\":3949:3955   */\n      dup4\n        /* \"#utility.yul\":3944:3947   */\n      dup4\n        /* \"#utility.yul\":3940:3956   */\n      add\n        /* \"#utility.yul\":3933:3960   */\n      mstore\n        /* \"#utility.yul\":3828:3967   */\n      pop\n      pop\n      pop\n      jump\t// out\n        /* \"#utility.yul\":3973:4075   */\n    tag_270:\n        /* \"#utility.yul\":4014:4020   */\n      0x00\n        /* \"#utility.yul\":4065:4067   */\n      0x1f\n        /* \"#utility.yul\":4061:4068   */\n      not\n        /* \"#utility.yul\":4056:4058   */\n      0x1f\n        /* \"#utility.yul\":4049:4054   */\n      dup4\n        /* \"#utility.yul\":4045:4059   */\n      add\n        /* \"#utility.yul\":4041:4069   */\n      and\n        /* \"#utility.yul\":4031:4069   */\n      swap1\n      pop\n        /* \"#utility.yul\":3973:4075   */\n      swap2\n      swap1\n      pop\n      jump\t// out\n        /* \"#utility.yul\":4081:4458   */\n    tag_271:\n        /* \"#utility.yul\":4169:4172   */\n      0x00\n        /* \"#utility.yul\":4197:4236   */\n      tag_375\n        /* \"#utility.yul\":4230:4235   */\n      dup3\n        /* \"#utility.yul\":4197:4236   */\n      tag_267\n      jump\t// in\n    tag_375:\n        /* \"#utility.yul\":4252:4323   */\n      tag_376\n        /* \"#utility.yul\":4316:4322   */\n      dup2\n        /* \"#utility.yul\":4311:4314   */\n      dup6\n        /* \"#utility.yul\":4252:4323   */\n      tag_268\n      jump\t// in\n    tag_376:\n        /* \"#utility.yul\":4245:4323   */\n      swap4\n      pop\n        /* \"#utility.yul\":4332:4397   */\n      tag_377\n        /* \"#utility.yul\":4390:4396   */\n      dup2\n        /* \"#utility.yul\":4385:4388   */\n      dup6\n        /* \"#utility.yul\":4378:4382   */\n      0x20\n        /* \"#utility.yul\":4371:4376   */\n      dup7\n        /* \"#utility.yul\":4367:4383   */\n      add\n        /* \"#utility.yul\":4332:4397   */\n      tag_269\n      jump\t// in\n    tag_377:\n        /* \"#utility.yul\":4422:4451   */\n      tag_378\n        /* \"#utility.yul\":4444:4450   */\n      dup2\n        /* \"#utility.yul\":4422:4451   */\n      tag_270\n      jump\t// in\n    tag_378:\n        /* \"#utility.yul\":4417:4420   */\n      dup5\n        /* \"#utility.yul\":4413:4452   */\n      add\n        /* \"#utility.yul\":4406:4452   */\n      swap2\n      pop\n        /* \"#utility.yul\":4173:4458   */\n      pop\n        /* \"#utility.yul\":4081:4458   */\n      swap3\n      swap2\n      pop\n      pop\n      jump\t// out\n        /* \"#utility.yul\":4464:4777   */\n    tag_32:\n        /* \"#utility.yul\":4577:4581   */\n      0x00\n        /* \"#utility.yul\":4615:4617   */\n      0x20\n        /* \"#utility.yul\":4604:4613   */\n      dup3\n        /* \"#utility.yul\":4600:4618   */\n      add\n        /* \"#utility.yul\":4592:4618   */\n      swap1\n      pop\n        /* \"#utility.yul\":4664:4673   */\n      dup2\n        /* \"#utility.yul\":4658:4662   */\n      dup2\n        /* \"#utility.yul\":4654:4674   */\n      sub\n        /* \"#utility.yul\":4650:4651   */\n      0x00\n        /* \"#utility.yul\":4639:4648   */\n      dup4\n        /* \"#utility.yul\":4635:4652   */\n      add\n        /* \"#utility.yul\":4628:4675   */\n      mstore\n        /* \"#utility.yul\":4692:4770   */\n      tag_380\n        /* \"#utility.yul\":4765:4769   */\n      dup2\n        /* \"#utility.yul\":4756:4762   */\n      dup5\n        /* \"#utility.yul\":4692:4770   */\n      tag_271\n      jump\t// in\n    tag_380:\n        /* \"#utility.yul\":4684:4770   */\n      swap1\n      pop\n        /* \"#utility.yul\":4464:4777   */\n      swap3\n      swap2\n      pop\n      pop\n      jump\t// out\n        /* \"#utility.yul\":4783:5548   */\n    tag_35:\n        /* \"#utility.yul\":4869:4875   */\n      0x00\n        /* \"#utility.yul\":4877:4883   */\n      dup1\n        /* \"#utility.yul\":4885:4891   */\n      0x00\n        /* \"#utility.yul\":4893:4899   */\n      dup1\n        /* \"#utility.yul\":4942:4945   */\n      0x80\n        /* \"#utility.yul\":4930:4939   */\n      dup6\n        /* \"#utility.yul\":4921:4928   */\n      dup8\n        /* \"#utility.yul\":4917:4940   */\n      sub\n        /* \"#utility.yul\":4913:4946   */\n      slt\n        /* \"#utility.yul\":4910:5030   */\n      iszero\n      tag_382\n      jumpi\n        /* \"#utility.yul\":4949:5028   */\n      tag_383\n      tag_252\n      jump\t// in\n    tag_383:\n        /* \"#utility.yul\":4910:5030   */\n    tag_382:\n        /* \"#utility.yul\":5069:5070   */\n      0x00\n        /* \"#utility.yul\":5094:5147   */\n      tag_384\n        /* \"#utility.yul\":5139:5146   */\n      dup8\n        /* \"#utility.yul\":5130:5136   */\n      dup3\n        /* \"#utility.yul\":5119:5128   */\n      dup9\n        /* \"#utility.yul\":5115:5137   */\n      add\n        /* \"#utility.yul\":5094:5147   */\n      tag_257\n      jump\t// in\n    tag_384:\n        /* \"#utility.yul\":5084:5147   */\n      swap5\n      pop\n        /* \"#utility.yul\":5040:5157   */\n      pop\n        /* \"#utility.yul\":5196:5198   */\n      0x20\n        /* \"#utility.yul\":5222:5275   */\n      tag_385\n        /* \"#utility.yul\":5267:5274   */\n      dup8\n        /* \"#utility.yul\":5258:5264   */\n      dup3\n        /* \"#utility.yul\":5247:5256   */\n      dup9\n        /* \"#utility.yul\":5243:5265   */\n      add\n        /* \"#utility.yul\":5222:5275   */\n      tag_257\n      jump\t// in\n    tag_385:\n        /* \"#utility.yul\":5212:5275   */\n      swap4\n      pop\n        /* \"#utility.yul\":5167:5285   */\n      pop\n        /* \"#utility.yul\":5324:5326   */\n      0x40\n        /* \"#utility.yul\":5350:5403   */\n      tag_386\n        /* \"#utility.yul\":5395:5402   */\n      dup8\n        /* \"#utility.yul\":5386:5392   */\n      dup3\n        /* \"#utility.yul\":5375:5384   */\n      dup9\n        /* \"#utility.yul\":5371:5393   */\n      add\n        /* \"#utility.yul\":5350:5403   */\n      tag_260\n      jump\t// in\n    tag_386:\n        /* \"#utility.yul\":5340:5403   */\n      swap3\n      pop\n        /* \"#utility.yul\":5295:5413   */\n      pop\n        /* \"#utility.yul\":5452:5454   */\n      0x60\n        /* \"#utility.yul\":5478:5531   */\n      tag_387\n        /* \"#utility.yul\":5523:5530   */\n      dup8\n        /* \"#utility.yul\":5514:5520   */\n      dup3\n        /* \"#utility.yul\":5503:5512   */\n      dup9\n        /* \"#utility.yul\":5499:5521   */\n      add\n        /* \"#utility.yul\":5478:5531   */\n      tag_260\n      jump\t// in\n    tag_387:\n        /* \"#utility.yul\":5468:5531   */\n      swap2\n      pop\n        /* \"#utility.yul\":5423:5541   */\n      pop\n        /* \"#utility.yul\":4783:5548   */\n      swap3\n      swap6\n      swap2\n      swap5\n      pop\n      swap3\n      pop\n      jump\t// out\n        /* \"#utility.yul\":5554:5671   */\n    tag_272:\n        /* \"#utility.yul\":5663:5664   */\n      0x00\n        /* \"#utility.yul\":5660:5661   */\n      dup1\n        /* \"#utility.yul\":5653:5665   */\n      revert\n        /* \"#utility.yul\":5677:5857   */\n    tag_104:\n        /* \"#utility.yul\":5725:5802   */\n      0x4e487b7100000000000000000000000000000000000000000000000000000000\n        /* \"#utility.yul\":5722:5723   */\n      0x00\n        /* \"#utility.yul\":5715:5803   */\n      mstore\n        /* \"#utility.yul\":5822:5826   */\n      0x41\n        /* \"#utility.yul\":5819:5820   */\n      0x04\n        /* \"#utility.yul\":5812:5827   */\n      mstore\n        /* \"#utility.yul\":5846:5850   */\n      0x24\n        /* \"#utility.yul\":5843:5844   */\n      0x00\n        /* \"#utility.yul\":5836:5851   */\n      revert\n        /* \"#utility.yul\":5863:6144   */\n    tag_273:\n        /* \"#utility.yul\":5946:5973   */\n      tag_391\n        /* \"#utility.yul\":5968:5972   */\n      dup3\n        /* \"#utility.yul\":5946:5973   */\n      tag_270\n      jump\t// in\n    tag_391:\n        /* \"#utility.yul\":5938:5944   */\n      dup2\n        /* \"#utility.yul\":5934:5974   */\n      add\n        /* \"#utility.yul\":6076:6082   */\n      dup2\n        /* \"#utility.yul\":6064:6074   */\n      dup2\n        /* \"#utility.yul\":6061:6083   */\n      lt\n        /* \"#utility.yul\":6040:6058   */\n      0xffffffffffffffff\n        /* \"#utility.yul\":6028:6038   */\n      dup3\n        /* \"#utility.yul\":6025:6059   */\n      gt\n        /* \"#utility.yul\":6022:6084   */\n      or\n        /* \"#utility.yul\":6019:6107   */\n      iszero\n      tag_392\n      jumpi\n        /* \"#utility.yul\":6087:6105   */\n      tag_393\n      tag_104\n      jump\t// in\n    tag_393:\n        /* \"#utility.yul\":6019:6107   */\n    tag_392:\n        /* \"#utility.yul\":6127:6137   */\n      dup1\n        /* \"#utility.yul\":6123:6125   */\n      0x40\n        /* \"#utility.yul\":6116:6138   */\n      mstore\n        /* \"#utility.yul\":5906:6144   */\n      pop\n        /* \"#utility.yul\":5863:6144   */\n      pop\n      pop\n      jump\t// out\n        /* \"#utility.yul\":6150:6279   */\n    tag_274:\n        /* \"#utility.yul\":6184:6190   */\n      0x00\n        /* \"#utility.yul\":6211:6231   */\n      tag_395\n      tag_251\n      jump\t// in\n    tag_395:\n        /* \"#utility.yul\":6201:6231   */\n      swap1\n      pop\n        /* \"#utility.yul\":6240:6273   */\n      tag_396\n        /* \"#utility.yul\":6268:6272   */\n      dup3\n        /* \"#utility.yul\":6260:6266   */\n      dup3\n        /* \"#utility.yul\":6240:6273   */\n      tag_273\n      jump\t// in\n    tag_396:\n        /* \"#utility.yul\":6150:6279   */\n      swap2\n      swap1\n      pop\n      jump\t// out\n        /* \"#utility.yul\":6285:6596   */\n    tag_275:\n        /* \"#utility.yul\":6362:6366   */\n      0x00\n        /* \"#utility.yul\":6452:6470   */\n      0xffffffffffffffff\n        /* \"#utility.yul\":6444:6450   */\n      dup3\n        /* \"#utility.yul\":6441:6471   */\n      gt\n        /* \"#utility.yul\":6438:6494   */\n      iszero\n      tag_398\n      jumpi\n        /* \"#utility.yul\":6474:6492   */\n      tag_399\n      tag_104\n      jump\t// in\n    tag_399:\n        /* \"#utility.yul\":6438:6494   */\n    tag_398:\n        /* \"#utility.yul\":6524:6528   */\n      0x20\n        /* \"#utility.yul\":6516:6522   */\n      dup3\n        /* \"#utility.yul\":6512:6529   */\n      mul\n        /* \"#utility.yul\":6504:6529   */\n      swap1\n      pop\n        /* \"#utility.yul\":6584:6588   */\n      0x20\n        /* \"#utility.yul\":6578:6582   */\n      dup2\n        /* \"#utility.yul\":6574:6589   */\n      add\n        /* \"#utility.yul\":6566:6589   */\n      swap1\n      pop\n        /* \"#utility.yul\":6285:6596   */\n      swap2\n      swap1\n      pop\n      jump\t// out\n        /* \"#utility.yul\":6602:6719   */\n    tag_276:\n        /* \"#utility.yul\":6711:6712   */\n      0x00\n        /* \"#utility.yul\":6708:6709   */\n      dup1\n        /* \"#utility.yul\":6701:6713   */\n      revert\n        /* \"#utility.yul\":6742:7452   */\n    tag_277:\n        /* \"#utility.yul\":6838:6843   */\n      0x00\n        /* \"#utility.yul\":6863:6944   */\n      tag_402\n        /* \"#utility.yul\":6879:6943   */\n      tag_403\n        /* \"#utility.yul\":6936:6942   */\n      dup5\n        /* \"#utility.yul\":6879:6943   */\n      tag_275\n      jump\t// in\n    tag_403:\n        /* \"#utility.yul\":6863:6944   */\n      tag_274\n      jump\t// in\n    tag_402:\n        /* \"#utility.yul\":6854:6944   */\n      swap1\n      pop\n        /* \"#utility.yul\":6964:6969   */\n      dup1\n        /* \"#utility.yul\":6993:6999   */\n      dup4\n        /* \"#utility.yul\":6986:6991   */\n      dup3\n        /* \"#utility.yul\":6979:7000   */\n      mstore\n        /* \"#utility.yul\":7027:7031   */\n      0x20\n        /* \"#utility.yul\":7020:7025   */\n      dup3\n        /* \"#utility.yul\":7016:7032   */\n      add\n        /* \"#utility.yul\":7009:7032   */\n      swap1\n      pop\n        /* \"#utility.yul\":7080:7084   */\n      0x20\n        /* \"#utility.yul\":7072:7078   */\n      dup5\n        /* \"#utility.yul\":7068:7085   */\n      mul\n        /* \"#utility.yul\":7060:7066   */\n      dup4\n        /* \"#utility.yul\":7056:7086   */\n      add\n        /* \"#utility.yul\":7109:7112   */\n      dup6\n        /* \"#utility.yul\":7101:7107   */\n      dup2\n        /* \"#utility.yul\":7098:7113   */\n      gt\n        /* \"#utility.yul\":7095:7217   */\n      iszero\n      tag_404\n      jumpi\n        /* \"#utility.yul\":7128:7207   */\n      tag_405\n      tag_276\n      jump\t// in\n    tag_405:\n        /* \"#utility.yul\":7095:7217   */\n    tag_404:\n        /* \"#utility.yul\":7243:7249   */\n      dup4\n        /* \"#utility.yul\":7226:7446   */\n    tag_406:\n        /* \"#utility.yul\":7260:7266   */\n      dup2\n        /* \"#utility.yul\":7255:7258   */\n      dup2\n        /* \"#utility.yul\":7252:7267   */\n      lt\n        /* \"#utility.yul\":7226:7446   */\n      iszero\n      tag_408\n      jumpi\n        /* \"#utility.yul\":7335:7338   */\n      dup1\n        /* \"#utility.yul\":7364:7401   */\n      tag_409\n        /* \"#utility.yul\":7397:7400   */\n      dup9\n        /* \"#utility.yul\":7385:7395   */\n      dup3\n        /* \"#utility.yul\":7364:7401   */\n      tag_260\n      jump\t// in\n    tag_409:\n        /* \"#utility.yul\":7359:7362   */\n      dup5\n        /* \"#utility.yul\":7352:7402   */\n      mstore\n        /* \"#utility.yul\":7431:7435   */\n      0x20\n        /* \"#utility.yul\":7426:7429   */\n      dup5\n        /* \"#utility.yul\":7422:7436   */\n      add\n        /* \"#utility.yul\":7415:7436   */\n      swap4\n      pop\n        /* \"#utility.yul\":7302:7446   */\n      pop\n        /* \"#utility.yul\":7286:7290   */\n      0x20\n        /* \"#utility.yul\":7281:7284   */\n      dup2\n        /* \"#utility.yul\":7277:7291   */\n      add\n        /* \"#utility.yul\":7270:7291   */\n      swap1\n      pop\n        /* \"#utility.yul\":7226:7446   */\n      jump(tag_406)\n    tag_408:\n        /* \"#utility.yul\":7230:7251   */\n      pop\n        /* \"#utility.yul\":6844:7452   */\n      pop\n      pop\n        /* \"#utility.yul\":6742:7452   */\n      swap4\n      swap3\n      pop\n      pop\n      pop\n      jump\t// out\n        /* \"#utility.yul\":7475:7845   */\n    tag_278:\n        /* \"#utility.yul\":7546:7551   */\n      0x00\n        /* \"#utility.yul\":7595:7598   */\n      dup3\n        /* \"#utility.yul\":7588:7592   */\n      0x1f\n        /* \"#utility.yul\":7580:7586   */\n      dup4\n        /* \"#utility.yul\":7576:7593   */\n      add\n        /* \"#utility.yul\":7572:7599   */\n      slt\n        /* \"#utility.yul\":7562:7684   */\n      tag_411\n      jumpi\n        /* \"#utility.yul\":7603:7682   */\n      tag_412\n      tag_272\n      jump\t// in\n    tag_412:\n        /* \"#utility.yul\":7562:7684   */\n    tag_411:\n        /* \"#utility.yul\":7720:7726   */\n      dup2\n        /* \"#utility.yul\":7707:7727   */\n      calldataload\n        /* \"#utility.yul\":7745:7839   */\n      tag_413\n        /* \"#utility.yul\":7835:7838   */\n      dup5\n        /* \"#utility.yul\":7827:7833   */\n      dup3\n        /* \"#utility.yul\":7820:7824   */\n      0x20\n        /* \"#utility.yul\":7812:7818   */\n      dup7\n        /* \"#utility.yul\":7808:7825   */\n      add\n        /* \"#utility.yul\":7745:7839   */\n      tag_277\n      jump\t// in\n    tag_413:\n        /* \"#utility.yul\":7736:7839   */\n      swap2\n      pop\n        /* \"#utility.yul\":7552:7845   */\n      pop\n        /* \"#utility.yul\":7475:7845   */\n      swap3\n      swap2\n      pop\n      pop\n      jump\t// out\n        /* \"#utility.yul\":7851:7968   */\n    tag_279:\n        /* \"#utility.yul\":7960:7961   */\n      0x00\n        /* \"#utility.yul\":7957:7958   */\n      dup1\n        /* \"#utility.yul\":7950:7962   */\n      revert\n        /* \"#utility.yul\":7974:8281   */\n    tag_280:\n        /* \"#utility.yul\":8035:8039   */\n      0x00\n        /* \"#utility.yul\":8125:8143   */\n      0xffffffffffffffff\n        /* \"#utility.yul\":8117:8123   */\n      dup3\n        /* \"#utility.yul\":8114:8144   */\n      gt\n        /* \"#utility.yul\":8111:8167   */\n      iszero\n      tag_416\n      jumpi\n        /* \"#utility.yul\":8147:8165   */\n      tag_417\n      tag_104\n      jump\t// in\n    tag_417:\n        /* \"#utility.yul\":8111:8167   */\n    tag_416:\n        /* \"#utility.yul\":8185:8214   */\n      tag_418\n        /* \"#utility.yul\":8207:8213   */\n      dup3\n        /* \"#utility.yul\":8185:8214   */\n      tag_270\n      jump\t// in\n    tag_418:\n        /* \"#utility.yul\":8177:8214   */\n      swap1\n      pop\n        /* \"#utility.yul\":8269:8273   */\n      0x20\n        /* \"#utility.yul\":8263:8267   */\n      dup2\n        /* \"#utility.yul\":8259:8274   */\n      add\n        /* \"#utility.yul\":8251:8274   */\n      swap1\n      pop\n        /* \"#utility.yul\":7974:8281   */\n      swap2\n      swap1\n      pop\n      jump\t// out\n        /* \"#utility.yul\":8287:8435   */\n    tag_281:\n        /* \"#utility.yul\":8385:8391   */\n      dup3\n        /* \"#utility.yul\":8380:8383   */\n      dup2\n        /* \"#utility.yul\":8375:8378   */\n      dup4\n        /* \"#utility.yul\":8362:8392   */\n      calldatacopy\n        /* \"#utility.yul\":8426:8427   */\n      0x00\n        /* \"#utility.yul\":8417:8423   */\n      dup4\n        /* \"#utility.yul\":8412:8415   */\n      dup4\n        /* \"#utility.yul\":8408:8424   */\n      add\n        /* \"#utility.yul\":8401:8428   */\n      mstore\n        /* \"#utility.yul\":8287:8435   */\n      pop\n      pop\n      pop\n      jump\t// out\n        /* \"#utility.yul\":8441:8864   */\n    tag_282:\n        /* \"#utility.yul\":8518:8523   */\n      0x00\n        /* \"#utility.yul\":8543:8608   */\n      tag_421\n        /* \"#utility.yul\":8559:8607   */\n      tag_422\n        /* \"#utility.yul\":8600:8606   */\n      dup5\n        /* \"#utility.yul\":8559:8607   */\n      tag_280\n      jump\t// in\n    tag_422:\n        /* \"#utility.yul\":8543:8608   */\n      tag_274\n      jump\t// in\n    tag_421:\n        /* \"#utility.yul\":8534:8608   */\n      swap1\n      pop\n        /* \"#utility.yul\":8631:8637   */\n      dup3\n        /* \"#utility.yul\":8624:8629   */\n      dup2\n        /* \"#utility.yul\":8617:8638   */\n      mstore\n        /* \"#utility.yul\":8669:8673   */\n      0x20\n        /* \"#utility.yul\":8662:8667   */\n      dup2\n        /* \"#utility.yul\":8658:8674   */\n      add\n        /* \"#utility.yul\":8707:8710   */\n      dup5\n        /* \"#utility.yul\":8698:8704   */\n      dup5\n        /* \"#utility.yul\":8693:8696   */\n      dup5\n        /* \"#utility.yul\":8689:8705   */\n      add\n        /* \"#utility.yul\":8686:8711   */\n      gt\n        /* \"#utility.yul\":8683:8795   */\n      iszero\n      tag_423\n      jumpi\n        /* \"#utility.yul\":8714:8793   */\n      tag_424\n      tag_279\n      jump\t// in\n    tag_424:\n        /* \"#utility.yul\":8683:8795   */\n    tag_423:\n        /* \"#utility.yul\":8804:8858   */\n      tag_425\n        /* \"#utility.yul\":8851:8857   */\n      dup5\n        /* \"#utility.yul\":8846:8849   */\n      dup3\n        /* \"#utility.yul\":8841:8844   */\n      dup6\n        /* \"#utility.yul\":8804:8858   */\n      tag_281\n      jump\t// in\n    tag_425:\n        /* \"#utility.yul\":8524:8864   */\n      pop\n        /* \"#utility.yul\":8441:8864   */\n      swap4\n      swap3\n      pop\n      pop\n      pop\n      jump\t// out\n        /* \"#utility.yul\":8883:9221   */\n    tag_283:\n        /* \"#utility.yul\":8938:8943   */\n      0x00\n        /* \"#utility.yul\":8987:8990   */\n      dup3\n        /* \"#utility.yul\":8980:8984   */\n      0x1f\n        /* \"#utility.yul\":8972:8978   */\n      dup4\n        /* \"#utility.yul\":8968:8985   */\n      add\n        /* \"#utility.yul\":8964:8991   */\n      slt\n        /* \"#utility.yul\":8954:9076   */\n      tag_427\n      jumpi\n        /* \"#utility.yul\":8995:9074   */\n      tag_428\n      tag_272\n      jump\t// in\n    tag_428:\n        /* \"#utility.yul\":8954:9076   */\n    tag_427:\n        /* \"#utility.yul\":9112:9118   */\n      dup2\n        /* \"#utility.yul\":9099:9119   */\n      calldataload\n        /* \"#utility.yul\":9137:9215   */\n      tag_429\n        /* \"#utility.yul\":9211:9214   */\n      dup5\n        /* \"#utility.yul\":9203:9209   */\n      dup3\n        /* \"#utility.yul\":9196:9200   */\n      0x20\n        /* \"#utility.yul\":9188:9194   */\n      dup7\n        /* \"#utility.yul\":9184:9201   */\n      add\n        /* \"#utility.yul\":9137:9215   */\n      tag_282\n      jump\t// in\n    tag_429:\n        /* \"#utility.yul\":9128:9215   */\n      swap2\n      pop\n        /* \"#utility.yul\":8944:9221   */\n      pop\n        /* \"#utility.yul\":8883:9221   */\n      swap3\n      swap2\n      pop\n      pop\n      jump\t// out\n        /* \"#utility.yul\":9227:10736   */\n    tag_42:\n        /* \"#utility.yul\":9381:9387   */\n      0x00\n        /* \"#utility.yul\":9389:9395   */\n      dup1\n        /* \"#utility.yul\":9397:9403   */\n      0x00\n        /* \"#utility.yul\":9405:9411   */\n      dup1\n        /* \"#utility.yul\":9413:9419   */\n      0x00\n        /* \"#utility.yul\":9462:9465   */\n      0xa0\n        /* \"#utility.yul\":9450:9459   */\n      dup7\n        /* \"#utility.yul\":9441:9448   */\n      dup9\n        /* \"#utility.yul\":9437:9460   */\n      sub\n        /* \"#utility.yul\":9433:9466   */\n      slt\n        /* \"#utility.yul\":9430:9550   */\n      iszero\n      tag_431\n      jumpi\n        /* \"#utility.yul\":9469:9548   */\n      tag_432\n      tag_252\n      jump\t// in\n    tag_432:\n        /* \"#utility.yul\":9430:9550   */\n    tag_431:\n        /* \"#utility.yul\":9589:9590   */\n      0x00\n        /* \"#utility.yul\":9614:9667   */\n      tag_433\n        /* \"#utility.yul\":9659:9666   */\n      dup9\n        /* \"#utility.yul\":9650:9656   */\n      dup3\n        /* \"#utility.yul\":9639:9648   */\n      dup10\n        /* \"#utility.yul\":9635:9657   */\n      add\n        /* \"#utility.yul\":9614:9667   */\n      tag_257\n      jump\t// in\n    tag_433:\n        /* \"#utility.yul\":9604:9667   */\n      swap6\n      pop\n        /* \"#utility.yul\":9560:9677   */\n      pop\n        /* \"#utility.yul\":9716:9718   */\n      0x20\n        /* \"#utility.yul\":9742:9795   */\n      tag_434\n        /* \"#utility.yul\":9787:9794   */\n      dup9\n        /* \"#utility.yul\":9778:9784   */\n      dup3\n        /* \"#utility.yul\":9767:9776   */\n      dup10\n        /* \"#utility.yul\":9763:9785   */\n      add\n        /* \"#utility.yul\":9742:9795   */\n      tag_257\n      jump\t// in\n    tag_434:\n        /* \"#utility.yul\":9732:9795   */\n      swap5\n      pop\n        /* \"#utility.yul\":9687:9805   */\n      pop\n        /* \"#utility.yul\":9872:9874   */\n      0x40\n        /* \"#utility.yul\":9861:9870   */\n      dup7\n        /* \"#utility.yul\":9857:9875   */\n      add\n        /* \"#utility.yul\":9844:9876   */\n      calldataload\n        /* \"#utility.yul\":9903:9921   */\n      0xffffffffffffffff\n        /* \"#utility.yul\":9895:9901   */\n      dup2\n        /* \"#utility.yul\":9892:9922   */\n      gt\n        /* \"#utility.yul\":9889:10006   */\n      iszero\n      tag_435\n      jumpi\n        /* \"#utility.yul\":9925:10004   */\n      tag_436\n      tag_253\n      jump\t// in\n    tag_436:\n        /* \"#utility.yul\":9889:10006   */\n    tag_435:\n        /* \"#utility.yul\":10030:10108   */\n      tag_437\n        /* \"#utility.yul\":10100:10107   */\n      dup9\n        /* \"#utility.yul\":10091:10097   */\n      dup3\n        /* \"#utility.yul\":10080:10089   */\n      dup10\n        /* \"#utility.yul\":10076:10098   */\n      add\n        /* \"#utility.yul\":10030:10108   */\n      tag_278\n      jump\t// in\n    tag_437:\n        /* \"#utility.yul\":10020:10108   */\n      swap4\n      pop\n        /* \"#utility.yul\":9815:10118   */\n      pop\n        /* \"#utility.yul\":10185:10187   */\n      0x60\n        /* \"#utility.yul\":10174:10183   */\n      dup7\n        /* \"#utility.yul\":10170:10188   */\n      add\n        /* \"#utility.yul\":10157:10189   */\n      calldataload\n        /* \"#utility.yul\":10216:10234   */\n      0xffffffffffffffff\n        /* \"#utility.yul\":10208:10214   */\n      dup2\n        /* \"#utility.yul\":10205:10235   */\n      gt\n        /* \"#utility.yul\":10202:10319   */\n      iszero\n      tag_438\n      jumpi\n        /* \"#utility.yul\":10238:10317   */\n      tag_439\n      tag_253\n      jump\t// in\n    tag_439:\n        /* \"#utility.yul\":10202:10319   */\n    tag_438:\n        /* \"#utility.yul\":10343:10421   */\n      tag_440\n        /* \"#utility.yul\":10413:10420   */\n      dup9\n        /* \"#utility.yul\":10404:10410   */\n      dup3\n        /* \"#utility.yul\":10393:10402   */\n      dup10\n        /* \"#utility.yul\":10389:10411   */\n      add\n        /* \"#utility.yul\":10343:10421   */\n      tag_278\n      jump\t// in\n    tag_440:\n        /* \"#utility.yul\":10333:10421   */\n      swap3\n      pop\n        /* \"#utility.yul\":10128:10431   */\n      pop\n        /* \"#utility.yul\":10498:10501   */\n      0x80\n        /* \"#utility.yul\":10487:10496   */\n      dup7\n        /* \"#utility.yul\":10483:10502   */\n      add\n        /* \"#utility.yul\":10470:10503   */\n      calldataload\n        /* \"#utility.yul\":10530:10548   */\n      0xffffffffffffffff\n        /* \"#utility.yul\":10522:10528   */\n      dup2\n        /* \"#utility.yul\":10519:10549   */\n      gt\n        /* \"#utility.yul\":10516:10633   */\n      iszero\n      tag_441\n      jumpi\n        /* \"#utility.yul\":10552:10631   */\n      tag_442\n      tag_253\n      jump\t// in\n    tag_442:\n        /* \"#utility.yul\":10516:10633   */\n    tag_441:\n        /* \"#utility.yul\":10657:10719   */\n      tag_443\n        /* \"#utility.yul\":10711:10718   */\n      dup9\n        /* \"#utility.yul\":10702:10708   */\n      dup3\n        /* \"#utility.yul\":10691:10700   */\n      dup10\n        /* \"#utility.yul\":10687:10709   */\n      add\n        /* \"#utility.yul\":10657:10719   */\n      tag_283\n      jump\t// in\n    tag_443:\n        /* \"#utility.yul\":10647:10719   */\n      swap2\n      pop\n        /* \"#utility.yul\":10441:10729   */\n      pop\n        /* \"#utility.yul\":9227:10736   */\n      swap3\n      swap6\n      pop\n      swap3\n      swap6\n      swap1\n      swap4\n      pop\n      jump\t// out\n        /* \"#utility.yul\":10742:11053   */\n    tag_284:\n        /* \"#utility.yul\":10819:10823   */\n      0x00\n        /* \"#utility.yul\":10909:10927   */\n      0xffffffffffffffff\n        /* \"#utility.yul\":10901:10907   */\n      dup3\n        /* \"#utility.yul\":10898:10928   */\n      gt\n        /* \"#utility.yul\":10895:10951   */\n      iszero\n      tag_445\n      jumpi\n        /* \"#utility.yul\":10931:10949   */\n      tag_446\n      tag_104\n      jump\t// in\n    tag_446:\n        /* \"#utility.yul\":10895:10951   */\n    tag_445:\n        /* \"#utility.yul\":10981:10985   */\n      0x20\n        /* \"#utility.yul\":10973:10979   */\n      dup3\n        /* \"#utility.yul\":10969:10986   */\n      mul\n        /* \"#utility.yul\":10961:10986   */\n      swap1\n      pop\n        /* \"#utility.yul\":11041:11045   */\n      0x20\n        /* \"#utility.yul\":11035:11039   */\n      dup2\n        /* \"#utility.yul\":11031:11046   */\n      add\n        /* \"#utility.yul\":11023:11046   */\n      swap1\n      pop\n        /* \"#utility.yul\":10742:11053   */\n      swap2\n      swap1\n      pop\n      jump\t// out\n        /* \"#utility.yul\":11076:11786   */\n    tag_285:\n        /* \"#utility.yul\":11172:11177   */\n      0x00\n        /* \"#utility.yul\":11197:11278   */\n      tag_448\n        /* \"#utility.yul\":11213:11277   */\n      tag_449\n        /* \"#utility.yul\":11270:11276   */\n      dup5\n        /* \"#utility.yul\":11213:11277   */\n      tag_284\n      jump\t// in\n    tag_449:\n        /* \"#utility.yul\":11197:11278   */\n      tag_274\n      jump\t// in\n    tag_448:\n        /* \"#utility.yul\":11188:11278   */\n      swap1\n      pop\n        /* \"#utility.yul\":11298:11303   */\n      dup1\n        /* \"#utility.yul\":11327:11333   */\n      dup4\n        /* \"#utility.yul\":11320:11325   */\n      dup3\n        /* \"#utility.yul\":11313:11334   */\n      mstore\n        /* \"#utility.yul\":11361:11365   */\n      0x20\n        /* \"#utility.yul\":11354:11359   */\n      dup3\n        /* \"#utility.yul\":11350:11366   */\n      add\n        /* \"#utility.yul\":11343:11366   */\n      swap1\n      pop\n        /* \"#utility.yul\":11414:11418   */\n      0x20\n        /* \"#utility.yul\":11406:11412   */\n      dup5\n        /* \"#utility.yul\":11402:11419   */\n      mul\n        /* \"#utility.yul\":11394:11400   */\n      dup4\n        /* \"#utility.yul\":11390:11420   */\n      add\n        /* \"#utility.yul\":11443:11446   */\n      dup6\n        /* \"#utility.yul\":11435:11441   */\n      dup2\n        /* \"#utility.yul\":11432:11447   */\n      gt\n        /* \"#utility.yul\":11429:11551   */\n      iszero\n      tag_450\n      jumpi\n        /* \"#utility.yul\":11462:11541   */\n      tag_451\n      tag_276\n      jump\t// in\n    tag_451:\n        /* \"#utility.yul\":11429:11551   */\n    tag_450:\n        /* \"#utility.yul\":11577:11583   */\n      dup4\n        /* \"#utility.yul\":11560:11780   */\n    tag_452:\n        /* \"#utility.yul\":11594:11600   */\n      dup2\n        /* \"#utility.yul\":11589:11592   */\n      dup2\n        /* \"#utility.yul\":11586:11601   */\n      lt\n        /* \"#utility.yul\":11560:11780   */\n      iszero\n      tag_454\n      jumpi\n        /* \"#utility.yul\":11669:11672   */\n      dup1\n        /* \"#utility.yul\":11698:11735   */\n      tag_455\n        /* \"#utility.yul\":11731:11734   */\n      dup9\n        /* \"#utility.yul\":11719:11729   */\n      dup3\n        /* \"#utility.yul\":11698:11735   */\n      tag_257\n      jump\t// in\n    tag_455:\n        /* \"#utility.yul\":11693:11696   */\n      dup5\n        /* \"#utility.yul\":11686:11736   */\n      mstore\n        /* \"#utility.yul\":11765:11769   */\n      0x20\n        /* \"#utility.yul\":11760:11763   */\n      dup5\n        /* \"#utility.yul\":11756:11770   */\n      add\n        /* \"#utility.yul\":11749:11770   */\n      swap4\n      pop\n        /* \"#utility.yul\":11636:11780   */\n      pop\n        /* \"#utility.yul\":11620:11624   */\n      0x20\n        /* \"#utility.yul\":11615:11618   */\n      dup2\n        /* \"#utility.yul\":11611:11625   */\n      add\n        /* \"#utility.yul\":11604:11625   */\n      swap1\n      pop\n        /* \"#utility.yul\":11560:11780   */\n      jump(tag_452)\n    tag_454:\n        /* \"#utility.yul\":11564:11585   */\n      pop\n        /* \"#utility.yul\":11178:11786   */\n      pop\n      pop\n        /* \"#utility.yul\":11076:11786   */\n      swap4\n      swap3\n      pop\n      pop\n      pop\n      jump\t// out\n        /* \"#utility.yul\":11809:12179   */\n    tag_286:\n        /* \"#utility.yul\":11880:11885   */\n      0x00\n        /* \"#utility.yul\":11929:11932   */\n      dup3\n        /* \"#utility.yul\":11922:11926   */\n      0x1f\n        /* \"#utility.yul\":11914:11920   */\n      dup4\n        /* \"#utility.yul\":11910:11927   */\n      add\n        /* \"#utility.yul\":11906:11933   */\n      slt\n        /* \"#utility.yul\":11896:12018   */\n      tag_457\n      jumpi\n        /* \"#utility.yul\":11937:12016   */\n      tag_458\n      tag_272\n      jump\t// in\n    tag_458:\n        /* \"#utility.yul\":11896:12018   */\n    tag_457:\n        /* \"#utility.yul\":12054:12060   */\n      dup2\n        /* \"#utility.yul\":12041:12061   */\n      calldataload\n        /* \"#utility.yul\":12079:12173   */\n      tag_459\n        /* \"#utility.yul\":12169:12172   */\n      dup5\n        /* \"#utility.yul\":12161:12167   */\n      dup3\n        /* \"#utility.yul\":12154:12158   */\n      0x20\n        /* \"#utility.yul\":12146:12152   */\n      dup7\n        /* \"#utility.yul\":12142:12159   */\n      add\n        /* \"#utility.yul\":12079:12173   */\n      tag_285\n      jump\t// in\n    tag_459:\n        /* \"#utility.yul\":12070:12173   */\n      swap2\n      pop\n        /* \"#utility.yul\":11886:12179   */\n      pop\n        /* \"#utility.yul\":11809:12179   */\n      swap3\n      swap2\n      pop\n      pop\n      jump\t// out\n        /* \"#utility.yul\":12185:13079   */\n    tag_46:\n        /* \"#utility.yul\":12303:12309   */\n      0x00\n        /* \"#utility.yul\":12311:12317   */\n      dup1\n        /* \"#utility.yul\":12360:12362   */\n      0x40\n        /* \"#utility.yul\":12348:12357   */\n      dup4\n        /* \"#utility.yul\":12339:12346   */\n      dup6\n        /* \"#utility.yul\":12335:12358   */\n      sub\n        /* \"#utility.yul\":12331:12363   */\n      slt\n        /* \"#utility.yul\":12328:12447   */\n      iszero\n      tag_461\n      jumpi\n        /* \"#utility.yul\":12366:12445   */\n      tag_462\n      tag_252\n      jump\t// in\n    tag_462:\n        /* \"#utility.yul\":12328:12447   */\n    tag_461:\n        /* \"#utility.yul\":12514:12515   */\n      0x00\n        /* \"#utility.yul\":12503:12512   */\n      dup4\n        /* \"#utility.yul\":12499:12516   */\n      add\n        /* \"#utility.yul\":12486:12517   */\n      calldataload\n        /* \"#utility.yul\":12544:12562   */\n      0xffffffffffffffff\n        /* \"#utility.yul\":12536:12542   */\n      dup2\n        /* \"#utility.yul\":12533:12563   */\n      gt\n        /* \"#utility.yul\":12530:12647   */\n      iszero\n      tag_463\n      jumpi\n        /* \"#utility.yul\":12566:12645   */\n      tag_464\n      tag_253\n      jump\t// in\n    tag_464:\n        /* \"#utility.yul\":12530:12647   */\n    tag_463:\n        /* \"#utility.yul\":12671:12749   */\n      tag_465\n        /* \"#utility.yul\":12741:12748   */\n      dup6\n        /* \"#utility.yul\":12732:12738   */\n      dup3\n        /* \"#utility.yul\":12721:12730   */\n      dup7\n        /* \"#utility.yul\":12717:12739   */\n      add\n        /* \"#utility.yul\":12671:12749   */\n      tag_286\n      jump\t// in\n    tag_465:\n        /* \"#utility.yul\":12661:12749   */\n      swap3\n      pop\n        /* \"#utility.yul\":12457:12759   */\n      pop\n        /* \"#utility.yul\":12826:12828   */\n      0x20\n        /* \"#utility.yul\":12815:12824   */\n      dup4\n        /* \"#utility.yul\":12811:12829   */\n      add\n        /* \"#utility.yul\":12798:12830   */\n      calldataload\n        /* \"#utility.yul\":12857:12875   */\n      0xffffffffffffffff\n        /* \"#utility.yul\":12849:12855   */\n      dup2\n        /* \"#utility.yul\":12846:12876   */\n      gt\n        /* \"#utility.yul\":12843:12960   */\n      iszero\n      tag_466\n      jumpi\n        /* \"#utility.yul\":12879:12958   */\n      tag_467\n      tag_253\n      jump\t// in\n    tag_467:\n        /* \"#utility.yul\":12843:12960   */\n    tag_466:\n        /* \"#utility.yul\":12984:13062   */\n      tag_468\n        /* \"#utility.yul\":13054:13061   */\n      dup6\n        /* \"#utility.yul\":13045:13051   */\n      dup3\n        /* \"#utility.yul\":13034:13043   */\n      dup7\n        /* \"#utility.yul\":13030:13052   */\n      add\n        /* \"#utility.yul\":12984:13062   */\n      tag_278\n      jump\t// in\n    tag_468:\n        /* \"#utility.yul\":12974:13062   */\n      swap2\n      pop\n        /* \"#utility.yul\":12769:13072   */\n      pop\n        /* \"#utility.yul\":12185:13079   */\n      swap3\n      pop\n      swap3\n      swap1\n      pop\n      jump\t// out\n        /* \"#utility.yul\":13085:13199   */\n    tag_287:\n        /* \"#utility.yul\":13152:13158   */\n      0x00\n        /* \"#utility.yul\":13186:13191   */\n      dup2\n        /* \"#utility.yul\":13180:13192   */\n      mload\n        /* \"#utility.yul\":13170:13192   */\n      swap1\n      pop\n        /* \"#utility.yul\":13085:13199   */\n      swap2\n      swap1\n      pop\n      jump\t// out\n        /* \"#utility.yul\":13205:13389   */\n    tag_288:\n        /* \"#utility.yul\":13304:13315   */\n      0x00\n        /* \"#utility.yul\":13338:13344   */\n      dup3\n        /* \"#utility.yul\":13333:13336   */\n      dup3\n        /* \"#utility.yul\":13326:13345   */\n      mstore\n        /* \"#utility.yul\":13378:13382   */\n      0x20\n        /* \"#utility.yul\":13373:13376   */\n      dup3\n        /* \"#utility.yul\":13369:13383   */\n      add\n        /* \"#utility.yul\":13354:13383   */\n      swap1\n      pop\n        /* \"#utility.yul\":13205:13389   */\n      swap3\n      swap2\n      pop\n      pop\n      jump\t// out\n        /* \"#utility.yul\":13395:13527   */\n    tag_289:\n        /* \"#utility.yul\":13462:13466   */\n      0x00\n        /* \"#utility.yul\":13485:13488   */\n      dup2\n        /* \"#utility.yul\":13477:13488   */\n      swap1\n      pop\n        /* \"#utility.yul\":13515:13519   */\n      0x20\n        /* \"#utility.yul\":13510:13513   */\n      dup3\n        /* \"#utility.yul\":13506:13520   */\n      add\n        /* \"#utility.yul\":13498:13520   */\n      swap1\n      pop\n        /* \"#utility.yul\":13395:13527   */\n      swap2\n      swap1\n      pop\n      jump\t// out\n        /* \"#utility.yul\":13533:13641   */\n    tag_290:\n        /* \"#utility.yul\":13610:13634   */\n      tag_473\n        /* \"#utility.yul\":13628:13633   */\n      dup2\n        /* \"#utility.yul\":13610:13634   */\n      tag_258\n      jump\t// in\n    tag_473:\n        /* \"#utility.yul\":13605:13608   */\n      dup3\n        /* \"#utility.yul\":13598:13635   */\n      mstore\n        /* \"#utility.yul\":13533:13641   */\n      pop\n      pop\n      jump\t// out\n        /* \"#utility.yul\":13647:13826   */\n    tag_291:\n        /* \"#utility.yul\":13716:13726   */\n      0x00\n        /* \"#utility.yul\":13737:13783   */\n      tag_475\n        /* \"#utility.yul\":13779:13782   */\n      dup4\n        /* \"#utility.yul\":13771:13777   */\n      dup4\n        /* \"#utility.yul\":13737:13783   */\n      tag_290\n      jump\t// in\n    tag_475:\n        /* \"#utility.yul\":13815:13819   */\n      0x20\n        /* \"#utility.yul\":13810:13813   */\n      dup4\n        /* \"#utility.yul\":13806:13820   */\n      add\n        /* \"#utility.yul\":13792:13820   */\n      swap1\n      pop\n        /* \"#utility.yul\":13647:13826   */\n      swap3\n      swap2\n      pop\n      pop\n      jump\t// out\n        /* \"#utility.yul\":13832:13945   */\n    tag_292:\n        /* \"#utility.yul\":13902:13906   */\n      0x00\n        /* \"#utility.yul\":13934:13938   */\n      0x20\n        /* \"#utility.yul\":13929:13932   */\n      dup3\n        /* \"#utility.yul\":13925:13939   */\n      add\n        /* \"#utility.yul\":13917:13939   */\n      swap1\n      pop\n        /* \"#utility.yul\":13832:13945   */\n      swap2\n      swap1\n      pop\n      jump\t// out\n        /* \"#utility.yul\":13981:14713   */\n    tag_293:\n        /* \"#utility.yul\":14100:14103   */\n      0x00\n        /* \"#utility.yul\":14129:14183   */\n      tag_478\n        /* \"#utility.yul\":14177:14182   */\n      dup3\n        /* \"#utility.yul\":14129:14183   */\n      tag_287\n      jump\t// in\n    tag_478:\n        /* \"#utility.yul\":14199:14285   */\n      tag_479\n        /* \"#utility.yul\":14278:14284   */\n      dup2\n        /* \"#utility.yul\":14273:14276   */\n      dup6\n        /* \"#utility.yul\":14199:14285   */\n      tag_288\n      jump\t// in\n    tag_479:\n        /* \"#utility.yul\":14192:14285   */\n      swap4\n      pop\n        /* \"#utility.yul\":14309:14365   */\n      tag_480\n        /* \"#utility.yul\":14359:14364   */\n      dup4\n        /* \"#utility.yul\":14309:14365   */\n      tag_289\n      jump\t// in\n    tag_480:\n        /* \"#utility.yul\":14388:14395   */\n      dup1\n        /* \"#utility.yul\":14419:14420   */\n      0x00\n        /* \"#utility.yul\":14404:14688   */\n    tag_481:\n        /* \"#utility.yul\":14429:14435   */\n      dup4\n        /* \"#utility.yul\":14426:14427   */\n      dup2\n        /* \"#utility.yul\":14423:14436   */\n      lt\n        /* \"#utility.yul\":14404:14688   */\n      iszero\n      tag_483\n      jumpi\n        /* \"#utility.yul\":14505:14511   */\n      dup2\n        /* \"#utility.yul\":14499:14512   */\n      mload\n        /* \"#utility.yul\":14532:14595   */\n      tag_484\n        /* \"#utility.yul\":14591:14594   */\n      dup9\n        /* \"#utility.yul\":14576:14589   */\n      dup3\n        /* \"#utility.yul\":14532:14595   */\n      tag_291\n      jump\t// in\n    tag_484:\n        /* \"#utility.yul\":14525:14595   */\n      swap8\n      pop\n        /* \"#utility.yul\":14618:14678   */\n      tag_485\n        /* \"#utility.yul\":14671:14677   */\n      dup4\n        /* \"#utility.yul\":14618:14678   */\n      tag_292\n      jump\t// in\n    tag_485:\n        /* \"#utility.yul\":14608:14678   */\n      swap3\n      pop\n        /* \"#utility.yul\":14464:14688   */\n      pop\n        /* \"#utility.yul\":14451:14452   */\n      0x01\n        /* \"#utility.yul\":14448:14449   */\n      dup2\n        /* \"#utility.yul\":14444:14453   */\n      add\n        /* \"#utility.yul\":14439:14453   */\n      swap1\n      pop\n        /* \"#utility.yul\":14404:14688   */\n      jump(tag_481)\n    tag_483:\n        /* \"#utility.yul\":14408:14422   */\n      pop\n        /* \"#utility.yul\":14704:14707   */\n      dup6\n        /* \"#utility.yul\":14697:14707   */\n      swap4\n      pop\n        /* \"#utility.yul\":14105:14713   */\n      pop\n      pop\n      pop\n        /* \"#utility.yul\":13981:14713   */\n      swap3\n      swap2\n      pop\n      pop\n      jump\t// out\n        /* \"#utility.yul\":14719:15092   */\n    tag_49:\n        /* \"#utility.yul\":14862:14866   */\n      0x00\n        /* \"#utility.yul\":14900:14902   */\n      0x20\n        /* \"#utility.yul\":14889:14898   */\n      dup3\n        /* \"#utility.yul\":14885:14903   */\n      add\n        /* \"#utility.yul\":14877:14903   */\n      swap1\n      pop\n        /* \"#utility.yul\":14949:14958   */\n      dup2\n        /* \"#utility.yul\":14943:14947   */\n      dup2\n        /* \"#utility.yul\":14939:14959   */\n      sub\n        /* \"#utility.yul\":14935:14936   */\n      0x00\n        /* \"#utility.yul\":14924:14933   */\n      dup4\n        /* \"#utility.yul\":14920:14937   */\n      add\n        /* \"#utility.yul\":14913:14960   */\n      mstore\n        /* \"#utility.yul\":14977:15085   */\n      tag_487\n        /* \"#utility.yul\":15080:15084   */\n      dup2\n        /* \"#utility.yul\":15071:15077   */\n      dup5\n        /* \"#utility.yul\":14977:15085   */\n      tag_293\n      jump\t// in\n    tag_487:\n        /* \"#utility.yul\":14969:15085   */\n      swap1\n      pop\n        /* \"#utility.yul\":14719:15092   */\n      swap3\n      swap2\n      pop\n      pop\n      jump\t// out\n        /* \"#utility.yul\":15098:15406   */\n    tag_294:\n        /* \"#utility.yul\":15160:15164   */\n      0x00\n        /* \"#utility.yul\":15250:15268   */\n      0xffffffffffffffff\n        /* \"#utility.yul\":15242:15248   */\n      dup3\n        /* \"#utility.yul\":15239:15269   */\n      gt\n        /* \"#utility.yul\":15236:15292   */\n      iszero\n      tag_489\n      jumpi\n        /* \"#utility.yul\":15272:15290   */\n      tag_490\n      tag_104\n      jump\t// in\n    tag_490:\n        /* \"#utility.yul\":15236:15292   */\n    tag_489:\n        /* \"#utility.yul\":15310:15339   */\n      tag_491\n        /* \"#utility.yul\":15332:15338   */\n      dup3\n        /* \"#utility.yul\":15310:15339   */\n      tag_270\n      jump\t// in\n    tag_491:\n        /* \"#utility.yul\":15302:15339   */\n      swap1\n      pop\n        /* \"#utility.yul\":15394:15398   */\n      0x20\n        /* \"#utility.yul\":15388:15392   */\n      dup2\n        /* \"#utility.yul\":15384:15399   */\n      add\n        /* \"#utility.yul\":15376:15399   */\n      swap1\n      pop\n        /* \"#utility.yul\":15098:15406   */\n      swap2\n      swap1\n      pop\n      jump\t// out\n        /* \"#utility.yul\":15412:15837   */\n    tag_295:\n        /* \"#utility.yul\":15490:15495   */\n      0x00\n        /* \"#utility.yul\":15515:15581   */\n      tag_493\n        /* \"#utility.yul\":15531:15580   */\n      tag_494\n        /* \"#utility.yul\":15573:15579   */\n      dup5\n        /* \"#utility.yul\":15531:15580   */\n      tag_294\n      jump\t// in\n    tag_494:\n        /* \"#utility.yul\":15515:15581   */\n      tag_274\n      jump\t// in\n    tag_493:\n        /* \"#utility.yul\":15506:15581   */\n      swap1\n      pop\n        /* \"#utility.yul\":15604:15610   */\n      dup3\n        /* \"#utility.yul\":15597:15602   */\n      dup2\n        /* \"#utility.yul\":15590:15611   */\n      mstore\n        /* \"#utility.yul\":15642:15646   */\n      0x20\n        /* \"#utility.yul\":15635:15640   */\n      dup2\n        /* \"#utility.yul\":15631:15647   */\n      add\n        /* \"#utility.yul\":15680:15683   */\n      dup5\n        /* \"#utility.yul\":15671:15677   */\n      dup5\n        /* \"#utility.yul\":15666:15669   */\n      dup5\n        /* \"#utility.yul\":15662:15678   */\n      add\n        /* \"#utility.yul\":15659:15684   */\n      gt\n        /* \"#utility.yul\":15656:15768   */\n      iszero\n      tag_495\n      jumpi\n        /* \"#utility.yul\":15687:15766   */\n      tag_496\n      tag_279\n      jump\t// in\n    tag_496:\n        /* \"#utility.yul\":15656:15768   */\n    tag_495:\n        /* \"#utility.yul\":15777:15831   */\n      tag_497\n        /* \"#utility.yul\":15824:15830   */\n      dup5\n        /* \"#utility.yul\":15819:15822   */\n      dup3\n        /* \"#utility.yul\":15814:15817   */\n      dup6\n        /* \"#utility.yul\":15777:15831   */\n      tag_281\n      jump\t// in\n    tag_497:\n        /* \"#utility.yul\":15496:15837   */\n      pop\n        /* \"#utility.yul\":15412:15837   */\n      swap4\n      swap3\n      pop\n      pop\n      pop\n      jump\t// out\n        /* \"#utility.yul\":15857:16197   */\n    tag_296:\n        /* \"#utility.yul\":15913:15918   */\n      0x00\n        /* \"#utility.yul\":15962:15965   */\n      dup3\n        /* \"#utility.yul\":15955:15959   */\n      0x1f\n        /* \"#utility.yul\":15947:15953   */\n      dup4\n        /* \"#utility.yul\":15943:15960   */\n      add\n        /* \"#utility.yul\":15939:15966   */\n      slt\n        /* \"#utility.yul\":15929:16051   */\n      tag_499\n      jumpi\n        /* \"#utility.yul\":15970:16049   */\n      tag_500\n      tag_272\n      jump\t// in\n    tag_500:\n        /* \"#utility.yul\":15929:16051   */\n    tag_499:\n        /* \"#utility.yul\":16087:16093   */\n      dup2\n        /* \"#utility.yul\":16074:16094   */\n      calldataload\n        /* \"#utility.yul\":16112:16191   */\n      tag_501\n        /* \"#utility.yul\":16187:16190   */\n      dup5\n        /* \"#utility.yul\":16179:16185   */\n      dup3\n        /* \"#utility.yul\":16172:16176   */\n      0x20\n        /* \"#utility.yul\":16164:16170   */\n      dup7\n        /* \"#utility.yul\":16160:16177   */\n      add\n        /* \"#utility.yul\":16112:16191   */\n      tag_295\n      jump\t// in\n    tag_501:\n        /* \"#utility.yul\":16103:16191   */\n      swap2\n      pop\n        /* \"#utility.yul\":15919:16197   */\n      pop\n        /* \"#utility.yul\":15857:16197   */\n      swap3\n      swap2\n      pop\n      pop\n      jump\t// out\n        /* \"#utility.yul\":16203:16857   */\n    tag_52:\n        /* \"#utility.yul\":16281:16287   */\n      0x00\n        /* \"#utility.yul\":16289:16295   */\n      dup1\n        /* \"#utility.yul\":16338:16340   */\n      0x40\n        /* \"#utility.yul\":16326:16335   */\n      dup4\n        /* \"#utility.yul\":16317:16324   */\n      dup6\n        /* \"#utility.yul\":16313:16336   */\n      sub\n        /* \"#utility.yul\":16309:16341   */\n      slt\n        /* \"#utility.yul\":16306:16425   */\n      iszero\n      tag_503\n      jumpi\n        /* \"#utility.yul\":16344:16423   */\n      tag_504\n      tag_252\n      jump\t// in\n    tag_504:\n        /* \"#utility.yul\":16306:16425   */\n    tag_503:\n        /* \"#utility.yul\":16464:16465   */\n      0x00\n        /* \"#utility.yul\":16489:16542   */\n      tag_505\n        /* \"#utility.yul\":16534:16541   */\n      dup6\n        /* \"#utility.yul\":16525:16531   */\n      dup3\n        /* \"#utility.yul\":16514:16523   */\n      dup7\n        /* \"#utility.yul\":16510:16532   */\n      add\n        /* \"#utility.yul\":16489:16542   */\n      tag_260\n      jump\t// in\n    tag_505:\n        /* \"#utility.yul\":16479:16542   */\n      swap3\n      pop\n        /* \"#utility.yul\":16435:16552   */\n      pop\n        /* \"#utility.yul\":16619:16621   */\n      0x20\n        /* \"#utility.yul\":16608:16617   */\n      dup4\n        /* \"#utility.yul\":16604:16622   */\n      add\n        /* \"#utility.yul\":16591:16623   */\n      calldataload\n        /* \"#utility.yul\":16650:16668   */\n      0xffffffffffffffff\n        /* \"#utility.yul\":16642:16648   */\n      dup2\n        /* \"#utility.yul\":16639:16669   */\n      gt\n        /* \"#utility.yul\":16636:16753   */\n      iszero\n      tag_506\n      jumpi\n        /* \"#utility.yul\":16672:16751   */\n      tag_507\n      tag_253\n      jump\t// in\n    tag_507:\n        /* \"#utility.yul\":16636:16753   */\n    tag_506:\n        /* \"#utility.yul\":16777:16840   */\n      tag_508\n        /* \"#utility.yul\":16832:16839   */\n      dup6\n        /* \"#utility.yul\":16823:16829   */\n      dup3\n        /* \"#utility.yul\":16812:16821   */\n      dup7\n        /* \"#utility.yul\":16808:16830   */\n      add\n        /* \"#utility.yul\":16777:16840   */\n      tag_296\n      jump\t// in\n    tag_508:\n        /* \"#utility.yul\":16767:16840   */\n      swap2\n      pop\n        /* \"#utility.yul\":16562:16850   */\n      pop\n        /* \"#utility.yul\":16203:16857   */\n      swap3\n      pop\n      swap3\n      swap1\n      pop\n      jump\t// out\n        /* \"#utility.yul\":16863:16979   */\n    tag_297:\n        /* \"#utility.yul\":16933:16954   */\n      tag_510\n        /* \"#utility.yul\":16948:16953   */\n      dup2\n        /* \"#utility.yul\":16933:16954   */\n      tag_265\n      jump\t// in\n    tag_510:\n        /* \"#utility.yul\":16926:16931   */\n      dup2\n        /* \"#utility.yul\":16923:16955   */\n      eq\n        /* \"#utility.yul\":16913:16973   */\n      tag_511\n      jumpi\n        /* \"#utility.yul\":16969:16970   */\n      0x00\n        /* \"#utility.yul\":16966:16967   */\n      dup1\n        /* \"#utility.yul\":16959:16971   */\n      revert\n        /* \"#utility.yul\":16913:16973   */\n    tag_511:\n        /* \"#utility.yul\":16863:16979   */\n      pop\n      jump\t// out\n        /* \"#utility.yul\":16985:17118   */\n    tag_298:\n        /* \"#utility.yul\":17028:17033   */\n      0x00\n        /* \"#utility.yul\":17066:17072   */\n      dup2\n        /* \"#utility.yul\":17053:17073   */\n      calldataload\n        /* \"#utility.yul\":17044:17073   */\n      swap1\n      pop\n        /* \"#utility.yul\":17082:17112   */\n      tag_513\n        /* \"#utility.yul\":17106:17111   */\n      dup2\n        /* \"#utility.yul\":17082:17112   */\n      tag_297\n      jump\t// in\n    tag_513:\n        /* \"#utility.yul\":16985:17118   */\n      swap3\n      swap2\n      pop\n      pop\n      jump\t// out\n        /* \"#utility.yul\":17124:17592   */\n    tag_56:\n        /* \"#utility.yul\":17189:17195   */\n      0x00\n        /* \"#utility.yul\":17197:17203   */\n      dup1\n        /* \"#utility.yul\":17246:17248   */\n      0x40\n        /* \"#utility.yul\":17234:17243   */\n      dup4\n        /* \"#utility.yul\":17225:17232   */\n      dup6\n        /* \"#utility.yul\":17221:17244   */\n      sub\n        /* \"#utility.yul\":17217:17249   */\n      slt\n        /* \"#utility.yul\":17214:17333   */\n      iszero\n      tag_515\n      jumpi\n        /* \"#utility.yul\":17252:17331   */\n      tag_516\n      tag_252\n      jump\t// in\n    tag_516:\n        /* \"#utility.yul\":17214:17333   */\n    tag_515:\n        /* \"#utility.yul\":17372:17373   */\n      0x00\n        /* \"#utility.yul\":17397:17450   */\n      tag_517\n        /* \"#utility.yul\":17442:17449   */\n      dup6\n        /* \"#utility.yul\":17433:17439   */\n      dup3\n        /* \"#utility.yul\":17422:17431   */\n      dup7\n        /* \"#utility.yul\":17418:17440   */\n      add\n        /* \"#utility.yul\":17397:17450   */\n      tag_257\n      jump\t// in\n    tag_517:\n        /* \"#utility.yul\":17387:17450   */\n      swap3\n      pop\n        /* \"#utility.yul\":17343:17460   */\n      pop\n        /* \"#utility.yul\":17499:17501   */\n      0x20\n        /* \"#utility.yul\":17525:17575   */\n      tag_518\n        /* \"#utility.yul\":17567:17574   */\n      dup6\n        /* \"#utility.yul\":17558:17564   */\n      dup3\n        /* \"#utility.yul\":17547:17556   */\n      dup7\n        /* \"#utility.yul\":17543:17565   */\n      add\n        /* \"#utility.yul\":17525:17575   */\n      tag_298\n      jump\t// in\n    tag_518:\n        /* \"#utility.yul\":17515:17575   */\n      swap2\n      pop\n        /* \"#utility.yul\":17470:17585   */\n      pop\n        /* \"#utility.yul\":17124:17592   */\n      swap3\n      pop\n      swap3\n      swap1\n      pop\n      jump\t// out\n        /* \"#utility.yul\":17598:18072   */\n    tag_60:\n        /* \"#utility.yul\":17666:17672   */\n      0x00\n        /* \"#utility.yul\":17674:17680   */\n      dup1\n        /* \"#utility.yul\":17723:17725   */\n      0x40\n        /* \"#utility.yul\":17711:17720   */\n      dup4\n        /* \"#utility.yul\":17702:17709   */\n      dup6\n        /* \"#utility.yul\":17698:17721   */\n      sub\n        /* \"#utility.yul\":17694:17726   */\n      slt\n        /* \"#utility.yul\":17691:17810   */\n      iszero\n      tag_520\n      jumpi\n        /* \"#utility.yul\":17729:17808   */\n      tag_521\n      tag_252\n      jump\t// in\n    tag_521:\n        /* \"#utility.yul\":17691:17810   */\n    tag_520:\n        /* \"#utility.yul\":17849:17850   */\n      0x00\n        /* \"#utility.yul\":17874:17927   */\n      tag_522\n        /* \"#utility.yul\":17919:17926   */\n      dup6\n        /* \"#utility.yul\":17910:17916   */\n      dup3\n        /* \"#utility.yul\":17899:17908   */\n      dup7\n        /* \"#utility.yul\":17895:17917   */\n      add\n        /* \"#utility.yul\":17874:17927   */\n      tag_257\n      jump\t// in\n    tag_522:\n        /* \"#utility.yul\":17864:17927   */\n      swap3\n      pop\n        /* \"#utility.yul\":17820:17937   */\n      pop\n        /* \"#utility.yul\":17976:17978   */\n      0x20\n        /* \"#utility.yul\":18002:18055   */\n      tag_523\n        /* \"#utility.yul\":18047:18054   */\n      dup6\n        /* \"#utility.yul\":18038:18044   */\n      dup3\n        /* \"#utility.yul\":18027:18036   */\n      dup7\n        /* \"#utility.yul\":18023:18045   */\n      add\n        /* \"#utility.yul\":18002:18055   */\n      tag_257\n      jump\t// in\n    tag_523:\n        /* \"#utility.yul\":17992:18055   */\n      swap2\n      pop\n        /* \"#utility.yul\":17947:18065   */\n      pop\n        /* \"#utility.yul\":17598:18072   */\n      swap3\n      pop\n      swap3\n      swap1\n      pop\n      jump\t// out\n        /* \"#utility.yul\":18078:19167   */\n    tag_65:\n        /* \"#utility.yul\":18182:18188   */\n      0x00\n        /* \"#utility.yul\":18190:18196   */\n      dup1\n        /* \"#utility.yul\":18198:18204   */\n      0x00\n        /* \"#utility.yul\":18206:18212   */\n      dup1\n        /* \"#utility.yul\":18214:18220   */\n      0x00\n        /* \"#utility.yul\":18263:18266   */\n      0xa0\n        /* \"#utility.yul\":18251:18260   */\n      dup7\n        /* \"#utility.yul\":18242:18249   */\n      dup9\n        /* \"#utility.yul\":18238:18261   */\n      sub\n        /* \"#utility.yul\":18234:18267   */\n      slt\n        /* \"#utility.yul\":18231:18351   */\n      iszero\n      tag_525\n      jumpi\n        /* \"#utility.yul\":18270:18349   */\n      tag_526\n      tag_252\n      jump\t// in\n    tag_526:\n        /* \"#utility.yul\":18231:18351   */\n    tag_525:\n        /* \"#utility.yul\":18390:18391   */\n      0x00\n        /* \"#utility.yul\":18415:18468   */\n      tag_527\n        /* \"#utility.yul\":18460:18467   */\n      dup9\n        /* \"#utility.yul\":18451:18457   */\n      dup3\n        /* \"#utility.yul\":18440:18449   */\n      dup10\n        /* \"#utility.yul\":18436:18458   */\n      add\n        /* \"#utility.yul\":18415:18468   */\n      tag_257\n      jump\t// in\n    tag_527:\n        /* \"#utility.yul\":18405:18468   */\n      swap6\n      pop\n        /* \"#utility.yul\":18361:18478   */\n      pop\n        /* \"#utility.yul\":18517:18519   */\n      0x20\n        /* \"#utility.yul\":18543:18596   */\n      tag_528\n        /* \"#utility.yul\":18588:18595   */\n      dup9\n        /* \"#utility.yul\":18579:18585   */\n      dup3\n        /* \"#utility.yul\":18568:18577   */\n      dup10\n        /* \"#utility.yul\":18564:18586   */\n      add\n        /* \"#utility.yul\":18543:18596   */\n      tag_257\n      jump\t// in\n    tag_528:\n        /* \"#utility.yul\":18533:18596   */\n      swap5\n      pop\n        /* \"#utility.yul\":18488:18606   */\n      pop\n        /* \"#utility.yul\":18645:18647   */\n      0x40\n        /* \"#utility.yul\":18671:18724   */\n      tag_529\n        /* \"#utility.yul\":18716:18723   */\n      dup9\n        /* \"#utility.yul\":18707:18713   */\n      dup3\n        /* \"#utility.yul\":18696:18705   */\n      dup10\n        /* \"#utility.yul\":18692:18714   */\n      add\n        /* \"#utility.yul\":18671:18724   */\n      tag_260\n      jump\t// in\n    tag_529:\n        /* \"#utility.yul\":18661:18724   */\n      swap4\n      pop\n        /* \"#utility.yul\":18616:18734   */\n      pop\n        /* \"#utility.yul\":18773:18775   */\n      0x60\n        /* \"#utility.yul\":18799:18852   */\n      tag_530\n        /* \"#utility.yul\":18844:18851   */\n      dup9\n        /* \"#utility.yul\":18835:18841   */\n      dup3\n        /* \"#utility.yul\":18824:18833   */\n      dup10\n        /* \"#utility.yul\":18820:18842   */\n      add\n        /* \"#utility.yul\":18799:18852   */\n      tag_260\n      jump\t// in\n    tag_530:\n        /* \"#utility.yul\":18789:18852   */\n      swap3\n      pop\n        /* \"#utility.yul\":18744:18862   */\n      pop\n        /* \"#utility.yul\":18929:18932   */\n      0x80\n        /* \"#utility.yul\":18918:18927   */\n      dup7\n        /* \"#utility.yul\":18914:18933   */\n      add\n        /* \"#utility.yul\":18901:18934   */\n      calldataload\n        /* \"#utility.yul\":18961:18979   */\n      0xffffffffffffffff\n        /* \"#utility.yul\":18953:18959   */\n      dup2\n        /* \"#utility.yul\":18950:18980   */\n      gt\n        /* \"#utility.yul\":18947:19064   */\n      iszero\n      tag_531\n      jumpi\n        /* \"#utility.yul\":18983:19062   */\n      tag_532\n      tag_253\n      jump\t// in\n    tag_532:\n        /* \"#utility.yul\":18947:19064   */\n    tag_531:\n        /* \"#utility.yul\":19088:19150   */\n      tag_533\n        /* \"#utility.yul\":19142:19149   */\n      dup9\n        /* \"#utility.yul\":19133:19139   */\n      dup3\n        /* \"#utility.yul\":19122:19131   */\n      dup10\n        /* \"#utility.yul\":19118:19140   */\n      add\n        /* \"#utility.yul\":19088:19150   */\n      tag_283\n      jump\t// in\n    tag_533:\n        /* \"#utility.yul\":19078:19150   */\n      swap2\n      pop\n        /* \"#utility.yul\":18872:19160   */\n      pop\n        /* \"#utility.yul\":18078:19167   */\n      swap3\n      swap6\n      pop\n      swap3\n      swap6\n      swap1\n      swap4\n      pop\n      jump\t// out\n        /* \"#utility.yul\":19173:19353   */\n    tag_299:\n        /* \"#utility.yul\":19221:19298   */\n      0x4e487b7100000000000000000000000000000000000000000000000000000000\n        /* \"#utility.yul\":19218:19219   */\n      0x00\n        /* \"#utility.yul\":19211:19299   */\n      mstore\n        /* \"#utility.yul\":19318:19322   */\n      0x22\n        /* \"#utility.yul\":19315:19316   */\n      0x04\n        /* \"#utility.yul\":19308:19323   */\n      mstore\n        /* \"#utility.yul\":19342:19346   */\n      0x24\n        /* \"#utility.yul\":19339:19340   */\n      0x00\n        /* \"#utility.yul\":19332:19347   */\n      revert\n        /* \"#utility.yul\":19359:19679   */\n    tag_75:\n        /* \"#utility.yul\":19403:19409   */\n      0x00\n        /* \"#utility.yul\":19440:19441   */\n      0x02\n        /* \"#utility.yul\":19434:19438   */\n      dup3\n        /* \"#utility.yul\":19430:19442   */\n      div\n        /* \"#utility.yul\":19420:19442   */\n      swap1\n      pop\n        /* \"#utility.yul\":19487:19488   */\n      0x01\n        /* \"#utility.yul\":19481:19485   */\n      dup3\n        /* \"#utility.yul\":19477:19489   */\n      and\n        /* \"#utility.yul\":19508:19526   */\n      dup1\n        /* \"#utility.yul\":19498:19579   */\n      tag_536\n      jumpi\n        /* \"#utility.yul\":19564:19568   */\n      0x7f\n        /* \"#utility.yul\":19556:19562   */\n      dup3\n        /* \"#utility.yul\":19552:19569   */\n      and\n        /* \"#utility.yul\":19542:19569   */\n      swap2\n      pop\n        /* \"#utility.yul\":19498:19579   */\n    tag_536:\n        /* \"#utility.yul\":19626:19628   */\n      0x20\n        /* \"#utility.yul\":19618:19624   */\n      dup3\n        /* \"#utility.yul\":19615:19629   */\n      lt\n        /* \"#utility.yul\":19595:19613   */\n      dup2\n        /* \"#utility.yul\":19592:19630   */\n      sub\n        /* \"#utility.yul\":19589:19673   */\n      tag_537\n      jumpi\n        /* \"#utility.yul\":19645:19663   */\n      tag_538\n      tag_299\n      jump\t// in\n    tag_538:\n        /* \"#utility.yul\":19589:19673   */\n    tag_537:\n        /* \"#utility.yul\":19410:19679   */\n      pop\n        /* \"#utility.yul\":19359:19679   */\n      swap2\n      swap1\n      pop\n      jump\t// out\n        /* \"#utility.yul\":19685:19833   */\n    tag_300:\n        /* \"#utility.yul\":19787:19798   */\n      0x00\n        /* \"#utility.yul\":19824:19827   */\n      dup2\n        /* \"#utility.yul\":19809:19827   */\n      swap1\n      pop\n        /* \"#utility.yul\":19685:19833   */\n      swap3\n      swap2\n      pop\n      pop\n      jump\t// out\n        /* \"#utility.yul\":19839:19980   */\n    tag_301:\n        /* \"#utility.yul\":19888:19892   */\n      0x00\n        /* \"#utility.yul\":19911:19914   */\n      dup2\n        /* \"#utility.yul\":19903:19914   */\n      swap1\n      pop\n        /* \"#utility.yul\":19934:19937   */\n      dup2\n        /* \"#utility.yul\":19931:19932   */\n      0x00\n        /* \"#utility.yul\":19924:19938   */\n      mstore\n        /* \"#utility.yul\":19968:19972   */\n      0x20\n        /* \"#utility.yul\":19965:19966   */\n      0x00\n        /* \"#utility.yul\":19955:19973   */\n      keccak256\n        /* \"#utility.yul\":19947:19973   */\n      swap1\n      pop\n        /* \"#utility.yul\":19839:19980   */\n      swap2\n      swap1\n      pop\n      jump\t// out\n        /* \"#utility.yul\":20010:20884   */\n    tag_302:\n        /* \"#utility.yul\":20113:20116   */\n      0x00\n        /* \"#utility.yul\":20150:20155   */\n      dup2\n        /* \"#utility.yul\":20144:20156   */\n      sload\n        /* \"#utility.yul\":20179:20215   */\n      tag_542\n        /* \"#utility.yul\":20205:20214   */\n      dup2\n        /* \"#utility.yul\":20179:20215   */\n      tag_75\n      jump\t// in\n    tag_542:\n        /* \"#utility.yul\":20231:20320   */\n      tag_543\n        /* \"#utility.yul\":20313:20319   */\n      dup2\n        /* \"#utility.yul\":20308:20311   */\n      dup7\n        /* \"#utility.yul\":20231:20320   */\n      tag_300\n      jump\t// in\n    tag_543:\n        /* \"#utility.yul\":20224:20320   */\n      swap5\n      pop\n        /* \"#utility.yul\":20351:20352   */\n      0x01\n        /* \"#utility.yul\":20340:20349   */\n      dup3\n        /* \"#utility.yul\":20336:20353   */\n      and\n        /* \"#utility.yul\":20367:20368   */\n      0x00\n        /* \"#utility.yul\":20362:20528   */\n      dup2\n      eq\n      tag_545\n      jumpi\n        /* \"#utility.yul\":20542:20543   */\n      0x01\n        /* \"#utility.yul\":20537:20878   */\n      dup2\n      eq\n      tag_546\n      jumpi\n        /* \"#utility.yul\":20329:20878   */\n      jump(tag_544)\n        /* \"#utility.yul\":20362:20528   */\n    tag_545:\n        /* \"#utility.yul\":20446:20450   */\n      0xff\n        /* \"#utility.yul\":20442:20451   */\n      not\n        /* \"#utility.yul\":20431:20440   */\n      dup4\n        /* \"#utility.yul\":20427:20452   */\n      and\n        /* \"#utility.yul\":20422:20425   */\n      dup7\n        /* \"#utility.yul\":20415:20453   */\n      mstore\n        /* \"#utility.yul\":20508:20514   */\n      dup2\n        /* \"#utility.yul\":20501:20515   */\n      iszero\n        /* \"#utility.yul\":20494:20516   */\n      iszero\n        /* \"#utility.yul\":20486:20492   */\n      dup3\n        /* \"#utility.yul\":20482:20517   */\n      mul\n        /* \"#utility.yul\":20477:20480   */\n      dup7\n        /* \"#utility.yul\":20473:20518   */\n      add\n        /* \"#utility.yul\":20466:20518   */\n      swap4\n      pop\n        /* \"#utility.yul\":20362:20528   */\n      jump(tag_544)\n        /* \"#utility.yul\":20537:20878   */\n    tag_546:\n        /* \"#utility.yul\":20604:20642   */\n      tag_547\n        /* \"#utility.yul\":20636:20641   */\n      dup6\n        /* \"#utility.yul\":20604:20642   */\n      tag_301\n      jump\t// in\n    tag_547:\n        /* \"#utility.yul\":20664:20665   */\n      0x00\n        /* \"#utility.yul\":20678:20832   */\n    tag_548:\n        /* \"#utility.yul\":20692:20698   */\n      dup4\n        /* \"#utility.yul\":20689:20690   */\n      dup2\n        /* \"#utility.yul\":20686:20699   */\n      lt\n        /* \"#utility.yul\":20678:20832   */\n      iszero\n      tag_550\n      jumpi\n        /* \"#utility.yul\":20766:20773   */\n      dup2\n        /* \"#utility.yul\":20760:20774   */\n      sload\n        /* \"#utility.yul\":20756:20757   */\n      dup2\n        /* \"#utility.yul\":20751:20754   */\n      dup10\n        /* \"#utility.yul\":20747:20758   */\n      add\n        /* \"#utility.yul\":20740:20775   */\n      mstore\n        /* \"#utility.yul\":20816:20817   */\n      0x01\n        /* \"#utility.yul\":20807:20814   */\n      dup3\n        /* \"#utility.yul\":20803:20818   */\n      add\n        /* \"#utility.yul\":20792:20818   */\n      swap2\n      pop\n        /* \"#utility.yul\":20714:20718   */\n      0x20\n        /* \"#utility.yul\":20711:20712   */\n      dup2\n        /* \"#utility.yul\":20707:20719   */\n      add\n        /* \"#utility.yul\":20702:20719   */\n      swap1\n      pop\n        /* \"#utility.yul\":20678:20832   */\n      jump(tag_548)\n    tag_550:\n        /* \"#utility.yul\":20861:20867   */\n      dup4\n        /* \"#utility.yul\":20856:20859   */\n      dup9\n        /* \"#utility.yul\":20852:20868   */\n      add\n        /* \"#utility.yul\":20845:20868   */\n      swap6\n      pop\n        /* \"#utility.yul\":20544:20878   */\n      pop\n      pop\n        /* \"#utility.yul\":20329:20878   */\n    tag_544:\n      pop\n        /* \"#utility.yul\":20117:20884   */\n      pop\n      pop\n        /* \"#utility.yul\":20010:20884   */\n      swap3\n      swap2\n      pop\n      pop\n      jump\t// out\n        /* \"#utility.yul\":20890:21280   */\n    tag_303:\n        /* \"#utility.yul\":20996:20999   */\n      0x00\n        /* \"#utility.yul\":21024:21063   */\n      tag_552\n        /* \"#utility.yul\":21057:21062   */\n      dup3\n        /* \"#utility.yul\":21024:21063   */\n      tag_267\n      jump\t// in\n    tag_552:\n        /* \"#utility.yul\":21079:21168   */\n      tag_553\n        /* \"#utility.yul\":21161:21167   */\n      dup2\n        /* \"#utility.yul\":21156:21159   */\n      dup6\n        /* \"#utility.yul\":21079:21168   */\n      tag_300\n      jump\t// in\n    tag_553:\n        /* \"#utility.yul\":21072:21168   */\n      swap4\n      pop\n        /* \"#utility.yul\":21177:21242   */\n      tag_554\n        /* \"#utility.yul\":21235:21241   */\n      dup2\n        /* \"#utility.yul\":21230:21233   */\n      dup6\n        /* \"#utility.yul\":21223:21227   */\n      0x20\n        /* \"#utility.yul\":21216:21221   */\n      dup7\n        /* \"#utility.yul\":21212:21228   */\n      add\n        /* \"#utility.yul\":21177:21242   */\n      tag_269\n      jump\t// in\n    tag_554:\n        /* \"#utility.yul\":21267:21273   */\n      dup1\n        /* \"#utility.yul\":21262:21265   */\n      dup5\n        /* \"#utility.yul\":21258:21274   */\n      add\n        /* \"#utility.yul\":21251:21274   */\n      swap2\n      pop\n        /* \"#utility.yul\":21000:21280   */\n      pop\n        /* \"#utility.yul\":20890:21280   */\n      swap3\n      swap2\n      pop\n      pop\n      jump\t// out\n        /* \"#utility.yul\":21286:21715   */\n    tag_85:\n        /* \"#utility.yul\":21463:21466   */\n      0x00\n        /* \"#utility.yul\":21485:21577   */\n      tag_556\n        /* \"#utility.yul\":21573:21576   */\n      dup3\n        /* \"#utility.yul\":21564:21570   */\n      dup6\n        /* \"#utility.yul\":21485:21577   */\n      tag_302\n      jump\t// in\n    tag_556:\n        /* \"#utility.yul\":21478:21577   */\n      swap2\n      pop\n        /* \"#utility.yul\":21594:21689   */\n      tag_557\n        /* \"#utility.yul\":21685:21688   */\n      dup3\n        /* \"#utility.yul\":21676:21682   */\n      dup5\n        /* \"#utility.yul\":21594:21689   */\n      tag_303\n      jump\t// in\n    tag_557:\n        /* \"#utility.yul\":21587:21689   */\n      swap2\n      pop\n        /* \"#utility.yul\":21706:21709   */\n      dup2\n        /* \"#utility.yul\":21699:21709   */\n      swap1\n      pop\n        /* \"#utility.yul\":21286:21715   */\n      swap4\n      swap3\n      pop\n      pop\n      pop\n      jump\t// out\n        /* \"#utility.yul\":21721:21839   */\n    tag_304:\n        /* \"#utility.yul\":21808:21832   */\n      tag_559\n        /* \"#utility.yul\":21826:21831   */\n      dup2\n        /* \"#utility.yul\":21808:21832   */\n      tag_255\n      jump\t// in\n    tag_559:\n        /* \"#utility.yul\":21803:21806   */\n      dup3\n        /* \"#utility.yul\":21796:21833   */\n      mstore\n        /* \"#utility.yul\":21721:21839   */\n      pop\n      pop\n      jump\t// out\n        /* \"#utility.yul\":21845:22177   */\n    tag_95:\n        /* \"#utility.yul\":21966:21970   */\n      0x00\n        /* \"#utility.yul\":22004:22006   */\n      0x40\n        /* \"#utility.yul\":21993:22002   */\n      dup3\n        /* \"#utility.yul\":21989:22007   */\n      add\n        /* \"#utility.yul\":21981:22007   */\n      swap1\n      pop\n        /* \"#utility.yul\":22017:22088   */\n      tag_561\n        /* \"#utility.yul\":22085:22086   */\n      0x00\n        /* \"#utility.yul\":22074:22083   */\n      dup4\n        /* \"#utility.yul\":22070:22087   */\n      add\n        /* \"#utility.yul\":22061:22067   */\n      dup6\n        /* \"#utility.yul\":22017:22088   */\n      tag_304\n      jump\t// in\n    tag_561:\n        /* \"#utility.yul\":22098:22170   */\n      tag_562\n        /* \"#utility.yul\":22166:22168   */\n      0x20\n        /* \"#utility.yul\":22155:22164   */\n      dup4\n        /* \"#utility.yul\":22151:22169   */\n      add\n        /* \"#utility.yul\":22142:22148   */\n      dup5\n        /* \"#utility.yul\":22098:22170   */\n      tag_304\n      jump\t// in\n    tag_562:\n        /* \"#utility.yul\":21845:22177   */\n      swap4\n      swap3\n      pop\n      pop\n      pop\n      jump\t// out\n        /* \"#utility.yul\":22183:22515   */\n    tag_101:\n        /* \"#utility.yul\":22304:22308   */\n      0x00\n        /* \"#utility.yul\":22342:22344   */\n      0x40\n        /* \"#utility.yul\":22331:22340   */\n      dup3\n        /* \"#utility.yul\":22327:22345   */\n      add\n        /* \"#utility.yul\":22319:22345   */\n      swap1\n      pop\n        /* \"#utility.yul\":22355:22426   */\n      tag_564\n        /* \"#utility.yul\":22423:22424   */\n      0x00\n        /* \"#utility.yul\":22412:22421   */\n      dup4\n        /* \"#utility.yul\":22408:22425   */\n      add\n        /* \"#utility.yul\":22399:22405   */\n      dup6\n        /* \"#utility.yul\":22355:22426   */\n      tag_261\n      jump\t// in\n    tag_564:\n        /* \"#utility.yul\":22436:22508   */\n      tag_565\n        /* \"#utility.yul\":22504:22506   */\n      0x20\n        /* \"#utility.yul\":22493:22502   */\n      dup4\n        /* \"#utility.yul\":22489:22507   */\n      add\n        /* \"#utility.yul\":22480:22486   */\n      dup5\n        /* \"#utility.yul\":22436:22508   */\n      tag_261\n      jump\t// in\n    tag_565:\n        /* \"#utility.yul\":22183:22515   */\n      swap4\n      swap3\n      pop\n      pop\n      pop\n      jump\t// out\n        /* \"#utility.yul\":22521:22701   */\n    tag_116:\n        /* \"#utility.yul\":22569:22646   */\n      0x4e487b7100000000000000000000000000000000000000000000000000000000\n        /* \"#utility.yul\":22566:22567   */\n      0x00\n        /* \"#utility.yul\":22559:22647   */\n      mstore\n        /* \"#utility.yul\":22666:22670   */\n      0x32\n        /* \"#utility.yul\":22663:22664   */\n      0x04\n        /* \"#utility.yul\":22656:22671   */\n      mstore\n        /* \"#utility.yul\":22690:22694   */\n      0x24\n        /* \"#utility.yul\":22687:22688   */\n      0x00\n        /* \"#utility.yul\":22680:22695   */\n      revert\n        /* \"#utility.yul\":22707:22887   */\n    tag_305:\n        /* \"#utility.yul\":22755:22832   */\n      0x4e487b7100000000000000000000000000000000000000000000000000000000\n        /* \"#utility.yul\":22752:22753   */\n      0x00\n        /* \"#utility.yul\":22745:22833   */\n      mstore\n        /* \"#utility.yul\":22852:22856   */\n      0x11\n        /* \"#utility.yul\":22849:22850   */\n      0x04\n        /* \"#utility.yul\":22842:22857   */\n      mstore\n        /* \"#utility.yul\":22876:22880   */\n      0x24\n        /* \"#utility.yul\":22873:22874   */\n      0x00\n        /* \"#utility.yul\":22866:22881   */\n      revert\n        /* \"#utility.yul\":22893:23126   */\n    tag_123:\n        /* \"#utility.yul\":22932:22935   */\n      0x00\n        /* \"#utility.yul\":22955:22979   */\n      tag_569\n        /* \"#utility.yul\":22973:22978   */\n      dup3\n        /* \"#utility.yul\":22955:22979   */\n      tag_258\n      jump\t// in\n    tag_569:\n        /* \"#utility.yul\":22946:22979   */\n      swap2\n      pop\n        /* \"#utility.yul\":23001:23067   */\n      0xffffffffffffffffffffffffffffffffffffffffffffffffffffffffffffffff\n        /* \"#utility.yul\":22994:22999   */\n      dup3\n        /* \"#utility.yul\":22991:23068   */\n      sub\n        /* \"#utility.yul\":22988:23091   */\n      tag_570\n      jumpi\n        /* \"#utility.yul\":23071:23089   */\n      tag_571\n      tag_305\n      jump\t// in\n    tag_571:\n        /* \"#utility.yul\":22988:23091   */\n    tag_570:\n        /* \"#utility.yul\":23118:23119   */\n      0x01\n        /* \"#utility.yul\":23111:23116   */\n      dup3\n        /* \"#utility.yul\":23107:23120   */\n      add\n        /* \"#utility.yul\":23100:23120   */\n      swap1\n      pop\n        /* \"#utility.yul\":22893:23126   */\n      swap2\n      swap1\n      pop\n      jump\t// out\n        /* \"#utility.yul\":23132:23354   */\n    tag_148:\n        /* \"#utility.yul\":23225:23229   */\n      0x00\n        /* \"#utility.yul\":23263:23265   */\n      0x20\n        /* \"#utility.yul\":23252:23261   */\n      dup3\n        /* \"#utility.yul\":23248:23266   */\n      add\n        /* \"#utility.yul\":23240:23266   */\n      swap1\n      pop\n        /* \"#utility.yul\":23276:23347   */\n      tag_573\n        /* \"#utility.yul\":23344:23345   */\n      0x00\n        /* \"#utility.yul\":23333:23342   */\n      dup4\n        /* \"#utility.yul\":23329:23346   */\n      add\n        /* \"#utility.yul\":23320:23326   */\n      dup5\n        /* \"#utility.yul\":23276:23347   */\n      tag_304\n      jump\t// in\n    tag_573:\n        /* \"#utility.yul\":23132:23354   */\n      swap3\n      swap2\n      pop\n      pop\n      jump\t// out\n        /* \"#utility.yul\":23360:23453   */\n    tag_306:\n        /* \"#utility.yul\":23397:23403   */\n      0x00\n        /* \"#utility.yul\":23444:23446   */\n      0x20\n        /* \"#utility.yul\":23439:23441   */\n      0x1f\n        /* \"#utility.yul\":23432:23437   */\n      dup4\n        /* \"#utility.yul\":23428:23442   */\n      add\n        /* \"#utility.yul\":23424:23447   */\n      div\n        /* \"#utility.yul\":23414:23447   */\n      swap1\n      pop\n        /* \"#utility.yul\":23360:23453   */\n      swap2\n      swap1\n      pop\n      jump\t// out\n        /* \"#utility.yul\":23459:23566   */\n    tag_307:\n        /* \"#utility.yul\":23503:23511   */\n      0x00\n        /* \"#utility.yul\":23553:23558   */\n      dup3\n        /* \"#utility.yul\":23547:23551   */\n      dup3\n        /* \"#utility.yul\":23543:23559   */\n      shl\n        /* \"#utility.yul\":23522:23559   */\n      swap1\n      pop\n        /* \"#utility.yul\":23459:23566   */\n      swap3\n      swap2\n      pop\n      pop\n      jump\t// out\n        /* \"#utility.yul\":23572:23965   */\n    tag_308:\n        /* \"#utility.yul\":23641:23647   */\n      0x00\n        /* \"#utility.yul\":23691:23692   */\n      0x08\n        /* \"#utility.yul\":23679:23689   */\n      dup4\n        /* \"#utility.yul\":23675:23693   */\n      mul\n        /* \"#utility.yul\":23714:23811   */\n      tag_577\n        /* \"#utility.yul\":23744:23810   */\n      0xffffffffffffffffffffffffffffffffffffffffffffffffffffffffffffffff\n        /* \"#utility.yul\":23733:23742   */\n      dup3\n        /* \"#utility.yul\":23714:23811   */\n      tag_307\n      jump\t// in\n    tag_577:\n        /* \"#utility.yul\":23832:23871   */\n      tag_578\n        /* \"#utility.yul\":23862:23870   */\n      dup7\n        /* \"#utility.yul\":23851:23860   */\n      dup4\n        /* \"#utility.yul\":23832:23871   */\n      tag_307\n      jump\t// in\n    tag_578:\n        /* \"#utility.yul\":23820:23871   */\n      swap6\n      pop\n        /* \"#utility.yul\":23904:23908   */\n      dup1\n        /* \"#utility.yul\":23900:23909   */\n      not\n        /* \"#utility.yul\":23893:23898   */\n      dup5\n        /* \"#utility.yul\":23889:23910   */\n      and\n        /* \"#utility.yul\":23880:23910   */\n      swap4\n      pop\n        /* \"#utility.yul\":23953:23957   */\n      dup1\n        /* \"#utility.yul\":23943:23951   */\n      dup7\n        /* \"#utility.yul\":23939:23958   */\n      and\n        /* \"#utility.yul\":23932:23937   */\n      dup5\n        /* \"#utility.yul\":23929:23959   */\n      or\n        /* \"#utility.yul\":23919:23959   */\n      swap3\n      pop\n        /* \"#utility.yul\":23648:23965   */\n      pop\n      pop\n        /* \"#utility.yul\":23572:23965   */\n      swap4\n      swap3\n      pop\n      pop\n      pop\n      jump\t// out\n        /* \"#utility.yul\":23971:24031   */\n    tag_309:\n        /* \"#utility.yul\":23999:24002   */\n      0x00\n        /* \"#utility.yul\":24020:24025   */\n      dup2\n        /* \"#utility.yul\":24013:24025   */\n      swap1\n      pop\n        /* \"#utility.yul\":23971:24031   */\n      swap2\n      swap1\n      pop\n      jump\t// out\n        /* \"#utility.yul\":24037:24179   */\n    tag_310:\n        /* \"#utility.yul\":24087:24096   */\n      0x00\n        /* \"#utility.yul\":24120:24173   */\n      tag_581\n        /* \"#utility.yul\":24138:24172   */\n      tag_582\n        /* \"#utility.yul\":24147:24171   */\n      tag_583\n        /* \"#utility.yul\":24165:24170   */\n      dup5\n        /* \"#utility.yul\":24147:24171   */\n      tag_258\n      jump\t// in\n    tag_583:\n        /* \"#utility.yul\":24138:24172   */\n      tag_309\n      jump\t// in\n    tag_582:\n        /* \"#utility.yul\":24120:24173   */\n      tag_258\n      jump\t// in\n    tag_581:\n        /* \"#utility.yul\":24107:24173   */\n      swap1\n      pop\n        /* \"#utility.yul\":24037:24179   */\n      swap2\n      swap1\n      pop\n      jump\t// out\n        /* \"#utility.yul\":24185:24260   */\n    tag_311:\n        /* \"#utility.yul\":24228:24231   */\n      0x00\n        /* \"#utility.yul\":24249:24254   */\n      dup2\n        /* \"#utility.yul\":24242:24254   */\n      swap1\n      pop\n        /* \"#utility.yul\":24185:24260   */\n      swap2\n      swap1\n      pop\n      jump\t// out\n        /* \"#utility.yul\":24266:24535   */\n    tag_312:\n        /* \"#utility.yul\":24376:24415   */\n      tag_586\n        /* \"#utility.yul\":24407:24414   */\n      dup4\n        /* \"#utility.yul\":24376:24415   */\n      tag_310\n      jump\t// in\n    tag_586:\n        /* \"#utility.yul\":24437:24528   */\n      tag_587\n        /* \"#utility.yul\":24486:24527   */\n      tag_588\n        /* \"#utility.yul\":24510:24526   */\n      dup3\n        /* \"#utility.yul\":24486:24527   */\n      tag_311\n      jump\t// in\n    tag_588:\n        /* \"#utility.yul\":24478:24484   */\n      dup5\n        /* \"#utility.yul\":24471:24475   */\n      dup5\n        /* \"#utility.yul\":24465:24476   */\n      sload\n        /* \"#utility.yul\":24437:24528   */\n      tag_308\n      jump\t// in\n    tag_587:\n        /* \"#utility.yul\":24431:24435   */\n      dup3\n        /* \"#utility.yul\":24424:24529   */\n      sstore\n        /* \"#utility.yul\":24342:24535   */\n      pop\n        /* \"#utility.yul\":24266:24535   */\n      pop\n      pop\n      pop\n      jump\t// out\n        /* \"#utility.yul\":24541:24614   */\n    tag_313:\n        /* \"#utility.yul\":24586:24589   */\n      0x00\n        /* \"#utility.yul\":24541:24614   */\n      swap1\n      jump\t// out\n        /* \"#utility.yul\":24620:24809   */\n    tag_314:\n        /* \"#utility.yul\":24697:24729   */\n      tag_591\n      tag_313\n      jump\t// in\n    tag_591:\n        /* \"#utility.yul\":24738:24803   */\n      tag_592\n        /* \"#utility.yul\":24796:24802   */\n      dup2\n        /* \"#utility.yul\":24788:24794   */\n      dup5\n        /* \"#utility.yul\":24782:24786   */\n      dup5\n        /* \"#utility.yul\":24738:24803   */\n      tag_312\n      jump\t// in\n    tag_592:\n        /* \"#utility.yul\":24673:24809   */\n      pop\n        /* \"#utility.yul\":24620:24809   */\n      pop\n      pop\n      jump\t// out\n        /* \"#utility.yul\":24815:25001   */\n    tag_315:\n        /* \"#utility.yul\":24875:24995   */\n    tag_594:\n        /* \"#utility.yul\":24892:24895   */\n      dup2\n        /* \"#utility.yul\":24885:24890   */\n      dup2\n        /* \"#utility.yul\":24882:24896   */\n      lt\n        /* \"#utility.yul\":24875:24995   */\n      iszero\n      tag_596\n      jumpi\n        /* \"#utility.yul\":24946:24985   */\n      tag_597\n        /* \"#utility.yul\":24983:24984   */\n      0x00\n        /* \"#utility.yul\":24976:24981   */\n      dup3\n        /* \"#utility.yul\":24946:24985   */\n      tag_314\n      jump\t// in\n    tag_597:\n        /* \"#utility.yul\":24919:24920   */\n      0x01\n        /* \"#utility.yul\":24912:24917   */\n      dup2\n        /* \"#utility.yul\":24908:24921   */\n      add\n        /* \"#utility.yul\":24899:24921   */\n      swap1\n      pop\n        /* \"#utility.yul\":24875:24995   */\n      jump(tag_594)\n    tag_596:\n        /* \"#utility.yul\":24815:25001   */\n      pop\n      pop\n      jump\t// out\n        /* \"#utility.yul\":25007:25550   */\n    tag_316:\n        /* \"#utility.yul\":25108:25110   */\n      0x1f\n        /* \"#utility.yul\":25103:25106   */\n      dup3\n        /* \"#utility.yul\":25100:25111   */\n      gt\n        /* \"#utility.yul\":25097:25543   */\n      iszero\n      tag_599\n      jumpi\n        /* \"#utility.yul\":25142:25180   */\n      tag_600\n        /* \"#utility.yul\":25174:25179   */\n      dup2\n        /* \"#utility.yul\":25142:25180   */\n      tag_301\n      jump\t// in\n    tag_600:\n        /* \"#utility.yul\":25226:25255   */\n      tag_601\n        /* \"#utility.yul\":25244:25254   */\n      dup5\n        /* \"#utility.yul\":25226:25255   */\n      tag_306\n      jump\t// in\n    tag_601:\n        /* \"#utility.yul\":25216:25224   */\n      dup2\n        /* \"#utility.yul\":25212:25256   */\n      add\n        /* \"#utility.yul\":25409:25411   */\n      0x20\n        /* \"#utility.yul\":25397:25407   */\n      dup6\n        /* \"#utility.yul\":25394:25412   */\n      lt\n        /* \"#utility.yul\":25391:25440   */\n      iszero\n      tag_602\n      jumpi\n        /* \"#utility.yul\":25430:25438   */\n      dup2\n        /* \"#utility.yul\":25415:25438   */\n      swap1\n      pop\n        /* \"#utility.yul\":25391:25440   */\n    tag_602:\n        /* \"#utility.yul\":25453:25533   */\n      tag_603\n        /* \"#utility.yul\":25509:25531   */\n      tag_604\n        /* \"#utility.yul\":25527:25530   */\n      dup6\n        /* \"#utility.yul\":25509:25531   */\n      tag_306\n      jump\t// in\n    tag_604:\n        /* \"#utility.yul\":25499:25507   */\n      dup4\n        /* \"#utility.yul\":25495:25532   */\n      add\n        /* \"#utility.yul\":25482:25493   */\n      dup3\n        /* \"#utility.yul\":25453:25533   */\n      tag_315\n      jump\t// in\n    tag_603:\n        /* \"#utility.yul\":25112:25543   */\n      pop\n      pop\n        /* \"#utility.yul\":25097:25543   */\n    tag_599:\n        /* \"#utility.yul\":25007:25550   */\n      pop\n      pop\n      pop\n      jump\t// out\n        /* \"#utility.yul\":25556:25673   */\n    tag_317:\n        /* \"#utility.yul\":25610:25618   */\n      0x00\n        /* \"#utility.yul\":25660:25665   */\n      dup3\n        /* \"#utility.yul\":25654:25658   */\n      dup3\n        /* \"#utility.yul\":25650:25666   */\n      shr\n        /* \"#utility.yul\":25629:25666   */\n      swap1\n      pop\n        /* \"#utility.yul\":25556:25673   */\n      swap3\n      swap2\n      pop\n      pop\n      jump\t// out\n        /* \"#utility.yul\":25679:25848   */\n    tag_318:\n        /* \"#utility.yul\":25723:25729   */\n      0x00\n        /* \"#utility.yul\":25756:25807   */\n      tag_607\n        /* \"#utility.yul\":25804:25805   */\n      0x00\n        /* \"#utility.yul\":25800:25806   */\n      not\n        /* \"#utility.yul\":25792:25797   */\n      dup5\n        /* \"#utility.yul\":25789:25790   */\n      0x08\n        /* \"#utility.yul\":25785:25798   */\n      mul\n        /* \"#utility.yul\":25756:25807   */\n      tag_317\n      jump\t// in\n    tag_607:\n        /* \"#utility.yul\":25752:25808   */\n      not\n        /* \"#utility.yul\":25837:25841   */\n      dup1\n        /* \"#utility.yul\":25831:25835   */\n      dup4\n        /* \"#utility.yul\":25827:25842   */\n      and\n        /* \"#utility.yul\":25817:25842   */\n      swap2\n      pop\n        /* \"#utility.yul\":25730:25848   */\n      pop\n        /* \"#utility.yul\":25679:25848   */\n      swap3\n      swap2\n      pop\n      pop\n      jump\t// out\n        /* \"#utility.yul\":25853:26148   */\n    tag_319:\n        /* \"#utility.yul\":25929:25933   */\n      0x00\n        /* \"#utility.yul\":26075:26104   */\n      tag_609\n        /* \"#utility.yul\":26100:26103   */\n      dup4\n        /* \"#utility.yul\":26094:26098   */\n      dup4\n        /* \"#utility.yul\":26075:26104   */\n      tag_318\n      jump\t// in\n    tag_609:\n        /* \"#utility.yul\":26067:26104   */\n      swap2\n      pop\n        /* \"#utility.yul\":26137:26140   */\n      dup3\n        /* \"#utility.yul\":26134:26135   */\n      0x02\n        /* \"#utility.yul\":26130:26141   */\n      mul\n        /* \"#utility.yul\":26124:26128   */\n      dup3\n        /* \"#utility.yul\":26121:26142   */\n      or\n        /* \"#utility.yul\":26113:26142   */\n      swap1\n      pop\n        /* \"#utility.yul\":25853:26148   */\n      swap3\n      swap2\n      pop\n      pop\n      jump\t// out\n        /* \"#utility.yul\":26153:27548   */\n    tag_163:\n        /* \"#utility.yul\":26270:26307   */\n      tag_611\n        /* \"#utility.yul\":26303:26306   */\n      dup3\n        /* \"#utility.yul\":26270:26307   */\n      tag_267\n      jump\t// in\n    tag_611:\n        /* \"#utility.yul\":26372:26390   */\n      0xffffffffffffffff\n        /* \"#utility.yul\":26364:26370   */\n      dup2\n        /* \"#utility.yul\":26361:26391   */\n      gt\n        /* \"#utility.yul\":26358:26414   */\n      iszero\n      tag_612\n      jumpi\n        /* \"#utility.yul\":26394:26412   */\n      tag_613\n      tag_104\n      jump\t// in\n    tag_613:\n        /* \"#utility.yul\":26358:26414   */\n    tag_612:\n        /* \"#utility.yul\":26438:26476   */\n      tag_614\n        /* \"#utility.yul\":26470:26474   */\n      dup3\n        /* \"#utility.yul\":26464:26475   */\n      sload\n        /* \"#utility.yul\":26438:26476   */\n      tag_75\n      jump\t// in\n    tag_614:\n        /* \"#utility.yul\":26523:26590   */\n      tag_615\n        /* \"#utility.yul\":26583:26589   */\n      dup3\n        /* \"#utility.yul\":26575:26581   */\n      dup3\n        /* \"#utility.yul\":26569:26573   */\n      dup6\n        /* \"#utility.yul\":26523:26590   */\n      tag_316\n      jump\t// in\n    tag_615:\n        /* \"#utility.yul\":26617:26618   */\n      0x00\n        /* \"#utility.yul\":26641:26645   */\n      0x20\n        /* \"#utility.yul\":26628:26645   */\n      swap1\n      pop\n        /* \"#utility.yul\":26673:26675   */\n      0x1f\n        /* \"#utility.yul\":26665:26671   */\n      dup4\n        /* \"#utility.yul\":26662:26676   */\n      gt\n        /* \"#utility.yul\":26690:26691   */\n      0x01\n        /* \"#utility.yul\":26685:27303   */\n      dup2\n      eq\n      tag_617\n      jumpi\n        /* \"#utility.yul\":27347:27348   */\n      0x00\n        /* \"#utility.yul\":27364:27370   */\n      dup5\n        /* \"#utility.yul\":27361:27438   */\n      iszero\n      tag_618\n      jumpi\n        /* \"#utility.yul\":27413:27422   */\n      dup3\n        /* \"#utility.yul\":27408:27411   */\n      dup8\n        /* \"#utility.yul\":27404:27423   */\n      add\n        /* \"#utility.yul\":27398:27424   */\n      mload\n        /* \"#utility.yul\":27389:27424   */\n      swap1\n      pop\n        /* \"#utility.yul\":27361:27438   */\n    tag_618:\n        /* \"#utility.yul\":27464:27531   */\n      tag_619\n        /* \"#utility.yul\":27524:27530   */\n      dup6\n        /* \"#utility.yul\":27517:27522   */\n      dup3\n        /* \"#utility.yul\":27464:27531   */\n      tag_319\n      jump\t// in\n    tag_619:\n        /* \"#utility.yul\":27458:27462   */\n      dup7\n        /* \"#utility.yul\":27451:27532   */\n      sstore\n        /* \"#utility.yul\":27320:27542   */\n      pop\n        /* \"#utility.yul\":26655:27542   */\n      jump(tag_616)\n        /* \"#utility.yul\":26685:27303   */\n    tag_617:\n        /* \"#utility.yul\":26737:26741   */\n      0x1f\n        /* \"#utility.yul\":26733:26742   */\n      not\n        /* \"#utility.yul\":26725:26731   */\n      dup5\n        /* \"#utility.yul\":26721:26743   */\n      and\n        /* \"#utility.yul\":26771:26808   */\n      tag_620\n        /* \"#utility.yul\":26803:26807   */\n      dup7\n        /* \"#utility.yul\":26771:26808   */\n      tag_301\n      jump\t// in\n    tag_620:\n        /* \"#utility.yul\":26830:26831   */\n      0x00\n        /* \"#utility.yul\":26844:27052   */\n    tag_621:\n        /* \"#utility.yul\":26858:26865   */\n      dup3\n        /* \"#utility.yul\":26855:26856   */\n      dup2\n        /* \"#utility.yul\":26852:26866   */\n      lt\n        /* \"#utility.yul\":26844:27052   */\n      iszero\n      tag_623\n      jumpi\n        /* \"#utility.yul\":26937:26946   */\n      dup5\n        /* \"#utility.yul\":26932:26935   */\n      dup10\n        /* \"#utility.yul\":26928:26947   */\n      add\n        /* \"#utility.yul\":26922:26948   */\n      mload\n        /* \"#utility.yul\":26914:26920   */\n      dup3\n        /* \"#utility.yul\":26907:26949   */\n      sstore\n        /* \"#utility.yul\":26988:26989   */\n      0x01\n        /* \"#utility.yul\":26980:26986   */\n      dup3\n        /* \"#utility.yul\":26976:26990   */\n      add\n        /* \"#utility.yul\":26966:26990   */\n      swap2\n      pop\n        /* \"#utility.yul\":27035:27037   */\n      0x20\n        /* \"#utility.yul\":27024:27033   */\n      dup6\n        /* \"#utility.yul\":27020:27038   */\n      add\n        /* \"#utility.yul\":27007:27038   */\n      swap5\n      pop\n        /* \"#utility.yul\":26881:26885   */\n      0x20\n        /* \"#utility.yul\":26878:26879   */\n      dup2\n        /* \"#utility.yul\":26874:26886   */\n      add\n        /* \"#utility.yul\":26869:26886   */\n      swap1\n      pop\n        /* \"#utility.yul\":26844:27052   */\n      jump(tag_621)\n    tag_623:\n        /* \"#utility.yul\":27080:27086   */\n      dup7\n        /* \"#utility.yul\":27071:27078   */\n      dup4\n        /* \"#utility.yul\":27068:27087   */\n      lt\n        /* \"#utility.yul\":27065:27244   */\n      iszero\n      tag_624\n      jumpi\n        /* \"#utility.yul\":27138:27147   */\n      dup5\n        /* \"#utility.yul\":27133:27136   */\n      dup10\n        /* \"#utility.yul\":27129:27148   */\n      add\n        /* \"#utility.yul\":27123:27149   */\n      mload\n        /* \"#utility.yul\":27181:27229   */\n      tag_625\n        /* \"#utility.yul\":27223:27227   */\n      0x1f\n        /* \"#utility.yul\":27215:27221   */\n      dup10\n        /* \"#utility.yul\":27211:27228   */\n      and\n        /* \"#utility.yul\":27200:27209   */\n      dup3\n        /* \"#utility.yul\":27181:27229   */\n      tag_318\n      jump\t// in\n    tag_625:\n        /* \"#utility.yul\":27173:27179   */\n      dup4\n        /* \"#utility.yul\":27166:27230   */\n      sstore\n        /* \"#utility.yul\":27088:27244   */\n      pop\n        /* \"#utility.yul\":27065:27244   */\n    tag_624:\n        /* \"#utility.yul\":27290:27291   */\n      0x01\n        /* \"#utility.yul\":27286:27287   */\n      0x02\n        /* \"#utility.yul\":27278:27284   */\n      dup9\n        /* \"#utility.yul\":27274:27288   */\n      mul\n        /* \"#utility.yul\":27270:27292   */\n      add\n        /* \"#utility.yul\":27264:27268   */\n      dup9\n        /* \"#utility.yul\":27257:27293   */\n      sstore\n        /* \"#utility.yul\":26692:27303   */\n      pop\n      pop\n      pop\n        /* \"#utility.yul\":26655:27542   */\n    tag_616:\n      pop\n        /* \"#utility.yul\":26245:27548   */\n      pop\n      pop\n      pop\n        /* \"#utility.yul\":26153:27548   */\n      pop\n      pop\n      jump\t// out\n        /* \"#utility.yul\":27554:28107   */\n    tag_203:\n        /* \"#utility.yul\":27731:27735   */\n      0x00\n        /* \"#utility.yul\":27769:27772   */\n      0x80\n        /* \"#utility.yul\":27758:27767   */\n      dup3\n        /* \"#utility.yul\":27754:27773   */\n      add\n        /* \"#utility.yul\":27746:27773   */\n      swap1\n      pop\n        /* \"#utility.yul\":27783:27854   */\n      tag_627\n        /* \"#utility.yul\":27851:27852   */\n      0x00\n        /* \"#utility.yul\":27840:27849   */\n      dup4\n        /* \"#utility.yul\":27836:27853   */\n      add\n        /* \"#utility.yul\":27827:27833   */\n      dup8\n        /* \"#utility.yul\":27783:27854   */\n      tag_304\n      jump\t// in\n    tag_627:\n        /* \"#utility.yul\":27864:27936   */\n      tag_628\n        /* \"#utility.yul\":27932:27934   */\n      0x20\n        /* \"#utility.yul\":27921:27930   */\n      dup4\n        /* \"#utility.yul\":27917:27935   */\n      add\n        /* \"#utility.yul\":27908:27914   */\n      dup7\n        /* \"#utility.yul\":27864:27936   */\n      tag_261\n      jump\t// in\n    tag_628:\n        /* \"#utility.yul\":27946:28018   */\n      tag_629\n        /* \"#utility.yul\":28014:28016   */\n      0x40\n        /* \"#utility.yul\":28003:28012   */\n      dup4\n        /* \"#utility.yul\":27999:28017   */\n      add\n        /* \"#utility.yul\":27990:27996   */\n      dup6\n        /* \"#utility.yul\":27946:28018   */\n      tag_261\n      jump\t// in\n    tag_629:\n        /* \"#utility.yul\":28028:28100   */\n      tag_630\n        /* \"#utility.yul\":28096:28098   */\n      0x60\n        /* \"#utility.yul\":28085:28094   */\n      dup4\n        /* \"#utility.yul\":28081:28099   */\n      add\n        /* \"#utility.yul\":28072:28078   */\n      dup5\n        /* \"#utility.yul\":28028:28100   */\n      tag_261\n      jump\t// in\n    tag_630:\n        /* \"#utility.yul\":27554:28107   */\n      swap6\n      swap5\n      pop\n      pop\n      pop\n      pop\n      pop\n      jump\t// out\n        /* \"#utility.yul\":28113:28304   */\n    tag_206:\n        /* \"#utility.yul\":28153:28156   */\n      0x00\n        /* \"#utility.yul\":28172:28192   */\n      tag_632\n        /* \"#utility.yul\":28190:28191   */\n      dup3\n        /* \"#utility.yul\":28172:28192   */\n      tag_258\n      jump\t// in\n    tag_632:\n        /* \"#utility.yul\":28167:28192   */\n      swap2\n      pop\n        /* \"#utility.yul\":28206:28226   */\n      tag_633\n        /* \"#utility.yul\":28224:28225   */\n      dup4\n        /* \"#utility.yul\":28206:28226   */\n      tag_258\n      jump\t// in\n    tag_633:\n        /* \"#utility.yul\":28201:28226   */\n      swap3\n      pop\n        /* \"#utility.yul\":28249:28250   */\n      dup3\n        /* \"#utility.yul\":28246:28247   */\n      dup3\n        /* \"#utility.yul\":28242:28251   */\n      add\n        /* \"#utility.yul\":28235:28251   */\n      swap1\n      pop\n        /* \"#utility.yul\":28270:28273   */\n      dup1\n        /* \"#utility.yul\":28267:28268   */\n      dup3\n        /* \"#utility.yul\":28264:28274   */\n      gt\n        /* \"#utility.yul\":28261:28297   */\n      iszero\n      tag_634\n      jumpi\n        /* \"#utility.yul\":28277:28295   */\n      tag_635\n      tag_305\n      jump\t// in\n    tag_635:\n        /* \"#utility.yul\":28261:28297   */\n    tag_634:\n        /* \"#utility.yul\":28113:28304   */\n      swap3\n      swap2\n      pop\n      pop\n      jump\t// out\n        /* \"#utility.yul\":28310:28944   */\n    tag_213:\n        /* \"#utility.yul\":28531:28535   */\n      0x00\n        /* \"#utility.yul\":28569:28571   */\n      0x40\n        /* \"#utility.yul\":28558:28567   */\n      dup3\n        /* \"#utility.yul\":28554:28572   */\n      add\n        /* \"#utility.yul\":28546:28572   */\n      swap1\n      pop\n        /* \"#utility.yul\":28618:28627   */\n      dup2\n        /* \"#utility.yul\":28612:28616   */\n      dup2\n        /* \"#utility.yul\":28608:28628   */\n      sub\n        /* \"#utility.yul\":28604:28605   */\n      0x00\n        /* \"#utility.yul\":28593:28602   */\n      dup4\n        /* \"#utility.yul\":28589:28606   */\n      add\n        /* \"#utility.yul\":28582:28629   */\n      mstore\n        /* \"#utility.yul\":28646:28754   */\n      tag_637\n        /* \"#utility.yul\":28749:28753   */\n      dup2\n        /* \"#utility.yul\":28740:28746   */\n      dup6\n        /* \"#utility.yul\":28646:28754   */\n      tag_293\n      jump\t// in\n    tag_637:\n        /* \"#utility.yul\":28638:28754   */\n      swap1\n      pop\n        /* \"#utility.yul\":28801:28810   */\n      dup2\n        /* \"#utility.yul\":28795:28799   */\n      dup2\n        /* \"#utility.yul\":28791:28811   */\n      sub\n        /* \"#utility.yul\":28786:28788   */\n      0x20\n        /* \"#utility.yul\":28775:28784   */\n      dup4\n        /* \"#utility.yul\":28771:28789   */\n      add\n        /* \"#utility.yul\":28764:28812   */\n      mstore\n        /* \"#utility.yul\":28829:28937   */\n      tag_638\n        /* \"#utility.yul\":28932:28936   */\n      dup2\n        /* \"#utility.yul\":28923:28929   */\n      dup5\n        /* \"#utility.yul\":28829:28937   */\n      tag_293\n      jump\t// in\n    tag_638:\n        /* \"#utility.yul\":28821:28937   */\n      swap1\n      pop\n        /* \"#utility.yul\":28310:28944   */\n      swap4\n      swap3\n      pop\n      pop\n      pop\n      jump\t// out\n        /* \"#utility.yul\":28950:29048   */\n    tag_320:\n        /* \"#utility.yul\":29001:29007   */\n      0x00\n        /* \"#utility.yul\":29035:29040   */\n      dup2\n        /* \"#utility.yul\":29029:29041   */\n      mload\n        /* \"#utility.yul\":29019:29041   */\n      swap1\n      pop\n        /* \"#utility.yul\":28950:29048   */\n      swap2\n      swap1\n      pop\n      jump\t// out\n        /* \"#utility.yul\":29054:29222   */\n    tag_321:\n        /* \"#utility.yul\":29137:29148   */\n      0x00\n        /* \"#utility.yul\":29171:29177   */\n      dup3\n        /* \"#utility.yul\":29166:29169   */\n      dup3\n        /* \"#utility.yul\":29159:29178   */\n      mstore\n        /* \"#utility.yul\":29211:29215   */\n      0x20\n        /* \"#utility.yul\":29206:29209   */\n      dup3\n        /* \"#utility.yul\":29202:29216   */\n      add\n        /* \"#utility.yul\":29187:29216   */\n      swap1\n      pop\n        /* \"#utility.yul\":29054:29222   */\n      swap3\n      swap2\n      pop\n      pop\n      jump\t// out\n        /* \"#utility.yul\":29228:29601   */\n    tag_322:\n        /* \"#utility.yul\":29314:29317   */\n      0x00\n        /* \"#utility.yul\":29342:29380   */\n      tag_642\n        /* \"#utility.yul\":29374:29379   */\n      dup3\n        /* \"#utility.yul\":29342:29380   */\n      tag_320\n      jump\t// in\n    tag_642:\n        /* \"#utility.yul\":29396:29466   */\n      tag_643\n        /* \"#utility.yul\":29459:29465   */\n      dup2\n        /* \"#utility.yul\":29454:29457   */\n      dup6\n        /* \"#utility.yul\":29396:29466   */\n      tag_321\n      jump\t// in\n    tag_643:\n        /* \"#utility.yul\":29389:29466   */\n      swap4\n      pop\n        /* \"#utility.yul\":29475:29540   */\n      tag_644\n        /* \"#utility.yul\":29533:29539   */\n      dup2\n        /* \"#utility.yul\":29528:29531   */\n      dup6\n        /* \"#utility.yul\":29521:29525   */\n      0x20\n        /* \"#utility.yul\":29514:29519   */\n      dup7\n        /* \"#utility.yul\":29510:29526   */\n      add\n        /* \"#utility.yul\":29475:29540   */\n      tag_269\n      jump\t// in\n    tag_644:\n        /* \"#utility.yul\":29565:29594   */\n      tag_645\n        /* \"#utility.yul\":29587:29593   */\n      dup2\n        /* \"#utility.yul\":29565:29594   */\n      tag_270\n      jump\t// in\n    tag_645:\n        /* \"#utility.yul\":29560:29563   */\n      dup5\n        /* \"#utility.yul\":29556:29595   */\n      add\n        /* \"#utility.yul\":29549:29595   */\n      swap2\n      pop\n        /* \"#utility.yul\":29318:29601   */\n      pop\n        /* \"#utility.yul\":29228:29601   */\n      swap3\n      swap2\n      pop\n      pop\n      jump\t// out\n        /* \"#utility.yul\":29607:30358   */\n    tag_217:\n        /* \"#utility.yul\":29830:29834   */\n      0x00\n        /* \"#utility.yul\":29868:29871   */\n      0xa0\n        /* \"#utility.yul\":29857:29866   */\n      dup3\n        /* \"#utility.yul\":29853:29872   */\n      add\n        /* \"#utility.yul\":29845:29872   */\n      swap1\n      pop\n        /* \"#utility.yul\":29882:29953   */\n      tag_647\n        /* \"#utility.yul\":29950:29951   */\n      0x00\n        /* \"#utility.yul\":29939:29948   */\n      dup4\n        /* \"#utility.yul\":29935:29952   */\n      add\n        /* \"#utility.yul\":29926:29932   */\n      dup9\n        /* \"#utility.yul\":29882:29953   */\n      tag_304\n      jump\t// in\n    tag_647:\n        /* \"#utility.yul\":29963:30035   */\n      tag_648\n        /* \"#utility.yul\":30031:30033   */\n      0x20\n        /* \"#utility.yul\":30020:30029   */\n      dup4\n        /* \"#utility.yul\":30016:30034   */\n      add\n        /* \"#utility.yul\":30007:30013   */\n      dup8\n        /* \"#utility.yul\":29963:30035   */\n      tag_304\n      jump\t// in\n    tag_648:\n        /* \"#utility.yul\":30045:30117   */\n      tag_649\n        /* \"#utility.yul\":30113:30115   */\n      0x40\n        /* \"#utility.yul\":30102:30111   */\n      dup4\n        /* \"#utility.yul\":30098:30116   */\n      add\n        /* \"#utility.yul\":30089:30095   */\n      dup7\n        /* \"#utility.yul\":30045:30117   */\n      tag_261\n      jump\t// in\n    tag_649:\n        /* \"#utility.yul\":30127:30199   */\n      tag_650\n        /* \"#utility.yul\":30195:30197   */\n      0x60\n        /* \"#utility.yul\":30184:30193   */\n      dup4\n        /* \"#utility.yul\":30180:30198   */\n      add\n        /* \"#utility.yul\":30171:30177   */\n      dup6\n        /* \"#utility.yul\":30127:30199   */\n      tag_261\n      jump\t// in\n    tag_650:\n        /* \"#utility.yul\":30247:30256   */\n      dup2\n        /* \"#utility.yul\":30241:30245   */\n      dup2\n        /* \"#utility.yul\":30237:30257   */\n      sub\n        /* \"#utility.yul\":30231:30234   */\n      0x80\n        /* \"#utility.yul\":30220:30229   */\n      dup4\n        /* \"#utility.yul\":30216:30235   */\n      add\n        /* \"#utility.yul\":30209:30258   */\n      mstore\n        /* \"#utility.yul\":30275:30351   */\n      tag_651\n        /* \"#utility.yul\":30346:30350   */\n      dup2\n        /* \"#utility.yul\":30337:30343   */\n      dup5\n        /* \"#utility.yul\":30275:30351   */\n      tag_322\n      jump\t// in\n    tag_651:\n        /* \"#utility.yul\":30267:30351   */\n      swap1\n      pop\n        /* \"#utility.yul\":29607:30358   */\n      swap7\n      swap6\n      pop\n      pop\n      pop\n      pop\n      pop\n      pop\n      jump\t// out\n        /* \"#utility.yul\":30364:30505   */\n    tag_323:\n        /* \"#utility.yul\":30420:30425   */\n      0x00\n        /* \"#utility.yul\":30451:30457   */\n      dup2\n        /* \"#utility.yul\":30445:30458   */\n      mload\n        /* \"#utility.yul\":30436:30458   */\n      swap1\n      pop\n        /* \"#utility.yul\":30467:30499   */\n      tag_653\n        /* \"#utility.yul\":30493:30498   */\n      dup2\n        /* \"#utility.yul\":30467:30499   */\n      tag_263\n      jump\t// in\n    tag_653:\n        /* \"#utility.yul\":30364:30505   */\n      swap3\n      swap2\n      pop\n      pop\n      jump\t// out\n        /* \"#utility.yul\":30511:30860   */\n    tag_220:\n        /* \"#utility.yul\":30580:30586   */\n      0x00\n        /* \"#utility.yul\":30629:30631   */\n      0x20\n        /* \"#utility.yul\":30617:30626   */\n      dup3\n        /* \"#utility.yul\":30608:30615   */\n      dup5\n        /* \"#utility.yul\":30604:30627   */\n      sub\n        /* \"#utility.yul\":30600:30632   */\n      slt\n        /* \"#utility.yul\":30597:30716   */\n      iszero\n      tag_655\n      jumpi\n        /* \"#utility.yul\":30635:30714   */\n      tag_656\n      tag_252\n      jump\t// in\n    tag_656:\n        /* \"#utility.yul\":30597:30716   */\n    tag_655:\n        /* \"#utility.yul\":30755:30756   */\n      0x00\n        /* \"#utility.yul\":30780:30843   */\n      tag_657\n        /* \"#utility.yul\":30835:30842   */\n      dup5\n        /* \"#utility.yul\":30826:30832   */\n      dup3\n        /* \"#utility.yul\":30815:30824   */\n      dup6\n        /* \"#utility.yul\":30811:30833   */\n      add\n        /* \"#utility.yul\":30780:30843   */\n      tag_323\n      jump\t// in\n    tag_657:\n        /* \"#utility.yul\":30770:30843   */\n      swap2\n      pop\n        /* \"#utility.yul\":30726:30853   */\n      pop\n        /* \"#utility.yul\":30511:30860   */\n      swap3\n      swap2\n      pop\n      pop\n      jump\t// out\n        /* \"#utility.yul\":30866:31919   */\n    tag_236:\n        /* \"#utility.yul\":31189:31193   */\n      0x00\n        /* \"#utility.yul\":31227:31230   */\n      0xa0\n        /* \"#utility.yul\":31216:31225   */\n      dup3\n        /* \"#utility.yul\":31212:31231   */\n      add\n        /* \"#utility.yul\":31204:31231   */\n      swap1\n      pop\n        /* \"#utility.yul\":31241:31312   */\n      tag_659\n        /* \"#utility.yul\":31309:31310   */\n      0x00\n        /* \"#utility.yul\":31298:31307   */\n      dup4\n        /* \"#utility.yul\":31294:31311   */\n      add\n        /* \"#utility.yul\":31285:31291   */\n      dup9\n        /* \"#utility.yul\":31241:31312   */\n      tag_304\n      jump\t// in\n    tag_659:\n        /* \"#utility.yul\":31322:31394   */\n      tag_660\n        /* \"#utility.yul\":31390:31392   */\n      0x20\n        /* \"#utility.yul\":31379:31388   */\n      dup4\n        /* \"#utility.yul\":31375:31393   */\n      add\n        /* \"#utility.yul\":31366:31372   */\n      dup8\n        /* \"#utility.yul\":31322:31394   */\n      tag_304\n      jump\t// in\n    tag_660:\n        /* \"#utility.yul\":31441:31450   */\n      dup2\n        /* \"#utility.yul\":31435:31439   */\n      dup2\n        /* \"#utility.yul\":31431:31451   */\n      sub\n        /* \"#utility.yul\":31426:31428   */\n      0x40\n        /* \"#utility.yul\":31415:31424   */\n      dup4\n        /* \"#utility.yul\":31411:31429   */\n      add\n        /* \"#utility.yul\":31404:31452   */\n      mstore\n        /* \"#utility.yul\":31469:31577   */\n      tag_661\n        /* \"#utility.yul\":31572:31576   */\n      dup2\n        /* \"#utility.yul\":31563:31569   */\n      dup7\n        /* \"#utility.yul\":31469:31577   */\n      tag_293\n      jump\t// in\n    tag_661:\n        /* \"#utility.yul\":31461:31577   */\n      swap1\n      pop\n        /* \"#utility.yul\":31624:31633   */\n      dup2\n        /* \"#utility.yul\":31618:31622   */\n      dup2\n        /* \"#utility.yul\":31614:31634   */\n      sub\n        /* \"#utility.yul\":31609:31611   */\n      0x60\n        /* \"#utility.yul\":31598:31607   */\n      dup4\n        /* \"#utility.yul\":31594:31612   */\n      add\n        /* \"#utility.yul\":31587:31635   */\n      mstore\n        /* \"#utility.yul\":31652:31760   */\n      tag_662\n        /* \"#utility.yul\":31755:31759   */\n      dup2\n        /* \"#utility.yul\":31746:31752   */\n      dup6\n        /* \"#utility.yul\":31652:31760   */\n      tag_293\n      jump\t// in\n    tag_662:\n        /* \"#utility.yul\":31644:31760   */\n      swap1\n      pop\n        /* \"#utility.yul\":31808:31817   */\n      dup2\n        /* \"#utility.yul\":31802:31806   */\n      dup2\n        /* \"#utility.yul\":31798:31818   */\n      sub\n        /* \"#utility.yul\":31792:31795   */\n      0x80\n        /* \"#utility.yul\":31781:31790   */\n      dup4\n        /* \"#utility.yul\":31777:31796   */\n      add\n        /* \"#utility.yul\":31770:31819   */\n      mstore\n        /* \"#utility.yul\":31836:31912   */\n      tag_663\n        /* \"#utility.yul\":31907:31911   */\n      dup2\n        /* \"#utility.yul\":31898:31904   */\n      dup5\n        /* \"#utility.yul\":31836:31912   */\n      tag_322\n      jump\t// in\n    tag_663:\n        /* \"#utility.yul\":31828:31912   */\n      swap1\n      pop\n        /* \"#utility.yul\":30866:31919   */\n      swap7\n      swap6\n      pop\n      pop\n      pop\n      pop\n      pop\n      pop\n      jump\t// out\n\n    auxdata: 0xa26469706673582212201c9bc8ffc77b814d6da0adac9cabc17ac141f86175dde5a6265fd86ec23c04eb64736f6c634300081a0033\n}\n",
				"bytecode": {
					"linkReferences": {},
					"object": "608060405260405180602001604052805f81525060039081610021919061029f565b5034801561002d575f80fd5b5060405180602001604052805f81525061004c8161005260201b60201c565b5061036e565b8060029081610061919061029f565b5050565b5f81519050919050565b7f4e487b71000000000000000000000000000000000000000000000000000000005f52604160045260245ffd5b7f4e487b71000000000000000000000000000000000000000000000000000000005f52602260045260245ffd5b5f60028204905060018216806100e057607f821691505b6020821081036100f3576100f261009c565b5b50919050565b5f819050815f5260205f209050919050565b5f6020601f8301049050919050565b5f82821b905092915050565b5f600883026101557fffffffffffffffffffffffffffffffffffffffffffffffffffffffffffffffff8261011a565b61015f868361011a565b95508019841693508086168417925050509392505050565b5f819050919050565b5f819050919050565b5f6101a361019e61019984610177565b610180565b610177565b9050919050565b5f819050919050565b6101bc83610189565b6101d06101c8826101aa565b848454610126565b825550505050565b5f90565b6101e46101d8565b6101ef8184846101b3565b505050565b5b81811015610212576102075f826101dc565b6001810190506101f5565b5050565b601f82111561025757610228816100f9565b6102318461010b565b81016020851015610240578190505b61025461024c8561010b565b8301826101f4565b50505b505050565b5f82821c905092915050565b5f6102775f198460080261025c565b1980831691505092915050565b5f61028f8383610268565b9150826002028217905092915050565b6102a882610065565b67ffffffffffffffff8111156102c1576102c061006f565b5b6102cb82546100c9565b6102d6828285610216565b5f60209050601f831160018114610307575f84156102f5578287015190505b6102ff8582610284565b865550610366565b601f198416610315866100f9565b5f5b8281101561033c57848901518255600182019150602085019450602081019050610317565b868310156103595784890151610355601f891682610268565b8355505b6001600288020188555050505b505050505050565b6125c58061037b5f395ff3fe608060405234801561000f575f80fd5b50600436106100a6575f3560e01c80632eb2c2d61161006f5780632eb2c2d6146101745780634e1273f41461019057806377097fc8146101c0578063a22cb465146101dc578063e985e9c5146101f8578063f242432a14610228576100a6565b8062fdd58e146100aa57806301ffc9a7146100da5780630e89341c1461010a5780630febdd491461013a5780631c75cfb414610156575b5f80fd5b6100c460048036038101906100bf91906115a7565b610244565b6040516100d191906115f4565b60405180910390f35b6100f460048036038101906100ef9190611662565b610299565b60405161010191906116a7565b60405180910390f35b610124600480360381019061011f91906116c0565b61037a565b604051610131919061175b565b60405180910390f35b610154600480360381019061014f919061177b565b610459565b005b61015e61047a565b60405161016b91906115f4565b60405180910390f35b61018e600480360381019061018991906119cf565b610480565b005b6101aa60048036038101906101a59190611b5a565b610527565b6040516101b79190611c87565b60405180910390f35b6101da60048036038101906101d59190611d45565b61062e565b005b6101f660048036038101906101f19190611dc9565b610671565b005b610212600480360381019061020d9190611e07565b610687565b60405161021f91906116a7565b60405180910390f35b610242600480360381019061023d9190611e45565b610715565b005b5f805f8381526020019081526020015f205f8473ffffffffffffffffffffffffffffffffffffffff1673ffffffffffffffffffffffffffffffffffffffff1681526020019081526020015f2054905092915050565b5f7fd9b67a26000000000000000000000000000000000000000000000000000000007bffffffffffffffffffffffffffffffffffffffffffffffffffffffff1916827bffffffffffffffffffffffffffffffffffffffffffffffffffffffff1916148061036357507f0e89341c000000000000000000000000000000000000000000000000000000007bffffffffffffffffffffffffffffffffffffffffffffffffffffffff1916827bffffffffffffffffffffffffffffffffffffffffffffffffffffffff1916145b806103735750610372826107bc565b5b9050919050565b60605f60045f8481526020019081526020015f20805461039990611f05565b80601f01602080910402602001604051908101604052809291908181526020018280546103c590611f05565b80156104105780601f106103e757610100808354040283529160200191610410565b820191905f5260205f20905b8154815290600101906020018083116103f357829003601f168201915b505050505090505f81511161042d5761042883610825565b610451565b600381604051602001610441929190612001565b6040516020818303038152906040525b915050919050565b6104748484848460405180602001604052805f815250610715565b50505050565b60055481565b5f6104896108b7565b90508073ffffffffffffffffffffffffffffffffffffffff168673ffffffffffffffffffffffffffffffffffffffff16141580156104ce57506104cc8682610687565b155b156105125780866040517fe237d922000000000000000000000000000000000000000000000000000000008152600401610509929190612033565b60405180910390fd5b61051f86868686866108be565b505050505050565b6060815183511461057357815183516040517f5b05999100000000000000000000000000000000000000000000000000000000815260040161056a92919061205a565b60405180910390fd5b5f835167ffffffffffffffff81111561058f5761058e6117e3565b5b6040519080825280602002602001820160405280156105bd5781602001602082028036833780820191505090505b5090505f5b8451811015610623576105f96105e182876109b290919063ffffffff16565b6105f483876109c590919063ffffffff16565b610244565b82828151811061060c5761060b612081565b5b6020026020010181815250508060010190506105c2565b508091505092915050565b61064a336005548460405180602001604052805f8152506109d8565b61065660055482610a6d565b60055f815480929190610668906120db565b91905055505050565b61068361067c6108b7565b8383610ad0565b5050565b5f60015f8473ffffffffffffffffffffffffffffffffffffffff1673ffffffffffffffffffffffffffffffffffffffff1681526020019081526020015f205f8373ffffffffffffffffffffffffffffffffffffffff1673ffffffffffffffffffffffffffffffffffffffff1681526020019081526020015f205f9054906101000a900460ff16905092915050565b5f61071e6108b7565b90508073ffffffffffffffffffffffffffffffffffffffff168673ffffffffffffffffffffffffffffffffffffffff161415801561076357506107618682610687565b155b156107a75780866040517fe237d92200000000000000000000000000000000000000000000000000000000815260040161079e929190612033565b60405180910390fd5b6107b48686868686610c39565b505050505050565b5f7f01ffc9a7000000000000000000000000000000000000000000000000000000007bffffffffffffffffffffffffffffffffffffffffffffffffffffffff1916827bffffffffffffffffffffffffffffffffffffffffffffffffffffffff1916149050919050565b60606002805461083490611f05565b80601f016020809104026020016040519081016040528092919081815260200182805461086090611f05565b80156108ab5780601f10610882576101008083540402835291602001916108ab565b820191905f5260205f20905b81548152906001019060200180831161088e57829003601f168201915b50505050509050919050565b5f33905090565b5f73ffffffffffffffffffffffffffffffffffffffff168473ffffffffffffffffffffffffffffffffffffffff160361092e575f6040517f57f447ce0000000000000000000000000000000000000000000000000000000081526004016109259190612122565b60405180910390fd5b5f73ffffffffffffffffffffffffffffffffffffffff168573ffffffffffffffffffffffffffffffffffffffff160361099e575f6040517f01a835140000000000000000000000000000000000000000000000000000000081526004016109959190612122565b60405180910390fd5b6109ab8585858585610d3f565b5050505050565b5f60208202602084010151905092915050565b5f60208202602084010151905092915050565b5f73ffffffffffffffffffffffffffffffffffffffff168473ffffffffffffffffffffffffffffffffffffffff1603610a48575f6040517f57f447ce000000000000000000000000000000000000000000000000000000008152600401610a3f9190612122565b60405180910390fd5b5f80610a548585610deb565b91509150610a655f87848487610d3f565b505050505050565b8060045f8481526020019081526020015f209081610a8b91906122c6565b50817f6bb7ff708619ba0610cba295a58592e0451dee2622938c8755667688daf3529b610ab78461037a565b604051610ac4919061175b565b60405180910390a25050565b5f73ffffffffffffffffffffffffffffffffffffffff168273ffffffffffffffffffffffffffffffffffffffff1603610b40575f6040517fced3e100000000000000000000000000000000000000000000000000000000008152600401610b379190612122565b60405180910390fd5b8060015f8573ffffffffffffffffffffffffffffffffffffffff1673ffffffffffffffffffffffffffffffffffffffff1681526020019081526020015f205f8473ffffffffffffffffffffffffffffffffffffffff1673ffffffffffffffffffffffffffffffffffffffff1681526020019081526020015f205f6101000a81548160ff0219169083151502179055508173ffffffffffffffffffffffffffffffffffffffff168373ffffffffffffffffffffffffffffffffffffffff167f17307eab39ab6107e8899845ad3d59bd9653f200f220920489ca2b5937696c3183604051610c2c91906116a7565b60405180910390a3505050565b5f73ffffffffffffffffffffffffffffffffffffffff168473ffffffffffffffffffffffffffffffffffffffff1603610ca9575f6040517f57f447ce000000000000000000000000000000000000000000000000000000008152600401610ca09190612122565b60405180910390fd5b5f73ffffffffffffffffffffffffffffffffffffffff168573ffffffffffffffffffffffffffffffffffffffff1603610d19575f6040517f01a83514000000000000000000000000000000000000000000000000000000008152600401610d109190612122565b60405180910390fd5b5f80610d258585610deb565b91509150610d368787848487610d3f565b50505050505050565b610d4b85858585610e1b565b5f73ffffffffffffffffffffffffffffffffffffffff168473ffffffffffffffffffffffffffffffffffffffff1614610de4575f610d876108b7565b90506001845103610dd3575f610da65f866109c590919063ffffffff16565b90505f610dbc5f866109c590919063ffffffff16565b9050610dcc8389898585896111ab565b5050610de2565b610de181878787878761135a565b5b505b5050505050565b60608060405191506001825283602083015260408201905060018152826020820152604081016040529250929050565b8051825114610e6557815181516040517f5b059991000000000000000000000000000000000000000000000000000000008152600401610e5c92919061205a565b60405180910390fd5b5f610e6e6108b7565b90505f5b835181101561106a575f610e8f82866109c590919063ffffffff16565b90505f610ea583866109c590919063ffffffff16565b90505f73ffffffffffffffffffffffffffffffffffffffff168873ffffffffffffffffffffffffffffffffffffffff1614610fc8575f805f8481526020019081526020015f205f8a73ffffffffffffffffffffffffffffffffffffffff1673ffffffffffffffffffffffffffffffffffffffff1681526020019081526020015f2054905081811015610f7457888183856040517f03dee4c5000000000000000000000000000000000000000000000000000000008152600401610f6b9493929190612395565b60405180910390fd5b8181035f808581526020019081526020015f205f8b73ffffffffffffffffffffffffffffffffffffffff1673ffffffffffffffffffffffffffffffffffffffff1681526020019081526020015f2081905550505b5f73ffffffffffffffffffffffffffffffffffffffff168773ffffffffffffffffffffffffffffffffffffffff161461105d57805f808481526020019081526020015f205f8973ffffffffffffffffffffffffffffffffffffffff1673ffffffffffffffffffffffffffffffffffffffff1681526020019081526020015f205f82825461105591906123d8565b925050819055505b5050806001019050610e72565b506001835103611125575f6110885f856109c590919063ffffffff16565b90505f61109e5f856109c590919063ffffffff16565b90508573ffffffffffffffffffffffffffffffffffffffff168773ffffffffffffffffffffffffffffffffffffffff168473ffffffffffffffffffffffffffffffffffffffff167fc3d58168c5ae7397731d063d5bbf3d657854427343f4c083240f7aacaa2d0f62858560405161111692919061205a565b60405180910390a450506111a4565b8373ffffffffffffffffffffffffffffffffffffffff168573ffffffffffffffffffffffffffffffffffffffff168273ffffffffffffffffffffffffffffffffffffffff167f4a39dc06d4c0dbc64b70af90fd698a233a518aa5d07e595d983b8c0526c8f7fb868660405161119b92919061240b565b60405180910390a45b5050505050565b5f8473ffffffffffffffffffffffffffffffffffffffff163b1115611352578373ffffffffffffffffffffffffffffffffffffffff1663f23a6e6187878686866040518663ffffffff1660e01b815260040161120b959493929190612492565b6020604051808303815f875af192505050801561124657506040513d601f19601f8201168201806040525081019061124391906124fe565b60015b6112c7573d805f8114611274576040519150601f19603f3d011682016040523d82523d5f602084013e611279565b606091505b505f8151036112bf57846040517f57f447ce0000000000000000000000000000000000000000000000000000000081526004016112b69190612122565b60405180910390fd5b805181602001fd5b63f23a6e6160e01b7bffffffffffffffffffffffffffffffffffffffffffffffffffffffff1916817bffffffffffffffffffffffffffffffffffffffffffffffffffffffff19161461135057846040517f57f447ce0000000000000000000000000000000000000000000000000000000081526004016113479190612122565b60405180910390fd5b505b505050505050565b5f8473ffffffffffffffffffffffffffffffffffffffff163b1115611501578373ffffffffffffffffffffffffffffffffffffffff1663bc197c8187878686866040518663ffffffff1660e01b81526004016113ba959493929190612529565b6020604051808303815f875af19250505080156113f557506040513d601f19601f820116820180604052508101906113f291906124fe565b60015b611476573d805f8114611423576040519150601f19603f3d011682016040523d82523d5f602084013e611428565b606091505b505f81510361146e57846040517f57f447ce0000000000000000000000000000000000000000000000000000000081526004016114659190612122565b60405180910390fd5b805181602001fd5b63bc197c8160e01b7bffffffffffffffffffffffffffffffffffffffffffffffffffffffff1916817bffffffffffffffffffffffffffffffffffffffffffffffffffffffff1916146114ff57846040517f57f447ce0000000000000000000000000000000000000000000000000000000081526004016114f69190612122565b60405180910390fd5b505b505050505050565b5f604051905090565b5f80fd5b5f80fd5b5f73ffffffffffffffffffffffffffffffffffffffff82169050919050565b5f6115438261151a565b9050919050565b61155381611539565b811461155d575f80fd5b50565b5f8135905061156e8161154a565b92915050565b5f819050919050565b61158681611574565b8114611590575f80fd5b50565b5f813590506115a18161157d565b92915050565b5f80604083850312156115bd576115bc611512565b5b5f6115ca85828601611560565b92505060206115db85828601611593565b9150509250929050565b6115ee81611574565b82525050565b5f6020820190506116075f8301846115e5565b92915050565b5f7fffffffff0000000000000000000000000000000000000000000000000000000082169050919050565b6116418161160d565b811461164b575f80fd5b50565b5f8135905061165c81611638565b92915050565b5f6020828403121561167757611676611512565b5b5f6116848482850161164e565b91505092915050565b5f8115159050919050565b6116a18161168d565b82525050565b5f6020820190506116ba5f830184611698565b92915050565b5f602082840312156116d5576116d4611512565b5b5f6116e284828501611593565b91505092915050565b5f81519050919050565b5f82825260208201905092915050565b8281835e5f83830152505050565b5f601f19601f8301169050919050565b5f61172d826116eb565b61173781856116f5565b9350611747818560208601611705565b61175081611713565b840191505092915050565b5f6020820190508181035f8301526117738184611723565b905092915050565b5f805f806080858703121561179357611792611512565b5b5f6117a087828801611560565b94505060206117b187828801611560565b93505060406117c287828801611593565b92505060606117d387828801611593565b91505092959194509250565b5f80fd5b7f4e487b71000000000000000000000000000000000000000000000000000000005f52604160045260245ffd5b61181982611713565b810181811067ffffffffffffffff82111715611838576118376117e3565b5b80604052505050565b5f61184a611509565b90506118568282611810565b919050565b5f67ffffffffffffffff821115611875576118746117e3565b5b602082029050602081019050919050565b5f80fd5b5f61189c6118978461185b565b611841565b905080838252602082019050602084028301858111156118bf576118be611886565b5b835b818110156118e857806118d48882611593565b8452602084019350506020810190506118c1565b5050509392505050565b5f82601f830112611906576119056117df565b5b813561191684826020860161188a565b91505092915050565b5f80fd5b5f67ffffffffffffffff82111561193d5761193c6117e3565b5b61194682611713565b9050602081019050919050565b828183375f83830152505050565b5f61197361196e84611923565b611841565b90508281526020810184848401111561198f5761198e61191f565b5b61199a848285611953565b509392505050565b5f82601f8301126119b6576119b56117df565b5b81356119c6848260208601611961565b91505092915050565b5f805f805f60a086880312156119e8576119e7611512565b5b5f6119f588828901611560565b9550506020611a0688828901611560565b945050604086013567ffffffffffffffff811115611a2757611a26611516565b5b611a33888289016118f2565b935050606086013567ffffffffffffffff811115611a5457611a53611516565b5b611a60888289016118f2565b925050608086013567ffffffffffffffff811115611a8157611a80611516565b5b611a8d888289016119a2565b9150509295509295909350565b5f67ffffffffffffffff821115611ab457611ab36117e3565b5b602082029050602081019050919050565b5f611ad7611ad284611a9a565b611841565b90508083825260208201905060208402830185811115611afa57611af9611886565b5b835b81811015611b235780611b0f8882611560565b845260208401935050602081019050611afc565b5050509392505050565b5f82601f830112611b4157611b406117df565b5b8135611b51848260208601611ac5565b91505092915050565b5f8060408385031215611b7057611b6f611512565b5b5f83013567ffffffffffffffff811115611b8d57611b8c611516565b5b611b9985828601611b2d565b925050602083013567ffffffffffffffff811115611bba57611bb9611516565b5b611bc6858286016118f2565b9150509250929050565b5f81519050919050565b5f82825260208201905092915050565b5f819050602082019050919050565b611c0281611574565b82525050565b5f611c138383611bf9565b60208301905092915050565b5f602082019050919050565b5f611c3582611bd0565b611c3f8185611bda565b9350611c4a83611bea565b805f5b83811015611c7a578151611c618882611c08565b9750611c6c83611c1f565b925050600181019050611c4d565b5085935050505092915050565b5f6020820190508181035f830152611c9f8184611c2b565b905092915050565b5f67ffffffffffffffff821115611cc157611cc06117e3565b5b611cca82611713565b9050602081019050919050565b5f611ce9611ce484611ca7565b611841565b905082815260208101848484011115611d0557611d0461191f565b5b611d10848285611953565b509392505050565b5f82601f830112611d2c57611d2b6117df565b5b8135611d3c848260208601611cd7565b91505092915050565b5f8060408385031215611d5b57611d5a611512565b5b5f611d6885828601611593565b925050602083013567ffffffffffffffff811115611d8957611d88611516565b5b611d9585828601611d18565b9150509250929050565b611da88161168d565b8114611db2575f80fd5b50565b5f81359050611dc381611d9f565b92915050565b5f8060408385031215611ddf57611dde611512565b5b5f611dec85828601611560565b9250506020611dfd85828601611db5565b9150509250929050565b5f8060408385031215611e1d57611e1c611512565b5b5f611e2a85828601611560565b9250506020611e3b85828601611560565b9150509250929050565b5f805f805f60a08688031215611e5e57611e5d611512565b5b5f611e6b88828901611560565b9550506020611e7c88828901611560565b9450506040611e8d88828901611593565b9350506060611e9e88828901611593565b925050608086013567ffffffffffffffff811115611ebf57611ebe611516565b5b611ecb888289016119a2565b9150509295509295909350565b7f4e487b71000000000000000000000000000000000000000000000000000000005f52602260045260245ffd5b5f6002820490506001821680611f1c57607f821691505b602082108103611f2f57611f2e611ed8565b5b50919050565b5f81905092915050565b5f819050815f5260205f209050919050565b5f8154611f5d81611f05565b611f678186611f35565b9450600182165f8114611f815760018114611f9657611fc8565b60ff1983168652811515820286019350611fc8565b611f9f85611f3f565b5f5b83811015611fc057815481890152600182019150602081019050611fa1565b838801955050505b50505092915050565b5f611fdb826116eb565b611fe58185611f35565b9350611ff5818560208601611705565b80840191505092915050565b5f61200c8285611f51565b91506120188284611fd1565b91508190509392505050565b61202d81611539565b82525050565b5f6040820190506120465f830185612024565b6120536020830184612024565b9392505050565b5f60408201905061206d5f8301856115e5565b61207a60208301846115e5565b9392505050565b7f4e487b71000000000000000000000000000000000000000000000000000000005f52603260045260245ffd5b7f4e487b71000000000000000000000000000000000000000000000000000000005f52601160045260245ffd5b5f6120e582611574565b91507fffffffffffffffffffffffffffffffffffffffffffffffffffffffffffffffff8203612117576121166120ae565b5b600182019050919050565b5f6020820190506121355f830184612024565b92915050565b5f6020601f8301049050919050565b5f82821b905092915050565b5f600883026121857fffffffffffffffffffffffffffffffffffffffffffffffffffffffffffffffff8261214a565b61218f868361214a565b95508019841693508086168417925050509392505050565b5f819050919050565b5f6121ca6121c56121c084611574565b6121a7565b611574565b9050919050565b5f819050919050565b6121e3836121b0565b6121f76121ef826121d1565b848454612156565b825550505050565b5f90565b61220b6121ff565b6122168184846121da565b505050565b5b818110156122395761222e5f82612203565b60018101905061221c565b5050565b601f82111561227e5761224f81611f3f565b6122588461213b565b81016020851015612267578190505b61227b6122738561213b565b83018261221b565b50505b505050565b5f82821c905092915050565b5f61229e5f1984600802612283565b1980831691505092915050565b5f6122b6838361228f565b9150826002028217905092915050565b6122cf826116eb565b67ffffffffffffffff8111156122e8576122e76117e3565b5b6122f28254611f05565b6122fd82828561223d565b5f60209050601f83116001811461232e575f841561231c578287015190505b61232685826122ab565b86555061238d565b601f19841661233c86611f3f565b5f5b828110156123635784890151825560018201915060208501945060208101905061233e565b86831015612380578489015161237c601f89168261228f565b8355505b6001600288020188555050505b505050505050565b5f6080820190506123a85f830187612024565b6123b560208301866115e5565b6123c260408301856115e5565b6123cf60608301846115e5565b95945050505050565b5f6123e282611574565b91506123ed83611574565b9250828201905080821115612405576124046120ae565b5b92915050565b5f6040820190508181035f8301526124238185611c2b565b905081810360208301526124378184611c2b565b90509392505050565b5f81519050919050565b5f82825260208201905092915050565b5f61246482612440565b61246e818561244a565b935061247e818560208601611705565b61248781611713565b840191505092915050565b5f60a0820190506124a55f830188612024565b6124b26020830187612024565b6124bf60408301866115e5565b6124cc60608301856115e5565b81810360808301526124de818461245a565b90509695505050505050565b5f815190506124f881611638565b92915050565b5f6020828403121561251357612512611512565b5b5f612520848285016124ea565b91505092915050565b5f60a08201905061253c5f830188612024565b6125496020830187612024565b818103604083015261255b8186611c2b565b9050818103606083015261256f8185611c2b565b90508181036080830152612583818461245a565b9050969550505050505056fea26469706673582212201c9bc8ffc77b814d6da0adac9cabc17ac141f86175dde5a6265fd86ec23c04eb64736f6c634300081a0033",
					"opcodes": "PUSH1 0x80 PUSH1 0x40 MSTORE PUSH1 0x40 MLOAD DUP1 PUSH1 0x20 ADD PUSH1 0x40 MSTORE DUP1 PUSH0 DUP2 MSTORE POP PUSH1 0x3 SWAP1 DUP2 PUSH2 0x21 SWAP2 SWAP1 PUSH2 0x29F JUMP JUMPDEST POP CALLVALUE DUP1 ISZERO PUSH2 0x2D JUMPI PUSH0 DUP1 REVERT JUMPDEST POP PUSH1 0x40 MLOAD DUP1 PUSH1 0x20 ADD PUSH1 0x40 MSTORE DUP1 PUSH0 DUP2 MSTORE POP PUSH2 0x4C DUP2 PUSH2 0x52 PUSH1 0x20 SHL PUSH1 0x20 SHR JUMP JUMPDEST POP PUSH2 0x36E JUMP JUMPDEST DUP1 PUSH1 0x2 SWAP1 DUP2 PUSH2 0x61 SWAP2 SWAP1 PUSH2 0x29F JUMP JUMPDEST POP POP JUMP JUMPDEST PUSH0 DUP2 MLOAD SWAP1 POP SWAP2 SWAP1 POP JUMP JUMPDEST PUSH32 0x4E487B7100000000000000000000000000000000000000000000000000000000 PUSH0 MSTORE PUSH1 0x41 PUSH1 0x4 MSTORE PUSH1 0x24 PUSH0 REVERT JUMPDEST PUSH32 0x4E487B7100000000000000000000000000000000000000000000000000000000 PUSH0 MSTORE PUSH1 0x22 PUSH1 0x4 MSTORE PUSH1 0x24 PUSH0 REVERT JUMPDEST PUSH0 PUSH1 0x2 DUP3 DIV SWAP1 POP PUSH1 0x1 DUP3 AND DUP1 PUSH2 0xE0 JUMPI PUSH1 0x7F DUP3 AND SWAP2 POP JUMPDEST PUSH1 0x20 DUP3 LT DUP2 SUB PUSH2 0xF3 JUMPI PUSH2 0xF2 PUSH2 0x9C JUMP JUMPDEST JUMPDEST POP SWAP2 SWAP1 POP JUMP JUMPDEST PUSH0 DUP2 SWAP1 POP DUP2 PUSH0 MSTORE PUSH1 0x20 PUSH0 KECCAK256 SWAP1 POP SWAP2 SWAP1 POP JUMP JUMPDEST PUSH0 PUSH1 0x20 PUSH1 0x1F DUP4 ADD DIV SWAP1 POP SWAP2 SWAP1 POP JUMP JUMPDEST PUSH0 DUP3 DUP3 SHL SWAP1 POP SWAP3 SWAP2 POP POP JUMP JUMPDEST PUSH0 PUSH1 0x8 DUP4 MUL PUSH2 0x155 PUSH32 0xFFFFFFFFFFFFFFFFFFFFFFFFFFFFFFFFFFFFFFFFFFFFFFFFFFFFFFFFFFFFFFFF DUP3 PUSH2 0x11A JUMP JUMPDEST PUSH2 0x15F DUP7 DUP4 PUSH2 0x11A JUMP JUMPDEST SWAP6 POP DUP1 NOT DUP5 AND SWAP4 POP DUP1 DUP7 AND DUP5 OR SWAP3 POP POP POP SWAP4 SWAP3 POP POP POP JUMP JUMPDEST PUSH0 DUP2 SWAP1 POP SWAP2 SWAP1 POP JUMP JUMPDEST PUSH0 DUP2 SWAP1 POP SWAP2 SWAP1 POP JUMP JUMPDEST PUSH0 PUSH2 0x1A3 PUSH2 0x19E PUSH2 0x199 DUP5 PUSH2 0x177 JUMP JUMPDEST PUSH2 0x180 JUMP JUMPDEST PUSH2 0x177 JUMP JUMPDEST SWAP1 POP SWAP2 SWAP1 POP JUMP JUMPDEST PUSH0 DUP2 SWAP1 POP SWAP2 SWAP1 POP JUMP JUMPDEST PUSH2 0x1BC DUP4 PUSH2 0x189 JUMP JUMPDEST PUSH2 0x1D0 PUSH2 0x1C8 DUP3 PUSH2 0x1AA JUMP JUMPDEST DUP5 DUP5 SLOAD PUSH2 0x126 JUMP JUMPDEST DUP3 SSTORE POP POP POP POP JUMP JUMPDEST PUSH0 SWAP1 JUMP JUMPDEST PUSH2 0x1E4 PUSH2 0x1D8 JUMP JUMPDEST PUSH2 0x1EF DUP2 DUP5 DUP5 PUSH2 0x1B3 JUMP JUMPDEST POP POP POP JUMP JUMPDEST JUMPDEST DUP2 DUP2 LT ISZERO PUSH2 0x212 JUMPI PUSH2 0x207 PUSH0 DUP3 PUSH2 0x1DC JUMP JUMPDEST PUSH1 0x1 DUP2 ADD SWAP1 POP PUSH2 0x1F5 JUMP JUMPDEST POP POP JUMP JUMPDEST PUSH1 0x1F DUP3 GT ISZERO PUSH2 0x257 JUMPI PUSH2 0x228 DUP2 PUSH2 0xF9 JUMP JUMPDEST PUSH2 0x231 DUP5 PUSH2 0x10B JUMP JUMPDEST DUP2 ADD PUSH1 0x20 DUP6 LT ISZERO PUSH2 0x240 JUMPI DUP2 SWAP1 POP JUMPDEST PUSH2 0x254 PUSH2 0x24C DUP6 PUSH2 0x10B JUMP JUMPDEST DUP4 ADD DUP3 PUSH2 0x1F4 JUMP JUMPDEST POP POP JUMPDEST POP POP POP JUMP JUMPDEST PUSH0 DUP3 DUP3 SHR SWAP1 POP SWAP3 SWAP2 POP POP JUMP JUMPDEST PUSH0 PUSH2 0x277 PUSH0 NOT DUP5 PUSH1 0x8 MUL PUSH2 0x25C JUMP JUMPDEST NOT DUP1 DUP4 AND SWAP2 POP POP SWAP3 SWAP2 POP POP JUMP JUMPDEST PUSH0 PUSH2 0x28F DUP4 DUP4 PUSH2 0x268 JUMP JUMPDEST SWAP2 POP DUP3 PUSH1 0x2 MUL DUP3 OR SWAP1 POP SWAP3 SWAP2 POP POP JUMP JUMPDEST PUSH2 0x2A8 DUP3 PUSH2 0x65 JUMP JUMPDEST PUSH8 0xFFFFFFFFFFFFFFFF DUP2 GT ISZERO PUSH2 0x2C1 JUMPI PUSH2 0x2C0 PUSH2 0x6F JUMP JUMPDEST JUMPDEST PUSH2 0x2CB DUP3 SLOAD PUSH2 0xC9 JUMP JUMPDEST PUSH2 0x2D6 DUP3 DUP3 DUP6 PUSH2 0x216 JUMP JUMPDEST PUSH0 PUSH1 0x20 SWAP1 POP PUSH1 0x1F DUP4 GT PUSH1 0x1 DUP2 EQ PUSH2 0x307 JUMPI PUSH0 DUP5 ISZERO PUSH2 0x2F5 JUMPI DUP3 DUP8 ADD MLOAD SWAP1 POP JUMPDEST PUSH2 0x2FF DUP6 DUP3 PUSH2 0x284 JUMP JUMPDEST DUP7 SSTORE POP PUSH2 0x366 JUMP JUMPDEST PUSH1 0x1F NOT DUP5 AND PUSH2 0x315 DUP7 PUSH2 0xF9 JUMP JUMPDEST PUSH0 JUMPDEST DUP3 DUP2 LT ISZERO PUSH2 0x33C JUMPI DUP5 DUP10 ADD MLOAD DUP3 SSTORE PUSH1 0x1 DUP3 ADD SWAP2 POP PUSH1 0x20 DUP6 ADD SWAP5 POP PUSH1 0x20 DUP2 ADD SWAP1 POP PUSH2 0x317 JUMP JUMPDEST DUP7 DUP4 LT ISZERO PUSH2 0x359 JUMPI DUP5 DUP10 ADD MLOAD PUSH2 0x355 PUSH1 0x1F DUP10 AND DUP3 PUSH2 0x268 JUMP JUMPDEST DUP4 SSTORE POP JUMPDEST PUSH1 0x1 PUSH1 0x2 DUP9 MUL ADD DUP9 SSTORE POP POP POP JUMPDEST POP POP POP POP POP POP JUMP JUMPDEST PUSH2 0x25C5 DUP1 PUSH2 0x37B PUSH0 CODECOPY PUSH0 RETURN INVALID PUSH1 0x80 PUSH1 0x40 MSTORE CALLVALUE DUP1 ISZERO PUSH2 0xF JUMPI PUSH0 DUP1 REVERT JUMPDEST POP PUSH1 0x4 CALLDATASIZE LT PUSH2 0xA6 JUMPI PUSH0 CALLDATALOAD PUSH1 0xE0 SHR DUP1 PUSH4 0x2EB2C2D6 GT PUSH2 0x6F JUMPI DUP1 PUSH4 0x2EB2C2D6 EQ PUSH2 0x174 JUMPI DUP1 PUSH4 0x4E1273F4 EQ PUSH2 0x190 JUMPI DUP1 PUSH4 0x77097FC8 EQ PUSH2 0x1C0 JUMPI DUP1 PUSH4 0xA22CB465 EQ PUSH2 0x1DC JUMPI DUP1 PUSH4 0xE985E9C5 EQ PUSH2 0x1F8 JUMPI DUP1 PUSH4 0xF242432A EQ PUSH2 0x228 JUMPI PUSH2 0xA6 JUMP JUMPDEST DUP1 PUSH3 0xFDD58E EQ PUSH2 0xAA JUMPI DUP1 PUSH4 0x1FFC9A7 EQ PUSH2 0xDA JUMPI DUP1 PUSH4 0xE89341C EQ PUSH2 0x10A JUMPI DUP1 PUSH4 0xFEBDD49 EQ PUSH2 0x13A JUMPI DUP1 PUSH4 0x1C75CFB4 EQ PUSH2 0x156 JUMPI JUMPDEST PUSH0 DUP1 REVERT JUMPDEST PUSH2 0xC4 PUSH1 0x4 DUP1 CALLDATASIZE SUB DUP2 ADD SWAP1 PUSH2 0xBF SWAP2 SWAP1 PUSH2 0x15A7 JUMP JUMPDEST PUSH2 0x244 JUMP JUMPDEST PUSH1 0x40 MLOAD PUSH2 0xD1 SWAP2 SWAP1 PUSH2 0x15F4 JUMP JUMPDEST PUSH1 0x40 MLOAD DUP1 SWAP2 SUB SWAP1 RETURN JUMPDEST PUSH2 0xF4 PUSH1 0x4 DUP1 CALLDATASIZE SUB DUP2 ADD SWAP1 PUSH2 0xEF SWAP2 SWAP1 PUSH2 0x1662 JUMP JUMPDEST PUSH2 0x299 JUMP JUMPDEST PUSH1 0x40 MLOAD PUSH2 0x101 SWAP2 SWAP1 PUSH2 0x16A7 JUMP JUMPDEST PUSH1 0x40 MLOAD DUP1 SWAP2 SUB SWAP1 RETURN JUMPDEST PUSH2 0x124 PUSH1 0x4 DUP1 CALLDATASIZE SUB DUP2 ADD SWAP1 PUSH2 0x11F SWAP2 SWAP1 PUSH2 0x16C0 JUMP JUMPDEST PUSH2 0x37A JUMP JUMPDEST PUSH1 0x40 MLOAD PUSH2 0x131 SWAP2 SWAP1 PUSH2 0x175B JUMP JUMPDEST PUSH1 0x40 MLOAD DUP1 SWAP2 SUB SWAP1 RETURN JUMPDEST PUSH2 0x154 PUSH1 0x4 DUP1 CALLDATASIZE SUB DUP2 ADD SWAP1 PUSH2 0x14F SWAP2 SWAP1 PUSH2 0x177B JUMP JUMPDEST PUSH2 0x459 JUMP JUMPDEST STOP JUMPDEST PUSH2 0x15E PUSH2 0x47A JUMP JUMPDEST PUSH1 0x40 MLOAD PUSH2 0x16B SWAP2 SWAP1 PUSH2 0x15F4 JUMP JUMPDEST PUSH1 0x40 MLOAD DUP1 SWAP2 SUB SWAP1 RETURN JUMPDEST PUSH2 0x18E PUSH1 0x4 DUP1 CALLDATASIZE SUB DUP2 ADD SWAP1 PUSH2 0x189 SWAP2 SWAP1 PUSH2 0x19CF JUMP JUMPDEST PUSH2 0x480 JUMP JUMPDEST STOP JUMPDEST PUSH2 0x1AA PUSH1 0x4 DUP1 CALLDATASIZE SUB DUP2 ADD SWAP1 PUSH2 0x1A5 SWAP2 SWAP1 PUSH2 0x1B5A JUMP JUMPDEST PUSH2 0x527 JUMP JUMPDEST PUSH1 0x40 MLOAD PUSH2 0x1B7 SWAP2 SWAP1 PUSH2 0x1C87 JUMP JUMPDEST PUSH1 0x40 MLOAD DUP1 SWAP2 SUB SWAP1 RETURN JUMPDEST PUSH2 0x1DA PUSH1 0x4 DUP1 CALLDATASIZE SUB DUP2 ADD SWAP1 PUSH2 0x1D5 SWAP2 SWAP1 PUSH2 0x1D45 JUMP JUMPDEST PUSH2 0x62E JUMP JUMPDEST STOP JUMPDEST PUSH2 0x1F6 PUSH1 0x4 DUP1 CALLDATASIZE SUB DUP2 ADD SWAP1 PUSH2 0x1F1 SWAP2 SWAP1 PUSH2 0x1DC9 JUMP JUMPDEST PUSH2 0x671 JUMP JUMPDEST STOP JUMPDEST PUSH2 0x212 PUSH1 0x4 DUP1 CALLDATASIZE SUB DUP2 ADD SWAP1 PUSH2 0x20D SWAP2 SWAP1 PUSH2 0x1E07 JUMP JUMPDEST PUSH2 0x687 JUMP JUMPDEST PUSH1 0x40 MLOAD PUSH2 0x21F SWAP2 SWAP1 PUSH2 0x16A7 JUMP JUMPDEST PUSH1 0x40 MLOAD DUP1 SWAP2 SUB SWAP1 RETURN JUMPDEST PUSH2 0x242 PUSH1 0x4 DUP1 CALLDATASIZE SUB DUP2 ADD SWAP1 PUSH2 0x23D SWAP2 SWAP1 PUSH2 0x1E45 JUMP JUMPDEST PUSH2 0x715 JUMP JUMPDEST STOP JUMPDEST PUSH0 DUP1 PUSH0 DUP4 DUP2 MSTORE PUSH1 0x20 ADD SWAP1 DUP2 MSTORE PUSH1 0x20 ADD PUSH0 KECCAK256 PUSH0 DUP5 PUSH20 0xFFFFFFFFFFFFFFFFFFFFFFFFFFFFFFFFFFFFFFFF AND PUSH20 0xFFFFFFFFFFFFFFFFFFFFFFFFFFFFFFFFFFFFFFFF AND DUP2 MSTORE PUSH1 0x20 ADD SWAP1 DUP2 MSTORE PUSH1 0x20 ADD PUSH0 KECCAK256 SLOAD SWAP1 POP SWAP3 SWAP2 POP POP JUMP JUMPDEST PUSH0 PUSH32 0xD9B67A2600000000000000000000000000000000000000000000000000000000 PUSH28 0xFFFFFFFFFFFFFFFFFFFFFFFFFFFFFFFFFFFFFFFFFFFFFFFFFFFFFFFF NOT AND DUP3 PUSH28 0xFFFFFFFFFFFFFFFFFFFFFFFFFFFFFFFFFFFFFFFFFFFFFFFFFFFFFFFF NOT AND EQ DUP1 PUSH2 0x363 JUMPI POP PUSH32 0xE89341C00000000000000000000000000000000000000000000000000000000 PUSH28 0xFFFFFFFFFFFFFFFFFFFFFFFFFFFFFFFFFFFFFFFFFFFFFFFFFFFFFFFF NOT AND DUP3 PUSH28 0xFFFFFFFFFFFFFFFFFFFFFFFFFFFFFFFFFFFFFFFFFFFFFFFFFFFFFFFF NOT AND EQ JUMPDEST DUP1 PUSH2 0x373 JUMPI POP PUSH2 0x372 DUP3 PUSH2 0x7BC JUMP JUMPDEST JUMPDEST SWAP1 POP SWAP2 SWAP1 POP JUMP JUMPDEST PUSH1 0x60 PUSH0 PUSH1 0x4 PUSH0 DUP5 DUP2 MSTORE PUSH1 0x20 ADD SWAP1 DUP2 MSTORE PUSH1 0x20 ADD PUSH0 KECCAK256 DUP1 SLOAD PUSH2 0x399 SWAP1 PUSH2 0x1F05 JUMP JUMPDEST DUP1 PUSH1 0x1F ADD PUSH1 0x20 DUP1 SWAP2 DIV MUL PUSH1 0x20 ADD PUSH1 0x40 MLOAD SWAP1 DUP2 ADD PUSH1 0x40 MSTORE DUP1 SWAP3 SWAP2 SWAP1 DUP2 DUP2 MSTORE PUSH1 0x20 ADD DUP3 DUP1 SLOAD PUSH2 0x3C5 SWAP1 PUSH2 0x1F05 JUMP JUMPDEST DUP1 ISZERO PUSH2 0x410 JUMPI DUP1 PUSH1 0x1F LT PUSH2 0x3E7 JUMPI PUSH2 0x100 DUP1 DUP4 SLOAD DIV MUL DUP4 MSTORE SWAP2 PUSH1 0x20 ADD SWAP2 PUSH2 0x410 JUMP JUMPDEST DUP3 ADD SWAP2 SWAP1 PUSH0 MSTORE PUSH1 0x20 PUSH0 KECCAK256 SWAP1 JUMPDEST DUP2 SLOAD DUP2 MSTORE SWAP1 PUSH1 0x1 ADD SWAP1 PUSH1 0x20 ADD DUP1 DUP4 GT PUSH2 0x3F3 JUMPI DUP3 SWAP1 SUB PUSH1 0x1F AND DUP3 ADD SWAP2 JUMPDEST POP POP POP POP POP SWAP1 POP PUSH0 DUP2 MLOAD GT PUSH2 0x42D JUMPI PUSH2 0x428 DUP4 PUSH2 0x825 JUMP JUMPDEST PUSH2 0x451 JUMP JUMPDEST PUSH1 0x3 DUP2 PUSH1 0x40 MLOAD PUSH1 0x20 ADD PUSH2 0x441 SWAP3 SWAP2 SWAP1 PUSH2 0x2001 JUMP JUMPDEST PUSH1 0x40 MLOAD PUSH1 0x20 DUP2 DUP4 SUB SUB DUP2 MSTORE SWAP1 PUSH1 0x40 MSTORE JUMPDEST SWAP2 POP POP SWAP2 SWAP1 POP JUMP JUMPDEST PUSH2 0x474 DUP5 DUP5 DUP5 DUP5 PUSH1 0x40 MLOAD DUP1 PUSH1 0x20 ADD PUSH1 0x40 MSTORE DUP1 PUSH0 DUP2 MSTORE POP PUSH2 0x715 JUMP JUMPDEST POP POP POP POP JUMP JUMPDEST PUSH1 0x5 SLOAD DUP2 JUMP JUMPDEST PUSH0 PUSH2 0x489 PUSH2 0x8B7 JUMP JUMPDEST SWAP1 POP DUP1 PUSH20 0xFFFFFFFFFFFFFFFFFFFFFFFFFFFFFFFFFFFFFFFF AND DUP7 PUSH20 0xFFFFFFFFFFFFFFFFFFFFFFFFFFFFFFFFFFFFFFFF AND EQ ISZERO DUP1 ISZERO PUSH2 0x4CE JUMPI POP PUSH2 0x4CC DUP7 DUP3 PUSH2 0x687 JUMP JUMPDEST ISZERO JUMPDEST ISZERO PUSH2 0x512 JUMPI DUP1 DUP7 PUSH1 0x40 MLOAD PUSH32 0xE237D92200000000000000000000000000000000000000000000000000000000 DUP2 MSTORE PUSH1 0x4 ADD PUSH2 0x509 SWAP3 SWAP2 SWAP1 PUSH2 0x2033 JUMP JUMPDEST PUSH1 0x40 MLOAD DUP1 SWAP2 SUB SWAP1 REVERT JUMPDEST PUSH2 0x51F DUP7 DUP7 DUP7 DUP7 DUP7 PUSH2 0x8BE JUMP JUMPDEST POP POP POP POP POP POP JUMP JUMPDEST PUSH1 0x60 DUP2 MLOAD DUP4 MLOAD EQ PUSH2 0x573 JUMPI DUP2 MLOAD DUP4 MLOAD PUSH1 0x40 MLOAD PUSH32 0x5B05999100000000000000000000000000000000000000000000000000000000 DUP2 MSTORE PUSH1 0x4 ADD PUSH2 0x56A SWAP3 SWAP2 SWAP1 PUSH2 0x205A JUMP JUMPDEST PUSH1 0x40 MLOAD DUP1 SWAP2 SUB SWAP1 REVERT JUMPDEST PUSH0 DUP4 MLOAD PUSH8 0xFFFFFFFFFFFFFFFF DUP2 GT ISZERO PUSH2 0x58F JUMPI PUSH2 0x58E PUSH2 0x17E3 JUMP JUMPDEST JUMPDEST PUSH1 0x40 MLOAD SWAP1 DUP1 DUP3 MSTORE DUP1 PUSH1 0x20 MUL PUSH1 0x20 ADD DUP3 ADD PUSH1 0x40 MSTORE DUP1 ISZERO PUSH2 0x5BD JUMPI DUP2 PUSH1 0x20 ADD PUSH1 0x20 DUP3 MUL DUP1 CALLDATASIZE DUP4 CALLDATACOPY DUP1 DUP3 ADD SWAP2 POP POP SWAP1 POP JUMPDEST POP SWAP1 POP PUSH0 JUMPDEST DUP5 MLOAD DUP2 LT ISZERO PUSH2 0x623 JUMPI PUSH2 0x5F9 PUSH2 0x5E1 DUP3 DUP8 PUSH2 0x9B2 SWAP1 SWAP2 SWAP1 PUSH4 0xFFFFFFFF AND JUMP JUMPDEST PUSH2 0x5F4 DUP4 DUP8 PUSH2 0x9C5 SWAP1 SWAP2 SWAP1 PUSH4 0xFFFFFFFF AND JUMP JUMPDEST PUSH2 0x244 JUMP JUMPDEST DUP3 DUP3 DUP2 MLOAD DUP2 LT PUSH2 0x60C JUMPI PUSH2 0x60B PUSH2 0x2081 JUMP JUMPDEST JUMPDEST PUSH1 0x20 MUL PUSH1 0x20 ADD ADD DUP2 DUP2 MSTORE POP POP DUP1 PUSH1 0x1 ADD SWAP1 POP PUSH2 0x5C2 JUMP JUMPDEST POP DUP1 SWAP2 POP POP SWAP3 SWAP2 POP POP JUMP JUMPDEST PUSH2 0x64A CALLER PUSH1 0x5 SLOAD DUP5 PUSH1 0x40 MLOAD DUP1 PUSH1 0x20 ADD PUSH1 0x40 MSTORE DUP1 PUSH0 DUP2 MSTORE POP PUSH2 0x9D8 JUMP JUMPDEST PUSH2 0x656 PUSH1 0x5 SLOAD DUP3 PUSH2 0xA6D JUMP JUMPDEST PUSH1 0x5 PUSH0 DUP2 SLOAD DUP1 SWAP3 SWAP2 SWAP1 PUSH2 0x668 SWAP1 PUSH2 0x20DB JUMP JUMPDEST SWAP2 SWAP1 POP SSTORE POP POP POP JUMP JUMPDEST PUSH2 0x683 PUSH2 0x67C PUSH2 0x8B7 JUMP JUMPDEST DUP4 DUP4 PUSH2 0xAD0 JUMP JUMPDEST POP POP JUMP JUMPDEST PUSH0 PUSH1 0x1 PUSH0 DUP5 PUSH20 0xFFFFFFFFFFFFFFFFFFFFFFFFFFFFFFFFFFFFFFFF AND PUSH20 0xFFFFFFFFFFFFFFFFFFFFFFFFFFFFFFFFFFFFFFFF AND DUP2 MSTORE PUSH1 0x20 ADD SWAP1 DUP2 MSTORE PUSH1 0x20 ADD PUSH0 KECCAK256 PUSH0 DUP4 PUSH20 0xFFFFFFFFFFFFFFFFFFFFFFFFFFFFFFFFFFFFFFFF AND PUSH20 0xFFFFFFFFFFFFFFFFFFFFFFFFFFFFFFFFFFFFFFFF AND DUP2 MSTORE PUSH1 0x20 ADD SWAP1 DUP2 MSTORE PUSH1 0x20 ADD PUSH0 KECCAK256 PUSH0 SWAP1 SLOAD SWAP1 PUSH2 0x100 EXP SWAP1 DIV PUSH1 0xFF AND SWAP1 POP SWAP3 SWAP2 POP POP JUMP JUMPDEST PUSH0 PUSH2 0x71E PUSH2 0x8B7 JUMP JUMPDEST SWAP1 POP DUP1 PUSH20 0xFFFFFFFFFFFFFFFFFFFFFFFFFFFFFFFFFFFFFFFF AND DUP7 PUSH20 0xFFFFFFFFFFFFFFFFFFFFFFFFFFFFFFFFFFFFFFFF AND EQ ISZERO DUP1 ISZERO PUSH2 0x763 JUMPI POP PUSH2 0x761 DUP7 DUP3 PUSH2 0x687 JUMP JUMPDEST ISZERO JUMPDEST ISZERO PUSH2 0x7A7 JUMPI DUP1 DUP7 PUSH1 0x40 MLOAD PUSH32 0xE237D92200000000000000000000000000000000000000000000000000000000 DUP2 MSTORE PUSH1 0x4 ADD PUSH2 0x79E SWAP3 SWAP2 SWAP1 PUSH2 0x2033 JUMP JUMPDEST PUSH1 0x40 MLOAD DUP1 SWAP2 SUB SWAP1 REVERT JUMPDEST PUSH2 0x7B4 DUP7 DUP7 DUP7 DUP7 DUP7 PUSH2 0xC39 JUMP JUMPDEST POP POP POP POP POP POP JUMP JUMPDEST PUSH0 PUSH32 0x1FFC9A700000000000000000000000000000000000000000000000000000000 PUSH28 0xFFFFFFFFFFFFFFFFFFFFFFFFFFFFFFFFFFFFFFFFFFFFFFFFFFFFFFFF NOT AND DUP3 PUSH28 0xFFFFFFFFFFFFFFFFFFFFFFFFFFFFFFFFFFFFFFFFFFFFFFFFFFFFFFFF NOT AND EQ SWAP1 POP SWAP2 SWAP1 POP JUMP JUMPDEST PUSH1 0x60 PUSH1 0x2 DUP1 SLOAD PUSH2 0x834 SWAP1 PUSH2 0x1F05 JUMP JUMPDEST DUP1 PUSH1 0x1F ADD PUSH1 0x20 DUP1 SWAP2 DIV MUL PUSH1 0x20 ADD PUSH1 0x40 MLOAD SWAP1 DUP2 ADD PUSH1 0x40 MSTORE DUP1 SWAP3 SWAP2 SWAP1 DUP2 DUP2 MSTORE PUSH1 0x20 ADD DUP3 DUP1 SLOAD PUSH2 0x860 SWAP1 PUSH2 0x1F05 JUMP JUMPDEST DUP1 ISZERO PUSH2 0x8AB JUMPI DUP1 PUSH1 0x1F LT PUSH2 0x882 JUMPI PUSH2 0x100 DUP1 DUP4 SLOAD DIV MUL DUP4 MSTORE SWAP2 PUSH1 0x20 ADD SWAP2 PUSH2 0x8AB JUMP JUMPDEST DUP3 ADD SWAP2 SWAP1 PUSH0 MSTORE PUSH1 0x20 PUSH0 KECCAK256 SWAP1 JUMPDEST DUP2 SLOAD DUP2 MSTORE SWAP1 PUSH1 0x1 ADD SWAP1 PUSH1 0x20 ADD DUP1 DUP4 GT PUSH2 0x88E JUMPI DUP3 SWAP1 SUB PUSH1 0x1F AND DUP3 ADD SWAP2 JUMPDEST POP POP POP POP POP SWAP1 POP SWAP2 SWAP1 POP JUMP JUMPDEST PUSH0 CALLER SWAP1 POP SWAP1 JUMP JUMPDEST PUSH0 PUSH20 0xFFFFFFFFFFFFFFFFFFFFFFFFFFFFFFFFFFFFFFFF AND DUP5 PUSH20 0xFFFFFFFFFFFFFFFFFFFFFFFFFFFFFFFFFFFFFFFF AND SUB PUSH2 0x92E JUMPI PUSH0 PUSH1 0x40 MLOAD PUSH32 0x57F447CE00000000000000000000000000000000000000000000000000000000 DUP2 MSTORE PUSH1 0x4 ADD PUSH2 0x925 SWAP2 SWAP1 PUSH2 0x2122 JUMP JUMPDEST PUSH1 0x40 MLOAD DUP1 SWAP2 SUB SWAP1 REVERT JUMPDEST PUSH0 PUSH20 0xFFFFFFFFFFFFFFFFFFFFFFFFFFFFFFFFFFFFFFFF AND DUP6 PUSH20 0xFFFFFFFFFFFFFFFFFFFFFFFFFFFFFFFFFFFFFFFF AND SUB PUSH2 0x99E JUMPI PUSH0 PUSH1 0x40 MLOAD PUSH32 0x1A8351400000000000000000000000000000000000000000000000000000000 DUP2 MSTORE PUSH1 0x4 ADD PUSH2 0x995 SWAP2 SWAP1 PUSH2 0x2122 JUMP JUMPDEST PUSH1 0x40 MLOAD DUP1 SWAP2 SUB SWAP1 REVERT JUMPDEST PUSH2 0x9AB DUP6 DUP6 DUP6 DUP6 DUP6 PUSH2 0xD3F JUMP JUMPDEST POP POP POP POP POP JUMP JUMPDEST PUSH0 PUSH1 0x20 DUP3 MUL PUSH1 0x20 DUP5 ADD ADD MLOAD SWAP1 POP SWAP3 SWAP2 POP POP JUMP JUMPDEST PUSH0 PUSH1 0x20 DUP3 MUL PUSH1 0x20 DUP5 ADD ADD MLOAD SWAP1 POP SWAP3 SWAP2 POP POP JUMP JUMPDEST PUSH0 PUSH20 0xFFFFFFFFFFFFFFFFFFFFFFFFFFFFFFFFFFFFFFFF AND DUP5 PUSH20 0xFFFFFFFFFFFFFFFFFFFFFFFFFFFFFFFFFFFFFFFF AND SUB PUSH2 0xA48 JUMPI PUSH0 PUSH1 0x40 MLOAD PUSH32 0x57F447CE00000000000000000000000000000000000000000000000000000000 DUP2 MSTORE PUSH1 0x4 ADD PUSH2 0xA3F SWAP2 SWAP1 PUSH2 0x2122 JUMP JUMPDEST PUSH1 0x40 MLOAD DUP1 SWAP2 SUB SWAP1 REVERT JUMPDEST PUSH0 DUP1 PUSH2 0xA54 DUP6 DUP6 PUSH2 0xDEB JUMP JUMPDEST SWAP2 POP SWAP2 POP PUSH2 0xA65 PUSH0 DUP8 DUP5 DUP5 DUP8 PUSH2 0xD3F JUMP JUMPDEST POP POP POP POP POP POP JUMP JUMPDEST DUP1 PUSH1 0x4 PUSH0 DUP5 DUP2 MSTORE PUSH1 0x20 ADD SWAP1 DUP2 MSTORE PUSH1 0x20 ADD PUSH0 KECCAK256 SWAP1 DUP2 PUSH2 0xA8B SWAP2 SWAP1 PUSH2 0x22C6 JUMP JUMPDEST POP DUP2 PUSH32 0x6BB7FF708619BA0610CBA295A58592E0451DEE2622938C8755667688DAF3529B PUSH2 0xAB7 DUP5 PUSH2 0x37A JUMP JUMPDEST PUSH1 0x40 MLOAD PUSH2 0xAC4 SWAP2 SWAP1 PUSH2 0x175B JUMP JUMPDEST PUSH1 0x40 MLOAD DUP1 SWAP2 SUB SWAP1 LOG2 POP POP JUMP JUMPDEST PUSH0 PUSH20 0xFFFFFFFFFFFFFFFFFFFFFFFFFFFFFFFFFFFFFFFF AND DUP3 PUSH20 0xFFFFFFFFFFFFFFFFFFFFFFFFFFFFFFFFFFFFFFFF AND SUB PUSH2 0xB40 JUMPI PUSH0 PUSH1 0x40 MLOAD PUSH32 0xCED3E10000000000000000000000000000000000000000000000000000000000 DUP2 MSTORE PUSH1 0x4 ADD PUSH2 0xB37 SWAP2 SWAP1 PUSH2 0x2122 JUMP JUMPDEST PUSH1 0x40 MLOAD DUP1 SWAP2 SUB SWAP1 REVERT JUMPDEST DUP1 PUSH1 0x1 PUSH0 DUP6 PUSH20 0xFFFFFFFFFFFFFFFFFFFFFFFFFFFFFFFFFFFFFFFF AND PUSH20 0xFFFFFFFFFFFFFFFFFFFFFFFFFFFFFFFFFFFFFFFF AND DUP2 MSTORE PUSH1 0x20 ADD SWAP1 DUP2 MSTORE PUSH1 0x20 ADD PUSH0 KECCAK256 PUSH0 DUP5 PUSH20 0xFFFFFFFFFFFFFFFFFFFFFFFFFFFFFFFFFFFFFFFF AND PUSH20 0xFFFFFFFFFFFFFFFFFFFFFFFFFFFFFFFFFFFFFFFF AND DUP2 MSTORE PUSH1 0x20 ADD SWAP1 DUP2 MSTORE PUSH1 0x20 ADD PUSH0 KECCAK256 PUSH0 PUSH2 0x100 EXP DUP2 SLOAD DUP2 PUSH1 0xFF MUL NOT AND SWAP1 DUP4 ISZERO ISZERO MUL OR SWAP1 SSTORE POP DUP2 PUSH20 0xFFFFFFFFFFFFFFFFFFFFFFFFFFFFFFFFFFFFFFFF AND DUP4 PUSH20 0xFFFFFFFFFFFFFFFFFFFFFFFFFFFFFFFFFFFFFFFF AND PUSH32 0x17307EAB39AB6107E8899845AD3D59BD9653F200F220920489CA2B5937696C31 DUP4 PUSH1 0x40 MLOAD PUSH2 0xC2C SWAP2 SWAP1 PUSH2 0x16A7 JUMP JUMPDEST PUSH1 0x40 MLOAD DUP1 SWAP2 SUB SWAP1 LOG3 POP POP POP JUMP JUMPDEST PUSH0 PUSH20 0xFFFFFFFFFFFFFFFFFFFFFFFFFFFFFFFFFFFFFFFF AND DUP5 PUSH20 0xFFFFFFFFFFFFFFFFFFFFFFFFFFFFFFFFFFFFFFFF AND SUB PUSH2 0xCA9 JUMPI PUSH0 PUSH1 0x40 MLOAD PUSH32 0x57F447CE00000000000000000000000000000000000000000000000000000000 DUP2 MSTORE PUSH1 0x4 ADD PUSH2 0xCA0 SWAP2 SWAP1 PUSH2 0x2122 JUMP JUMPDEST PUSH1 0x40 MLOAD DUP1 SWAP2 SUB SWAP1 REVERT JUMPDEST PUSH0 PUSH20 0xFFFFFFFFFFFFFFFFFFFFFFFFFFFFFFFFFFFFFFFF AND DUP6 PUSH20 0xFFFFFFFFFFFFFFFFFFFFFFFFFFFFFFFFFFFFFFFF AND SUB PUSH2 0xD19 JUMPI PUSH0 PUSH1 0x40 MLOAD PUSH32 0x1A8351400000000000000000000000000000000000000000000000000000000 DUP2 MSTORE PUSH1 0x4 ADD PUSH2 0xD10 SWAP2 SWAP1 PUSH2 0x2122 JUMP JUMPDEST PUSH1 0x40 MLOAD DUP1 SWAP2 SUB SWAP1 REVERT JUMPDEST PUSH0 DUP1 PUSH2 0xD25 DUP6 DUP6 PUSH2 0xDEB JUMP JUMPDEST SWAP2 POP SWAP2 POP PUSH2 0xD36 DUP8 DUP8 DUP5 DUP5 DUP8 PUSH2 0xD3F JUMP JUMPDEST POP POP POP POP POP POP POP JUMP JUMPDEST PUSH2 0xD4B DUP6 DUP6 DUP6 DUP6 PUSH2 0xE1B JUMP JUMPDEST PUSH0 PUSH20 0xFFFFFFFFFFFFFFFFFFFFFFFFFFFFFFFFFFFFFFFF AND DUP5 PUSH20 0xFFFFFFFFFFFFFFFFFFFFFFFFFFFFFFFFFFFFFFFF AND EQ PUSH2 0xDE4 JUMPI PUSH0 PUSH2 0xD87 PUSH2 0x8B7 JUMP JUMPDEST SWAP1 POP PUSH1 0x1 DUP5 MLOAD SUB PUSH2 0xDD3 JUMPI PUSH0 PUSH2 0xDA6 PUSH0 DUP7 PUSH2 0x9C5 SWAP1 SWAP2 SWAP1 PUSH4 0xFFFFFFFF AND JUMP JUMPDEST SWAP1 POP PUSH0 PUSH2 0xDBC PUSH0 DUP7 PUSH2 0x9C5 SWAP1 SWAP2 SWAP1 PUSH4 0xFFFFFFFF AND JUMP JUMPDEST SWAP1 POP PUSH2 0xDCC DUP4 DUP10 DUP10 DUP6 DUP6 DUP10 PUSH2 0x11AB JUMP JUMPDEST POP POP PUSH2 0xDE2 JUMP JUMPDEST PUSH2 0xDE1 DUP2 DUP8 DUP8 DUP8 DUP8 DUP8 PUSH2 0x135A JUMP JUMPDEST JUMPDEST POP JUMPDEST POP POP POP POP POP JUMP JUMPDEST PUSH1 0x60 DUP1 PUSH1 0x40 MLOAD SWAP2 POP PUSH1 0x1 DUP3 MSTORE DUP4 PUSH1 0x20 DUP4 ADD MSTORE PUSH1 0x40 DUP3 ADD SWAP1 POP PUSH1 0x1 DUP2 MSTORE DUP3 PUSH1 0x20 DUP3 ADD MSTORE PUSH1 0x40 DUP2 ADD PUSH1 0x40 MSTORE SWAP3 POP SWAP3 SWAP1 POP JUMP JUMPDEST DUP1 MLOAD DUP3 MLOAD EQ PUSH2 0xE65 JUMPI DUP2 MLOAD DUP2 MLOAD PUSH1 0x40 MLOAD PUSH32 0x5B05999100000000000000000000000000000000000000000000000000000000 DUP2 MSTORE PUSH1 0x4 ADD PUSH2 0xE5C SWAP3 SWAP2 SWAP1 PUSH2 0x205A JUMP JUMPDEST PUSH1 0x40 MLOAD DUP1 SWAP2 SUB SWAP1 REVERT JUMPDEST PUSH0 PUSH2 0xE6E PUSH2 0x8B7 JUMP JUMPDEST SWAP1 POP PUSH0 JUMPDEST DUP4 MLOAD DUP2 LT ISZERO PUSH2 0x106A JUMPI PUSH0 PUSH2 0xE8F DUP3 DUP7 PUSH2 0x9C5 SWAP1 SWAP2 SWAP1 PUSH4 0xFFFFFFFF AND JUMP JUMPDEST SWAP1 POP PUSH0 PUSH2 0xEA5 DUP4 DUP7 PUSH2 0x9C5 SWAP1 SWAP2 SWAP1 PUSH4 0xFFFFFFFF AND JUMP JUMPDEST SWAP1 POP PUSH0 PUSH20 0xFFFFFFFFFFFFFFFFFFFFFFFFFFFFFFFFFFFFFFFF AND DUP9 PUSH20 0xFFFFFFFFFFFFFFFFFFFFFFFFFFFFFFFFFFFFFFFF AND EQ PUSH2 0xFC8 JUMPI PUSH0 DUP1 PUSH0 DUP5 DUP2 MSTORE PUSH1 0x20 ADD SWAP1 DUP2 MSTORE PUSH1 0x20 ADD PUSH0 KECCAK256 PUSH0 DUP11 PUSH20 0xFFFFFFFFFFFFFFFFFFFFFFFFFFFFFFFFFFFFFFFF AND PUSH20 0xFFFFFFFFFFFFFFFFFFFFFFFFFFFFFFFFFFFFFFFF AND DUP2 MSTORE PUSH1 0x20 ADD SWAP1 DUP2 MSTORE PUSH1 0x20 ADD PUSH0 KECCAK256 SLOAD SWAP1 POP DUP2 DUP2 LT ISZERO PUSH2 0xF74 JUMPI DUP9 DUP2 DUP4 DUP6 PUSH1 0x40 MLOAD PUSH32 0x3DEE4C500000000000000000000000000000000000000000000000000000000 DUP2 MSTORE PUSH1 0x4 ADD PUSH2 0xF6B SWAP5 SWAP4 SWAP3 SWAP2 SWAP1 PUSH2 0x2395 JUMP JUMPDEST PUSH1 0x40 MLOAD DUP1 SWAP2 SUB SWAP1 REVERT JUMPDEST DUP2 DUP2 SUB PUSH0 DUP1 DUP6 DUP2 MSTORE PUSH1 0x20 ADD SWAP1 DUP2 MSTORE PUSH1 0x20 ADD PUSH0 KECCAK256 PUSH0 DUP12 PUSH20 0xFFFFFFFFFFFFFFFFFFFFFFFFFFFFFFFFFFFFFFFF AND PUSH20 0xFFFFFFFFFFFFFFFFFFFFFFFFFFFFFFFFFFFFFFFF AND DUP2 MSTORE PUSH1 0x20 ADD SWAP1 DUP2 MSTORE PUSH1 0x20 ADD PUSH0 KECCAK256 DUP2 SWAP1 SSTORE POP POP JUMPDEST PUSH0 PUSH20 0xFFFFFFFFFFFFFFFFFFFFFFFFFFFFFFFFFFFFFFFF AND DUP8 PUSH20 0xFFFFFFFFFFFFFFFFFFFFFFFFFFFFFFFFFFFFFFFF AND EQ PUSH2 0x105D JUMPI DUP1 PUSH0 DUP1 DUP5 DUP2 MSTORE PUSH1 0x20 ADD SWAP1 DUP2 MSTORE PUSH1 0x20 ADD PUSH0 KECCAK256 PUSH0 DUP10 PUSH20 0xFFFFFFFFFFFFFFFFFFFFFFFFFFFFFFFFFFFFFFFF AND PUSH20 0xFFFFFFFFFFFFFFFFFFFFFFFFFFFFFFFFFFFFFFFF AND DUP2 MSTORE PUSH1 0x20 ADD SWAP1 DUP2 MSTORE PUSH1 0x20 ADD PUSH0 KECCAK256 PUSH0 DUP3 DUP3 SLOAD PUSH2 0x1055 SWAP2 SWAP1 PUSH2 0x23D8 JUMP JUMPDEST SWAP3 POP POP DUP2 SWAP1 SSTORE POP JUMPDEST POP POP DUP1 PUSH1 0x1 ADD SWAP1 POP PUSH2 0xE72 JUMP JUMPDEST POP PUSH1 0x1 DUP4 MLOAD SUB PUSH2 0x1125 JUMPI PUSH0 PUSH2 0x1088 PUSH0 DUP6 PUSH2 0x9C5 SWAP1 SWAP2 SWAP1 PUSH4 0xFFFFFFFF AND JUMP JUMPDEST SWAP1 POP PUSH0 PUSH2 0x109E PUSH0 DUP6 PUSH2 0x9C5 SWAP1 SWAP2 SWAP1 PUSH4 0xFFFFFFFF AND JUMP JUMPDEST SWAP1 POP DUP6 PUSH20 0xFFFFFFFFFFFFFFFFFFFFFFFFFFFFFFFFFFFFFFFF AND DUP8 PUSH20 0xFFFFFFFFFFFFFFFFFFFFFFFFFFFFFFFFFFFFFFFF AND DUP5 PUSH20 0xFFFFFFFFFFFFFFFFFFFFFFFFFFFFFFFFFFFFFFFF AND PUSH32 0xC3D58168C5AE7397731D063D5BBF3D657854427343F4C083240F7AACAA2D0F62 DUP6 DUP6 PUSH1 0x40 MLOAD PUSH2 0x1116 SWAP3 SWAP2 SWAP1 PUSH2 0x205A JUMP JUMPDEST PUSH1 0x40 MLOAD DUP1 SWAP2 SUB SWAP1 LOG4 POP POP PUSH2 0x11A4 JUMP JUMPDEST DUP4 PUSH20 0xFFFFFFFFFFFFFFFFFFFFFFFFFFFFFFFFFFFFFFFF AND DUP6 PUSH20 0xFFFFFFFFFFFFFFFFFFFFFFFFFFFFFFFFFFFFFFFF AND DUP3 PUSH20 0xFFFFFFFFFFFFFFFFFFFFFFFFFFFFFFFFFFFFFFFF AND PUSH32 0x4A39DC06D4C0DBC64B70AF90FD698A233A518AA5D07E595D983B8C0526C8F7FB DUP7 DUP7 PUSH1 0x40 MLOAD PUSH2 0x119B SWAP3 SWAP2 SWAP1 PUSH2 0x240B JUMP JUMPDEST PUSH1 0x40 MLOAD DUP1 SWAP2 SUB SWAP1 LOG4 JUMPDEST POP POP POP POP POP JUMP JUMPDEST PUSH0 DUP5 PUSH20 0xFFFFFFFFFFFFFFFFFFFFFFFFFFFFFFFFFFFFFFFF AND EXTCODESIZE GT ISZERO PUSH2 0x1352 JUMPI DUP4 PUSH20 0xFFFFFFFFFFFFFFFFFFFFFFFFFFFFFFFFFFFFFFFF AND PUSH4 0xF23A6E61 DUP8 DUP8 DUP7 DUP7 DUP7 PUSH1 0x40 MLOAD DUP7 PUSH4 0xFFFFFFFF AND PUSH1 0xE0 SHL DUP2 MSTORE PUSH1 0x4 ADD PUSH2 0x120B SWAP6 SWAP5 SWAP4 SWAP3 SWAP2 SWAP1 PUSH2 0x2492 JUMP JUMPDEST PUSH1 0x20 PUSH1 0x40 MLOAD DUP1 DUP4 SUB DUP2 PUSH0 DUP8 GAS CALL SWAP3 POP POP POP DUP1 ISZERO PUSH2 0x1246 JUMPI POP PUSH1 0x40 MLOAD RETURNDATASIZE PUSH1 0x1F NOT PUSH1 0x1F DUP3 ADD AND DUP3 ADD DUP1 PUSH1 0x40 MSTORE POP DUP2 ADD SWAP1 PUSH2 0x1243 SWAP2 SWAP1 PUSH2 0x24FE JUMP JUMPDEST PUSH1 0x1 JUMPDEST PUSH2 0x12C7 JUMPI RETURNDATASIZE DUP1 PUSH0 DUP2 EQ PUSH2 0x1274 JUMPI PUSH1 0x40 MLOAD SWAP2 POP PUSH1 0x1F NOT PUSH1 0x3F RETURNDATASIZE ADD AND DUP3 ADD PUSH1 0x40 MSTORE RETURNDATASIZE DUP3 MSTORE RETURNDATASIZE PUSH0 PUSH1 0x20 DUP5 ADD RETURNDATACOPY PUSH2 0x1279 JUMP JUMPDEST PUSH1 0x60 SWAP2 POP JUMPDEST POP PUSH0 DUP2 MLOAD SUB PUSH2 0x12BF JUMPI DUP5 PUSH1 0x40 MLOAD PUSH32 0x57F447CE00000000000000000000000000000000000000000000000000000000 DUP2 MSTORE PUSH1 0x4 ADD PUSH2 0x12B6 SWAP2 SWAP1 PUSH2 0x2122 JUMP JUMPDEST PUSH1 0x40 MLOAD DUP1 SWAP2 SUB SWAP1 REVERT JUMPDEST DUP1 MLOAD DUP2 PUSH1 0x20 ADD REVERT JUMPDEST PUSH4 0xF23A6E61 PUSH1 0xE0 SHL PUSH28 0xFFFFFFFFFFFFFFFFFFFFFFFFFFFFFFFFFFFFFFFFFFFFFFFFFFFFFFFF NOT AND DUP2 PUSH28 0xFFFFFFFFFFFFFFFFFFFFFFFFFFFFFFFFFFFFFFFFFFFFFFFFFFFFFFFF NOT AND EQ PUSH2 0x1350 JUMPI DUP5 PUSH1 0x40 MLOAD PUSH32 0x57F447CE00000000000000000000000000000000000000000000000000000000 DUP2 MSTORE PUSH1 0x4 ADD PUSH2 0x1347 SWAP2 SWAP1 PUSH2 0x2122 JUMP JUMPDEST PUSH1 0x40 MLOAD DUP1 SWAP2 SUB SWAP1 REVERT JUMPDEST POP JUMPDEST POP POP POP POP POP POP JUMP JUMPDEST PUSH0 DUP5 PUSH20 0xFFFFFFFFFFFFFFFFFFFFFFFFFFFFFFFFFFFFFFFF AND EXTCODESIZE GT ISZERO PUSH2 0x1501 JUMPI DUP4 PUSH20 0xFFFFFFFFFFFFFFFFFFFFFFFFFFFFFFFFFFFFFFFF AND PUSH4 0xBC197C81 DUP8 DUP8 DUP7 DUP7 DUP7 PUSH1 0x40 MLOAD DUP7 PUSH4 0xFFFFFFFF AND PUSH1 0xE0 SHL DUP2 MSTORE PUSH1 0x4 ADD PUSH2 0x13BA SWAP6 SWAP5 SWAP4 SWAP3 SWAP2 SWAP1 PUSH2 0x2529 JUMP JUMPDEST PUSH1 0x20 PUSH1 0x40 MLOAD DUP1 DUP4 SUB DUP2 PUSH0 DUP8 GAS CALL SWAP3 POP POP POP DUP1 ISZERO PUSH2 0x13F5 JUMPI POP PUSH1 0x40 MLOAD RETURNDATASIZE PUSH1 0x1F NOT PUSH1 0x1F DUP3 ADD AND DUP3 ADD DUP1 PUSH1 0x40 MSTORE POP DUP2 ADD SWAP1 PUSH2 0x13F2 SWAP2 SWAP1 PUSH2 0x24FE JUMP JUMPDEST PUSH1 0x1 JUMPDEST PUSH2 0x1476 JUMPI RETURNDATASIZE DUP1 PUSH0 DUP2 EQ PUSH2 0x1423 JUMPI PUSH1 0x40 MLOAD SWAP2 POP PUSH1 0x1F NOT PUSH1 0x3F RETURNDATASIZE ADD AND DUP3 ADD PUSH1 0x40 MSTORE RETURNDATASIZE DUP3 MSTORE RETURNDATASIZE PUSH0 PUSH1 0x20 DUP5 ADD RETURNDATACOPY PUSH2 0x1428 JUMP JUMPDEST PUSH1 0x60 SWAP2 POP JUMPDEST POP PUSH0 DUP2 MLOAD SUB PUSH2 0x146E JUMPI DUP5 PUSH1 0x40 MLOAD PUSH32 0x57F447CE00000000000000000000000000000000000000000000000000000000 DUP2 MSTORE PUSH1 0x4 ADD PUSH2 0x1465 SWAP2 SWAP1 PUSH2 0x2122 JUMP JUMPDEST PUSH1 0x40 MLOAD DUP1 SWAP2 SUB SWAP1 REVERT JUMPDEST DUP1 MLOAD DUP2 PUSH1 0x20 ADD REVERT JUMPDEST PUSH4 0xBC197C81 PUSH1 0xE0 SHL PUSH28 0xFFFFFFFFFFFFFFFFFFFFFFFFFFFFFFFFFFFFFFFFFFFFFFFFFFFFFFFF NOT AND DUP2 PUSH28 0xFFFFFFFFFFFFFFFFFFFFFFFFFFFFFFFFFFFFFFFFFFFFFFFFFFFFFFFF NOT AND EQ PUSH2 0x14FF JUMPI DUP5 PUSH1 0x40 MLOAD PUSH32 0x57F447CE00000000000000000000000000000000000000000000000000000000 DUP2 MSTORE PUSH1 0x4 ADD PUSH2 0x14F6 SWAP2 SWAP1 PUSH2 0x2122 JUMP JUMPDEST PUSH1 0x40 MLOAD DUP1 SWAP2 SUB SWAP1 REVERT JUMPDEST POP JUMPDEST POP POP POP POP POP POP JUMP JUMPDEST PUSH0 PUSH1 0x40 MLOAD SWAP1 POP SWAP1 JUMP JUMPDEST PUSH0 DUP1 REVERT JUMPDEST PUSH0 DUP1 REVERT JUMPDEST PUSH0 PUSH20 0xFFFFFFFFFFFFFFFFFFFFFFFFFFFFFFFFFFFFFFFF DUP3 AND SWAP1 POP SWAP2 SWAP1 POP JUMP JUMPDEST PUSH0 PUSH2 0x1543 DUP3 PUSH2 0x151A JUMP JUMPDEST SWAP1 POP SWAP2 SWAP1 POP JUMP JUMPDEST PUSH2 0x1553 DUP2 PUSH2 0x1539 JUMP JUMPDEST DUP2 EQ PUSH2 0x155D JUMPI PUSH0 DUP1 REVERT JUMPDEST POP JUMP JUMPDEST PUSH0 DUP2 CALLDATALOAD SWAP1 POP PUSH2 0x156E DUP2 PUSH2 0x154A JUMP JUMPDEST SWAP3 SWAP2 POP POP JUMP JUMPDEST PUSH0 DUP2 SWAP1 POP SWAP2 SWAP1 POP JUMP JUMPDEST PUSH2 0x1586 DUP2 PUSH2 0x1574 JUMP JUMPDEST DUP2 EQ PUSH2 0x1590 JUMPI PUSH0 DUP1 REVERT JUMPDEST POP JUMP JUMPDEST PUSH0 DUP2 CALLDATALOAD SWAP1 POP PUSH2 0x15A1 DUP2 PUSH2 0x157D JUMP JUMPDEST SWAP3 SWAP2 POP POP JUMP JUMPDEST PUSH0 DUP1 PUSH1 0x40 DUP4 DUP6 SUB SLT ISZERO PUSH2 0x15BD JUMPI PUSH2 0x15BC PUSH2 0x1512 JUMP JUMPDEST JUMPDEST PUSH0 PUSH2 0x15CA DUP6 DUP3 DUP7 ADD PUSH2 0x1560 JUMP JUMPDEST SWAP3 POP POP PUSH1 0x20 PUSH2 0x15DB DUP6 DUP3 DUP7 ADD PUSH2 0x1593 JUMP JUMPDEST SWAP2 POP POP SWAP3 POP SWAP3 SWAP1 POP JUMP JUMPDEST PUSH2 0x15EE DUP2 PUSH2 0x1574 JUMP JUMPDEST DUP3 MSTORE POP POP JUMP JUMPDEST PUSH0 PUSH1 0x20 DUP3 ADD SWAP1 POP PUSH2 0x1607 PUSH0 DUP4 ADD DUP5 PUSH2 0x15E5 JUMP JUMPDEST SWAP3 SWAP2 POP POP JUMP JUMPDEST PUSH0 PUSH32 0xFFFFFFFF00000000000000000000000000000000000000000000000000000000 DUP3 AND SWAP1 POP SWAP2 SWAP1 POP JUMP JUMPDEST PUSH2 0x1641 DUP2 PUSH2 0x160D JUMP JUMPDEST DUP2 EQ PUSH2 0x164B JUMPI PUSH0 DUP1 REVERT JUMPDEST POP JUMP JUMPDEST PUSH0 DUP2 CALLDATALOAD SWAP1 POP PUSH2 0x165C DUP2 PUSH2 0x1638 JUMP JUMPDEST SWAP3 SWAP2 POP POP JUMP JUMPDEST PUSH0 PUSH1 0x20 DUP3 DUP5 SUB SLT ISZERO PUSH2 0x1677 JUMPI PUSH2 0x1676 PUSH2 0x1512 JUMP JUMPDEST JUMPDEST PUSH0 PUSH2 0x1684 DUP5 DUP3 DUP6 ADD PUSH2 0x164E JUMP JUMPDEST SWAP2 POP POP SWAP3 SWAP2 POP POP JUMP JUMPDEST PUSH0 DUP2 ISZERO ISZERO SWAP1 POP SWAP2 SWAP1 POP JUMP JUMPDEST PUSH2 0x16A1 DUP2 PUSH2 0x168D JUMP JUMPDEST DUP3 MSTORE POP POP JUMP JUMPDEST PUSH0 PUSH1 0x20 DUP3 ADD SWAP1 POP PUSH2 0x16BA PUSH0 DUP4 ADD DUP5 PUSH2 0x1698 JUMP JUMPDEST SWAP3 SWAP2 POP POP JUMP JUMPDEST PUSH0 PUSH1 0x20 DUP3 DUP5 SUB SLT ISZERO PUSH2 0x16D5 JUMPI PUSH2 0x16D4 PUSH2 0x1512 JUMP JUMPDEST JUMPDEST PUSH0 PUSH2 0x16E2 DUP5 DUP3 DUP6 ADD PUSH2 0x1593 JUMP JUMPDEST SWAP2 POP POP SWAP3 SWAP2 POP POP JUMP JUMPDEST PUSH0 DUP2 MLOAD SWAP1 POP SWAP2 SWAP1 POP JUMP JUMPDEST PUSH0 DUP3 DUP3 MSTORE PUSH1 0x20 DUP3 ADD SWAP1 POP SWAP3 SWAP2 POP POP JUMP JUMPDEST DUP3 DUP2 DUP4 MCOPY PUSH0 DUP4 DUP4 ADD MSTORE POP POP POP JUMP JUMPDEST PUSH0 PUSH1 0x1F NOT PUSH1 0x1F DUP4 ADD AND SWAP1 POP SWAP2 SWAP1 POP JUMP JUMPDEST PUSH0 PUSH2 0x172D DUP3 PUSH2 0x16EB JUMP JUMPDEST PUSH2 0x1737 DUP2 DUP6 PUSH2 0x16F5 JUMP JUMPDEST SWAP4 POP PUSH2 0x1747 DUP2 DUP6 PUSH1 0x20 DUP7 ADD PUSH2 0x1705 JUMP JUMPDEST PUSH2 0x1750 DUP2 PUSH2 0x1713 JUMP JUMPDEST DUP5 ADD SWAP2 POP POP SWAP3 SWAP2 POP POP JUMP JUMPDEST PUSH0 PUSH1 0x20 DUP3 ADD SWAP1 POP DUP2 DUP2 SUB PUSH0 DUP4 ADD MSTORE PUSH2 0x1773 DUP2 DUP5 PUSH2 0x1723 JUMP JUMPDEST SWAP1 POP SWAP3 SWAP2 POP POP JUMP JUMPDEST PUSH0 DUP1 PUSH0 DUP1 PUSH1 0x80 DUP6 DUP8 SUB SLT ISZERO PUSH2 0x1793 JUMPI PUSH2 0x1792 PUSH2 0x1512 JUMP JUMPDEST JUMPDEST PUSH0 PUSH2 0x17A0 DUP8 DUP3 DUP9 ADD PUSH2 0x1560 JUMP JUMPDEST SWAP5 POP POP PUSH1 0x20 PUSH2 0x17B1 DUP8 DUP3 DUP9 ADD PUSH2 0x1560 JUMP JUMPDEST SWAP4 POP POP PUSH1 0x40 PUSH2 0x17C2 DUP8 DUP3 DUP9 ADD PUSH2 0x1593 JUMP JUMPDEST SWAP3 POP POP PUSH1 0x60 PUSH2 0x17D3 DUP8 DUP3 DUP9 ADD PUSH2 0x1593 JUMP JUMPDEST SWAP2 POP POP SWAP3 SWAP6 SWAP2 SWAP5 POP SWAP3 POP JUMP JUMPDEST PUSH0 DUP1 REVERT JUMPDEST PUSH32 0x4E487B7100000000000000000000000000000000000000000000000000000000 PUSH0 MSTORE PUSH1 0x41 PUSH1 0x4 MSTORE PUSH1 0x24 PUSH0 REVERT JUMPDEST PUSH2 0x1819 DUP3 PUSH2 0x1713 JUMP JUMPDEST DUP2 ADD DUP2 DUP2 LT PUSH8 0xFFFFFFFFFFFFFFFF DUP3 GT OR ISZERO PUSH2 0x1838 JUMPI PUSH2 0x1837 PUSH2 0x17E3 JUMP JUMPDEST JUMPDEST DUP1 PUSH1 0x40 MSTORE POP POP POP JUMP JUMPDEST PUSH0 PUSH2 0x184A PUSH2 0x1509 JUMP JUMPDEST SWAP1 POP PUSH2 0x1856 DUP3 DUP3 PUSH2 0x1810 JUMP JUMPDEST SWAP2 SWAP1 POP JUMP JUMPDEST PUSH0 PUSH8 0xFFFFFFFFFFFFFFFF DUP3 GT ISZERO PUSH2 0x1875 JUMPI PUSH2 0x1874 PUSH2 0x17E3 JUMP JUMPDEST JUMPDEST PUSH1 0x20 DUP3 MUL SWAP1 POP PUSH1 0x20 DUP2 ADD SWAP1 POP SWAP2 SWAP1 POP JUMP JUMPDEST PUSH0 DUP1 REVERT JUMPDEST PUSH0 PUSH2 0x189C PUSH2 0x1897 DUP5 PUSH2 0x185B JUMP JUMPDEST PUSH2 0x1841 JUMP JUMPDEST SWAP1 POP DUP1 DUP4 DUP3 MSTORE PUSH1 0x20 DUP3 ADD SWAP1 POP PUSH1 0x20 DUP5 MUL DUP4 ADD DUP6 DUP2 GT ISZERO PUSH2 0x18BF JUMPI PUSH2 0x18BE PUSH2 0x1886 JUMP JUMPDEST JUMPDEST DUP4 JUMPDEST DUP2 DUP2 LT ISZERO PUSH2 0x18E8 JUMPI DUP1 PUSH2 0x18D4 DUP9 DUP3 PUSH2 0x1593 JUMP JUMPDEST DUP5 MSTORE PUSH1 0x20 DUP5 ADD SWAP4 POP POP PUSH1 0x20 DUP2 ADD SWAP1 POP PUSH2 0x18C1 JUMP JUMPDEST POP POP POP SWAP4 SWAP3 POP POP POP JUMP JUMPDEST PUSH0 DUP3 PUSH1 0x1F DUP4 ADD SLT PUSH2 0x1906 JUMPI PUSH2 0x1905 PUSH2 0x17DF JUMP JUMPDEST JUMPDEST DUP2 CALLDATALOAD PUSH2 0x1916 DUP5 DUP3 PUSH1 0x20 DUP7 ADD PUSH2 0x188A JUMP JUMPDEST SWAP2 POP POP SWAP3 SWAP2 POP POP JUMP JUMPDEST PUSH0 DUP1 REVERT JUMPDEST PUSH0 PUSH8 0xFFFFFFFFFFFFFFFF DUP3 GT ISZERO PUSH2 0x193D JUMPI PUSH2 0x193C PUSH2 0x17E3 JUMP JUMPDEST JUMPDEST PUSH2 0x1946 DUP3 PUSH2 0x1713 JUMP JUMPDEST SWAP1 POP PUSH1 0x20 DUP2 ADD SWAP1 POP SWAP2 SWAP1 POP JUMP JUMPDEST DUP3 DUP2 DUP4 CALLDATACOPY PUSH0 DUP4 DUP4 ADD MSTORE POP POP POP JUMP JUMPDEST PUSH0 PUSH2 0x1973 PUSH2 0x196E DUP5 PUSH2 0x1923 JUMP JUMPDEST PUSH2 0x1841 JUMP JUMPDEST SWAP1 POP DUP3 DUP2 MSTORE PUSH1 0x20 DUP2 ADD DUP5 DUP5 DUP5 ADD GT ISZERO PUSH2 0x198F JUMPI PUSH2 0x198E PUSH2 0x191F JUMP JUMPDEST JUMPDEST PUSH2 0x199A DUP5 DUP3 DUP6 PUSH2 0x1953 JUMP JUMPDEST POP SWAP4 SWAP3 POP POP POP JUMP JUMPDEST PUSH0 DUP3 PUSH1 0x1F DUP4 ADD SLT PUSH2 0x19B6 JUMPI PUSH2 0x19B5 PUSH2 0x17DF JUMP JUMPDEST JUMPDEST DUP2 CALLDATALOAD PUSH2 0x19C6 DUP5 DUP3 PUSH1 0x20 DUP7 ADD PUSH2 0x1961 JUMP JUMPDEST SWAP2 POP POP SWAP3 SWAP2 POP POP JUMP JUMPDEST PUSH0 DUP1 PUSH0 DUP1 PUSH0 PUSH1 0xA0 DUP7 DUP9 SUB SLT ISZERO PUSH2 0x19E8 JUMPI PUSH2 0x19E7 PUSH2 0x1512 JUMP JUMPDEST JUMPDEST PUSH0 PUSH2 0x19F5 DUP9 DUP3 DUP10 ADD PUSH2 0x1560 JUMP JUMPDEST SWAP6 POP POP PUSH1 0x20 PUSH2 0x1A06 DUP9 DUP3 DUP10 ADD PUSH2 0x1560 JUMP JUMPDEST SWAP5 POP POP PUSH1 0x40 DUP7 ADD CALLDATALOAD PUSH8 0xFFFFFFFFFFFFFFFF DUP2 GT ISZERO PUSH2 0x1A27 JUMPI PUSH2 0x1A26 PUSH2 0x1516 JUMP JUMPDEST JUMPDEST PUSH2 0x1A33 DUP9 DUP3 DUP10 ADD PUSH2 0x18F2 JUMP JUMPDEST SWAP4 POP POP PUSH1 0x60 DUP7 ADD CALLDATALOAD PUSH8 0xFFFFFFFFFFFFFFFF DUP2 GT ISZERO PUSH2 0x1A54 JUMPI PUSH2 0x1A53 PUSH2 0x1516 JUMP JUMPDEST JUMPDEST PUSH2 0x1A60 DUP9 DUP3 DUP10 ADD PUSH2 0x18F2 JUMP JUMPDEST SWAP3 POP POP PUSH1 0x80 DUP7 ADD CALLDATALOAD PUSH8 0xFFFFFFFFFFFFFFFF DUP2 GT ISZERO PUSH2 0x1A81 JUMPI PUSH2 0x1A80 PUSH2 0x1516 JUMP JUMPDEST JUMPDEST PUSH2 0x1A8D DUP9 DUP3 DUP10 ADD PUSH2 0x19A2 JUMP JUMPDEST SWAP2 POP POP SWAP3 SWAP6 POP SWAP3 SWAP6 SWAP1 SWAP4 POP JUMP JUMPDEST PUSH0 PUSH8 0xFFFFFFFFFFFFFFFF DUP3 GT ISZERO PUSH2 0x1AB4 JUMPI PUSH2 0x1AB3 PUSH2 0x17E3 JUMP JUMPDEST JUMPDEST PUSH1 0x20 DUP3 MUL SWAP1 POP PUSH1 0x20 DUP2 ADD SWAP1 POP SWAP2 SWAP1 POP JUMP JUMPDEST PUSH0 PUSH2 0x1AD7 PUSH2 0x1AD2 DUP5 PUSH2 0x1A9A JUMP JUMPDEST PUSH2 0x1841 JUMP JUMPDEST SWAP1 POP DUP1 DUP4 DUP3 MSTORE PUSH1 0x20 DUP3 ADD SWAP1 POP PUSH1 0x20 DUP5 MUL DUP4 ADD DUP6 DUP2 GT ISZERO PUSH2 0x1AFA JUMPI PUSH2 0x1AF9 PUSH2 0x1886 JUMP JUMPDEST JUMPDEST DUP4 JUMPDEST DUP2 DUP2 LT ISZERO PUSH2 0x1B23 JUMPI DUP1 PUSH2 0x1B0F DUP9 DUP3 PUSH2 0x1560 JUMP JUMPDEST DUP5 MSTORE PUSH1 0x20 DUP5 ADD SWAP4 POP POP PUSH1 0x20 DUP2 ADD SWAP1 POP PUSH2 0x1AFC JUMP JUMPDEST POP POP POP SWAP4 SWAP3 POP POP POP JUMP JUMPDEST PUSH0 DUP3 PUSH1 0x1F DUP4 ADD SLT PUSH2 0x1B41 JUMPI PUSH2 0x1B40 PUSH2 0x17DF JUMP JUMPDEST JUMPDEST DUP2 CALLDATALOAD PUSH2 0x1B51 DUP5 DUP3 PUSH1 0x20 DUP7 ADD PUSH2 0x1AC5 JUMP JUMPDEST SWAP2 POP POP SWAP3 SWAP2 POP POP JUMP JUMPDEST PUSH0 DUP1 PUSH1 0x40 DUP4 DUP6 SUB SLT ISZERO PUSH2 0x1B70 JUMPI PUSH2 0x1B6F PUSH2 0x1512 JUMP JUMPDEST JUMPDEST PUSH0 DUP4 ADD CALLDATALOAD PUSH8 0xFFFFFFFFFFFFFFFF DUP2 GT ISZERO PUSH2 0x1B8D JUMPI PUSH2 0x1B8C PUSH2 0x1516 JUMP JUMPDEST JUMPDEST PUSH2 0x1B99 DUP6 DUP3 DUP7 ADD PUSH2 0x1B2D JUMP JUMPDEST SWAP3 POP POP PUSH1 0x20 DUP4 ADD CALLDATALOAD PUSH8 0xFFFFFFFFFFFFFFFF DUP2 GT ISZERO PUSH2 0x1BBA JUMPI PUSH2 0x1BB9 PUSH2 0x1516 JUMP JUMPDEST JUMPDEST PUSH2 0x1BC6 DUP6 DUP3 DUP7 ADD PUSH2 0x18F2 JUMP JUMPDEST SWAP2 POP POP SWAP3 POP SWAP3 SWAP1 POP JUMP JUMPDEST PUSH0 DUP2 MLOAD SWAP1 POP SWAP2 SWAP1 POP JUMP JUMPDEST PUSH0 DUP3 DUP3 MSTORE PUSH1 0x20 DUP3 ADD SWAP1 POP SWAP3 SWAP2 POP POP JUMP JUMPDEST PUSH0 DUP2 SWAP1 POP PUSH1 0x20 DUP3 ADD SWAP1 POP SWAP2 SWAP1 POP JUMP JUMPDEST PUSH2 0x1C02 DUP2 PUSH2 0x1574 JUMP JUMPDEST DUP3 MSTORE POP POP JUMP JUMPDEST PUSH0 PUSH2 0x1C13 DUP4 DUP4 PUSH2 0x1BF9 JUMP JUMPDEST PUSH1 0x20 DUP4 ADD SWAP1 POP SWAP3 SWAP2 POP POP JUMP JUMPDEST PUSH0 PUSH1 0x20 DUP3 ADD SWAP1 POP SWAP2 SWAP1 POP JUMP JUMPDEST PUSH0 PUSH2 0x1C35 DUP3 PUSH2 0x1BD0 JUMP JUMPDEST PUSH2 0x1C3F DUP2 DUP6 PUSH2 0x1BDA JUMP JUMPDEST SWAP4 POP PUSH2 0x1C4A DUP4 PUSH2 0x1BEA JUMP JUMPDEST DUP1 PUSH0 JUMPDEST DUP4 DUP2 LT ISZERO PUSH2 0x1C7A JUMPI DUP2 MLOAD PUSH2 0x1C61 DUP9 DUP3 PUSH2 0x1C08 JUMP JUMPDEST SWAP8 POP PUSH2 0x1C6C DUP4 PUSH2 0x1C1F JUMP JUMPDEST SWAP3 POP POP PUSH1 0x1 DUP2 ADD SWAP1 POP PUSH2 0x1C4D JUMP JUMPDEST POP DUP6 SWAP4 POP POP POP POP SWAP3 SWAP2 POP POP JUMP JUMPDEST PUSH0 PUSH1 0x20 DUP3 ADD SWAP1 POP DUP2 DUP2 SUB PUSH0 DUP4 ADD MSTORE PUSH2 0x1C9F DUP2 DUP5 PUSH2 0x1C2B JUMP JUMPDEST SWAP1 POP SWAP3 SWAP2 POP POP JUMP JUMPDEST PUSH0 PUSH8 0xFFFFFFFFFFFFFFFF DUP3 GT ISZERO PUSH2 0x1CC1 JUMPI PUSH2 0x1CC0 PUSH2 0x17E3 JUMP JUMPDEST JUMPDEST PUSH2 0x1CCA DUP3 PUSH2 0x1713 JUMP JUMPDEST SWAP1 POP PUSH1 0x20 DUP2 ADD SWAP1 POP SWAP2 SWAP1 POP JUMP JUMPDEST PUSH0 PUSH2 0x1CE9 PUSH2 0x1CE4 DUP5 PUSH2 0x1CA7 JUMP JUMPDEST PUSH2 0x1841 JUMP JUMPDEST SWAP1 POP DUP3 DUP2 MSTORE PUSH1 0x20 DUP2 ADD DUP5 DUP5 DUP5 ADD GT ISZERO PUSH2 0x1D05 JUMPI PUSH2 0x1D04 PUSH2 0x191F JUMP JUMPDEST JUMPDEST PUSH2 0x1D10 DUP5 DUP3 DUP6 PUSH2 0x1953 JUMP JUMPDEST POP SWAP4 SWAP3 POP POP POP JUMP JUMPDEST PUSH0 DUP3 PUSH1 0x1F DUP4 ADD SLT PUSH2 0x1D2C JUMPI PUSH2 0x1D2B PUSH2 0x17DF JUMP JUMPDEST JUMPDEST DUP2 CALLDATALOAD PUSH2 0x1D3C DUP5 DUP3 PUSH1 0x20 DUP7 ADD PUSH2 0x1CD7 JUMP JUMPDEST SWAP2 POP POP SWAP3 SWAP2 POP POP JUMP JUMPDEST PUSH0 DUP1 PUSH1 0x40 DUP4 DUP6 SUB SLT ISZERO PUSH2 0x1D5B JUMPI PUSH2 0x1D5A PUSH2 0x1512 JUMP JUMPDEST JUMPDEST PUSH0 PUSH2 0x1D68 DUP6 DUP3 DUP7 ADD PUSH2 0x1593 JUMP JUMPDEST SWAP3 POP POP PUSH1 0x20 DUP4 ADD CALLDATALOAD PUSH8 0xFFFFFFFFFFFFFFFF DUP2 GT ISZERO PUSH2 0x1D89 JUMPI PUSH2 0x1D88 PUSH2 0x1516 JUMP JUMPDEST JUMPDEST PUSH2 0x1D95 DUP6 DUP3 DUP7 ADD PUSH2 0x1D18 JUMP JUMPDEST SWAP2 POP POP SWAP3 POP SWAP3 SWAP1 POP JUMP JUMPDEST PUSH2 0x1DA8 DUP2 PUSH2 0x168D JUMP JUMPDEST DUP2 EQ PUSH2 0x1DB2 JUMPI PUSH0 DUP1 REVERT JUMPDEST POP JUMP JUMPDEST PUSH0 DUP2 CALLDATALOAD SWAP1 POP PUSH2 0x1DC3 DUP2 PUSH2 0x1D9F JUMP JUMPDEST SWAP3 SWAP2 POP POP JUMP JUMPDEST PUSH0 DUP1 PUSH1 0x40 DUP4 DUP6 SUB SLT ISZERO PUSH2 0x1DDF JUMPI PUSH2 0x1DDE PUSH2 0x1512 JUMP JUMPDEST JUMPDEST PUSH0 PUSH2 0x1DEC DUP6 DUP3 DUP7 ADD PUSH2 0x1560 JUMP JUMPDEST SWAP3 POP POP PUSH1 0x20 PUSH2 0x1DFD DUP6 DUP3 DUP7 ADD PUSH2 0x1DB5 JUMP JUMPDEST SWAP2 POP POP SWAP3 POP SWAP3 SWAP1 POP JUMP JUMPDEST PUSH0 DUP1 PUSH1 0x40 DUP4 DUP6 SUB SLT ISZERO PUSH2 0x1E1D JUMPI PUSH2 0x1E1C PUSH2 0x1512 JUMP JUMPDEST JUMPDEST PUSH0 PUSH2 0x1E2A DUP6 DUP3 DUP7 ADD PUSH2 0x1560 JUMP JUMPDEST SWAP3 POP POP PUSH1 0x20 PUSH2 0x1E3B DUP6 DUP3 DUP7 ADD PUSH2 0x1560 JUMP JUMPDEST SWAP2 POP POP SWAP3 POP SWAP3 SWAP1 POP JUMP JUMPDEST PUSH0 DUP1 PUSH0 DUP1 PUSH0 PUSH1 0xA0 DUP7 DUP9 SUB SLT ISZERO PUSH2 0x1E5E JUMPI PUSH2 0x1E5D PUSH2 0x1512 JUMP JUMPDEST JUMPDEST PUSH0 PUSH2 0x1E6B DUP9 DUP3 DUP10 ADD PUSH2 0x1560 JUMP JUMPDEST SWAP6 POP POP PUSH1 0x20 PUSH2 0x1E7C DUP9 DUP3 DUP10 ADD PUSH2 0x1560 JUMP JUMPDEST SWAP5 POP POP PUSH1 0x40 PUSH2 0x1E8D DUP9 DUP3 DUP10 ADD PUSH2 0x1593 JUMP JUMPDEST SWAP4 POP POP PUSH1 0x60 PUSH2 0x1E9E DUP9 DUP3 DUP10 ADD PUSH2 0x1593 JUMP JUMPDEST SWAP3 POP POP PUSH1 0x80 DUP7 ADD CALLDATALOAD PUSH8 0xFFFFFFFFFFFFFFFF DUP2 GT ISZERO PUSH2 0x1EBF JUMPI PUSH2 0x1EBE PUSH2 0x1516 JUMP JUMPDEST JUMPDEST PUSH2 0x1ECB DUP9 DUP3 DUP10 ADD PUSH2 0x19A2 JUMP JUMPDEST SWAP2 POP POP SWAP3 SWAP6 POP SWAP3 SWAP6 SWAP1 SWAP4 POP JUMP JUMPDEST PUSH32 0x4E487B7100000000000000000000000000000000000000000000000000000000 PUSH0 MSTORE PUSH1 0x22 PUSH1 0x4 MSTORE PUSH1 0x24 PUSH0 REVERT JUMPDEST PUSH0 PUSH1 0x2 DUP3 DIV SWAP1 POP PUSH1 0x1 DUP3 AND DUP1 PUSH2 0x1F1C JUMPI PUSH1 0x7F DUP3 AND SWAP2 POP JUMPDEST PUSH1 0x20 DUP3 LT DUP2 SUB PUSH2 0x1F2F JUMPI PUSH2 0x1F2E PUSH2 0x1ED8 JUMP JUMPDEST JUMPDEST POP SWAP2 SWAP1 POP JUMP JUMPDEST PUSH0 DUP2 SWAP1 POP SWAP3 SWAP2 POP POP JUMP JUMPDEST PUSH0 DUP2 SWAP1 POP DUP2 PUSH0 MSTORE PUSH1 0x20 PUSH0 KECCAK256 SWAP1 POP SWAP2 SWAP1 POP JUMP JUMPDEST PUSH0 DUP2 SLOAD PUSH2 0x1F5D DUP2 PUSH2 0x1F05 JUMP JUMPDEST PUSH2 0x1F67 DUP2 DUP7 PUSH2 0x1F35 JUMP JUMPDEST SWAP5 POP PUSH1 0x1 DUP3 AND PUSH0 DUP2 EQ PUSH2 0x1F81 JUMPI PUSH1 0x1 DUP2 EQ PUSH2 0x1F96 JUMPI PUSH2 0x1FC8 JUMP JUMPDEST PUSH1 0xFF NOT DUP4 AND DUP7 MSTORE DUP2 ISZERO ISZERO DUP3 MUL DUP7 ADD SWAP4 POP PUSH2 0x1FC8 JUMP JUMPDEST PUSH2 0x1F9F DUP6 PUSH2 0x1F3F JUMP JUMPDEST PUSH0 JUMPDEST DUP4 DUP2 LT ISZERO PUSH2 0x1FC0 JUMPI DUP2 SLOAD DUP2 DUP10 ADD MSTORE PUSH1 0x1 DUP3 ADD SWAP2 POP PUSH1 0x20 DUP2 ADD SWAP1 POP PUSH2 0x1FA1 JUMP JUMPDEST DUP4 DUP9 ADD SWAP6 POP POP POP JUMPDEST POP POP POP SWAP3 SWAP2 POP POP JUMP JUMPDEST PUSH0 PUSH2 0x1FDB DUP3 PUSH2 0x16EB JUMP JUMPDEST PUSH2 0x1FE5 DUP2 DUP6 PUSH2 0x1F35 JUMP JUMPDEST SWAP4 POP PUSH2 0x1FF5 DUP2 DUP6 PUSH1 0x20 DUP7 ADD PUSH2 0x1705 JUMP JUMPDEST DUP1 DUP5 ADD SWAP2 POP POP SWAP3 SWAP2 POP POP JUMP JUMPDEST PUSH0 PUSH2 0x200C DUP3 DUP6 PUSH2 0x1F51 JUMP JUMPDEST SWAP2 POP PUSH2 0x2018 DUP3 DUP5 PUSH2 0x1FD1 JUMP JUMPDEST SWAP2 POP DUP2 SWAP1 POP SWAP4 SWAP3 POP POP POP JUMP JUMPDEST PUSH2 0x202D DUP2 PUSH2 0x1539 JUMP JUMPDEST DUP3 MSTORE POP POP JUMP JUMPDEST PUSH0 PUSH1 0x40 DUP3 ADD SWAP1 POP PUSH2 0x2046 PUSH0 DUP4 ADD DUP6 PUSH2 0x2024 JUMP JUMPDEST PUSH2 0x2053 PUSH1 0x20 DUP4 ADD DUP5 PUSH2 0x2024 JUMP JUMPDEST SWAP4 SWAP3 POP POP POP JUMP JUMPDEST PUSH0 PUSH1 0x40 DUP3 ADD SWAP1 POP PUSH2 0x206D PUSH0 DUP4 ADD DUP6 PUSH2 0x15E5 JUMP JUMPDEST PUSH2 0x207A PUSH1 0x20 DUP4 ADD DUP5 PUSH2 0x15E5 JUMP JUMPDEST SWAP4 SWAP3 POP POP POP JUMP JUMPDEST PUSH32 0x4E487B7100000000000000000000000000000000000000000000000000000000 PUSH0 MSTORE PUSH1 0x32 PUSH1 0x4 MSTORE PUSH1 0x24 PUSH0 REVERT JUMPDEST PUSH32 0x4E487B7100000000000000000000000000000000000000000000000000000000 PUSH0 MSTORE PUSH1 0x11 PUSH1 0x4 MSTORE PUSH1 0x24 PUSH0 REVERT JUMPDEST PUSH0 PUSH2 0x20E5 DUP3 PUSH2 0x1574 JUMP JUMPDEST SWAP2 POP PUSH32 0xFFFFFFFFFFFFFFFFFFFFFFFFFFFFFFFFFFFFFFFFFFFFFFFFFFFFFFFFFFFFFFFF DUP3 SUB PUSH2 0x2117 JUMPI PUSH2 0x2116 PUSH2 0x20AE JUMP JUMPDEST JUMPDEST PUSH1 0x1 DUP3 ADD SWAP1 POP SWAP2 SWAP1 POP JUMP JUMPDEST PUSH0 PUSH1 0x20 DUP3 ADD SWAP1 POP PUSH2 0x2135 PUSH0 DUP4 ADD DUP5 PUSH2 0x2024 JUMP JUMPDEST SWAP3 SWAP2 POP POP JUMP JUMPDEST PUSH0 PUSH1 0x20 PUSH1 0x1F DUP4 ADD DIV SWAP1 POP SWAP2 SWAP1 POP JUMP JUMPDEST PUSH0 DUP3 DUP3 SHL SWAP1 POP SWAP3 SWAP2 POP POP JUMP JUMPDEST PUSH0 PUSH1 0x8 DUP4 MUL PUSH2 0x2185 PUSH32 0xFFFFFFFFFFFFFFFFFFFFFFFFFFFFFFFFFFFFFFFFFFFFFFFFFFFFFFFFFFFFFFFF DUP3 PUSH2 0x214A JUMP JUMPDEST PUSH2 0x218F DUP7 DUP4 PUSH2 0x214A JUMP JUMPDEST SWAP6 POP DUP1 NOT DUP5 AND SWAP4 POP DUP1 DUP7 AND DUP5 OR SWAP3 POP POP POP SWAP4 SWAP3 POP POP POP JUMP JUMPDEST PUSH0 DUP2 SWAP1 POP SWAP2 SWAP1 POP JUMP JUMPDEST PUSH0 PUSH2 0x21CA PUSH2 0x21C5 PUSH2 0x21C0 DUP5 PUSH2 0x1574 JUMP JUMPDEST PUSH2 0x21A7 JUMP JUMPDEST PUSH2 0x1574 JUMP JUMPDEST SWAP1 POP SWAP2 SWAP1 POP JUMP JUMPDEST PUSH0 DUP2 SWAP1 POP SWAP2 SWAP1 POP JUMP JUMPDEST PUSH2 0x21E3 DUP4 PUSH2 0x21B0 JUMP JUMPDEST PUSH2 0x21F7 PUSH2 0x21EF DUP3 PUSH2 0x21D1 JUMP JUMPDEST DUP5 DUP5 SLOAD PUSH2 0x2156 JUMP JUMPDEST DUP3 SSTORE POP POP POP POP JUMP JUMPDEST PUSH0 SWAP1 JUMP JUMPDEST PUSH2 0x220B PUSH2 0x21FF JUMP JUMPDEST PUSH2 0x2216 DUP2 DUP5 DUP5 PUSH2 0x21DA JUMP JUMPDEST POP POP POP JUMP JUMPDEST JUMPDEST DUP2 DUP2 LT ISZERO PUSH2 0x2239 JUMPI PUSH2 0x222E PUSH0 DUP3 PUSH2 0x2203 JUMP JUMPDEST PUSH1 0x1 DUP2 ADD SWAP1 POP PUSH2 0x221C JUMP JUMPDEST POP POP JUMP JUMPDEST PUSH1 0x1F DUP3 GT ISZERO PUSH2 0x227E JUMPI PUSH2 0x224F DUP2 PUSH2 0x1F3F JUMP JUMPDEST PUSH2 0x2258 DUP5 PUSH2 0x213B JUMP JUMPDEST DUP2 ADD PUSH1 0x20 DUP6 LT ISZERO PUSH2 0x2267 JUMPI DUP2 SWAP1 POP JUMPDEST PUSH2 0x227B PUSH2 0x2273 DUP6 PUSH2 0x213B JUMP JUMPDEST DUP4 ADD DUP3 PUSH2 0x221B JUMP JUMPDEST POP POP JUMPDEST POP POP POP JUMP JUMPDEST PUSH0 DUP3 DUP3 SHR SWAP1 POP SWAP3 SWAP2 POP POP JUMP JUMPDEST PUSH0 PUSH2 0x229E PUSH0 NOT DUP5 PUSH1 0x8 MUL PUSH2 0x2283 JUMP JUMPDEST NOT DUP1 DUP4 AND SWAP2 POP POP SWAP3 SWAP2 POP POP JUMP JUMPDEST PUSH0 PUSH2 0x22B6 DUP4 DUP4 PUSH2 0x228F JUMP JUMPDEST SWAP2 POP DUP3 PUSH1 0x2 MUL DUP3 OR SWAP1 POP SWAP3 SWAP2 POP POP JUMP JUMPDEST PUSH2 0x22CF DUP3 PUSH2 0x16EB JUMP JUMPDEST PUSH8 0xFFFFFFFFFFFFFFFF DUP2 GT ISZERO PUSH2 0x22E8 JUMPI PUSH2 0x22E7 PUSH2 0x17E3 JUMP JUMPDEST JUMPDEST PUSH2 0x22F2 DUP3 SLOAD PUSH2 0x1F05 JUMP JUMPDEST PUSH2 0x22FD DUP3 DUP3 DUP6 PUSH2 0x223D JUMP JUMPDEST PUSH0 PUSH1 0x20 SWAP1 POP PUSH1 0x1F DUP4 GT PUSH1 0x1 DUP2 EQ PUSH2 0x232E JUMPI PUSH0 DUP5 ISZERO PUSH2 0x231C JUMPI DUP3 DUP8 ADD MLOAD SWAP1 POP JUMPDEST PUSH2 0x2326 DUP6 DUP3 PUSH2 0x22AB JUMP JUMPDEST DUP7 SSTORE POP PUSH2 0x238D JUMP JUMPDEST PUSH1 0x1F NOT DUP5 AND PUSH2 0x233C DUP7 PUSH2 0x1F3F JUMP JUMPDEST PUSH0 JUMPDEST DUP3 DUP2 LT ISZERO PUSH2 0x2363 JUMPI DUP5 DUP10 ADD MLOAD DUP3 SSTORE PUSH1 0x1 DUP3 ADD SWAP2 POP PUSH1 0x20 DUP6 ADD SWAP5 POP PUSH1 0x20 DUP2 ADD SWAP1 POP PUSH2 0x233E JUMP JUMPDEST DUP7 DUP4 LT ISZERO PUSH2 0x2380 JUMPI DUP5 DUP10 ADD MLOAD PUSH2 0x237C PUSH1 0x1F DUP10 AND DUP3 PUSH2 0x228F JUMP JUMPDEST DUP4 SSTORE POP JUMPDEST PUSH1 0x1 PUSH1 0x2 DUP9 MUL ADD DUP9 SSTORE POP POP POP JUMPDEST POP POP POP POP POP POP JUMP JUMPDEST PUSH0 PUSH1 0x80 DUP3 ADD SWAP1 POP PUSH2 0x23A8 PUSH0 DUP4 ADD DUP8 PUSH2 0x2024 JUMP JUMPDEST PUSH2 0x23B5 PUSH1 0x20 DUP4 ADD DUP7 PUSH2 0x15E5 JUMP JUMPDEST PUSH2 0x23C2 PUSH1 0x40 DUP4 ADD DUP6 PUSH2 0x15E5 JUMP JUMPDEST PUSH2 0x23CF PUSH1 0x60 DUP4 ADD DUP5 PUSH2 0x15E5 JUMP JUMPDEST SWAP6 SWAP5 POP POP POP POP POP JUMP JUMPDEST PUSH0 PUSH2 0x23E2 DUP3 PUSH2 0x1574 JUMP JUMPDEST SWAP2 POP PUSH2 0x23ED DUP4 PUSH2 0x1574 JUMP JUMPDEST SWAP3 POP DUP3 DUP3 ADD SWAP1 POP DUP1 DUP3 GT ISZERO PUSH2 0x2405 JUMPI PUSH2 0x2404 PUSH2 0x20AE JUMP JUMPDEST JUMPDEST SWAP3 SWAP2 POP POP JUMP JUMPDEST PUSH0 PUSH1 0x40 DUP3 ADD SWAP1 POP DUP2 DUP2 SUB PUSH0 DUP4 ADD MSTORE PUSH2 0x2423 DUP2 DUP6 PUSH2 0x1C2B JUMP JUMPDEST SWAP1 POP DUP2 DUP2 SUB PUSH1 0x20 DUP4 ADD MSTORE PUSH2 0x2437 DUP2 DUP5 PUSH2 0x1C2B JUMP JUMPDEST SWAP1 POP SWAP4 SWAP3 POP POP POP JUMP JUMPDEST PUSH0 DUP2 MLOAD SWAP1 POP SWAP2 SWAP1 POP JUMP JUMPDEST PUSH0 DUP3 DUP3 MSTORE PUSH1 0x20 DUP3 ADD SWAP1 POP SWAP3 SWAP2 POP POP JUMP JUMPDEST PUSH0 PUSH2 0x2464 DUP3 PUSH2 0x2440 JUMP JUMPDEST PUSH2 0x246E DUP2 DUP6 PUSH2 0x244A JUMP JUMPDEST SWAP4 POP PUSH2 0x247E DUP2 DUP6 PUSH1 0x20 DUP7 ADD PUSH2 0x1705 JUMP JUMPDEST PUSH2 0x2487 DUP2 PUSH2 0x1713 JUMP JUMPDEST DUP5 ADD SWAP2 POP POP SWAP3 SWAP2 POP POP JUMP JUMPDEST PUSH0 PUSH1 0xA0 DUP3 ADD SWAP1 POP PUSH2 0x24A5 PUSH0 DUP4 ADD DUP9 PUSH2 0x2024 JUMP JUMPDEST PUSH2 0x24B2 PUSH1 0x20 DUP4 ADD DUP8 PUSH2 0x2024 JUMP JUMPDEST PUSH2 0x24BF PUSH1 0x40 DUP4 ADD DUP7 PUSH2 0x15E5 JUMP JUMPDEST PUSH2 0x24CC PUSH1 0x60 DUP4 ADD DUP6 PUSH2 0x15E5 JUMP JUMPDEST DUP2 DUP2 SUB PUSH1 0x80 DUP4 ADD MSTORE PUSH2 0x24DE DUP2 DUP5 PUSH2 0x245A JUMP JUMPDEST SWAP1 POP SWAP7 SWAP6 POP POP POP POP POP POP JUMP JUMPDEST PUSH0 DUP2 MLOAD SWAP1 POP PUSH2 0x24F8 DUP2 PUSH2 0x1638 JUMP JUMPDEST SWAP3 SWAP2 POP POP JUMP JUMPDEST PUSH0 PUSH1 0x20 DUP3 DUP5 SUB SLT ISZERO PUSH2 0x2513 JUMPI PUSH2 0x2512 PUSH2 0x1512 JUMP JUMPDEST JUMPDEST PUSH0 PUSH2 0x2520 DUP5 DUP3 DUP6 ADD PUSH2 0x24EA JUMP JUMPDEST SWAP2 POP POP SWAP3 SWAP2 POP POP JUMP JUMPDEST PUSH0 PUSH1 0xA0 DUP3 ADD SWAP1 POP PUSH2 0x253C PUSH0 DUP4 ADD DUP9 PUSH2 0x2024 JUMP JUMPDEST PUSH2 0x2549 PUSH1 0x20 DUP4 ADD DUP8 PUSH2 0x2024 JUMP JUMPDEST DUP2 DUP2 SUB PUSH1 0x40 DUP4 ADD MSTORE PUSH2 0x255B DUP2 DUP7 PUSH2 0x1C2B JUMP JUMPDEST SWAP1 POP DUP2 DUP2 SUB PUSH1 0x60 DUP4 ADD MSTORE PUSH2 0x256F DUP2 DUP6 PUSH2 0x1C2B JUMP JUMPDEST SWAP1 POP DUP2 DUP2 SUB PUSH1 0x80 DUP4 ADD MSTORE PUSH2 0x2583 DUP2 DUP5 PUSH2 0x245A JUMP JUMPDEST SWAP1 POP SWAP7 SWAP6 POP POP POP POP POP POP JUMP INVALID LOG2 PUSH5 0x6970667358 0x22 SLT KECCAK256 SHR SWAP12 0xC8 SELFDESTRUCT 0xC7 PUSH28 0x814D6DA0ADAC9CABC17AC141F86175DDE5A6265FD86EC23C04EB6473 PUSH16 0x6C634300081A00330000000000000000 "
				},
				"gasEstimates": {
					"creation": {
						"codeDepositCost": "1933800",
						"executionCost": "infinite",
						"totalCost": "infinite"
					},
					"external": {
						"balanceOf(address,uint256)": "infinite",
						"balanceOfBatch(address[],uint256[])": "infinite",
						"currentID()": "2514",
						"isApprovedForAll(address,address)": "infinite",
						"mint(uint256,string)": "infinite",
						"safeBatchTransferFrom(address,address,uint256[],uint256[],bytes)": "infinite",
						"safeTransferFrom(address,address,uint256,uint256)": "infinite",
						"safeTransferFrom(address,address,uint256,uint256,bytes)": "infinite",
						"setApprovalForAll(address,bool)": "infinite",
						"supportsInterface(bytes4)": "786",
						"uri(uint256)": "infinite"
					}
				},
				"methodIdentifiers": {
					"balanceOf(address,uint256)": "00fdd58e",
					"balanceOfBatch(address[],uint256[])": "4e1273f4",
					"currentID()": "1c75cfb4",
					"isApprovedForAll(address,address)": "e985e9c5",
					"mint(uint256,string)": "77097fc8",
					"safeBatchTransferFrom(address,address,uint256[],uint256[],bytes)": "2eb2c2d6",
					"safeTransferFrom(address,address,uint256,uint256)": "0febdd49",
					"safeTransferFrom(address,address,uint256,uint256,bytes)": "f242432a",
					"setApprovalForAll(address,bool)": "a22cb465",
					"supportsInterface(bytes4)": "01ffc9a7",
					"uri(uint256)": "0e89341c"
				}
			},
			"storageLayout": {
				"storage": [
					{
						"astId": 178,
						"contract": "contracts/SongNFT.sol:SongNFT",
						"label": "_balances",
						"offset": 0,
						"slot": "0",
						"type": "t_mapping(t_uint256,t_mapping(t_address,t_uint256))"
					},
					{
						"astId": 184,
						"contract": "contracts/SongNFT.sol:SongNFT",
						"label": "_operatorApprovals",
						"offset": 0,
						"slot": "1",
						"type": "t_mapping(t_address,t_mapping(t_address,t_bool))"
					},
					{
						"astId": 186,
						"contract": "contracts/SongNFT.sol:SongNFT",
						"label": "_uri",
						"offset": 0,
						"slot": "2",
						"type": "t_string_storage"
					},
					{
						"astId": 1367,
						"contract": "contracts/SongNFT.sol:SongNFT",
						"label": "_baseURI",
						"offset": 0,
						"slot": "3",
						"type": "t_string_storage"
					},
					{
						"astId": 1371,
						"contract": "contracts/SongNFT.sol:SongNFT",
						"label": "_tokenURIs",
						"offset": 0,
						"slot": "4",
						"type": "t_mapping(t_uint256,t_string_storage)"
					},
					{
						"astId": 3244,
						"contract": "contracts/SongNFT.sol:SongNFT",
						"label": "currentID",
						"offset": 0,
						"slot": "5",
						"type": "t_uint256"
					}
				],
				"types": {
					"t_address": {
						"encoding": "inplace",
						"label": "address",
						"numberOfBytes": "20"
					},
					"t_bool": {
						"encoding": "inplace",
						"label": "bool",
						"numberOfBytes": "1"
					},
					"t_mapping(t_address,t_bool)": {
						"encoding": "mapping",
						"key": "t_address",
						"label": "mapping(address => bool)",
						"numberOfBytes": "32",
						"value": "t_bool"
					},
					"t_mapping(t_address,t_mapping(t_address,t_bool))": {
						"encoding": "mapping",
						"key": "t_address",
						"label": "mapping(address => mapping(address => bool))",
						"numberOfBytes": "32",
						"value": "t_mapping(t_address,t_bool)"
					},
					"t_mapping(t_address,t_uint256)": {
						"encoding": "mapping",
						"key": "t_address",
						"label": "mapping(address => uint256)",
						"numberOfBytes": "32",
						"value": "t_uint256"
					},
					"t_mapping(t_uint256,t_mapping(t_address,t_uint256))": {
						"encoding": "mapping",
						"key": "t_uint256",
						"label": "mapping(uint256 => mapping(address => uint256))",
						"numberOfBytes": "32",
						"value": "t_mapping(t_address,t_uint256)"
					},
					"t_mapping(t_uint256,t_string_storage)": {
						"encoding": "mapping",
						"key": "t_uint256",
						"label": "mapping(uint256 => string)",
						"numberOfBytes": "32",
						"value": "t_string_storage"
					},
					"t_string_storage": {
						"encoding": "bytes",
						"label": "string",
						"numberOfBytes": "32"
					},
					"t_uint256": {
						"encoding": "inplace",
						"label": "uint256",
						"numberOfBytes": "32"
					}
				}
			},
			"userdoc": {
				"kind": "user",
				"methods": {},
				"version": 1
			}
		}
	}
}