{
	"contracts/MusicPlatform.sol": {
		"MusicPlatform": {
			"abi": [
				{
					"inputs": [
						{
							"internalType": "address",
							"name": "initialOwner",
							"type": "address"
						}
					],
					"stateMutability": "nonpayable",
					"type": "constructor"
				},
				{
					"inputs": [
						{
							"internalType": "address",
							"name": "sender",
							"type": "address"
						},
						{
							"internalType": "uint256",
							"name": "balance",
							"type": "uint256"
						},
						{
							"internalType": "uint256",
							"name": "needed",
							"type": "uint256"
						},
						{
							"internalType": "uint256",
							"name": "tokenId",
							"type": "uint256"
						}
					],
					"name": "ERC1155InsufficientBalance",
					"type": "error"
				},
				{
					"inputs": [
						{
							"internalType": "address",
							"name": "approver",
							"type": "address"
						}
					],
					"name": "ERC1155InvalidApprover",
					"type": "error"
				},
				{
					"inputs": [
						{
							"internalType": "uint256",
							"name": "idsLength",
							"type": "uint256"
						},
						{
							"internalType": "uint256",
							"name": "valuesLength",
							"type": "uint256"
						}
					],
					"name": "ERC1155InvalidArrayLength",
					"type": "error"
				},
				{
					"inputs": [
						{
							"internalType": "address",
							"name": "operator",
							"type": "address"
						}
					],
					"name": "ERC1155InvalidOperator",
					"type": "error"
				},
				{
					"inputs": [
						{
							"internalType": "address",
							"name": "receiver",
							"type": "address"
						}
					],
					"name": "ERC1155InvalidReceiver",
					"type": "error"
				},
				{
					"inputs": [
						{
							"internalType": "address",
							"name": "sender",
							"type": "address"
						}
					],
					"name": "ERC1155InvalidSender",
					"type": "error"
				},
				{
					"inputs": [
						{
							"internalType": "address",
							"name": "operator",
							"type": "address"
						},
						{
							"internalType": "address",
							"name": "owner",
							"type": "address"
						}
					],
					"name": "ERC1155MissingApprovalForAll",
					"type": "error"
				},
				{
					"inputs": [
						{
							"internalType": "address",
							"name": "owner",
							"type": "address"
						}
					],
					"name": "OwnableInvalidOwner",
					"type": "error"
				},
				{
					"inputs": [
						{
							"internalType": "address",
							"name": "account",
							"type": "address"
						}
					],
					"name": "OwnableUnauthorizedAccount",
					"type": "error"
				},
				{
					"anonymous": false,
					"inputs": [
						{
							"indexed": true,
							"internalType": "address",
							"name": "account",
							"type": "address"
						},
						{
							"indexed": true,
							"internalType": "address",
							"name": "operator",
							"type": "address"
						},
						{
							"indexed": false,
							"internalType": "bool",
							"name": "approved",
							"type": "bool"
						}
					],
					"name": "ApprovalForAll",
					"type": "event"
				},
				{
					"anonymous": false,
					"inputs": [
						{
							"indexed": true,
							"internalType": "address",
							"name": "previousOwner",
							"type": "address"
						},
						{
							"indexed": true,
							"internalType": "address",
							"name": "newOwner",
							"type": "address"
						}
					],
					"name": "OwnershipTransferred",
					"type": "event"
				},
				{
					"anonymous": false,
					"inputs": [
						{
							"indexed": true,
							"internalType": "address",
							"name": "operator",
							"type": "address"
						},
						{
							"indexed": true,
							"internalType": "address",
							"name": "from",
							"type": "address"
						},
						{
							"indexed": true,
							"internalType": "address",
							"name": "to",
							"type": "address"
						},
						{
							"indexed": false,
							"internalType": "uint256[]",
							"name": "ids",
							"type": "uint256[]"
						},
						{
							"indexed": false,
							"internalType": "uint256[]",
							"name": "values",
							"type": "uint256[]"
						}
					],
					"name": "TransferBatch",
					"type": "event"
				},
				{
					"anonymous": false,
					"inputs": [
						{
							"indexed": true,
							"internalType": "address",
							"name": "operator",
							"type": "address"
						},
						{
							"indexed": true,
							"internalType": "address",
							"name": "from",
							"type": "address"
						},
						{
							"indexed": true,
							"internalType": "address",
							"name": "to",
							"type": "address"
						},
						{
							"indexed": false,
							"internalType": "uint256",
							"name": "id",
							"type": "uint256"
						},
						{
							"indexed": false,
							"internalType": "uint256",
							"name": "value",
							"type": "uint256"
						}
					],
					"name": "TransferSingle",
					"type": "event"
				},
				{
					"anonymous": false,
					"inputs": [
						{
							"indexed": false,
							"internalType": "string",
							"name": "value",
							"type": "string"
						},
						{
							"indexed": true,
							"internalType": "uint256",
							"name": "id",
							"type": "uint256"
						}
					],
					"name": "URI",
					"type": "event"
				},
				{
					"inputs": [
						{
							"internalType": "address",
							"name": "account",
							"type": "address"
						},
						{
							"internalType": "uint256",
							"name": "id",
							"type": "uint256"
						}
					],
					"name": "balanceOf",
					"outputs": [
						{
							"internalType": "uint256",
							"name": "",
							"type": "uint256"
						}
					],
					"stateMutability": "view",
					"type": "function"
				},
				{
					"inputs": [
						{
							"internalType": "address[]",
							"name": "accounts",
							"type": "address[]"
						},
						{
							"internalType": "uint256[]",
							"name": "ids",
							"type": "uint256[]"
						}
					],
					"name": "balanceOfBatch",
					"outputs": [
						{
							"internalType": "uint256[]",
							"name": "",
							"type": "uint256[]"
						}
					],
					"stateMutability": "view",
					"type": "function"
				},
				{
					"inputs": [],
					"name": "currentID",
					"outputs": [
						{
							"internalType": "uint256",
							"name": "",
							"type": "uint256"
						}
					],
					"stateMutability": "view",
					"type": "function"
				},
				{
					"inputs": [
						{
							"internalType": "address",
							"name": "account",
							"type": "address"
						},
						{
							"internalType": "address",
							"name": "operator",
							"type": "address"
						}
					],
					"name": "isApprovedForAll",
					"outputs": [
						{
							"internalType": "bool",
							"name": "",
							"type": "bool"
						}
					],
					"stateMutability": "view",
					"type": "function"
				},
				{
					"inputs": [
						{
							"internalType": "address",
							"name": "account",
							"type": "address"
						},
						{
							"internalType": "uint256",
							"name": "amount",
							"type": "uint256"
						},
						{
							"internalType": "string",
							"name": "uri",
							"type": "string"
						}
					],
					"name": "mint",
					"outputs": [],
					"stateMutability": "nonpayable",
					"type": "function"
				},
				{
					"inputs": [],
					"name": "owner",
					"outputs": [
						{
							"internalType": "address",
							"name": "",
							"type": "address"
						}
					],
					"stateMutability": "view",
					"type": "function"
				},
				{
					"inputs": [],
					"name": "renounceOwnership",
					"outputs": [],
					"stateMutability": "nonpayable",
					"type": "function"
				},
				{
					"inputs": [
						{
							"internalType": "address",
							"name": "from",
							"type": "address"
						},
						{
							"internalType": "address",
							"name": "to",
							"type": "address"
						},
						{
							"internalType": "uint256[]",
							"name": "ids",
							"type": "uint256[]"
						},
						{
							"internalType": "uint256[]",
							"name": "values",
							"type": "uint256[]"
						},
						{
							"internalType": "bytes",
							"name": "data",
							"type": "bytes"
						}
					],
					"name": "safeBatchTransferFrom",
					"outputs": [],
					"stateMutability": "nonpayable",
					"type": "function"
				},
				{
					"inputs": [
						{
							"internalType": "address",
							"name": "from",
							"type": "address"
						},
						{
							"internalType": "address",
							"name": "to",
							"type": "address"
						},
						{
							"internalType": "uint256",
							"name": "id",
							"type": "uint256"
						},
						{
							"internalType": "uint256",
							"name": "value",
							"type": "uint256"
						}
					],
					"name": "safeTransferFrom",
					"outputs": [],
					"stateMutability": "nonpayable",
					"type": "function"
				},
				{
					"inputs": [
						{
							"internalType": "address",
							"name": "from",
							"type": "address"
						},
						{
							"internalType": "address",
							"name": "to",
							"type": "address"
						},
						{
							"internalType": "uint256",
							"name": "id",
							"type": "uint256"
						},
						{
							"internalType": "uint256",
							"name": "value",
							"type": "uint256"
						},
						{
							"internalType": "bytes",
							"name": "data",
							"type": "bytes"
						}
					],
					"name": "safeTransferFrom",
					"outputs": [],
					"stateMutability": "nonpayable",
					"type": "function"
				},
				{
					"inputs": [
						{
							"internalType": "address",
							"name": "operator",
							"type": "address"
						},
						{
							"internalType": "bool",
							"name": "approved",
							"type": "bool"
						}
					],
					"name": "setApprovalForAll",
					"outputs": [],
					"stateMutability": "nonpayable",
					"type": "function"
				},
				{
					"inputs": [
						{
							"internalType": "bytes4",
							"name": "interfaceId",
							"type": "bytes4"
						}
					],
					"name": "supportsInterface",
					"outputs": [
						{
							"internalType": "bool",
							"name": "",
							"type": "bool"
						}
					],
					"stateMutability": "view",
					"type": "function"
				},
				{
					"inputs": [
						{
							"internalType": "uint256",
							"name": "",
							"type": "uint256"
						}
					],
					"name": "tokenURIs",
					"outputs": [
						{
							"internalType": "string",
							"name": "",
							"type": "string"
						}
					],
					"stateMutability": "view",
					"type": "function"
				},
				{
					"inputs": [
						{
							"internalType": "address",
							"name": "newOwner",
							"type": "address"
						}
					],
					"name": "transferOwnership",
					"outputs": [],
					"stateMutability": "nonpayable",
					"type": "function"
				},
				{
					"inputs": [
						{
							"internalType": "uint256",
							"name": "",
							"type": "uint256"
						}
					],
					"name": "uri",
					"outputs": [
						{
							"internalType": "string",
							"name": "",
							"type": "string"
						}
					],
					"stateMutability": "view",
					"type": "function"
				}
			],
			"devdoc": {
				"errors": {
					"ERC1155InsufficientBalance(address,uint256,uint256,uint256)": [
						{
							"details": "Indicates an error related to the current `balance` of a `sender`. Used in transfers.",
							"params": {
								"balance": "Current balance for the interacting account.",
								"needed": "Minimum amount required to perform a transfer.",
								"sender": "Address whose tokens are being transferred.",
								"tokenId": "Identifier number of a token."
							}
						}
					],
					"ERC1155InvalidApprover(address)": [
						{
							"details": "Indicates a failure with the `approver` of a token to be approved. Used in approvals.",
							"params": {
								"approver": "Address initiating an approval operation."
							}
						}
					],
					"ERC1155InvalidArrayLength(uint256,uint256)": [
						{
							"details": "Indicates an array length mismatch between ids and values in a safeBatchTransferFrom operation. Used in batch transfers.",
							"params": {
								"idsLength": "Length of the array of token identifiers",
								"valuesLength": "Length of the array of token amounts"
							}
						}
					],
					"ERC1155InvalidOperator(address)": [
						{
							"details": "Indicates a failure with the `operator` to be approved. Used in approvals.",
							"params": {
								"operator": "Address that may be allowed to operate on tokens without being their owner."
							}
						}
					],
					"ERC1155InvalidReceiver(address)": [
						{
							"details": "Indicates a failure with the token `receiver`. Used in transfers.",
							"params": {
								"receiver": "Address to which tokens are being transferred."
							}
						}
					],
					"ERC1155InvalidSender(address)": [
						{
							"details": "Indicates a failure with the token `sender`. Used in transfers.",
							"params": {
								"sender": "Address whose tokens are being transferred."
							}
						}
					],
					"ERC1155MissingApprovalForAll(address,address)": [
						{
							"details": "Indicates a failure with the `operator`’s approval. Used in transfers.",
							"params": {
								"operator": "Address that may be allowed to operate on tokens without being their owner.",
								"owner": "Address of the current owner of a token."
							}
						}
					],
					"OwnableInvalidOwner(address)": [
						{
							"details": "The owner is not a valid owner account. (eg. `address(0)`)"
						}
					],
					"OwnableUnauthorizedAccount(address)": [
						{
							"details": "The caller account is not authorized to perform an operation."
						}
					]
				},
				"events": {
					"ApprovalForAll(address,address,bool)": {
						"details": "Emitted when `account` grants or revokes permission to `operator` to transfer their tokens, according to `approved`."
					},
					"TransferBatch(address,address,address,uint256[],uint256[])": {
						"details": "Equivalent to multiple {TransferSingle} events, where `operator`, `from` and `to` are the same for all transfers."
					},
					"TransferSingle(address,address,address,uint256,uint256)": {
						"details": "Emitted when `value` amount of tokens of type `id` are transferred from `from` to `to` by `operator`."
					},
					"URI(string,uint256)": {
						"details": "Emitted when the URI for token type `id` changes to `value`, if it is a non-programmatic URI. If an {URI} event was emitted for `id`, the standard https://eips.ethereum.org/EIPS/eip-1155#metadata-extensions[guarantees] that `value` will equal the value returned by {IERC1155MetadataURI-uri}."
					}
				},
				"kind": "dev",
				"methods": {
					"balanceOf(address,uint256)": {
						"details": "See {IERC1155-balanceOf}."
					},
					"balanceOfBatch(address[],uint256[])": {
						"details": "See {IERC1155-balanceOfBatch}. Requirements: - `accounts` and `ids` must have the same length."
					},
					"isApprovedForAll(address,address)": {
						"details": "See {IERC1155-isApprovedForAll}."
					},
					"owner()": {
						"details": "Returns the address of the current owner."
					},
					"renounceOwnership()": {
						"details": "Leaves the contract without owner. It will not be possible to call `onlyOwner` functions. Can only be called by the current owner. NOTE: Renouncing ownership will leave the contract without an owner, thereby disabling any functionality that is only available to the owner."
					},
					"safeBatchTransferFrom(address,address,uint256[],uint256[],bytes)": {
						"details": "See {IERC1155-safeBatchTransferFrom}."
					},
					"safeTransferFrom(address,address,uint256,uint256,bytes)": {
						"details": "See {IERC1155-safeTransferFrom}."
					},
					"setApprovalForAll(address,bool)": {
						"details": "See {IERC1155-setApprovalForAll}."
					},
					"supportsInterface(bytes4)": {
						"details": "See {IERC165-supportsInterface}."
					},
					"transferOwnership(address)": {
						"details": "Transfers ownership of the contract to a new account (`newOwner`). Can only be called by the current owner."
					},
					"uri(uint256)": {
						"details": "See {IERC1155MetadataURI-uri}. This implementation returns the same URI for *all* token types. It relies on the token type ID substitution mechanism https://eips.ethereum.org/EIPS/eip-1155#metadata[defined in the EIP]. Clients calling this function must replace the `\\{id\\}` substring with the actual token type ID."
					}
				},
				"version": 1
			},
			"evm": {
				"assembly": "    /* \"contracts/MusicPlatform.sol\":298:895  contract MusicPlatform is ERC1155, Ownable {... */\n  mstore(0x40, 0x80)\n    /* \"contracts/MusicPlatform.sol\":450:451  0 */\n  0x00\n    /* \"contracts/MusicPlatform.sol\":423:451  uint256 public currentID = 0 */\n  0x04\n  sstore\n    /* \"contracts/MusicPlatform.sol\":347:417  constructor(address initialOwner) ERC1155(\"\") Ownable(initialOwner) {} */\n  callvalue\n  dup1\n  iszero\n  tag_1\n  jumpi\n  0x00\n  dup1\n  revert\ntag_1:\n  pop\n  mload(0x40)\n  sub(codesize, bytecodeSize)\n  dup1\n  bytecodeSize\n  dup4\n  codecopy\n  dup2\n  dup2\n  add\n  0x40\n  mstore\n  dup2\n  add\n  swap1\n  tag_2\n  swap2\n  swap1\n  tag_3\n  jump\t// in\ntag_2:\n    /* \"contracts/MusicPlatform.sol\":401:413  initialOwner */\n  dup1\n    /* \"@openzeppelin/contracts/token/ERC1155/ERC1155.sol\":1251:1313  constructor(string memory uri_) {... */\n  mload(0x40)\n  dup1\n  0x20\n  add\n  0x40\n  mstore\n  dup1\n  0x00\n  dup2\n  mstore\n  pop\n    /* \"@openzeppelin/contracts/token/ERC1155/ERC1155.sol\":1293:1306  _setURI(uri_) */\n  tag_8\n    /* \"@openzeppelin/contracts/token/ERC1155/ERC1155.sol\":1301:1305  uri_ */\n  dup2\n    /* \"@openzeppelin/contracts/token/ERC1155/ERC1155.sol\":1293:1300  _setURI */\n  shl(0x20, tag_9)\n    /* \"@openzeppelin/contracts/token/ERC1155/ERC1155.sol\":1293:1306  _setURI(uri_) */\n  0x20\n  shr\n  jump\t// in\ntag_8:\n    /* \"@openzeppelin/contracts/token/ERC1155/ERC1155.sol\":1251:1313  constructor(string memory uri_) {... */\n  pop\n    /* \"@openzeppelin/contracts/access/Ownable.sol\":1297:1298  0 */\n  0x00\n    /* \"@openzeppelin/contracts/access/Ownable.sol\":1273:1299  initialOwner == address(0) */\n  0xffffffffffffffffffffffffffffffffffffffff\n  and\n    /* \"@openzeppelin/contracts/access/Ownable.sol\":1273:1285  initialOwner */\n  dup2\n    /* \"@openzeppelin/contracts/access/Ownable.sol\":1273:1299  initialOwner == address(0) */\n  0xffffffffffffffffffffffffffffffffffffffff\n  and\n  sub\n    /* \"@openzeppelin/contracts/access/Ownable.sol\":1269:1364  if (initialOwner == address(0)) {... */\n  tag_11\n  jumpi\n    /* \"@openzeppelin/contracts/access/Ownable.sol\":1350:1351  0 */\n  0x00\n    /* \"@openzeppelin/contracts/access/Ownable.sol\":1322:1353  OwnableInvalidOwner(address(0)) */\n  mload(0x40)\n  0x1e4fbdf700000000000000000000000000000000000000000000000000000000\n  dup2\n  mstore\n  0x04\n  add\n  tag_12\n  swap2\n  swap1\n  tag_13\n  jump\t// in\ntag_12:\n  mload(0x40)\n  dup1\n  swap2\n  sub\n  swap1\n  revert\n    /* \"@openzeppelin/contracts/access/Ownable.sol\":1269:1364  if (initialOwner == address(0)) {... */\ntag_11:\n    /* \"@openzeppelin/contracts/access/Ownable.sol\":1373:1405  _transferOwnership(initialOwner) */\n  tag_14\n    /* \"@openzeppelin/contracts/access/Ownable.sol\":1392:1404  initialOwner */\n  dup2\n    /* \"@openzeppelin/contracts/access/Ownable.sol\":1373:1391  _transferOwnership */\n  shl(0x20, tag_15)\n    /* \"@openzeppelin/contracts/access/Ownable.sol\":1373:1405  _transferOwnership(initialOwner) */\n  0x20\n  shr\n  jump\t// in\ntag_14:\n    /* \"@openzeppelin/contracts/access/Ownable.sol\":1225:1412  constructor(address initialOwner) {... */\n  pop\n    /* \"contracts/MusicPlatform.sol\":347:417  constructor(address initialOwner) ERC1155(\"\") Ownable(initialOwner) {} */\n  pop\n    /* \"contracts/MusicPlatform.sol\":298:895  contract MusicPlatform is ERC1155, Ownable {... */\n  jump(tag_17)\n    /* \"@openzeppelin/contracts/token/ERC1155/ERC1155.sol\":10282:10368  function _setURI(string memory newuri) internal virtual {... */\ntag_9:\n    /* \"@openzeppelin/contracts/token/ERC1155/ERC1155.sol\":10355:10361  newuri */\n  dup1\n    /* \"@openzeppelin/contracts/token/ERC1155/ERC1155.sol\":10348:10352  _uri */\n  0x02\n    /* \"@openzeppelin/contracts/token/ERC1155/ERC1155.sol\":10348:10361  _uri = newuri */\n  swap1\n  dup2\n  tag_19\n  swap2\n  swap1\n  tag_20\n  jump\t// in\ntag_19:\n  pop\n    /* \"@openzeppelin/contracts/token/ERC1155/ERC1155.sol\":10282:10368  function _setURI(string memory newuri) internal virtual {... */\n  pop\n  jump\t// out\n    /* \"@openzeppelin/contracts/access/Ownable.sol\":2912:3099  function _transferOwnership(address newOwner) internal virtual {... */\ntag_15:\n    /* \"@openzeppelin/contracts/access/Ownable.sol\":2985:3001  address oldOwner */\n  0x00\n    /* \"@openzeppelin/contracts/access/Ownable.sol\":3004:3010  _owner */\n  0x03\n  0x00\n  swap1\n  sload\n  swap1\n  0x0100\n  exp\n  swap1\n  div\n  0xffffffffffffffffffffffffffffffffffffffff\n  and\n    /* \"@openzeppelin/contracts/access/Ownable.sol\":2985:3010  address oldOwner = _owner */\n  swap1\n  pop\n    /* \"@openzeppelin/contracts/access/Ownable.sol\":3029:3037  newOwner */\n  dup2\n    /* \"@openzeppelin/contracts/access/Ownable.sol\":3020:3026  _owner */\n  0x03\n  0x00\n    /* \"@openzeppelin/contracts/access/Ownable.sol\":3020:3037  _owner = newOwner */\n  0x0100\n  exp\n  dup2\n  sload\n  dup2\n  0xffffffffffffffffffffffffffffffffffffffff\n  mul\n  not\n  and\n  swap1\n  dup4\n  0xffffffffffffffffffffffffffffffffffffffff\n  and\n  mul\n  or\n  swap1\n  sstore\n  pop\n    /* \"@openzeppelin/contracts/access/Ownable.sol\":3083:3091  newOwner */\n  dup2\n    /* \"@openzeppelin/contracts/access/Ownable.sol\":3052:3092  OwnershipTransferred(oldOwner, newOwner) */\n  0xffffffffffffffffffffffffffffffffffffffff\n  and\n    /* \"@openzeppelin/contracts/access/Ownable.sol\":3073:3081  oldOwner */\n  dup2\n    /* \"@openzeppelin/contracts/access/Ownable.sol\":3052:3092  OwnershipTransferred(oldOwner, newOwner) */\n  0xffffffffffffffffffffffffffffffffffffffff\n  and\n  0x8be0079c531659141344cd1fd0a4f28419497f9722a3daafe3b4186f6b6457e0\n  mload(0x40)\n  mload(0x40)\n  dup1\n  swap2\n  sub\n  swap1\n  log3\n    /* \"@openzeppelin/contracts/access/Ownable.sol\":2975:3099  {... */\n  pop\n    /* \"@openzeppelin/contracts/access/Ownable.sol\":2912:3099  function _transferOwnership(address newOwner) internal virtual {... */\n  pop\n  jump\t// out\n    /* \"#utility.yul\":88:205   */\ntag_23:\n    /* \"#utility.yul\":197:198   */\n  0x00\n    /* \"#utility.yul\":194:195   */\n  dup1\n    /* \"#utility.yul\":187:199   */\n  revert\n    /* \"#utility.yul\":334:460   */\ntag_25:\n    /* \"#utility.yul\":371:378   */\n  0x00\n    /* \"#utility.yul\":411:453   */\n  0xffffffffffffffffffffffffffffffffffffffff\n    /* \"#utility.yul\":404:409   */\n  dup3\n    /* \"#utility.yul\":400:454   */\n  and\n    /* \"#utility.yul\":389:454   */\n  swap1\n  pop\n    /* \"#utility.yul\":334:460   */\n  swap2\n  swap1\n  pop\n  jump\t// out\n    /* \"#utility.yul\":466:562   */\ntag_26:\n    /* \"#utility.yul\":503:510   */\n  0x00\n    /* \"#utility.yul\":532:556   */\n  tag_56\n    /* \"#utility.yul\":550:555   */\n  dup3\n    /* \"#utility.yul\":532:556   */\n  tag_25\n  jump\t// in\ntag_56:\n    /* \"#utility.yul\":521:556   */\n  swap1\n  pop\n    /* \"#utility.yul\":466:562   */\n  swap2\n  swap1\n  pop\n  jump\t// out\n    /* \"#utility.yul\":568:690   */\ntag_27:\n    /* \"#utility.yul\":641:665   */\n  tag_58\n    /* \"#utility.yul\":659:664   */\n  dup2\n    /* \"#utility.yul\":641:665   */\n  tag_26\n  jump\t// in\ntag_58:\n    /* \"#utility.yul\":634:639   */\n  dup2\n    /* \"#utility.yul\":631:666   */\n  eq\n    /* \"#utility.yul\":621:684   */\n  tag_59\n  jumpi\n    /* \"#utility.yul\":680:681   */\n  0x00\n    /* \"#utility.yul\":677:678   */\n  dup1\n    /* \"#utility.yul\":670:682   */\n  revert\n    /* \"#utility.yul\":621:684   */\ntag_59:\n    /* \"#utility.yul\":568:690   */\n  pop\n  jump\t// out\n    /* \"#utility.yul\":696:839   */\ntag_28:\n    /* \"#utility.yul\":753:758   */\n  0x00\n    /* \"#utility.yul\":784:790   */\n  dup2\n    /* \"#utility.yul\":778:791   */\n  mload\n    /* \"#utility.yul\":769:791   */\n  swap1\n  pop\n    /* \"#utility.yul\":800:833   */\n  tag_61\n    /* \"#utility.yul\":827:832   */\n  dup2\n    /* \"#utility.yul\":800:833   */\n  tag_27\n  jump\t// in\ntag_61:\n    /* \"#utility.yul\":696:839   */\n  swap3\n  swap2\n  pop\n  pop\n  jump\t// out\n    /* \"#utility.yul\":845:1196   */\ntag_3:\n    /* \"#utility.yul\":915:921   */\n  0x00\n    /* \"#utility.yul\":964:966   */\n  0x20\n    /* \"#utility.yul\":952:961   */\n  dup3\n    /* \"#utility.yul\":943:950   */\n  dup5\n    /* \"#utility.yul\":939:962   */\n  sub\n    /* \"#utility.yul\":935:967   */\n  slt\n    /* \"#utility.yul\":932:1051   */\n  iszero\n  tag_63\n  jumpi\n    /* \"#utility.yul\":970:1049   */\n  tag_64\n  tag_23\n  jump\t// in\ntag_64:\n    /* \"#utility.yul\":932:1051   */\ntag_63:\n    /* \"#utility.yul\":1090:1091   */\n  0x00\n    /* \"#utility.yul\":1115:1179   */\n  tag_65\n    /* \"#utility.yul\":1171:1178   */\n  dup5\n    /* \"#utility.yul\":1162:1168   */\n  dup3\n    /* \"#utility.yul\":1151:1160   */\n  dup6\n    /* \"#utility.yul\":1147:1169   */\n  add\n    /* \"#utility.yul\":1115:1179   */\n  tag_28\n  jump\t// in\ntag_65:\n    /* \"#utility.yul\":1105:1179   */\n  swap2\n  pop\n    /* \"#utility.yul\":1061:1189   */\n  pop\n    /* \"#utility.yul\":845:1196   */\n  swap3\n  swap2\n  pop\n  pop\n  jump\t// out\n    /* \"#utility.yul\":1202:1320   */\ntag_29:\n    /* \"#utility.yul\":1289:1313   */\n  tag_67\n    /* \"#utility.yul\":1307:1312   */\n  dup2\n    /* \"#utility.yul\":1289:1313   */\n  tag_26\n  jump\t// in\ntag_67:\n    /* \"#utility.yul\":1284:1287   */\n  dup3\n    /* \"#utility.yul\":1277:1314   */\n  mstore\n    /* \"#utility.yul\":1202:1320   */\n  pop\n  pop\n  jump\t// out\n    /* \"#utility.yul\":1326:1548   */\ntag_13:\n    /* \"#utility.yul\":1419:1423   */\n  0x00\n    /* \"#utility.yul\":1457:1459   */\n  0x20\n    /* \"#utility.yul\":1446:1455   */\n  dup3\n    /* \"#utility.yul\":1442:1460   */\n  add\n    /* \"#utility.yul\":1434:1460   */\n  swap1\n  pop\n    /* \"#utility.yul\":1470:1541   */\n  tag_69\n    /* \"#utility.yul\":1538:1539   */\n  0x00\n    /* \"#utility.yul\":1527:1536   */\n  dup4\n    /* \"#utility.yul\":1523:1540   */\n  add\n    /* \"#utility.yul\":1514:1520   */\n  dup5\n    /* \"#utility.yul\":1470:1541   */\n  tag_29\n  jump\t// in\ntag_69:\n    /* \"#utility.yul\":1326:1548   */\n  swap3\n  swap2\n  pop\n  pop\n  jump\t// out\n    /* \"#utility.yul\":1554:1653   */\ntag_30:\n    /* \"#utility.yul\":1606:1612   */\n  0x00\n    /* \"#utility.yul\":1640:1645   */\n  dup2\n    /* \"#utility.yul\":1634:1646   */\n  mload\n    /* \"#utility.yul\":1624:1646   */\n  swap1\n  pop\n    /* \"#utility.yul\":1554:1653   */\n  swap2\n  swap1\n  pop\n  jump\t// out\n    /* \"#utility.yul\":1659:1839   */\ntag_31:\n    /* \"#utility.yul\":1707:1784   */\n  0x4e487b7100000000000000000000000000000000000000000000000000000000\n    /* \"#utility.yul\":1704:1705   */\n  0x00\n    /* \"#utility.yul\":1697:1785   */\n  mstore\n    /* \"#utility.yul\":1804:1808   */\n  0x41\n    /* \"#utility.yul\":1801:1802   */\n  0x04\n    /* \"#utility.yul\":1794:1809   */\n  mstore\n    /* \"#utility.yul\":1828:1832   */\n  0x24\n    /* \"#utility.yul\":1825:1826   */\n  0x00\n    /* \"#utility.yul\":1818:1833   */\n  revert\n    /* \"#utility.yul\":1845:2025   */\ntag_32:\n    /* \"#utility.yul\":1893:1970   */\n  0x4e487b7100000000000000000000000000000000000000000000000000000000\n    /* \"#utility.yul\":1890:1891   */\n  0x00\n    /* \"#utility.yul\":1883:1971   */\n  mstore\n    /* \"#utility.yul\":1990:1994   */\n  0x22\n    /* \"#utility.yul\":1987:1988   */\n  0x04\n    /* \"#utility.yul\":1980:1995   */\n  mstore\n    /* \"#utility.yul\":2014:2018   */\n  0x24\n    /* \"#utility.yul\":2011:2012   */\n  0x00\n    /* \"#utility.yul\":2004:2019   */\n  revert\n    /* \"#utility.yul\":2031:2351   */\ntag_33:\n    /* \"#utility.yul\":2075:2081   */\n  0x00\n    /* \"#utility.yul\":2112:2113   */\n  0x02\n    /* \"#utility.yul\":2106:2110   */\n  dup3\n    /* \"#utility.yul\":2102:2114   */\n  div\n    /* \"#utility.yul\":2092:2114   */\n  swap1\n  pop\n    /* \"#utility.yul\":2159:2160   */\n  0x01\n    /* \"#utility.yul\":2153:2157   */\n  dup3\n    /* \"#utility.yul\":2149:2161   */\n  and\n    /* \"#utility.yul\":2180:2198   */\n  dup1\n    /* \"#utility.yul\":2170:2251   */\n  tag_74\n  jumpi\n    /* \"#utility.yul\":2236:2240   */\n  0x7f\n    /* \"#utility.yul\":2228:2234   */\n  dup3\n    /* \"#utility.yul\":2224:2241   */\n  and\n    /* \"#utility.yul\":2214:2241   */\n  swap2\n  pop\n    /* \"#utility.yul\":2170:2251   */\ntag_74:\n    /* \"#utility.yul\":2298:2300   */\n  0x20\n    /* \"#utility.yul\":2290:2296   */\n  dup3\n    /* \"#utility.yul\":2287:2301   */\n  lt\n    /* \"#utility.yul\":2267:2285   */\n  dup2\n    /* \"#utility.yul\":2264:2302   */\n  sub\n    /* \"#utility.yul\":2261:2345   */\n  tag_75\n  jumpi\n    /* \"#utility.yul\":2317:2335   */\n  tag_76\n  tag_32\n  jump\t// in\ntag_76:\n    /* \"#utility.yul\":2261:2345   */\ntag_75:\n    /* \"#utility.yul\":2082:2351   */\n  pop\n    /* \"#utility.yul\":2031:2351   */\n  swap2\n  swap1\n  pop\n  jump\t// out\n    /* \"#utility.yul\":2357:2498   */\ntag_34:\n    /* \"#utility.yul\":2406:2410   */\n  0x00\n    /* \"#utility.yul\":2429:2432   */\n  dup2\n    /* \"#utility.yul\":2421:2432   */\n  swap1\n  pop\n    /* \"#utility.yul\":2452:2455   */\n  dup2\n    /* \"#utility.yul\":2449:2450   */\n  0x00\n    /* \"#utility.yul\":2442:2456   */\n  mstore\n    /* \"#utility.yul\":2486:2490   */\n  0x20\n    /* \"#utility.yul\":2483:2484   */\n  0x00\n    /* \"#utility.yul\":2473:2491   */\n  keccak256\n    /* \"#utility.yul\":2465:2491   */\n  swap1\n  pop\n    /* \"#utility.yul\":2357:2498   */\n  swap2\n  swap1\n  pop\n  jump\t// out\n    /* \"#utility.yul\":2504:2597   */\ntag_35:\n    /* \"#utility.yul\":2541:2547   */\n  0x00\n    /* \"#utility.yul\":2588:2590   */\n  0x20\n    /* \"#utility.yul\":2583:2585   */\n  0x1f\n    /* \"#utility.yul\":2576:2581   */\n  dup4\n    /* \"#utility.yul\":2572:2586   */\n  add\n    /* \"#utility.yul\":2568:2591   */\n  div\n    /* \"#utility.yul\":2558:2591   */\n  swap1\n  pop\n    /* \"#utility.yul\":2504:2597   */\n  swap2\n  swap1\n  pop\n  jump\t// out\n    /* \"#utility.yul\":2603:2710   */\ntag_36:\n    /* \"#utility.yul\":2647:2655   */\n  0x00\n    /* \"#utility.yul\":2697:2702   */\n  dup3\n    /* \"#utility.yul\":2691:2695   */\n  dup3\n    /* \"#utility.yul\":2687:2703   */\n  shl\n    /* \"#utility.yul\":2666:2703   */\n  swap1\n  pop\n    /* \"#utility.yul\":2603:2710   */\n  swap3\n  swap2\n  pop\n  pop\n  jump\t// out\n    /* \"#utility.yul\":2716:3109   */\ntag_37:\n    /* \"#utility.yul\":2785:2791   */\n  0x00\n    /* \"#utility.yul\":2835:2836   */\n  0x08\n    /* \"#utility.yul\":2823:2833   */\n  dup4\n    /* \"#utility.yul\":2819:2837   */\n  mul\n    /* \"#utility.yul\":2858:2955   */\n  tag_81\n    /* \"#utility.yul\":2888:2954   */\n  0xffffffffffffffffffffffffffffffffffffffffffffffffffffffffffffffff\n    /* \"#utility.yul\":2877:2886   */\n  dup3\n    /* \"#utility.yul\":2858:2955   */\n  tag_36\n  jump\t// in\ntag_81:\n    /* \"#utility.yul\":2976:3015   */\n  tag_82\n    /* \"#utility.yul\":3006:3014   */\n  dup7\n    /* \"#utility.yul\":2995:3004   */\n  dup4\n    /* \"#utility.yul\":2976:3015   */\n  tag_36\n  jump\t// in\ntag_82:\n    /* \"#utility.yul\":2964:3015   */\n  swap6\n  pop\n    /* \"#utility.yul\":3048:3052   */\n  dup1\n    /* \"#utility.yul\":3044:3053   */\n  not\n    /* \"#utility.yul\":3037:3042   */\n  dup5\n    /* \"#utility.yul\":3033:3054   */\n  and\n    /* \"#utility.yul\":3024:3054   */\n  swap4\n  pop\n    /* \"#utility.yul\":3097:3101   */\n  dup1\n    /* \"#utility.yul\":3087:3095   */\n  dup7\n    /* \"#utility.yul\":3083:3102   */\n  and\n    /* \"#utility.yul\":3076:3081   */\n  dup5\n    /* \"#utility.yul\":3073:3103   */\n  or\n    /* \"#utility.yul\":3063:3103   */\n  swap3\n  pop\n    /* \"#utility.yul\":2792:3109   */\n  pop\n  pop\n    /* \"#utility.yul\":2716:3109   */\n  swap4\n  swap3\n  pop\n  pop\n  pop\n  jump\t// out\n    /* \"#utility.yul\":3115:3192   */\ntag_38:\n    /* \"#utility.yul\":3152:3159   */\n  0x00\n    /* \"#utility.yul\":3181:3186   */\n  dup2\n    /* \"#utility.yul\":3170:3186   */\n  swap1\n  pop\n    /* \"#utility.yul\":3115:3192   */\n  swap2\n  swap1\n  pop\n  jump\t// out\n    /* \"#utility.yul\":3198:3258   */\ntag_39:\n    /* \"#utility.yul\":3226:3229   */\n  0x00\n    /* \"#utility.yul\":3247:3252   */\n  dup2\n    /* \"#utility.yul\":3240:3252   */\n  swap1\n  pop\n    /* \"#utility.yul\":3198:3258   */\n  swap2\n  swap1\n  pop\n  jump\t// out\n    /* \"#utility.yul\":3264:3406   */\ntag_40:\n    /* \"#utility.yul\":3314:3323   */\n  0x00\n    /* \"#utility.yul\":3347:3400   */\n  tag_86\n    /* \"#utility.yul\":3365:3399   */\n  tag_87\n    /* \"#utility.yul\":3374:3398   */\n  tag_88\n    /* \"#utility.yul\":3392:3397   */\n  dup5\n    /* \"#utility.yul\":3374:3398   */\n  tag_38\n  jump\t// in\ntag_88:\n    /* \"#utility.yul\":3365:3399   */\n  tag_39\n  jump\t// in\ntag_87:\n    /* \"#utility.yul\":3347:3400   */\n  tag_38\n  jump\t// in\ntag_86:\n    /* \"#utility.yul\":3334:3400   */\n  swap1\n  pop\n    /* \"#utility.yul\":3264:3406   */\n  swap2\n  swap1\n  pop\n  jump\t// out\n    /* \"#utility.yul\":3412:3487   */\ntag_41:\n    /* \"#utility.yul\":3455:3458   */\n  0x00\n    /* \"#utility.yul\":3476:3481   */\n  dup2\n    /* \"#utility.yul\":3469:3481   */\n  swap1\n  pop\n    /* \"#utility.yul\":3412:3487   */\n  swap2\n  swap1\n  pop\n  jump\t// out\n    /* \"#utility.yul\":3493:3762   */\ntag_42:\n    /* \"#utility.yul\":3603:3642   */\n  tag_91\n    /* \"#utility.yul\":3634:3641   */\n  dup4\n    /* \"#utility.yul\":3603:3642   */\n  tag_40\n  jump\t// in\ntag_91:\n    /* \"#utility.yul\":3664:3755   */\n  tag_92\n    /* \"#utility.yul\":3713:3754   */\n  tag_93\n    /* \"#utility.yul\":3737:3753   */\n  dup3\n    /* \"#utility.yul\":3713:3754   */\n  tag_41\n  jump\t// in\ntag_93:\n    /* \"#utility.yul\":3705:3711   */\n  dup5\n    /* \"#utility.yul\":3698:3702   */\n  dup5\n    /* \"#utility.yul\":3692:3703   */\n  sload\n    /* \"#utility.yul\":3664:3755   */\n  tag_37\n  jump\t// in\ntag_92:\n    /* \"#utility.yul\":3658:3662   */\n  dup3\n    /* \"#utility.yul\":3651:3756   */\n  sstore\n    /* \"#utility.yul\":3569:3762   */\n  pop\n    /* \"#utility.yul\":3493:3762   */\n  pop\n  pop\n  pop\n  jump\t// out\n    /* \"#utility.yul\":3768:3841   */\ntag_43:\n    /* \"#utility.yul\":3813:3816   */\n  0x00\n    /* \"#utility.yul\":3768:3841   */\n  swap1\n  jump\t// out\n    /* \"#utility.yul\":3847:4036   */\ntag_44:\n    /* \"#utility.yul\":3924:3956   */\n  tag_96\n  tag_43\n  jump\t// in\ntag_96:\n    /* \"#utility.yul\":3965:4030   */\n  tag_97\n    /* \"#utility.yul\":4023:4029   */\n  dup2\n    /* \"#utility.yul\":4015:4021   */\n  dup5\n    /* \"#utility.yul\":4009:4013   */\n  dup5\n    /* \"#utility.yul\":3965:4030   */\n  tag_42\n  jump\t// in\ntag_97:\n    /* \"#utility.yul\":3900:4036   */\n  pop\n    /* \"#utility.yul\":3847:4036   */\n  pop\n  pop\n  jump\t// out\n    /* \"#utility.yul\":4042:4228   */\ntag_45:\n    /* \"#utility.yul\":4102:4222   */\ntag_99:\n    /* \"#utility.yul\":4119:4122   */\n  dup2\n    /* \"#utility.yul\":4112:4117   */\n  dup2\n    /* \"#utility.yul\":4109:4123   */\n  lt\n    /* \"#utility.yul\":4102:4222   */\n  iszero\n  tag_101\n  jumpi\n    /* \"#utility.yul\":4173:4212   */\n  tag_102\n    /* \"#utility.yul\":4210:4211   */\n  0x00\n    /* \"#utility.yul\":4203:4208   */\n  dup3\n    /* \"#utility.yul\":4173:4212   */\n  tag_44\n  jump\t// in\ntag_102:\n    /* \"#utility.yul\":4146:4147   */\n  0x01\n    /* \"#utility.yul\":4139:4144   */\n  dup2\n    /* \"#utility.yul\":4135:4148   */\n  add\n    /* \"#utility.yul\":4126:4148   */\n  swap1\n  pop\n    /* \"#utility.yul\":4102:4222   */\n  jump(tag_99)\ntag_101:\n    /* \"#utility.yul\":4042:4228   */\n  pop\n  pop\n  jump\t// out\n    /* \"#utility.yul\":4234:4777   */\ntag_46:\n    /* \"#utility.yul\":4335:4337   */\n  0x1f\n    /* \"#utility.yul\":4330:4333   */\n  dup3\n    /* \"#utility.yul\":4327:4338   */\n  gt\n    /* \"#utility.yul\":4324:4770   */\n  iszero\n  tag_104\n  jumpi\n    /* \"#utility.yul\":4369:4407   */\n  tag_105\n    /* \"#utility.yul\":4401:4406   */\n  dup2\n    /* \"#utility.yul\":4369:4407   */\n  tag_34\n  jump\t// in\ntag_105:\n    /* \"#utility.yul\":4453:4482   */\n  tag_106\n    /* \"#utility.yul\":4471:4481   */\n  dup5\n    /* \"#utility.yul\":4453:4482   */\n  tag_35\n  jump\t// in\ntag_106:\n    /* \"#utility.yul\":4443:4451   */\n  dup2\n    /* \"#utility.yul\":4439:4483   */\n  add\n    /* \"#utility.yul\":4636:4638   */\n  0x20\n    /* \"#utility.yul\":4624:4634   */\n  dup6\n    /* \"#utility.yul\":4621:4639   */\n  lt\n    /* \"#utility.yul\":4618:4667   */\n  iszero\n  tag_107\n  jumpi\n    /* \"#utility.yul\":4657:4665   */\n  dup2\n    /* \"#utility.yul\":4642:4665   */\n  swap1\n  pop\n    /* \"#utility.yul\":4618:4667   */\ntag_107:\n    /* \"#utility.yul\":4680:4760   */\n  tag_108\n    /* \"#utility.yul\":4736:4758   */\n  tag_109\n    /* \"#utility.yul\":4754:4757   */\n  dup6\n    /* \"#utility.yul\":4736:4758   */\n  tag_35\n  jump\t// in\ntag_109:\n    /* \"#utility.yul\":4726:4734   */\n  dup4\n    /* \"#utility.yul\":4722:4759   */\n  add\n    /* \"#utility.yul\":4709:4720   */\n  dup3\n    /* \"#utility.yul\":4680:4760   */\n  tag_45\n  jump\t// in\ntag_108:\n    /* \"#utility.yul\":4339:4770   */\n  pop\n  pop\n    /* \"#utility.yul\":4324:4770   */\ntag_104:\n    /* \"#utility.yul\":4234:4777   */\n  pop\n  pop\n  pop\n  jump\t// out\n    /* \"#utility.yul\":4783:4900   */\ntag_47:\n    /* \"#utility.yul\":4837:4845   */\n  0x00\n    /* \"#utility.yul\":4887:4892   */\n  dup3\n    /* \"#utility.yul\":4881:4885   */\n  dup3\n    /* \"#utility.yul\":4877:4893   */\n  shr\n    /* \"#utility.yul\":4856:4893   */\n  swap1\n  pop\n    /* \"#utility.yul\":4783:4900   */\n  swap3\n  swap2\n  pop\n  pop\n  jump\t// out\n    /* \"#utility.yul\":4906:5075   */\ntag_48:\n    /* \"#utility.yul\":4950:4956   */\n  0x00\n    /* \"#utility.yul\":4983:5034   */\n  tag_112\n    /* \"#utility.yul\":5031:5032   */\n  0x00\n    /* \"#utility.yul\":5027:5033   */\n  not\n    /* \"#utility.yul\":5019:5024   */\n  dup5\n    /* \"#utility.yul\":5016:5017   */\n  0x08\n    /* \"#utility.yul\":5012:5025   */\n  mul\n    /* \"#utility.yul\":4983:5034   */\n  tag_47\n  jump\t// in\ntag_112:\n    /* \"#utility.yul\":4979:5035   */\n  not\n    /* \"#utility.yul\":5064:5068   */\n  dup1\n    /* \"#utility.yul\":5058:5062   */\n  dup4\n    /* \"#utility.yul\":5054:5069   */\n  and\n    /* \"#utility.yul\":5044:5069   */\n  swap2\n  pop\n    /* \"#utility.yul\":4957:5075   */\n  pop\n    /* \"#utility.yul\":4906:5075   */\n  swap3\n  swap2\n  pop\n  pop\n  jump\t// out\n    /* \"#utility.yul\":5080:5375   */\ntag_49:\n    /* \"#utility.yul\":5156:5160   */\n  0x00\n    /* \"#utility.yul\":5302:5331   */\n  tag_114\n    /* \"#utility.yul\":5327:5330   */\n  dup4\n    /* \"#utility.yul\":5321:5325   */\n  dup4\n    /* \"#utility.yul\":5302:5331   */\n  tag_48\n  jump\t// in\ntag_114:\n    /* \"#utility.yul\":5294:5331   */\n  swap2\n  pop\n    /* \"#utility.yul\":5364:5367   */\n  dup3\n    /* \"#utility.yul\":5361:5362   */\n  0x02\n    /* \"#utility.yul\":5357:5368   */\n  mul\n    /* \"#utility.yul\":5351:5355   */\n  dup3\n    /* \"#utility.yul\":5348:5369   */\n  or\n    /* \"#utility.yul\":5340:5369   */\n  swap1\n  pop\n    /* \"#utility.yul\":5080:5375   */\n  swap3\n  swap2\n  pop\n  pop\n  jump\t// out\n    /* \"#utility.yul\":5380:6775   */\ntag_20:\n    /* \"#utility.yul\":5497:5534   */\n  tag_116\n    /* \"#utility.yul\":5530:5533   */\n  dup3\n    /* \"#utility.yul\":5497:5534   */\n  tag_30\n  jump\t// in\ntag_116:\n    /* \"#utility.yul\":5599:5617   */\n  0xffffffffffffffff\n    /* \"#utility.yul\":5591:5597   */\n  dup2\n    /* \"#utility.yul\":5588:5618   */\n  gt\n    /* \"#utility.yul\":5585:5641   */\n  iszero\n  tag_117\n  jumpi\n    /* \"#utility.yul\":5621:5639   */\n  tag_118\n  tag_31\n  jump\t// in\ntag_118:\n    /* \"#utility.yul\":5585:5641   */\ntag_117:\n    /* \"#utility.yul\":5665:5703   */\n  tag_119\n    /* \"#utility.yul\":5697:5701   */\n  dup3\n    /* \"#utility.yul\":5691:5702   */\n  sload\n    /* \"#utility.yul\":5665:5703   */\n  tag_33\n  jump\t// in\ntag_119:\n    /* \"#utility.yul\":5750:5817   */\n  tag_120\n    /* \"#utility.yul\":5810:5816   */\n  dup3\n    /* \"#utility.yul\":5802:5808   */\n  dup3\n    /* \"#utility.yul\":5796:5800   */\n  dup6\n    /* \"#utility.yul\":5750:5817   */\n  tag_46\n  jump\t// in\ntag_120:\n    /* \"#utility.yul\":5844:5845   */\n  0x00\n    /* \"#utility.yul\":5868:5872   */\n  0x20\n    /* \"#utility.yul\":5855:5872   */\n  swap1\n  pop\n    /* \"#utility.yul\":5900:5902   */\n  0x1f\n    /* \"#utility.yul\":5892:5898   */\n  dup4\n    /* \"#utility.yul\":5889:5903   */\n  gt\n    /* \"#utility.yul\":5917:5918   */\n  0x01\n    /* \"#utility.yul\":5912:6530   */\n  dup2\n  eq\n  tag_122\n  jumpi\n    /* \"#utility.yul\":6574:6575   */\n  0x00\n    /* \"#utility.yul\":6591:6597   */\n  dup5\n    /* \"#utility.yul\":6588:6665   */\n  iszero\n  tag_123\n  jumpi\n    /* \"#utility.yul\":6640:6649   */\n  dup3\n    /* \"#utility.yul\":6635:6638   */\n  dup8\n    /* \"#utility.yul\":6631:6650   */\n  add\n    /* \"#utility.yul\":6625:6651   */\n  mload\n    /* \"#utility.yul\":6616:6651   */\n  swap1\n  pop\n    /* \"#utility.yul\":6588:6665   */\ntag_123:\n    /* \"#utility.yul\":6691:6758   */\n  tag_124\n    /* \"#utility.yul\":6751:6757   */\n  dup6\n    /* \"#utility.yul\":6744:6749   */\n  dup3\n    /* \"#utility.yul\":6691:6758   */\n  tag_49\n  jump\t// in\ntag_124:\n    /* \"#utility.yul\":6685:6689   */\n  dup7\n    /* \"#utility.yul\":6678:6759   */\n  sstore\n    /* \"#utility.yul\":6547:6769   */\n  pop\n    /* \"#utility.yul\":5882:6769   */\n  jump(tag_121)\n    /* \"#utility.yul\":5912:6530   */\ntag_122:\n    /* \"#utility.yul\":5964:5968   */\n  0x1f\n    /* \"#utility.yul\":5960:5969   */\n  not\n    /* \"#utility.yul\":5952:5958   */\n  dup5\n    /* \"#utility.yul\":5948:5970   */\n  and\n    /* \"#utility.yul\":5998:6035   */\n  tag_125\n    /* \"#utility.yul\":6030:6034   */\n  dup7\n    /* \"#utility.yul\":5998:6035   */\n  tag_34\n  jump\t// in\ntag_125:\n    /* \"#utility.yul\":6057:6058   */\n  0x00\n    /* \"#utility.yul\":6071:6279   */\ntag_126:\n    /* \"#utility.yul\":6085:6092   */\n  dup3\n    /* \"#utility.yul\":6082:6083   */\n  dup2\n    /* \"#utility.yul\":6079:6093   */\n  lt\n    /* \"#utility.yul\":6071:6279   */\n  iszero\n  tag_128\n  jumpi\n    /* \"#utility.yul\":6164:6173   */\n  dup5\n    /* \"#utility.yul\":6159:6162   */\n  dup10\n    /* \"#utility.yul\":6155:6174   */\n  add\n    /* \"#utility.yul\":6149:6175   */\n  mload\n    /* \"#utility.yul\":6141:6147   */\n  dup3\n    /* \"#utility.yul\":6134:6176   */\n  sstore\n    /* \"#utility.yul\":6215:6216   */\n  0x01\n    /* \"#utility.yul\":6207:6213   */\n  dup3\n    /* \"#utility.yul\":6203:6217   */\n  add\n    /* \"#utility.yul\":6193:6217   */\n  swap2\n  pop\n    /* \"#utility.yul\":6262:6264   */\n  0x20\n    /* \"#utility.yul\":6251:6260   */\n  dup6\n    /* \"#utility.yul\":6247:6265   */\n  add\n    /* \"#utility.yul\":6234:6265   */\n  swap5\n  pop\n    /* \"#utility.yul\":6108:6112   */\n  0x20\n    /* \"#utility.yul\":6105:6106   */\n  dup2\n    /* \"#utility.yul\":6101:6113   */\n  add\n    /* \"#utility.yul\":6096:6113   */\n  swap1\n  pop\n    /* \"#utility.yul\":6071:6279   */\n  jump(tag_126)\ntag_128:\n    /* \"#utility.yul\":6307:6313   */\n  dup7\n    /* \"#utility.yul\":6298:6305   */\n  dup4\n    /* \"#utility.yul\":6295:6314   */\n  lt\n    /* \"#utility.yul\":6292:6471   */\n  iszero\n  tag_129\n  jumpi\n    /* \"#utility.yul\":6365:6374   */\n  dup5\n    /* \"#utility.yul\":6360:6363   */\n  dup10\n    /* \"#utility.yul\":6356:6375   */\n  add\n    /* \"#utility.yul\":6350:6376   */\n  mload\n    /* \"#utility.yul\":6408:6456   */\n  tag_130\n    /* \"#utility.yul\":6450:6454   */\n  0x1f\n    /* \"#utility.yul\":6442:6448   */\n  dup10\n    /* \"#utility.yul\":6438:6455   */\n  and\n    /* \"#utility.yul\":6427:6436   */\n  dup3\n    /* \"#utility.yul\":6408:6456   */\n  tag_48\n  jump\t// in\ntag_130:\n    /* \"#utility.yul\":6400:6406   */\n  dup4\n    /* \"#utility.yul\":6393:6457   */\n  sstore\n    /* \"#utility.yul\":6315:6471   */\n  pop\n    /* \"#utility.yul\":6292:6471   */\ntag_129:\n    /* \"#utility.yul\":6517:6518   */\n  0x01\n    /* \"#utility.yul\":6513:6514   */\n  0x02\n    /* \"#utility.yul\":6505:6511   */\n  dup9\n    /* \"#utility.yul\":6501:6515   */\n  mul\n    /* \"#utility.yul\":6497:6519   */\n  add\n    /* \"#utility.yul\":6491:6495   */\n  dup9\n    /* \"#utility.yul\":6484:6520   */\n  sstore\n    /* \"#utility.yul\":5919:6530   */\n  pop\n  pop\n  pop\n    /* \"#utility.yul\":5882:6769   */\ntag_121:\n  pop\n    /* \"#utility.yul\":5472:6775   */\n  pop\n  pop\n  pop\n    /* \"#utility.yul\":5380:6775   */\n  pop\n  pop\n  jump\t// out\n    /* \"contracts/MusicPlatform.sol\":298:895  contract MusicPlatform is ERC1155, Ownable {... */\ntag_17:\n  dataSize(sub_0)\n  dup1\n  dataOffset(sub_0)\n  0x00\n  codecopy\n  0x00\n  return\nstop\n\nsub_0: assembly {\n        /* \"contracts/MusicPlatform.sol\":298:895  contract MusicPlatform is ERC1155, Ownable {... */\n      mstore(0x40, 0x80)\n      callvalue\n      dup1\n      iszero\n      tag_1\n      jumpi\n      0x00\n      dup1\n      revert\n    tag_1:\n      pop\n      jumpi(tag_2, lt(calldatasize, 0x04))\n      shr(0xe0, calldataload(0x00))\n      dup1\n      0x6c8b703f\n      gt\n      tag_18\n      jumpi\n      dup1\n      0xd3fc9864\n      gt\n      tag_19\n      jumpi\n      dup1\n      0xd3fc9864\n      eq\n      tag_14\n      jumpi\n      dup1\n      0xe985e9c5\n      eq\n      tag_15\n      jumpi\n      dup1\n      0xf242432a\n      eq\n      tag_16\n      jumpi\n      dup1\n      0xf2fde38b\n      eq\n      tag_17\n      jumpi\n      jump(tag_2)\n    tag_19:\n      dup1\n      0x6c8b703f\n      eq\n      tag_10\n      jumpi\n      dup1\n      0x715018a6\n      eq\n      tag_11\n      jumpi\n      dup1\n      0x8da5cb5b\n      eq\n      tag_12\n      jumpi\n      dup1\n      0xa22cb465\n      eq\n      tag_13\n      jumpi\n      jump(tag_2)\n    tag_18:\n      dup1\n      0x0febdd49\n      gt\n      tag_20\n      jumpi\n      dup1\n      0x0febdd49\n      eq\n      tag_6\n      jumpi\n      dup1\n      0x1c75cfb4\n      eq\n      tag_7\n      jumpi\n      dup1\n      0x2eb2c2d6\n      eq\n      tag_8\n      jumpi\n      dup1\n      0x4e1273f4\n      eq\n      tag_9\n      jumpi\n      jump(tag_2)\n    tag_20:\n      dup1\n      0xfdd58e\n      eq\n      tag_3\n      jumpi\n      dup1\n      0x01ffc9a7\n      eq\n      tag_4\n      jumpi\n      dup1\n      0x0e89341c\n      eq\n      tag_5\n      jumpi\n    tag_2:\n      0x00\n      dup1\n      revert\n        /* \"@openzeppelin/contracts/token/ERC1155/ERC1155.sol\":2247:2379  function balanceOf(address account, uint256 id) public view virtual returns (uint256) {... */\n    tag_3:\n      tag_21\n      0x04\n      dup1\n      calldatasize\n      sub\n      dup2\n      add\n      swap1\n      tag_22\n      swap2\n      swap1\n      tag_23\n      jump\t// in\n    tag_22:\n      tag_24\n      jump\t// in\n    tag_21:\n      mload(0x40)\n      tag_25\n      swap2\n      swap1\n      tag_26\n      jump\t// in\n    tag_25:\n      mload(0x40)\n      dup1\n      swap2\n      sub\n      swap1\n      return\n        /* \"@openzeppelin/contracts/token/ERC1155/ERC1155.sol\":1380:1685  function supportsInterface(bytes4 interfaceId) public view virtual override(ERC165, IERC165) returns (bool) {... */\n    tag_4:\n      tag_27\n      0x04\n      dup1\n      calldatasize\n      sub\n      dup2\n      add\n      swap1\n      tag_28\n      swap2\n      swap1\n      tag_29\n      jump\t// in\n    tag_28:\n      tag_30\n      jump\t// in\n    tag_27:\n      mload(0x40)\n      tag_31\n      swap2\n      swap1\n      tag_32\n      jump\t// in\n    tag_31:\n      mload(0x40)\n      dup1\n      swap2\n      sub\n      swap1\n      return\n        /* \"@openzeppelin/contracts/token/ERC1155/ERC1155.sol\":2084:2187  function uri(uint256 /* id */) public view virtual returns (string memory) {... */\n    tag_5:\n      tag_33\n      0x04\n      dup1\n      calldatasize\n      sub\n      dup2\n      add\n      swap1\n      tag_34\n      swap2\n      swap1\n      tag_35\n      jump\t// in\n    tag_34:\n      tag_36\n      jump\t// in\n    tag_33:\n      mload(0x40)\n      tag_37\n      swap2\n      swap1\n      tag_38\n      jump\t// in\n    tag_37:\n      mload(0x40)\n      dup1\n      swap2\n      sub\n      swap1\n      return\n        /* \"contracts/MusicPlatform.sol\":737:893  function safeTransferFrom(address from, address to, uint256 id, uint256 value) external  {... */\n    tag_6:\n      tag_39\n      0x04\n      dup1\n      calldatasize\n      sub\n      dup2\n      add\n      swap1\n      tag_40\n      swap2\n      swap1\n      tag_41\n      jump\t// in\n    tag_40:\n      tag_42\n      jump\t// in\n    tag_39:\n      stop\n        /* \"contracts/MusicPlatform.sol\":423:451  uint256 public currentID = 0 */\n    tag_7:\n      tag_43\n      tag_44\n      jump\t// in\n    tag_43:\n      mload(0x40)\n      tag_45\n      swap2\n      swap1\n      tag_26\n      jump\t// in\n    tag_45:\n      mload(0x40)\n      dup1\n      swap2\n      sub\n      swap1\n      return\n        /* \"@openzeppelin/contracts/token/ERC1155/ERC1155.sol\":4014:4443  function safeBatchTransferFrom(... */\n    tag_8:\n      tag_46\n      0x04\n      dup1\n      calldatasize\n      sub\n      dup2\n      add\n      swap1\n      tag_47\n      swap2\n      swap1\n      tag_48\n      jump\t// in\n    tag_47:\n      tag_49\n      jump\t// in\n    tag_46:\n      stop\n        /* \"@openzeppelin/contracts/token/ERC1155/ERC1155.sol\":2536:3088  function balanceOfBatch(... */\n    tag_9:\n      tag_50\n      0x04\n      dup1\n      calldatasize\n      sub\n      dup2\n      add\n      swap1\n      tag_51\n      swap2\n      swap1\n      tag_52\n      jump\t// in\n    tag_51:\n      tag_53\n      jump\t// in\n    tag_50:\n      mload(0x40)\n      tag_54\n      swap2\n      swap1\n      tag_55\n      jump\t// in\n    tag_54:\n      mload(0x40)\n      dup1\n      swap2\n      sub\n      swap1\n      return\n        /* \"contracts/MusicPlatform.sol\":457:500  mapping(uint256 => string) public tokenURIs */\n    tag_10:\n      tag_56\n      0x04\n      dup1\n      calldatasize\n      sub\n      dup2\n      add\n      swap1\n      tag_57\n      swap2\n      swap1\n      tag_35\n      jump\t// in\n    tag_57:\n      tag_58\n      jump\t// in\n    tag_56:\n      mload(0x40)\n      tag_59\n      swap2\n      swap1\n      tag_38\n      jump\t// in\n    tag_59:\n      mload(0x40)\n      dup1\n      swap2\n      sub\n      swap1\n      return\n        /* \"@openzeppelin/contracts/access/Ownable.sol\":2293:2394  function renounceOwnership() public virtual onlyOwner {... */\n    tag_11:\n      tag_60\n      tag_61\n      jump\t// in\n    tag_60:\n      stop\n        /* \"@openzeppelin/contracts/access/Ownable.sol\":1638:1723  function owner() public view virtual returns (address) {... */\n    tag_12:\n      tag_62\n      tag_63\n      jump\t// in\n    tag_62:\n      mload(0x40)\n      tag_64\n      swap2\n      swap1\n      tag_65\n      jump\t// in\n    tag_64:\n      mload(0x40)\n      dup1\n      swap2\n      sub\n      swap1\n      return\n        /* \"@openzeppelin/contracts/token/ERC1155/ERC1155.sol\":3156:3300  function setApprovalForAll(address operator, bool approved) public virtual {... */\n    tag_13:\n      tag_66\n      0x04\n      dup1\n      calldatasize\n      sub\n      dup2\n      add\n      swap1\n      tag_67\n      swap2\n      swap1\n      tag_68\n      jump\t// in\n    tag_67:\n      tag_69\n      jump\t// in\n    tag_66:\n      stop\n        /* \"contracts/MusicPlatform.sol\":507:731  function mint(... */\n    tag_14:\n      tag_70\n      0x04\n      dup1\n      calldatasize\n      sub\n      dup2\n      add\n      swap1\n      tag_71\n      swap2\n      swap1\n      tag_72\n      jump\t// in\n    tag_71:\n      tag_73\n      jump\t// in\n    tag_70:\n      stop\n        /* \"@openzeppelin/contracts/token/ERC1155/ERC1155.sol\":3367:3524  function isApprovedForAll(address account, address operator) public view virtual returns (bool) {... */\n    tag_15:\n      tag_74\n      0x04\n      dup1\n      calldatasize\n      sub\n      dup2\n      add\n      swap1\n      tag_75\n      swap2\n      swap1\n      tag_76\n      jump\t// in\n    tag_75:\n      tag_77\n      jump\t// in\n    tag_74:\n      mload(0x40)\n      tag_78\n      swap2\n      swap1\n      tag_32\n      jump\t// in\n    tag_78:\n      mload(0x40)\n      dup1\n      swap2\n      sub\n      swap1\n      return\n        /* \"@openzeppelin/contracts/token/ERC1155/ERC1155.sol\":3591:3942  function safeTransferFrom(address from, address to, uint256 id, uint256 value, bytes memory data) public virtual {... */\n    tag_16:\n      tag_79\n      0x04\n      dup1\n      calldatasize\n      sub\n      dup2\n      add\n      swap1\n      tag_80\n      swap2\n      swap1\n      tag_81\n      jump\t// in\n    tag_80:\n      tag_82\n      jump\t// in\n    tag_79:\n      stop\n        /* \"@openzeppelin/contracts/access/Ownable.sol\":2543:2758  function transferOwnership(address newOwner) public virtual onlyOwner {... */\n    tag_17:\n      tag_83\n      0x04\n      dup1\n      calldatasize\n      sub\n      dup2\n      add\n      swap1\n      tag_84\n      swap2\n      swap1\n      tag_85\n      jump\t// in\n    tag_84:\n      tag_86\n      jump\t// in\n    tag_83:\n      stop\n        /* \"@openzeppelin/contracts/token/ERC1155/ERC1155.sol\":2247:2379  function balanceOf(address account, uint256 id) public view virtual returns (uint256) {... */\n    tag_24:\n        /* \"@openzeppelin/contracts/token/ERC1155/ERC1155.sol\":2324:2331  uint256 */\n      0x00\n        /* \"@openzeppelin/contracts/token/ERC1155/ERC1155.sol\":2350:2359  _balances */\n      dup1\n        /* \"@openzeppelin/contracts/token/ERC1155/ERC1155.sol\":2350:2363  _balances[id] */\n      0x00\n        /* \"@openzeppelin/contracts/token/ERC1155/ERC1155.sol\":2360:2362  id */\n      dup4\n        /* \"@openzeppelin/contracts/token/ERC1155/ERC1155.sol\":2350:2363  _balances[id] */\n      dup2\n      mstore\n      0x20\n      add\n      swap1\n      dup2\n      mstore\n      0x20\n      add\n      0x00\n      keccak256\n        /* \"@openzeppelin/contracts/token/ERC1155/ERC1155.sol\":2350:2372  _balances[id][account] */\n      0x00\n        /* \"@openzeppelin/contracts/token/ERC1155/ERC1155.sol\":2364:2371  account */\n      dup5\n        /* \"@openzeppelin/contracts/token/ERC1155/ERC1155.sol\":2350:2372  _balances[id][account] */\n      0xffffffffffffffffffffffffffffffffffffffff\n      and\n      0xffffffffffffffffffffffffffffffffffffffff\n      and\n      dup2\n      mstore\n      0x20\n      add\n      swap1\n      dup2\n      mstore\n      0x20\n      add\n      0x00\n      keccak256\n      sload\n        /* \"@openzeppelin/contracts/token/ERC1155/ERC1155.sol\":2343:2372  return _balances[id][account] */\n      swap1\n      pop\n        /* \"@openzeppelin/contracts/token/ERC1155/ERC1155.sol\":2247:2379  function balanceOf(address account, uint256 id) public view virtual returns (uint256) {... */\n      swap3\n      swap2\n      pop\n      pop\n      jump\t// out\n        /* \"@openzeppelin/contracts/token/ERC1155/ERC1155.sol\":1380:1685  function supportsInterface(bytes4 interfaceId) public view virtual override(ERC165, IERC165) returns (bool) {... */\n    tag_30:\n        /* \"@openzeppelin/contracts/token/ERC1155/ERC1155.sol\":1482:1486  bool */\n      0x00\n        /* \"@openzeppelin/contracts/token/ERC1155/ERC1155.sol\":1532:1558  type(IERC1155).interfaceId */\n      0xd9b67a2600000000000000000000000000000000000000000000000000000000\n        /* \"@openzeppelin/contracts/token/ERC1155/ERC1155.sol\":1517:1558  interfaceId == type(IERC1155).interfaceId */\n      not(0xffffffffffffffffffffffffffffffffffffffffffffffffffffffff)\n      and\n        /* \"@openzeppelin/contracts/token/ERC1155/ERC1155.sol\":1517:1528  interfaceId */\n      dup3\n        /* \"@openzeppelin/contracts/token/ERC1155/ERC1155.sol\":1517:1558  interfaceId == type(IERC1155).interfaceId */\n      not(0xffffffffffffffffffffffffffffffffffffffffffffffffffffffff)\n      and\n      eq\n        /* \"@openzeppelin/contracts/token/ERC1155/ERC1155.sol\":1517:1626  interfaceId == type(IERC1155).interfaceId ||... */\n      dup1\n      tag_89\n      jumpi\n      pop\n        /* \"@openzeppelin/contracts/token/ERC1155/ERC1155.sol\":1589:1626  type(IERC1155MetadataURI).interfaceId */\n      0x0e89341c00000000000000000000000000000000000000000000000000000000\n        /* \"@openzeppelin/contracts/token/ERC1155/ERC1155.sol\":1574:1626  interfaceId == type(IERC1155MetadataURI).interfaceId */\n      not(0xffffffffffffffffffffffffffffffffffffffffffffffffffffffff)\n      and\n        /* \"@openzeppelin/contracts/token/ERC1155/ERC1155.sol\":1574:1585  interfaceId */\n      dup3\n        /* \"@openzeppelin/contracts/token/ERC1155/ERC1155.sol\":1574:1626  interfaceId == type(IERC1155MetadataURI).interfaceId */\n      not(0xffffffffffffffffffffffffffffffffffffffffffffffffffffffff)\n      and\n      eq\n        /* \"@openzeppelin/contracts/token/ERC1155/ERC1155.sol\":1517:1626  interfaceId == type(IERC1155).interfaceId ||... */\n    tag_89:\n        /* \"@openzeppelin/contracts/token/ERC1155/ERC1155.sol\":1517:1678  interfaceId == type(IERC1155).interfaceId ||... */\n      dup1\n      tag_90\n      jumpi\n      pop\n        /* \"@openzeppelin/contracts/token/ERC1155/ERC1155.sol\":1642:1678  super.supportsInterface(interfaceId) */\n      tag_91\n        /* \"@openzeppelin/contracts/token/ERC1155/ERC1155.sol\":1666:1677  interfaceId */\n      dup3\n        /* \"@openzeppelin/contracts/token/ERC1155/ERC1155.sol\":1642:1665  super.supportsInterface */\n      tag_92\n        /* \"@openzeppelin/contracts/token/ERC1155/ERC1155.sol\":1642:1678  super.supportsInterface(interfaceId) */\n      jump\t// in\n    tag_91:\n        /* \"@openzeppelin/contracts/token/ERC1155/ERC1155.sol\":1517:1678  interfaceId == type(IERC1155).interfaceId ||... */\n    tag_90:\n        /* \"@openzeppelin/contracts/token/ERC1155/ERC1155.sol\":1498:1678  return... */\n      swap1\n      pop\n        /* \"@openzeppelin/contracts/token/ERC1155/ERC1155.sol\":1380:1685  function supportsInterface(bytes4 interfaceId) public view virtual override(ERC165, IERC165) returns (bool) {... */\n      swap2\n      swap1\n      pop\n      jump\t// out\n        /* \"@openzeppelin/contracts/token/ERC1155/ERC1155.sol\":2084:2187  function uri(uint256 /* id */) public view virtual returns (string memory) {... */\n    tag_36:\n        /* \"@openzeppelin/contracts/token/ERC1155/ERC1155.sol\":2144:2157  string memory */\n      0x60\n        /* \"@openzeppelin/contracts/token/ERC1155/ERC1155.sol\":2176:2180  _uri */\n      0x02\n        /* \"@openzeppelin/contracts/token/ERC1155/ERC1155.sol\":2169:2180  return _uri */\n      dup1\n      sload\n      tag_94\n      swap1\n      tag_95\n      jump\t// in\n    tag_94:\n      dup1\n      0x1f\n      add\n      0x20\n      dup1\n      swap2\n      div\n      mul\n      0x20\n      add\n      mload(0x40)\n      swap1\n      dup2\n      add\n      0x40\n      mstore\n      dup1\n      swap3\n      swap2\n      swap1\n      dup2\n      dup2\n      mstore\n      0x20\n      add\n      dup3\n      dup1\n      sload\n      tag_96\n      swap1\n      tag_95\n      jump\t// in\n    tag_96:\n      dup1\n      iszero\n      tag_97\n      jumpi\n      dup1\n      0x1f\n      lt\n      tag_98\n      jumpi\n      0x0100\n      dup1\n      dup4\n      sload\n      div\n      mul\n      dup4\n      mstore\n      swap2\n      0x20\n      add\n      swap2\n      jump(tag_97)\n    tag_98:\n      dup3\n      add\n      swap2\n      swap1\n      0x00\n      mstore\n      keccak256(0x00, 0x20)\n      swap1\n    tag_99:\n      dup2\n      sload\n      dup2\n      mstore\n      swap1\n      0x01\n      add\n      swap1\n      0x20\n      add\n      dup1\n      dup4\n      gt\n      tag_99\n      jumpi\n      dup3\n      swap1\n      sub\n      0x1f\n      and\n      dup3\n      add\n      swap2\n    tag_97:\n      pop\n      pop\n      pop\n      pop\n      pop\n      swap1\n      pop\n        /* \"@openzeppelin/contracts/token/ERC1155/ERC1155.sol\":2084:2187  function uri(uint256 /* id */) public view virtual returns (string memory) {... */\n      swap2\n      swap1\n      pop\n      jump\t// out\n        /* \"contracts/MusicPlatform.sol\":737:893  function safeTransferFrom(address from, address to, uint256 id, uint256 value) external  {... */\n    tag_42:\n        /* \"contracts/MusicPlatform.sol\":836:886  super.safeTransferFrom(from,  to,  id,  value, \"\") */\n      tag_101\n        /* \"contracts/MusicPlatform.sol\":859:863  from */\n      dup5\n        /* \"contracts/MusicPlatform.sol\":866:868  to */\n      dup5\n        /* \"contracts/MusicPlatform.sol\":871:873  id */\n      dup5\n        /* \"contracts/MusicPlatform.sol\":876:881  value */\n      dup5\n        /* \"contracts/MusicPlatform.sol\":836:886  super.safeTransferFrom(from,  to,  id,  value, \"\") */\n      mload(0x40)\n      dup1\n      0x20\n      add\n      0x40\n      mstore\n      dup1\n      0x00\n      dup2\n      mstore\n      pop\n        /* \"contracts/MusicPlatform.sol\":836:858  super.safeTransferFrom */\n      tag_82\n        /* \"contracts/MusicPlatform.sol\":836:886  super.safeTransferFrom(from,  to,  id,  value, \"\") */\n      jump\t// in\n    tag_101:\n        /* \"contracts/MusicPlatform.sol\":737:893  function safeTransferFrom(address from, address to, uint256 id, uint256 value) external  {... */\n      pop\n      pop\n      pop\n      pop\n      jump\t// out\n        /* \"contracts/MusicPlatform.sol\":423:451  uint256 public currentID = 0 */\n    tag_44:\n      sload(0x04)\n      dup2\n      jump\t// out\n        /* \"@openzeppelin/contracts/token/ERC1155/ERC1155.sol\":4014:4443  function safeBatchTransferFrom(... */\n    tag_49:\n        /* \"@openzeppelin/contracts/token/ERC1155/ERC1155.sol\":4208:4222  address sender */\n      0x00\n        /* \"@openzeppelin/contracts/token/ERC1155/ERC1155.sol\":4225:4237  _msgSender() */\n      tag_103\n        /* \"@openzeppelin/contracts/token/ERC1155/ERC1155.sol\":4225:4235  _msgSender */\n      tag_104\n        /* \"@openzeppelin/contracts/token/ERC1155/ERC1155.sol\":4225:4237  _msgSender() */\n      jump\t// in\n    tag_103:\n        /* \"@openzeppelin/contracts/token/ERC1155/ERC1155.sol\":4208:4237  address sender = _msgSender() */\n      swap1\n      pop\n        /* \"@openzeppelin/contracts/token/ERC1155/ERC1155.sol\":4259:4265  sender */\n      dup1\n        /* \"@openzeppelin/contracts/token/ERC1155/ERC1155.sol\":4251:4265  from != sender */\n      0xffffffffffffffffffffffffffffffffffffffff\n      and\n        /* \"@openzeppelin/contracts/token/ERC1155/ERC1155.sol\":4251:4255  from */\n      dup7\n        /* \"@openzeppelin/contracts/token/ERC1155/ERC1155.sol\":4251:4265  from != sender */\n      0xffffffffffffffffffffffffffffffffffffffff\n      and\n      eq\n      iszero\n        /* \"@openzeppelin/contracts/token/ERC1155/ERC1155.sol\":4251:4300  from != sender && !isApprovedForAll(from, sender) */\n      dup1\n      iszero\n      tag_105\n      jumpi\n      pop\n        /* \"@openzeppelin/contracts/token/ERC1155/ERC1155.sol\":4270:4300  isApprovedForAll(from, sender) */\n      tag_106\n        /* \"@openzeppelin/contracts/token/ERC1155/ERC1155.sol\":4287:4291  from */\n      dup7\n        /* \"@openzeppelin/contracts/token/ERC1155/ERC1155.sol\":4293:4299  sender */\n      dup3\n        /* \"@openzeppelin/contracts/token/ERC1155/ERC1155.sol\":4270:4286  isApprovedForAll */\n      tag_77\n        /* \"@openzeppelin/contracts/token/ERC1155/ERC1155.sol\":4270:4300  isApprovedForAll(from, sender) */\n      jump\t// in\n    tag_106:\n        /* \"@openzeppelin/contracts/token/ERC1155/ERC1155.sol\":4269:4300  !isApprovedForAll(from, sender) */\n      iszero\n        /* \"@openzeppelin/contracts/token/ERC1155/ERC1155.sol\":4251:4300  from != sender && !isApprovedForAll(from, sender) */\n    tag_105:\n        /* \"@openzeppelin/contracts/token/ERC1155/ERC1155.sol\":4247:4376  if (from != sender && !isApprovedForAll(from, sender)) {... */\n      iszero\n      tag_107\n      jumpi\n        /* \"@openzeppelin/contracts/token/ERC1155/ERC1155.sol\":4352:4358  sender */\n      dup1\n        /* \"@openzeppelin/contracts/token/ERC1155/ERC1155.sol\":4360:4364  from */\n      dup7\n        /* \"@openzeppelin/contracts/token/ERC1155/ERC1155.sol\":4323:4365  ERC1155MissingApprovalForAll(sender, from) */\n      mload(0x40)\n      0xe237d92200000000000000000000000000000000000000000000000000000000\n      dup2\n      mstore\n      0x04\n      add\n      tag_108\n      swap3\n      swap2\n      swap1\n      tag_109\n      jump\t// in\n    tag_108:\n      mload(0x40)\n      dup1\n      swap2\n      sub\n      swap1\n      revert\n        /* \"@openzeppelin/contracts/token/ERC1155/ERC1155.sol\":4247:4376  if (from != sender && !isApprovedForAll(from, sender)) {... */\n    tag_107:\n        /* \"@openzeppelin/contracts/token/ERC1155/ERC1155.sol\":4385:4436  _safeBatchTransferFrom(from, to, ids, values, data) */\n      tag_110\n        /* \"@openzeppelin/contracts/token/ERC1155/ERC1155.sol\":4408:4412  from */\n      dup7\n        /* \"@openzeppelin/contracts/token/ERC1155/ERC1155.sol\":4414:4416  to */\n      dup7\n        /* \"@openzeppelin/contracts/token/ERC1155/ERC1155.sol\":4418:4421  ids */\n      dup7\n        /* \"@openzeppelin/contracts/token/ERC1155/ERC1155.sol\":4423:4429  values */\n      dup7\n        /* \"@openzeppelin/contracts/token/ERC1155/ERC1155.sol\":4431:4435  data */\n      dup7\n        /* \"@openzeppelin/contracts/token/ERC1155/ERC1155.sol\":4385:4407  _safeBatchTransferFrom */\n      tag_111\n        /* \"@openzeppelin/contracts/token/ERC1155/ERC1155.sol\":4385:4436  _safeBatchTransferFrom(from, to, ids, values, data) */\n      jump\t// in\n    tag_110:\n        /* \"@openzeppelin/contracts/token/ERC1155/ERC1155.sol\":4198:4443  {... */\n      pop\n        /* \"@openzeppelin/contracts/token/ERC1155/ERC1155.sol\":4014:4443  function safeBatchTransferFrom(... */\n      pop\n      pop\n      pop\n      pop\n      pop\n      jump\t// out\n        /* \"@openzeppelin/contracts/token/ERC1155/ERC1155.sol\":2536:3088  function balanceOfBatch(... */\n    tag_53:\n        /* \"@openzeppelin/contracts/token/ERC1155/ERC1155.sol\":2660:2676  uint256[] memory */\n      0x60\n        /* \"@openzeppelin/contracts/token/ERC1155/ERC1155.sol\":2711:2714  ids */\n      dup2\n        /* \"@openzeppelin/contracts/token/ERC1155/ERC1155.sol\":2711:2721  ids.length */\n      mload\n        /* \"@openzeppelin/contracts/token/ERC1155/ERC1155.sol\":2692:2700  accounts */\n      dup4\n        /* \"@openzeppelin/contracts/token/ERC1155/ERC1155.sol\":2692:2707  accounts.length */\n      mload\n        /* \"@openzeppelin/contracts/token/ERC1155/ERC1155.sol\":2692:2721  accounts.length != ids.length */\n      eq\n        /* \"@openzeppelin/contracts/token/ERC1155/ERC1155.sol\":2688:2809  if (accounts.length != ids.length) {... */\n      tag_113\n      jumpi\n        /* \"@openzeppelin/contracts/token/ERC1155/ERC1155.sol\":2770:2773  ids */\n      dup2\n        /* \"@openzeppelin/contracts/token/ERC1155/ERC1155.sol\":2770:2780  ids.length */\n      mload\n        /* \"@openzeppelin/contracts/token/ERC1155/ERC1155.sol\":2782:2790  accounts */\n      dup4\n        /* \"@openzeppelin/contracts/token/ERC1155/ERC1155.sol\":2782:2797  accounts.length */\n      mload\n        /* \"@openzeppelin/contracts/token/ERC1155/ERC1155.sol\":2744:2798  ERC1155InvalidArrayLength(ids.length, accounts.length) */\n      mload(0x40)\n      0x5b05999100000000000000000000000000000000000000000000000000000000\n      dup2\n      mstore\n      0x04\n      add\n      tag_114\n      swap3\n      swap2\n      swap1\n      tag_115\n      jump\t// in\n    tag_114:\n      mload(0x40)\n      dup1\n      swap2\n      sub\n      swap1\n      revert\n        /* \"@openzeppelin/contracts/token/ERC1155/ERC1155.sol\":2688:2809  if (accounts.length != ids.length) {... */\n    tag_113:\n        /* \"@openzeppelin/contracts/token/ERC1155/ERC1155.sol\":2819:2849  uint256[] memory batchBalances */\n      0x00\n        /* \"@openzeppelin/contracts/token/ERC1155/ERC1155.sol\":2866:2874  accounts */\n      dup4\n        /* \"@openzeppelin/contracts/token/ERC1155/ERC1155.sol\":2866:2881  accounts.length */\n      mload\n        /* \"@openzeppelin/contracts/token/ERC1155/ERC1155.sol\":2852:2882  new uint256[](accounts.length) */\n      0xffffffffffffffff\n      dup2\n      gt\n      iszero\n      tag_116\n      jumpi\n      tag_117\n      tag_118\n      jump\t// in\n    tag_117:\n    tag_116:\n      mload(0x40)\n      swap1\n      dup1\n      dup3\n      mstore\n      dup1\n      0x20\n      mul\n      0x20\n      add\n      dup3\n      add\n      0x40\n      mstore\n      dup1\n      iszero\n      tag_119\n      jumpi\n      dup2\n      0x20\n      add\n      0x20\n      dup3\n      mul\n      dup1\n      calldatasize\n      dup4\n      calldatacopy\n      dup1\n      dup3\n      add\n      swap2\n      pop\n      pop\n      swap1\n      pop\n    tag_119:\n      pop\n        /* \"@openzeppelin/contracts/token/ERC1155/ERC1155.sol\":2819:2882  uint256[] memory batchBalances = new uint256[](accounts.length) */\n      swap1\n      pop\n        /* \"@openzeppelin/contracts/token/ERC1155/ERC1155.sol\":2898:2907  uint256 i */\n      0x00\n        /* \"@openzeppelin/contracts/token/ERC1155/ERC1155.sol\":2893:3051  for (uint256 i = 0; i < accounts.length; ++i) {... */\n    tag_120:\n        /* \"@openzeppelin/contracts/token/ERC1155/ERC1155.sol\":2917:2925  accounts */\n      dup5\n        /* \"@openzeppelin/contracts/token/ERC1155/ERC1155.sol\":2917:2932  accounts.length */\n      mload\n        /* \"@openzeppelin/contracts/token/ERC1155/ERC1155.sol\":2913:2914  i */\n      dup2\n        /* \"@openzeppelin/contracts/token/ERC1155/ERC1155.sol\":2913:2932  i < accounts.length */\n      lt\n        /* \"@openzeppelin/contracts/token/ERC1155/ERC1155.sol\":2893:3051  for (uint256 i = 0; i < accounts.length; ++i) {... */\n      iszero\n      tag_121\n      jumpi\n        /* \"@openzeppelin/contracts/token/ERC1155/ERC1155.sol\":2972:3040  balanceOf(accounts.unsafeMemoryAccess(i), ids.unsafeMemoryAccess(i)) */\n      tag_123\n        /* \"@openzeppelin/contracts/token/ERC1155/ERC1155.sol\":2982:3012  accounts.unsafeMemoryAccess(i) */\n      tag_124\n        /* \"@openzeppelin/contracts/token/ERC1155/ERC1155.sol\":3010:3011  i */\n      dup3\n        /* \"@openzeppelin/contracts/token/ERC1155/ERC1155.sol\":2982:2990  accounts */\n      dup8\n        /* \"@openzeppelin/contracts/token/ERC1155/ERC1155.sol\":2982:3009  accounts.unsafeMemoryAccess */\n      tag_125\n      swap1\n        /* \"@openzeppelin/contracts/token/ERC1155/ERC1155.sol\":2982:3012  accounts.unsafeMemoryAccess(i) */\n      swap2\n      swap1\n      0xffffffff\n      and\n      jump\t// in\n    tag_124:\n        /* \"@openzeppelin/contracts/token/ERC1155/ERC1155.sol\":3014:3039  ids.unsafeMemoryAccess(i) */\n      tag_126\n        /* \"@openzeppelin/contracts/token/ERC1155/ERC1155.sol\":3037:3038  i */\n      dup4\n        /* \"@openzeppelin/contracts/token/ERC1155/ERC1155.sol\":3014:3017  ids */\n      dup8\n        /* \"@openzeppelin/contracts/token/ERC1155/ERC1155.sol\":3014:3036  ids.unsafeMemoryAccess */\n      tag_127\n      swap1\n        /* \"@openzeppelin/contracts/token/ERC1155/ERC1155.sol\":3014:3039  ids.unsafeMemoryAccess(i) */\n      swap2\n      swap1\n      0xffffffff\n      and\n      jump\t// in\n    tag_126:\n        /* \"@openzeppelin/contracts/token/ERC1155/ERC1155.sol\":2972:2981  balanceOf */\n      tag_24\n        /* \"@openzeppelin/contracts/token/ERC1155/ERC1155.sol\":2972:3040  balanceOf(accounts.unsafeMemoryAccess(i), ids.unsafeMemoryAccess(i)) */\n      jump\t// in\n    tag_123:\n        /* \"@openzeppelin/contracts/token/ERC1155/ERC1155.sol\":2953:2966  batchBalances */\n      dup3\n        /* \"@openzeppelin/contracts/token/ERC1155/ERC1155.sol\":2967:2968  i */\n      dup3\n        /* \"@openzeppelin/contracts/token/ERC1155/ERC1155.sol\":2953:2969  batchBalances[i] */\n      dup2\n      mload\n      dup2\n      lt\n      tag_128\n      jumpi\n      tag_129\n      tag_130\n      jump\t// in\n    tag_129:\n    tag_128:\n      0x20\n      mul\n      0x20\n      add\n      add\n        /* \"@openzeppelin/contracts/token/ERC1155/ERC1155.sol\":2953:3040  batchBalances[i] = balanceOf(accounts.unsafeMemoryAccess(i), ids.unsafeMemoryAccess(i)) */\n      dup2\n      dup2\n      mstore\n      pop\n      pop\n        /* \"@openzeppelin/contracts/token/ERC1155/ERC1155.sol\":2934:2937  ++i */\n      dup1\n      0x01\n      add\n      swap1\n      pop\n        /* \"@openzeppelin/contracts/token/ERC1155/ERC1155.sol\":2893:3051  for (uint256 i = 0; i < accounts.length; ++i) {... */\n      jump(tag_120)\n    tag_121:\n      pop\n        /* \"@openzeppelin/contracts/token/ERC1155/ERC1155.sol\":3068:3081  batchBalances */\n      dup1\n        /* \"@openzeppelin/contracts/token/ERC1155/ERC1155.sol\":3061:3081  return batchBalances */\n      swap2\n      pop\n      pop\n        /* \"@openzeppelin/contracts/token/ERC1155/ERC1155.sol\":2536:3088  function balanceOfBatch(... */\n      swap3\n      swap2\n      pop\n      pop\n      jump\t// out\n        /* \"contracts/MusicPlatform.sol\":457:500  mapping(uint256 => string) public tokenURIs */\n    tag_58:\n      mstore(0x20, 0x05)\n      dup1\n      0x00\n      mstore\n      keccak256(0x00, 0x40)\n      0x00\n      swap2\n      pop\n      swap1\n      pop\n      dup1\n      sload\n      tag_131\n      swap1\n      tag_95\n      jump\t// in\n    tag_131:\n      dup1\n      0x1f\n      add\n      0x20\n      dup1\n      swap2\n      div\n      mul\n      0x20\n      add\n      mload(0x40)\n      swap1\n      dup2\n      add\n      0x40\n      mstore\n      dup1\n      swap3\n      swap2\n      swap1\n      dup2\n      dup2\n      mstore\n      0x20\n      add\n      dup3\n      dup1\n      sload\n      tag_132\n      swap1\n      tag_95\n      jump\t// in\n    tag_132:\n      dup1\n      iszero\n      tag_133\n      jumpi\n      dup1\n      0x1f\n      lt\n      tag_134\n      jumpi\n      0x0100\n      dup1\n      dup4\n      sload\n      div\n      mul\n      dup4\n      mstore\n      swap2\n      0x20\n      add\n      swap2\n      jump(tag_133)\n    tag_134:\n      dup3\n      add\n      swap2\n      swap1\n      0x00\n      mstore\n      keccak256(0x00, 0x20)\n      swap1\n    tag_135:\n      dup2\n      sload\n      dup2\n      mstore\n      swap1\n      0x01\n      add\n      swap1\n      0x20\n      add\n      dup1\n      dup4\n      gt\n      tag_135\n      jumpi\n      dup3\n      swap1\n      sub\n      0x1f\n      and\n      dup3\n      add\n      swap2\n    tag_133:\n      pop\n      pop\n      pop\n      pop\n      pop\n      dup2\n      jump\t// out\n        /* \"@openzeppelin/contracts/access/Ownable.sol\":2293:2394  function renounceOwnership() public virtual onlyOwner {... */\n    tag_61:\n        /* \"@openzeppelin/contracts/access/Ownable.sol\":1531:1544  _checkOwner() */\n      tag_137\n        /* \"@openzeppelin/contracts/access/Ownable.sol\":1531:1542  _checkOwner */\n      tag_138\n        /* \"@openzeppelin/contracts/access/Ownable.sol\":1531:1544  _checkOwner() */\n      jump\t// in\n    tag_137:\n        /* \"@openzeppelin/contracts/access/Ownable.sol\":2357:2387  _transferOwnership(address(0)) */\n      tag_140\n        /* \"@openzeppelin/contracts/access/Ownable.sol\":2384:2385  0 */\n      0x00\n        /* \"@openzeppelin/contracts/access/Ownable.sol\":2357:2375  _transferOwnership */\n      tag_141\n        /* \"@openzeppelin/contracts/access/Ownable.sol\":2357:2387  _transferOwnership(address(0)) */\n      jump\t// in\n    tag_140:\n        /* \"@openzeppelin/contracts/access/Ownable.sol\":2293:2394  function renounceOwnership() public virtual onlyOwner {... */\n      jump\t// out\n        /* \"@openzeppelin/contracts/access/Ownable.sol\":1638:1723  function owner() public view virtual returns (address) {... */\n    tag_63:\n        /* \"@openzeppelin/contracts/access/Ownable.sol\":1684:1691  address */\n      0x00\n        /* \"@openzeppelin/contracts/access/Ownable.sol\":1710:1716  _owner */\n      0x03\n      0x00\n      swap1\n      sload\n      swap1\n      0x0100\n      exp\n      swap1\n      div\n      0xffffffffffffffffffffffffffffffffffffffff\n      and\n        /* \"@openzeppelin/contracts/access/Ownable.sol\":1703:1716  return _owner */\n      swap1\n      pop\n        /* \"@openzeppelin/contracts/access/Ownable.sol\":1638:1723  function owner() public view virtual returns (address) {... */\n      swap1\n      jump\t// out\n        /* \"@openzeppelin/contracts/token/ERC1155/ERC1155.sol\":3156:3300  function setApprovalForAll(address operator, bool approved) public virtual {... */\n    tag_69:\n        /* \"@openzeppelin/contracts/token/ERC1155/ERC1155.sol\":3241:3293  _setApprovalForAll(_msgSender(), operator, approved) */\n      tag_144\n        /* \"@openzeppelin/contracts/token/ERC1155/ERC1155.sol\":3260:3272  _msgSender() */\n      tag_145\n        /* \"@openzeppelin/contracts/token/ERC1155/ERC1155.sol\":3260:3270  _msgSender */\n      tag_104\n        /* \"@openzeppelin/contracts/token/ERC1155/ERC1155.sol\":3260:3272  _msgSender() */\n      jump\t// in\n    tag_145:\n        /* \"@openzeppelin/contracts/token/ERC1155/ERC1155.sol\":3274:3282  operator */\n      dup4\n        /* \"@openzeppelin/contracts/token/ERC1155/ERC1155.sol\":3284:3292  approved */\n      dup4\n        /* \"@openzeppelin/contracts/token/ERC1155/ERC1155.sol\":3241:3259  _setApprovalForAll */\n      tag_146\n        /* \"@openzeppelin/contracts/token/ERC1155/ERC1155.sol\":3241:3293  _setApprovalForAll(_msgSender(), operator, approved) */\n      jump\t// in\n    tag_144:\n        /* \"@openzeppelin/contracts/token/ERC1155/ERC1155.sol\":3156:3300  function setApprovalForAll(address operator, bool approved) public virtual {... */\n      pop\n      pop\n      jump\t// out\n        /* \"contracts/MusicPlatform.sol\":507:731  function mint(... */\n    tag_73:\n        /* \"@openzeppelin/contracts/access/Ownable.sol\":1531:1544  _checkOwner() */\n      tag_148\n        /* \"@openzeppelin/contracts/access/Ownable.sol\":1531:1542  _checkOwner */\n      tag_138\n        /* \"@openzeppelin/contracts/access/Ownable.sol\":1531:1544  _checkOwner() */\n      jump\t// in\n    tag_148:\n        /* \"contracts/MusicPlatform.sol\":630:667  _mint(account, currentID, amount, \"\") */\n      tag_150\n        /* \"contracts/MusicPlatform.sol\":636:643  account */\n      dup4\n        /* \"contracts/MusicPlatform.sol\":645:654  currentID */\n      sload(0x04)\n        /* \"contracts/MusicPlatform.sol\":656:662  amount */\n      dup5\n        /* \"contracts/MusicPlatform.sol\":630:667  _mint(account, currentID, amount, \"\") */\n      mload(0x40)\n      dup1\n      0x20\n      add\n      0x40\n      mstore\n      dup1\n      0x00\n      dup2\n      mstore\n      pop\n        /* \"contracts/MusicPlatform.sol\":630:635  _mint */\n      tag_151\n        /* \"contracts/MusicPlatform.sol\":630:667  _mint(account, currentID, amount, \"\") */\n      jump\t// in\n    tag_150:\n        /* \"contracts/MusicPlatform.sol\":700:703  uri */\n      dup1\n        /* \"contracts/MusicPlatform.sol\":677:686  tokenURIs */\n      0x05\n        /* \"contracts/MusicPlatform.sol\":677:697  tokenURIs[currentID] */\n      0x00\n        /* \"contracts/MusicPlatform.sol\":687:696  currentID */\n      sload(0x04)\n        /* \"contracts/MusicPlatform.sol\":677:697  tokenURIs[currentID] */\n      dup2\n      mstore\n      0x20\n      add\n      swap1\n      dup2\n      mstore\n      0x20\n      add\n      0x00\n      keccak256\n        /* \"contracts/MusicPlatform.sol\":677:703  tokenURIs[currentID] = uri */\n      swap1\n      dup2\n      tag_152\n      swap2\n      swap1\n      tag_153\n      jump\t// in\n    tag_152:\n      pop\n        /* \"contracts/MusicPlatform.sol\":713:722  currentID */\n      0x04\n      0x00\n        /* \"contracts/MusicPlatform.sol\":713:724  currentID++ */\n      dup2\n      sload\n      dup1\n      swap3\n      swap2\n      swap1\n      tag_154\n      swap1\n      tag_155\n      jump\t// in\n    tag_154:\n      swap2\n      swap1\n      pop\n      sstore\n      pop\n        /* \"contracts/MusicPlatform.sol\":507:731  function mint(... */\n      pop\n      pop\n      pop\n      jump\t// out\n        /* \"@openzeppelin/contracts/token/ERC1155/ERC1155.sol\":3367:3524  function isApprovedForAll(address account, address operator) public view virtual returns (bool) {... */\n    tag_77:\n        /* \"@openzeppelin/contracts/token/ERC1155/ERC1155.sol\":3457:3461  bool */\n      0x00\n        /* \"@openzeppelin/contracts/token/ERC1155/ERC1155.sol\":3480:3498  _operatorApprovals */\n      0x01\n        /* \"@openzeppelin/contracts/token/ERC1155/ERC1155.sol\":3480:3507  _operatorApprovals[account] */\n      0x00\n        /* \"@openzeppelin/contracts/token/ERC1155/ERC1155.sol\":3499:3506  account */\n      dup5\n        /* \"@openzeppelin/contracts/token/ERC1155/ERC1155.sol\":3480:3507  _operatorApprovals[account] */\n      0xffffffffffffffffffffffffffffffffffffffff\n      and\n      0xffffffffffffffffffffffffffffffffffffffff\n      and\n      dup2\n      mstore\n      0x20\n      add\n      swap1\n      dup2\n      mstore\n      0x20\n      add\n      0x00\n      keccak256\n        /* \"@openzeppelin/contracts/token/ERC1155/ERC1155.sol\":3480:3517  _operatorApprovals[account][operator] */\n      0x00\n        /* \"@openzeppelin/contracts/token/ERC1155/ERC1155.sol\":3508:3516  operator */\n      dup4\n        /* \"@openzeppelin/contracts/token/ERC1155/ERC1155.sol\":3480:3517  _operatorApprovals[account][operator] */\n      0xffffffffffffffffffffffffffffffffffffffff\n      and\n      0xffffffffffffffffffffffffffffffffffffffff\n      and\n      dup2\n      mstore\n      0x20\n      add\n      swap1\n      dup2\n      mstore\n      0x20\n      add\n      0x00\n      keccak256\n      0x00\n      swap1\n      sload\n      swap1\n      0x0100\n      exp\n      swap1\n      div\n      0xff\n      and\n        /* \"@openzeppelin/contracts/token/ERC1155/ERC1155.sol\":3473:3517  return _operatorApprovals[account][operator] */\n      swap1\n      pop\n        /* \"@openzeppelin/contracts/token/ERC1155/ERC1155.sol\":3367:3524  function isApprovedForAll(address account, address operator) public view virtual returns (bool) {... */\n      swap3\n      swap2\n      pop\n      pop\n      jump\t// out\n        /* \"@openzeppelin/contracts/token/ERC1155/ERC1155.sol\":3591:3942  function safeTransferFrom(address from, address to, uint256 id, uint256 value, bytes memory data) public virtual {... */\n    tag_82:\n        /* \"@openzeppelin/contracts/token/ERC1155/ERC1155.sol\":3714:3728  address sender */\n      0x00\n        /* \"@openzeppelin/contracts/token/ERC1155/ERC1155.sol\":3731:3743  _msgSender() */\n      tag_158\n        /* \"@openzeppelin/contracts/token/ERC1155/ERC1155.sol\":3731:3741  _msgSender */\n      tag_104\n        /* \"@openzeppelin/contracts/token/ERC1155/ERC1155.sol\":3731:3743  _msgSender() */\n      jump\t// in\n    tag_158:\n        /* \"@openzeppelin/contracts/token/ERC1155/ERC1155.sol\":3714:3743  address sender = _msgSender() */\n      swap1\n      pop\n        /* \"@openzeppelin/contracts/token/ERC1155/ERC1155.sol\":3765:3771  sender */\n      dup1\n        /* \"@openzeppelin/contracts/token/ERC1155/ERC1155.sol\":3757:3771  from != sender */\n      0xffffffffffffffffffffffffffffffffffffffff\n      and\n        /* \"@openzeppelin/contracts/token/ERC1155/ERC1155.sol\":3757:3761  from */\n      dup7\n        /* \"@openzeppelin/contracts/token/ERC1155/ERC1155.sol\":3757:3771  from != sender */\n      0xffffffffffffffffffffffffffffffffffffffff\n      and\n      eq\n      iszero\n        /* \"@openzeppelin/contracts/token/ERC1155/ERC1155.sol\":3757:3806  from != sender && !isApprovedForAll(from, sender) */\n      dup1\n      iszero\n      tag_159\n      jumpi\n      pop\n        /* \"@openzeppelin/contracts/token/ERC1155/ERC1155.sol\":3776:3806  isApprovedForAll(from, sender) */\n      tag_160\n        /* \"@openzeppelin/contracts/token/ERC1155/ERC1155.sol\":3793:3797  from */\n      dup7\n        /* \"@openzeppelin/contracts/token/ERC1155/ERC1155.sol\":3799:3805  sender */\n      dup3\n        /* \"@openzeppelin/contracts/token/ERC1155/ERC1155.sol\":3776:3792  isApprovedForAll */\n      tag_77\n        /* \"@openzeppelin/contracts/token/ERC1155/ERC1155.sol\":3776:3806  isApprovedForAll(from, sender) */\n      jump\t// in\n    tag_160:\n        /* \"@openzeppelin/contracts/token/ERC1155/ERC1155.sol\":3775:3806  !isApprovedForAll(from, sender) */\n      iszero\n        /* \"@openzeppelin/contracts/token/ERC1155/ERC1155.sol\":3757:3806  from != sender && !isApprovedForAll(from, sender) */\n    tag_159:\n        /* \"@openzeppelin/contracts/token/ERC1155/ERC1155.sol\":3753:3882  if (from != sender && !isApprovedForAll(from, sender)) {... */\n      iszero\n      tag_161\n      jumpi\n        /* \"@openzeppelin/contracts/token/ERC1155/ERC1155.sol\":3858:3864  sender */\n      dup1\n        /* \"@openzeppelin/contracts/token/ERC1155/ERC1155.sol\":3866:3870  from */\n      dup7\n        /* \"@openzeppelin/contracts/token/ERC1155/ERC1155.sol\":3829:3871  ERC1155MissingApprovalForAll(sender, from) */\n      mload(0x40)\n      0xe237d92200000000000000000000000000000000000000000000000000000000\n      dup2\n      mstore\n      0x04\n      add\n      tag_162\n      swap3\n      swap2\n      swap1\n      tag_109\n      jump\t// in\n    tag_162:\n      mload(0x40)\n      dup1\n      swap2\n      sub\n      swap1\n      revert\n        /* \"@openzeppelin/contracts/token/ERC1155/ERC1155.sol\":3753:3882  if (from != sender && !isApprovedForAll(from, sender)) {... */\n    tag_161:\n        /* \"@openzeppelin/contracts/token/ERC1155/ERC1155.sol\":3891:3935  _safeTransferFrom(from, to, id, value, data) */\n      tag_163\n        /* \"@openzeppelin/contracts/token/ERC1155/ERC1155.sol\":3909:3913  from */\n      dup7\n        /* \"@openzeppelin/contracts/token/ERC1155/ERC1155.sol\":3915:3917  to */\n      dup7\n        /* \"@openzeppelin/contracts/token/ERC1155/ERC1155.sol\":3919:3921  id */\n      dup7\n        /* \"@openzeppelin/contracts/token/ERC1155/ERC1155.sol\":3923:3928  value */\n      dup7\n        /* \"@openzeppelin/contracts/token/ERC1155/ERC1155.sol\":3930:3934  data */\n      dup7\n        /* \"@openzeppelin/contracts/token/ERC1155/ERC1155.sol\":3891:3908  _safeTransferFrom */\n      tag_164\n        /* \"@openzeppelin/contracts/token/ERC1155/ERC1155.sol\":3891:3935  _safeTransferFrom(from, to, id, value, data) */\n      jump\t// in\n    tag_163:\n        /* \"@openzeppelin/contracts/token/ERC1155/ERC1155.sol\":3704:3942  {... */\n      pop\n        /* \"@openzeppelin/contracts/token/ERC1155/ERC1155.sol\":3591:3942  function safeTransferFrom(address from, address to, uint256 id, uint256 value, bytes memory data) public virtual {... */\n      pop\n      pop\n      pop\n      pop\n      pop\n      jump\t// out\n        /* \"@openzeppelin/contracts/access/Ownable.sol\":2543:2758  function transferOwnership(address newOwner) public virtual onlyOwner {... */\n    tag_86:\n        /* \"@openzeppelin/contracts/access/Ownable.sol\":1531:1544  _checkOwner() */\n      tag_166\n        /* \"@openzeppelin/contracts/access/Ownable.sol\":1531:1542  _checkOwner */\n      tag_138\n        /* \"@openzeppelin/contracts/access/Ownable.sol\":1531:1544  _checkOwner() */\n      jump\t// in\n    tag_166:\n        /* \"@openzeppelin/contracts/access/Ownable.sol\":2647:2648  0 */\n      0x00\n        /* \"@openzeppelin/contracts/access/Ownable.sol\":2627:2649  newOwner == address(0) */\n      0xffffffffffffffffffffffffffffffffffffffff\n      and\n        /* \"@openzeppelin/contracts/access/Ownable.sol\":2627:2635  newOwner */\n      dup2\n        /* \"@openzeppelin/contracts/access/Ownable.sol\":2627:2649  newOwner == address(0) */\n      0xffffffffffffffffffffffffffffffffffffffff\n      and\n      sub\n        /* \"@openzeppelin/contracts/access/Ownable.sol\":2623:2714  if (newOwner == address(0)) {... */\n      tag_168\n      jumpi\n        /* \"@openzeppelin/contracts/access/Ownable.sol\":2700:2701  0 */\n      0x00\n        /* \"@openzeppelin/contracts/access/Ownable.sol\":2672:2703  OwnableInvalidOwner(address(0)) */\n      mload(0x40)\n      0x1e4fbdf700000000000000000000000000000000000000000000000000000000\n      dup2\n      mstore\n      0x04\n      add\n      tag_169\n      swap2\n      swap1\n      tag_65\n      jump\t// in\n    tag_169:\n      mload(0x40)\n      dup1\n      swap2\n      sub\n      swap1\n      revert\n        /* \"@openzeppelin/contracts/access/Ownable.sol\":2623:2714  if (newOwner == address(0)) {... */\n    tag_168:\n        /* \"@openzeppelin/contracts/access/Ownable.sol\":2723:2751  _transferOwnership(newOwner) */\n      tag_170\n        /* \"@openzeppelin/contracts/access/Ownable.sol\":2742:2750  newOwner */\n      dup2\n        /* \"@openzeppelin/contracts/access/Ownable.sol\":2723:2741  _transferOwnership */\n      tag_141\n        /* \"@openzeppelin/contracts/access/Ownable.sol\":2723:2751  _transferOwnership(newOwner) */\n      jump\t// in\n    tag_170:\n        /* \"@openzeppelin/contracts/access/Ownable.sol\":2543:2758  function transferOwnership(address newOwner) public virtual onlyOwner {... */\n      pop\n      jump\t// out\n        /* \"@openzeppelin/contracts/utils/introspection/ERC165.sol\":762:908  function supportsInterface(bytes4 interfaceId) public view virtual returns (bool) {... */\n    tag_92:\n        /* \"@openzeppelin/contracts/utils/introspection/ERC165.sol\":838:842  bool */\n      0x00\n        /* \"@openzeppelin/contracts/utils/introspection/ERC165.sol\":876:901  type(IERC165).interfaceId */\n      0x01ffc9a700000000000000000000000000000000000000000000000000000000\n        /* \"@openzeppelin/contracts/utils/introspection/ERC165.sol\":861:901  interfaceId == type(IERC165).interfaceId */\n      not(0xffffffffffffffffffffffffffffffffffffffffffffffffffffffff)\n      and\n        /* \"@openzeppelin/contracts/utils/introspection/ERC165.sol\":861:872  interfaceId */\n      dup3\n        /* \"@openzeppelin/contracts/utils/introspection/ERC165.sol\":861:901  interfaceId == type(IERC165).interfaceId */\n      not(0xffffffffffffffffffffffffffffffffffffffffffffffffffffffff)\n      and\n      eq\n        /* \"@openzeppelin/contracts/utils/introspection/ERC165.sol\":854:901  return interfaceId == type(IERC165).interfaceId */\n      swap1\n      pop\n        /* \"@openzeppelin/contracts/utils/introspection/ERC165.sol\":762:908  function supportsInterface(bytes4 interfaceId) public view virtual returns (bool) {... */\n      swap2\n      swap1\n      pop\n      jump\t// out\n        /* \"@openzeppelin/contracts/utils/Context.sol\":656:752  function _msgSender() internal view virtual returns (address) {... */\n    tag_104:\n        /* \"@openzeppelin/contracts/utils/Context.sol\":709:716  address */\n      0x00\n        /* \"@openzeppelin/contracts/utils/Context.sol\":735:745  msg.sender */\n      caller\n        /* \"@openzeppelin/contracts/utils/Context.sol\":728:745  return msg.sender */\n      swap1\n      pop\n        /* \"@openzeppelin/contracts/utils/Context.sol\":656:752  function _msgSender() internal view virtual returns (address) {... */\n      swap1\n      jump\t// out\n        /* \"@openzeppelin/contracts/token/ERC1155/ERC1155.sol\":9015:9460  function _safeBatchTransferFrom(... */\n    tag_111:\n        /* \"@openzeppelin/contracts/token/ERC1155/ERC1155.sol\":9222:9223  0 */\n      0x00\n        /* \"@openzeppelin/contracts/token/ERC1155/ERC1155.sol\":9208:9224  to == address(0) */\n      0xffffffffffffffffffffffffffffffffffffffff\n      and\n        /* \"@openzeppelin/contracts/token/ERC1155/ERC1155.sol\":9208:9210  to */\n      dup5\n        /* \"@openzeppelin/contracts/token/ERC1155/ERC1155.sol\":9208:9224  to == address(0) */\n      0xffffffffffffffffffffffffffffffffffffffff\n      and\n      sub\n        /* \"@openzeppelin/contracts/token/ERC1155/ERC1155.sol\":9204:9292  if (to == address(0)) {... */\n      tag_174\n      jumpi\n        /* \"@openzeppelin/contracts/token/ERC1155/ERC1155.sol\":9278:9279  0 */\n      0x00\n        /* \"@openzeppelin/contracts/token/ERC1155/ERC1155.sol\":9247:9281  ERC1155InvalidReceiver(address(0)) */\n      mload(0x40)\n      0x57f447ce00000000000000000000000000000000000000000000000000000000\n      dup2\n      mstore\n      0x04\n      add\n      tag_175\n      swap2\n      swap1\n      tag_65\n      jump\t// in\n    tag_175:\n      mload(0x40)\n      dup1\n      swap2\n      sub\n      swap1\n      revert\n        /* \"@openzeppelin/contracts/token/ERC1155/ERC1155.sol\":9204:9292  if (to == address(0)) {... */\n    tag_174:\n        /* \"@openzeppelin/contracts/token/ERC1155/ERC1155.sol\":9321:9322  0 */\n      0x00\n        /* \"@openzeppelin/contracts/token/ERC1155/ERC1155.sol\":9305:9323  from == address(0) */\n      0xffffffffffffffffffffffffffffffffffffffff\n      and\n        /* \"@openzeppelin/contracts/token/ERC1155/ERC1155.sol\":9305:9309  from */\n      dup6\n        /* \"@openzeppelin/contracts/token/ERC1155/ERC1155.sol\":9305:9323  from == address(0) */\n      0xffffffffffffffffffffffffffffffffffffffff\n      and\n      sub\n        /* \"@openzeppelin/contracts/token/ERC1155/ERC1155.sol\":9301:9389  if (from == address(0)) {... */\n      tag_176\n      jumpi\n        /* \"@openzeppelin/contracts/token/ERC1155/ERC1155.sol\":9375:9376  0 */\n      0x00\n        /* \"@openzeppelin/contracts/token/ERC1155/ERC1155.sol\":9346:9378  ERC1155InvalidSender(address(0)) */\n      mload(0x40)\n      0x01a8351400000000000000000000000000000000000000000000000000000000\n      dup2\n      mstore\n      0x04\n      add\n      tag_177\n      swap2\n      swap1\n      tag_65\n      jump\t// in\n    tag_177:\n      mload(0x40)\n      dup1\n      swap2\n      sub\n      swap1\n      revert\n        /* \"@openzeppelin/contracts/token/ERC1155/ERC1155.sol\":9301:9389  if (from == address(0)) {... */\n    tag_176:\n        /* \"@openzeppelin/contracts/token/ERC1155/ERC1155.sol\":9398:9453  _updateWithAcceptanceCheck(from, to, ids, values, data) */\n      tag_178\n        /* \"@openzeppelin/contracts/token/ERC1155/ERC1155.sol\":9425:9429  from */\n      dup6\n        /* \"@openzeppelin/contracts/token/ERC1155/ERC1155.sol\":9431:9433  to */\n      dup6\n        /* \"@openzeppelin/contracts/token/ERC1155/ERC1155.sol\":9435:9438  ids */\n      dup6\n        /* \"@openzeppelin/contracts/token/ERC1155/ERC1155.sol\":9440:9446  values */\n      dup6\n        /* \"@openzeppelin/contracts/token/ERC1155/ERC1155.sol\":9448:9452  data */\n      dup6\n        /* \"@openzeppelin/contracts/token/ERC1155/ERC1155.sol\":9398:9424  _updateWithAcceptanceCheck */\n      tag_179\n        /* \"@openzeppelin/contracts/token/ERC1155/ERC1155.sol\":9398:9453  _updateWithAcceptanceCheck(from, to, ids, values, data) */\n      jump\t// in\n    tag_178:\n        /* \"@openzeppelin/contracts/token/ERC1155/ERC1155.sol\":9015:9460  function _safeBatchTransferFrom(... */\n      pop\n      pop\n      pop\n      pop\n      pop\n      jump\t// out\n        /* \"@openzeppelin/contracts/utils/Arrays.sol\":4603:4800  function unsafeMemoryAccess(address[] memory arr, uint256 pos) internal pure returns (address res) {... */\n    tag_125:\n        /* \"@openzeppelin/contracts/utils/Arrays.sol\":4689:4700  address res */\n      0x00\n        /* \"@openzeppelin/contracts/utils/Arrays.sol\":4777:4781  0x20 */\n      0x20\n        /* \"@openzeppelin/contracts/utils/Arrays.sol\":4772:4775  pos */\n      dup3\n        /* \"@openzeppelin/contracts/utils/Arrays.sol\":4768:4782  mul(pos, 0x20) */\n      mul\n        /* \"@openzeppelin/contracts/utils/Arrays.sol\":4761:4765  0x20 */\n      0x20\n        /* \"@openzeppelin/contracts/utils/Arrays.sol\":4756:4759  arr */\n      dup5\n        /* \"@openzeppelin/contracts/utils/Arrays.sol\":4752:4766  add(arr, 0x20) */\n      add\n        /* \"@openzeppelin/contracts/utils/Arrays.sol\":4748:4783  add(add(arr, 0x20), mul(pos, 0x20)) */\n      add\n        /* \"@openzeppelin/contracts/utils/Arrays.sol\":4742:4784  mload(add(add(arr, 0x20), mul(pos, 0x20))) */\n      mload\n        /* \"@openzeppelin/contracts/utils/Arrays.sol\":4735:4784  res := mload(add(add(arr, 0x20), mul(pos, 0x20))) */\n      swap1\n      pop\n        /* \"@openzeppelin/contracts/utils/Arrays.sol\":4603:4800  function unsafeMemoryAccess(address[] memory arr, uint256 pos) internal pure returns (address res) {... */\n      swap3\n      swap2\n      pop\n      pop\n      jump\t// out\n        /* \"@openzeppelin/contracts/utils/Arrays.sol\":4204:4401  function unsafeMemoryAccess(uint256[] memory arr, uint256 pos) internal pure returns (uint256 res) {... */\n    tag_127:\n        /* \"@openzeppelin/contracts/utils/Arrays.sol\":4290:4301  uint256 res */\n      0x00\n        /* \"@openzeppelin/contracts/utils/Arrays.sol\":4378:4382  0x20 */\n      0x20\n        /* \"@openzeppelin/contracts/utils/Arrays.sol\":4373:4376  pos */\n      dup3\n        /* \"@openzeppelin/contracts/utils/Arrays.sol\":4369:4383  mul(pos, 0x20) */\n      mul\n        /* \"@openzeppelin/contracts/utils/Arrays.sol\":4362:4366  0x20 */\n      0x20\n        /* \"@openzeppelin/contracts/utils/Arrays.sol\":4357:4360  arr */\n      dup5\n        /* \"@openzeppelin/contracts/utils/Arrays.sol\":4353:4367  add(arr, 0x20) */\n      add\n        /* \"@openzeppelin/contracts/utils/Arrays.sol\":4349:4384  add(add(arr, 0x20), mul(pos, 0x20)) */\n      add\n        /* \"@openzeppelin/contracts/utils/Arrays.sol\":4343:4385  mload(add(add(arr, 0x20), mul(pos, 0x20))) */\n      mload\n        /* \"@openzeppelin/contracts/utils/Arrays.sol\":4336:4385  res := mload(add(add(arr, 0x20), mul(pos, 0x20))) */\n      swap1\n      pop\n        /* \"@openzeppelin/contracts/utils/Arrays.sol\":4204:4401  function unsafeMemoryAccess(uint256[] memory arr, uint256 pos) internal pure returns (uint256 res) {... */\n      swap3\n      swap2\n      pop\n      pop\n      jump\t// out\n        /* \"@openzeppelin/contracts/access/Ownable.sol\":1796:1958  function _checkOwner() internal view virtual {... */\n    tag_138:\n        /* \"@openzeppelin/contracts/access/Ownable.sol\":1866:1878  _msgSender() */\n      tag_183\n        /* \"@openzeppelin/contracts/access/Ownable.sol\":1866:1876  _msgSender */\n      tag_104\n        /* \"@openzeppelin/contracts/access/Ownable.sol\":1866:1878  _msgSender() */\n      jump\t// in\n    tag_183:\n        /* \"@openzeppelin/contracts/access/Ownable.sol\":1855:1878  owner() != _msgSender() */\n      0xffffffffffffffffffffffffffffffffffffffff\n      and\n        /* \"@openzeppelin/contracts/access/Ownable.sol\":1855:1862  owner() */\n      tag_184\n        /* \"@openzeppelin/contracts/access/Ownable.sol\":1855:1860  owner */\n      tag_63\n        /* \"@openzeppelin/contracts/access/Ownable.sol\":1855:1862  owner() */\n      jump\t// in\n    tag_184:\n        /* \"@openzeppelin/contracts/access/Ownable.sol\":1855:1878  owner() != _msgSender() */\n      0xffffffffffffffffffffffffffffffffffffffff\n      and\n      eq\n        /* \"@openzeppelin/contracts/access/Ownable.sol\":1851:1952  if (owner() != _msgSender()) {... */\n      tag_185\n      jumpi\n        /* \"@openzeppelin/contracts/access/Ownable.sol\":1928:1940  _msgSender() */\n      tag_186\n        /* \"@openzeppelin/contracts/access/Ownable.sol\":1928:1938  _msgSender */\n      tag_104\n        /* \"@openzeppelin/contracts/access/Ownable.sol\":1928:1940  _msgSender() */\n      jump\t// in\n    tag_186:\n        /* \"@openzeppelin/contracts/access/Ownable.sol\":1901:1941  OwnableUnauthorizedAccount(_msgSender()) */\n      mload(0x40)\n      0x118cdaa700000000000000000000000000000000000000000000000000000000\n      dup2\n      mstore\n      0x04\n      add\n      tag_187\n      swap2\n      swap1\n      tag_65\n      jump\t// in\n    tag_187:\n      mload(0x40)\n      dup1\n      swap2\n      sub\n      swap1\n      revert\n        /* \"@openzeppelin/contracts/access/Ownable.sol\":1851:1952  if (owner() != _msgSender()) {... */\n    tag_185:\n        /* \"@openzeppelin/contracts/access/Ownable.sol\":1796:1958  function _checkOwner() internal view virtual {... */\n      jump\t// out\n        /* \"@openzeppelin/contracts/access/Ownable.sol\":2912:3099  function _transferOwnership(address newOwner) internal virtual {... */\n    tag_141:\n        /* \"@openzeppelin/contracts/access/Ownable.sol\":2985:3001  address oldOwner */\n      0x00\n        /* \"@openzeppelin/contracts/access/Ownable.sol\":3004:3010  _owner */\n      0x03\n      0x00\n      swap1\n      sload\n      swap1\n      0x0100\n      exp\n      swap1\n      div\n      0xffffffffffffffffffffffffffffffffffffffff\n      and\n        /* \"@openzeppelin/contracts/access/Ownable.sol\":2985:3010  address oldOwner = _owner */\n      swap1\n      pop\n        /* \"@openzeppelin/contracts/access/Ownable.sol\":3029:3037  newOwner */\n      dup2\n        /* \"@openzeppelin/contracts/access/Ownable.sol\":3020:3026  _owner */\n      0x03\n      0x00\n        /* \"@openzeppelin/contracts/access/Ownable.sol\":3020:3037  _owner = newOwner */\n      0x0100\n      exp\n      dup2\n      sload\n      dup2\n      0xffffffffffffffffffffffffffffffffffffffff\n      mul\n      not\n      and\n      swap1\n      dup4\n      0xffffffffffffffffffffffffffffffffffffffff\n      and\n      mul\n      or\n      swap1\n      sstore\n      pop\n        /* \"@openzeppelin/contracts/access/Ownable.sol\":3083:3091  newOwner */\n      dup2\n        /* \"@openzeppelin/contracts/access/Ownable.sol\":3052:3092  OwnershipTransferred(oldOwner, newOwner) */\n      0xffffffffffffffffffffffffffffffffffffffff\n      and\n        /* \"@openzeppelin/contracts/access/Ownable.sol\":3073:3081  oldOwner */\n      dup2\n        /* \"@openzeppelin/contracts/access/Ownable.sol\":3052:3092  OwnershipTransferred(oldOwner, newOwner) */\n      0xffffffffffffffffffffffffffffffffffffffff\n      and\n      0x8be0079c531659141344cd1fd0a4f28419497f9722a3daafe3b4186f6b6457e0\n      mload(0x40)\n      mload(0x40)\n      dup1\n      swap2\n      sub\n      swap1\n      log3\n        /* \"@openzeppelin/contracts/access/Ownable.sol\":2975:3099  {... */\n      pop\n        /* \"@openzeppelin/contracts/access/Ownable.sol\":2912:3099  function _transferOwnership(address newOwner) internal virtual {... */\n      pop\n      jump\t// out\n        /* \"@openzeppelin/contracts/token/ERC1155/ERC1155.sol\":13268:13583  function _setApprovalForAll(address owner, address operator, bool approved) internal virtual {... */\n    tag_146:\n        /* \"@openzeppelin/contracts/token/ERC1155/ERC1155.sol\":13395:13396  0 */\n      0x00\n        /* \"@openzeppelin/contracts/token/ERC1155/ERC1155.sol\":13375:13397  operator == address(0) */\n      0xffffffffffffffffffffffffffffffffffffffff\n      and\n        /* \"@openzeppelin/contracts/token/ERC1155/ERC1155.sol\":13375:13383  operator */\n      dup3\n        /* \"@openzeppelin/contracts/token/ERC1155/ERC1155.sol\":13375:13397  operator == address(0) */\n      0xffffffffffffffffffffffffffffffffffffffff\n      and\n      sub\n        /* \"@openzeppelin/contracts/token/ERC1155/ERC1155.sol\":13371:13465  if (operator == address(0)) {... */\n      tag_190\n      jumpi\n        /* \"@openzeppelin/contracts/token/ERC1155/ERC1155.sol\":13451:13452  0 */\n      0x00\n        /* \"@openzeppelin/contracts/token/ERC1155/ERC1155.sol\":13420:13454  ERC1155InvalidOperator(address(0)) */\n      mload(0x40)\n      0xced3e10000000000000000000000000000000000000000000000000000000000\n      dup2\n      mstore\n      0x04\n      add\n      tag_191\n      swap2\n      swap1\n      tag_65\n      jump\t// in\n    tag_191:\n      mload(0x40)\n      dup1\n      swap2\n      sub\n      swap1\n      revert\n        /* \"@openzeppelin/contracts/token/ERC1155/ERC1155.sol\":13371:13465  if (operator == address(0)) {... */\n    tag_190:\n        /* \"@openzeppelin/contracts/token/ERC1155/ERC1155.sol\":13512:13520  approved */\n      dup1\n        /* \"@openzeppelin/contracts/token/ERC1155/ERC1155.sol\":13474:13492  _operatorApprovals */\n      0x01\n        /* \"@openzeppelin/contracts/token/ERC1155/ERC1155.sol\":13474:13499  _operatorApprovals[owner] */\n      0x00\n        /* \"@openzeppelin/contracts/token/ERC1155/ERC1155.sol\":13493:13498  owner */\n      dup6\n        /* \"@openzeppelin/contracts/token/ERC1155/ERC1155.sol\":13474:13499  _operatorApprovals[owner] */\n      0xffffffffffffffffffffffffffffffffffffffff\n      and\n      0xffffffffffffffffffffffffffffffffffffffff\n      and\n      dup2\n      mstore\n      0x20\n      add\n      swap1\n      dup2\n      mstore\n      0x20\n      add\n      0x00\n      keccak256\n        /* \"@openzeppelin/contracts/token/ERC1155/ERC1155.sol\":13474:13509  _operatorApprovals[owner][operator] */\n      0x00\n        /* \"@openzeppelin/contracts/token/ERC1155/ERC1155.sol\":13500:13508  operator */\n      dup5\n        /* \"@openzeppelin/contracts/token/ERC1155/ERC1155.sol\":13474:13509  _operatorApprovals[owner][operator] */\n      0xffffffffffffffffffffffffffffffffffffffff\n      and\n      0xffffffffffffffffffffffffffffffffffffffff\n      and\n      dup2\n      mstore\n      0x20\n      add\n      swap1\n      dup2\n      mstore\n      0x20\n      add\n      0x00\n      keccak256\n      0x00\n        /* \"@openzeppelin/contracts/token/ERC1155/ERC1155.sol\":13474:13520  _operatorApprovals[owner][operator] = approved */\n      0x0100\n      exp\n      dup2\n      sload\n      dup2\n      0xff\n      mul\n      not\n      and\n      swap1\n      dup4\n      iszero\n      iszero\n      mul\n      or\n      swap1\n      sstore\n      pop\n        /* \"@openzeppelin/contracts/token/ERC1155/ERC1155.sol\":13557:13565  operator */\n      dup2\n        /* \"@openzeppelin/contracts/token/ERC1155/ERC1155.sol\":13535:13576  ApprovalForAll(owner, operator, approved) */\n      0xffffffffffffffffffffffffffffffffffffffff\n      and\n        /* \"@openzeppelin/contracts/token/ERC1155/ERC1155.sol\":13550:13555  owner */\n      dup4\n        /* \"@openzeppelin/contracts/token/ERC1155/ERC1155.sol\":13535:13576  ApprovalForAll(owner, operator, approved) */\n      0xffffffffffffffffffffffffffffffffffffffff\n      and\n      0x17307eab39ab6107e8899845ad3d59bd9653f200f220920489ca2b5937696c31\n        /* \"@openzeppelin/contracts/token/ERC1155/ERC1155.sol\":13567:13575  approved */\n      dup4\n        /* \"@openzeppelin/contracts/token/ERC1155/ERC1155.sol\":13535:13576  ApprovalForAll(owner, operator, approved) */\n      mload(0x40)\n      tag_192\n      swap2\n      swap1\n      tag_32\n      jump\t// in\n    tag_192:\n      mload(0x40)\n      dup1\n      swap2\n      sub\n      swap1\n      log3\n        /* \"@openzeppelin/contracts/token/ERC1155/ERC1155.sol\":13268:13583  function _setApprovalForAll(address owner, address operator, bool approved) internal virtual {... */\n      pop\n      pop\n      pop\n      jump\t// out\n        /* \"@openzeppelin/contracts/token/ERC1155/ERC1155.sol\":10746:11092  function _mint(address to, uint256 id, uint256 value, bytes memory data) internal {... */\n    tag_151:\n        /* \"@openzeppelin/contracts/token/ERC1155/ERC1155.sol\":10856:10857  0 */\n      0x00\n        /* \"@openzeppelin/contracts/token/ERC1155/ERC1155.sol\":10842:10858  to == address(0) */\n      0xffffffffffffffffffffffffffffffffffffffff\n      and\n        /* \"@openzeppelin/contracts/token/ERC1155/ERC1155.sol\":10842:10844  to */\n      dup5\n        /* \"@openzeppelin/contracts/token/ERC1155/ERC1155.sol\":10842:10858  to == address(0) */\n      0xffffffffffffffffffffffffffffffffffffffff\n      and\n      sub\n        /* \"@openzeppelin/contracts/token/ERC1155/ERC1155.sol\":10838:10926  if (to == address(0)) {... */\n      tag_194\n      jumpi\n        /* \"@openzeppelin/contracts/token/ERC1155/ERC1155.sol\":10912:10913  0 */\n      0x00\n        /* \"@openzeppelin/contracts/token/ERC1155/ERC1155.sol\":10881:10915  ERC1155InvalidReceiver(address(0)) */\n      mload(0x40)\n      0x57f447ce00000000000000000000000000000000000000000000000000000000\n      dup2\n      mstore\n      0x04\n      add\n      tag_195\n      swap2\n      swap1\n      tag_65\n      jump\t// in\n    tag_195:\n      mload(0x40)\n      dup1\n      swap2\n      sub\n      swap1\n      revert\n        /* \"@openzeppelin/contracts/token/ERC1155/ERC1155.sol\":10838:10926  if (to == address(0)) {... */\n    tag_194:\n        /* \"@openzeppelin/contracts/token/ERC1155/ERC1155.sol\":10936:10956  uint256[] memory ids */\n      0x00\n        /* \"@openzeppelin/contracts/token/ERC1155/ERC1155.sol\":10958:10981  uint256[] memory values */\n      dup1\n        /* \"@openzeppelin/contracts/token/ERC1155/ERC1155.sol\":10985:11014  _asSingletonArrays(id, value) */\n      tag_196\n        /* \"@openzeppelin/contracts/token/ERC1155/ERC1155.sol\":11004:11006  id */\n      dup6\n        /* \"@openzeppelin/contracts/token/ERC1155/ERC1155.sol\":11008:11013  value */\n      dup6\n        /* \"@openzeppelin/contracts/token/ERC1155/ERC1155.sol\":10985:11003  _asSingletonArrays */\n      tag_197\n        /* \"@openzeppelin/contracts/token/ERC1155/ERC1155.sol\":10985:11014  _asSingletonArrays(id, value) */\n      jump\t// in\n    tag_196:\n        /* \"@openzeppelin/contracts/token/ERC1155/ERC1155.sol\":10935:11014  (uint256[] memory ids, uint256[] memory values) = _asSingletonArrays(id, value) */\n      swap2\n      pop\n      swap2\n      pop\n        /* \"@openzeppelin/contracts/token/ERC1155/ERC1155.sol\":11024:11085  _updateWithAcceptanceCheck(address(0), to, ids, values, data) */\n      tag_198\n        /* \"@openzeppelin/contracts/token/ERC1155/ERC1155.sol\":11059:11060  0 */\n      0x00\n        /* \"@openzeppelin/contracts/token/ERC1155/ERC1155.sol\":11063:11065  to */\n      dup8\n        /* \"@openzeppelin/contracts/token/ERC1155/ERC1155.sol\":11067:11070  ids */\n      dup5\n        /* \"@openzeppelin/contracts/token/ERC1155/ERC1155.sol\":11072:11078  values */\n      dup5\n        /* \"@openzeppelin/contracts/token/ERC1155/ERC1155.sol\":11080:11084  data */\n      dup8\n        /* \"@openzeppelin/contracts/token/ERC1155/ERC1155.sol\":11024:11050  _updateWithAcceptanceCheck */\n      tag_179\n        /* \"@openzeppelin/contracts/token/ERC1155/ERC1155.sol\":11024:11085  _updateWithAcceptanceCheck(address(0), to, ids, values, data) */\n      jump\t// in\n    tag_198:\n        /* \"@openzeppelin/contracts/token/ERC1155/ERC1155.sol\":10828:11092  {... */\n      pop\n      pop\n        /* \"@openzeppelin/contracts/token/ERC1155/ERC1155.sol\":10746:11092  function _mint(address to, uint256 id, uint256 value, bytes memory data) internal {... */\n      pop\n      pop\n      pop\n      pop\n      jump\t// out\n        /* \"@openzeppelin/contracts/token/ERC1155/ERC1155.sol\":8151:8614  function _safeTransferFrom(address from, address to, uint256 id, uint256 value, bytes memory data) internal {... */\n    tag_164:\n        /* \"@openzeppelin/contracts/token/ERC1155/ERC1155.sol\":8287:8288  0 */\n      0x00\n        /* \"@openzeppelin/contracts/token/ERC1155/ERC1155.sol\":8273:8289  to == address(0) */\n      0xffffffffffffffffffffffffffffffffffffffff\n      and\n        /* \"@openzeppelin/contracts/token/ERC1155/ERC1155.sol\":8273:8275  to */\n      dup5\n        /* \"@openzeppelin/contracts/token/ERC1155/ERC1155.sol\":8273:8289  to == address(0) */\n      0xffffffffffffffffffffffffffffffffffffffff\n      and\n      sub\n        /* \"@openzeppelin/contracts/token/ERC1155/ERC1155.sol\":8269:8357  if (to == address(0)) {... */\n      tag_200\n      jumpi\n        /* \"@openzeppelin/contracts/token/ERC1155/ERC1155.sol\":8343:8344  0 */\n      0x00\n        /* \"@openzeppelin/contracts/token/ERC1155/ERC1155.sol\":8312:8346  ERC1155InvalidReceiver(address(0)) */\n      mload(0x40)\n      0x57f447ce00000000000000000000000000000000000000000000000000000000\n      dup2\n      mstore\n      0x04\n      add\n      tag_201\n      swap2\n      swap1\n      tag_65\n      jump\t// in\n    tag_201:\n      mload(0x40)\n      dup1\n      swap2\n      sub\n      swap1\n      revert\n        /* \"@openzeppelin/contracts/token/ERC1155/ERC1155.sol\":8269:8357  if (to == address(0)) {... */\n    tag_200:\n        /* \"@openzeppelin/contracts/token/ERC1155/ERC1155.sol\":8386:8387  0 */\n      0x00\n        /* \"@openzeppelin/contracts/token/ERC1155/ERC1155.sol\":8370:8388  from == address(0) */\n      0xffffffffffffffffffffffffffffffffffffffff\n      and\n        /* \"@openzeppelin/contracts/token/ERC1155/ERC1155.sol\":8370:8374  from */\n      dup6\n        /* \"@openzeppelin/contracts/token/ERC1155/ERC1155.sol\":8370:8388  from == address(0) */\n      0xffffffffffffffffffffffffffffffffffffffff\n      and\n      sub\n        /* \"@openzeppelin/contracts/token/ERC1155/ERC1155.sol\":8366:8454  if (from == address(0)) {... */\n      tag_202\n      jumpi\n        /* \"@openzeppelin/contracts/token/ERC1155/ERC1155.sol\":8440:8441  0 */\n      0x00\n        /* \"@openzeppelin/contracts/token/ERC1155/ERC1155.sol\":8411:8443  ERC1155InvalidSender(address(0)) */\n      mload(0x40)\n      0x01a8351400000000000000000000000000000000000000000000000000000000\n      dup2\n      mstore\n      0x04\n      add\n      tag_203\n      swap2\n      swap1\n      tag_65\n      jump\t// in\n    tag_203:\n      mload(0x40)\n      dup1\n      swap2\n      sub\n      swap1\n      revert\n        /* \"@openzeppelin/contracts/token/ERC1155/ERC1155.sol\":8366:8454  if (from == address(0)) {... */\n    tag_202:\n        /* \"@openzeppelin/contracts/token/ERC1155/ERC1155.sol\":8464:8484  uint256[] memory ids */\n      0x00\n        /* \"@openzeppelin/contracts/token/ERC1155/ERC1155.sol\":8486:8509  uint256[] memory values */\n      dup1\n        /* \"@openzeppelin/contracts/token/ERC1155/ERC1155.sol\":8513:8542  _asSingletonArrays(id, value) */\n      tag_204\n        /* \"@openzeppelin/contracts/token/ERC1155/ERC1155.sol\":8532:8534  id */\n      dup6\n        /* \"@openzeppelin/contracts/token/ERC1155/ERC1155.sol\":8536:8541  value */\n      dup6\n        /* \"@openzeppelin/contracts/token/ERC1155/ERC1155.sol\":8513:8531  _asSingletonArrays */\n      tag_197\n        /* \"@openzeppelin/contracts/token/ERC1155/ERC1155.sol\":8513:8542  _asSingletonArrays(id, value) */\n      jump\t// in\n    tag_204:\n        /* \"@openzeppelin/contracts/token/ERC1155/ERC1155.sol\":8463:8542  (uint256[] memory ids, uint256[] memory values) = _asSingletonArrays(id, value) */\n      swap2\n      pop\n      swap2\n      pop\n        /* \"@openzeppelin/contracts/token/ERC1155/ERC1155.sol\":8552:8607  _updateWithAcceptanceCheck(from, to, ids, values, data) */\n      tag_205\n        /* \"@openzeppelin/contracts/token/ERC1155/ERC1155.sol\":8579:8583  from */\n      dup8\n        /* \"@openzeppelin/contracts/token/ERC1155/ERC1155.sol\":8585:8587  to */\n      dup8\n        /* \"@openzeppelin/contracts/token/ERC1155/ERC1155.sol\":8589:8592  ids */\n      dup5\n        /* \"@openzeppelin/contracts/token/ERC1155/ERC1155.sol\":8594:8600  values */\n      dup5\n        /* \"@openzeppelin/contracts/token/ERC1155/ERC1155.sol\":8602:8606  data */\n      dup8\n        /* \"@openzeppelin/contracts/token/ERC1155/ERC1155.sol\":8552:8578  _updateWithAcceptanceCheck */\n      tag_179\n        /* \"@openzeppelin/contracts/token/ERC1155/ERC1155.sol\":8552:8607  _updateWithAcceptanceCheck(from, to, ids, values, data) */\n      jump\t// in\n    tag_205:\n        /* \"@openzeppelin/contracts/token/ERC1155/ERC1155.sol\":8259:8614  {... */\n      pop\n      pop\n        /* \"@openzeppelin/contracts/token/ERC1155/ERC1155.sol\":8151:8614  function _safeTransferFrom(address from, address to, uint256 id, uint256 value, bytes memory data) internal {... */\n      pop\n      pop\n      pop\n      pop\n      pop\n      jump\t// out\n        /* \"@openzeppelin/contracts/token/ERC1155/ERC1155.sol\":7004:7694  function _updateWithAcceptanceCheck(... */\n    tag_179:\n        /* \"@openzeppelin/contracts/token/ERC1155/ERC1155.sol\":7205:7235  _update(from, to, ids, values) */\n      tag_207\n        /* \"@openzeppelin/contracts/token/ERC1155/ERC1155.sol\":7213:7217  from */\n      dup6\n        /* \"@openzeppelin/contracts/token/ERC1155/ERC1155.sol\":7219:7221  to */\n      dup6\n        /* \"@openzeppelin/contracts/token/ERC1155/ERC1155.sol\":7223:7226  ids */\n      dup6\n        /* \"@openzeppelin/contracts/token/ERC1155/ERC1155.sol\":7228:7234  values */\n      dup6\n        /* \"@openzeppelin/contracts/token/ERC1155/ERC1155.sol\":7205:7212  _update */\n      tag_208\n        /* \"@openzeppelin/contracts/token/ERC1155/ERC1155.sol\":7205:7235  _update(from, to, ids, values) */\n      jump\t// in\n    tag_207:\n        /* \"@openzeppelin/contracts/token/ERC1155/ERC1155.sol\":7263:7264  0 */\n      0x00\n        /* \"@openzeppelin/contracts/token/ERC1155/ERC1155.sol\":7249:7265  to != address(0) */\n      0xffffffffffffffffffffffffffffffffffffffff\n      and\n        /* \"@openzeppelin/contracts/token/ERC1155/ERC1155.sol\":7249:7251  to */\n      dup5\n        /* \"@openzeppelin/contracts/token/ERC1155/ERC1155.sol\":7249:7265  to != address(0) */\n      0xffffffffffffffffffffffffffffffffffffffff\n      and\n      eq\n        /* \"@openzeppelin/contracts/token/ERC1155/ERC1155.sol\":7245:7688  if (to != address(0)) {... */\n      tag_209\n      jumpi\n        /* \"@openzeppelin/contracts/token/ERC1155/ERC1155.sol\":7281:7297  address operator */\n      0x00\n        /* \"@openzeppelin/contracts/token/ERC1155/ERC1155.sol\":7300:7312  _msgSender() */\n      tag_210\n        /* \"@openzeppelin/contracts/token/ERC1155/ERC1155.sol\":7300:7310  _msgSender */\n      tag_104\n        /* \"@openzeppelin/contracts/token/ERC1155/ERC1155.sol\":7300:7312  _msgSender() */\n      jump\t// in\n    tag_210:\n        /* \"@openzeppelin/contracts/token/ERC1155/ERC1155.sol\":7281:7312  address operator = _msgSender() */\n      swap1\n      pop\n        /* \"@openzeppelin/contracts/token/ERC1155/ERC1155.sol\":7344:7345  1 */\n      0x01\n        /* \"@openzeppelin/contracts/token/ERC1155/ERC1155.sol\":7330:7333  ids */\n      dup5\n        /* \"@openzeppelin/contracts/token/ERC1155/ERC1155.sol\":7330:7340  ids.length */\n      mload\n        /* \"@openzeppelin/contracts/token/ERC1155/ERC1155.sol\":7330:7345  ids.length == 1 */\n      sub\n        /* \"@openzeppelin/contracts/token/ERC1155/ERC1155.sol\":7326:7678  if (ids.length == 1) {... */\n      tag_211\n      jumpi\n        /* \"@openzeppelin/contracts/token/ERC1155/ERC1155.sol\":7365:7375  uint256 id */\n      0x00\n        /* \"@openzeppelin/contracts/token/ERC1155/ERC1155.sol\":7378:7403  ids.unsafeMemoryAccess(0) */\n      tag_212\n        /* \"@openzeppelin/contracts/token/ERC1155/ERC1155.sol\":7401:7402  0 */\n      0x00\n        /* \"@openzeppelin/contracts/token/ERC1155/ERC1155.sol\":7378:7381  ids */\n      dup7\n        /* \"@openzeppelin/contracts/token/ERC1155/ERC1155.sol\":7378:7400  ids.unsafeMemoryAccess */\n      tag_127\n      swap1\n        /* \"@openzeppelin/contracts/token/ERC1155/ERC1155.sol\":7378:7403  ids.unsafeMemoryAccess(0) */\n      swap2\n      swap1\n      0xffffffff\n      and\n      jump\t// in\n    tag_212:\n        /* \"@openzeppelin/contracts/token/ERC1155/ERC1155.sol\":7365:7403  uint256 id = ids.unsafeMemoryAccess(0) */\n      swap1\n      pop\n        /* \"@openzeppelin/contracts/token/ERC1155/ERC1155.sol\":7421:7434  uint256 value */\n      0x00\n        /* \"@openzeppelin/contracts/token/ERC1155/ERC1155.sol\":7437:7465  values.unsafeMemoryAccess(0) */\n      tag_213\n        /* \"@openzeppelin/contracts/token/ERC1155/ERC1155.sol\":7463:7464  0 */\n      0x00\n        /* \"@openzeppelin/contracts/token/ERC1155/ERC1155.sol\":7437:7443  values */\n      dup7\n        /* \"@openzeppelin/contracts/token/ERC1155/ERC1155.sol\":7437:7462  values.unsafeMemoryAccess */\n      tag_127\n      swap1\n        /* \"@openzeppelin/contracts/token/ERC1155/ERC1155.sol\":7437:7465  values.unsafeMemoryAccess(0) */\n      swap2\n      swap1\n      0xffffffff\n      and\n      jump\t// in\n    tag_213:\n        /* \"@openzeppelin/contracts/token/ERC1155/ERC1155.sol\":7421:7465  uint256 value = values.unsafeMemoryAccess(0) */\n      swap1\n      pop\n        /* \"@openzeppelin/contracts/token/ERC1155/ERC1155.sol\":7483:7550  _doSafeTransferAcceptanceCheck(operator, from, to, id, value, data) */\n      tag_214\n        /* \"@openzeppelin/contracts/token/ERC1155/ERC1155.sol\":7514:7522  operator */\n      dup4\n        /* \"@openzeppelin/contracts/token/ERC1155/ERC1155.sol\":7524:7528  from */\n      dup10\n        /* \"@openzeppelin/contracts/token/ERC1155/ERC1155.sol\":7530:7532  to */\n      dup10\n        /* \"@openzeppelin/contracts/token/ERC1155/ERC1155.sol\":7534:7536  id */\n      dup6\n        /* \"@openzeppelin/contracts/token/ERC1155/ERC1155.sol\":7538:7543  value */\n      dup6\n        /* \"@openzeppelin/contracts/token/ERC1155/ERC1155.sol\":7545:7549  data */\n      dup10\n        /* \"@openzeppelin/contracts/token/ERC1155/ERC1155.sol\":7483:7513  _doSafeTransferAcceptanceCheck */\n      tag_215\n        /* \"@openzeppelin/contracts/token/ERC1155/ERC1155.sol\":7483:7550  _doSafeTransferAcceptanceCheck(operator, from, to, id, value, data) */\n      jump\t// in\n    tag_214:\n        /* \"@openzeppelin/contracts/token/ERC1155/ERC1155.sol\":7347:7565  {... */\n      pop\n      pop\n        /* \"@openzeppelin/contracts/token/ERC1155/ERC1155.sol\":7326:7678  if (ids.length == 1) {... */\n      jump(tag_216)\n    tag_211:\n        /* \"@openzeppelin/contracts/token/ERC1155/ERC1155.sol\":7589:7663  _doSafeBatchTransferAcceptanceCheck(operator, from, to, ids, values, data) */\n      tag_217\n        /* \"@openzeppelin/contracts/token/ERC1155/ERC1155.sol\":7625:7633  operator */\n      dup2\n        /* \"@openzeppelin/contracts/token/ERC1155/ERC1155.sol\":7635:7639  from */\n      dup8\n        /* \"@openzeppelin/contracts/token/ERC1155/ERC1155.sol\":7641:7643  to */\n      dup8\n        /* \"@openzeppelin/contracts/token/ERC1155/ERC1155.sol\":7645:7648  ids */\n      dup8\n        /* \"@openzeppelin/contracts/token/ERC1155/ERC1155.sol\":7650:7656  values */\n      dup8\n        /* \"@openzeppelin/contracts/token/ERC1155/ERC1155.sol\":7658:7662  data */\n      dup8\n        /* \"@openzeppelin/contracts/token/ERC1155/ERC1155.sol\":7589:7624  _doSafeBatchTransferAcceptanceCheck */\n      tag_218\n        /* \"@openzeppelin/contracts/token/ERC1155/ERC1155.sol\":7589:7663  _doSafeBatchTransferAcceptanceCheck(operator, from, to, ids, values, data) */\n      jump\t// in\n    tag_217:\n        /* \"@openzeppelin/contracts/token/ERC1155/ERC1155.sol\":7326:7678  if (ids.length == 1) {... */\n    tag_216:\n        /* \"@openzeppelin/contracts/token/ERC1155/ERC1155.sol\":7267:7688  {... */\n      pop\n        /* \"@openzeppelin/contracts/token/ERC1155/ERC1155.sol\":7245:7688  if (to != address(0)) {... */\n    tag_209:\n        /* \"@openzeppelin/contracts/token/ERC1155/ERC1155.sol\":7004:7694  function _updateWithAcceptanceCheck(... */\n      pop\n      pop\n      pop\n      pop\n      pop\n      jump\t// out\n        /* \"@openzeppelin/contracts/token/ERC1155/ERC1155.sol\":16080:16929  function _asSingletonArrays(... */\n    tag_197:\n        /* \"@openzeppelin/contracts/token/ERC1155/ERC1155.sol\":16188:16211  uint256[] memory array1 */\n      0x60\n        /* \"@openzeppelin/contracts/token/ERC1155/ERC1155.sol\":16213:16236  uint256[] memory array2 */\n      dup1\n        /* \"@openzeppelin/contracts/token/ERC1155/ERC1155.sol\":16374:16378  0x40 */\n      0x40\n        /* \"@openzeppelin/contracts/token/ERC1155/ERC1155.sol\":16368:16379  mload(0x40) */\n      mload\n        /* \"@openzeppelin/contracts/token/ERC1155/ERC1155.sol\":16358:16379  array1 := mload(0x40) */\n      swap2\n      pop\n        /* \"@openzeppelin/contracts/token/ERC1155/ERC1155.sol\":16444:16445  1 */\n      0x01\n        /* \"@openzeppelin/contracts/token/ERC1155/ERC1155.sol\":16436:16442  array1 */\n      dup3\n        /* \"@openzeppelin/contracts/token/ERC1155/ERC1155.sol\":16429:16446  mstore(array1, 1) */\n      mstore\n        /* \"@openzeppelin/contracts/token/ERC1155/ERC1155.sol\":16582:16590  element1 */\n      dup4\n        /* \"@openzeppelin/contracts/token/ERC1155/ERC1155.sol\":16575:16579  0x20 */\n      0x20\n        /* \"@openzeppelin/contracts/token/ERC1155/ERC1155.sol\":16567:16573  array1 */\n      dup4\n        /* \"@openzeppelin/contracts/token/ERC1155/ERC1155.sol\":16563:16580  add(array1, 0x20) */\n      add\n        /* \"@openzeppelin/contracts/token/ERC1155/ERC1155.sol\":16556:16591  mstore(add(array1, 0x20), element1) */\n      mstore\n        /* \"@openzeppelin/contracts/token/ERC1155/ERC1155.sol\":16704:16708  0x40 */\n      0x40\n        /* \"@openzeppelin/contracts/token/ERC1155/ERC1155.sol\":16696:16702  array1 */\n      dup3\n        /* \"@openzeppelin/contracts/token/ERC1155/ERC1155.sol\":16692:16709  add(array1, 0x40) */\n      add\n        /* \"@openzeppelin/contracts/token/ERC1155/ERC1155.sol\":16682:16709  array2 := add(array1, 0x40) */\n      swap1\n      pop\n        /* \"@openzeppelin/contracts/token/ERC1155/ERC1155.sol\":16737:16738  1 */\n      0x01\n        /* \"@openzeppelin/contracts/token/ERC1155/ERC1155.sol\":16729:16735  array2 */\n      dup2\n        /* \"@openzeppelin/contracts/token/ERC1155/ERC1155.sol\":16722:16739  mstore(array2, 1) */\n      mstore\n        /* \"@openzeppelin/contracts/token/ERC1155/ERC1155.sol\":16778:16786  element2 */\n      dup3\n        /* \"@openzeppelin/contracts/token/ERC1155/ERC1155.sol\":16771:16775  0x20 */\n      0x20\n        /* \"@openzeppelin/contracts/token/ERC1155/ERC1155.sol\":16763:16769  array2 */\n      dup3\n        /* \"@openzeppelin/contracts/token/ERC1155/ERC1155.sol\":16759:16776  add(array2, 0x20) */\n      add\n        /* \"@openzeppelin/contracts/token/ERC1155/ERC1155.sol\":16752:16787  mstore(add(array2, 0x20), element2) */\n      mstore\n        /* \"@openzeppelin/contracts/token/ERC1155/ERC1155.sol\":16907:16911  0x40 */\n      0x40\n        /* \"@openzeppelin/contracts/token/ERC1155/ERC1155.sol\":16899:16905  array2 */\n      dup2\n        /* \"@openzeppelin/contracts/token/ERC1155/ERC1155.sol\":16895:16912  add(array2, 0x40) */\n      add\n        /* \"@openzeppelin/contracts/token/ERC1155/ERC1155.sol\":16889:16893  0x40 */\n      0x40\n        /* \"@openzeppelin/contracts/token/ERC1155/ERC1155.sol\":16882:16913  mstore(0x40, add(array2, 0x40)) */\n      mstore\n        /* \"@openzeppelin/contracts/token/ERC1155/ERC1155.sol\":16080:16929  function _asSingletonArrays(... */\n      swap3\n      pop\n      swap3\n      swap1\n      pop\n      jump\t// out\n        /* \"@openzeppelin/contracts/token/ERC1155/ERC1155.sol\":5144:6425  function _update(address from, address to, uint256[] memory ids, uint256[] memory values) internal virtual {... */\n    tag_208:\n        /* \"@openzeppelin/contracts/token/ERC1155/ERC1155.sol\":5279:5285  values */\n      dup1\n        /* \"@openzeppelin/contracts/token/ERC1155/ERC1155.sol\":5279:5292  values.length */\n      mload\n        /* \"@openzeppelin/contracts/token/ERC1155/ERC1155.sol\":5265:5268  ids */\n      dup3\n        /* \"@openzeppelin/contracts/token/ERC1155/ERC1155.sol\":5265:5275  ids.length */\n      mload\n        /* \"@openzeppelin/contracts/token/ERC1155/ERC1155.sol\":5265:5292  ids.length != values.length */\n      eq\n        /* \"@openzeppelin/contracts/token/ERC1155/ERC1155.sol\":5261:5378  if (ids.length != values.length) {... */\n      tag_221\n      jumpi\n        /* \"@openzeppelin/contracts/token/ERC1155/ERC1155.sol\":5341:5344  ids */\n      dup2\n        /* \"@openzeppelin/contracts/token/ERC1155/ERC1155.sol\":5341:5351  ids.length */\n      mload\n        /* \"@openzeppelin/contracts/token/ERC1155/ERC1155.sol\":5353:5359  values */\n      dup2\n        /* \"@openzeppelin/contracts/token/ERC1155/ERC1155.sol\":5353:5366  values.length */\n      mload\n        /* \"@openzeppelin/contracts/token/ERC1155/ERC1155.sol\":5315:5367  ERC1155InvalidArrayLength(ids.length, values.length) */\n      mload(0x40)\n      0x5b05999100000000000000000000000000000000000000000000000000000000\n      dup2\n      mstore\n      0x04\n      add\n      tag_222\n      swap3\n      swap2\n      swap1\n      tag_115\n      jump\t// in\n    tag_222:\n      mload(0x40)\n      dup1\n      swap2\n      sub\n      swap1\n      revert\n        /* \"@openzeppelin/contracts/token/ERC1155/ERC1155.sol\":5261:5378  if (ids.length != values.length) {... */\n    tag_221:\n        /* \"@openzeppelin/contracts/token/ERC1155/ERC1155.sol\":5388:5404  address operator */\n      0x00\n        /* \"@openzeppelin/contracts/token/ERC1155/ERC1155.sol\":5407:5419  _msgSender() */\n      tag_223\n        /* \"@openzeppelin/contracts/token/ERC1155/ERC1155.sol\":5407:5417  _msgSender */\n      tag_104\n        /* \"@openzeppelin/contracts/token/ERC1155/ERC1155.sol\":5407:5419  _msgSender() */\n      jump\t// in\n    tag_223:\n        /* \"@openzeppelin/contracts/token/ERC1155/ERC1155.sol\":5388:5419  address operator = _msgSender() */\n      swap1\n      pop\n        /* \"@openzeppelin/contracts/token/ERC1155/ERC1155.sol\":5435:5444  uint256 i */\n      0x00\n        /* \"@openzeppelin/contracts/token/ERC1155/ERC1155.sol\":5430:6121  for (uint256 i = 0; i < ids.length; ++i) {... */\n    tag_224:\n        /* \"@openzeppelin/contracts/token/ERC1155/ERC1155.sol\":5454:5457  ids */\n      dup4\n        /* \"@openzeppelin/contracts/token/ERC1155/ERC1155.sol\":5454:5464  ids.length */\n      mload\n        /* \"@openzeppelin/contracts/token/ERC1155/ERC1155.sol\":5450:5451  i */\n      dup2\n        /* \"@openzeppelin/contracts/token/ERC1155/ERC1155.sol\":5450:5464  i < ids.length */\n      lt\n        /* \"@openzeppelin/contracts/token/ERC1155/ERC1155.sol\":5430:6121  for (uint256 i = 0; i < ids.length; ++i) {... */\n      iszero\n      tag_225\n      jumpi\n        /* \"@openzeppelin/contracts/token/ERC1155/ERC1155.sol\":5485:5495  uint256 id */\n      0x00\n        /* \"@openzeppelin/contracts/token/ERC1155/ERC1155.sol\":5498:5523  ids.unsafeMemoryAccess(i) */\n      tag_227\n        /* \"@openzeppelin/contracts/token/ERC1155/ERC1155.sol\":5521:5522  i */\n      dup3\n        /* \"@openzeppelin/contracts/token/ERC1155/ERC1155.sol\":5498:5501  ids */\n      dup7\n        /* \"@openzeppelin/contracts/token/ERC1155/ERC1155.sol\":5498:5520  ids.unsafeMemoryAccess */\n      tag_127\n      swap1\n        /* \"@openzeppelin/contracts/token/ERC1155/ERC1155.sol\":5498:5523  ids.unsafeMemoryAccess(i) */\n      swap2\n      swap1\n      0xffffffff\n      and\n      jump\t// in\n    tag_227:\n        /* \"@openzeppelin/contracts/token/ERC1155/ERC1155.sol\":5485:5523  uint256 id = ids.unsafeMemoryAccess(i) */\n      swap1\n      pop\n        /* \"@openzeppelin/contracts/token/ERC1155/ERC1155.sol\":5537:5550  uint256 value */\n      0x00\n        /* \"@openzeppelin/contracts/token/ERC1155/ERC1155.sol\":5553:5581  values.unsafeMemoryAccess(i) */\n      tag_228\n        /* \"@openzeppelin/contracts/token/ERC1155/ERC1155.sol\":5579:5580  i */\n      dup4\n        /* \"@openzeppelin/contracts/token/ERC1155/ERC1155.sol\":5553:5559  values */\n      dup7\n        /* \"@openzeppelin/contracts/token/ERC1155/ERC1155.sol\":5553:5578  values.unsafeMemoryAccess */\n      tag_127\n      swap1\n        /* \"@openzeppelin/contracts/token/ERC1155/ERC1155.sol\":5553:5581  values.unsafeMemoryAccess(i) */\n      swap2\n      swap1\n      0xffffffff\n      and\n      jump\t// in\n    tag_228:\n        /* \"@openzeppelin/contracts/token/ERC1155/ERC1155.sol\":5537:5581  uint256 value = values.unsafeMemoryAccess(i) */\n      swap1\n      pop\n        /* \"@openzeppelin/contracts/token/ERC1155/ERC1155.sol\":5616:5617  0 */\n      0x00\n        /* \"@openzeppelin/contracts/token/ERC1155/ERC1155.sol\":5600:5618  from != address(0) */\n      0xffffffffffffffffffffffffffffffffffffffff\n      and\n        /* \"@openzeppelin/contracts/token/ERC1155/ERC1155.sol\":5600:5604  from */\n      dup9\n        /* \"@openzeppelin/contracts/token/ERC1155/ERC1155.sol\":5600:5618  from != address(0) */\n      0xffffffffffffffffffffffffffffffffffffffff\n      and\n      eq\n        /* \"@openzeppelin/contracts/token/ERC1155/ERC1155.sol\":5596:6016  if (from != address(0)) {... */\n      tag_229\n      jumpi\n        /* \"@openzeppelin/contracts/token/ERC1155/ERC1155.sol\":5638:5657  uint256 fromBalance */\n      0x00\n        /* \"@openzeppelin/contracts/token/ERC1155/ERC1155.sol\":5660:5669  _balances */\n      dup1\n        /* \"@openzeppelin/contracts/token/ERC1155/ERC1155.sol\":5660:5673  _balances[id] */\n      0x00\n        /* \"@openzeppelin/contracts/token/ERC1155/ERC1155.sol\":5670:5672  id */\n      dup5\n        /* \"@openzeppelin/contracts/token/ERC1155/ERC1155.sol\":5660:5673  _balances[id] */\n      dup2\n      mstore\n      0x20\n      add\n      swap1\n      dup2\n      mstore\n      0x20\n      add\n      0x00\n      keccak256\n        /* \"@openzeppelin/contracts/token/ERC1155/ERC1155.sol\":5660:5679  _balances[id][from] */\n      0x00\n        /* \"@openzeppelin/contracts/token/ERC1155/ERC1155.sol\":5674:5678  from */\n      dup11\n        /* \"@openzeppelin/contracts/token/ERC1155/ERC1155.sol\":5660:5679  _balances[id][from] */\n      0xffffffffffffffffffffffffffffffffffffffff\n      and\n      0xffffffffffffffffffffffffffffffffffffffff\n      and\n      dup2\n      mstore\n      0x20\n      add\n      swap1\n      dup2\n      mstore\n      0x20\n      add\n      0x00\n      keccak256\n      sload\n        /* \"@openzeppelin/contracts/token/ERC1155/ERC1155.sol\":5638:5679  uint256 fromBalance = _balances[id][from] */\n      swap1\n      pop\n        /* \"@openzeppelin/contracts/token/ERC1155/ERC1155.sol\":5715:5720  value */\n      dup2\n        /* \"@openzeppelin/contracts/token/ERC1155/ERC1155.sol\":5701:5712  fromBalance */\n      dup2\n        /* \"@openzeppelin/contracts/token/ERC1155/ERC1155.sol\":5701:5720  fromBalance < value */\n      lt\n        /* \"@openzeppelin/contracts/token/ERC1155/ERC1155.sol\":5697:5826  if (fromBalance < value) {... */\n      iszero\n      tag_230\n      jumpi\n        /* \"@openzeppelin/contracts/token/ERC1155/ERC1155.sol\":5778:5782  from */\n      dup9\n        /* \"@openzeppelin/contracts/token/ERC1155/ERC1155.sol\":5784:5795  fromBalance */\n      dup2\n        /* \"@openzeppelin/contracts/token/ERC1155/ERC1155.sol\":5797:5802  value */\n      dup4\n        /* \"@openzeppelin/contracts/token/ERC1155/ERC1155.sol\":5804:5806  id */\n      dup6\n        /* \"@openzeppelin/contracts/token/ERC1155/ERC1155.sol\":5751:5807  ERC1155InsufficientBalance(from, fromBalance, value, id) */\n      mload(0x40)\n      0x03dee4c500000000000000000000000000000000000000000000000000000000\n      dup2\n      mstore\n      0x04\n      add\n      tag_231\n      swap5\n      swap4\n      swap3\n      swap2\n      swap1\n      tag_232\n      jump\t// in\n    tag_231:\n      mload(0x40)\n      dup1\n      swap2\n      sub\n      swap1\n      revert\n        /* \"@openzeppelin/contracts/token/ERC1155/ERC1155.sol\":5697:5826  if (fromBalance < value) {... */\n    tag_230:\n        /* \"@openzeppelin/contracts/token/ERC1155/ERC1155.sol\":5978:5983  value */\n      dup2\n        /* \"@openzeppelin/contracts/token/ERC1155/ERC1155.sol\":5964:5975  fromBalance */\n      dup2\n        /* \"@openzeppelin/contracts/token/ERC1155/ERC1155.sol\":5964:5983  fromBalance - value */\n      sub\n        /* \"@openzeppelin/contracts/token/ERC1155/ERC1155.sol\":5942:5951  _balances */\n      0x00\n        /* \"@openzeppelin/contracts/token/ERC1155/ERC1155.sol\":5942:5955  _balances[id] */\n      dup1\n        /* \"@openzeppelin/contracts/token/ERC1155/ERC1155.sol\":5952:5954  id */\n      dup6\n        /* \"@openzeppelin/contracts/token/ERC1155/ERC1155.sol\":5942:5955  _balances[id] */\n      dup2\n      mstore\n      0x20\n      add\n      swap1\n      dup2\n      mstore\n      0x20\n      add\n      0x00\n      keccak256\n        /* \"@openzeppelin/contracts/token/ERC1155/ERC1155.sol\":5942:5961  _balances[id][from] */\n      0x00\n        /* \"@openzeppelin/contracts/token/ERC1155/ERC1155.sol\":5956:5960  from */\n      dup12\n        /* \"@openzeppelin/contracts/token/ERC1155/ERC1155.sol\":5942:5961  _balances[id][from] */\n      0xffffffffffffffffffffffffffffffffffffffff\n      and\n      0xffffffffffffffffffffffffffffffffffffffff\n      and\n      dup2\n      mstore\n      0x20\n      add\n      swap1\n      dup2\n      mstore\n      0x20\n      add\n      0x00\n      keccak256\n        /* \"@openzeppelin/contracts/token/ERC1155/ERC1155.sol\":5942:5983  _balances[id][from] = fromBalance - value */\n      dup2\n      swap1\n      sstore\n      pop\n        /* \"@openzeppelin/contracts/token/ERC1155/ERC1155.sol\":5620:6016  {... */\n      pop\n        /* \"@openzeppelin/contracts/token/ERC1155/ERC1155.sol\":5596:6016  if (from != address(0)) {... */\n    tag_229:\n        /* \"@openzeppelin/contracts/token/ERC1155/ERC1155.sol\":6048:6049  0 */\n      0x00\n        /* \"@openzeppelin/contracts/token/ERC1155/ERC1155.sol\":6034:6050  to != address(0) */\n      0xffffffffffffffffffffffffffffffffffffffff\n      and\n        /* \"@openzeppelin/contracts/token/ERC1155/ERC1155.sol\":6034:6036  to */\n      dup8\n        /* \"@openzeppelin/contracts/token/ERC1155/ERC1155.sol\":6034:6050  to != address(0) */\n      0xffffffffffffffffffffffffffffffffffffffff\n      and\n      eq\n        /* \"@openzeppelin/contracts/token/ERC1155/ERC1155.sol\":6030:6111  if (to != address(0)) {... */\n      tag_233\n      jumpi\n        /* \"@openzeppelin/contracts/token/ERC1155/ERC1155.sol\":6091:6096  value */\n      dup1\n        /* \"@openzeppelin/contracts/token/ERC1155/ERC1155.sol\":6070:6079  _balances */\n      0x00\n        /* \"@openzeppelin/contracts/token/ERC1155/ERC1155.sol\":6070:6083  _balances[id] */\n      dup1\n        /* \"@openzeppelin/contracts/token/ERC1155/ERC1155.sol\":6080:6082  id */\n      dup5\n        /* \"@openzeppelin/contracts/token/ERC1155/ERC1155.sol\":6070:6083  _balances[id] */\n      dup2\n      mstore\n      0x20\n      add\n      swap1\n      dup2\n      mstore\n      0x20\n      add\n      0x00\n      keccak256\n        /* \"@openzeppelin/contracts/token/ERC1155/ERC1155.sol\":6070:6087  _balances[id][to] */\n      0x00\n        /* \"@openzeppelin/contracts/token/ERC1155/ERC1155.sol\":6084:6086  to */\n      dup10\n        /* \"@openzeppelin/contracts/token/ERC1155/ERC1155.sol\":6070:6087  _balances[id][to] */\n      0xffffffffffffffffffffffffffffffffffffffff\n      and\n      0xffffffffffffffffffffffffffffffffffffffff\n      and\n      dup2\n      mstore\n      0x20\n      add\n      swap1\n      dup2\n      mstore\n      0x20\n      add\n      0x00\n      keccak256\n      0x00\n        /* \"@openzeppelin/contracts/token/ERC1155/ERC1155.sol\":6070:6096  _balances[id][to] += value */\n      dup3\n      dup3\n      sload\n      tag_234\n      swap2\n      swap1\n      tag_235\n      jump\t// in\n    tag_234:\n      swap3\n      pop\n      pop\n      dup2\n      swap1\n      sstore\n      pop\n        /* \"@openzeppelin/contracts/token/ERC1155/ERC1155.sol\":6030:6111  if (to != address(0)) {... */\n    tag_233:\n        /* \"@openzeppelin/contracts/token/ERC1155/ERC1155.sol\":5471:6121  {... */\n      pop\n      pop\n        /* \"@openzeppelin/contracts/token/ERC1155/ERC1155.sol\":5466:5469  ++i */\n      dup1\n      0x01\n      add\n      swap1\n      pop\n        /* \"@openzeppelin/contracts/token/ERC1155/ERC1155.sol\":5430:6121  for (uint256 i = 0; i < ids.length; ++i) {... */\n      jump(tag_224)\n    tag_225:\n      pop\n        /* \"@openzeppelin/contracts/token/ERC1155/ERC1155.sol\":6149:6150  1 */\n      0x01\n        /* \"@openzeppelin/contracts/token/ERC1155/ERC1155.sol\":6135:6138  ids */\n      dup4\n        /* \"@openzeppelin/contracts/token/ERC1155/ERC1155.sol\":6135:6145  ids.length */\n      mload\n        /* \"@openzeppelin/contracts/token/ERC1155/ERC1155.sol\":6135:6150  ids.length == 1 */\n      sub\n        /* \"@openzeppelin/contracts/token/ERC1155/ERC1155.sol\":6131:6419  if (ids.length == 1) {... */\n      tag_236\n      jumpi\n        /* \"@openzeppelin/contracts/token/ERC1155/ERC1155.sol\":6166:6176  uint256 id */\n      0x00\n        /* \"@openzeppelin/contracts/token/ERC1155/ERC1155.sol\":6179:6204  ids.unsafeMemoryAccess(0) */\n      tag_237\n        /* \"@openzeppelin/contracts/token/ERC1155/ERC1155.sol\":6202:6203  0 */\n      0x00\n        /* \"@openzeppelin/contracts/token/ERC1155/ERC1155.sol\":6179:6182  ids */\n      dup6\n        /* \"@openzeppelin/contracts/token/ERC1155/ERC1155.sol\":6179:6201  ids.unsafeMemoryAccess */\n      tag_127\n      swap1\n        /* \"@openzeppelin/contracts/token/ERC1155/ERC1155.sol\":6179:6204  ids.unsafeMemoryAccess(0) */\n      swap2\n      swap1\n      0xffffffff\n      and\n      jump\t// in\n    tag_237:\n        /* \"@openzeppelin/contracts/token/ERC1155/ERC1155.sol\":6166:6204  uint256 id = ids.unsafeMemoryAccess(0) */\n      swap1\n      pop\n        /* \"@openzeppelin/contracts/token/ERC1155/ERC1155.sol\":6218:6231  uint256 value */\n      0x00\n        /* \"@openzeppelin/contracts/token/ERC1155/ERC1155.sol\":6234:6262  values.unsafeMemoryAccess(0) */\n      tag_238\n        /* \"@openzeppelin/contracts/token/ERC1155/ERC1155.sol\":6260:6261  0 */\n      0x00\n        /* \"@openzeppelin/contracts/token/ERC1155/ERC1155.sol\":6234:6240  values */\n      dup6\n        /* \"@openzeppelin/contracts/token/ERC1155/ERC1155.sol\":6234:6259  values.unsafeMemoryAccess */\n      tag_127\n      swap1\n        /* \"@openzeppelin/contracts/token/ERC1155/ERC1155.sol\":6234:6262  values.unsafeMemoryAccess(0) */\n      swap2\n      swap1\n      0xffffffff\n      and\n      jump\t// in\n    tag_238:\n        /* \"@openzeppelin/contracts/token/ERC1155/ERC1155.sol\":6218:6262  uint256 value = values.unsafeMemoryAccess(0) */\n      swap1\n      pop\n        /* \"@openzeppelin/contracts/token/ERC1155/ERC1155.sol\":6312:6314  to */\n      dup6\n        /* \"@openzeppelin/contracts/token/ERC1155/ERC1155.sol\":6281:6326  TransferSingle(operator, from, to, id, value) */\n      0xffffffffffffffffffffffffffffffffffffffff\n      and\n        /* \"@openzeppelin/contracts/token/ERC1155/ERC1155.sol\":6306:6310  from */\n      dup8\n        /* \"@openzeppelin/contracts/token/ERC1155/ERC1155.sol\":6281:6326  TransferSingle(operator, from, to, id, value) */\n      0xffffffffffffffffffffffffffffffffffffffff\n      and\n        /* \"@openzeppelin/contracts/token/ERC1155/ERC1155.sol\":6296:6304  operator */\n      dup5\n        /* \"@openzeppelin/contracts/token/ERC1155/ERC1155.sol\":6281:6326  TransferSingle(operator, from, to, id, value) */\n      0xffffffffffffffffffffffffffffffffffffffff\n      and\n      0xc3d58168c5ae7397731d063d5bbf3d657854427343f4c083240f7aacaa2d0f62\n        /* \"@openzeppelin/contracts/token/ERC1155/ERC1155.sol\":6316:6318  id */\n      dup6\n        /* \"@openzeppelin/contracts/token/ERC1155/ERC1155.sol\":6320:6325  value */\n      dup6\n        /* \"@openzeppelin/contracts/token/ERC1155/ERC1155.sol\":6281:6326  TransferSingle(operator, from, to, id, value) */\n      mload(0x40)\n      tag_239\n      swap3\n      swap2\n      swap1\n      tag_115\n      jump\t// in\n    tag_239:\n      mload(0x40)\n      dup1\n      swap2\n      sub\n      swap1\n      log4\n        /* \"@openzeppelin/contracts/token/ERC1155/ERC1155.sol\":6152:6337  {... */\n      pop\n      pop\n        /* \"@openzeppelin/contracts/token/ERC1155/ERC1155.sol\":6131:6419  if (ids.length == 1) {... */\n      jump(tag_240)\n    tag_236:\n        /* \"@openzeppelin/contracts/token/ERC1155/ERC1155.sol\":6392:6394  to */\n      dup4\n        /* \"@openzeppelin/contracts/token/ERC1155/ERC1155.sol\":6362:6408  TransferBatch(operator, from, to, ids, values) */\n      0xffffffffffffffffffffffffffffffffffffffff\n      and\n        /* \"@openzeppelin/contracts/token/ERC1155/ERC1155.sol\":6386:6390  from */\n      dup6\n        /* \"@openzeppelin/contracts/token/ERC1155/ERC1155.sol\":6362:6408  TransferBatch(operator, from, to, ids, values) */\n      0xffffffffffffffffffffffffffffffffffffffff\n      and\n        /* \"@openzeppelin/contracts/token/ERC1155/ERC1155.sol\":6376:6384  operator */\n      dup3\n        /* \"@openzeppelin/contracts/token/ERC1155/ERC1155.sol\":6362:6408  TransferBatch(operator, from, to, ids, values) */\n      0xffffffffffffffffffffffffffffffffffffffff\n      and\n      0x4a39dc06d4c0dbc64b70af90fd698a233a518aa5d07e595d983b8c0526c8f7fb\n        /* \"@openzeppelin/contracts/token/ERC1155/ERC1155.sol\":6396:6399  ids */\n      dup7\n        /* \"@openzeppelin/contracts/token/ERC1155/ERC1155.sol\":6401:6407  values */\n      dup7\n        /* \"@openzeppelin/contracts/token/ERC1155/ERC1155.sol\":6362:6408  TransferBatch(operator, from, to, ids, values) */\n      mload(0x40)\n      tag_241\n      swap3\n      swap2\n      swap1\n      tag_242\n      jump\t// in\n    tag_241:\n      mload(0x40)\n      dup1\n      swap2\n      sub\n      swap1\n      log4\n        /* \"@openzeppelin/contracts/token/ERC1155/ERC1155.sol\":6131:6419  if (ids.length == 1) {... */\n    tag_240:\n        /* \"@openzeppelin/contracts/token/ERC1155/ERC1155.sol\":5251:6425  {... */\n      pop\n        /* \"@openzeppelin/contracts/token/ERC1155/ERC1155.sol\":5144:6425  function _update(address from, address to, uint256[] memory ids, uint256[] memory values) internal virtual {... */\n      pop\n      pop\n      pop\n      pop\n      jump\t// out\n        /* \"@openzeppelin/contracts/token/ERC1155/ERC1155.sol\":13761:14735  function _doSafeTransferAcceptanceCheck(... */\n    tag_215:\n        /* \"@openzeppelin/contracts/token/ERC1155/ERC1155.sol\":13984:13985  0 */\n      0x00\n        /* \"@openzeppelin/contracts/token/ERC1155/ERC1155.sol\":13967:13969  to */\n      dup5\n        /* \"@openzeppelin/contracts/token/ERC1155/ERC1155.sol\":13967:13981  to.code.length */\n      0xffffffffffffffffffffffffffffffffffffffff\n      and\n      extcodesize\n        /* \"@openzeppelin/contracts/token/ERC1155/ERC1155.sol\":13967:13985  to.code.length > 0 */\n      gt\n        /* \"@openzeppelin/contracts/token/ERC1155/ERC1155.sol\":13963:14729  if (to.code.length > 0) {... */\n      iszero\n      tag_244\n      jumpi\n        /* \"@openzeppelin/contracts/token/ERC1155/ERC1155.sol\":14022:14024  to */\n      dup4\n        /* \"@openzeppelin/contracts/token/ERC1155/ERC1155.sol\":14005:14043  IERC1155Receiver(to).onERC1155Received */\n      0xffffffffffffffffffffffffffffffffffffffff\n      and\n      0xf23a6e61\n        /* \"@openzeppelin/contracts/token/ERC1155/ERC1155.sol\":14044:14052  operator */\n      dup8\n        /* \"@openzeppelin/contracts/token/ERC1155/ERC1155.sol\":14054:14058  from */\n      dup8\n        /* \"@openzeppelin/contracts/token/ERC1155/ERC1155.sol\":14060:14062  id */\n      dup7\n        /* \"@openzeppelin/contracts/token/ERC1155/ERC1155.sol\":14064:14069  value */\n      dup7\n        /* \"@openzeppelin/contracts/token/ERC1155/ERC1155.sol\":14071:14075  data */\n      dup7\n        /* \"@openzeppelin/contracts/token/ERC1155/ERC1155.sol\":14005:14076  IERC1155Receiver(to).onERC1155Received(operator, from, id, value, data) */\n      mload(0x40)\n      dup7\n      0xffffffff\n      and\n      0xe0\n      shl\n      dup2\n      mstore\n      0x04\n      add\n      tag_245\n      swap6\n      swap5\n      swap4\n      swap3\n      swap2\n      swap1\n      tag_246\n      jump\t// in\n    tag_245:\n      0x20\n      mload(0x40)\n      dup1\n      dup4\n      sub\n      dup2\n      0x00\n      dup8\n      gas\n      call\n      swap3\n      pop\n      pop\n      pop\n      dup1\n      iszero\n      tag_247\n      jumpi\n      pop\n      mload(0x40)\n      returndatasize\n      not(0x1f)\n      0x1f\n      dup3\n      add\n      and\n      dup3\n      add\n      dup1\n      0x40\n      mstore\n      pop\n      dup2\n      add\n      swap1\n      tag_248\n      swap2\n      swap1\n      tag_249\n      jump\t// in\n    tag_248:\n      0x01\n    tag_247:\n        /* \"@openzeppelin/contracts/token/ERC1155/ERC1155.sol\":14001:14719  try IERC1155Receiver(to).onERC1155Received(operator, from, id, value, data) returns (bytes4 response) {... */\n      tag_250\n      jumpi\n      returndatasize\n      dup1\n      0x00\n      dup2\n      eq\n      tag_255\n      jumpi\n      mload(0x40)\n      swap2\n      pop\n      and(add(returndatasize, 0x3f), not(0x1f))\n      dup3\n      add\n      0x40\n      mstore\n      returndatasize\n      dup3\n      mstore\n      returndatasize\n      0x00\n      0x20\n      dup5\n      add\n      returndatacopy\n      jump(tag_254)\n    tag_255:\n      0x60\n      swap2\n      pop\n    tag_254:\n      pop\n        /* \"@openzeppelin/contracts/token/ERC1155/ERC1155.sol\":14377:14378  0 */\n      0x00\n        /* \"@openzeppelin/contracts/token/ERC1155/ERC1155.sol\":14360:14366  reason */\n      dup2\n        /* \"@openzeppelin/contracts/token/ERC1155/ERC1155.sol\":14360:14373  reason.length */\n      mload\n        /* \"@openzeppelin/contracts/token/ERC1155/ERC1155.sol\":14360:14378  reason.length == 0 */\n      sub\n        /* \"@openzeppelin/contracts/token/ERC1155/ERC1155.sol\":14356:14705  if (reason.length == 0) {... */\n      tag_256\n      jumpi\n        /* \"@openzeppelin/contracts/token/ERC1155/ERC1155.sol\":14487:14489  to */\n      dup5\n        /* \"@openzeppelin/contracts/token/ERC1155/ERC1155.sol\":14464:14490  ERC1155InvalidReceiver(to) */\n      mload(0x40)\n      0x57f447ce00000000000000000000000000000000000000000000000000000000\n      dup2\n      mstore\n      0x04\n      add\n      tag_257\n      swap2\n      swap1\n      tag_65\n      jump\t// in\n    tag_257:\n      mload(0x40)\n      dup1\n      swap2\n      sub\n      swap1\n      revert\n        /* \"@openzeppelin/contracts/token/ERC1155/ERC1155.sol\":14356:14705  if (reason.length == 0) {... */\n    tag_256:\n        /* \"@openzeppelin/contracts/token/ERC1155/ERC1155.sol\":14657:14663  reason */\n      dup1\n        /* \"@openzeppelin/contracts/token/ERC1155/ERC1155.sol\":14651:14664  mload(reason) */\n      mload\n        /* \"@openzeppelin/contracts/token/ERC1155/ERC1155.sol\":14642:14648  reason */\n      dup2\n        /* \"@openzeppelin/contracts/token/ERC1155/ERC1155.sol\":14638:14640  32 */\n      0x20\n        /* \"@openzeppelin/contracts/token/ERC1155/ERC1155.sol\":14634:14649  add(32, reason) */\n      add\n        /* \"@openzeppelin/contracts/token/ERC1155/ERC1155.sol\":14627:14665  revert(add(32, reason), mload(reason)) */\n      revert\n        /* \"@openzeppelin/contracts/token/ERC1155/ERC1155.sol\":14001:14719  try IERC1155Receiver(to).onERC1155Received(operator, from, id, value, data) returns (bytes4 response) {... */\n    tag_250:\n        /* \"@openzeppelin/contracts/token/ERC1155/ERC1155.sol\":14137:14180  IERC1155Receiver.onERC1155Received.selector */\n      shl(0xe0, 0xf23a6e61)\n        /* \"@openzeppelin/contracts/token/ERC1155/ERC1155.sol\":14125:14180  response != IERC1155Receiver.onERC1155Received.selector */\n      not(0xffffffffffffffffffffffffffffffffffffffffffffffffffffffff)\n      and\n        /* \"@openzeppelin/contracts/token/ERC1155/ERC1155.sol\":14125:14133  response */\n      dup2\n        /* \"@openzeppelin/contracts/token/ERC1155/ERC1155.sol\":14125:14180  response != IERC1155Receiver.onERC1155Received.selector */\n      not(0xffffffffffffffffffffffffffffffffffffffffffffffffffffffff)\n      and\n      eq\n        /* \"@openzeppelin/contracts/token/ERC1155/ERC1155.sol\":14121:14295  if (response != IERC1155Receiver.onERC1155Received.selector) {... */\n      tag_260\n      jumpi\n        /* \"@openzeppelin/contracts/token/ERC1155/ERC1155.sol\":14273:14275  to */\n      dup5\n        /* \"@openzeppelin/contracts/token/ERC1155/ERC1155.sol\":14250:14276  ERC1155InvalidReceiver(to) */\n      mload(0x40)\n      0x57f447ce00000000000000000000000000000000000000000000000000000000\n      dup2\n      mstore\n      0x04\n      add\n      tag_261\n      swap2\n      swap1\n      tag_65\n      jump\t// in\n    tag_261:\n      mload(0x40)\n      dup1\n      swap2\n      sub\n      swap1\n      revert\n        /* \"@openzeppelin/contracts/token/ERC1155/ERC1155.sol\":14121:14295  if (response != IERC1155Receiver.onERC1155Received.selector) {... */\n    tag_260:\n        /* \"@openzeppelin/contracts/token/ERC1155/ERC1155.sol\":14077:14309  returns (bytes4 response) {... */\n      pop\n        /* \"@openzeppelin/contracts/token/ERC1155/ERC1155.sol\":13963:14729  if (to.code.length > 0) {... */\n    tag_244:\n        /* \"@openzeppelin/contracts/token/ERC1155/ERC1155.sol\":13761:14735  function _doSafeTransferAcceptanceCheck(... */\n      pop\n      pop\n      pop\n      pop\n      pop\n      pop\n      jump\t// out\n        /* \"@openzeppelin/contracts/token/ERC1155/ERC1155.sol\":14923:15964  function _doSafeBatchTransferAcceptanceCheck(... */\n    tag_218:\n        /* \"@openzeppelin/contracts/token/ERC1155/ERC1155.sol\":15171:15172  0 */\n      0x00\n        /* \"@openzeppelin/contracts/token/ERC1155/ERC1155.sol\":15154:15156  to */\n      dup5\n        /* \"@openzeppelin/contracts/token/ERC1155/ERC1155.sol\":15154:15168  to.code.length */\n      0xffffffffffffffffffffffffffffffffffffffff\n      and\n      extcodesize\n        /* \"@openzeppelin/contracts/token/ERC1155/ERC1155.sol\":15154:15172  to.code.length > 0 */\n      gt\n        /* \"@openzeppelin/contracts/token/ERC1155/ERC1155.sol\":15150:15958  if (to.code.length > 0) {... */\n      iszero\n      tag_263\n      jumpi\n        /* \"@openzeppelin/contracts/token/ERC1155/ERC1155.sol\":15209:15211  to */\n      dup4\n        /* \"@openzeppelin/contracts/token/ERC1155/ERC1155.sol\":15192:15235  IERC1155Receiver(to).onERC1155BatchReceived */\n      0xffffffffffffffffffffffffffffffffffffffff\n      and\n      0xbc197c81\n        /* \"@openzeppelin/contracts/token/ERC1155/ERC1155.sol\":15236:15244  operator */\n      dup8\n        /* \"@openzeppelin/contracts/token/ERC1155/ERC1155.sol\":15246:15250  from */\n      dup8\n        /* \"@openzeppelin/contracts/token/ERC1155/ERC1155.sol\":15252:15255  ids */\n      dup7\n        /* \"@openzeppelin/contracts/token/ERC1155/ERC1155.sol\":15257:15263  values */\n      dup7\n        /* \"@openzeppelin/contracts/token/ERC1155/ERC1155.sol\":15265:15269  data */\n      dup7\n        /* \"@openzeppelin/contracts/token/ERC1155/ERC1155.sol\":15192:15270  IERC1155Receiver(to).onERC1155BatchReceived(operator, from, ids, values, data) */\n      mload(0x40)\n      dup7\n      0xffffffff\n      and\n      0xe0\n      shl\n      dup2\n      mstore\n      0x04\n      add\n      tag_264\n      swap6\n      swap5\n      swap4\n      swap3\n      swap2\n      swap1\n      tag_265\n      jump\t// in\n    tag_264:\n      0x20\n      mload(0x40)\n      dup1\n      dup4\n      sub\n      dup2\n      0x00\n      dup8\n      gas\n      call\n      swap3\n      pop\n      pop\n      pop\n      dup1\n      iszero\n      tag_266\n      jumpi\n      pop\n      mload(0x40)\n      returndatasize\n      not(0x1f)\n      0x1f\n      dup3\n      add\n      and\n      dup3\n      add\n      dup1\n      0x40\n      mstore\n      pop\n      dup2\n      add\n      swap1\n      tag_267\n      swap2\n      swap1\n      tag_249\n      jump\t// in\n    tag_267:\n      0x01\n    tag_266:\n        /* \"@openzeppelin/contracts/token/ERC1155/ERC1155.sol\":15188:15948  try IERC1155Receiver(to).onERC1155BatchReceived(operator, from, ids, values, data) returns (... */\n      tag_268\n      jumpi\n      returndatasize\n      dup1\n      0x00\n      dup2\n      eq\n      tag_273\n      jumpi\n      mload(0x40)\n      swap2\n      pop\n      and(add(returndatasize, 0x3f), not(0x1f))\n      dup3\n      add\n      0x40\n      mstore\n      returndatasize\n      dup3\n      mstore\n      returndatasize\n      0x00\n      0x20\n      dup5\n      add\n      returndatacopy\n      jump(tag_272)\n    tag_273:\n      0x60\n      swap2\n      pop\n    tag_272:\n      pop\n        /* \"@openzeppelin/contracts/token/ERC1155/ERC1155.sol\":15606:15607  0 */\n      0x00\n        /* \"@openzeppelin/contracts/token/ERC1155/ERC1155.sol\":15589:15595  reason */\n      dup2\n        /* \"@openzeppelin/contracts/token/ERC1155/ERC1155.sol\":15589:15602  reason.length */\n      mload\n        /* \"@openzeppelin/contracts/token/ERC1155/ERC1155.sol\":15589:15607  reason.length == 0 */\n      sub\n        /* \"@openzeppelin/contracts/token/ERC1155/ERC1155.sol\":15585:15934  if (reason.length == 0) {... */\n      tag_274\n      jumpi\n        /* \"@openzeppelin/contracts/token/ERC1155/ERC1155.sol\":15716:15718  to */\n      dup5\n        /* \"@openzeppelin/contracts/token/ERC1155/ERC1155.sol\":15693:15719  ERC1155InvalidReceiver(to) */\n      mload(0x40)\n      0x57f447ce00000000000000000000000000000000000000000000000000000000\n      dup2\n      mstore\n      0x04\n      add\n      tag_275\n      swap2\n      swap1\n      tag_65\n      jump\t// in\n    tag_275:\n      mload(0x40)\n      dup1\n      swap2\n      sub\n      swap1\n      revert\n        /* \"@openzeppelin/contracts/token/ERC1155/ERC1155.sol\":15585:15934  if (reason.length == 0) {... */\n    tag_274:\n        /* \"@openzeppelin/contracts/token/ERC1155/ERC1155.sol\":15886:15892  reason */\n      dup1\n        /* \"@openzeppelin/contracts/token/ERC1155/ERC1155.sol\":15880:15893  mload(reason) */\n      mload\n        /* \"@openzeppelin/contracts/token/ERC1155/ERC1155.sol\":15871:15877  reason */\n      dup2\n        /* \"@openzeppelin/contracts/token/ERC1155/ERC1155.sol\":15867:15869  32 */\n      0x20\n        /* \"@openzeppelin/contracts/token/ERC1155/ERC1155.sol\":15863:15878  add(32, reason) */\n      add\n        /* \"@openzeppelin/contracts/token/ERC1155/ERC1155.sol\":15856:15894  revert(add(32, reason), mload(reason)) */\n      revert\n        /* \"@openzeppelin/contracts/token/ERC1155/ERC1155.sol\":15188:15948  try IERC1155Receiver(to).onERC1155BatchReceived(operator, from, ids, values, data) returns (... */\n    tag_268:\n        /* \"@openzeppelin/contracts/token/ERC1155/ERC1155.sol\":15361:15409  IERC1155Receiver.onERC1155BatchReceived.selector */\n      shl(0xe0, 0xbc197c81)\n        /* \"@openzeppelin/contracts/token/ERC1155/ERC1155.sol\":15349:15409  response != IERC1155Receiver.onERC1155BatchReceived.selector */\n      not(0xffffffffffffffffffffffffffffffffffffffffffffffffffffffff)\n      and\n        /* \"@openzeppelin/contracts/token/ERC1155/ERC1155.sol\":15349:15357  response */\n      dup2\n        /* \"@openzeppelin/contracts/token/ERC1155/ERC1155.sol\":15349:15409  response != IERC1155Receiver.onERC1155BatchReceived.selector */\n      not(0xffffffffffffffffffffffffffffffffffffffffffffffffffffffff)\n      and\n      eq\n        /* \"@openzeppelin/contracts/token/ERC1155/ERC1155.sol\":15345:15524  if (response != IERC1155Receiver.onERC1155BatchReceived.selector) {... */\n      tag_278\n      jumpi\n        /* \"@openzeppelin/contracts/token/ERC1155/ERC1155.sol\":15502:15504  to */\n      dup5\n        /* \"@openzeppelin/contracts/token/ERC1155/ERC1155.sol\":15479:15505  ERC1155InvalidReceiver(to) */\n      mload(0x40)\n      0x57f447ce00000000000000000000000000000000000000000000000000000000\n      dup2\n      mstore\n      0x04\n      add\n      tag_279\n      swap2\n      swap1\n      tag_65\n      jump\t// in\n    tag_279:\n      mload(0x40)\n      dup1\n      swap2\n      sub\n      swap1\n      revert\n        /* \"@openzeppelin/contracts/token/ERC1155/ERC1155.sol\":15345:15524  if (response != IERC1155Receiver.onERC1155BatchReceived.selector) {... */\n    tag_278:\n        /* \"@openzeppelin/contracts/token/ERC1155/ERC1155.sol\":15271:15538  returns (... */\n      pop\n        /* \"@openzeppelin/contracts/token/ERC1155/ERC1155.sol\":15150:15958  if (to.code.length > 0) {... */\n    tag_263:\n        /* \"@openzeppelin/contracts/token/ERC1155/ERC1155.sol\":14923:15964  function _doSafeBatchTransferAcceptanceCheck(... */\n      pop\n      pop\n      pop\n      pop\n      pop\n      pop\n      jump\t// out\n        /* \"#utility.yul\":7:82   */\n    tag_280:\n        /* \"#utility.yul\":40:46   */\n      0x00\n        /* \"#utility.yul\":73:75   */\n      0x40\n        /* \"#utility.yul\":67:76   */\n      mload\n        /* \"#utility.yul\":57:76   */\n      swap1\n      pop\n        /* \"#utility.yul\":7:82   */\n      swap1\n      jump\t// out\n        /* \"#utility.yul\":88:205   */\n    tag_281:\n        /* \"#utility.yul\":197:198   */\n      0x00\n        /* \"#utility.yul\":194:195   */\n      dup1\n        /* \"#utility.yul\":187:199   */\n      revert\n        /* \"#utility.yul\":211:328   */\n    tag_282:\n        /* \"#utility.yul\":320:321   */\n      0x00\n        /* \"#utility.yul\":317:318   */\n      dup1\n        /* \"#utility.yul\":310:322   */\n      revert\n        /* \"#utility.yul\":334:460   */\n    tag_283:\n        /* \"#utility.yul\":371:378   */\n      0x00\n        /* \"#utility.yul\":411:453   */\n      0xffffffffffffffffffffffffffffffffffffffff\n        /* \"#utility.yul\":404:409   */\n      dup3\n        /* \"#utility.yul\":400:454   */\n      and\n        /* \"#utility.yul\":389:454   */\n      swap1\n      pop\n        /* \"#utility.yul\":334:460   */\n      swap2\n      swap1\n      pop\n      jump\t// out\n        /* \"#utility.yul\":466:562   */\n    tag_284:\n        /* \"#utility.yul\":503:510   */\n      0x00\n        /* \"#utility.yul\":532:556   */\n      tag_356\n        /* \"#utility.yul\":550:555   */\n      dup3\n        /* \"#utility.yul\":532:556   */\n      tag_283\n      jump\t// in\n    tag_356:\n        /* \"#utility.yul\":521:556   */\n      swap1\n      pop\n        /* \"#utility.yul\":466:562   */\n      swap2\n      swap1\n      pop\n      jump\t// out\n        /* \"#utility.yul\":568:690   */\n    tag_285:\n        /* \"#utility.yul\":641:665   */\n      tag_358\n        /* \"#utility.yul\":659:664   */\n      dup2\n        /* \"#utility.yul\":641:665   */\n      tag_284\n      jump\t// in\n    tag_358:\n        /* \"#utility.yul\":634:639   */\n      dup2\n        /* \"#utility.yul\":631:666   */\n      eq\n        /* \"#utility.yul\":621:684   */\n      tag_359\n      jumpi\n        /* \"#utility.yul\":680:681   */\n      0x00\n        /* \"#utility.yul\":677:678   */\n      dup1\n        /* \"#utility.yul\":670:682   */\n      revert\n        /* \"#utility.yul\":621:684   */\n    tag_359:\n        /* \"#utility.yul\":568:690   */\n      pop\n      jump\t// out\n        /* \"#utility.yul\":696:835   */\n    tag_286:\n        /* \"#utility.yul\":742:747   */\n      0x00\n        /* \"#utility.yul\":780:786   */\n      dup2\n        /* \"#utility.yul\":767:787   */\n      calldataload\n        /* \"#utility.yul\":758:787   */\n      swap1\n      pop\n        /* \"#utility.yul\":796:829   */\n      tag_361\n        /* \"#utility.yul\":823:828   */\n      dup2\n        /* \"#utility.yul\":796:829   */\n      tag_285\n      jump\t// in\n    tag_361:\n        /* \"#utility.yul\":696:835   */\n      swap3\n      swap2\n      pop\n      pop\n      jump\t// out\n        /* \"#utility.yul\":841:918   */\n    tag_287:\n        /* \"#utility.yul\":878:885   */\n      0x00\n        /* \"#utility.yul\":907:912   */\n      dup2\n        /* \"#utility.yul\":896:912   */\n      swap1\n      pop\n        /* \"#utility.yul\":841:918   */\n      swap2\n      swap1\n      pop\n      jump\t// out\n        /* \"#utility.yul\":924:1046   */\n    tag_288:\n        /* \"#utility.yul\":997:1021   */\n      tag_364\n        /* \"#utility.yul\":1015:1020   */\n      dup2\n        /* \"#utility.yul\":997:1021   */\n      tag_287\n      jump\t// in\n    tag_364:\n        /* \"#utility.yul\":990:995   */\n      dup2\n        /* \"#utility.yul\":987:1022   */\n      eq\n        /* \"#utility.yul\":977:1040   */\n      tag_365\n      jumpi\n        /* \"#utility.yul\":1036:1037   */\n      0x00\n        /* \"#utility.yul\":1033:1034   */\n      dup1\n        /* \"#utility.yul\":1026:1038   */\n      revert\n        /* \"#utility.yul\":977:1040   */\n    tag_365:\n        /* \"#utility.yul\":924:1046   */\n      pop\n      jump\t// out\n        /* \"#utility.yul\":1052:1191   */\n    tag_289:\n        /* \"#utility.yul\":1098:1103   */\n      0x00\n        /* \"#utility.yul\":1136:1142   */\n      dup2\n        /* \"#utility.yul\":1123:1143   */\n      calldataload\n        /* \"#utility.yul\":1114:1143   */\n      swap1\n      pop\n        /* \"#utility.yul\":1152:1185   */\n      tag_367\n        /* \"#utility.yul\":1179:1184   */\n      dup2\n        /* \"#utility.yul\":1152:1185   */\n      tag_288\n      jump\t// in\n    tag_367:\n        /* \"#utility.yul\":1052:1191   */\n      swap3\n      swap2\n      pop\n      pop\n      jump\t// out\n        /* \"#utility.yul\":1197:1671   */\n    tag_23:\n        /* \"#utility.yul\":1265:1271   */\n      0x00\n        /* \"#utility.yul\":1273:1279   */\n      dup1\n        /* \"#utility.yul\":1322:1324   */\n      0x40\n        /* \"#utility.yul\":1310:1319   */\n      dup4\n        /* \"#utility.yul\":1301:1308   */\n      dup6\n        /* \"#utility.yul\":1297:1320   */\n      sub\n        /* \"#utility.yul\":1293:1325   */\n      slt\n        /* \"#utility.yul\":1290:1409   */\n      iszero\n      tag_369\n      jumpi\n        /* \"#utility.yul\":1328:1407   */\n      tag_370\n      tag_281\n      jump\t// in\n    tag_370:\n        /* \"#utility.yul\":1290:1409   */\n    tag_369:\n        /* \"#utility.yul\":1448:1449   */\n      0x00\n        /* \"#utility.yul\":1473:1526   */\n      tag_371\n        /* \"#utility.yul\":1518:1525   */\n      dup6\n        /* \"#utility.yul\":1509:1515   */\n      dup3\n        /* \"#utility.yul\":1498:1507   */\n      dup7\n        /* \"#utility.yul\":1494:1516   */\n      add\n        /* \"#utility.yul\":1473:1526   */\n      tag_286\n      jump\t// in\n    tag_371:\n        /* \"#utility.yul\":1463:1526   */\n      swap3\n      pop\n        /* \"#utility.yul\":1419:1536   */\n      pop\n        /* \"#utility.yul\":1575:1577   */\n      0x20\n        /* \"#utility.yul\":1601:1654   */\n      tag_372\n        /* \"#utility.yul\":1646:1653   */\n      dup6\n        /* \"#utility.yul\":1637:1643   */\n      dup3\n        /* \"#utility.yul\":1626:1635   */\n      dup7\n        /* \"#utility.yul\":1622:1644   */\n      add\n        /* \"#utility.yul\":1601:1654   */\n      tag_289\n      jump\t// in\n    tag_372:\n        /* \"#utility.yul\":1591:1654   */\n      swap2\n      pop\n        /* \"#utility.yul\":1546:1664   */\n      pop\n        /* \"#utility.yul\":1197:1671   */\n      swap3\n      pop\n      swap3\n      swap1\n      pop\n      jump\t// out\n        /* \"#utility.yul\":1677:1795   */\n    tag_290:\n        /* \"#utility.yul\":1764:1788   */\n      tag_374\n        /* \"#utility.yul\":1782:1787   */\n      dup2\n        /* \"#utility.yul\":1764:1788   */\n      tag_287\n      jump\t// in\n    tag_374:\n        /* \"#utility.yul\":1759:1762   */\n      dup3\n        /* \"#utility.yul\":1752:1789   */\n      mstore\n        /* \"#utility.yul\":1677:1795   */\n      pop\n      pop\n      jump\t// out\n        /* \"#utility.yul\":1801:2023   */\n    tag_26:\n        /* \"#utility.yul\":1894:1898   */\n      0x00\n        /* \"#utility.yul\":1932:1934   */\n      0x20\n        /* \"#utility.yul\":1921:1930   */\n      dup3\n        /* \"#utility.yul\":1917:1935   */\n      add\n        /* \"#utility.yul\":1909:1935   */\n      swap1\n      pop\n        /* \"#utility.yul\":1945:2016   */\n      tag_376\n        /* \"#utility.yul\":2013:2014   */\n      0x00\n        /* \"#utility.yul\":2002:2011   */\n      dup4\n        /* \"#utility.yul\":1998:2015   */\n      add\n        /* \"#utility.yul\":1989:1995   */\n      dup5\n        /* \"#utility.yul\":1945:2016   */\n      tag_290\n      jump\t// in\n    tag_376:\n        /* \"#utility.yul\":1801:2023   */\n      swap3\n      swap2\n      pop\n      pop\n      jump\t// out\n        /* \"#utility.yul\":2029:2178   */\n    tag_291:\n        /* \"#utility.yul\":2065:2072   */\n      0x00\n        /* \"#utility.yul\":2105:2171   */\n      0xffffffff00000000000000000000000000000000000000000000000000000000\n        /* \"#utility.yul\":2098:2103   */\n      dup3\n        /* \"#utility.yul\":2094:2172   */\n      and\n        /* \"#utility.yul\":2083:2172   */\n      swap1\n      pop\n        /* \"#utility.yul\":2029:2178   */\n      swap2\n      swap1\n      pop\n      jump\t// out\n        /* \"#utility.yul\":2184:2304   */\n    tag_292:\n        /* \"#utility.yul\":2256:2279   */\n      tag_379\n        /* \"#utility.yul\":2273:2278   */\n      dup2\n        /* \"#utility.yul\":2256:2279   */\n      tag_291\n      jump\t// in\n    tag_379:\n        /* \"#utility.yul\":2249:2254   */\n      dup2\n        /* \"#utility.yul\":2246:2280   */\n      eq\n        /* \"#utility.yul\":2236:2298   */\n      tag_380\n      jumpi\n        /* \"#utility.yul\":2294:2295   */\n      0x00\n        /* \"#utility.yul\":2291:2292   */\n      dup1\n        /* \"#utility.yul\":2284:2296   */\n      revert\n        /* \"#utility.yul\":2236:2298   */\n    tag_380:\n        /* \"#utility.yul\":2184:2304   */\n      pop\n      jump\t// out\n        /* \"#utility.yul\":2310:2447   */\n    tag_293:\n        /* \"#utility.yul\":2355:2360   */\n      0x00\n        /* \"#utility.yul\":2393:2399   */\n      dup2\n        /* \"#utility.yul\":2380:2400   */\n      calldataload\n        /* \"#utility.yul\":2371:2400   */\n      swap1\n      pop\n        /* \"#utility.yul\":2409:2441   */\n      tag_382\n        /* \"#utility.yul\":2435:2440   */\n      dup2\n        /* \"#utility.yul\":2409:2441   */\n      tag_292\n      jump\t// in\n    tag_382:\n        /* \"#utility.yul\":2310:2447   */\n      swap3\n      swap2\n      pop\n      pop\n      jump\t// out\n        /* \"#utility.yul\":2453:2780   */\n    tag_29:\n        /* \"#utility.yul\":2511:2517   */\n      0x00\n        /* \"#utility.yul\":2560:2562   */\n      0x20\n        /* \"#utility.yul\":2548:2557   */\n      dup3\n        /* \"#utility.yul\":2539:2546   */\n      dup5\n        /* \"#utility.yul\":2535:2558   */\n      sub\n        /* \"#utility.yul\":2531:2563   */\n      slt\n        /* \"#utility.yul\":2528:2647   */\n      iszero\n      tag_384\n      jumpi\n        /* \"#utility.yul\":2566:2645   */\n      tag_385\n      tag_281\n      jump\t// in\n    tag_385:\n        /* \"#utility.yul\":2528:2647   */\n    tag_384:\n        /* \"#utility.yul\":2686:2687   */\n      0x00\n        /* \"#utility.yul\":2711:2763   */\n      tag_386\n        /* \"#utility.yul\":2755:2762   */\n      dup5\n        /* \"#utility.yul\":2746:2752   */\n      dup3\n        /* \"#utility.yul\":2735:2744   */\n      dup6\n        /* \"#utility.yul\":2731:2753   */\n      add\n        /* \"#utility.yul\":2711:2763   */\n      tag_293\n      jump\t// in\n    tag_386:\n        /* \"#utility.yul\":2701:2763   */\n      swap2\n      pop\n        /* \"#utility.yul\":2657:2773   */\n      pop\n        /* \"#utility.yul\":2453:2780   */\n      swap3\n      swap2\n      pop\n      pop\n      jump\t// out\n        /* \"#utility.yul\":2786:2876   */\n    tag_294:\n        /* \"#utility.yul\":2820:2827   */\n      0x00\n        /* \"#utility.yul\":2863:2868   */\n      dup2\n        /* \"#utility.yul\":2856:2869   */\n      iszero\n        /* \"#utility.yul\":2849:2870   */\n      iszero\n        /* \"#utility.yul\":2838:2870   */\n      swap1\n      pop\n        /* \"#utility.yul\":2786:2876   */\n      swap2\n      swap1\n      pop\n      jump\t// out\n        /* \"#utility.yul\":2882:2991   */\n    tag_295:\n        /* \"#utility.yul\":2963:2984   */\n      tag_389\n        /* \"#utility.yul\":2978:2983   */\n      dup2\n        /* \"#utility.yul\":2963:2984   */\n      tag_294\n      jump\t// in\n    tag_389:\n        /* \"#utility.yul\":2958:2961   */\n      dup3\n        /* \"#utility.yul\":2951:2985   */\n      mstore\n        /* \"#utility.yul\":2882:2991   */\n      pop\n      pop\n      jump\t// out\n        /* \"#utility.yul\":2997:3207   */\n    tag_32:\n        /* \"#utility.yul\":3084:3088   */\n      0x00\n        /* \"#utility.yul\":3122:3124   */\n      0x20\n        /* \"#utility.yul\":3111:3120   */\n      dup3\n        /* \"#utility.yul\":3107:3125   */\n      add\n        /* \"#utility.yul\":3099:3125   */\n      swap1\n      pop\n        /* \"#utility.yul\":3135:3200   */\n      tag_391\n        /* \"#utility.yul\":3197:3198   */\n      0x00\n        /* \"#utility.yul\":3186:3195   */\n      dup4\n        /* \"#utility.yul\":3182:3199   */\n      add\n        /* \"#utility.yul\":3173:3179   */\n      dup5\n        /* \"#utility.yul\":3135:3200   */\n      tag_295\n      jump\t// in\n    tag_391:\n        /* \"#utility.yul\":2997:3207   */\n      swap3\n      swap2\n      pop\n      pop\n      jump\t// out\n        /* \"#utility.yul\":3213:3542   */\n    tag_35:\n        /* \"#utility.yul\":3272:3278   */\n      0x00\n        /* \"#utility.yul\":3321:3323   */\n      0x20\n        /* \"#utility.yul\":3309:3318   */\n      dup3\n        /* \"#utility.yul\":3300:3307   */\n      dup5\n        /* \"#utility.yul\":3296:3319   */\n      sub\n        /* \"#utility.yul\":3292:3324   */\n      slt\n        /* \"#utility.yul\":3289:3408   */\n      iszero\n      tag_393\n      jumpi\n        /* \"#utility.yul\":3327:3406   */\n      tag_394\n      tag_281\n      jump\t// in\n    tag_394:\n        /* \"#utility.yul\":3289:3408   */\n    tag_393:\n        /* \"#utility.yul\":3447:3448   */\n      0x00\n        /* \"#utility.yul\":3472:3525   */\n      tag_395\n        /* \"#utility.yul\":3517:3524   */\n      dup5\n        /* \"#utility.yul\":3508:3514   */\n      dup3\n        /* \"#utility.yul\":3497:3506   */\n      dup6\n        /* \"#utility.yul\":3493:3515   */\n      add\n        /* \"#utility.yul\":3472:3525   */\n      tag_289\n      jump\t// in\n    tag_395:\n        /* \"#utility.yul\":3462:3525   */\n      swap2\n      pop\n        /* \"#utility.yul\":3418:3535   */\n      pop\n        /* \"#utility.yul\":3213:3542   */\n      swap3\n      swap2\n      pop\n      pop\n      jump\t// out\n        /* \"#utility.yul\":3548:3647   */\n    tag_296:\n        /* \"#utility.yul\":3600:3606   */\n      0x00\n        /* \"#utility.yul\":3634:3639   */\n      dup2\n        /* \"#utility.yul\":3628:3640   */\n      mload\n        /* \"#utility.yul\":3618:3640   */\n      swap1\n      pop\n        /* \"#utility.yul\":3548:3647   */\n      swap2\n      swap1\n      pop\n      jump\t// out\n        /* \"#utility.yul\":3653:3822   */\n    tag_297:\n        /* \"#utility.yul\":3737:3748   */\n      0x00\n        /* \"#utility.yul\":3771:3777   */\n      dup3\n        /* \"#utility.yul\":3766:3769   */\n      dup3\n        /* \"#utility.yul\":3759:3778   */\n      mstore\n        /* \"#utility.yul\":3811:3815   */\n      0x20\n        /* \"#utility.yul\":3806:3809   */\n      dup3\n        /* \"#utility.yul\":3802:3816   */\n      add\n        /* \"#utility.yul\":3787:3816   */\n      swap1\n      pop\n        /* \"#utility.yul\":3653:3822   */\n      swap3\n      swap2\n      pop\n      pop\n      jump\t// out\n        /* \"#utility.yul\":3828:3967   */\n    tag_298:\n        /* \"#utility.yul\":3917:3923   */\n      dup3\n        /* \"#utility.yul\":3912:3915   */\n      dup2\n        /* \"#utility.yul\":3907:3910   */\n      dup4\n        /* \"#utility.yul\":3901:3924   */\n      mcopy\n        /* \"#utility.yul\":3958:3959   */\n      0x00\n        /* \"#utility.yul\":3949:3955   */\n      dup4\n        /* \"#utility.yul\":3944:3947   */\n      dup4\n        /* \"#utility.yul\":3940:3956   */\n      add\n        /* \"#utility.yul\":3933:3960   */\n      mstore\n        /* \"#utility.yul\":3828:3967   */\n      pop\n      pop\n      pop\n      jump\t// out\n        /* \"#utility.yul\":3973:4075   */\n    tag_299:\n        /* \"#utility.yul\":4014:4020   */\n      0x00\n        /* \"#utility.yul\":4065:4067   */\n      0x1f\n        /* \"#utility.yul\":4061:4068   */\n      not\n        /* \"#utility.yul\":4056:4058   */\n      0x1f\n        /* \"#utility.yul\":4049:4054   */\n      dup4\n        /* \"#utility.yul\":4045:4059   */\n      add\n        /* \"#utility.yul\":4041:4069   */\n      and\n        /* \"#utility.yul\":4031:4069   */\n      swap1\n      pop\n        /* \"#utility.yul\":3973:4075   */\n      swap2\n      swap1\n      pop\n      jump\t// out\n        /* \"#utility.yul\":4081:4458   */\n    tag_300:\n        /* \"#utility.yul\":4169:4172   */\n      0x00\n        /* \"#utility.yul\":4197:4236   */\n      tag_401\n        /* \"#utility.yul\":4230:4235   */\n      dup3\n        /* \"#utility.yul\":4197:4236   */\n      tag_296\n      jump\t// in\n    tag_401:\n        /* \"#utility.yul\":4252:4323   */\n      tag_402\n        /* \"#utility.yul\":4316:4322   */\n      dup2\n        /* \"#utility.yul\":4311:4314   */\n      dup6\n        /* \"#utility.yul\":4252:4323   */\n      tag_297\n      jump\t// in\n    tag_402:\n        /* \"#utility.yul\":4245:4323   */\n      swap4\n      pop\n        /* \"#utility.yul\":4332:4397   */\n      tag_403\n        /* \"#utility.yul\":4390:4396   */\n      dup2\n        /* \"#utility.yul\":4385:4388   */\n      dup6\n        /* \"#utility.yul\":4378:4382   */\n      0x20\n        /* \"#utility.yul\":4371:4376   */\n      dup7\n        /* \"#utility.yul\":4367:4383   */\n      add\n        /* \"#utility.yul\":4332:4397   */\n      tag_298\n      jump\t// in\n    tag_403:\n        /* \"#utility.yul\":4422:4451   */\n      tag_404\n        /* \"#utility.yul\":4444:4450   */\n      dup2\n        /* \"#utility.yul\":4422:4451   */\n      tag_299\n      jump\t// in\n    tag_404:\n        /* \"#utility.yul\":4417:4420   */\n      dup5\n        /* \"#utility.yul\":4413:4452   */\n      add\n        /* \"#utility.yul\":4406:4452   */\n      swap2\n      pop\n        /* \"#utility.yul\":4173:4458   */\n      pop\n        /* \"#utility.yul\":4081:4458   */\n      swap3\n      swap2\n      pop\n      pop\n      jump\t// out\n        /* \"#utility.yul\":4464:4777   */\n    tag_38:\n        /* \"#utility.yul\":4577:4581   */\n      0x00\n        /* \"#utility.yul\":4615:4617   */\n      0x20\n        /* \"#utility.yul\":4604:4613   */\n      dup3\n        /* \"#utility.yul\":4600:4618   */\n      add\n        /* \"#utility.yul\":4592:4618   */\n      swap1\n      pop\n        /* \"#utility.yul\":4664:4673   */\n      dup2\n        /* \"#utility.yul\":4658:4662   */\n      dup2\n        /* \"#utility.yul\":4654:4674   */\n      sub\n        /* \"#utility.yul\":4650:4651   */\n      0x00\n        /* \"#utility.yul\":4639:4648   */\n      dup4\n        /* \"#utility.yul\":4635:4652   */\n      add\n        /* \"#utility.yul\":4628:4675   */\n      mstore\n        /* \"#utility.yul\":4692:4770   */\n      tag_406\n        /* \"#utility.yul\":4765:4769   */\n      dup2\n        /* \"#utility.yul\":4756:4762   */\n      dup5\n        /* \"#utility.yul\":4692:4770   */\n      tag_300\n      jump\t// in\n    tag_406:\n        /* \"#utility.yul\":4684:4770   */\n      swap1\n      pop\n        /* \"#utility.yul\":4464:4777   */\n      swap3\n      swap2\n      pop\n      pop\n      jump\t// out\n        /* \"#utility.yul\":4783:5548   */\n    tag_41:\n        /* \"#utility.yul\":4869:4875   */\n      0x00\n        /* \"#utility.yul\":4877:4883   */\n      dup1\n        /* \"#utility.yul\":4885:4891   */\n      0x00\n        /* \"#utility.yul\":4893:4899   */\n      dup1\n        /* \"#utility.yul\":4942:4945   */\n      0x80\n        /* \"#utility.yul\":4930:4939   */\n      dup6\n        /* \"#utility.yul\":4921:4928   */\n      dup8\n        /* \"#utility.yul\":4917:4940   */\n      sub\n        /* \"#utility.yul\":4913:4946   */\n      slt\n        /* \"#utility.yul\":4910:5030   */\n      iszero\n      tag_408\n      jumpi\n        /* \"#utility.yul\":4949:5028   */\n      tag_409\n      tag_281\n      jump\t// in\n    tag_409:\n        /* \"#utility.yul\":4910:5030   */\n    tag_408:\n        /* \"#utility.yul\":5069:5070   */\n      0x00\n        /* \"#utility.yul\":5094:5147   */\n      tag_410\n        /* \"#utility.yul\":5139:5146   */\n      dup8\n        /* \"#utility.yul\":5130:5136   */\n      dup3\n        /* \"#utility.yul\":5119:5128   */\n      dup9\n        /* \"#utility.yul\":5115:5137   */\n      add\n        /* \"#utility.yul\":5094:5147   */\n      tag_286\n      jump\t// in\n    tag_410:\n        /* \"#utility.yul\":5084:5147   */\n      swap5\n      pop\n        /* \"#utility.yul\":5040:5157   */\n      pop\n        /* \"#utility.yul\":5196:5198   */\n      0x20\n        /* \"#utility.yul\":5222:5275   */\n      tag_411\n        /* \"#utility.yul\":5267:5274   */\n      dup8\n        /* \"#utility.yul\":5258:5264   */\n      dup3\n        /* \"#utility.yul\":5247:5256   */\n      dup9\n        /* \"#utility.yul\":5243:5265   */\n      add\n        /* \"#utility.yul\":5222:5275   */\n      tag_286\n      jump\t// in\n    tag_411:\n        /* \"#utility.yul\":5212:5275   */\n      swap4\n      pop\n        /* \"#utility.yul\":5167:5285   */\n      pop\n        /* \"#utility.yul\":5324:5326   */\n      0x40\n        /* \"#utility.yul\":5350:5403   */\n      tag_412\n        /* \"#utility.yul\":5395:5402   */\n      dup8\n        /* \"#utility.yul\":5386:5392   */\n      dup3\n        /* \"#utility.yul\":5375:5384   */\n      dup9\n        /* \"#utility.yul\":5371:5393   */\n      add\n        /* \"#utility.yul\":5350:5403   */\n      tag_289\n      jump\t// in\n    tag_412:\n        /* \"#utility.yul\":5340:5403   */\n      swap3\n      pop\n        /* \"#utility.yul\":5295:5413   */\n      pop\n        /* \"#utility.yul\":5452:5454   */\n      0x60\n        /* \"#utility.yul\":5478:5531   */\n      tag_413\n        /* \"#utility.yul\":5523:5530   */\n      dup8\n        /* \"#utility.yul\":5514:5520   */\n      dup3\n        /* \"#utility.yul\":5503:5512   */\n      dup9\n        /* \"#utility.yul\":5499:5521   */\n      add\n        /* \"#utility.yul\":5478:5531   */\n      tag_289\n      jump\t// in\n    tag_413:\n        /* \"#utility.yul\":5468:5531   */\n      swap2\n      pop\n        /* \"#utility.yul\":5423:5541   */\n      pop\n        /* \"#utility.yul\":4783:5548   */\n      swap3\n      swap6\n      swap2\n      swap5\n      pop\n      swap3\n      pop\n      jump\t// out\n        /* \"#utility.yul\":5554:5671   */\n    tag_301:\n        /* \"#utility.yul\":5663:5664   */\n      0x00\n        /* \"#utility.yul\":5660:5661   */\n      dup1\n        /* \"#utility.yul\":5653:5665   */\n      revert\n        /* \"#utility.yul\":5677:5857   */\n    tag_118:\n        /* \"#utility.yul\":5725:5802   */\n      0x4e487b7100000000000000000000000000000000000000000000000000000000\n        /* \"#utility.yul\":5722:5723   */\n      0x00\n        /* \"#utility.yul\":5715:5803   */\n      mstore\n        /* \"#utility.yul\":5822:5826   */\n      0x41\n        /* \"#utility.yul\":5819:5820   */\n      0x04\n        /* \"#utility.yul\":5812:5827   */\n      mstore\n        /* \"#utility.yul\":5846:5850   */\n      0x24\n        /* \"#utility.yul\":5843:5844   */\n      0x00\n        /* \"#utility.yul\":5836:5851   */\n      revert\n        /* \"#utility.yul\":5863:6144   */\n    tag_302:\n        /* \"#utility.yul\":5946:5973   */\n      tag_417\n        /* \"#utility.yul\":5968:5972   */\n      dup3\n        /* \"#utility.yul\":5946:5973   */\n      tag_299\n      jump\t// in\n    tag_417:\n        /* \"#utility.yul\":5938:5944   */\n      dup2\n        /* \"#utility.yul\":5934:5974   */\n      add\n        /* \"#utility.yul\":6076:6082   */\n      dup2\n        /* \"#utility.yul\":6064:6074   */\n      dup2\n        /* \"#utility.yul\":6061:6083   */\n      lt\n        /* \"#utility.yul\":6040:6058   */\n      0xffffffffffffffff\n        /* \"#utility.yul\":6028:6038   */\n      dup3\n        /* \"#utility.yul\":6025:6059   */\n      gt\n        /* \"#utility.yul\":6022:6084   */\n      or\n        /* \"#utility.yul\":6019:6107   */\n      iszero\n      tag_418\n      jumpi\n        /* \"#utility.yul\":6087:6105   */\n      tag_419\n      tag_118\n      jump\t// in\n    tag_419:\n        /* \"#utility.yul\":6019:6107   */\n    tag_418:\n        /* \"#utility.yul\":6127:6137   */\n      dup1\n        /* \"#utility.yul\":6123:6125   */\n      0x40\n        /* \"#utility.yul\":6116:6138   */\n      mstore\n        /* \"#utility.yul\":5906:6144   */\n      pop\n        /* \"#utility.yul\":5863:6144   */\n      pop\n      pop\n      jump\t// out\n        /* \"#utility.yul\":6150:6279   */\n    tag_303:\n        /* \"#utility.yul\":6184:6190   */\n      0x00\n        /* \"#utility.yul\":6211:6231   */\n      tag_421\n      tag_280\n      jump\t// in\n    tag_421:\n        /* \"#utility.yul\":6201:6231   */\n      swap1\n      pop\n        /* \"#utility.yul\":6240:6273   */\n      tag_422\n        /* \"#utility.yul\":6268:6272   */\n      dup3\n        /* \"#utility.yul\":6260:6266   */\n      dup3\n        /* \"#utility.yul\":6240:6273   */\n      tag_302\n      jump\t// in\n    tag_422:\n        /* \"#utility.yul\":6150:6279   */\n      swap2\n      swap1\n      pop\n      jump\t// out\n        /* \"#utility.yul\":6285:6596   */\n    tag_304:\n        /* \"#utility.yul\":6362:6366   */\n      0x00\n        /* \"#utility.yul\":6452:6470   */\n      0xffffffffffffffff\n        /* \"#utility.yul\":6444:6450   */\n      dup3\n        /* \"#utility.yul\":6441:6471   */\n      gt\n        /* \"#utility.yul\":6438:6494   */\n      iszero\n      tag_424\n      jumpi\n        /* \"#utility.yul\":6474:6492   */\n      tag_425\n      tag_118\n      jump\t// in\n    tag_425:\n        /* \"#utility.yul\":6438:6494   */\n    tag_424:\n        /* \"#utility.yul\":6524:6528   */\n      0x20\n        /* \"#utility.yul\":6516:6522   */\n      dup3\n        /* \"#utility.yul\":6512:6529   */\n      mul\n        /* \"#utility.yul\":6504:6529   */\n      swap1\n      pop\n        /* \"#utility.yul\":6584:6588   */\n      0x20\n        /* \"#utility.yul\":6578:6582   */\n      dup2\n        /* \"#utility.yul\":6574:6589   */\n      add\n        /* \"#utility.yul\":6566:6589   */\n      swap1\n      pop\n        /* \"#utility.yul\":6285:6596   */\n      swap2\n      swap1\n      pop\n      jump\t// out\n        /* \"#utility.yul\":6602:6719   */\n    tag_305:\n        /* \"#utility.yul\":6711:6712   */\n      0x00\n        /* \"#utility.yul\":6708:6709   */\n      dup1\n        /* \"#utility.yul\":6701:6713   */\n      revert\n        /* \"#utility.yul\":6742:7452   */\n    tag_306:\n        /* \"#utility.yul\":6838:6843   */\n      0x00\n        /* \"#utility.yul\":6863:6944   */\n      tag_428\n        /* \"#utility.yul\":6879:6943   */\n      tag_429\n        /* \"#utility.yul\":6936:6942   */\n      dup5\n        /* \"#utility.yul\":6879:6943   */\n      tag_304\n      jump\t// in\n    tag_429:\n        /* \"#utility.yul\":6863:6944   */\n      tag_303\n      jump\t// in\n    tag_428:\n        /* \"#utility.yul\":6854:6944   */\n      swap1\n      pop\n        /* \"#utility.yul\":6964:6969   */\n      dup1\n        /* \"#utility.yul\":6993:6999   */\n      dup4\n        /* \"#utility.yul\":6986:6991   */\n      dup3\n        /* \"#utility.yul\":6979:7000   */\n      mstore\n        /* \"#utility.yul\":7027:7031   */\n      0x20\n        /* \"#utility.yul\":7020:7025   */\n      dup3\n        /* \"#utility.yul\":7016:7032   */\n      add\n        /* \"#utility.yul\":7009:7032   */\n      swap1\n      pop\n        /* \"#utility.yul\":7080:7084   */\n      0x20\n        /* \"#utility.yul\":7072:7078   */\n      dup5\n        /* \"#utility.yul\":7068:7085   */\n      mul\n        /* \"#utility.yul\":7060:7066   */\n      dup4\n        /* \"#utility.yul\":7056:7086   */\n      add\n        /* \"#utility.yul\":7109:7112   */\n      dup6\n        /* \"#utility.yul\":7101:7107   */\n      dup2\n        /* \"#utility.yul\":7098:7113   */\n      gt\n        /* \"#utility.yul\":7095:7217   */\n      iszero\n      tag_430\n      jumpi\n        /* \"#utility.yul\":7128:7207   */\n      tag_431\n      tag_305\n      jump\t// in\n    tag_431:\n        /* \"#utility.yul\":7095:7217   */\n    tag_430:\n        /* \"#utility.yul\":7243:7249   */\n      dup4\n        /* \"#utility.yul\":7226:7446   */\n    tag_432:\n        /* \"#utility.yul\":7260:7266   */\n      dup2\n        /* \"#utility.yul\":7255:7258   */\n      dup2\n        /* \"#utility.yul\":7252:7267   */\n      lt\n        /* \"#utility.yul\":7226:7446   */\n      iszero\n      tag_434\n      jumpi\n        /* \"#utility.yul\":7335:7338   */\n      dup1\n        /* \"#utility.yul\":7364:7401   */\n      tag_435\n        /* \"#utility.yul\":7397:7400   */\n      dup9\n        /* \"#utility.yul\":7385:7395   */\n      dup3\n        /* \"#utility.yul\":7364:7401   */\n      tag_289\n      jump\t// in\n    tag_435:\n        /* \"#utility.yul\":7359:7362   */\n      dup5\n        /* \"#utility.yul\":7352:7402   */\n      mstore\n        /* \"#utility.yul\":7431:7435   */\n      0x20\n        /* \"#utility.yul\":7426:7429   */\n      dup5\n        /* \"#utility.yul\":7422:7436   */\n      add\n        /* \"#utility.yul\":7415:7436   */\n      swap4\n      pop\n        /* \"#utility.yul\":7302:7446   */\n      pop\n        /* \"#utility.yul\":7286:7290   */\n      0x20\n        /* \"#utility.yul\":7281:7284   */\n      dup2\n        /* \"#utility.yul\":7277:7291   */\n      add\n        /* \"#utility.yul\":7270:7291   */\n      swap1\n      pop\n        /* \"#utility.yul\":7226:7446   */\n      jump(tag_432)\n    tag_434:\n        /* \"#utility.yul\":7230:7251   */\n      pop\n        /* \"#utility.yul\":6844:7452   */\n      pop\n      pop\n        /* \"#utility.yul\":6742:7452   */\n      swap4\n      swap3\n      pop\n      pop\n      pop\n      jump\t// out\n        /* \"#utility.yul\":7475:7845   */\n    tag_307:\n        /* \"#utility.yul\":7546:7551   */\n      0x00\n        /* \"#utility.yul\":7595:7598   */\n      dup3\n        /* \"#utility.yul\":7588:7592   */\n      0x1f\n        /* \"#utility.yul\":7580:7586   */\n      dup4\n        /* \"#utility.yul\":7576:7593   */\n      add\n        /* \"#utility.yul\":7572:7599   */\n      slt\n        /* \"#utility.yul\":7562:7684   */\n      tag_437\n      jumpi\n        /* \"#utility.yul\":7603:7682   */\n      tag_438\n      tag_301\n      jump\t// in\n    tag_438:\n        /* \"#utility.yul\":7562:7684   */\n    tag_437:\n        /* \"#utility.yul\":7720:7726   */\n      dup2\n        /* \"#utility.yul\":7707:7727   */\n      calldataload\n        /* \"#utility.yul\":7745:7839   */\n      tag_439\n        /* \"#utility.yul\":7835:7838   */\n      dup5\n        /* \"#utility.yul\":7827:7833   */\n      dup3\n        /* \"#utility.yul\":7820:7824   */\n      0x20\n        /* \"#utility.yul\":7812:7818   */\n      dup7\n        /* \"#utility.yul\":7808:7825   */\n      add\n        /* \"#utility.yul\":7745:7839   */\n      tag_306\n      jump\t// in\n    tag_439:\n        /* \"#utility.yul\":7736:7839   */\n      swap2\n      pop\n        /* \"#utility.yul\":7552:7845   */\n      pop\n        /* \"#utility.yul\":7475:7845   */\n      swap3\n      swap2\n      pop\n      pop\n      jump\t// out\n        /* \"#utility.yul\":7851:7968   */\n    tag_308:\n        /* \"#utility.yul\":7960:7961   */\n      0x00\n        /* \"#utility.yul\":7957:7958   */\n      dup1\n        /* \"#utility.yul\":7950:7962   */\n      revert\n        /* \"#utility.yul\":7974:8281   */\n    tag_309:\n        /* \"#utility.yul\":8035:8039   */\n      0x00\n        /* \"#utility.yul\":8125:8143   */\n      0xffffffffffffffff\n        /* \"#utility.yul\":8117:8123   */\n      dup3\n        /* \"#utility.yul\":8114:8144   */\n      gt\n        /* \"#utility.yul\":8111:8167   */\n      iszero\n      tag_442\n      jumpi\n        /* \"#utility.yul\":8147:8165   */\n      tag_443\n      tag_118\n      jump\t// in\n    tag_443:\n        /* \"#utility.yul\":8111:8167   */\n    tag_442:\n        /* \"#utility.yul\":8185:8214   */\n      tag_444\n        /* \"#utility.yul\":8207:8213   */\n      dup3\n        /* \"#utility.yul\":8185:8214   */\n      tag_299\n      jump\t// in\n    tag_444:\n        /* \"#utility.yul\":8177:8214   */\n      swap1\n      pop\n        /* \"#utility.yul\":8269:8273   */\n      0x20\n        /* \"#utility.yul\":8263:8267   */\n      dup2\n        /* \"#utility.yul\":8259:8274   */\n      add\n        /* \"#utility.yul\":8251:8274   */\n      swap1\n      pop\n        /* \"#utility.yul\":7974:8281   */\n      swap2\n      swap1\n      pop\n      jump\t// out\n        /* \"#utility.yul\":8287:8435   */\n    tag_310:\n        /* \"#utility.yul\":8385:8391   */\n      dup3\n        /* \"#utility.yul\":8380:8383   */\n      dup2\n        /* \"#utility.yul\":8375:8378   */\n      dup4\n        /* \"#utility.yul\":8362:8392   */\n      calldatacopy\n        /* \"#utility.yul\":8426:8427   */\n      0x00\n        /* \"#utility.yul\":8417:8423   */\n      dup4\n        /* \"#utility.yul\":8412:8415   */\n      dup4\n        /* \"#utility.yul\":8408:8424   */\n      add\n        /* \"#utility.yul\":8401:8428   */\n      mstore\n        /* \"#utility.yul\":8287:8435   */\n      pop\n      pop\n      pop\n      jump\t// out\n        /* \"#utility.yul\":8441:8864   */\n    tag_311:\n        /* \"#utility.yul\":8518:8523   */\n      0x00\n        /* \"#utility.yul\":8543:8608   */\n      tag_447\n        /* \"#utility.yul\":8559:8607   */\n      tag_448\n        /* \"#utility.yul\":8600:8606   */\n      dup5\n        /* \"#utility.yul\":8559:8607   */\n      tag_309\n      jump\t// in\n    tag_448:\n        /* \"#utility.yul\":8543:8608   */\n      tag_303\n      jump\t// in\n    tag_447:\n        /* \"#utility.yul\":8534:8608   */\n      swap1\n      pop\n        /* \"#utility.yul\":8631:8637   */\n      dup3\n        /* \"#utility.yul\":8624:8629   */\n      dup2\n        /* \"#utility.yul\":8617:8638   */\n      mstore\n        /* \"#utility.yul\":8669:8673   */\n      0x20\n        /* \"#utility.yul\":8662:8667   */\n      dup2\n        /* \"#utility.yul\":8658:8674   */\n      add\n        /* \"#utility.yul\":8707:8710   */\n      dup5\n        /* \"#utility.yul\":8698:8704   */\n      dup5\n        /* \"#utility.yul\":8693:8696   */\n      dup5\n        /* \"#utility.yul\":8689:8705   */\n      add\n        /* \"#utility.yul\":8686:8711   */\n      gt\n        /* \"#utility.yul\":8683:8795   */\n      iszero\n      tag_449\n      jumpi\n        /* \"#utility.yul\":8714:8793   */\n      tag_450\n      tag_308\n      jump\t// in\n    tag_450:\n        /* \"#utility.yul\":8683:8795   */\n    tag_449:\n        /* \"#utility.yul\":8804:8858   */\n      tag_451\n        /* \"#utility.yul\":8851:8857   */\n      dup5\n        /* \"#utility.yul\":8846:8849   */\n      dup3\n        /* \"#utility.yul\":8841:8844   */\n      dup6\n        /* \"#utility.yul\":8804:8858   */\n      tag_310\n      jump\t// in\n    tag_451:\n        /* \"#utility.yul\":8524:8864   */\n      pop\n        /* \"#utility.yul\":8441:8864   */\n      swap4\n      swap3\n      pop\n      pop\n      pop\n      jump\t// out\n        /* \"#utility.yul\":8883:9221   */\n    tag_312:\n        /* \"#utility.yul\":8938:8943   */\n      0x00\n        /* \"#utility.yul\":8987:8990   */\n      dup3\n        /* \"#utility.yul\":8980:8984   */\n      0x1f\n        /* \"#utility.yul\":8972:8978   */\n      dup4\n        /* \"#utility.yul\":8968:8985   */\n      add\n        /* \"#utility.yul\":8964:8991   */\n      slt\n        /* \"#utility.yul\":8954:9076   */\n      tag_453\n      jumpi\n        /* \"#utility.yul\":8995:9074   */\n      tag_454\n      tag_301\n      jump\t// in\n    tag_454:\n        /* \"#utility.yul\":8954:9076   */\n    tag_453:\n        /* \"#utility.yul\":9112:9118   */\n      dup2\n        /* \"#utility.yul\":9099:9119   */\n      calldataload\n        /* \"#utility.yul\":9137:9215   */\n      tag_455\n        /* \"#utility.yul\":9211:9214   */\n      dup5\n        /* \"#utility.yul\":9203:9209   */\n      dup3\n        /* \"#utility.yul\":9196:9200   */\n      0x20\n        /* \"#utility.yul\":9188:9194   */\n      dup7\n        /* \"#utility.yul\":9184:9201   */\n      add\n        /* \"#utility.yul\":9137:9215   */\n      tag_311\n      jump\t// in\n    tag_455:\n        /* \"#utility.yul\":9128:9215   */\n      swap2\n      pop\n        /* \"#utility.yul\":8944:9221   */\n      pop\n        /* \"#utility.yul\":8883:9221   */\n      swap3\n      swap2\n      pop\n      pop\n      jump\t// out\n        /* \"#utility.yul\":9227:10736   */\n    tag_48:\n        /* \"#utility.yul\":9381:9387   */\n      0x00\n        /* \"#utility.yul\":9389:9395   */\n      dup1\n        /* \"#utility.yul\":9397:9403   */\n      0x00\n        /* \"#utility.yul\":9405:9411   */\n      dup1\n        /* \"#utility.yul\":9413:9419   */\n      0x00\n        /* \"#utility.yul\":9462:9465   */\n      0xa0\n        /* \"#utility.yul\":9450:9459   */\n      dup7\n        /* \"#utility.yul\":9441:9448   */\n      dup9\n        /* \"#utility.yul\":9437:9460   */\n      sub\n        /* \"#utility.yul\":9433:9466   */\n      slt\n        /* \"#utility.yul\":9430:9550   */\n      iszero\n      tag_457\n      jumpi\n        /* \"#utility.yul\":9469:9548   */\n      tag_458\n      tag_281\n      jump\t// in\n    tag_458:\n        /* \"#utility.yul\":9430:9550   */\n    tag_457:\n        /* \"#utility.yul\":9589:9590   */\n      0x00\n        /* \"#utility.yul\":9614:9667   */\n      tag_459\n        /* \"#utility.yul\":9659:9666   */\n      dup9\n        /* \"#utility.yul\":9650:9656   */\n      dup3\n        /* \"#utility.yul\":9639:9648   */\n      dup10\n        /* \"#utility.yul\":9635:9657   */\n      add\n        /* \"#utility.yul\":9614:9667   */\n      tag_286\n      jump\t// in\n    tag_459:\n        /* \"#utility.yul\":9604:9667   */\n      swap6\n      pop\n        /* \"#utility.yul\":9560:9677   */\n      pop\n        /* \"#utility.yul\":9716:9718   */\n      0x20\n        /* \"#utility.yul\":9742:9795   */\n      tag_460\n        /* \"#utility.yul\":9787:9794   */\n      dup9\n        /* \"#utility.yul\":9778:9784   */\n      dup3\n        /* \"#utility.yul\":9767:9776   */\n      dup10\n        /* \"#utility.yul\":9763:9785   */\n      add\n        /* \"#utility.yul\":9742:9795   */\n      tag_286\n      jump\t// in\n    tag_460:\n        /* \"#utility.yul\":9732:9795   */\n      swap5\n      pop\n        /* \"#utility.yul\":9687:9805   */\n      pop\n        /* \"#utility.yul\":9872:9874   */\n      0x40\n        /* \"#utility.yul\":9861:9870   */\n      dup7\n        /* \"#utility.yul\":9857:9875   */\n      add\n        /* \"#utility.yul\":9844:9876   */\n      calldataload\n        /* \"#utility.yul\":9903:9921   */\n      0xffffffffffffffff\n        /* \"#utility.yul\":9895:9901   */\n      dup2\n        /* \"#utility.yul\":9892:9922   */\n      gt\n        /* \"#utility.yul\":9889:10006   */\n      iszero\n      tag_461\n      jumpi\n        /* \"#utility.yul\":9925:10004   */\n      tag_462\n      tag_282\n      jump\t// in\n    tag_462:\n        /* \"#utility.yul\":9889:10006   */\n    tag_461:\n        /* \"#utility.yul\":10030:10108   */\n      tag_463\n        /* \"#utility.yul\":10100:10107   */\n      dup9\n        /* \"#utility.yul\":10091:10097   */\n      dup3\n        /* \"#utility.yul\":10080:10089   */\n      dup10\n        /* \"#utility.yul\":10076:10098   */\n      add\n        /* \"#utility.yul\":10030:10108   */\n      tag_307\n      jump\t// in\n    tag_463:\n        /* \"#utility.yul\":10020:10108   */\n      swap4\n      pop\n        /* \"#utility.yul\":9815:10118   */\n      pop\n        /* \"#utility.yul\":10185:10187   */\n      0x60\n        /* \"#utility.yul\":10174:10183   */\n      dup7\n        /* \"#utility.yul\":10170:10188   */\n      add\n        /* \"#utility.yul\":10157:10189   */\n      calldataload\n        /* \"#utility.yul\":10216:10234   */\n      0xffffffffffffffff\n        /* \"#utility.yul\":10208:10214   */\n      dup2\n        /* \"#utility.yul\":10205:10235   */\n      gt\n        /* \"#utility.yul\":10202:10319   */\n      iszero\n      tag_464\n      jumpi\n        /* \"#utility.yul\":10238:10317   */\n      tag_465\n      tag_282\n      jump\t// in\n    tag_465:\n        /* \"#utility.yul\":10202:10319   */\n    tag_464:\n        /* \"#utility.yul\":10343:10421   */\n      tag_466\n        /* \"#utility.yul\":10413:10420   */\n      dup9\n        /* \"#utility.yul\":10404:10410   */\n      dup3\n        /* \"#utility.yul\":10393:10402   */\n      dup10\n        /* \"#utility.yul\":10389:10411   */\n      add\n        /* \"#utility.yul\":10343:10421   */\n      tag_307\n      jump\t// in\n    tag_466:\n        /* \"#utility.yul\":10333:10421   */\n      swap3\n      pop\n        /* \"#utility.yul\":10128:10431   */\n      pop\n        /* \"#utility.yul\":10498:10501   */\n      0x80\n        /* \"#utility.yul\":10487:10496   */\n      dup7\n        /* \"#utility.yul\":10483:10502   */\n      add\n        /* \"#utility.yul\":10470:10503   */\n      calldataload\n        /* \"#utility.yul\":10530:10548   */\n      0xffffffffffffffff\n        /* \"#utility.yul\":10522:10528   */\n      dup2\n        /* \"#utility.yul\":10519:10549   */\n      gt\n        /* \"#utility.yul\":10516:10633   */\n      iszero\n      tag_467\n      jumpi\n        /* \"#utility.yul\":10552:10631   */\n      tag_468\n      tag_282\n      jump\t// in\n    tag_468:\n        /* \"#utility.yul\":10516:10633   */\n    tag_467:\n        /* \"#utility.yul\":10657:10719   */\n      tag_469\n        /* \"#utility.yul\":10711:10718   */\n      dup9\n        /* \"#utility.yul\":10702:10708   */\n      dup3\n        /* \"#utility.yul\":10691:10700   */\n      dup10\n        /* \"#utility.yul\":10687:10709   */\n      add\n        /* \"#utility.yul\":10657:10719   */\n      tag_312\n      jump\t// in\n    tag_469:\n        /* \"#utility.yul\":10647:10719   */\n      swap2\n      pop\n        /* \"#utility.yul\":10441:10729   */\n      pop\n        /* \"#utility.yul\":9227:10736   */\n      swap3\n      swap6\n      pop\n      swap3\n      swap6\n      swap1\n      swap4\n      pop\n      jump\t// out\n        /* \"#utility.yul\":10742:11053   */\n    tag_313:\n        /* \"#utility.yul\":10819:10823   */\n      0x00\n        /* \"#utility.yul\":10909:10927   */\n      0xffffffffffffffff\n        /* \"#utility.yul\":10901:10907   */\n      dup3\n        /* \"#utility.yul\":10898:10928   */\n      gt\n        /* \"#utility.yul\":10895:10951   */\n      iszero\n      tag_471\n      jumpi\n        /* \"#utility.yul\":10931:10949   */\n      tag_472\n      tag_118\n      jump\t// in\n    tag_472:\n        /* \"#utility.yul\":10895:10951   */\n    tag_471:\n        /* \"#utility.yul\":10981:10985   */\n      0x20\n        /* \"#utility.yul\":10973:10979   */\n      dup3\n        /* \"#utility.yul\":10969:10986   */\n      mul\n        /* \"#utility.yul\":10961:10986   */\n      swap1\n      pop\n        /* \"#utility.yul\":11041:11045   */\n      0x20\n        /* \"#utility.yul\":11035:11039   */\n      dup2\n        /* \"#utility.yul\":11031:11046   */\n      add\n        /* \"#utility.yul\":11023:11046   */\n      swap1\n      pop\n        /* \"#utility.yul\":10742:11053   */\n      swap2\n      swap1\n      pop\n      jump\t// out\n        /* \"#utility.yul\":11076:11786   */\n    tag_314:\n        /* \"#utility.yul\":11172:11177   */\n      0x00\n        /* \"#utility.yul\":11197:11278   */\n      tag_474\n        /* \"#utility.yul\":11213:11277   */\n      tag_475\n        /* \"#utility.yul\":11270:11276   */\n      dup5\n        /* \"#utility.yul\":11213:11277   */\n      tag_313\n      jump\t// in\n    tag_475:\n        /* \"#utility.yul\":11197:11278   */\n      tag_303\n      jump\t// in\n    tag_474:\n        /* \"#utility.yul\":11188:11278   */\n      swap1\n      pop\n        /* \"#utility.yul\":11298:11303   */\n      dup1\n        /* \"#utility.yul\":11327:11333   */\n      dup4\n        /* \"#utility.yul\":11320:11325   */\n      dup3\n        /* \"#utility.yul\":11313:11334   */\n      mstore\n        /* \"#utility.yul\":11361:11365   */\n      0x20\n        /* \"#utility.yul\":11354:11359   */\n      dup3\n        /* \"#utility.yul\":11350:11366   */\n      add\n        /* \"#utility.yul\":11343:11366   */\n      swap1\n      pop\n        /* \"#utility.yul\":11414:11418   */\n      0x20\n        /* \"#utility.yul\":11406:11412   */\n      dup5\n        /* \"#utility.yul\":11402:11419   */\n      mul\n        /* \"#utility.yul\":11394:11400   */\n      dup4\n        /* \"#utility.yul\":11390:11420   */\n      add\n        /* \"#utility.yul\":11443:11446   */\n      dup6\n        /* \"#utility.yul\":11435:11441   */\n      dup2\n        /* \"#utility.yul\":11432:11447   */\n      gt\n        /* \"#utility.yul\":11429:11551   */\n      iszero\n      tag_476\n      jumpi\n        /* \"#utility.yul\":11462:11541   */\n      tag_477\n      tag_305\n      jump\t// in\n    tag_477:\n        /* \"#utility.yul\":11429:11551   */\n    tag_476:\n        /* \"#utility.yul\":11577:11583   */\n      dup4\n        /* \"#utility.yul\":11560:11780   */\n    tag_478:\n        /* \"#utility.yul\":11594:11600   */\n      dup2\n        /* \"#utility.yul\":11589:11592   */\n      dup2\n        /* \"#utility.yul\":11586:11601   */\n      lt\n        /* \"#utility.yul\":11560:11780   */\n      iszero\n      tag_480\n      jumpi\n        /* \"#utility.yul\":11669:11672   */\n      dup1\n        /* \"#utility.yul\":11698:11735   */\n      tag_481\n        /* \"#utility.yul\":11731:11734   */\n      dup9\n        /* \"#utility.yul\":11719:11729   */\n      dup3\n        /* \"#utility.yul\":11698:11735   */\n      tag_286\n      jump\t// in\n    tag_481:\n        /* \"#utility.yul\":11693:11696   */\n      dup5\n        /* \"#utility.yul\":11686:11736   */\n      mstore\n        /* \"#utility.yul\":11765:11769   */\n      0x20\n        /* \"#utility.yul\":11760:11763   */\n      dup5\n        /* \"#utility.yul\":11756:11770   */\n      add\n        /* \"#utility.yul\":11749:11770   */\n      swap4\n      pop\n        /* \"#utility.yul\":11636:11780   */\n      pop\n        /* \"#utility.yul\":11620:11624   */\n      0x20\n        /* \"#utility.yul\":11615:11618   */\n      dup2\n        /* \"#utility.yul\":11611:11625   */\n      add\n        /* \"#utility.yul\":11604:11625   */\n      swap1\n      pop\n        /* \"#utility.yul\":11560:11780   */\n      jump(tag_478)\n    tag_480:\n        /* \"#utility.yul\":11564:11585   */\n      pop\n        /* \"#utility.yul\":11178:11786   */\n      pop\n      pop\n        /* \"#utility.yul\":11076:11786   */\n      swap4\n      swap3\n      pop\n      pop\n      pop\n      jump\t// out\n        /* \"#utility.yul\":11809:12179   */\n    tag_315:\n        /* \"#utility.yul\":11880:11885   */\n      0x00\n        /* \"#utility.yul\":11929:11932   */\n      dup3\n        /* \"#utility.yul\":11922:11926   */\n      0x1f\n        /* \"#utility.yul\":11914:11920   */\n      dup4\n        /* \"#utility.yul\":11910:11927   */\n      add\n        /* \"#utility.yul\":11906:11933   */\n      slt\n        /* \"#utility.yul\":11896:12018   */\n      tag_483\n      jumpi\n        /* \"#utility.yul\":11937:12016   */\n      tag_484\n      tag_301\n      jump\t// in\n    tag_484:\n        /* \"#utility.yul\":11896:12018   */\n    tag_483:\n        /* \"#utility.yul\":12054:12060   */\n      dup2\n        /* \"#utility.yul\":12041:12061   */\n      calldataload\n        /* \"#utility.yul\":12079:12173   */\n      tag_485\n        /* \"#utility.yul\":12169:12172   */\n      dup5\n        /* \"#utility.yul\":12161:12167   */\n      dup3\n        /* \"#utility.yul\":12154:12158   */\n      0x20\n        /* \"#utility.yul\":12146:12152   */\n      dup7\n        /* \"#utility.yul\":12142:12159   */\n      add\n        /* \"#utility.yul\":12079:12173   */\n      tag_314\n      jump\t// in\n    tag_485:\n        /* \"#utility.yul\":12070:12173   */\n      swap2\n      pop\n        /* \"#utility.yul\":11886:12179   */\n      pop\n        /* \"#utility.yul\":11809:12179   */\n      swap3\n      swap2\n      pop\n      pop\n      jump\t// out\n        /* \"#utility.yul\":12185:13079   */\n    tag_52:\n        /* \"#utility.yul\":12303:12309   */\n      0x00\n        /* \"#utility.yul\":12311:12317   */\n      dup1\n        /* \"#utility.yul\":12360:12362   */\n      0x40\n        /* \"#utility.yul\":12348:12357   */\n      dup4\n        /* \"#utility.yul\":12339:12346   */\n      dup6\n        /* \"#utility.yul\":12335:12358   */\n      sub\n        /* \"#utility.yul\":12331:12363   */\n      slt\n        /* \"#utility.yul\":12328:12447   */\n      iszero\n      tag_487\n      jumpi\n        /* \"#utility.yul\":12366:12445   */\n      tag_488\n      tag_281\n      jump\t// in\n    tag_488:\n        /* \"#utility.yul\":12328:12447   */\n    tag_487:\n        /* \"#utility.yul\":12514:12515   */\n      0x00\n        /* \"#utility.yul\":12503:12512   */\n      dup4\n        /* \"#utility.yul\":12499:12516   */\n      add\n        /* \"#utility.yul\":12486:12517   */\n      calldataload\n        /* \"#utility.yul\":12544:12562   */\n      0xffffffffffffffff\n        /* \"#utility.yul\":12536:12542   */\n      dup2\n        /* \"#utility.yul\":12533:12563   */\n      gt\n        /* \"#utility.yul\":12530:12647   */\n      iszero\n      tag_489\n      jumpi\n        /* \"#utility.yul\":12566:12645   */\n      tag_490\n      tag_282\n      jump\t// in\n    tag_490:\n        /* \"#utility.yul\":12530:12647   */\n    tag_489:\n        /* \"#utility.yul\":12671:12749   */\n      tag_491\n        /* \"#utility.yul\":12741:12748   */\n      dup6\n        /* \"#utility.yul\":12732:12738   */\n      dup3\n        /* \"#utility.yul\":12721:12730   */\n      dup7\n        /* \"#utility.yul\":12717:12739   */\n      add\n        /* \"#utility.yul\":12671:12749   */\n      tag_315\n      jump\t// in\n    tag_491:\n        /* \"#utility.yul\":12661:12749   */\n      swap3\n      pop\n        /* \"#utility.yul\":12457:12759   */\n      pop\n        /* \"#utility.yul\":12826:12828   */\n      0x20\n        /* \"#utility.yul\":12815:12824   */\n      dup4\n        /* \"#utility.yul\":12811:12829   */\n      add\n        /* \"#utility.yul\":12798:12830   */\n      calldataload\n        /* \"#utility.yul\":12857:12875   */\n      0xffffffffffffffff\n        /* \"#utility.yul\":12849:12855   */\n      dup2\n        /* \"#utility.yul\":12846:12876   */\n      gt\n        /* \"#utility.yul\":12843:12960   */\n      iszero\n      tag_492\n      jumpi\n        /* \"#utility.yul\":12879:12958   */\n      tag_493\n      tag_282\n      jump\t// in\n    tag_493:\n        /* \"#utility.yul\":12843:12960   */\n    tag_492:\n        /* \"#utility.yul\":12984:13062   */\n      tag_494\n        /* \"#utility.yul\":13054:13061   */\n      dup6\n        /* \"#utility.yul\":13045:13051   */\n      dup3\n        /* \"#utility.yul\":13034:13043   */\n      dup7\n        /* \"#utility.yul\":13030:13052   */\n      add\n        /* \"#utility.yul\":12984:13062   */\n      tag_307\n      jump\t// in\n    tag_494:\n        /* \"#utility.yul\":12974:13062   */\n      swap2\n      pop\n        /* \"#utility.yul\":12769:13072   */\n      pop\n        /* \"#utility.yul\":12185:13079   */\n      swap3\n      pop\n      swap3\n      swap1\n      pop\n      jump\t// out\n        /* \"#utility.yul\":13085:13199   */\n    tag_316:\n        /* \"#utility.yul\":13152:13158   */\n      0x00\n        /* \"#utility.yul\":13186:13191   */\n      dup2\n        /* \"#utility.yul\":13180:13192   */\n      mload\n        /* \"#utility.yul\":13170:13192   */\n      swap1\n      pop\n        /* \"#utility.yul\":13085:13199   */\n      swap2\n      swap1\n      pop\n      jump\t// out\n        /* \"#utility.yul\":13205:13389   */\n    tag_317:\n        /* \"#utility.yul\":13304:13315   */\n      0x00\n        /* \"#utility.yul\":13338:13344   */\n      dup3\n        /* \"#utility.yul\":13333:13336   */\n      dup3\n        /* \"#utility.yul\":13326:13345   */\n      mstore\n        /* \"#utility.yul\":13378:13382   */\n      0x20\n        /* \"#utility.yul\":13373:13376   */\n      dup3\n        /* \"#utility.yul\":13369:13383   */\n      add\n        /* \"#utility.yul\":13354:13383   */\n      swap1\n      pop\n        /* \"#utility.yul\":13205:13389   */\n      swap3\n      swap2\n      pop\n      pop\n      jump\t// out\n        /* \"#utility.yul\":13395:13527   */\n    tag_318:\n        /* \"#utility.yul\":13462:13466   */\n      0x00\n        /* \"#utility.yul\":13485:13488   */\n      dup2\n        /* \"#utility.yul\":13477:13488   */\n      swap1\n      pop\n        /* \"#utility.yul\":13515:13519   */\n      0x20\n        /* \"#utility.yul\":13510:13513   */\n      dup3\n        /* \"#utility.yul\":13506:13520   */\n      add\n        /* \"#utility.yul\":13498:13520   */\n      swap1\n      pop\n        /* \"#utility.yul\":13395:13527   */\n      swap2\n      swap1\n      pop\n      jump\t// out\n        /* \"#utility.yul\":13533:13641   */\n    tag_319:\n        /* \"#utility.yul\":13610:13634   */\n      tag_499\n        /* \"#utility.yul\":13628:13633   */\n      dup2\n        /* \"#utility.yul\":13610:13634   */\n      tag_287\n      jump\t// in\n    tag_499:\n        /* \"#utility.yul\":13605:13608   */\n      dup3\n        /* \"#utility.yul\":13598:13635   */\n      mstore\n        /* \"#utility.yul\":13533:13641   */\n      pop\n      pop\n      jump\t// out\n        /* \"#utility.yul\":13647:13826   */\n    tag_320:\n        /* \"#utility.yul\":13716:13726   */\n      0x00\n        /* \"#utility.yul\":13737:13783   */\n      tag_501\n        /* \"#utility.yul\":13779:13782   */\n      dup4\n        /* \"#utility.yul\":13771:13777   */\n      dup4\n        /* \"#utility.yul\":13737:13783   */\n      tag_319\n      jump\t// in\n    tag_501:\n        /* \"#utility.yul\":13815:13819   */\n      0x20\n        /* \"#utility.yul\":13810:13813   */\n      dup4\n        /* \"#utility.yul\":13806:13820   */\n      add\n        /* \"#utility.yul\":13792:13820   */\n      swap1\n      pop\n        /* \"#utility.yul\":13647:13826   */\n      swap3\n      swap2\n      pop\n      pop\n      jump\t// out\n        /* \"#utility.yul\":13832:13945   */\n    tag_321:\n        /* \"#utility.yul\":13902:13906   */\n      0x00\n        /* \"#utility.yul\":13934:13938   */\n      0x20\n        /* \"#utility.yul\":13929:13932   */\n      dup3\n        /* \"#utility.yul\":13925:13939   */\n      add\n        /* \"#utility.yul\":13917:13939   */\n      swap1\n      pop\n        /* \"#utility.yul\":13832:13945   */\n      swap2\n      swap1\n      pop\n      jump\t// out\n        /* \"#utility.yul\":13981:14713   */\n    tag_322:\n        /* \"#utility.yul\":14100:14103   */\n      0x00\n        /* \"#utility.yul\":14129:14183   */\n      tag_504\n        /* \"#utility.yul\":14177:14182   */\n      dup3\n        /* \"#utility.yul\":14129:14183   */\n      tag_316\n      jump\t// in\n    tag_504:\n        /* \"#utility.yul\":14199:14285   */\n      tag_505\n        /* \"#utility.yul\":14278:14284   */\n      dup2\n        /* \"#utility.yul\":14273:14276   */\n      dup6\n        /* \"#utility.yul\":14199:14285   */\n      tag_317\n      jump\t// in\n    tag_505:\n        /* \"#utility.yul\":14192:14285   */\n      swap4\n      pop\n        /* \"#utility.yul\":14309:14365   */\n      tag_506\n        /* \"#utility.yul\":14359:14364   */\n      dup4\n        /* \"#utility.yul\":14309:14365   */\n      tag_318\n      jump\t// in\n    tag_506:\n        /* \"#utility.yul\":14388:14395   */\n      dup1\n        /* \"#utility.yul\":14419:14420   */\n      0x00\n        /* \"#utility.yul\":14404:14688   */\n    tag_507:\n        /* \"#utility.yul\":14429:14435   */\n      dup4\n        /* \"#utility.yul\":14426:14427   */\n      dup2\n        /* \"#utility.yul\":14423:14436   */\n      lt\n        /* \"#utility.yul\":14404:14688   */\n      iszero\n      tag_509\n      jumpi\n        /* \"#utility.yul\":14505:14511   */\n      dup2\n        /* \"#utility.yul\":14499:14512   */\n      mload\n        /* \"#utility.yul\":14532:14595   */\n      tag_510\n        /* \"#utility.yul\":14591:14594   */\n      dup9\n        /* \"#utility.yul\":14576:14589   */\n      dup3\n        /* \"#utility.yul\":14532:14595   */\n      tag_320\n      jump\t// in\n    tag_510:\n        /* \"#utility.yul\":14525:14595   */\n      swap8\n      pop\n        /* \"#utility.yul\":14618:14678   */\n      tag_511\n        /* \"#utility.yul\":14671:14677   */\n      dup4\n        /* \"#utility.yul\":14618:14678   */\n      tag_321\n      jump\t// in\n    tag_511:\n        /* \"#utility.yul\":14608:14678   */\n      swap3\n      pop\n        /* \"#utility.yul\":14464:14688   */\n      pop\n        /* \"#utility.yul\":14451:14452   */\n      0x01\n        /* \"#utility.yul\":14448:14449   */\n      dup2\n        /* \"#utility.yul\":14444:14453   */\n      add\n        /* \"#utility.yul\":14439:14453   */\n      swap1\n      pop\n        /* \"#utility.yul\":14404:14688   */\n      jump(tag_507)\n    tag_509:\n        /* \"#utility.yul\":14408:14422   */\n      pop\n        /* \"#utility.yul\":14704:14707   */\n      dup6\n        /* \"#utility.yul\":14697:14707   */\n      swap4\n      pop\n        /* \"#utility.yul\":14105:14713   */\n      pop\n      pop\n      pop\n        /* \"#utility.yul\":13981:14713   */\n      swap3\n      swap2\n      pop\n      pop\n      jump\t// out\n        /* \"#utility.yul\":14719:15092   */\n    tag_55:\n        /* \"#utility.yul\":14862:14866   */\n      0x00\n        /* \"#utility.yul\":14900:14902   */\n      0x20\n        /* \"#utility.yul\":14889:14898   */\n      dup3\n        /* \"#utility.yul\":14885:14903   */\n      add\n        /* \"#utility.yul\":14877:14903   */\n      swap1\n      pop\n        /* \"#utility.yul\":14949:14958   */\n      dup2\n        /* \"#utility.yul\":14943:14947   */\n      dup2\n        /* \"#utility.yul\":14939:14959   */\n      sub\n        /* \"#utility.yul\":14935:14936   */\n      0x00\n        /* \"#utility.yul\":14924:14933   */\n      dup4\n        /* \"#utility.yul\":14920:14937   */\n      add\n        /* \"#utility.yul\":14913:14960   */\n      mstore\n        /* \"#utility.yul\":14977:15085   */\n      tag_513\n        /* \"#utility.yul\":15080:15084   */\n      dup2\n        /* \"#utility.yul\":15071:15077   */\n      dup5\n        /* \"#utility.yul\":14977:15085   */\n      tag_322\n      jump\t// in\n    tag_513:\n        /* \"#utility.yul\":14969:15085   */\n      swap1\n      pop\n        /* \"#utility.yul\":14719:15092   */\n      swap3\n      swap2\n      pop\n      pop\n      jump\t// out\n        /* \"#utility.yul\":15098:15216   */\n    tag_323:\n        /* \"#utility.yul\":15185:15209   */\n      tag_515\n        /* \"#utility.yul\":15203:15208   */\n      dup2\n        /* \"#utility.yul\":15185:15209   */\n      tag_284\n      jump\t// in\n    tag_515:\n        /* \"#utility.yul\":15180:15183   */\n      dup3\n        /* \"#utility.yul\":15173:15210   */\n      mstore\n        /* \"#utility.yul\":15098:15216   */\n      pop\n      pop\n      jump\t// out\n        /* \"#utility.yul\":15222:15444   */\n    tag_65:\n        /* \"#utility.yul\":15315:15319   */\n      0x00\n        /* \"#utility.yul\":15353:15355   */\n      0x20\n        /* \"#utility.yul\":15342:15351   */\n      dup3\n        /* \"#utility.yul\":15338:15356   */\n      add\n        /* \"#utility.yul\":15330:15356   */\n      swap1\n      pop\n        /* \"#utility.yul\":15366:15437   */\n      tag_517\n        /* \"#utility.yul\":15434:15435   */\n      0x00\n        /* \"#utility.yul\":15423:15432   */\n      dup4\n        /* \"#utility.yul\":15419:15436   */\n      add\n        /* \"#utility.yul\":15410:15416   */\n      dup5\n        /* \"#utility.yul\":15366:15437   */\n      tag_323\n      jump\t// in\n    tag_517:\n        /* \"#utility.yul\":15222:15444   */\n      swap3\n      swap2\n      pop\n      pop\n      jump\t// out\n        /* \"#utility.yul\":15450:15566   */\n    tag_324:\n        /* \"#utility.yul\":15520:15541   */\n      tag_519\n        /* \"#utility.yul\":15535:15540   */\n      dup2\n        /* \"#utility.yul\":15520:15541   */\n      tag_294\n      jump\t// in\n    tag_519:\n        /* \"#utility.yul\":15513:15518   */\n      dup2\n        /* \"#utility.yul\":15510:15542   */\n      eq\n        /* \"#utility.yul\":15500:15560   */\n      tag_520\n      jumpi\n        /* \"#utility.yul\":15556:15557   */\n      0x00\n        /* \"#utility.yul\":15553:15554   */\n      dup1\n        /* \"#utility.yul\":15546:15558   */\n      revert\n        /* \"#utility.yul\":15500:15560   */\n    tag_520:\n        /* \"#utility.yul\":15450:15566   */\n      pop\n      jump\t// out\n        /* \"#utility.yul\":15572:15705   */\n    tag_325:\n        /* \"#utility.yul\":15615:15620   */\n      0x00\n        /* \"#utility.yul\":15653:15659   */\n      dup2\n        /* \"#utility.yul\":15640:15660   */\n      calldataload\n        /* \"#utility.yul\":15631:15660   */\n      swap1\n      pop\n        /* \"#utility.yul\":15669:15699   */\n      tag_522\n        /* \"#utility.yul\":15693:15698   */\n      dup2\n        /* \"#utility.yul\":15669:15699   */\n      tag_324\n      jump\t// in\n    tag_522:\n        /* \"#utility.yul\":15572:15705   */\n      swap3\n      swap2\n      pop\n      pop\n      jump\t// out\n        /* \"#utility.yul\":15711:16179   */\n    tag_68:\n        /* \"#utility.yul\":15776:15782   */\n      0x00\n        /* \"#utility.yul\":15784:15790   */\n      dup1\n        /* \"#utility.yul\":15833:15835   */\n      0x40\n        /* \"#utility.yul\":15821:15830   */\n      dup4\n        /* \"#utility.yul\":15812:15819   */\n      dup6\n        /* \"#utility.yul\":15808:15831   */\n      sub\n        /* \"#utility.yul\":15804:15836   */\n      slt\n        /* \"#utility.yul\":15801:15920   */\n      iszero\n      tag_524\n      jumpi\n        /* \"#utility.yul\":15839:15918   */\n      tag_525\n      tag_281\n      jump\t// in\n    tag_525:\n        /* \"#utility.yul\":15801:15920   */\n    tag_524:\n        /* \"#utility.yul\":15959:15960   */\n      0x00\n        /* \"#utility.yul\":15984:16037   */\n      tag_526\n        /* \"#utility.yul\":16029:16036   */\n      dup6\n        /* \"#utility.yul\":16020:16026   */\n      dup3\n        /* \"#utility.yul\":16009:16018   */\n      dup7\n        /* \"#utility.yul\":16005:16027   */\n      add\n        /* \"#utility.yul\":15984:16037   */\n      tag_286\n      jump\t// in\n    tag_526:\n        /* \"#utility.yul\":15974:16037   */\n      swap3\n      pop\n        /* \"#utility.yul\":15930:16047   */\n      pop\n        /* \"#utility.yul\":16086:16088   */\n      0x20\n        /* \"#utility.yul\":16112:16162   */\n      tag_527\n        /* \"#utility.yul\":16154:16161   */\n      dup6\n        /* \"#utility.yul\":16145:16151   */\n      dup3\n        /* \"#utility.yul\":16134:16143   */\n      dup7\n        /* \"#utility.yul\":16130:16152   */\n      add\n        /* \"#utility.yul\":16112:16162   */\n      tag_325\n      jump\t// in\n    tag_527:\n        /* \"#utility.yul\":16102:16162   */\n      swap2\n      pop\n        /* \"#utility.yul\":16057:16172   */\n      pop\n        /* \"#utility.yul\":15711:16179   */\n      swap3\n      pop\n      swap3\n      swap1\n      pop\n      jump\t// out\n        /* \"#utility.yul\":16185:16493   */\n    tag_326:\n        /* \"#utility.yul\":16247:16251   */\n      0x00\n        /* \"#utility.yul\":16337:16355   */\n      0xffffffffffffffff\n        /* \"#utility.yul\":16329:16335   */\n      dup3\n        /* \"#utility.yul\":16326:16356   */\n      gt\n        /* \"#utility.yul\":16323:16379   */\n      iszero\n      tag_529\n      jumpi\n        /* \"#utility.yul\":16359:16377   */\n      tag_530\n      tag_118\n      jump\t// in\n    tag_530:\n        /* \"#utility.yul\":16323:16379   */\n    tag_529:\n        /* \"#utility.yul\":16397:16426   */\n      tag_531\n        /* \"#utility.yul\":16419:16425   */\n      dup3\n        /* \"#utility.yul\":16397:16426   */\n      tag_299\n      jump\t// in\n    tag_531:\n        /* \"#utility.yul\":16389:16426   */\n      swap1\n      pop\n        /* \"#utility.yul\":16481:16485   */\n      0x20\n        /* \"#utility.yul\":16475:16479   */\n      dup2\n        /* \"#utility.yul\":16471:16486   */\n      add\n        /* \"#utility.yul\":16463:16486   */\n      swap1\n      pop\n        /* \"#utility.yul\":16185:16493   */\n      swap2\n      swap1\n      pop\n      jump\t// out\n        /* \"#utility.yul\":16499:16924   */\n    tag_327:\n        /* \"#utility.yul\":16577:16582   */\n      0x00\n        /* \"#utility.yul\":16602:16668   */\n      tag_533\n        /* \"#utility.yul\":16618:16667   */\n      tag_534\n        /* \"#utility.yul\":16660:16666   */\n      dup5\n        /* \"#utility.yul\":16618:16667   */\n      tag_326\n      jump\t// in\n    tag_534:\n        /* \"#utility.yul\":16602:16668   */\n      tag_303\n      jump\t// in\n    tag_533:\n        /* \"#utility.yul\":16593:16668   */\n      swap1\n      pop\n        /* \"#utility.yul\":16691:16697   */\n      dup3\n        /* \"#utility.yul\":16684:16689   */\n      dup2\n        /* \"#utility.yul\":16677:16698   */\n      mstore\n        /* \"#utility.yul\":16729:16733   */\n      0x20\n        /* \"#utility.yul\":16722:16727   */\n      dup2\n        /* \"#utility.yul\":16718:16734   */\n      add\n        /* \"#utility.yul\":16767:16770   */\n      dup5\n        /* \"#utility.yul\":16758:16764   */\n      dup5\n        /* \"#utility.yul\":16753:16756   */\n      dup5\n        /* \"#utility.yul\":16749:16765   */\n      add\n        /* \"#utility.yul\":16746:16771   */\n      gt\n        /* \"#utility.yul\":16743:16855   */\n      iszero\n      tag_535\n      jumpi\n        /* \"#utility.yul\":16774:16853   */\n      tag_536\n      tag_308\n      jump\t// in\n    tag_536:\n        /* \"#utility.yul\":16743:16855   */\n    tag_535:\n        /* \"#utility.yul\":16864:16918   */\n      tag_537\n        /* \"#utility.yul\":16911:16917   */\n      dup5\n        /* \"#utility.yul\":16906:16909   */\n      dup3\n        /* \"#utility.yul\":16901:16904   */\n      dup6\n        /* \"#utility.yul\":16864:16918   */\n      tag_310\n      jump\t// in\n    tag_537:\n        /* \"#utility.yul\":16583:16924   */\n      pop\n        /* \"#utility.yul\":16499:16924   */\n      swap4\n      swap3\n      pop\n      pop\n      pop\n      jump\t// out\n        /* \"#utility.yul\":16944:17284   */\n    tag_328:\n        /* \"#utility.yul\":17000:17005   */\n      0x00\n        /* \"#utility.yul\":17049:17052   */\n      dup3\n        /* \"#utility.yul\":17042:17046   */\n      0x1f\n        /* \"#utility.yul\":17034:17040   */\n      dup4\n        /* \"#utility.yul\":17030:17047   */\n      add\n        /* \"#utility.yul\":17026:17053   */\n      slt\n        /* \"#utility.yul\":17016:17138   */\n      tag_539\n      jumpi\n        /* \"#utility.yul\":17057:17136   */\n      tag_540\n      tag_301\n      jump\t// in\n    tag_540:\n        /* \"#utility.yul\":17016:17138   */\n    tag_539:\n        /* \"#utility.yul\":17174:17180   */\n      dup2\n        /* \"#utility.yul\":17161:17181   */\n      calldataload\n        /* \"#utility.yul\":17199:17278   */\n      tag_541\n        /* \"#utility.yul\":17274:17277   */\n      dup5\n        /* \"#utility.yul\":17266:17272   */\n      dup3\n        /* \"#utility.yul\":17259:17263   */\n      0x20\n        /* \"#utility.yul\":17251:17257   */\n      dup7\n        /* \"#utility.yul\":17247:17264   */\n      add\n        /* \"#utility.yul\":17199:17278   */\n      tag_327\n      jump\t// in\n    tag_541:\n        /* \"#utility.yul\":17190:17278   */\n      swap2\n      pop\n        /* \"#utility.yul\":17006:17284   */\n      pop\n        /* \"#utility.yul\":16944:17284   */\n      swap3\n      swap2\n      pop\n      pop\n      jump\t// out\n        /* \"#utility.yul\":17290:18089   */\n    tag_72:\n        /* \"#utility.yul\":17377:17383   */\n      0x00\n        /* \"#utility.yul\":17385:17391   */\n      dup1\n        /* \"#utility.yul\":17393:17399   */\n      0x00\n        /* \"#utility.yul\":17442:17444   */\n      0x60\n        /* \"#utility.yul\":17430:17439   */\n      dup5\n        /* \"#utility.yul\":17421:17428   */\n      dup7\n        /* \"#utility.yul\":17417:17440   */\n      sub\n        /* \"#utility.yul\":17413:17445   */\n      slt\n        /* \"#utility.yul\":17410:17529   */\n      iszero\n      tag_543\n      jumpi\n        /* \"#utility.yul\":17448:17527   */\n      tag_544\n      tag_281\n      jump\t// in\n    tag_544:\n        /* \"#utility.yul\":17410:17529   */\n    tag_543:\n        /* \"#utility.yul\":17568:17569   */\n      0x00\n        /* \"#utility.yul\":17593:17646   */\n      tag_545\n        /* \"#utility.yul\":17638:17645   */\n      dup7\n        /* \"#utility.yul\":17629:17635   */\n      dup3\n        /* \"#utility.yul\":17618:17627   */\n      dup8\n        /* \"#utility.yul\":17614:17636   */\n      add\n        /* \"#utility.yul\":17593:17646   */\n      tag_286\n      jump\t// in\n    tag_545:\n        /* \"#utility.yul\":17583:17646   */\n      swap4\n      pop\n        /* \"#utility.yul\":17539:17656   */\n      pop\n        /* \"#utility.yul\":17695:17697   */\n      0x20\n        /* \"#utility.yul\":17721:17774   */\n      tag_546\n        /* \"#utility.yul\":17766:17773   */\n      dup7\n        /* \"#utility.yul\":17757:17763   */\n      dup3\n        /* \"#utility.yul\":17746:17755   */\n      dup8\n        /* \"#utility.yul\":17742:17764   */\n      add\n        /* \"#utility.yul\":17721:17774   */\n      tag_289\n      jump\t// in\n    tag_546:\n        /* \"#utility.yul\":17711:17774   */\n      swap3\n      pop\n        /* \"#utility.yul\":17666:17784   */\n      pop\n        /* \"#utility.yul\":17851:17853   */\n      0x40\n        /* \"#utility.yul\":17840:17849   */\n      dup5\n        /* \"#utility.yul\":17836:17854   */\n      add\n        /* \"#utility.yul\":17823:17855   */\n      calldataload\n        /* \"#utility.yul\":17882:17900   */\n      0xffffffffffffffff\n        /* \"#utility.yul\":17874:17880   */\n      dup2\n        /* \"#utility.yul\":17871:17901   */\n      gt\n        /* \"#utility.yul\":17868:17985   */\n      iszero\n      tag_547\n      jumpi\n        /* \"#utility.yul\":17904:17983   */\n      tag_548\n      tag_282\n      jump\t// in\n    tag_548:\n        /* \"#utility.yul\":17868:17985   */\n    tag_547:\n        /* \"#utility.yul\":18009:18072   */\n      tag_549\n        /* \"#utility.yul\":18064:18071   */\n      dup7\n        /* \"#utility.yul\":18055:18061   */\n      dup3\n        /* \"#utility.yul\":18044:18053   */\n      dup8\n        /* \"#utility.yul\":18040:18062   */\n      add\n        /* \"#utility.yul\":18009:18072   */\n      tag_328\n      jump\t// in\n    tag_549:\n        /* \"#utility.yul\":17999:18072   */\n      swap2\n      pop\n        /* \"#utility.yul\":17794:18082   */\n      pop\n        /* \"#utility.yul\":17290:18089   */\n      swap3\n      pop\n      swap3\n      pop\n      swap3\n      jump\t// out\n        /* \"#utility.yul\":18095:18569   */\n    tag_76:\n        /* \"#utility.yul\":18163:18169   */\n      0x00\n        /* \"#utility.yul\":18171:18177   */\n      dup1\n        /* \"#utility.yul\":18220:18222   */\n      0x40\n        /* \"#utility.yul\":18208:18217   */\n      dup4\n        /* \"#utility.yul\":18199:18206   */\n      dup6\n        /* \"#utility.yul\":18195:18218   */\n      sub\n        /* \"#utility.yul\":18191:18223   */\n      slt\n        /* \"#utility.yul\":18188:18307   */\n      iszero\n      tag_551\n      jumpi\n        /* \"#utility.yul\":18226:18305   */\n      tag_552\n      tag_281\n      jump\t// in\n    tag_552:\n        /* \"#utility.yul\":18188:18307   */\n    tag_551:\n        /* \"#utility.yul\":18346:18347   */\n      0x00\n        /* \"#utility.yul\":18371:18424   */\n      tag_553\n        /* \"#utility.yul\":18416:18423   */\n      dup6\n        /* \"#utility.yul\":18407:18413   */\n      dup3\n        /* \"#utility.yul\":18396:18405   */\n      dup7\n        /* \"#utility.yul\":18392:18414   */\n      add\n        /* \"#utility.yul\":18371:18424   */\n      tag_286\n      jump\t// in\n    tag_553:\n        /* \"#utility.yul\":18361:18424   */\n      swap3\n      pop\n        /* \"#utility.yul\":18317:18434   */\n      pop\n        /* \"#utility.yul\":18473:18475   */\n      0x20\n        /* \"#utility.yul\":18499:18552   */\n      tag_554\n        /* \"#utility.yul\":18544:18551   */\n      dup6\n        /* \"#utility.yul\":18535:18541   */\n      dup3\n        /* \"#utility.yul\":18524:18533   */\n      dup7\n        /* \"#utility.yul\":18520:18542   */\n      add\n        /* \"#utility.yul\":18499:18552   */\n      tag_286\n      jump\t// in\n    tag_554:\n        /* \"#utility.yul\":18489:18552   */\n      swap2\n      pop\n        /* \"#utility.yul\":18444:18562   */\n      pop\n        /* \"#utility.yul\":18095:18569   */\n      swap3\n      pop\n      swap3\n      swap1\n      pop\n      jump\t// out\n        /* \"#utility.yul\":18575:19664   */\n    tag_81:\n        /* \"#utility.yul\":18679:18685   */\n      0x00\n        /* \"#utility.yul\":18687:18693   */\n      dup1\n        /* \"#utility.yul\":18695:18701   */\n      0x00\n        /* \"#utility.yul\":18703:18709   */\n      dup1\n        /* \"#utility.yul\":18711:18717   */\n      0x00\n        /* \"#utility.yul\":18760:18763   */\n      0xa0\n        /* \"#utility.yul\":18748:18757   */\n      dup7\n        /* \"#utility.yul\":18739:18746   */\n      dup9\n        /* \"#utility.yul\":18735:18758   */\n      sub\n        /* \"#utility.yul\":18731:18764   */\n      slt\n        /* \"#utility.yul\":18728:18848   */\n      iszero\n      tag_556\n      jumpi\n        /* \"#utility.yul\":18767:18846   */\n      tag_557\n      tag_281\n      jump\t// in\n    tag_557:\n        /* \"#utility.yul\":18728:18848   */\n    tag_556:\n        /* \"#utility.yul\":18887:18888   */\n      0x00\n        /* \"#utility.yul\":18912:18965   */\n      tag_558\n        /* \"#utility.yul\":18957:18964   */\n      dup9\n        /* \"#utility.yul\":18948:18954   */\n      dup3\n        /* \"#utility.yul\":18937:18946   */\n      dup10\n        /* \"#utility.yul\":18933:18955   */\n      add\n        /* \"#utility.yul\":18912:18965   */\n      tag_286\n      jump\t// in\n    tag_558:\n        /* \"#utility.yul\":18902:18965   */\n      swap6\n      pop\n        /* \"#utility.yul\":18858:18975   */\n      pop\n        /* \"#utility.yul\":19014:19016   */\n      0x20\n        /* \"#utility.yul\":19040:19093   */\n      tag_559\n        /* \"#utility.yul\":19085:19092   */\n      dup9\n        /* \"#utility.yul\":19076:19082   */\n      dup3\n        /* \"#utility.yul\":19065:19074   */\n      dup10\n        /* \"#utility.yul\":19061:19083   */\n      add\n        /* \"#utility.yul\":19040:19093   */\n      tag_286\n      jump\t// in\n    tag_559:\n        /* \"#utility.yul\":19030:19093   */\n      swap5\n      pop\n        /* \"#utility.yul\":18985:19103   */\n      pop\n        /* \"#utility.yul\":19142:19144   */\n      0x40\n        /* \"#utility.yul\":19168:19221   */\n      tag_560\n        /* \"#utility.yul\":19213:19220   */\n      dup9\n        /* \"#utility.yul\":19204:19210   */\n      dup3\n        /* \"#utility.yul\":19193:19202   */\n      dup10\n        /* \"#utility.yul\":19189:19211   */\n      add\n        /* \"#utility.yul\":19168:19221   */\n      tag_289\n      jump\t// in\n    tag_560:\n        /* \"#utility.yul\":19158:19221   */\n      swap4\n      pop\n        /* \"#utility.yul\":19113:19231   */\n      pop\n        /* \"#utility.yul\":19270:19272   */\n      0x60\n        /* \"#utility.yul\":19296:19349   */\n      tag_561\n        /* \"#utility.yul\":19341:19348   */\n      dup9\n        /* \"#utility.yul\":19332:19338   */\n      dup3\n        /* \"#utility.yul\":19321:19330   */\n      dup10\n        /* \"#utility.yul\":19317:19339   */\n      add\n        /* \"#utility.yul\":19296:19349   */\n      tag_289\n      jump\t// in\n    tag_561:\n        /* \"#utility.yul\":19286:19349   */\n      swap3\n      pop\n        /* \"#utility.yul\":19241:19359   */\n      pop\n        /* \"#utility.yul\":19426:19429   */\n      0x80\n        /* \"#utility.yul\":19415:19424   */\n      dup7\n        /* \"#utility.yul\":19411:19430   */\n      add\n        /* \"#utility.yul\":19398:19431   */\n      calldataload\n        /* \"#utility.yul\":19458:19476   */\n      0xffffffffffffffff\n        /* \"#utility.yul\":19450:19456   */\n      dup2\n        /* \"#utility.yul\":19447:19477   */\n      gt\n        /* \"#utility.yul\":19444:19561   */\n      iszero\n      tag_562\n      jumpi\n        /* \"#utility.yul\":19480:19559   */\n      tag_563\n      tag_282\n      jump\t// in\n    tag_563:\n        /* \"#utility.yul\":19444:19561   */\n    tag_562:\n        /* \"#utility.yul\":19585:19647   */\n      tag_564\n        /* \"#utility.yul\":19639:19646   */\n      dup9\n        /* \"#utility.yul\":19630:19636   */\n      dup3\n        /* \"#utility.yul\":19619:19628   */\n      dup10\n        /* \"#utility.yul\":19615:19637   */\n      add\n        /* \"#utility.yul\":19585:19647   */\n      tag_312\n      jump\t// in\n    tag_564:\n        /* \"#utility.yul\":19575:19647   */\n      swap2\n      pop\n        /* \"#utility.yul\":19369:19657   */\n      pop\n        /* \"#utility.yul\":18575:19664   */\n      swap3\n      swap6\n      pop\n      swap3\n      swap6\n      swap1\n      swap4\n      pop\n      jump\t// out\n        /* \"#utility.yul\":19670:19999   */\n    tag_85:\n        /* \"#utility.yul\":19729:19735   */\n      0x00\n        /* \"#utility.yul\":19778:19780   */\n      0x20\n        /* \"#utility.yul\":19766:19775   */\n      dup3\n        /* \"#utility.yul\":19757:19764   */\n      dup5\n        /* \"#utility.yul\":19753:19776   */\n      sub\n        /* \"#utility.yul\":19749:19781   */\n      slt\n        /* \"#utility.yul\":19746:19865   */\n      iszero\n      tag_566\n      jumpi\n        /* \"#utility.yul\":19784:19863   */\n      tag_567\n      tag_281\n      jump\t// in\n    tag_567:\n        /* \"#utility.yul\":19746:19865   */\n    tag_566:\n        /* \"#utility.yul\":19904:19905   */\n      0x00\n        /* \"#utility.yul\":19929:19982   */\n      tag_568\n        /* \"#utility.yul\":19974:19981   */\n      dup5\n        /* \"#utility.yul\":19965:19971   */\n      dup3\n        /* \"#utility.yul\":19954:19963   */\n      dup6\n        /* \"#utility.yul\":19950:19972   */\n      add\n        /* \"#utility.yul\":19929:19982   */\n      tag_286\n      jump\t// in\n    tag_568:\n        /* \"#utility.yul\":19919:19982   */\n      swap2\n      pop\n        /* \"#utility.yul\":19875:19992   */\n      pop\n        /* \"#utility.yul\":19670:19999   */\n      swap3\n      swap2\n      pop\n      pop\n      jump\t// out\n        /* \"#utility.yul\":20005:20185   */\n    tag_329:\n        /* \"#utility.yul\":20053:20130   */\n      0x4e487b7100000000000000000000000000000000000000000000000000000000\n        /* \"#utility.yul\":20050:20051   */\n      0x00\n        /* \"#utility.yul\":20043:20131   */\n      mstore\n        /* \"#utility.yul\":20150:20154   */\n      0x22\n        /* \"#utility.yul\":20147:20148   */\n      0x04\n        /* \"#utility.yul\":20140:20155   */\n      mstore\n        /* \"#utility.yul\":20174:20178   */\n      0x24\n        /* \"#utility.yul\":20171:20172   */\n      0x00\n        /* \"#utility.yul\":20164:20179   */\n      revert\n        /* \"#utility.yul\":20191:20511   */\n    tag_95:\n        /* \"#utility.yul\":20235:20241   */\n      0x00\n        /* \"#utility.yul\":20272:20273   */\n      0x02\n        /* \"#utility.yul\":20266:20270   */\n      dup3\n        /* \"#utility.yul\":20262:20274   */\n      div\n        /* \"#utility.yul\":20252:20274   */\n      swap1\n      pop\n        /* \"#utility.yul\":20319:20320   */\n      0x01\n        /* \"#utility.yul\":20313:20317   */\n      dup3\n        /* \"#utility.yul\":20309:20321   */\n      and\n        /* \"#utility.yul\":20340:20358   */\n      dup1\n        /* \"#utility.yul\":20330:20411   */\n      tag_571\n      jumpi\n        /* \"#utility.yul\":20396:20400   */\n      0x7f\n        /* \"#utility.yul\":20388:20394   */\n      dup3\n        /* \"#utility.yul\":20384:20401   */\n      and\n        /* \"#utility.yul\":20374:20401   */\n      swap2\n      pop\n        /* \"#utility.yul\":20330:20411   */\n    tag_571:\n        /* \"#utility.yul\":20458:20460   */\n      0x20\n        /* \"#utility.yul\":20450:20456   */\n      dup3\n        /* \"#utility.yul\":20447:20461   */\n      lt\n        /* \"#utility.yul\":20427:20445   */\n      dup2\n        /* \"#utility.yul\":20424:20462   */\n      sub\n        /* \"#utility.yul\":20421:20505   */\n      tag_572\n      jumpi\n        /* \"#utility.yul\":20477:20495   */\n      tag_573\n      tag_329\n      jump\t// in\n    tag_573:\n        /* \"#utility.yul\":20421:20505   */\n    tag_572:\n        /* \"#utility.yul\":20242:20511   */\n      pop\n        /* \"#utility.yul\":20191:20511   */\n      swap2\n      swap1\n      pop\n      jump\t// out\n        /* \"#utility.yul\":20517:20849   */\n    tag_109:\n        /* \"#utility.yul\":20638:20642   */\n      0x00\n        /* \"#utility.yul\":20676:20678   */\n      0x40\n        /* \"#utility.yul\":20665:20674   */\n      dup3\n        /* \"#utility.yul\":20661:20679   */\n      add\n        /* \"#utility.yul\":20653:20679   */\n      swap1\n      pop\n        /* \"#utility.yul\":20689:20760   */\n      tag_575\n        /* \"#utility.yul\":20757:20758   */\n      0x00\n        /* \"#utility.yul\":20746:20755   */\n      dup4\n        /* \"#utility.yul\":20742:20759   */\n      add\n        /* \"#utility.yul\":20733:20739   */\n      dup6\n        /* \"#utility.yul\":20689:20760   */\n      tag_323\n      jump\t// in\n    tag_575:\n        /* \"#utility.yul\":20770:20842   */\n      tag_576\n        /* \"#utility.yul\":20838:20840   */\n      0x20\n        /* \"#utility.yul\":20827:20836   */\n      dup4\n        /* \"#utility.yul\":20823:20841   */\n      add\n        /* \"#utility.yul\":20814:20820   */\n      dup5\n        /* \"#utility.yul\":20770:20842   */\n      tag_323\n      jump\t// in\n    tag_576:\n        /* \"#utility.yul\":20517:20849   */\n      swap4\n      swap3\n      pop\n      pop\n      pop\n      jump\t// out\n        /* \"#utility.yul\":20855:21187   */\n    tag_115:\n        /* \"#utility.yul\":20976:20980   */\n      0x00\n        /* \"#utility.yul\":21014:21016   */\n      0x40\n        /* \"#utility.yul\":21003:21012   */\n      dup3\n        /* \"#utility.yul\":20999:21017   */\n      add\n        /* \"#utility.yul\":20991:21017   */\n      swap1\n      pop\n        /* \"#utility.yul\":21027:21098   */\n      tag_578\n        /* \"#utility.yul\":21095:21096   */\n      0x00\n        /* \"#utility.yul\":21084:21093   */\n      dup4\n        /* \"#utility.yul\":21080:21097   */\n      add\n        /* \"#utility.yul\":21071:21077   */\n      dup6\n        /* \"#utility.yul\":21027:21098   */\n      tag_290\n      jump\t// in\n    tag_578:\n        /* \"#utility.yul\":21108:21180   */\n      tag_579\n        /* \"#utility.yul\":21176:21178   */\n      0x20\n        /* \"#utility.yul\":21165:21174   */\n      dup4\n        /* \"#utility.yul\":21161:21179   */\n      add\n        /* \"#utility.yul\":21152:21158   */\n      dup5\n        /* \"#utility.yul\":21108:21180   */\n      tag_290\n      jump\t// in\n    tag_579:\n        /* \"#utility.yul\":20855:21187   */\n      swap4\n      swap3\n      pop\n      pop\n      pop\n      jump\t// out\n        /* \"#utility.yul\":21193:21373   */\n    tag_130:\n        /* \"#utility.yul\":21241:21318   */\n      0x4e487b7100000000000000000000000000000000000000000000000000000000\n        /* \"#utility.yul\":21238:21239   */\n      0x00\n        /* \"#utility.yul\":21231:21319   */\n      mstore\n        /* \"#utility.yul\":21338:21342   */\n      0x32\n        /* \"#utility.yul\":21335:21336   */\n      0x04\n        /* \"#utility.yul\":21328:21343   */\n      mstore\n        /* \"#utility.yul\":21362:21366   */\n      0x24\n        /* \"#utility.yul\":21359:21360   */\n      0x00\n        /* \"#utility.yul\":21352:21367   */\n      revert\n        /* \"#utility.yul\":21379:21520   */\n    tag_330:\n        /* \"#utility.yul\":21428:21432   */\n      0x00\n        /* \"#utility.yul\":21451:21454   */\n      dup2\n        /* \"#utility.yul\":21443:21454   */\n      swap1\n      pop\n        /* \"#utility.yul\":21474:21477   */\n      dup2\n        /* \"#utility.yul\":21471:21472   */\n      0x00\n        /* \"#utility.yul\":21464:21478   */\n      mstore\n        /* \"#utility.yul\":21508:21512   */\n      0x20\n        /* \"#utility.yul\":21505:21506   */\n      0x00\n        /* \"#utility.yul\":21495:21513   */\n      keccak256\n        /* \"#utility.yul\":21487:21513   */\n      swap1\n      pop\n        /* \"#utility.yul\":21379:21520   */\n      swap2\n      swap1\n      pop\n      jump\t// out\n        /* \"#utility.yul\":21526:21619   */\n    tag_331:\n        /* \"#utility.yul\":21563:21569   */\n      0x00\n        /* \"#utility.yul\":21610:21612   */\n      0x20\n        /* \"#utility.yul\":21605:21607   */\n      0x1f\n        /* \"#utility.yul\":21598:21603   */\n      dup4\n        /* \"#utility.yul\":21594:21608   */\n      add\n        /* \"#utility.yul\":21590:21613   */\n      div\n        /* \"#utility.yul\":21580:21613   */\n      swap1\n      pop\n        /* \"#utility.yul\":21526:21619   */\n      swap2\n      swap1\n      pop\n      jump\t// out\n        /* \"#utility.yul\":21625:21732   */\n    tag_332:\n        /* \"#utility.yul\":21669:21677   */\n      0x00\n        /* \"#utility.yul\":21719:21724   */\n      dup3\n        /* \"#utility.yul\":21713:21717   */\n      dup3\n        /* \"#utility.yul\":21709:21725   */\n      shl\n        /* \"#utility.yul\":21688:21725   */\n      swap1\n      pop\n        /* \"#utility.yul\":21625:21732   */\n      swap3\n      swap2\n      pop\n      pop\n      jump\t// out\n        /* \"#utility.yul\":21738:22131   */\n    tag_333:\n        /* \"#utility.yul\":21807:21813   */\n      0x00\n        /* \"#utility.yul\":21857:21858   */\n      0x08\n        /* \"#utility.yul\":21845:21855   */\n      dup4\n        /* \"#utility.yul\":21841:21859   */\n      mul\n        /* \"#utility.yul\":21880:21977   */\n      tag_585\n        /* \"#utility.yul\":21910:21976   */\n      0xffffffffffffffffffffffffffffffffffffffffffffffffffffffffffffffff\n        /* \"#utility.yul\":21899:21908   */\n      dup3\n        /* \"#utility.yul\":21880:21977   */\n      tag_332\n      jump\t// in\n    tag_585:\n        /* \"#utility.yul\":21998:22037   */\n      tag_586\n        /* \"#utility.yul\":22028:22036   */\n      dup7\n        /* \"#utility.yul\":22017:22026   */\n      dup4\n        /* \"#utility.yul\":21998:22037   */\n      tag_332\n      jump\t// in\n    tag_586:\n        /* \"#utility.yul\":21986:22037   */\n      swap6\n      pop\n        /* \"#utility.yul\":22070:22074   */\n      dup1\n        /* \"#utility.yul\":22066:22075   */\n      not\n        /* \"#utility.yul\":22059:22064   */\n      dup5\n        /* \"#utility.yul\":22055:22076   */\n      and\n        /* \"#utility.yul\":22046:22076   */\n      swap4\n      pop\n        /* \"#utility.yul\":22119:22123   */\n      dup1\n        /* \"#utility.yul\":22109:22117   */\n      dup7\n        /* \"#utility.yul\":22105:22124   */\n      and\n        /* \"#utility.yul\":22098:22103   */\n      dup5\n        /* \"#utility.yul\":22095:22125   */\n      or\n        /* \"#utility.yul\":22085:22125   */\n      swap3\n      pop\n        /* \"#utility.yul\":21814:22131   */\n      pop\n      pop\n        /* \"#utility.yul\":21738:22131   */\n      swap4\n      swap3\n      pop\n      pop\n      pop\n      jump\t// out\n        /* \"#utility.yul\":22137:22197   */\n    tag_334:\n        /* \"#utility.yul\":22165:22168   */\n      0x00\n        /* \"#utility.yul\":22186:22191   */\n      dup2\n        /* \"#utility.yul\":22179:22191   */\n      swap1\n      pop\n        /* \"#utility.yul\":22137:22197   */\n      swap2\n      swap1\n      pop\n      jump\t// out\n        /* \"#utility.yul\":22203:22345   */\n    tag_335:\n        /* \"#utility.yul\":22253:22262   */\n      0x00\n        /* \"#utility.yul\":22286:22339   */\n      tag_589\n        /* \"#utility.yul\":22304:22338   */\n      tag_590\n        /* \"#utility.yul\":22313:22337   */\n      tag_591\n        /* \"#utility.yul\":22331:22336   */\n      dup5\n        /* \"#utility.yul\":22313:22337   */\n      tag_287\n      jump\t// in\n    tag_591:\n        /* \"#utility.yul\":22304:22338   */\n      tag_334\n      jump\t// in\n    tag_590:\n        /* \"#utility.yul\":22286:22339   */\n      tag_287\n      jump\t// in\n    tag_589:\n        /* \"#utility.yul\":22273:22339   */\n      swap1\n      pop\n        /* \"#utility.yul\":22203:22345   */\n      swap2\n      swap1\n      pop\n      jump\t// out\n        /* \"#utility.yul\":22351:22426   */\n    tag_336:\n        /* \"#utility.yul\":22394:22397   */\n      0x00\n        /* \"#utility.yul\":22415:22420   */\n      dup2\n        /* \"#utility.yul\":22408:22420   */\n      swap1\n      pop\n        /* \"#utility.yul\":22351:22426   */\n      swap2\n      swap1\n      pop\n      jump\t// out\n        /* \"#utility.yul\":22432:22701   */\n    tag_337:\n        /* \"#utility.yul\":22542:22581   */\n      tag_594\n        /* \"#utility.yul\":22573:22580   */\n      dup4\n        /* \"#utility.yul\":22542:22581   */\n      tag_335\n      jump\t// in\n    tag_594:\n        /* \"#utility.yul\":22603:22694   */\n      tag_595\n        /* \"#utility.yul\":22652:22693   */\n      tag_596\n        /* \"#utility.yul\":22676:22692   */\n      dup3\n        /* \"#utility.yul\":22652:22693   */\n      tag_336\n      jump\t// in\n    tag_596:\n        /* \"#utility.yul\":22644:22650   */\n      dup5\n        /* \"#utility.yul\":22637:22641   */\n      dup5\n        /* \"#utility.yul\":22631:22642   */\n      sload\n        /* \"#utility.yul\":22603:22694   */\n      tag_333\n      jump\t// in\n    tag_595:\n        /* \"#utility.yul\":22597:22601   */\n      dup3\n        /* \"#utility.yul\":22590:22695   */\n      sstore\n        /* \"#utility.yul\":22508:22701   */\n      pop\n        /* \"#utility.yul\":22432:22701   */\n      pop\n      pop\n      pop\n      jump\t// out\n        /* \"#utility.yul\":22707:22780   */\n    tag_338:\n        /* \"#utility.yul\":22752:22755   */\n      0x00\n        /* \"#utility.yul\":22707:22780   */\n      swap1\n      jump\t// out\n        /* \"#utility.yul\":22786:22975   */\n    tag_339:\n        /* \"#utility.yul\":22863:22895   */\n      tag_599\n      tag_338\n      jump\t// in\n    tag_599:\n        /* \"#utility.yul\":22904:22969   */\n      tag_600\n        /* \"#utility.yul\":22962:22968   */\n      dup2\n        /* \"#utility.yul\":22954:22960   */\n      dup5\n        /* \"#utility.yul\":22948:22952   */\n      dup5\n        /* \"#utility.yul\":22904:22969   */\n      tag_337\n      jump\t// in\n    tag_600:\n        /* \"#utility.yul\":22839:22975   */\n      pop\n        /* \"#utility.yul\":22786:22975   */\n      pop\n      pop\n      jump\t// out\n        /* \"#utility.yul\":22981:23167   */\n    tag_340:\n        /* \"#utility.yul\":23041:23161   */\n    tag_602:\n        /* \"#utility.yul\":23058:23061   */\n      dup2\n        /* \"#utility.yul\":23051:23056   */\n      dup2\n        /* \"#utility.yul\":23048:23062   */\n      lt\n        /* \"#utility.yul\":23041:23161   */\n      iszero\n      tag_604\n      jumpi\n        /* \"#utility.yul\":23112:23151   */\n      tag_605\n        /* \"#utility.yul\":23149:23150   */\n      0x00\n        /* \"#utility.yul\":23142:23147   */\n      dup3\n        /* \"#utility.yul\":23112:23151   */\n      tag_339\n      jump\t// in\n    tag_605:\n        /* \"#utility.yul\":23085:23086   */\n      0x01\n        /* \"#utility.yul\":23078:23083   */\n      dup2\n        /* \"#utility.yul\":23074:23087   */\n      add\n        /* \"#utility.yul\":23065:23087   */\n      swap1\n      pop\n        /* \"#utility.yul\":23041:23161   */\n      jump(tag_602)\n    tag_604:\n        /* \"#utility.yul\":22981:23167   */\n      pop\n      pop\n      jump\t// out\n        /* \"#utility.yul\":23173:23716   */\n    tag_341:\n        /* \"#utility.yul\":23274:23276   */\n      0x1f\n        /* \"#utility.yul\":23269:23272   */\n      dup3\n        /* \"#utility.yul\":23266:23277   */\n      gt\n        /* \"#utility.yul\":23263:23709   */\n      iszero\n      tag_607\n      jumpi\n        /* \"#utility.yul\":23308:23346   */\n      tag_608\n        /* \"#utility.yul\":23340:23345   */\n      dup2\n        /* \"#utility.yul\":23308:23346   */\n      tag_330\n      jump\t// in\n    tag_608:\n        /* \"#utility.yul\":23392:23421   */\n      tag_609\n        /* \"#utility.yul\":23410:23420   */\n      dup5\n        /* \"#utility.yul\":23392:23421   */\n      tag_331\n      jump\t// in\n    tag_609:\n        /* \"#utility.yul\":23382:23390   */\n      dup2\n        /* \"#utility.yul\":23378:23422   */\n      add\n        /* \"#utility.yul\":23575:23577   */\n      0x20\n        /* \"#utility.yul\":23563:23573   */\n      dup6\n        /* \"#utility.yul\":23560:23578   */\n      lt\n        /* \"#utility.yul\":23557:23606   */\n      iszero\n      tag_610\n      jumpi\n        /* \"#utility.yul\":23596:23604   */\n      dup2\n        /* \"#utility.yul\":23581:23604   */\n      swap1\n      pop\n        /* \"#utility.yul\":23557:23606   */\n    tag_610:\n        /* \"#utility.yul\":23619:23699   */\n      tag_611\n        /* \"#utility.yul\":23675:23697   */\n      tag_612\n        /* \"#utility.yul\":23693:23696   */\n      dup6\n        /* \"#utility.yul\":23675:23697   */\n      tag_331\n      jump\t// in\n    tag_612:\n        /* \"#utility.yul\":23665:23673   */\n      dup4\n        /* \"#utility.yul\":23661:23698   */\n      add\n        /* \"#utility.yul\":23648:23659   */\n      dup3\n        /* \"#utility.yul\":23619:23699   */\n      tag_340\n      jump\t// in\n    tag_611:\n        /* \"#utility.yul\":23278:23709   */\n      pop\n      pop\n        /* \"#utility.yul\":23263:23709   */\n    tag_607:\n        /* \"#utility.yul\":23173:23716   */\n      pop\n      pop\n      pop\n      jump\t// out\n        /* \"#utility.yul\":23722:23839   */\n    tag_342:\n        /* \"#utility.yul\":23776:23784   */\n      0x00\n        /* \"#utility.yul\":23826:23831   */\n      dup3\n        /* \"#utility.yul\":23820:23824   */\n      dup3\n        /* \"#utility.yul\":23816:23832   */\n      shr\n        /* \"#utility.yul\":23795:23832   */\n      swap1\n      pop\n        /* \"#utility.yul\":23722:23839   */\n      swap3\n      swap2\n      pop\n      pop\n      jump\t// out\n        /* \"#utility.yul\":23845:24014   */\n    tag_343:\n        /* \"#utility.yul\":23889:23895   */\n      0x00\n        /* \"#utility.yul\":23922:23973   */\n      tag_615\n        /* \"#utility.yul\":23970:23971   */\n      0x00\n        /* \"#utility.yul\":23966:23972   */\n      not\n        /* \"#utility.yul\":23958:23963   */\n      dup5\n        /* \"#utility.yul\":23955:23956   */\n      0x08\n        /* \"#utility.yul\":23951:23964   */\n      mul\n        /* \"#utility.yul\":23922:23973   */\n      tag_342\n      jump\t// in\n    tag_615:\n        /* \"#utility.yul\":23918:23974   */\n      not\n        /* \"#utility.yul\":24003:24007   */\n      dup1\n        /* \"#utility.yul\":23997:24001   */\n      dup4\n        /* \"#utility.yul\":23993:24008   */\n      and\n        /* \"#utility.yul\":23983:24008   */\n      swap2\n      pop\n        /* \"#utility.yul\":23896:24014   */\n      pop\n        /* \"#utility.yul\":23845:24014   */\n      swap3\n      swap2\n      pop\n      pop\n      jump\t// out\n        /* \"#utility.yul\":24019:24314   */\n    tag_344:\n        /* \"#utility.yul\":24095:24099   */\n      0x00\n        /* \"#utility.yul\":24241:24270   */\n      tag_617\n        /* \"#utility.yul\":24266:24269   */\n      dup4\n        /* \"#utility.yul\":24260:24264   */\n      dup4\n        /* \"#utility.yul\":24241:24270   */\n      tag_343\n      jump\t// in\n    tag_617:\n        /* \"#utility.yul\":24233:24270   */\n      swap2\n      pop\n        /* \"#utility.yul\":24303:24306   */\n      dup3\n        /* \"#utility.yul\":24300:24301   */\n      0x02\n        /* \"#utility.yul\":24296:24307   */\n      mul\n        /* \"#utility.yul\":24290:24294   */\n      dup3\n        /* \"#utility.yul\":24287:24308   */\n      or\n        /* \"#utility.yul\":24279:24308   */\n      swap1\n      pop\n        /* \"#utility.yul\":24019:24314   */\n      swap3\n      swap2\n      pop\n      pop\n      jump\t// out\n        /* \"#utility.yul\":24319:25714   */\n    tag_153:\n        /* \"#utility.yul\":24436:24473   */\n      tag_619\n        /* \"#utility.yul\":24469:24472   */\n      dup3\n        /* \"#utility.yul\":24436:24473   */\n      tag_296\n      jump\t// in\n    tag_619:\n        /* \"#utility.yul\":24538:24556   */\n      0xffffffffffffffff\n        /* \"#utility.yul\":24530:24536   */\n      dup2\n        /* \"#utility.yul\":24527:24557   */\n      gt\n        /* \"#utility.yul\":24524:24580   */\n      iszero\n      tag_620\n      jumpi\n        /* \"#utility.yul\":24560:24578   */\n      tag_621\n      tag_118\n      jump\t// in\n    tag_621:\n        /* \"#utility.yul\":24524:24580   */\n    tag_620:\n        /* \"#utility.yul\":24604:24642   */\n      tag_622\n        /* \"#utility.yul\":24636:24640   */\n      dup3\n        /* \"#utility.yul\":24630:24641   */\n      sload\n        /* \"#utility.yul\":24604:24642   */\n      tag_95\n      jump\t// in\n    tag_622:\n        /* \"#utility.yul\":24689:24756   */\n      tag_623\n        /* \"#utility.yul\":24749:24755   */\n      dup3\n        /* \"#utility.yul\":24741:24747   */\n      dup3\n        /* \"#utility.yul\":24735:24739   */\n      dup6\n        /* \"#utility.yul\":24689:24756   */\n      tag_341\n      jump\t// in\n    tag_623:\n        /* \"#utility.yul\":24783:24784   */\n      0x00\n        /* \"#utility.yul\":24807:24811   */\n      0x20\n        /* \"#utility.yul\":24794:24811   */\n      swap1\n      pop\n        /* \"#utility.yul\":24839:24841   */\n      0x1f\n        /* \"#utility.yul\":24831:24837   */\n      dup4\n        /* \"#utility.yul\":24828:24842   */\n      gt\n        /* \"#utility.yul\":24856:24857   */\n      0x01\n        /* \"#utility.yul\":24851:25469   */\n      dup2\n      eq\n      tag_625\n      jumpi\n        /* \"#utility.yul\":25513:25514   */\n      0x00\n        /* \"#utility.yul\":25530:25536   */\n      dup5\n        /* \"#utility.yul\":25527:25604   */\n      iszero\n      tag_626\n      jumpi\n        /* \"#utility.yul\":25579:25588   */\n      dup3\n        /* \"#utility.yul\":25574:25577   */\n      dup8\n        /* \"#utility.yul\":25570:25589   */\n      add\n        /* \"#utility.yul\":25564:25590   */\n      mload\n        /* \"#utility.yul\":25555:25590   */\n      swap1\n      pop\n        /* \"#utility.yul\":25527:25604   */\n    tag_626:\n        /* \"#utility.yul\":25630:25697   */\n      tag_627\n        /* \"#utility.yul\":25690:25696   */\n      dup6\n        /* \"#utility.yul\":25683:25688   */\n      dup3\n        /* \"#utility.yul\":25630:25697   */\n      tag_344\n      jump\t// in\n    tag_627:\n        /* \"#utility.yul\":25624:25628   */\n      dup7\n        /* \"#utility.yul\":25617:25698   */\n      sstore\n        /* \"#utility.yul\":25486:25708   */\n      pop\n        /* \"#utility.yul\":24821:25708   */\n      jump(tag_624)\n        /* \"#utility.yul\":24851:25469   */\n    tag_625:\n        /* \"#utility.yul\":24903:24907   */\n      0x1f\n        /* \"#utility.yul\":24899:24908   */\n      not\n        /* \"#utility.yul\":24891:24897   */\n      dup5\n        /* \"#utility.yul\":24887:24909   */\n      and\n        /* \"#utility.yul\":24937:24974   */\n      tag_628\n        /* \"#utility.yul\":24969:24973   */\n      dup7\n        /* \"#utility.yul\":24937:24974   */\n      tag_330\n      jump\t// in\n    tag_628:\n        /* \"#utility.yul\":24996:24997   */\n      0x00\n        /* \"#utility.yul\":25010:25218   */\n    tag_629:\n        /* \"#utility.yul\":25024:25031   */\n      dup3\n        /* \"#utility.yul\":25021:25022   */\n      dup2\n        /* \"#utility.yul\":25018:25032   */\n      lt\n        /* \"#utility.yul\":25010:25218   */\n      iszero\n      tag_631\n      jumpi\n        /* \"#utility.yul\":25103:25112   */\n      dup5\n        /* \"#utility.yul\":25098:25101   */\n      dup10\n        /* \"#utility.yul\":25094:25113   */\n      add\n        /* \"#utility.yul\":25088:25114   */\n      mload\n        /* \"#utility.yul\":25080:25086   */\n      dup3\n        /* \"#utility.yul\":25073:25115   */\n      sstore\n        /* \"#utility.yul\":25154:25155   */\n      0x01\n        /* \"#utility.yul\":25146:25152   */\n      dup3\n        /* \"#utility.yul\":25142:25156   */\n      add\n        /* \"#utility.yul\":25132:25156   */\n      swap2\n      pop\n        /* \"#utility.yul\":25201:25203   */\n      0x20\n        /* \"#utility.yul\":25190:25199   */\n      dup6\n        /* \"#utility.yul\":25186:25204   */\n      add\n        /* \"#utility.yul\":25173:25204   */\n      swap5\n      pop\n        /* \"#utility.yul\":25047:25051   */\n      0x20\n        /* \"#utility.yul\":25044:25045   */\n      dup2\n        /* \"#utility.yul\":25040:25052   */\n      add\n        /* \"#utility.yul\":25035:25052   */\n      swap1\n      pop\n        /* \"#utility.yul\":25010:25218   */\n      jump(tag_629)\n    tag_631:\n        /* \"#utility.yul\":25246:25252   */\n      dup7\n        /* \"#utility.yul\":25237:25244   */\n      dup4\n        /* \"#utility.yul\":25234:25253   */\n      lt\n        /* \"#utility.yul\":25231:25410   */\n      iszero\n      tag_632\n      jumpi\n        /* \"#utility.yul\":25304:25313   */\n      dup5\n        /* \"#utility.yul\":25299:25302   */\n      dup10\n        /* \"#utility.yul\":25295:25314   */\n      add\n        /* \"#utility.yul\":25289:25315   */\n      mload\n        /* \"#utility.yul\":25347:25395   */\n      tag_633\n        /* \"#utility.yul\":25389:25393   */\n      0x1f\n        /* \"#utility.yul\":25381:25387   */\n      dup10\n        /* \"#utility.yul\":25377:25394   */\n      and\n        /* \"#utility.yul\":25366:25375   */\n      dup3\n        /* \"#utility.yul\":25347:25395   */\n      tag_343\n      jump\t// in\n    tag_633:\n        /* \"#utility.yul\":25339:25345   */\n      dup4\n        /* \"#utility.yul\":25332:25396   */\n      sstore\n        /* \"#utility.yul\":25254:25410   */\n      pop\n        /* \"#utility.yul\":25231:25410   */\n    tag_632:\n        /* \"#utility.yul\":25456:25457   */\n      0x01\n        /* \"#utility.yul\":25452:25453   */\n      0x02\n        /* \"#utility.yul\":25444:25450   */\n      dup9\n        /* \"#utility.yul\":25440:25454   */\n      mul\n        /* \"#utility.yul\":25436:25458   */\n      add\n        /* \"#utility.yul\":25430:25434   */\n      dup9\n        /* \"#utility.yul\":25423:25459   */\n      sstore\n        /* \"#utility.yul\":24858:25469   */\n      pop\n      pop\n      pop\n        /* \"#utility.yul\":24821:25708   */\n    tag_624:\n      pop\n        /* \"#utility.yul\":24411:25714   */\n      pop\n      pop\n      pop\n        /* \"#utility.yul\":24319:25714   */\n      pop\n      pop\n      jump\t// out\n        /* \"#utility.yul\":25720:25900   */\n    tag_345:\n        /* \"#utility.yul\":25768:25845   */\n      0x4e487b7100000000000000000000000000000000000000000000000000000000\n        /* \"#utility.yul\":25765:25766   */\n      0x00\n        /* \"#utility.yul\":25758:25846   */\n      mstore\n        /* \"#utility.yul\":25865:25869   */\n      0x11\n        /* \"#utility.yul\":25862:25863   */\n      0x04\n        /* \"#utility.yul\":25855:25870   */\n      mstore\n        /* \"#utility.yul\":25889:25893   */\n      0x24\n        /* \"#utility.yul\":25886:25887   */\n      0x00\n        /* \"#utility.yul\":25879:25894   */\n      revert\n        /* \"#utility.yul\":25906:26139   */\n    tag_155:\n        /* \"#utility.yul\":25945:25948   */\n      0x00\n        /* \"#utility.yul\":25968:25992   */\n      tag_636\n        /* \"#utility.yul\":25986:25991   */\n      dup3\n        /* \"#utility.yul\":25968:25992   */\n      tag_287\n      jump\t// in\n    tag_636:\n        /* \"#utility.yul\":25959:25992   */\n      swap2\n      pop\n        /* \"#utility.yul\":26014:26080   */\n      0xffffffffffffffffffffffffffffffffffffffffffffffffffffffffffffffff\n        /* \"#utility.yul\":26007:26012   */\n      dup3\n        /* \"#utility.yul\":26004:26081   */\n      sub\n        /* \"#utility.yul\":26001:26104   */\n      tag_637\n      jumpi\n        /* \"#utility.yul\":26084:26102   */\n      tag_638\n      tag_345\n      jump\t// in\n    tag_638:\n        /* \"#utility.yul\":26001:26104   */\n    tag_637:\n        /* \"#utility.yul\":26131:26132   */\n      0x01\n        /* \"#utility.yul\":26124:26129   */\n      dup3\n        /* \"#utility.yul\":26120:26133   */\n      add\n        /* \"#utility.yul\":26113:26133   */\n      swap1\n      pop\n        /* \"#utility.yul\":25906:26139   */\n      swap2\n      swap1\n      pop\n      jump\t// out\n        /* \"#utility.yul\":26145:26698   */\n    tag_232:\n        /* \"#utility.yul\":26322:26326   */\n      0x00\n        /* \"#utility.yul\":26360:26363   */\n      0x80\n        /* \"#utility.yul\":26349:26358   */\n      dup3\n        /* \"#utility.yul\":26345:26364   */\n      add\n        /* \"#utility.yul\":26337:26364   */\n      swap1\n      pop\n        /* \"#utility.yul\":26374:26445   */\n      tag_640\n        /* \"#utility.yul\":26442:26443   */\n      0x00\n        /* \"#utility.yul\":26431:26440   */\n      dup4\n        /* \"#utility.yul\":26427:26444   */\n      add\n        /* \"#utility.yul\":26418:26424   */\n      dup8\n        /* \"#utility.yul\":26374:26445   */\n      tag_323\n      jump\t// in\n    tag_640:\n        /* \"#utility.yul\":26455:26527   */\n      tag_641\n        /* \"#utility.yul\":26523:26525   */\n      0x20\n        /* \"#utility.yul\":26512:26521   */\n      dup4\n        /* \"#utility.yul\":26508:26526   */\n      add\n        /* \"#utility.yul\":26499:26505   */\n      dup7\n        /* \"#utility.yul\":26455:26527   */\n      tag_290\n      jump\t// in\n    tag_641:\n        /* \"#utility.yul\":26537:26609   */\n      tag_642\n        /* \"#utility.yul\":26605:26607   */\n      0x40\n        /* \"#utility.yul\":26594:26603   */\n      dup4\n        /* \"#utility.yul\":26590:26608   */\n      add\n        /* \"#utility.yul\":26581:26587   */\n      dup6\n        /* \"#utility.yul\":26537:26609   */\n      tag_290\n      jump\t// in\n    tag_642:\n        /* \"#utility.yul\":26619:26691   */\n      tag_643\n        /* \"#utility.yul\":26687:26689   */\n      0x60\n        /* \"#utility.yul\":26676:26685   */\n      dup4\n        /* \"#utility.yul\":26672:26690   */\n      add\n        /* \"#utility.yul\":26663:26669   */\n      dup5\n        /* \"#utility.yul\":26619:26691   */\n      tag_290\n      jump\t// in\n    tag_643:\n        /* \"#utility.yul\":26145:26698   */\n      swap6\n      swap5\n      pop\n      pop\n      pop\n      pop\n      pop\n      jump\t// out\n        /* \"#utility.yul\":26704:26895   */\n    tag_235:\n        /* \"#utility.yul\":26744:26747   */\n      0x00\n        /* \"#utility.yul\":26763:26783   */\n      tag_645\n        /* \"#utility.yul\":26781:26782   */\n      dup3\n        /* \"#utility.yul\":26763:26783   */\n      tag_287\n      jump\t// in\n    tag_645:\n        /* \"#utility.yul\":26758:26783   */\n      swap2\n      pop\n        /* \"#utility.yul\":26797:26817   */\n      tag_646\n        /* \"#utility.yul\":26815:26816   */\n      dup4\n        /* \"#utility.yul\":26797:26817   */\n      tag_287\n      jump\t// in\n    tag_646:\n        /* \"#utility.yul\":26792:26817   */\n      swap3\n      pop\n        /* \"#utility.yul\":26840:26841   */\n      dup3\n        /* \"#utility.yul\":26837:26838   */\n      dup3\n        /* \"#utility.yul\":26833:26842   */\n      add\n        /* \"#utility.yul\":26826:26842   */\n      swap1\n      pop\n        /* \"#utility.yul\":26861:26864   */\n      dup1\n        /* \"#utility.yul\":26858:26859   */\n      dup3\n        /* \"#utility.yul\":26855:26865   */\n      gt\n        /* \"#utility.yul\":26852:26888   */\n      iszero\n      tag_647\n      jumpi\n        /* \"#utility.yul\":26868:26886   */\n      tag_648\n      tag_345\n      jump\t// in\n    tag_648:\n        /* \"#utility.yul\":26852:26888   */\n    tag_647:\n        /* \"#utility.yul\":26704:26895   */\n      swap3\n      swap2\n      pop\n      pop\n      jump\t// out\n        /* \"#utility.yul\":26901:27535   */\n    tag_242:\n        /* \"#utility.yul\":27122:27126   */\n      0x00\n        /* \"#utility.yul\":27160:27162   */\n      0x40\n        /* \"#utility.yul\":27149:27158   */\n      dup3\n        /* \"#utility.yul\":27145:27163   */\n      add\n        /* \"#utility.yul\":27137:27163   */\n      swap1\n      pop\n        /* \"#utility.yul\":27209:27218   */\n      dup2\n        /* \"#utility.yul\":27203:27207   */\n      dup2\n        /* \"#utility.yul\":27199:27219   */\n      sub\n        /* \"#utility.yul\":27195:27196   */\n      0x00\n        /* \"#utility.yul\":27184:27193   */\n      dup4\n        /* \"#utility.yul\":27180:27197   */\n      add\n        /* \"#utility.yul\":27173:27220   */\n      mstore\n        /* \"#utility.yul\":27237:27345   */\n      tag_650\n        /* \"#utility.yul\":27340:27344   */\n      dup2\n        /* \"#utility.yul\":27331:27337   */\n      dup6\n        /* \"#utility.yul\":27237:27345   */\n      tag_322\n      jump\t// in\n    tag_650:\n        /* \"#utility.yul\":27229:27345   */\n      swap1\n      pop\n        /* \"#utility.yul\":27392:27401   */\n      dup2\n        /* \"#utility.yul\":27386:27390   */\n      dup2\n        /* \"#utility.yul\":27382:27402   */\n      sub\n        /* \"#utility.yul\":27377:27379   */\n      0x20\n        /* \"#utility.yul\":27366:27375   */\n      dup4\n        /* \"#utility.yul\":27362:27380   */\n      add\n        /* \"#utility.yul\":27355:27403   */\n      mstore\n        /* \"#utility.yul\":27420:27528   */\n      tag_651\n        /* \"#utility.yul\":27523:27527   */\n      dup2\n        /* \"#utility.yul\":27514:27520   */\n      dup5\n        /* \"#utility.yul\":27420:27528   */\n      tag_322\n      jump\t// in\n    tag_651:\n        /* \"#utility.yul\":27412:27528   */\n      swap1\n      pop\n        /* \"#utility.yul\":26901:27535   */\n      swap4\n      swap3\n      pop\n      pop\n      pop\n      jump\t// out\n        /* \"#utility.yul\":27541:27639   */\n    tag_346:\n        /* \"#utility.yul\":27592:27598   */\n      0x00\n        /* \"#utility.yul\":27626:27631   */\n      dup2\n        /* \"#utility.yul\":27620:27632   */\n      mload\n        /* \"#utility.yul\":27610:27632   */\n      swap1\n      pop\n        /* \"#utility.yul\":27541:27639   */\n      swap2\n      swap1\n      pop\n      jump\t// out\n        /* \"#utility.yul\":27645:27813   */\n    tag_347:\n        /* \"#utility.yul\":27728:27739   */\n      0x00\n        /* \"#utility.yul\":27762:27768   */\n      dup3\n        /* \"#utility.yul\":27757:27760   */\n      dup3\n        /* \"#utility.yul\":27750:27769   */\n      mstore\n        /* \"#utility.yul\":27802:27806   */\n      0x20\n        /* \"#utility.yul\":27797:27800   */\n      dup3\n        /* \"#utility.yul\":27793:27807   */\n      add\n        /* \"#utility.yul\":27778:27807   */\n      swap1\n      pop\n        /* \"#utility.yul\":27645:27813   */\n      swap3\n      swap2\n      pop\n      pop\n      jump\t// out\n        /* \"#utility.yul\":27819:28192   */\n    tag_348:\n        /* \"#utility.yul\":27905:27908   */\n      0x00\n        /* \"#utility.yul\":27933:27971   */\n      tag_655\n        /* \"#utility.yul\":27965:27970   */\n      dup3\n        /* \"#utility.yul\":27933:27971   */\n      tag_346\n      jump\t// in\n    tag_655:\n        /* \"#utility.yul\":27987:28057   */\n      tag_656\n        /* \"#utility.yul\":28050:28056   */\n      dup2\n        /* \"#utility.yul\":28045:28048   */\n      dup6\n        /* \"#utility.yul\":27987:28057   */\n      tag_347\n      jump\t// in\n    tag_656:\n        /* \"#utility.yul\":27980:28057   */\n      swap4\n      pop\n        /* \"#utility.yul\":28066:28131   */\n      tag_657\n        /* \"#utility.yul\":28124:28130   */\n      dup2\n        /* \"#utility.yul\":28119:28122   */\n      dup6\n        /* \"#utility.yul\":28112:28116   */\n      0x20\n        /* \"#utility.yul\":28105:28110   */\n      dup7\n        /* \"#utility.yul\":28101:28117   */\n      add\n        /* \"#utility.yul\":28066:28131   */\n      tag_298\n      jump\t// in\n    tag_657:\n        /* \"#utility.yul\":28156:28185   */\n      tag_658\n        /* \"#utility.yul\":28178:28184   */\n      dup2\n        /* \"#utility.yul\":28156:28185   */\n      tag_299\n      jump\t// in\n    tag_658:\n        /* \"#utility.yul\":28151:28154   */\n      dup5\n        /* \"#utility.yul\":28147:28186   */\n      add\n        /* \"#utility.yul\":28140:28186   */\n      swap2\n      pop\n        /* \"#utility.yul\":27909:28192   */\n      pop\n        /* \"#utility.yul\":27819:28192   */\n      swap3\n      swap2\n      pop\n      pop\n      jump\t// out\n        /* \"#utility.yul\":28198:28949   */\n    tag_246:\n        /* \"#utility.yul\":28421:28425   */\n      0x00\n        /* \"#utility.yul\":28459:28462   */\n      0xa0\n        /* \"#utility.yul\":28448:28457   */\n      dup3\n        /* \"#utility.yul\":28444:28463   */\n      add\n        /* \"#utility.yul\":28436:28463   */\n      swap1\n      pop\n        /* \"#utility.yul\":28473:28544   */\n      tag_660\n        /* \"#utility.yul\":28541:28542   */\n      0x00\n        /* \"#utility.yul\":28530:28539   */\n      dup4\n        /* \"#utility.yul\":28526:28543   */\n      add\n        /* \"#utility.yul\":28517:28523   */\n      dup9\n        /* \"#utility.yul\":28473:28544   */\n      tag_323\n      jump\t// in\n    tag_660:\n        /* \"#utility.yul\":28554:28626   */\n      tag_661\n        /* \"#utility.yul\":28622:28624   */\n      0x20\n        /* \"#utility.yul\":28611:28620   */\n      dup4\n        /* \"#utility.yul\":28607:28625   */\n      add\n        /* \"#utility.yul\":28598:28604   */\n      dup8\n        /* \"#utility.yul\":28554:28626   */\n      tag_323\n      jump\t// in\n    tag_661:\n        /* \"#utility.yul\":28636:28708   */\n      tag_662\n        /* \"#utility.yul\":28704:28706   */\n      0x40\n        /* \"#utility.yul\":28693:28702   */\n      dup4\n        /* \"#utility.yul\":28689:28707   */\n      add\n        /* \"#utility.yul\":28680:28686   */\n      dup7\n        /* \"#utility.yul\":28636:28708   */\n      tag_290\n      jump\t// in\n    tag_662:\n        /* \"#utility.yul\":28718:28790   */\n      tag_663\n        /* \"#utility.yul\":28786:28788   */\n      0x60\n        /* \"#utility.yul\":28775:28784   */\n      dup4\n        /* \"#utility.yul\":28771:28789   */\n      add\n        /* \"#utility.yul\":28762:28768   */\n      dup6\n        /* \"#utility.yul\":28718:28790   */\n      tag_290\n      jump\t// in\n    tag_663:\n        /* \"#utility.yul\":28838:28847   */\n      dup2\n        /* \"#utility.yul\":28832:28836   */\n      dup2\n        /* \"#utility.yul\":28828:28848   */\n      sub\n        /* \"#utility.yul\":28822:28825   */\n      0x80\n        /* \"#utility.yul\":28811:28820   */\n      dup4\n        /* \"#utility.yul\":28807:28826   */\n      add\n        /* \"#utility.yul\":28800:28849   */\n      mstore\n        /* \"#utility.yul\":28866:28942   */\n      tag_664\n        /* \"#utility.yul\":28937:28941   */\n      dup2\n        /* \"#utility.yul\":28928:28934   */\n      dup5\n        /* \"#utility.yul\":28866:28942   */\n      tag_348\n      jump\t// in\n    tag_664:\n        /* \"#utility.yul\":28858:28942   */\n      swap1\n      pop\n        /* \"#utility.yul\":28198:28949   */\n      swap7\n      swap6\n      pop\n      pop\n      pop\n      pop\n      pop\n      pop\n      jump\t// out\n        /* \"#utility.yul\":28955:29096   */\n    tag_349:\n        /* \"#utility.yul\":29011:29016   */\n      0x00\n        /* \"#utility.yul\":29042:29048   */\n      dup2\n        /* \"#utility.yul\":29036:29049   */\n      mload\n        /* \"#utility.yul\":29027:29049   */\n      swap1\n      pop\n        /* \"#utility.yul\":29058:29090   */\n      tag_666\n        /* \"#utility.yul\":29084:29089   */\n      dup2\n        /* \"#utility.yul\":29058:29090   */\n      tag_292\n      jump\t// in\n    tag_666:\n        /* \"#utility.yul\":28955:29096   */\n      swap3\n      swap2\n      pop\n      pop\n      jump\t// out\n        /* \"#utility.yul\":29102:29451   */\n    tag_249:\n        /* \"#utility.yul\":29171:29177   */\n      0x00\n        /* \"#utility.yul\":29220:29222   */\n      0x20\n        /* \"#utility.yul\":29208:29217   */\n      dup3\n        /* \"#utility.yul\":29199:29206   */\n      dup5\n        /* \"#utility.yul\":29195:29218   */\n      sub\n        /* \"#utility.yul\":29191:29223   */\n      slt\n        /* \"#utility.yul\":29188:29307   */\n      iszero\n      tag_668\n      jumpi\n        /* \"#utility.yul\":29226:29305   */\n      tag_669\n      tag_281\n      jump\t// in\n    tag_669:\n        /* \"#utility.yul\":29188:29307   */\n    tag_668:\n        /* \"#utility.yul\":29346:29347   */\n      0x00\n        /* \"#utility.yul\":29371:29434   */\n      tag_670\n        /* \"#utility.yul\":29426:29433   */\n      dup5\n        /* \"#utility.yul\":29417:29423   */\n      dup3\n        /* \"#utility.yul\":29406:29415   */\n      dup6\n        /* \"#utility.yul\":29402:29424   */\n      add\n        /* \"#utility.yul\":29371:29434   */\n      tag_349\n      jump\t// in\n    tag_670:\n        /* \"#utility.yul\":29361:29434   */\n      swap2\n      pop\n        /* \"#utility.yul\":29317:29444   */\n      pop\n        /* \"#utility.yul\":29102:29451   */\n      swap3\n      swap2\n      pop\n      pop\n      jump\t// out\n        /* \"#utility.yul\":29457:30510   */\n    tag_265:\n        /* \"#utility.yul\":29780:29784   */\n      0x00\n        /* \"#utility.yul\":29818:29821   */\n      0xa0\n        /* \"#utility.yul\":29807:29816   */\n      dup3\n        /* \"#utility.yul\":29803:29822   */\n      add\n        /* \"#utility.yul\":29795:29822   */\n      swap1\n      pop\n        /* \"#utility.yul\":29832:29903   */\n      tag_672\n        /* \"#utility.yul\":29900:29901   */\n      0x00\n        /* \"#utility.yul\":29889:29898   */\n      dup4\n        /* \"#utility.yul\":29885:29902   */\n      add\n        /* \"#utility.yul\":29876:29882   */\n      dup9\n        /* \"#utility.yul\":29832:29903   */\n      tag_323\n      jump\t// in\n    tag_672:\n        /* \"#utility.yul\":29913:29985   */\n      tag_673\n        /* \"#utility.yul\":29981:29983   */\n      0x20\n        /* \"#utility.yul\":29970:29979   */\n      dup4\n        /* \"#utility.yul\":29966:29984   */\n      add\n        /* \"#utility.yul\":29957:29963   */\n      dup8\n        /* \"#utility.yul\":29913:29985   */\n      tag_323\n      jump\t// in\n    tag_673:\n        /* \"#utility.yul\":30032:30041   */\n      dup2\n        /* \"#utility.yul\":30026:30030   */\n      dup2\n        /* \"#utility.yul\":30022:30042   */\n      sub\n        /* \"#utility.yul\":30017:30019   */\n      0x40\n        /* \"#utility.yul\":30006:30015   */\n      dup4\n        /* \"#utility.yul\":30002:30020   */\n      add\n        /* \"#utility.yul\":29995:30043   */\n      mstore\n        /* \"#utility.yul\":30060:30168   */\n      tag_674\n        /* \"#utility.yul\":30163:30167   */\n      dup2\n        /* \"#utility.yul\":30154:30160   */\n      dup7\n        /* \"#utility.yul\":30060:30168   */\n      tag_322\n      jump\t// in\n    tag_674:\n        /* \"#utility.yul\":30052:30168   */\n      swap1\n      pop\n        /* \"#utility.yul\":30215:30224   */\n      dup2\n        /* \"#utility.yul\":30209:30213   */\n      dup2\n        /* \"#utility.yul\":30205:30225   */\n      sub\n        /* \"#utility.yul\":30200:30202   */\n      0x60\n        /* \"#utility.yul\":30189:30198   */\n      dup4\n        /* \"#utility.yul\":30185:30203   */\n      add\n        /* \"#utility.yul\":30178:30226   */\n      mstore\n        /* \"#utility.yul\":30243:30351   */\n      tag_675\n        /* \"#utility.yul\":30346:30350   */\n      dup2\n        /* \"#utility.yul\":30337:30343   */\n      dup6\n        /* \"#utility.yul\":30243:30351   */\n      tag_322\n      jump\t// in\n    tag_675:\n        /* \"#utility.yul\":30235:30351   */\n      swap1\n      pop\n        /* \"#utility.yul\":30399:30408   */\n      dup2\n        /* \"#utility.yul\":30393:30397   */\n      dup2\n        /* \"#utility.yul\":30389:30409   */\n      sub\n        /* \"#utility.yul\":30383:30386   */\n      0x80\n        /* \"#utility.yul\":30372:30381   */\n      dup4\n        /* \"#utility.yul\":30368:30387   */\n      add\n        /* \"#utility.yul\":30361:30410   */\n      mstore\n        /* \"#utility.yul\":30427:30503   */\n      tag_676\n        /* \"#utility.yul\":30498:30502   */\n      dup2\n        /* \"#utility.yul\":30489:30495   */\n      dup5\n        /* \"#utility.yul\":30427:30503   */\n      tag_348\n      jump\t// in\n    tag_676:\n        /* \"#utility.yul\":30419:30503   */\n      swap1\n      pop\n        /* \"#utility.yul\":29457:30510   */\n      swap7\n      swap6\n      pop\n      pop\n      pop\n      pop\n      pop\n      pop\n      jump\t// out\n\n    auxdata: 0xa2646970667358221220f2dd0fcd9e05e3fcf05dad90a85de2a8e98a4cf27fdcf0de2263104ba20a07c964736f6c634300081a0033\n}\n",
				"bytecode": {
					"linkReferences": {},
					"object": "60806040525f600455348015610013575f80fd5b50604051612cdd380380612cdd8339818101604052810190610035919061020f565b8060405180602001604052805f815250610054816100db60201b60201c565b505f73ffffffffffffffffffffffffffffffffffffffff168173ffffffffffffffffffffffffffffffffffffffff16036100c5575f6040517f1e4fbdf70000000000000000000000000000000000000000000000000000000081526004016100bc9190610249565b60405180910390fd5b6100d4816100ee60201b60201c565b505061056b565b80600290816100ea919061049c565b5050565b5f60035f9054906101000a900473ffffffffffffffffffffffffffffffffffffffff1690508160035f6101000a81548173ffffffffffffffffffffffffffffffffffffffff021916908373ffffffffffffffffffffffffffffffffffffffff1602179055508173ffffffffffffffffffffffffffffffffffffffff168173ffffffffffffffffffffffffffffffffffffffff167f8be0079c531659141344cd1fd0a4f28419497f9722a3daafe3b4186f6b6457e060405160405180910390a35050565b5f80fd5b5f73ffffffffffffffffffffffffffffffffffffffff82169050919050565b5f6101de826101b5565b9050919050565b6101ee816101d4565b81146101f8575f80fd5b50565b5f81519050610209816101e5565b92915050565b5f60208284031215610224576102236101b1565b5b5f610231848285016101fb565b91505092915050565b610243816101d4565b82525050565b5f60208201905061025c5f83018461023a565b92915050565b5f81519050919050565b7f4e487b71000000000000000000000000000000000000000000000000000000005f52604160045260245ffd5b7f4e487b71000000000000000000000000000000000000000000000000000000005f52602260045260245ffd5b5f60028204905060018216806102dd57607f821691505b6020821081036102f0576102ef610299565b5b50919050565b5f819050815f5260205f209050919050565b5f6020601f8301049050919050565b5f82821b905092915050565b5f600883026103527fffffffffffffffffffffffffffffffffffffffffffffffffffffffffffffffff82610317565b61035c8683610317565b95508019841693508086168417925050509392505050565b5f819050919050565b5f819050919050565b5f6103a061039b61039684610374565b61037d565b610374565b9050919050565b5f819050919050565b6103b983610386565b6103cd6103c5826103a7565b848454610323565b825550505050565b5f90565b6103e16103d5565b6103ec8184846103b0565b505050565b5b8181101561040f576104045f826103d9565b6001810190506103f2565b5050565b601f82111561045457610425816102f6565b61042e84610308565b8101602085101561043d578190505b61045161044985610308565b8301826103f1565b50505b505050565b5f82821c905092915050565b5f6104745f1984600802610459565b1980831691505092915050565b5f61048c8383610465565b9150826002028217905092915050565b6104a582610262565b67ffffffffffffffff8111156104be576104bd61026c565b5b6104c882546102c6565b6104d3828285610413565b5f60209050601f831160018114610504575f84156104f2578287015190505b6104fc8582610481565b865550610563565b601f198416610512866102f6565b5f5b8281101561053957848901518255600182019150602085019450602081019050610514565b868310156105565784890151610552601f891682610465565b8355505b6001600288020188555050505b505050505050565b612765806105785f395ff3fe608060405234801561000f575f80fd5b50600436106100f2575f3560e01c80636c8b703f11610095578063d3fc986411610064578063d3fc986414610280578063e985e9c51461029c578063f242432a146102cc578063f2fde38b146102e8576100f2565b80636c8b703f1461020c578063715018a61461023c5780638da5cb5b14610246578063a22cb46514610264576100f2565b80630febdd49116100d15780630febdd49146101865780631c75cfb4146101a25780632eb2c2d6146101c05780634e1273f4146101dc576100f2565b8062fdd58e146100f657806301ffc9a7146101265780630e89341c14610156575b5f80fd5b610110600480360381019061010b91906117e7565b610304565b60405161011d9190611834565b60405180910390f35b610140600480360381019061013b91906118a2565b610359565b60405161014d91906118e7565b60405180910390f35b610170600480360381019061016b9190611900565b61043a565b60405161017d919061199b565b60405180910390f35b6101a0600480360381019061019b91906119bb565b6104cc565b005b6101aa6104ed565b6040516101b79190611834565b60405180910390f35b6101da60048036038101906101d59190611c0f565b6104f3565b005b6101f660048036038101906101f19190611d9a565b61059a565b6040516102039190611ec7565b60405180910390f35b61022660048036038101906102219190611900565b6106a1565b604051610233919061199b565b60405180910390f35b61024461073c565b005b61024e61074f565b60405161025b9190611ef6565b60405180910390f35b61027e60048036038101906102799190611f39565b610777565b005b61029a60048036038101906102959190612015565b61078d565b005b6102b660048036038101906102b19190612081565b6107ee565b6040516102c391906118e7565b60405180910390f35b6102e660048036038101906102e191906120bf565b61087c565b005b61030260048036038101906102fd9190612152565b610923565b005b5f805f8381526020019081526020015f205f8473ffffffffffffffffffffffffffffffffffffffff1673ffffffffffffffffffffffffffffffffffffffff1681526020019081526020015f2054905092915050565b5f7fd9b67a26000000000000000000000000000000000000000000000000000000007bffffffffffffffffffffffffffffffffffffffffffffffffffffffff1916827bffffffffffffffffffffffffffffffffffffffffffffffffffffffff1916148061042357507f0e89341c000000000000000000000000000000000000000000000000000000007bffffffffffffffffffffffffffffffffffffffffffffffffffffffff1916827bffffffffffffffffffffffffffffffffffffffffffffffffffffffff1916145b806104335750610432826109a7565b5b9050919050565b606060028054610449906121aa565b80601f0160208091040260200160405190810160405280929190818152602001828054610475906121aa565b80156104c05780601f10610497576101008083540402835291602001916104c0565b820191905f5260205f20905b8154815290600101906020018083116104a357829003601f168201915b50505050509050919050565b6104e78484848460405180602001604052805f81525061087c565b50505050565b60045481565b5f6104fc610a10565b90508073ffffffffffffffffffffffffffffffffffffffff168673ffffffffffffffffffffffffffffffffffffffff1614158015610541575061053f86826107ee565b155b156105855780866040517fe237d92200000000000000000000000000000000000000000000000000000000815260040161057c9291906121da565b60405180910390fd5b6105928686868686610a17565b505050505050565b606081518351146105e657815183516040517f5b0599910000000000000000000000000000000000000000000000000000000081526004016105dd929190612201565b60405180910390fd5b5f835167ffffffffffffffff81111561060257610601611a23565b5b6040519080825280602002602001820160405280156106305781602001602082028036833780820191505090505b5090505f5b84518110156106965761066c6106548287610b0b90919063ffffffff16565b6106678387610b1e90919063ffffffff16565b610304565b82828151811061067f5761067e612228565b5b602002602001018181525050806001019050610635565b508091505092915050565b6005602052805f5260405f205f9150905080546106bd906121aa565b80601f01602080910402602001604051908101604052809291908181526020018280546106e9906121aa565b80156107345780601f1061070b57610100808354040283529160200191610734565b820191905f5260205f20905b81548152906001019060200180831161071757829003601f168201915b505050505081565b610744610b31565b61074d5f610bb8565b565b5f60035f9054906101000a900473ffffffffffffffffffffffffffffffffffffffff16905090565b610789610782610a10565b8383610c7b565b5050565b610795610b31565b6107b1836004548460405180602001604052805f815250610de4565b8060055f60045481526020019081526020015f2090816107d191906123f2565b5060045f8154809291906107e4906124ee565b9190505550505050565b5f60015f8473ffffffffffffffffffffffffffffffffffffffff1673ffffffffffffffffffffffffffffffffffffffff1681526020019081526020015f205f8373ffffffffffffffffffffffffffffffffffffffff1673ffffffffffffffffffffffffffffffffffffffff1681526020019081526020015f205f9054906101000a900460ff16905092915050565b5f610885610a10565b90508073ffffffffffffffffffffffffffffffffffffffff168673ffffffffffffffffffffffffffffffffffffffff16141580156108ca57506108c886826107ee565b155b1561090e5780866040517fe237d9220000000000000000000000000000000000000000000000000000000081526004016109059291906121da565b60405180910390fd5b61091b8686868686610e79565b505050505050565b61092b610b31565b5f73ffffffffffffffffffffffffffffffffffffffff168173ffffffffffffffffffffffffffffffffffffffff160361099b575f6040517f1e4fbdf70000000000000000000000000000000000000000000000000000000081526004016109929190611ef6565b60405180910390fd5b6109a481610bb8565b50565b5f7f01ffc9a7000000000000000000000000000000000000000000000000000000007bffffffffffffffffffffffffffffffffffffffffffffffffffffffff1916827bffffffffffffffffffffffffffffffffffffffffffffffffffffffff1916149050919050565b5f33905090565b5f73ffffffffffffffffffffffffffffffffffffffff168473ffffffffffffffffffffffffffffffffffffffff1603610a87575f6040517f57f447ce000000000000000000000000000000000000000000000000000000008152600401610a7e9190611ef6565b60405180910390fd5b5f73ffffffffffffffffffffffffffffffffffffffff168573ffffffffffffffffffffffffffffffffffffffff1603610af7575f6040517f01a83514000000000000000000000000000000000000000000000000000000008152600401610aee9190611ef6565b60405180910390fd5b610b048585858585610f7f565b5050505050565b5f60208202602084010151905092915050565b5f60208202602084010151905092915050565b610b39610a10565b73ffffffffffffffffffffffffffffffffffffffff16610b5761074f565b73ffffffffffffffffffffffffffffffffffffffff1614610bb657610b7a610a10565b6040517f118cdaa7000000000000000000000000000000000000000000000000000000008152600401610bad9190611ef6565b60405180910390fd5b565b5f60035f9054906101000a900473ffffffffffffffffffffffffffffffffffffffff1690508160035f6101000a81548173ffffffffffffffffffffffffffffffffffffffff021916908373ffffffffffffffffffffffffffffffffffffffff1602179055508173ffffffffffffffffffffffffffffffffffffffff168173ffffffffffffffffffffffffffffffffffffffff167f8be0079c531659141344cd1fd0a4f28419497f9722a3daafe3b4186f6b6457e060405160405180910390a35050565b5f73ffffffffffffffffffffffffffffffffffffffff168273ffffffffffffffffffffffffffffffffffffffff1603610ceb575f6040517fced3e100000000000000000000000000000000000000000000000000000000008152600401610ce29190611ef6565b60405180910390fd5b8060015f8573ffffffffffffffffffffffffffffffffffffffff1673ffffffffffffffffffffffffffffffffffffffff1681526020019081526020015f205f8473ffffffffffffffffffffffffffffffffffffffff1673ffffffffffffffffffffffffffffffffffffffff1681526020019081526020015f205f6101000a81548160ff0219169083151502179055508173ffffffffffffffffffffffffffffffffffffffff168373ffffffffffffffffffffffffffffffffffffffff167f17307eab39ab6107e8899845ad3d59bd9653f200f220920489ca2b5937696c3183604051610dd791906118e7565b60405180910390a3505050565b5f73ffffffffffffffffffffffffffffffffffffffff168473ffffffffffffffffffffffffffffffffffffffff1603610e54575f6040517f57f447ce000000000000000000000000000000000000000000000000000000008152600401610e4b9190611ef6565b60405180910390fd5b5f80610e60858561102b565b91509150610e715f87848487610f7f565b505050505050565b5f73ffffffffffffffffffffffffffffffffffffffff168473ffffffffffffffffffffffffffffffffffffffff1603610ee9575f6040517f57f447ce000000000000000000000000000000000000000000000000000000008152600401610ee09190611ef6565b60405180910390fd5b5f73ffffffffffffffffffffffffffffffffffffffff168573ffffffffffffffffffffffffffffffffffffffff1603610f59575f6040517f01a83514000000000000000000000000000000000000000000000000000000008152600401610f509190611ef6565b60405180910390fd5b5f80610f65858561102b565b91509150610f768787848487610f7f565b50505050505050565b610f8b8585858561105b565b5f73ffffffffffffffffffffffffffffffffffffffff168473ffffffffffffffffffffffffffffffffffffffff1614611024575f610fc7610a10565b90506001845103611013575f610fe65f86610b1e90919063ffffffff16565b90505f610ffc5f86610b1e90919063ffffffff16565b905061100c8389898585896113eb565b5050611022565b61102181878787878761159a565b5b505b5050505050565b60608060405191506001825283602083015260408201905060018152826020820152604081016040529250929050565b80518251146110a557815181516040517f5b05999100000000000000000000000000000000000000000000000000000000815260040161109c929190612201565b60405180910390fd5b5f6110ae610a10565b90505f5b83518110156112aa575f6110cf8286610b1e90919063ffffffff16565b90505f6110e58386610b1e90919063ffffffff16565b90505f73ffffffffffffffffffffffffffffffffffffffff168873ffffffffffffffffffffffffffffffffffffffff1614611208575f805f8481526020019081526020015f205f8a73ffffffffffffffffffffffffffffffffffffffff1673ffffffffffffffffffffffffffffffffffffffff1681526020019081526020015f20549050818110156111b457888183856040517f03dee4c50000000000000000000000000000000000000000000000000000000081526004016111ab9493929190612535565b60405180910390fd5b8181035f808581526020019081526020015f205f8b73ffffffffffffffffffffffffffffffffffffffff1673ffffffffffffffffffffffffffffffffffffffff1681526020019081526020015f2081905550505b5f73ffffffffffffffffffffffffffffffffffffffff168773ffffffffffffffffffffffffffffffffffffffff161461129d57805f808481526020019081526020015f205f8973ffffffffffffffffffffffffffffffffffffffff1673ffffffffffffffffffffffffffffffffffffffff1681526020019081526020015f205f8282546112959190612578565b925050819055505b50508060010190506110b2565b506001835103611365575f6112c85f85610b1e90919063ffffffff16565b90505f6112de5f85610b1e90919063ffffffff16565b90508573ffffffffffffffffffffffffffffffffffffffff168773ffffffffffffffffffffffffffffffffffffffff168473ffffffffffffffffffffffffffffffffffffffff167fc3d58168c5ae7397731d063d5bbf3d657854427343f4c083240f7aacaa2d0f628585604051611356929190612201565b60405180910390a450506113e4565b8373ffffffffffffffffffffffffffffffffffffffff168573ffffffffffffffffffffffffffffffffffffffff168273ffffffffffffffffffffffffffffffffffffffff167f4a39dc06d4c0dbc64b70af90fd698a233a518aa5d07e595d983b8c0526c8f7fb86866040516113db9291906125ab565b60405180910390a45b5050505050565b5f8473ffffffffffffffffffffffffffffffffffffffff163b1115611592578373ffffffffffffffffffffffffffffffffffffffff1663f23a6e6187878686866040518663ffffffff1660e01b815260040161144b959493929190612632565b6020604051808303815f875af192505050801561148657506040513d601f19601f82011682018060405250810190611483919061269e565b60015b611507573d805f81146114b4576040519150601f19603f3d011682016040523d82523d5f602084013e6114b9565b606091505b505f8151036114ff57846040517f57f447ce0000000000000000000000000000000000000000000000000000000081526004016114f69190611ef6565b60405180910390fd5b805181602001fd5b63f23a6e6160e01b7bffffffffffffffffffffffffffffffffffffffffffffffffffffffff1916817bffffffffffffffffffffffffffffffffffffffffffffffffffffffff19161461159057846040517f57f447ce0000000000000000000000000000000000000000000000000000000081526004016115879190611ef6565b60405180910390fd5b505b505050505050565b5f8473ffffffffffffffffffffffffffffffffffffffff163b1115611741578373ffffffffffffffffffffffffffffffffffffffff1663bc197c8187878686866040518663ffffffff1660e01b81526004016115fa9594939291906126c9565b6020604051808303815f875af192505050801561163557506040513d601f19601f82011682018060405250810190611632919061269e565b60015b6116b6573d805f8114611663576040519150601f19603f3d011682016040523d82523d5f602084013e611668565b606091505b505f8151036116ae57846040517f57f447ce0000000000000000000000000000000000000000000000000000000081526004016116a59190611ef6565b60405180910390fd5b805181602001fd5b63bc197c8160e01b7bffffffffffffffffffffffffffffffffffffffffffffffffffffffff1916817bffffffffffffffffffffffffffffffffffffffffffffffffffffffff19161461173f57846040517f57f447ce0000000000000000000000000000000000000000000000000000000081526004016117369190611ef6565b60405180910390fd5b505b505050505050565b5f604051905090565b5f80fd5b5f80fd5b5f73ffffffffffffffffffffffffffffffffffffffff82169050919050565b5f6117838261175a565b9050919050565b61179381611779565b811461179d575f80fd5b50565b5f813590506117ae8161178a565b92915050565b5f819050919050565b6117c6816117b4565b81146117d0575f80fd5b50565b5f813590506117e1816117bd565b92915050565b5f80604083850312156117fd576117fc611752565b5b5f61180a858286016117a0565b925050602061181b858286016117d3565b9150509250929050565b61182e816117b4565b82525050565b5f6020820190506118475f830184611825565b92915050565b5f7fffffffff0000000000000000000000000000000000000000000000000000000082169050919050565b6118818161184d565b811461188b575f80fd5b50565b5f8135905061189c81611878565b92915050565b5f602082840312156118b7576118b6611752565b5b5f6118c48482850161188e565b91505092915050565b5f8115159050919050565b6118e1816118cd565b82525050565b5f6020820190506118fa5f8301846118d8565b92915050565b5f6020828403121561191557611914611752565b5b5f611922848285016117d3565b91505092915050565b5f81519050919050565b5f82825260208201905092915050565b8281835e5f83830152505050565b5f601f19601f8301169050919050565b5f61196d8261192b565b6119778185611935565b9350611987818560208601611945565b61199081611953565b840191505092915050565b5f6020820190508181035f8301526119b38184611963565b905092915050565b5f805f80608085870312156119d3576119d2611752565b5b5f6119e0878288016117a0565b94505060206119f1878288016117a0565b9350506040611a02878288016117d3565b9250506060611a13878288016117d3565b91505092959194509250565b5f80fd5b7f4e487b71000000000000000000000000000000000000000000000000000000005f52604160045260245ffd5b611a5982611953565b810181811067ffffffffffffffff82111715611a7857611a77611a23565b5b80604052505050565b5f611a8a611749565b9050611a968282611a50565b919050565b5f67ffffffffffffffff821115611ab557611ab4611a23565b5b602082029050602081019050919050565b5f80fd5b5f611adc611ad784611a9b565b611a81565b90508083825260208201905060208402830185811115611aff57611afe611ac6565b5b835b81811015611b285780611b1488826117d3565b845260208401935050602081019050611b01565b5050509392505050565b5f82601f830112611b4657611b45611a1f565b5b8135611b56848260208601611aca565b91505092915050565b5f80fd5b5f67ffffffffffffffff821115611b7d57611b7c611a23565b5b611b8682611953565b9050602081019050919050565b828183375f83830152505050565b5f611bb3611bae84611b63565b611a81565b905082815260208101848484011115611bcf57611bce611b5f565b5b611bda848285611b93565b509392505050565b5f82601f830112611bf657611bf5611a1f565b5b8135611c06848260208601611ba1565b91505092915050565b5f805f805f60a08688031215611c2857611c27611752565b5b5f611c35888289016117a0565b9550506020611c46888289016117a0565b945050604086013567ffffffffffffffff811115611c6757611c66611756565b5b611c7388828901611b32565b935050606086013567ffffffffffffffff811115611c9457611c93611756565b5b611ca088828901611b32565b925050608086013567ffffffffffffffff811115611cc157611cc0611756565b5b611ccd88828901611be2565b9150509295509295909350565b5f67ffffffffffffffff821115611cf457611cf3611a23565b5b602082029050602081019050919050565b5f611d17611d1284611cda565b611a81565b90508083825260208201905060208402830185811115611d3a57611d39611ac6565b5b835b81811015611d635780611d4f88826117a0565b845260208401935050602081019050611d3c565b5050509392505050565b5f82601f830112611d8157611d80611a1f565b5b8135611d91848260208601611d05565b91505092915050565b5f8060408385031215611db057611daf611752565b5b5f83013567ffffffffffffffff811115611dcd57611dcc611756565b5b611dd985828601611d6d565b925050602083013567ffffffffffffffff811115611dfa57611df9611756565b5b611e0685828601611b32565b9150509250929050565b5f81519050919050565b5f82825260208201905092915050565b5f819050602082019050919050565b611e42816117b4565b82525050565b5f611e538383611e39565b60208301905092915050565b5f602082019050919050565b5f611e7582611e10565b611e7f8185611e1a565b9350611e8a83611e2a565b805f5b83811015611eba578151611ea18882611e48565b9750611eac83611e5f565b925050600181019050611e8d565b5085935050505092915050565b5f6020820190508181035f830152611edf8184611e6b565b905092915050565b611ef081611779565b82525050565b5f602082019050611f095f830184611ee7565b92915050565b611f18816118cd565b8114611f22575f80fd5b50565b5f81359050611f3381611f0f565b92915050565b5f8060408385031215611f4f57611f4e611752565b5b5f611f5c858286016117a0565b9250506020611f6d85828601611f25565b9150509250929050565b5f67ffffffffffffffff821115611f9157611f90611a23565b5b611f9a82611953565b9050602081019050919050565b5f611fb9611fb484611f77565b611a81565b905082815260208101848484011115611fd557611fd4611b5f565b5b611fe0848285611b93565b509392505050565b5f82601f830112611ffc57611ffb611a1f565b5b813561200c848260208601611fa7565b91505092915050565b5f805f6060848603121561202c5761202b611752565b5b5f612039868287016117a0565b935050602061204a868287016117d3565b925050604084013567ffffffffffffffff81111561206b5761206a611756565b5b61207786828701611fe8565b9150509250925092565b5f806040838503121561209757612096611752565b5b5f6120a4858286016117a0565b92505060206120b5858286016117a0565b9150509250929050565b5f805f805f60a086880312156120d8576120d7611752565b5b5f6120e5888289016117a0565b95505060206120f6888289016117a0565b9450506040612107888289016117d3565b9350506060612118888289016117d3565b925050608086013567ffffffffffffffff81111561213957612138611756565b5b61214588828901611be2565b9150509295509295909350565b5f6020828403121561216757612166611752565b5b5f612174848285016117a0565b91505092915050565b7f4e487b71000000000000000000000000000000000000000000000000000000005f52602260045260245ffd5b5f60028204905060018216806121c157607f821691505b6020821081036121d4576121d361217d565b5b50919050565b5f6040820190506121ed5f830185611ee7565b6121fa6020830184611ee7565b9392505050565b5f6040820190506122145f830185611825565b6122216020830184611825565b9392505050565b7f4e487b71000000000000000000000000000000000000000000000000000000005f52603260045260245ffd5b5f819050815f5260205f209050919050565b5f6020601f8301049050919050565b5f82821b905092915050565b5f600883026122b17fffffffffffffffffffffffffffffffffffffffffffffffffffffffffffffffff82612276565b6122bb8683612276565b95508019841693508086168417925050509392505050565b5f819050919050565b5f6122f66122f16122ec846117b4565b6122d3565b6117b4565b9050919050565b5f819050919050565b61230f836122dc565b61232361231b826122fd565b848454612282565b825550505050565b5f90565b61233761232b565b612342818484612306565b505050565b5b818110156123655761235a5f8261232f565b600181019050612348565b5050565b601f8211156123aa5761237b81612255565b61238484612267565b81016020851015612393578190505b6123a761239f85612267565b830182612347565b50505b505050565b5f82821c905092915050565b5f6123ca5f19846008026123af565b1980831691505092915050565b5f6123e283836123bb565b9150826002028217905092915050565b6123fb8261192b565b67ffffffffffffffff81111561241457612413611a23565b5b61241e82546121aa565b612429828285612369565b5f60209050601f83116001811461245a575f8415612448578287015190505b61245285826123d7565b8655506124b9565b601f19841661246886612255565b5f5b8281101561248f5784890151825560018201915060208501945060208101905061246a565b868310156124ac57848901516124a8601f8916826123bb565b8355505b6001600288020188555050505b505050505050565b7f4e487b71000000000000000000000000000000000000000000000000000000005f52601160045260245ffd5b5f6124f8826117b4565b91507fffffffffffffffffffffffffffffffffffffffffffffffffffffffffffffffff820361252a576125296124c1565b5b600182019050919050565b5f6080820190506125485f830187611ee7565b6125556020830186611825565b6125626040830185611825565b61256f6060830184611825565b95945050505050565b5f612582826117b4565b915061258d836117b4565b92508282019050808211156125a5576125a46124c1565b5b92915050565b5f6040820190508181035f8301526125c38185611e6b565b905081810360208301526125d78184611e6b565b90509392505050565b5f81519050919050565b5f82825260208201905092915050565b5f612604826125e0565b61260e81856125ea565b935061261e818560208601611945565b61262781611953565b840191505092915050565b5f60a0820190506126455f830188611ee7565b6126526020830187611ee7565b61265f6040830186611825565b61266c6060830185611825565b818103608083015261267e81846125fa565b90509695505050505050565b5f8151905061269881611878565b92915050565b5f602082840312156126b3576126b2611752565b5b5f6126c08482850161268a565b91505092915050565b5f60a0820190506126dc5f830188611ee7565b6126e96020830187611ee7565b81810360408301526126fb8186611e6b565b9050818103606083015261270f8185611e6b565b9050818103608083015261272381846125fa565b9050969550505050505056fea2646970667358221220f2dd0fcd9e05e3fcf05dad90a85de2a8e98a4cf27fdcf0de2263104ba20a07c964736f6c634300081a0033",
					"opcodes": "PUSH1 0x80 PUSH1 0x40 MSTORE PUSH0 PUSH1 0x4 SSTORE CALLVALUE DUP1 ISZERO PUSH2 0x13 JUMPI PUSH0 DUP1 REVERT JUMPDEST POP PUSH1 0x40 MLOAD PUSH2 0x2CDD CODESIZE SUB DUP1 PUSH2 0x2CDD DUP4 CODECOPY DUP2 DUP2 ADD PUSH1 0x40 MSTORE DUP2 ADD SWAP1 PUSH2 0x35 SWAP2 SWAP1 PUSH2 0x20F JUMP JUMPDEST DUP1 PUSH1 0x40 MLOAD DUP1 PUSH1 0x20 ADD PUSH1 0x40 MSTORE DUP1 PUSH0 DUP2 MSTORE POP PUSH2 0x54 DUP2 PUSH2 0xDB PUSH1 0x20 SHL PUSH1 0x20 SHR JUMP JUMPDEST POP PUSH0 PUSH20 0xFFFFFFFFFFFFFFFFFFFFFFFFFFFFFFFFFFFFFFFF AND DUP2 PUSH20 0xFFFFFFFFFFFFFFFFFFFFFFFFFFFFFFFFFFFFFFFF AND SUB PUSH2 0xC5 JUMPI PUSH0 PUSH1 0x40 MLOAD PUSH32 0x1E4FBDF700000000000000000000000000000000000000000000000000000000 DUP2 MSTORE PUSH1 0x4 ADD PUSH2 0xBC SWAP2 SWAP1 PUSH2 0x249 JUMP JUMPDEST PUSH1 0x40 MLOAD DUP1 SWAP2 SUB SWAP1 REVERT JUMPDEST PUSH2 0xD4 DUP2 PUSH2 0xEE PUSH1 0x20 SHL PUSH1 0x20 SHR JUMP JUMPDEST POP POP PUSH2 0x56B JUMP JUMPDEST DUP1 PUSH1 0x2 SWAP1 DUP2 PUSH2 0xEA SWAP2 SWAP1 PUSH2 0x49C JUMP JUMPDEST POP POP JUMP JUMPDEST PUSH0 PUSH1 0x3 PUSH0 SWAP1 SLOAD SWAP1 PUSH2 0x100 EXP SWAP1 DIV PUSH20 0xFFFFFFFFFFFFFFFFFFFFFFFFFFFFFFFFFFFFFFFF AND SWAP1 POP DUP2 PUSH1 0x3 PUSH0 PUSH2 0x100 EXP DUP2 SLOAD DUP2 PUSH20 0xFFFFFFFFFFFFFFFFFFFFFFFFFFFFFFFFFFFFFFFF MUL NOT AND SWAP1 DUP4 PUSH20 0xFFFFFFFFFFFFFFFFFFFFFFFFFFFFFFFFFFFFFFFF AND MUL OR SWAP1 SSTORE POP DUP2 PUSH20 0xFFFFFFFFFFFFFFFFFFFFFFFFFFFFFFFFFFFFFFFF AND DUP2 PUSH20 0xFFFFFFFFFFFFFFFFFFFFFFFFFFFFFFFFFFFFFFFF AND PUSH32 0x8BE0079C531659141344CD1FD0A4F28419497F9722A3DAAFE3B4186F6B6457E0 PUSH1 0x40 MLOAD PUSH1 0x40 MLOAD DUP1 SWAP2 SUB SWAP1 LOG3 POP POP JUMP JUMPDEST PUSH0 DUP1 REVERT JUMPDEST PUSH0 PUSH20 0xFFFFFFFFFFFFFFFFFFFFFFFFFFFFFFFFFFFFFFFF DUP3 AND SWAP1 POP SWAP2 SWAP1 POP JUMP JUMPDEST PUSH0 PUSH2 0x1DE DUP3 PUSH2 0x1B5 JUMP JUMPDEST SWAP1 POP SWAP2 SWAP1 POP JUMP JUMPDEST PUSH2 0x1EE DUP2 PUSH2 0x1D4 JUMP JUMPDEST DUP2 EQ PUSH2 0x1F8 JUMPI PUSH0 DUP1 REVERT JUMPDEST POP JUMP JUMPDEST PUSH0 DUP2 MLOAD SWAP1 POP PUSH2 0x209 DUP2 PUSH2 0x1E5 JUMP JUMPDEST SWAP3 SWAP2 POP POP JUMP JUMPDEST PUSH0 PUSH1 0x20 DUP3 DUP5 SUB SLT ISZERO PUSH2 0x224 JUMPI PUSH2 0x223 PUSH2 0x1B1 JUMP JUMPDEST JUMPDEST PUSH0 PUSH2 0x231 DUP5 DUP3 DUP6 ADD PUSH2 0x1FB JUMP JUMPDEST SWAP2 POP POP SWAP3 SWAP2 POP POP JUMP JUMPDEST PUSH2 0x243 DUP2 PUSH2 0x1D4 JUMP JUMPDEST DUP3 MSTORE POP POP JUMP JUMPDEST PUSH0 PUSH1 0x20 DUP3 ADD SWAP1 POP PUSH2 0x25C PUSH0 DUP4 ADD DUP5 PUSH2 0x23A JUMP JUMPDEST SWAP3 SWAP2 POP POP JUMP JUMPDEST PUSH0 DUP2 MLOAD SWAP1 POP SWAP2 SWAP1 POP JUMP JUMPDEST PUSH32 0x4E487B7100000000000000000000000000000000000000000000000000000000 PUSH0 MSTORE PUSH1 0x41 PUSH1 0x4 MSTORE PUSH1 0x24 PUSH0 REVERT JUMPDEST PUSH32 0x4E487B7100000000000000000000000000000000000000000000000000000000 PUSH0 MSTORE PUSH1 0x22 PUSH1 0x4 MSTORE PUSH1 0x24 PUSH0 REVERT JUMPDEST PUSH0 PUSH1 0x2 DUP3 DIV SWAP1 POP PUSH1 0x1 DUP3 AND DUP1 PUSH2 0x2DD JUMPI PUSH1 0x7F DUP3 AND SWAP2 POP JUMPDEST PUSH1 0x20 DUP3 LT DUP2 SUB PUSH2 0x2F0 JUMPI PUSH2 0x2EF PUSH2 0x299 JUMP JUMPDEST JUMPDEST POP SWAP2 SWAP1 POP JUMP JUMPDEST PUSH0 DUP2 SWAP1 POP DUP2 PUSH0 MSTORE PUSH1 0x20 PUSH0 KECCAK256 SWAP1 POP SWAP2 SWAP1 POP JUMP JUMPDEST PUSH0 PUSH1 0x20 PUSH1 0x1F DUP4 ADD DIV SWAP1 POP SWAP2 SWAP1 POP JUMP JUMPDEST PUSH0 DUP3 DUP3 SHL SWAP1 POP SWAP3 SWAP2 POP POP JUMP JUMPDEST PUSH0 PUSH1 0x8 DUP4 MUL PUSH2 0x352 PUSH32 0xFFFFFFFFFFFFFFFFFFFFFFFFFFFFFFFFFFFFFFFFFFFFFFFFFFFFFFFFFFFFFFFF DUP3 PUSH2 0x317 JUMP JUMPDEST PUSH2 0x35C DUP7 DUP4 PUSH2 0x317 JUMP JUMPDEST SWAP6 POP DUP1 NOT DUP5 AND SWAP4 POP DUP1 DUP7 AND DUP5 OR SWAP3 POP POP POP SWAP4 SWAP3 POP POP POP JUMP JUMPDEST PUSH0 DUP2 SWAP1 POP SWAP2 SWAP1 POP JUMP JUMPDEST PUSH0 DUP2 SWAP1 POP SWAP2 SWAP1 POP JUMP JUMPDEST PUSH0 PUSH2 0x3A0 PUSH2 0x39B PUSH2 0x396 DUP5 PUSH2 0x374 JUMP JUMPDEST PUSH2 0x37D JUMP JUMPDEST PUSH2 0x374 JUMP JUMPDEST SWAP1 POP SWAP2 SWAP1 POP JUMP JUMPDEST PUSH0 DUP2 SWAP1 POP SWAP2 SWAP1 POP JUMP JUMPDEST PUSH2 0x3B9 DUP4 PUSH2 0x386 JUMP JUMPDEST PUSH2 0x3CD PUSH2 0x3C5 DUP3 PUSH2 0x3A7 JUMP JUMPDEST DUP5 DUP5 SLOAD PUSH2 0x323 JUMP JUMPDEST DUP3 SSTORE POP POP POP POP JUMP JUMPDEST PUSH0 SWAP1 JUMP JUMPDEST PUSH2 0x3E1 PUSH2 0x3D5 JUMP JUMPDEST PUSH2 0x3EC DUP2 DUP5 DUP5 PUSH2 0x3B0 JUMP JUMPDEST POP POP POP JUMP JUMPDEST JUMPDEST DUP2 DUP2 LT ISZERO PUSH2 0x40F JUMPI PUSH2 0x404 PUSH0 DUP3 PUSH2 0x3D9 JUMP JUMPDEST PUSH1 0x1 DUP2 ADD SWAP1 POP PUSH2 0x3F2 JUMP JUMPDEST POP POP JUMP JUMPDEST PUSH1 0x1F DUP3 GT ISZERO PUSH2 0x454 JUMPI PUSH2 0x425 DUP2 PUSH2 0x2F6 JUMP JUMPDEST PUSH2 0x42E DUP5 PUSH2 0x308 JUMP JUMPDEST DUP2 ADD PUSH1 0x20 DUP6 LT ISZERO PUSH2 0x43D JUMPI DUP2 SWAP1 POP JUMPDEST PUSH2 0x451 PUSH2 0x449 DUP6 PUSH2 0x308 JUMP JUMPDEST DUP4 ADD DUP3 PUSH2 0x3F1 JUMP JUMPDEST POP POP JUMPDEST POP POP POP JUMP JUMPDEST PUSH0 DUP3 DUP3 SHR SWAP1 POP SWAP3 SWAP2 POP POP JUMP JUMPDEST PUSH0 PUSH2 0x474 PUSH0 NOT DUP5 PUSH1 0x8 MUL PUSH2 0x459 JUMP JUMPDEST NOT DUP1 DUP4 AND SWAP2 POP POP SWAP3 SWAP2 POP POP JUMP JUMPDEST PUSH0 PUSH2 0x48C DUP4 DUP4 PUSH2 0x465 JUMP JUMPDEST SWAP2 POP DUP3 PUSH1 0x2 MUL DUP3 OR SWAP1 POP SWAP3 SWAP2 POP POP JUMP JUMPDEST PUSH2 0x4A5 DUP3 PUSH2 0x262 JUMP JUMPDEST PUSH8 0xFFFFFFFFFFFFFFFF DUP2 GT ISZERO PUSH2 0x4BE JUMPI PUSH2 0x4BD PUSH2 0x26C JUMP JUMPDEST JUMPDEST PUSH2 0x4C8 DUP3 SLOAD PUSH2 0x2C6 JUMP JUMPDEST PUSH2 0x4D3 DUP3 DUP3 DUP6 PUSH2 0x413 JUMP JUMPDEST PUSH0 PUSH1 0x20 SWAP1 POP PUSH1 0x1F DUP4 GT PUSH1 0x1 DUP2 EQ PUSH2 0x504 JUMPI PUSH0 DUP5 ISZERO PUSH2 0x4F2 JUMPI DUP3 DUP8 ADD MLOAD SWAP1 POP JUMPDEST PUSH2 0x4FC DUP6 DUP3 PUSH2 0x481 JUMP JUMPDEST DUP7 SSTORE POP PUSH2 0x563 JUMP JUMPDEST PUSH1 0x1F NOT DUP5 AND PUSH2 0x512 DUP7 PUSH2 0x2F6 JUMP JUMPDEST PUSH0 JUMPDEST DUP3 DUP2 LT ISZERO PUSH2 0x539 JUMPI DUP5 DUP10 ADD MLOAD DUP3 SSTORE PUSH1 0x1 DUP3 ADD SWAP2 POP PUSH1 0x20 DUP6 ADD SWAP5 POP PUSH1 0x20 DUP2 ADD SWAP1 POP PUSH2 0x514 JUMP JUMPDEST DUP7 DUP4 LT ISZERO PUSH2 0x556 JUMPI DUP5 DUP10 ADD MLOAD PUSH2 0x552 PUSH1 0x1F DUP10 AND DUP3 PUSH2 0x465 JUMP JUMPDEST DUP4 SSTORE POP JUMPDEST PUSH1 0x1 PUSH1 0x2 DUP9 MUL ADD DUP9 SSTORE POP POP POP JUMPDEST POP POP POP POP POP POP JUMP JUMPDEST PUSH2 0x2765 DUP1 PUSH2 0x578 PUSH0 CODECOPY PUSH0 RETURN INVALID PUSH1 0x80 PUSH1 0x40 MSTORE CALLVALUE DUP1 ISZERO PUSH2 0xF JUMPI PUSH0 DUP1 REVERT JUMPDEST POP PUSH1 0x4 CALLDATASIZE LT PUSH2 0xF2 JUMPI PUSH0 CALLDATALOAD PUSH1 0xE0 SHR DUP1 PUSH4 0x6C8B703F GT PUSH2 0x95 JUMPI DUP1 PUSH4 0xD3FC9864 GT PUSH2 0x64 JUMPI DUP1 PUSH4 0xD3FC9864 EQ PUSH2 0x280 JUMPI DUP1 PUSH4 0xE985E9C5 EQ PUSH2 0x29C JUMPI DUP1 PUSH4 0xF242432A EQ PUSH2 0x2CC JUMPI DUP1 PUSH4 0xF2FDE38B EQ PUSH2 0x2E8 JUMPI PUSH2 0xF2 JUMP JUMPDEST DUP1 PUSH4 0x6C8B703F EQ PUSH2 0x20C JUMPI DUP1 PUSH4 0x715018A6 EQ PUSH2 0x23C JUMPI DUP1 PUSH4 0x8DA5CB5B EQ PUSH2 0x246 JUMPI DUP1 PUSH4 0xA22CB465 EQ PUSH2 0x264 JUMPI PUSH2 0xF2 JUMP JUMPDEST DUP1 PUSH4 0xFEBDD49 GT PUSH2 0xD1 JUMPI DUP1 PUSH4 0xFEBDD49 EQ PUSH2 0x186 JUMPI DUP1 PUSH4 0x1C75CFB4 EQ PUSH2 0x1A2 JUMPI DUP1 PUSH4 0x2EB2C2D6 EQ PUSH2 0x1C0 JUMPI DUP1 PUSH4 0x4E1273F4 EQ PUSH2 0x1DC JUMPI PUSH2 0xF2 JUMP JUMPDEST DUP1 PUSH3 0xFDD58E EQ PUSH2 0xF6 JUMPI DUP1 PUSH4 0x1FFC9A7 EQ PUSH2 0x126 JUMPI DUP1 PUSH4 0xE89341C EQ PUSH2 0x156 JUMPI JUMPDEST PUSH0 DUP1 REVERT JUMPDEST PUSH2 0x110 PUSH1 0x4 DUP1 CALLDATASIZE SUB DUP2 ADD SWAP1 PUSH2 0x10B SWAP2 SWAP1 PUSH2 0x17E7 JUMP JUMPDEST PUSH2 0x304 JUMP JUMPDEST PUSH1 0x40 MLOAD PUSH2 0x11D SWAP2 SWAP1 PUSH2 0x1834 JUMP JUMPDEST PUSH1 0x40 MLOAD DUP1 SWAP2 SUB SWAP1 RETURN JUMPDEST PUSH2 0x140 PUSH1 0x4 DUP1 CALLDATASIZE SUB DUP2 ADD SWAP1 PUSH2 0x13B SWAP2 SWAP1 PUSH2 0x18A2 JUMP JUMPDEST PUSH2 0x359 JUMP JUMPDEST PUSH1 0x40 MLOAD PUSH2 0x14D SWAP2 SWAP1 PUSH2 0x18E7 JUMP JUMPDEST PUSH1 0x40 MLOAD DUP1 SWAP2 SUB SWAP1 RETURN JUMPDEST PUSH2 0x170 PUSH1 0x4 DUP1 CALLDATASIZE SUB DUP2 ADD SWAP1 PUSH2 0x16B SWAP2 SWAP1 PUSH2 0x1900 JUMP JUMPDEST PUSH2 0x43A JUMP JUMPDEST PUSH1 0x40 MLOAD PUSH2 0x17D SWAP2 SWAP1 PUSH2 0x199B JUMP JUMPDEST PUSH1 0x40 MLOAD DUP1 SWAP2 SUB SWAP1 RETURN JUMPDEST PUSH2 0x1A0 PUSH1 0x4 DUP1 CALLDATASIZE SUB DUP2 ADD SWAP1 PUSH2 0x19B SWAP2 SWAP1 PUSH2 0x19BB JUMP JUMPDEST PUSH2 0x4CC JUMP JUMPDEST STOP JUMPDEST PUSH2 0x1AA PUSH2 0x4ED JUMP JUMPDEST PUSH1 0x40 MLOAD PUSH2 0x1B7 SWAP2 SWAP1 PUSH2 0x1834 JUMP JUMPDEST PUSH1 0x40 MLOAD DUP1 SWAP2 SUB SWAP1 RETURN JUMPDEST PUSH2 0x1DA PUSH1 0x4 DUP1 CALLDATASIZE SUB DUP2 ADD SWAP1 PUSH2 0x1D5 SWAP2 SWAP1 PUSH2 0x1C0F JUMP JUMPDEST PUSH2 0x4F3 JUMP JUMPDEST STOP JUMPDEST PUSH2 0x1F6 PUSH1 0x4 DUP1 CALLDATASIZE SUB DUP2 ADD SWAP1 PUSH2 0x1F1 SWAP2 SWAP1 PUSH2 0x1D9A JUMP JUMPDEST PUSH2 0x59A JUMP JUMPDEST PUSH1 0x40 MLOAD PUSH2 0x203 SWAP2 SWAP1 PUSH2 0x1EC7 JUMP JUMPDEST PUSH1 0x40 MLOAD DUP1 SWAP2 SUB SWAP1 RETURN JUMPDEST PUSH2 0x226 PUSH1 0x4 DUP1 CALLDATASIZE SUB DUP2 ADD SWAP1 PUSH2 0x221 SWAP2 SWAP1 PUSH2 0x1900 JUMP JUMPDEST PUSH2 0x6A1 JUMP JUMPDEST PUSH1 0x40 MLOAD PUSH2 0x233 SWAP2 SWAP1 PUSH2 0x199B JUMP JUMPDEST PUSH1 0x40 MLOAD DUP1 SWAP2 SUB SWAP1 RETURN JUMPDEST PUSH2 0x244 PUSH2 0x73C JUMP JUMPDEST STOP JUMPDEST PUSH2 0x24E PUSH2 0x74F JUMP JUMPDEST PUSH1 0x40 MLOAD PUSH2 0x25B SWAP2 SWAP1 PUSH2 0x1EF6 JUMP JUMPDEST PUSH1 0x40 MLOAD DUP1 SWAP2 SUB SWAP1 RETURN JUMPDEST PUSH2 0x27E PUSH1 0x4 DUP1 CALLDATASIZE SUB DUP2 ADD SWAP1 PUSH2 0x279 SWAP2 SWAP1 PUSH2 0x1F39 JUMP JUMPDEST PUSH2 0x777 JUMP JUMPDEST STOP JUMPDEST PUSH2 0x29A PUSH1 0x4 DUP1 CALLDATASIZE SUB DUP2 ADD SWAP1 PUSH2 0x295 SWAP2 SWAP1 PUSH2 0x2015 JUMP JUMPDEST PUSH2 0x78D JUMP JUMPDEST STOP JUMPDEST PUSH2 0x2B6 PUSH1 0x4 DUP1 CALLDATASIZE SUB DUP2 ADD SWAP1 PUSH2 0x2B1 SWAP2 SWAP1 PUSH2 0x2081 JUMP JUMPDEST PUSH2 0x7EE JUMP JUMPDEST PUSH1 0x40 MLOAD PUSH2 0x2C3 SWAP2 SWAP1 PUSH2 0x18E7 JUMP JUMPDEST PUSH1 0x40 MLOAD DUP1 SWAP2 SUB SWAP1 RETURN JUMPDEST PUSH2 0x2E6 PUSH1 0x4 DUP1 CALLDATASIZE SUB DUP2 ADD SWAP1 PUSH2 0x2E1 SWAP2 SWAP1 PUSH2 0x20BF JUMP JUMPDEST PUSH2 0x87C JUMP JUMPDEST STOP JUMPDEST PUSH2 0x302 PUSH1 0x4 DUP1 CALLDATASIZE SUB DUP2 ADD SWAP1 PUSH2 0x2FD SWAP2 SWAP1 PUSH2 0x2152 JUMP JUMPDEST PUSH2 0x923 JUMP JUMPDEST STOP JUMPDEST PUSH0 DUP1 PUSH0 DUP4 DUP2 MSTORE PUSH1 0x20 ADD SWAP1 DUP2 MSTORE PUSH1 0x20 ADD PUSH0 KECCAK256 PUSH0 DUP5 PUSH20 0xFFFFFFFFFFFFFFFFFFFFFFFFFFFFFFFFFFFFFFFF AND PUSH20 0xFFFFFFFFFFFFFFFFFFFFFFFFFFFFFFFFFFFFFFFF AND DUP2 MSTORE PUSH1 0x20 ADD SWAP1 DUP2 MSTORE PUSH1 0x20 ADD PUSH0 KECCAK256 SLOAD SWAP1 POP SWAP3 SWAP2 POP POP JUMP JUMPDEST PUSH0 PUSH32 0xD9B67A2600000000000000000000000000000000000000000000000000000000 PUSH28 0xFFFFFFFFFFFFFFFFFFFFFFFFFFFFFFFFFFFFFFFFFFFFFFFFFFFFFFFF NOT AND DUP3 PUSH28 0xFFFFFFFFFFFFFFFFFFFFFFFFFFFFFFFFFFFFFFFFFFFFFFFFFFFFFFFF NOT AND EQ DUP1 PUSH2 0x423 JUMPI POP PUSH32 0xE89341C00000000000000000000000000000000000000000000000000000000 PUSH28 0xFFFFFFFFFFFFFFFFFFFFFFFFFFFFFFFFFFFFFFFFFFFFFFFFFFFFFFFF NOT AND DUP3 PUSH28 0xFFFFFFFFFFFFFFFFFFFFFFFFFFFFFFFFFFFFFFFFFFFFFFFFFFFFFFFF NOT AND EQ JUMPDEST DUP1 PUSH2 0x433 JUMPI POP PUSH2 0x432 DUP3 PUSH2 0x9A7 JUMP JUMPDEST JUMPDEST SWAP1 POP SWAP2 SWAP1 POP JUMP JUMPDEST PUSH1 0x60 PUSH1 0x2 DUP1 SLOAD PUSH2 0x449 SWAP1 PUSH2 0x21AA JUMP JUMPDEST DUP1 PUSH1 0x1F ADD PUSH1 0x20 DUP1 SWAP2 DIV MUL PUSH1 0x20 ADD PUSH1 0x40 MLOAD SWAP1 DUP2 ADD PUSH1 0x40 MSTORE DUP1 SWAP3 SWAP2 SWAP1 DUP2 DUP2 MSTORE PUSH1 0x20 ADD DUP3 DUP1 SLOAD PUSH2 0x475 SWAP1 PUSH2 0x21AA JUMP JUMPDEST DUP1 ISZERO PUSH2 0x4C0 JUMPI DUP1 PUSH1 0x1F LT PUSH2 0x497 JUMPI PUSH2 0x100 DUP1 DUP4 SLOAD DIV MUL DUP4 MSTORE SWAP2 PUSH1 0x20 ADD SWAP2 PUSH2 0x4C0 JUMP JUMPDEST DUP3 ADD SWAP2 SWAP1 PUSH0 MSTORE PUSH1 0x20 PUSH0 KECCAK256 SWAP1 JUMPDEST DUP2 SLOAD DUP2 MSTORE SWAP1 PUSH1 0x1 ADD SWAP1 PUSH1 0x20 ADD DUP1 DUP4 GT PUSH2 0x4A3 JUMPI DUP3 SWAP1 SUB PUSH1 0x1F AND DUP3 ADD SWAP2 JUMPDEST POP POP POP POP POP SWAP1 POP SWAP2 SWAP1 POP JUMP JUMPDEST PUSH2 0x4E7 DUP5 DUP5 DUP5 DUP5 PUSH1 0x40 MLOAD DUP1 PUSH1 0x20 ADD PUSH1 0x40 MSTORE DUP1 PUSH0 DUP2 MSTORE POP PUSH2 0x87C JUMP JUMPDEST POP POP POP POP JUMP JUMPDEST PUSH1 0x4 SLOAD DUP2 JUMP JUMPDEST PUSH0 PUSH2 0x4FC PUSH2 0xA10 JUMP JUMPDEST SWAP1 POP DUP1 PUSH20 0xFFFFFFFFFFFFFFFFFFFFFFFFFFFFFFFFFFFFFFFF AND DUP7 PUSH20 0xFFFFFFFFFFFFFFFFFFFFFFFFFFFFFFFFFFFFFFFF AND EQ ISZERO DUP1 ISZERO PUSH2 0x541 JUMPI POP PUSH2 0x53F DUP7 DUP3 PUSH2 0x7EE JUMP JUMPDEST ISZERO JUMPDEST ISZERO PUSH2 0x585 JUMPI DUP1 DUP7 PUSH1 0x40 MLOAD PUSH32 0xE237D92200000000000000000000000000000000000000000000000000000000 DUP2 MSTORE PUSH1 0x4 ADD PUSH2 0x57C SWAP3 SWAP2 SWAP1 PUSH2 0x21DA JUMP JUMPDEST PUSH1 0x40 MLOAD DUP1 SWAP2 SUB SWAP1 REVERT JUMPDEST PUSH2 0x592 DUP7 DUP7 DUP7 DUP7 DUP7 PUSH2 0xA17 JUMP JUMPDEST POP POP POP POP POP POP JUMP JUMPDEST PUSH1 0x60 DUP2 MLOAD DUP4 MLOAD EQ PUSH2 0x5E6 JUMPI DUP2 MLOAD DUP4 MLOAD PUSH1 0x40 MLOAD PUSH32 0x5B05999100000000000000000000000000000000000000000000000000000000 DUP2 MSTORE PUSH1 0x4 ADD PUSH2 0x5DD SWAP3 SWAP2 SWAP1 PUSH2 0x2201 JUMP JUMPDEST PUSH1 0x40 MLOAD DUP1 SWAP2 SUB SWAP1 REVERT JUMPDEST PUSH0 DUP4 MLOAD PUSH8 0xFFFFFFFFFFFFFFFF DUP2 GT ISZERO PUSH2 0x602 JUMPI PUSH2 0x601 PUSH2 0x1A23 JUMP JUMPDEST JUMPDEST PUSH1 0x40 MLOAD SWAP1 DUP1 DUP3 MSTORE DUP1 PUSH1 0x20 MUL PUSH1 0x20 ADD DUP3 ADD PUSH1 0x40 MSTORE DUP1 ISZERO PUSH2 0x630 JUMPI DUP2 PUSH1 0x20 ADD PUSH1 0x20 DUP3 MUL DUP1 CALLDATASIZE DUP4 CALLDATACOPY DUP1 DUP3 ADD SWAP2 POP POP SWAP1 POP JUMPDEST POP SWAP1 POP PUSH0 JUMPDEST DUP5 MLOAD DUP2 LT ISZERO PUSH2 0x696 JUMPI PUSH2 0x66C PUSH2 0x654 DUP3 DUP8 PUSH2 0xB0B SWAP1 SWAP2 SWAP1 PUSH4 0xFFFFFFFF AND JUMP JUMPDEST PUSH2 0x667 DUP4 DUP8 PUSH2 0xB1E SWAP1 SWAP2 SWAP1 PUSH4 0xFFFFFFFF AND JUMP JUMPDEST PUSH2 0x304 JUMP JUMPDEST DUP3 DUP3 DUP2 MLOAD DUP2 LT PUSH2 0x67F JUMPI PUSH2 0x67E PUSH2 0x2228 JUMP JUMPDEST JUMPDEST PUSH1 0x20 MUL PUSH1 0x20 ADD ADD DUP2 DUP2 MSTORE POP POP DUP1 PUSH1 0x1 ADD SWAP1 POP PUSH2 0x635 JUMP JUMPDEST POP DUP1 SWAP2 POP POP SWAP3 SWAP2 POP POP JUMP JUMPDEST PUSH1 0x5 PUSH1 0x20 MSTORE DUP1 PUSH0 MSTORE PUSH1 0x40 PUSH0 KECCAK256 PUSH0 SWAP2 POP SWAP1 POP DUP1 SLOAD PUSH2 0x6BD SWAP1 PUSH2 0x21AA JUMP JUMPDEST DUP1 PUSH1 0x1F ADD PUSH1 0x20 DUP1 SWAP2 DIV MUL PUSH1 0x20 ADD PUSH1 0x40 MLOAD SWAP1 DUP2 ADD PUSH1 0x40 MSTORE DUP1 SWAP3 SWAP2 SWAP1 DUP2 DUP2 MSTORE PUSH1 0x20 ADD DUP3 DUP1 SLOAD PUSH2 0x6E9 SWAP1 PUSH2 0x21AA JUMP JUMPDEST DUP1 ISZERO PUSH2 0x734 JUMPI DUP1 PUSH1 0x1F LT PUSH2 0x70B JUMPI PUSH2 0x100 DUP1 DUP4 SLOAD DIV MUL DUP4 MSTORE SWAP2 PUSH1 0x20 ADD SWAP2 PUSH2 0x734 JUMP JUMPDEST DUP3 ADD SWAP2 SWAP1 PUSH0 MSTORE PUSH1 0x20 PUSH0 KECCAK256 SWAP1 JUMPDEST DUP2 SLOAD DUP2 MSTORE SWAP1 PUSH1 0x1 ADD SWAP1 PUSH1 0x20 ADD DUP1 DUP4 GT PUSH2 0x717 JUMPI DUP3 SWAP1 SUB PUSH1 0x1F AND DUP3 ADD SWAP2 JUMPDEST POP POP POP POP POP DUP2 JUMP JUMPDEST PUSH2 0x744 PUSH2 0xB31 JUMP JUMPDEST PUSH2 0x74D PUSH0 PUSH2 0xBB8 JUMP JUMPDEST JUMP JUMPDEST PUSH0 PUSH1 0x3 PUSH0 SWAP1 SLOAD SWAP1 PUSH2 0x100 EXP SWAP1 DIV PUSH20 0xFFFFFFFFFFFFFFFFFFFFFFFFFFFFFFFFFFFFFFFF AND SWAP1 POP SWAP1 JUMP JUMPDEST PUSH2 0x789 PUSH2 0x782 PUSH2 0xA10 JUMP JUMPDEST DUP4 DUP4 PUSH2 0xC7B JUMP JUMPDEST POP POP JUMP JUMPDEST PUSH2 0x795 PUSH2 0xB31 JUMP JUMPDEST PUSH2 0x7B1 DUP4 PUSH1 0x4 SLOAD DUP5 PUSH1 0x40 MLOAD DUP1 PUSH1 0x20 ADD PUSH1 0x40 MSTORE DUP1 PUSH0 DUP2 MSTORE POP PUSH2 0xDE4 JUMP JUMPDEST DUP1 PUSH1 0x5 PUSH0 PUSH1 0x4 SLOAD DUP2 MSTORE PUSH1 0x20 ADD SWAP1 DUP2 MSTORE PUSH1 0x20 ADD PUSH0 KECCAK256 SWAP1 DUP2 PUSH2 0x7D1 SWAP2 SWAP1 PUSH2 0x23F2 JUMP JUMPDEST POP PUSH1 0x4 PUSH0 DUP2 SLOAD DUP1 SWAP3 SWAP2 SWAP1 PUSH2 0x7E4 SWAP1 PUSH2 0x24EE JUMP JUMPDEST SWAP2 SWAP1 POP SSTORE POP POP POP POP JUMP JUMPDEST PUSH0 PUSH1 0x1 PUSH0 DUP5 PUSH20 0xFFFFFFFFFFFFFFFFFFFFFFFFFFFFFFFFFFFFFFFF AND PUSH20 0xFFFFFFFFFFFFFFFFFFFFFFFFFFFFFFFFFFFFFFFF AND DUP2 MSTORE PUSH1 0x20 ADD SWAP1 DUP2 MSTORE PUSH1 0x20 ADD PUSH0 KECCAK256 PUSH0 DUP4 PUSH20 0xFFFFFFFFFFFFFFFFFFFFFFFFFFFFFFFFFFFFFFFF AND PUSH20 0xFFFFFFFFFFFFFFFFFFFFFFFFFFFFFFFFFFFFFFFF AND DUP2 MSTORE PUSH1 0x20 ADD SWAP1 DUP2 MSTORE PUSH1 0x20 ADD PUSH0 KECCAK256 PUSH0 SWAP1 SLOAD SWAP1 PUSH2 0x100 EXP SWAP1 DIV PUSH1 0xFF AND SWAP1 POP SWAP3 SWAP2 POP POP JUMP JUMPDEST PUSH0 PUSH2 0x885 PUSH2 0xA10 JUMP JUMPDEST SWAP1 POP DUP1 PUSH20 0xFFFFFFFFFFFFFFFFFFFFFFFFFFFFFFFFFFFFFFFF AND DUP7 PUSH20 0xFFFFFFFFFFFFFFFFFFFFFFFFFFFFFFFFFFFFFFFF AND EQ ISZERO DUP1 ISZERO PUSH2 0x8CA JUMPI POP PUSH2 0x8C8 DUP7 DUP3 PUSH2 0x7EE JUMP JUMPDEST ISZERO JUMPDEST ISZERO PUSH2 0x90E JUMPI DUP1 DUP7 PUSH1 0x40 MLOAD PUSH32 0xE237D92200000000000000000000000000000000000000000000000000000000 DUP2 MSTORE PUSH1 0x4 ADD PUSH2 0x905 SWAP3 SWAP2 SWAP1 PUSH2 0x21DA JUMP JUMPDEST PUSH1 0x40 MLOAD DUP1 SWAP2 SUB SWAP1 REVERT JUMPDEST PUSH2 0x91B DUP7 DUP7 DUP7 DUP7 DUP7 PUSH2 0xE79 JUMP JUMPDEST POP POP POP POP POP POP JUMP JUMPDEST PUSH2 0x92B PUSH2 0xB31 JUMP JUMPDEST PUSH0 PUSH20 0xFFFFFFFFFFFFFFFFFFFFFFFFFFFFFFFFFFFFFFFF AND DUP2 PUSH20 0xFFFFFFFFFFFFFFFFFFFFFFFFFFFFFFFFFFFFFFFF AND SUB PUSH2 0x99B JUMPI PUSH0 PUSH1 0x40 MLOAD PUSH32 0x1E4FBDF700000000000000000000000000000000000000000000000000000000 DUP2 MSTORE PUSH1 0x4 ADD PUSH2 0x992 SWAP2 SWAP1 PUSH2 0x1EF6 JUMP JUMPDEST PUSH1 0x40 MLOAD DUP1 SWAP2 SUB SWAP1 REVERT JUMPDEST PUSH2 0x9A4 DUP2 PUSH2 0xBB8 JUMP JUMPDEST POP JUMP JUMPDEST PUSH0 PUSH32 0x1FFC9A700000000000000000000000000000000000000000000000000000000 PUSH28 0xFFFFFFFFFFFFFFFFFFFFFFFFFFFFFFFFFFFFFFFFFFFFFFFFFFFFFFFF NOT AND DUP3 PUSH28 0xFFFFFFFFFFFFFFFFFFFFFFFFFFFFFFFFFFFFFFFFFFFFFFFFFFFFFFFF NOT AND EQ SWAP1 POP SWAP2 SWAP1 POP JUMP JUMPDEST PUSH0 CALLER SWAP1 POP SWAP1 JUMP JUMPDEST PUSH0 PUSH20 0xFFFFFFFFFFFFFFFFFFFFFFFFFFFFFFFFFFFFFFFF AND DUP5 PUSH20 0xFFFFFFFFFFFFFFFFFFFFFFFFFFFFFFFFFFFFFFFF AND SUB PUSH2 0xA87 JUMPI PUSH0 PUSH1 0x40 MLOAD PUSH32 0x57F447CE00000000000000000000000000000000000000000000000000000000 DUP2 MSTORE PUSH1 0x4 ADD PUSH2 0xA7E SWAP2 SWAP1 PUSH2 0x1EF6 JUMP JUMPDEST PUSH1 0x40 MLOAD DUP1 SWAP2 SUB SWAP1 REVERT JUMPDEST PUSH0 PUSH20 0xFFFFFFFFFFFFFFFFFFFFFFFFFFFFFFFFFFFFFFFF AND DUP6 PUSH20 0xFFFFFFFFFFFFFFFFFFFFFFFFFFFFFFFFFFFFFFFF AND SUB PUSH2 0xAF7 JUMPI PUSH0 PUSH1 0x40 MLOAD PUSH32 0x1A8351400000000000000000000000000000000000000000000000000000000 DUP2 MSTORE PUSH1 0x4 ADD PUSH2 0xAEE SWAP2 SWAP1 PUSH2 0x1EF6 JUMP JUMPDEST PUSH1 0x40 MLOAD DUP1 SWAP2 SUB SWAP1 REVERT JUMPDEST PUSH2 0xB04 DUP6 DUP6 DUP6 DUP6 DUP6 PUSH2 0xF7F JUMP JUMPDEST POP POP POP POP POP JUMP JUMPDEST PUSH0 PUSH1 0x20 DUP3 MUL PUSH1 0x20 DUP5 ADD ADD MLOAD SWAP1 POP SWAP3 SWAP2 POP POP JUMP JUMPDEST PUSH0 PUSH1 0x20 DUP3 MUL PUSH1 0x20 DUP5 ADD ADD MLOAD SWAP1 POP SWAP3 SWAP2 POP POP JUMP JUMPDEST PUSH2 0xB39 PUSH2 0xA10 JUMP JUMPDEST PUSH20 0xFFFFFFFFFFFFFFFFFFFFFFFFFFFFFFFFFFFFFFFF AND PUSH2 0xB57 PUSH2 0x74F JUMP JUMPDEST PUSH20 0xFFFFFFFFFFFFFFFFFFFFFFFFFFFFFFFFFFFFFFFF AND EQ PUSH2 0xBB6 JUMPI PUSH2 0xB7A PUSH2 0xA10 JUMP JUMPDEST PUSH1 0x40 MLOAD PUSH32 0x118CDAA700000000000000000000000000000000000000000000000000000000 DUP2 MSTORE PUSH1 0x4 ADD PUSH2 0xBAD SWAP2 SWAP1 PUSH2 0x1EF6 JUMP JUMPDEST PUSH1 0x40 MLOAD DUP1 SWAP2 SUB SWAP1 REVERT JUMPDEST JUMP JUMPDEST PUSH0 PUSH1 0x3 PUSH0 SWAP1 SLOAD SWAP1 PUSH2 0x100 EXP SWAP1 DIV PUSH20 0xFFFFFFFFFFFFFFFFFFFFFFFFFFFFFFFFFFFFFFFF AND SWAP1 POP DUP2 PUSH1 0x3 PUSH0 PUSH2 0x100 EXP DUP2 SLOAD DUP2 PUSH20 0xFFFFFFFFFFFFFFFFFFFFFFFFFFFFFFFFFFFFFFFF MUL NOT AND SWAP1 DUP4 PUSH20 0xFFFFFFFFFFFFFFFFFFFFFFFFFFFFFFFFFFFFFFFF AND MUL OR SWAP1 SSTORE POP DUP2 PUSH20 0xFFFFFFFFFFFFFFFFFFFFFFFFFFFFFFFFFFFFFFFF AND DUP2 PUSH20 0xFFFFFFFFFFFFFFFFFFFFFFFFFFFFFFFFFFFFFFFF AND PUSH32 0x8BE0079C531659141344CD1FD0A4F28419497F9722A3DAAFE3B4186F6B6457E0 PUSH1 0x40 MLOAD PUSH1 0x40 MLOAD DUP1 SWAP2 SUB SWAP1 LOG3 POP POP JUMP JUMPDEST PUSH0 PUSH20 0xFFFFFFFFFFFFFFFFFFFFFFFFFFFFFFFFFFFFFFFF AND DUP3 PUSH20 0xFFFFFFFFFFFFFFFFFFFFFFFFFFFFFFFFFFFFFFFF AND SUB PUSH2 0xCEB JUMPI PUSH0 PUSH1 0x40 MLOAD PUSH32 0xCED3E10000000000000000000000000000000000000000000000000000000000 DUP2 MSTORE PUSH1 0x4 ADD PUSH2 0xCE2 SWAP2 SWAP1 PUSH2 0x1EF6 JUMP JUMPDEST PUSH1 0x40 MLOAD DUP1 SWAP2 SUB SWAP1 REVERT JUMPDEST DUP1 PUSH1 0x1 PUSH0 DUP6 PUSH20 0xFFFFFFFFFFFFFFFFFFFFFFFFFFFFFFFFFFFFFFFF AND PUSH20 0xFFFFFFFFFFFFFFFFFFFFFFFFFFFFFFFFFFFFFFFF AND DUP2 MSTORE PUSH1 0x20 ADD SWAP1 DUP2 MSTORE PUSH1 0x20 ADD PUSH0 KECCAK256 PUSH0 DUP5 PUSH20 0xFFFFFFFFFFFFFFFFFFFFFFFFFFFFFFFFFFFFFFFF AND PUSH20 0xFFFFFFFFFFFFFFFFFFFFFFFFFFFFFFFFFFFFFFFF AND DUP2 MSTORE PUSH1 0x20 ADD SWAP1 DUP2 MSTORE PUSH1 0x20 ADD PUSH0 KECCAK256 PUSH0 PUSH2 0x100 EXP DUP2 SLOAD DUP2 PUSH1 0xFF MUL NOT AND SWAP1 DUP4 ISZERO ISZERO MUL OR SWAP1 SSTORE POP DUP2 PUSH20 0xFFFFFFFFFFFFFFFFFFFFFFFFFFFFFFFFFFFFFFFF AND DUP4 PUSH20 0xFFFFFFFFFFFFFFFFFFFFFFFFFFFFFFFFFFFFFFFF AND PUSH32 0x17307EAB39AB6107E8899845AD3D59BD9653F200F220920489CA2B5937696C31 DUP4 PUSH1 0x40 MLOAD PUSH2 0xDD7 SWAP2 SWAP1 PUSH2 0x18E7 JUMP JUMPDEST PUSH1 0x40 MLOAD DUP1 SWAP2 SUB SWAP1 LOG3 POP POP POP JUMP JUMPDEST PUSH0 PUSH20 0xFFFFFFFFFFFFFFFFFFFFFFFFFFFFFFFFFFFFFFFF AND DUP5 PUSH20 0xFFFFFFFFFFFFFFFFFFFFFFFFFFFFFFFFFFFFFFFF AND SUB PUSH2 0xE54 JUMPI PUSH0 PUSH1 0x40 MLOAD PUSH32 0x57F447CE00000000000000000000000000000000000000000000000000000000 DUP2 MSTORE PUSH1 0x4 ADD PUSH2 0xE4B SWAP2 SWAP1 PUSH2 0x1EF6 JUMP JUMPDEST PUSH1 0x40 MLOAD DUP1 SWAP2 SUB SWAP1 REVERT JUMPDEST PUSH0 DUP1 PUSH2 0xE60 DUP6 DUP6 PUSH2 0x102B JUMP JUMPDEST SWAP2 POP SWAP2 POP PUSH2 0xE71 PUSH0 DUP8 DUP5 DUP5 DUP8 PUSH2 0xF7F JUMP JUMPDEST POP POP POP POP POP POP JUMP JUMPDEST PUSH0 PUSH20 0xFFFFFFFFFFFFFFFFFFFFFFFFFFFFFFFFFFFFFFFF AND DUP5 PUSH20 0xFFFFFFFFFFFFFFFFFFFFFFFFFFFFFFFFFFFFFFFF AND SUB PUSH2 0xEE9 JUMPI PUSH0 PUSH1 0x40 MLOAD PUSH32 0x57F447CE00000000000000000000000000000000000000000000000000000000 DUP2 MSTORE PUSH1 0x4 ADD PUSH2 0xEE0 SWAP2 SWAP1 PUSH2 0x1EF6 JUMP JUMPDEST PUSH1 0x40 MLOAD DUP1 SWAP2 SUB SWAP1 REVERT JUMPDEST PUSH0 PUSH20 0xFFFFFFFFFFFFFFFFFFFFFFFFFFFFFFFFFFFFFFFF AND DUP6 PUSH20 0xFFFFFFFFFFFFFFFFFFFFFFFFFFFFFFFFFFFFFFFF AND SUB PUSH2 0xF59 JUMPI PUSH0 PUSH1 0x40 MLOAD PUSH32 0x1A8351400000000000000000000000000000000000000000000000000000000 DUP2 MSTORE PUSH1 0x4 ADD PUSH2 0xF50 SWAP2 SWAP1 PUSH2 0x1EF6 JUMP JUMPDEST PUSH1 0x40 MLOAD DUP1 SWAP2 SUB SWAP1 REVERT JUMPDEST PUSH0 DUP1 PUSH2 0xF65 DUP6 DUP6 PUSH2 0x102B JUMP JUMPDEST SWAP2 POP SWAP2 POP PUSH2 0xF76 DUP8 DUP8 DUP5 DUP5 DUP8 PUSH2 0xF7F JUMP JUMPDEST POP POP POP POP POP POP POP JUMP JUMPDEST PUSH2 0xF8B DUP6 DUP6 DUP6 DUP6 PUSH2 0x105B JUMP JUMPDEST PUSH0 PUSH20 0xFFFFFFFFFFFFFFFFFFFFFFFFFFFFFFFFFFFFFFFF AND DUP5 PUSH20 0xFFFFFFFFFFFFFFFFFFFFFFFFFFFFFFFFFFFFFFFF AND EQ PUSH2 0x1024 JUMPI PUSH0 PUSH2 0xFC7 PUSH2 0xA10 JUMP JUMPDEST SWAP1 POP PUSH1 0x1 DUP5 MLOAD SUB PUSH2 0x1013 JUMPI PUSH0 PUSH2 0xFE6 PUSH0 DUP7 PUSH2 0xB1E SWAP1 SWAP2 SWAP1 PUSH4 0xFFFFFFFF AND JUMP JUMPDEST SWAP1 POP PUSH0 PUSH2 0xFFC PUSH0 DUP7 PUSH2 0xB1E SWAP1 SWAP2 SWAP1 PUSH4 0xFFFFFFFF AND JUMP JUMPDEST SWAP1 POP PUSH2 0x100C DUP4 DUP10 DUP10 DUP6 DUP6 DUP10 PUSH2 0x13EB JUMP JUMPDEST POP POP PUSH2 0x1022 JUMP JUMPDEST PUSH2 0x1021 DUP2 DUP8 DUP8 DUP8 DUP8 DUP8 PUSH2 0x159A JUMP JUMPDEST JUMPDEST POP JUMPDEST POP POP POP POP POP JUMP JUMPDEST PUSH1 0x60 DUP1 PUSH1 0x40 MLOAD SWAP2 POP PUSH1 0x1 DUP3 MSTORE DUP4 PUSH1 0x20 DUP4 ADD MSTORE PUSH1 0x40 DUP3 ADD SWAP1 POP PUSH1 0x1 DUP2 MSTORE DUP3 PUSH1 0x20 DUP3 ADD MSTORE PUSH1 0x40 DUP2 ADD PUSH1 0x40 MSTORE SWAP3 POP SWAP3 SWAP1 POP JUMP JUMPDEST DUP1 MLOAD DUP3 MLOAD EQ PUSH2 0x10A5 JUMPI DUP2 MLOAD DUP2 MLOAD PUSH1 0x40 MLOAD PUSH32 0x5B05999100000000000000000000000000000000000000000000000000000000 DUP2 MSTORE PUSH1 0x4 ADD PUSH2 0x109C SWAP3 SWAP2 SWAP1 PUSH2 0x2201 JUMP JUMPDEST PUSH1 0x40 MLOAD DUP1 SWAP2 SUB SWAP1 REVERT JUMPDEST PUSH0 PUSH2 0x10AE PUSH2 0xA10 JUMP JUMPDEST SWAP1 POP PUSH0 JUMPDEST DUP4 MLOAD DUP2 LT ISZERO PUSH2 0x12AA JUMPI PUSH0 PUSH2 0x10CF DUP3 DUP7 PUSH2 0xB1E SWAP1 SWAP2 SWAP1 PUSH4 0xFFFFFFFF AND JUMP JUMPDEST SWAP1 POP PUSH0 PUSH2 0x10E5 DUP4 DUP7 PUSH2 0xB1E SWAP1 SWAP2 SWAP1 PUSH4 0xFFFFFFFF AND JUMP JUMPDEST SWAP1 POP PUSH0 PUSH20 0xFFFFFFFFFFFFFFFFFFFFFFFFFFFFFFFFFFFFFFFF AND DUP9 PUSH20 0xFFFFFFFFFFFFFFFFFFFFFFFFFFFFFFFFFFFFFFFF AND EQ PUSH2 0x1208 JUMPI PUSH0 DUP1 PUSH0 DUP5 DUP2 MSTORE PUSH1 0x20 ADD SWAP1 DUP2 MSTORE PUSH1 0x20 ADD PUSH0 KECCAK256 PUSH0 DUP11 PUSH20 0xFFFFFFFFFFFFFFFFFFFFFFFFFFFFFFFFFFFFFFFF AND PUSH20 0xFFFFFFFFFFFFFFFFFFFFFFFFFFFFFFFFFFFFFFFF AND DUP2 MSTORE PUSH1 0x20 ADD SWAP1 DUP2 MSTORE PUSH1 0x20 ADD PUSH0 KECCAK256 SLOAD SWAP1 POP DUP2 DUP2 LT ISZERO PUSH2 0x11B4 JUMPI DUP9 DUP2 DUP4 DUP6 PUSH1 0x40 MLOAD PUSH32 0x3DEE4C500000000000000000000000000000000000000000000000000000000 DUP2 MSTORE PUSH1 0x4 ADD PUSH2 0x11AB SWAP5 SWAP4 SWAP3 SWAP2 SWAP1 PUSH2 0x2535 JUMP JUMPDEST PUSH1 0x40 MLOAD DUP1 SWAP2 SUB SWAP1 REVERT JUMPDEST DUP2 DUP2 SUB PUSH0 DUP1 DUP6 DUP2 MSTORE PUSH1 0x20 ADD SWAP1 DUP2 MSTORE PUSH1 0x20 ADD PUSH0 KECCAK256 PUSH0 DUP12 PUSH20 0xFFFFFFFFFFFFFFFFFFFFFFFFFFFFFFFFFFFFFFFF AND PUSH20 0xFFFFFFFFFFFFFFFFFFFFFFFFFFFFFFFFFFFFFFFF AND DUP2 MSTORE PUSH1 0x20 ADD SWAP1 DUP2 MSTORE PUSH1 0x20 ADD PUSH0 KECCAK256 DUP2 SWAP1 SSTORE POP POP JUMPDEST PUSH0 PUSH20 0xFFFFFFFFFFFFFFFFFFFFFFFFFFFFFFFFFFFFFFFF AND DUP8 PUSH20 0xFFFFFFFFFFFFFFFFFFFFFFFFFFFFFFFFFFFFFFFF AND EQ PUSH2 0x129D JUMPI DUP1 PUSH0 DUP1 DUP5 DUP2 MSTORE PUSH1 0x20 ADD SWAP1 DUP2 MSTORE PUSH1 0x20 ADD PUSH0 KECCAK256 PUSH0 DUP10 PUSH20 0xFFFFFFFFFFFFFFFFFFFFFFFFFFFFFFFFFFFFFFFF AND PUSH20 0xFFFFFFFFFFFFFFFFFFFFFFFFFFFFFFFFFFFFFFFF AND DUP2 MSTORE PUSH1 0x20 ADD SWAP1 DUP2 MSTORE PUSH1 0x20 ADD PUSH0 KECCAK256 PUSH0 DUP3 DUP3 SLOAD PUSH2 0x1295 SWAP2 SWAP1 PUSH2 0x2578 JUMP JUMPDEST SWAP3 POP POP DUP2 SWAP1 SSTORE POP JUMPDEST POP POP DUP1 PUSH1 0x1 ADD SWAP1 POP PUSH2 0x10B2 JUMP JUMPDEST POP PUSH1 0x1 DUP4 MLOAD SUB PUSH2 0x1365 JUMPI PUSH0 PUSH2 0x12C8 PUSH0 DUP6 PUSH2 0xB1E SWAP1 SWAP2 SWAP1 PUSH4 0xFFFFFFFF AND JUMP JUMPDEST SWAP1 POP PUSH0 PUSH2 0x12DE PUSH0 DUP6 PUSH2 0xB1E SWAP1 SWAP2 SWAP1 PUSH4 0xFFFFFFFF AND JUMP JUMPDEST SWAP1 POP DUP6 PUSH20 0xFFFFFFFFFFFFFFFFFFFFFFFFFFFFFFFFFFFFFFFF AND DUP8 PUSH20 0xFFFFFFFFFFFFFFFFFFFFFFFFFFFFFFFFFFFFFFFF AND DUP5 PUSH20 0xFFFFFFFFFFFFFFFFFFFFFFFFFFFFFFFFFFFFFFFF AND PUSH32 0xC3D58168C5AE7397731D063D5BBF3D657854427343F4C083240F7AACAA2D0F62 DUP6 DUP6 PUSH1 0x40 MLOAD PUSH2 0x1356 SWAP3 SWAP2 SWAP1 PUSH2 0x2201 JUMP JUMPDEST PUSH1 0x40 MLOAD DUP1 SWAP2 SUB SWAP1 LOG4 POP POP PUSH2 0x13E4 JUMP JUMPDEST DUP4 PUSH20 0xFFFFFFFFFFFFFFFFFFFFFFFFFFFFFFFFFFFFFFFF AND DUP6 PUSH20 0xFFFFFFFFFFFFFFFFFFFFFFFFFFFFFFFFFFFFFFFF AND DUP3 PUSH20 0xFFFFFFFFFFFFFFFFFFFFFFFFFFFFFFFFFFFFFFFF AND PUSH32 0x4A39DC06D4C0DBC64B70AF90FD698A233A518AA5D07E595D983B8C0526C8F7FB DUP7 DUP7 PUSH1 0x40 MLOAD PUSH2 0x13DB SWAP3 SWAP2 SWAP1 PUSH2 0x25AB JUMP JUMPDEST PUSH1 0x40 MLOAD DUP1 SWAP2 SUB SWAP1 LOG4 JUMPDEST POP POP POP POP POP JUMP JUMPDEST PUSH0 DUP5 PUSH20 0xFFFFFFFFFFFFFFFFFFFFFFFFFFFFFFFFFFFFFFFF AND EXTCODESIZE GT ISZERO PUSH2 0x1592 JUMPI DUP4 PUSH20 0xFFFFFFFFFFFFFFFFFFFFFFFFFFFFFFFFFFFFFFFF AND PUSH4 0xF23A6E61 DUP8 DUP8 DUP7 DUP7 DUP7 PUSH1 0x40 MLOAD DUP7 PUSH4 0xFFFFFFFF AND PUSH1 0xE0 SHL DUP2 MSTORE PUSH1 0x4 ADD PUSH2 0x144B SWAP6 SWAP5 SWAP4 SWAP3 SWAP2 SWAP1 PUSH2 0x2632 JUMP JUMPDEST PUSH1 0x20 PUSH1 0x40 MLOAD DUP1 DUP4 SUB DUP2 PUSH0 DUP8 GAS CALL SWAP3 POP POP POP DUP1 ISZERO PUSH2 0x1486 JUMPI POP PUSH1 0x40 MLOAD RETURNDATASIZE PUSH1 0x1F NOT PUSH1 0x1F DUP3 ADD AND DUP3 ADD DUP1 PUSH1 0x40 MSTORE POP DUP2 ADD SWAP1 PUSH2 0x1483 SWAP2 SWAP1 PUSH2 0x269E JUMP JUMPDEST PUSH1 0x1 JUMPDEST PUSH2 0x1507 JUMPI RETURNDATASIZE DUP1 PUSH0 DUP2 EQ PUSH2 0x14B4 JUMPI PUSH1 0x40 MLOAD SWAP2 POP PUSH1 0x1F NOT PUSH1 0x3F RETURNDATASIZE ADD AND DUP3 ADD PUSH1 0x40 MSTORE RETURNDATASIZE DUP3 MSTORE RETURNDATASIZE PUSH0 PUSH1 0x20 DUP5 ADD RETURNDATACOPY PUSH2 0x14B9 JUMP JUMPDEST PUSH1 0x60 SWAP2 POP JUMPDEST POP PUSH0 DUP2 MLOAD SUB PUSH2 0x14FF JUMPI DUP5 PUSH1 0x40 MLOAD PUSH32 0x57F447CE00000000000000000000000000000000000000000000000000000000 DUP2 MSTORE PUSH1 0x4 ADD PUSH2 0x14F6 SWAP2 SWAP1 PUSH2 0x1EF6 JUMP JUMPDEST PUSH1 0x40 MLOAD DUP1 SWAP2 SUB SWAP1 REVERT JUMPDEST DUP1 MLOAD DUP2 PUSH1 0x20 ADD REVERT JUMPDEST PUSH4 0xF23A6E61 PUSH1 0xE0 SHL PUSH28 0xFFFFFFFFFFFFFFFFFFFFFFFFFFFFFFFFFFFFFFFFFFFFFFFFFFFFFFFF NOT AND DUP2 PUSH28 0xFFFFFFFFFFFFFFFFFFFFFFFFFFFFFFFFFFFFFFFFFFFFFFFFFFFFFFFF NOT AND EQ PUSH2 0x1590 JUMPI DUP5 PUSH1 0x40 MLOAD PUSH32 0x57F447CE00000000000000000000000000000000000000000000000000000000 DUP2 MSTORE PUSH1 0x4 ADD PUSH2 0x1587 SWAP2 SWAP1 PUSH2 0x1EF6 JUMP JUMPDEST PUSH1 0x40 MLOAD DUP1 SWAP2 SUB SWAP1 REVERT JUMPDEST POP JUMPDEST POP POP POP POP POP POP JUMP JUMPDEST PUSH0 DUP5 PUSH20 0xFFFFFFFFFFFFFFFFFFFFFFFFFFFFFFFFFFFFFFFF AND EXTCODESIZE GT ISZERO PUSH2 0x1741 JUMPI DUP4 PUSH20 0xFFFFFFFFFFFFFFFFFFFFFFFFFFFFFFFFFFFFFFFF AND PUSH4 0xBC197C81 DUP8 DUP8 DUP7 DUP7 DUP7 PUSH1 0x40 MLOAD DUP7 PUSH4 0xFFFFFFFF AND PUSH1 0xE0 SHL DUP2 MSTORE PUSH1 0x4 ADD PUSH2 0x15FA SWAP6 SWAP5 SWAP4 SWAP3 SWAP2 SWAP1 PUSH2 0x26C9 JUMP JUMPDEST PUSH1 0x20 PUSH1 0x40 MLOAD DUP1 DUP4 SUB DUP2 PUSH0 DUP8 GAS CALL SWAP3 POP POP POP DUP1 ISZERO PUSH2 0x1635 JUMPI POP PUSH1 0x40 MLOAD RETURNDATASIZE PUSH1 0x1F NOT PUSH1 0x1F DUP3 ADD AND DUP3 ADD DUP1 PUSH1 0x40 MSTORE POP DUP2 ADD SWAP1 PUSH2 0x1632 SWAP2 SWAP1 PUSH2 0x269E JUMP JUMPDEST PUSH1 0x1 JUMPDEST PUSH2 0x16B6 JUMPI RETURNDATASIZE DUP1 PUSH0 DUP2 EQ PUSH2 0x1663 JUMPI PUSH1 0x40 MLOAD SWAP2 POP PUSH1 0x1F NOT PUSH1 0x3F RETURNDATASIZE ADD AND DUP3 ADD PUSH1 0x40 MSTORE RETURNDATASIZE DUP3 MSTORE RETURNDATASIZE PUSH0 PUSH1 0x20 DUP5 ADD RETURNDATACOPY PUSH2 0x1668 JUMP JUMPDEST PUSH1 0x60 SWAP2 POP JUMPDEST POP PUSH0 DUP2 MLOAD SUB PUSH2 0x16AE JUMPI DUP5 PUSH1 0x40 MLOAD PUSH32 0x57F447CE00000000000000000000000000000000000000000000000000000000 DUP2 MSTORE PUSH1 0x4 ADD PUSH2 0x16A5 SWAP2 SWAP1 PUSH2 0x1EF6 JUMP JUMPDEST PUSH1 0x40 MLOAD DUP1 SWAP2 SUB SWAP1 REVERT JUMPDEST DUP1 MLOAD DUP2 PUSH1 0x20 ADD REVERT JUMPDEST PUSH4 0xBC197C81 PUSH1 0xE0 SHL PUSH28 0xFFFFFFFFFFFFFFFFFFFFFFFFFFFFFFFFFFFFFFFFFFFFFFFFFFFFFFFF NOT AND DUP2 PUSH28 0xFFFFFFFFFFFFFFFFFFFFFFFFFFFFFFFFFFFFFFFFFFFFFFFFFFFFFFFF NOT AND EQ PUSH2 0x173F JUMPI DUP5 PUSH1 0x40 MLOAD PUSH32 0x57F447CE00000000000000000000000000000000000000000000000000000000 DUP2 MSTORE PUSH1 0x4 ADD PUSH2 0x1736 SWAP2 SWAP1 PUSH2 0x1EF6 JUMP JUMPDEST PUSH1 0x40 MLOAD DUP1 SWAP2 SUB SWAP1 REVERT JUMPDEST POP JUMPDEST POP POP POP POP POP POP JUMP JUMPDEST PUSH0 PUSH1 0x40 MLOAD SWAP1 POP SWAP1 JUMP JUMPDEST PUSH0 DUP1 REVERT JUMPDEST PUSH0 DUP1 REVERT JUMPDEST PUSH0 PUSH20 0xFFFFFFFFFFFFFFFFFFFFFFFFFFFFFFFFFFFFFFFF DUP3 AND SWAP1 POP SWAP2 SWAP1 POP JUMP JUMPDEST PUSH0 PUSH2 0x1783 DUP3 PUSH2 0x175A JUMP JUMPDEST SWAP1 POP SWAP2 SWAP1 POP JUMP JUMPDEST PUSH2 0x1793 DUP2 PUSH2 0x1779 JUMP JUMPDEST DUP2 EQ PUSH2 0x179D JUMPI PUSH0 DUP1 REVERT JUMPDEST POP JUMP JUMPDEST PUSH0 DUP2 CALLDATALOAD SWAP1 POP PUSH2 0x17AE DUP2 PUSH2 0x178A JUMP JUMPDEST SWAP3 SWAP2 POP POP JUMP JUMPDEST PUSH0 DUP2 SWAP1 POP SWAP2 SWAP1 POP JUMP JUMPDEST PUSH2 0x17C6 DUP2 PUSH2 0x17B4 JUMP JUMPDEST DUP2 EQ PUSH2 0x17D0 JUMPI PUSH0 DUP1 REVERT JUMPDEST POP JUMP JUMPDEST PUSH0 DUP2 CALLDATALOAD SWAP1 POP PUSH2 0x17E1 DUP2 PUSH2 0x17BD JUMP JUMPDEST SWAP3 SWAP2 POP POP JUMP JUMPDEST PUSH0 DUP1 PUSH1 0x40 DUP4 DUP6 SUB SLT ISZERO PUSH2 0x17FD JUMPI PUSH2 0x17FC PUSH2 0x1752 JUMP JUMPDEST JUMPDEST PUSH0 PUSH2 0x180A DUP6 DUP3 DUP7 ADD PUSH2 0x17A0 JUMP JUMPDEST SWAP3 POP POP PUSH1 0x20 PUSH2 0x181B DUP6 DUP3 DUP7 ADD PUSH2 0x17D3 JUMP JUMPDEST SWAP2 POP POP SWAP3 POP SWAP3 SWAP1 POP JUMP JUMPDEST PUSH2 0x182E DUP2 PUSH2 0x17B4 JUMP JUMPDEST DUP3 MSTORE POP POP JUMP JUMPDEST PUSH0 PUSH1 0x20 DUP3 ADD SWAP1 POP PUSH2 0x1847 PUSH0 DUP4 ADD DUP5 PUSH2 0x1825 JUMP JUMPDEST SWAP3 SWAP2 POP POP JUMP JUMPDEST PUSH0 PUSH32 0xFFFFFFFF00000000000000000000000000000000000000000000000000000000 DUP3 AND SWAP1 POP SWAP2 SWAP1 POP JUMP JUMPDEST PUSH2 0x1881 DUP2 PUSH2 0x184D JUMP JUMPDEST DUP2 EQ PUSH2 0x188B JUMPI PUSH0 DUP1 REVERT JUMPDEST POP JUMP JUMPDEST PUSH0 DUP2 CALLDATALOAD SWAP1 POP PUSH2 0x189C DUP2 PUSH2 0x1878 JUMP JUMPDEST SWAP3 SWAP2 POP POP JUMP JUMPDEST PUSH0 PUSH1 0x20 DUP3 DUP5 SUB SLT ISZERO PUSH2 0x18B7 JUMPI PUSH2 0x18B6 PUSH2 0x1752 JUMP JUMPDEST JUMPDEST PUSH0 PUSH2 0x18C4 DUP5 DUP3 DUP6 ADD PUSH2 0x188E JUMP JUMPDEST SWAP2 POP POP SWAP3 SWAP2 POP POP JUMP JUMPDEST PUSH0 DUP2 ISZERO ISZERO SWAP1 POP SWAP2 SWAP1 POP JUMP JUMPDEST PUSH2 0x18E1 DUP2 PUSH2 0x18CD JUMP JUMPDEST DUP3 MSTORE POP POP JUMP JUMPDEST PUSH0 PUSH1 0x20 DUP3 ADD SWAP1 POP PUSH2 0x18FA PUSH0 DUP4 ADD DUP5 PUSH2 0x18D8 JUMP JUMPDEST SWAP3 SWAP2 POP POP JUMP JUMPDEST PUSH0 PUSH1 0x20 DUP3 DUP5 SUB SLT ISZERO PUSH2 0x1915 JUMPI PUSH2 0x1914 PUSH2 0x1752 JUMP JUMPDEST JUMPDEST PUSH0 PUSH2 0x1922 DUP5 DUP3 DUP6 ADD PUSH2 0x17D3 JUMP JUMPDEST SWAP2 POP POP SWAP3 SWAP2 POP POP JUMP JUMPDEST PUSH0 DUP2 MLOAD SWAP1 POP SWAP2 SWAP1 POP JUMP JUMPDEST PUSH0 DUP3 DUP3 MSTORE PUSH1 0x20 DUP3 ADD SWAP1 POP SWAP3 SWAP2 POP POP JUMP JUMPDEST DUP3 DUP2 DUP4 MCOPY PUSH0 DUP4 DUP4 ADD MSTORE POP POP POP JUMP JUMPDEST PUSH0 PUSH1 0x1F NOT PUSH1 0x1F DUP4 ADD AND SWAP1 POP SWAP2 SWAP1 POP JUMP JUMPDEST PUSH0 PUSH2 0x196D DUP3 PUSH2 0x192B JUMP JUMPDEST PUSH2 0x1977 DUP2 DUP6 PUSH2 0x1935 JUMP JUMPDEST SWAP4 POP PUSH2 0x1987 DUP2 DUP6 PUSH1 0x20 DUP7 ADD PUSH2 0x1945 JUMP JUMPDEST PUSH2 0x1990 DUP2 PUSH2 0x1953 JUMP JUMPDEST DUP5 ADD SWAP2 POP POP SWAP3 SWAP2 POP POP JUMP JUMPDEST PUSH0 PUSH1 0x20 DUP3 ADD SWAP1 POP DUP2 DUP2 SUB PUSH0 DUP4 ADD MSTORE PUSH2 0x19B3 DUP2 DUP5 PUSH2 0x1963 JUMP JUMPDEST SWAP1 POP SWAP3 SWAP2 POP POP JUMP JUMPDEST PUSH0 DUP1 PUSH0 DUP1 PUSH1 0x80 DUP6 DUP8 SUB SLT ISZERO PUSH2 0x19D3 JUMPI PUSH2 0x19D2 PUSH2 0x1752 JUMP JUMPDEST JUMPDEST PUSH0 PUSH2 0x19E0 DUP8 DUP3 DUP9 ADD PUSH2 0x17A0 JUMP JUMPDEST SWAP5 POP POP PUSH1 0x20 PUSH2 0x19F1 DUP8 DUP3 DUP9 ADD PUSH2 0x17A0 JUMP JUMPDEST SWAP4 POP POP PUSH1 0x40 PUSH2 0x1A02 DUP8 DUP3 DUP9 ADD PUSH2 0x17D3 JUMP JUMPDEST SWAP3 POP POP PUSH1 0x60 PUSH2 0x1A13 DUP8 DUP3 DUP9 ADD PUSH2 0x17D3 JUMP JUMPDEST SWAP2 POP POP SWAP3 SWAP6 SWAP2 SWAP5 POP SWAP3 POP JUMP JUMPDEST PUSH0 DUP1 REVERT JUMPDEST PUSH32 0x4E487B7100000000000000000000000000000000000000000000000000000000 PUSH0 MSTORE PUSH1 0x41 PUSH1 0x4 MSTORE PUSH1 0x24 PUSH0 REVERT JUMPDEST PUSH2 0x1A59 DUP3 PUSH2 0x1953 JUMP JUMPDEST DUP2 ADD DUP2 DUP2 LT PUSH8 0xFFFFFFFFFFFFFFFF DUP3 GT OR ISZERO PUSH2 0x1A78 JUMPI PUSH2 0x1A77 PUSH2 0x1A23 JUMP JUMPDEST JUMPDEST DUP1 PUSH1 0x40 MSTORE POP POP POP JUMP JUMPDEST PUSH0 PUSH2 0x1A8A PUSH2 0x1749 JUMP JUMPDEST SWAP1 POP PUSH2 0x1A96 DUP3 DUP3 PUSH2 0x1A50 JUMP JUMPDEST SWAP2 SWAP1 POP JUMP JUMPDEST PUSH0 PUSH8 0xFFFFFFFFFFFFFFFF DUP3 GT ISZERO PUSH2 0x1AB5 JUMPI PUSH2 0x1AB4 PUSH2 0x1A23 JUMP JUMPDEST JUMPDEST PUSH1 0x20 DUP3 MUL SWAP1 POP PUSH1 0x20 DUP2 ADD SWAP1 POP SWAP2 SWAP1 POP JUMP JUMPDEST PUSH0 DUP1 REVERT JUMPDEST PUSH0 PUSH2 0x1ADC PUSH2 0x1AD7 DUP5 PUSH2 0x1A9B JUMP JUMPDEST PUSH2 0x1A81 JUMP JUMPDEST SWAP1 POP DUP1 DUP4 DUP3 MSTORE PUSH1 0x20 DUP3 ADD SWAP1 POP PUSH1 0x20 DUP5 MUL DUP4 ADD DUP6 DUP2 GT ISZERO PUSH2 0x1AFF JUMPI PUSH2 0x1AFE PUSH2 0x1AC6 JUMP JUMPDEST JUMPDEST DUP4 JUMPDEST DUP2 DUP2 LT ISZERO PUSH2 0x1B28 JUMPI DUP1 PUSH2 0x1B14 DUP9 DUP3 PUSH2 0x17D3 JUMP JUMPDEST DUP5 MSTORE PUSH1 0x20 DUP5 ADD SWAP4 POP POP PUSH1 0x20 DUP2 ADD SWAP1 POP PUSH2 0x1B01 JUMP JUMPDEST POP POP POP SWAP4 SWAP3 POP POP POP JUMP JUMPDEST PUSH0 DUP3 PUSH1 0x1F DUP4 ADD SLT PUSH2 0x1B46 JUMPI PUSH2 0x1B45 PUSH2 0x1A1F JUMP JUMPDEST JUMPDEST DUP2 CALLDATALOAD PUSH2 0x1B56 DUP5 DUP3 PUSH1 0x20 DUP7 ADD PUSH2 0x1ACA JUMP JUMPDEST SWAP2 POP POP SWAP3 SWAP2 POP POP JUMP JUMPDEST PUSH0 DUP1 REVERT JUMPDEST PUSH0 PUSH8 0xFFFFFFFFFFFFFFFF DUP3 GT ISZERO PUSH2 0x1B7D JUMPI PUSH2 0x1B7C PUSH2 0x1A23 JUMP JUMPDEST JUMPDEST PUSH2 0x1B86 DUP3 PUSH2 0x1953 JUMP JUMPDEST SWAP1 POP PUSH1 0x20 DUP2 ADD SWAP1 POP SWAP2 SWAP1 POP JUMP JUMPDEST DUP3 DUP2 DUP4 CALLDATACOPY PUSH0 DUP4 DUP4 ADD MSTORE POP POP POP JUMP JUMPDEST PUSH0 PUSH2 0x1BB3 PUSH2 0x1BAE DUP5 PUSH2 0x1B63 JUMP JUMPDEST PUSH2 0x1A81 JUMP JUMPDEST SWAP1 POP DUP3 DUP2 MSTORE PUSH1 0x20 DUP2 ADD DUP5 DUP5 DUP5 ADD GT ISZERO PUSH2 0x1BCF JUMPI PUSH2 0x1BCE PUSH2 0x1B5F JUMP JUMPDEST JUMPDEST PUSH2 0x1BDA DUP5 DUP3 DUP6 PUSH2 0x1B93 JUMP JUMPDEST POP SWAP4 SWAP3 POP POP POP JUMP JUMPDEST PUSH0 DUP3 PUSH1 0x1F DUP4 ADD SLT PUSH2 0x1BF6 JUMPI PUSH2 0x1BF5 PUSH2 0x1A1F JUMP JUMPDEST JUMPDEST DUP2 CALLDATALOAD PUSH2 0x1C06 DUP5 DUP3 PUSH1 0x20 DUP7 ADD PUSH2 0x1BA1 JUMP JUMPDEST SWAP2 POP POP SWAP3 SWAP2 POP POP JUMP JUMPDEST PUSH0 DUP1 PUSH0 DUP1 PUSH0 PUSH1 0xA0 DUP7 DUP9 SUB SLT ISZERO PUSH2 0x1C28 JUMPI PUSH2 0x1C27 PUSH2 0x1752 JUMP JUMPDEST JUMPDEST PUSH0 PUSH2 0x1C35 DUP9 DUP3 DUP10 ADD PUSH2 0x17A0 JUMP JUMPDEST SWAP6 POP POP PUSH1 0x20 PUSH2 0x1C46 DUP9 DUP3 DUP10 ADD PUSH2 0x17A0 JUMP JUMPDEST SWAP5 POP POP PUSH1 0x40 DUP7 ADD CALLDATALOAD PUSH8 0xFFFFFFFFFFFFFFFF DUP2 GT ISZERO PUSH2 0x1C67 JUMPI PUSH2 0x1C66 PUSH2 0x1756 JUMP JUMPDEST JUMPDEST PUSH2 0x1C73 DUP9 DUP3 DUP10 ADD PUSH2 0x1B32 JUMP JUMPDEST SWAP4 POP POP PUSH1 0x60 DUP7 ADD CALLDATALOAD PUSH8 0xFFFFFFFFFFFFFFFF DUP2 GT ISZERO PUSH2 0x1C94 JUMPI PUSH2 0x1C93 PUSH2 0x1756 JUMP JUMPDEST JUMPDEST PUSH2 0x1CA0 DUP9 DUP3 DUP10 ADD PUSH2 0x1B32 JUMP JUMPDEST SWAP3 POP POP PUSH1 0x80 DUP7 ADD CALLDATALOAD PUSH8 0xFFFFFFFFFFFFFFFF DUP2 GT ISZERO PUSH2 0x1CC1 JUMPI PUSH2 0x1CC0 PUSH2 0x1756 JUMP JUMPDEST JUMPDEST PUSH2 0x1CCD DUP9 DUP3 DUP10 ADD PUSH2 0x1BE2 JUMP JUMPDEST SWAP2 POP POP SWAP3 SWAP6 POP SWAP3 SWAP6 SWAP1 SWAP4 POP JUMP JUMPDEST PUSH0 PUSH8 0xFFFFFFFFFFFFFFFF DUP3 GT ISZERO PUSH2 0x1CF4 JUMPI PUSH2 0x1CF3 PUSH2 0x1A23 JUMP JUMPDEST JUMPDEST PUSH1 0x20 DUP3 MUL SWAP1 POP PUSH1 0x20 DUP2 ADD SWAP1 POP SWAP2 SWAP1 POP JUMP JUMPDEST PUSH0 PUSH2 0x1D17 PUSH2 0x1D12 DUP5 PUSH2 0x1CDA JUMP JUMPDEST PUSH2 0x1A81 JUMP JUMPDEST SWAP1 POP DUP1 DUP4 DUP3 MSTORE PUSH1 0x20 DUP3 ADD SWAP1 POP PUSH1 0x20 DUP5 MUL DUP4 ADD DUP6 DUP2 GT ISZERO PUSH2 0x1D3A JUMPI PUSH2 0x1D39 PUSH2 0x1AC6 JUMP JUMPDEST JUMPDEST DUP4 JUMPDEST DUP2 DUP2 LT ISZERO PUSH2 0x1D63 JUMPI DUP1 PUSH2 0x1D4F DUP9 DUP3 PUSH2 0x17A0 JUMP JUMPDEST DUP5 MSTORE PUSH1 0x20 DUP5 ADD SWAP4 POP POP PUSH1 0x20 DUP2 ADD SWAP1 POP PUSH2 0x1D3C JUMP JUMPDEST POP POP POP SWAP4 SWAP3 POP POP POP JUMP JUMPDEST PUSH0 DUP3 PUSH1 0x1F DUP4 ADD SLT PUSH2 0x1D81 JUMPI PUSH2 0x1D80 PUSH2 0x1A1F JUMP JUMPDEST JUMPDEST DUP2 CALLDATALOAD PUSH2 0x1D91 DUP5 DUP3 PUSH1 0x20 DUP7 ADD PUSH2 0x1D05 JUMP JUMPDEST SWAP2 POP POP SWAP3 SWAP2 POP POP JUMP JUMPDEST PUSH0 DUP1 PUSH1 0x40 DUP4 DUP6 SUB SLT ISZERO PUSH2 0x1DB0 JUMPI PUSH2 0x1DAF PUSH2 0x1752 JUMP JUMPDEST JUMPDEST PUSH0 DUP4 ADD CALLDATALOAD PUSH8 0xFFFFFFFFFFFFFFFF DUP2 GT ISZERO PUSH2 0x1DCD JUMPI PUSH2 0x1DCC PUSH2 0x1756 JUMP JUMPDEST JUMPDEST PUSH2 0x1DD9 DUP6 DUP3 DUP7 ADD PUSH2 0x1D6D JUMP JUMPDEST SWAP3 POP POP PUSH1 0x20 DUP4 ADD CALLDATALOAD PUSH8 0xFFFFFFFFFFFFFFFF DUP2 GT ISZERO PUSH2 0x1DFA JUMPI PUSH2 0x1DF9 PUSH2 0x1756 JUMP JUMPDEST JUMPDEST PUSH2 0x1E06 DUP6 DUP3 DUP7 ADD PUSH2 0x1B32 JUMP JUMPDEST SWAP2 POP POP SWAP3 POP SWAP3 SWAP1 POP JUMP JUMPDEST PUSH0 DUP2 MLOAD SWAP1 POP SWAP2 SWAP1 POP JUMP JUMPDEST PUSH0 DUP3 DUP3 MSTORE PUSH1 0x20 DUP3 ADD SWAP1 POP SWAP3 SWAP2 POP POP JUMP JUMPDEST PUSH0 DUP2 SWAP1 POP PUSH1 0x20 DUP3 ADD SWAP1 POP SWAP2 SWAP1 POP JUMP JUMPDEST PUSH2 0x1E42 DUP2 PUSH2 0x17B4 JUMP JUMPDEST DUP3 MSTORE POP POP JUMP JUMPDEST PUSH0 PUSH2 0x1E53 DUP4 DUP4 PUSH2 0x1E39 JUMP JUMPDEST PUSH1 0x20 DUP4 ADD SWAP1 POP SWAP3 SWAP2 POP POP JUMP JUMPDEST PUSH0 PUSH1 0x20 DUP3 ADD SWAP1 POP SWAP2 SWAP1 POP JUMP JUMPDEST PUSH0 PUSH2 0x1E75 DUP3 PUSH2 0x1E10 JUMP JUMPDEST PUSH2 0x1E7F DUP2 DUP6 PUSH2 0x1E1A JUMP JUMPDEST SWAP4 POP PUSH2 0x1E8A DUP4 PUSH2 0x1E2A JUMP JUMPDEST DUP1 PUSH0 JUMPDEST DUP4 DUP2 LT ISZERO PUSH2 0x1EBA JUMPI DUP2 MLOAD PUSH2 0x1EA1 DUP9 DUP3 PUSH2 0x1E48 JUMP JUMPDEST SWAP8 POP PUSH2 0x1EAC DUP4 PUSH2 0x1E5F JUMP JUMPDEST SWAP3 POP POP PUSH1 0x1 DUP2 ADD SWAP1 POP PUSH2 0x1E8D JUMP JUMPDEST POP DUP6 SWAP4 POP POP POP POP SWAP3 SWAP2 POP POP JUMP JUMPDEST PUSH0 PUSH1 0x20 DUP3 ADD SWAP1 POP DUP2 DUP2 SUB PUSH0 DUP4 ADD MSTORE PUSH2 0x1EDF DUP2 DUP5 PUSH2 0x1E6B JUMP JUMPDEST SWAP1 POP SWAP3 SWAP2 POP POP JUMP JUMPDEST PUSH2 0x1EF0 DUP2 PUSH2 0x1779 JUMP JUMPDEST DUP3 MSTORE POP POP JUMP JUMPDEST PUSH0 PUSH1 0x20 DUP3 ADD SWAP1 POP PUSH2 0x1F09 PUSH0 DUP4 ADD DUP5 PUSH2 0x1EE7 JUMP JUMPDEST SWAP3 SWAP2 POP POP JUMP JUMPDEST PUSH2 0x1F18 DUP2 PUSH2 0x18CD JUMP JUMPDEST DUP2 EQ PUSH2 0x1F22 JUMPI PUSH0 DUP1 REVERT JUMPDEST POP JUMP JUMPDEST PUSH0 DUP2 CALLDATALOAD SWAP1 POP PUSH2 0x1F33 DUP2 PUSH2 0x1F0F JUMP JUMPDEST SWAP3 SWAP2 POP POP JUMP JUMPDEST PUSH0 DUP1 PUSH1 0x40 DUP4 DUP6 SUB SLT ISZERO PUSH2 0x1F4F JUMPI PUSH2 0x1F4E PUSH2 0x1752 JUMP JUMPDEST JUMPDEST PUSH0 PUSH2 0x1F5C DUP6 DUP3 DUP7 ADD PUSH2 0x17A0 JUMP JUMPDEST SWAP3 POP POP PUSH1 0x20 PUSH2 0x1F6D DUP6 DUP3 DUP7 ADD PUSH2 0x1F25 JUMP JUMPDEST SWAP2 POP POP SWAP3 POP SWAP3 SWAP1 POP JUMP JUMPDEST PUSH0 PUSH8 0xFFFFFFFFFFFFFFFF DUP3 GT ISZERO PUSH2 0x1F91 JUMPI PUSH2 0x1F90 PUSH2 0x1A23 JUMP JUMPDEST JUMPDEST PUSH2 0x1F9A DUP3 PUSH2 0x1953 JUMP JUMPDEST SWAP1 POP PUSH1 0x20 DUP2 ADD SWAP1 POP SWAP2 SWAP1 POP JUMP JUMPDEST PUSH0 PUSH2 0x1FB9 PUSH2 0x1FB4 DUP5 PUSH2 0x1F77 JUMP JUMPDEST PUSH2 0x1A81 JUMP JUMPDEST SWAP1 POP DUP3 DUP2 MSTORE PUSH1 0x20 DUP2 ADD DUP5 DUP5 DUP5 ADD GT ISZERO PUSH2 0x1FD5 JUMPI PUSH2 0x1FD4 PUSH2 0x1B5F JUMP JUMPDEST JUMPDEST PUSH2 0x1FE0 DUP5 DUP3 DUP6 PUSH2 0x1B93 JUMP JUMPDEST POP SWAP4 SWAP3 POP POP POP JUMP JUMPDEST PUSH0 DUP3 PUSH1 0x1F DUP4 ADD SLT PUSH2 0x1FFC JUMPI PUSH2 0x1FFB PUSH2 0x1A1F JUMP JUMPDEST JUMPDEST DUP2 CALLDATALOAD PUSH2 0x200C DUP5 DUP3 PUSH1 0x20 DUP7 ADD PUSH2 0x1FA7 JUMP JUMPDEST SWAP2 POP POP SWAP3 SWAP2 POP POP JUMP JUMPDEST PUSH0 DUP1 PUSH0 PUSH1 0x60 DUP5 DUP7 SUB SLT ISZERO PUSH2 0x202C JUMPI PUSH2 0x202B PUSH2 0x1752 JUMP JUMPDEST JUMPDEST PUSH0 PUSH2 0x2039 DUP7 DUP3 DUP8 ADD PUSH2 0x17A0 JUMP JUMPDEST SWAP4 POP POP PUSH1 0x20 PUSH2 0x204A DUP7 DUP3 DUP8 ADD PUSH2 0x17D3 JUMP JUMPDEST SWAP3 POP POP PUSH1 0x40 DUP5 ADD CALLDATALOAD PUSH8 0xFFFFFFFFFFFFFFFF DUP2 GT ISZERO PUSH2 0x206B JUMPI PUSH2 0x206A PUSH2 0x1756 JUMP JUMPDEST JUMPDEST PUSH2 0x2077 DUP7 DUP3 DUP8 ADD PUSH2 0x1FE8 JUMP JUMPDEST SWAP2 POP POP SWAP3 POP SWAP3 POP SWAP3 JUMP JUMPDEST PUSH0 DUP1 PUSH1 0x40 DUP4 DUP6 SUB SLT ISZERO PUSH2 0x2097 JUMPI PUSH2 0x2096 PUSH2 0x1752 JUMP JUMPDEST JUMPDEST PUSH0 PUSH2 0x20A4 DUP6 DUP3 DUP7 ADD PUSH2 0x17A0 JUMP JUMPDEST SWAP3 POP POP PUSH1 0x20 PUSH2 0x20B5 DUP6 DUP3 DUP7 ADD PUSH2 0x17A0 JUMP JUMPDEST SWAP2 POP POP SWAP3 POP SWAP3 SWAP1 POP JUMP JUMPDEST PUSH0 DUP1 PUSH0 DUP1 PUSH0 PUSH1 0xA0 DUP7 DUP9 SUB SLT ISZERO PUSH2 0x20D8 JUMPI PUSH2 0x20D7 PUSH2 0x1752 JUMP JUMPDEST JUMPDEST PUSH0 PUSH2 0x20E5 DUP9 DUP3 DUP10 ADD PUSH2 0x17A0 JUMP JUMPDEST SWAP6 POP POP PUSH1 0x20 PUSH2 0x20F6 DUP9 DUP3 DUP10 ADD PUSH2 0x17A0 JUMP JUMPDEST SWAP5 POP POP PUSH1 0x40 PUSH2 0x2107 DUP9 DUP3 DUP10 ADD PUSH2 0x17D3 JUMP JUMPDEST SWAP4 POP POP PUSH1 0x60 PUSH2 0x2118 DUP9 DUP3 DUP10 ADD PUSH2 0x17D3 JUMP JUMPDEST SWAP3 POP POP PUSH1 0x80 DUP7 ADD CALLDATALOAD PUSH8 0xFFFFFFFFFFFFFFFF DUP2 GT ISZERO PUSH2 0x2139 JUMPI PUSH2 0x2138 PUSH2 0x1756 JUMP JUMPDEST JUMPDEST PUSH2 0x2145 DUP9 DUP3 DUP10 ADD PUSH2 0x1BE2 JUMP JUMPDEST SWAP2 POP POP SWAP3 SWAP6 POP SWAP3 SWAP6 SWAP1 SWAP4 POP JUMP JUMPDEST PUSH0 PUSH1 0x20 DUP3 DUP5 SUB SLT ISZERO PUSH2 0x2167 JUMPI PUSH2 0x2166 PUSH2 0x1752 JUMP JUMPDEST JUMPDEST PUSH0 PUSH2 0x2174 DUP5 DUP3 DUP6 ADD PUSH2 0x17A0 JUMP JUMPDEST SWAP2 POP POP SWAP3 SWAP2 POP POP JUMP JUMPDEST PUSH32 0x4E487B7100000000000000000000000000000000000000000000000000000000 PUSH0 MSTORE PUSH1 0x22 PUSH1 0x4 MSTORE PUSH1 0x24 PUSH0 REVERT JUMPDEST PUSH0 PUSH1 0x2 DUP3 DIV SWAP1 POP PUSH1 0x1 DUP3 AND DUP1 PUSH2 0x21C1 JUMPI PUSH1 0x7F DUP3 AND SWAP2 POP JUMPDEST PUSH1 0x20 DUP3 LT DUP2 SUB PUSH2 0x21D4 JUMPI PUSH2 0x21D3 PUSH2 0x217D JUMP JUMPDEST JUMPDEST POP SWAP2 SWAP1 POP JUMP JUMPDEST PUSH0 PUSH1 0x40 DUP3 ADD SWAP1 POP PUSH2 0x21ED PUSH0 DUP4 ADD DUP6 PUSH2 0x1EE7 JUMP JUMPDEST PUSH2 0x21FA PUSH1 0x20 DUP4 ADD DUP5 PUSH2 0x1EE7 JUMP JUMPDEST SWAP4 SWAP3 POP POP POP JUMP JUMPDEST PUSH0 PUSH1 0x40 DUP3 ADD SWAP1 POP PUSH2 0x2214 PUSH0 DUP4 ADD DUP6 PUSH2 0x1825 JUMP JUMPDEST PUSH2 0x2221 PUSH1 0x20 DUP4 ADD DUP5 PUSH2 0x1825 JUMP JUMPDEST SWAP4 SWAP3 POP POP POP JUMP JUMPDEST PUSH32 0x4E487B7100000000000000000000000000000000000000000000000000000000 PUSH0 MSTORE PUSH1 0x32 PUSH1 0x4 MSTORE PUSH1 0x24 PUSH0 REVERT JUMPDEST PUSH0 DUP2 SWAP1 POP DUP2 PUSH0 MSTORE PUSH1 0x20 PUSH0 KECCAK256 SWAP1 POP SWAP2 SWAP1 POP JUMP JUMPDEST PUSH0 PUSH1 0x20 PUSH1 0x1F DUP4 ADD DIV SWAP1 POP SWAP2 SWAP1 POP JUMP JUMPDEST PUSH0 DUP3 DUP3 SHL SWAP1 POP SWAP3 SWAP2 POP POP JUMP JUMPDEST PUSH0 PUSH1 0x8 DUP4 MUL PUSH2 0x22B1 PUSH32 0xFFFFFFFFFFFFFFFFFFFFFFFFFFFFFFFFFFFFFFFFFFFFFFFFFFFFFFFFFFFFFFFF DUP3 PUSH2 0x2276 JUMP JUMPDEST PUSH2 0x22BB DUP7 DUP4 PUSH2 0x2276 JUMP JUMPDEST SWAP6 POP DUP1 NOT DUP5 AND SWAP4 POP DUP1 DUP7 AND DUP5 OR SWAP3 POP POP POP SWAP4 SWAP3 POP POP POP JUMP JUMPDEST PUSH0 DUP2 SWAP1 POP SWAP2 SWAP1 POP JUMP JUMPDEST PUSH0 PUSH2 0x22F6 PUSH2 0x22F1 PUSH2 0x22EC DUP5 PUSH2 0x17B4 JUMP JUMPDEST PUSH2 0x22D3 JUMP JUMPDEST PUSH2 0x17B4 JUMP JUMPDEST SWAP1 POP SWAP2 SWAP1 POP JUMP JUMPDEST PUSH0 DUP2 SWAP1 POP SWAP2 SWAP1 POP JUMP JUMPDEST PUSH2 0x230F DUP4 PUSH2 0x22DC JUMP JUMPDEST PUSH2 0x2323 PUSH2 0x231B DUP3 PUSH2 0x22FD JUMP JUMPDEST DUP5 DUP5 SLOAD PUSH2 0x2282 JUMP JUMPDEST DUP3 SSTORE POP POP POP POP JUMP JUMPDEST PUSH0 SWAP1 JUMP JUMPDEST PUSH2 0x2337 PUSH2 0x232B JUMP JUMPDEST PUSH2 0x2342 DUP2 DUP5 DUP5 PUSH2 0x2306 JUMP JUMPDEST POP POP POP JUMP JUMPDEST JUMPDEST DUP2 DUP2 LT ISZERO PUSH2 0x2365 JUMPI PUSH2 0x235A PUSH0 DUP3 PUSH2 0x232F JUMP JUMPDEST PUSH1 0x1 DUP2 ADD SWAP1 POP PUSH2 0x2348 JUMP JUMPDEST POP POP JUMP JUMPDEST PUSH1 0x1F DUP3 GT ISZERO PUSH2 0x23AA JUMPI PUSH2 0x237B DUP2 PUSH2 0x2255 JUMP JUMPDEST PUSH2 0x2384 DUP5 PUSH2 0x2267 JUMP JUMPDEST DUP2 ADD PUSH1 0x20 DUP6 LT ISZERO PUSH2 0x2393 JUMPI DUP2 SWAP1 POP JUMPDEST PUSH2 0x23A7 PUSH2 0x239F DUP6 PUSH2 0x2267 JUMP JUMPDEST DUP4 ADD DUP3 PUSH2 0x2347 JUMP JUMPDEST POP POP JUMPDEST POP POP POP JUMP JUMPDEST PUSH0 DUP3 DUP3 SHR SWAP1 POP SWAP3 SWAP2 POP POP JUMP JUMPDEST PUSH0 PUSH2 0x23CA PUSH0 NOT DUP5 PUSH1 0x8 MUL PUSH2 0x23AF JUMP JUMPDEST NOT DUP1 DUP4 AND SWAP2 POP POP SWAP3 SWAP2 POP POP JUMP JUMPDEST PUSH0 PUSH2 0x23E2 DUP4 DUP4 PUSH2 0x23BB JUMP JUMPDEST SWAP2 POP DUP3 PUSH1 0x2 MUL DUP3 OR SWAP1 POP SWAP3 SWAP2 POP POP JUMP JUMPDEST PUSH2 0x23FB DUP3 PUSH2 0x192B JUMP JUMPDEST PUSH8 0xFFFFFFFFFFFFFFFF DUP2 GT ISZERO PUSH2 0x2414 JUMPI PUSH2 0x2413 PUSH2 0x1A23 JUMP JUMPDEST JUMPDEST PUSH2 0x241E DUP3 SLOAD PUSH2 0x21AA JUMP JUMPDEST PUSH2 0x2429 DUP3 DUP3 DUP6 PUSH2 0x2369 JUMP JUMPDEST PUSH0 PUSH1 0x20 SWAP1 POP PUSH1 0x1F DUP4 GT PUSH1 0x1 DUP2 EQ PUSH2 0x245A JUMPI PUSH0 DUP5 ISZERO PUSH2 0x2448 JUMPI DUP3 DUP8 ADD MLOAD SWAP1 POP JUMPDEST PUSH2 0x2452 DUP6 DUP3 PUSH2 0x23D7 JUMP JUMPDEST DUP7 SSTORE POP PUSH2 0x24B9 JUMP JUMPDEST PUSH1 0x1F NOT DUP5 AND PUSH2 0x2468 DUP7 PUSH2 0x2255 JUMP JUMPDEST PUSH0 JUMPDEST DUP3 DUP2 LT ISZERO PUSH2 0x248F JUMPI DUP5 DUP10 ADD MLOAD DUP3 SSTORE PUSH1 0x1 DUP3 ADD SWAP2 POP PUSH1 0x20 DUP6 ADD SWAP5 POP PUSH1 0x20 DUP2 ADD SWAP1 POP PUSH2 0x246A JUMP JUMPDEST DUP7 DUP4 LT ISZERO PUSH2 0x24AC JUMPI DUP5 DUP10 ADD MLOAD PUSH2 0x24A8 PUSH1 0x1F DUP10 AND DUP3 PUSH2 0x23BB JUMP JUMPDEST DUP4 SSTORE POP JUMPDEST PUSH1 0x1 PUSH1 0x2 DUP9 MUL ADD DUP9 SSTORE POP POP POP JUMPDEST POP POP POP POP POP POP JUMP JUMPDEST PUSH32 0x4E487B7100000000000000000000000000000000000000000000000000000000 PUSH0 MSTORE PUSH1 0x11 PUSH1 0x4 MSTORE PUSH1 0x24 PUSH0 REVERT JUMPDEST PUSH0 PUSH2 0x24F8 DUP3 PUSH2 0x17B4 JUMP JUMPDEST SWAP2 POP PUSH32 0xFFFFFFFFFFFFFFFFFFFFFFFFFFFFFFFFFFFFFFFFFFFFFFFFFFFFFFFFFFFFFFFF DUP3 SUB PUSH2 0x252A JUMPI PUSH2 0x2529 PUSH2 0x24C1 JUMP JUMPDEST JUMPDEST PUSH1 0x1 DUP3 ADD SWAP1 POP SWAP2 SWAP1 POP JUMP JUMPDEST PUSH0 PUSH1 0x80 DUP3 ADD SWAP1 POP PUSH2 0x2548 PUSH0 DUP4 ADD DUP8 PUSH2 0x1EE7 JUMP JUMPDEST PUSH2 0x2555 PUSH1 0x20 DUP4 ADD DUP7 PUSH2 0x1825 JUMP JUMPDEST PUSH2 0x2562 PUSH1 0x40 DUP4 ADD DUP6 PUSH2 0x1825 JUMP JUMPDEST PUSH2 0x256F PUSH1 0x60 DUP4 ADD DUP5 PUSH2 0x1825 JUMP JUMPDEST SWAP6 SWAP5 POP POP POP POP POP JUMP JUMPDEST PUSH0 PUSH2 0x2582 DUP3 PUSH2 0x17B4 JUMP JUMPDEST SWAP2 POP PUSH2 0x258D DUP4 PUSH2 0x17B4 JUMP JUMPDEST SWAP3 POP DUP3 DUP3 ADD SWAP1 POP DUP1 DUP3 GT ISZERO PUSH2 0x25A5 JUMPI PUSH2 0x25A4 PUSH2 0x24C1 JUMP JUMPDEST JUMPDEST SWAP3 SWAP2 POP POP JUMP JUMPDEST PUSH0 PUSH1 0x40 DUP3 ADD SWAP1 POP DUP2 DUP2 SUB PUSH0 DUP4 ADD MSTORE PUSH2 0x25C3 DUP2 DUP6 PUSH2 0x1E6B JUMP JUMPDEST SWAP1 POP DUP2 DUP2 SUB PUSH1 0x20 DUP4 ADD MSTORE PUSH2 0x25D7 DUP2 DUP5 PUSH2 0x1E6B JUMP JUMPDEST SWAP1 POP SWAP4 SWAP3 POP POP POP JUMP JUMPDEST PUSH0 DUP2 MLOAD SWAP1 POP SWAP2 SWAP1 POP JUMP JUMPDEST PUSH0 DUP3 DUP3 MSTORE PUSH1 0x20 DUP3 ADD SWAP1 POP SWAP3 SWAP2 POP POP JUMP JUMPDEST PUSH0 PUSH2 0x2604 DUP3 PUSH2 0x25E0 JUMP JUMPDEST PUSH2 0x260E DUP2 DUP6 PUSH2 0x25EA JUMP JUMPDEST SWAP4 POP PUSH2 0x261E DUP2 DUP6 PUSH1 0x20 DUP7 ADD PUSH2 0x1945 JUMP JUMPDEST PUSH2 0x2627 DUP2 PUSH2 0x1953 JUMP JUMPDEST DUP5 ADD SWAP2 POP POP SWAP3 SWAP2 POP POP JUMP JUMPDEST PUSH0 PUSH1 0xA0 DUP3 ADD SWAP1 POP PUSH2 0x2645 PUSH0 DUP4 ADD DUP9 PUSH2 0x1EE7 JUMP JUMPDEST PUSH2 0x2652 PUSH1 0x20 DUP4 ADD DUP8 PUSH2 0x1EE7 JUMP JUMPDEST PUSH2 0x265F PUSH1 0x40 DUP4 ADD DUP7 PUSH2 0x1825 JUMP JUMPDEST PUSH2 0x266C PUSH1 0x60 DUP4 ADD DUP6 PUSH2 0x1825 JUMP JUMPDEST DUP2 DUP2 SUB PUSH1 0x80 DUP4 ADD MSTORE PUSH2 0x267E DUP2 DUP5 PUSH2 0x25FA JUMP JUMPDEST SWAP1 POP SWAP7 SWAP6 POP POP POP POP POP POP JUMP JUMPDEST PUSH0 DUP2 MLOAD SWAP1 POP PUSH2 0x2698 DUP2 PUSH2 0x1878 JUMP JUMPDEST SWAP3 SWAP2 POP POP JUMP JUMPDEST PUSH0 PUSH1 0x20 DUP3 DUP5 SUB SLT ISZERO PUSH2 0x26B3 JUMPI PUSH2 0x26B2 PUSH2 0x1752 JUMP JUMPDEST JUMPDEST PUSH0 PUSH2 0x26C0 DUP5 DUP3 DUP6 ADD PUSH2 0x268A JUMP JUMPDEST SWAP2 POP POP SWAP3 SWAP2 POP POP JUMP JUMPDEST PUSH0 PUSH1 0xA0 DUP3 ADD SWAP1 POP PUSH2 0x26DC PUSH0 DUP4 ADD DUP9 PUSH2 0x1EE7 JUMP JUMPDEST PUSH2 0x26E9 PUSH1 0x20 DUP4 ADD DUP8 PUSH2 0x1EE7 JUMP JUMPDEST DUP2 DUP2 SUB PUSH1 0x40 DUP4 ADD MSTORE PUSH2 0x26FB DUP2 DUP7 PUSH2 0x1E6B JUMP JUMPDEST SWAP1 POP DUP2 DUP2 SUB PUSH1 0x60 DUP4 ADD MSTORE PUSH2 0x270F DUP2 DUP6 PUSH2 0x1E6B JUMP JUMPDEST SWAP1 POP DUP2 DUP2 SUB PUSH1 0x80 DUP4 ADD MSTORE PUSH2 0x2723 DUP2 DUP5 PUSH2 0x25FA JUMP JUMPDEST SWAP1 POP SWAP7 SWAP6 POP POP POP POP POP POP JUMP INVALID LOG2 PUSH5 0x6970667358 0x22 SLT KECCAK256 CALLCODE 0xDD 0xF 0xCD SWAP15 SDIV 0xE3 0xFC CREATE TSTORE 0xAD SWAP1 0xA8 TSTORE 0xE2 0xA8 0xE9 DUP11 0x4C CALLCODE PUSH32 0xDCF0DE2263104BA20A07C964736F6C634300081A003300000000000000000000 "
				},
				"gasEstimates": {
					"creation": {
						"codeDepositCost": "2017000",
						"executionCost": "infinite",
						"totalCost": "infinite"
					},
					"external": {
						"balanceOf(address,uint256)": "infinite",
						"balanceOfBatch(address[],uint256[])": "infinite",
						"currentID()": "2470",
						"isApprovedForAll(address,address)": "infinite",
						"mint(address,uint256,string)": "infinite",
						"owner()": "2582",
						"renounceOwnership()": "infinite",
						"safeBatchTransferFrom(address,address,uint256[],uint256[],bytes)": "infinite",
						"safeTransferFrom(address,address,uint256,uint256)": "infinite",
						"safeTransferFrom(address,address,uint256,uint256,bytes)": "infinite",
						"setApprovalForAll(address,bool)": "infinite",
						"supportsInterface(bytes4)": "809",
						"tokenURIs(uint256)": "infinite",
						"transferOwnership(address)": "infinite",
						"uri(uint256)": "infinite"
					}
				},
				"methodIdentifiers": {
					"balanceOf(address,uint256)": "00fdd58e",
					"balanceOfBatch(address[],uint256[])": "4e1273f4",
					"currentID()": "1c75cfb4",
					"isApprovedForAll(address,address)": "e985e9c5",
					"mint(address,uint256,string)": "d3fc9864",
					"owner()": "8da5cb5b",
					"renounceOwnership()": "715018a6",
					"safeBatchTransferFrom(address,address,uint256[],uint256[],bytes)": "2eb2c2d6",
					"safeTransferFrom(address,address,uint256,uint256)": "0febdd49",
					"safeTransferFrom(address,address,uint256,uint256,bytes)": "f242432a",
					"setApprovalForAll(address,bool)": "a22cb465",
					"supportsInterface(bytes4)": "01ffc9a7",
					"tokenURIs(uint256)": "6c8b703f",
					"transferOwnership(address)": "f2fde38b",
					"uri(uint256)": "0e89341c"
				}
			},
			"storageLayout": {
				"storage": [
					{
						"astId": 326,
						"contract": "contracts/MusicPlatform.sol:MusicPlatform",
						"label": "_balances",
						"offset": 0,
						"slot": "0",
						"type": "t_mapping(t_uint256,t_mapping(t_address,t_uint256))"
					},
					{
						"astId": 332,
						"contract": "contracts/MusicPlatform.sol:MusicPlatform",
						"label": "_operatorApprovals",
						"offset": 0,
						"slot": "1",
						"type": "t_mapping(t_address,t_mapping(t_address,t_bool))"
					},
					{
						"astId": 334,
						"contract": "contracts/MusicPlatform.sol:MusicPlatform",
						"label": "_uri",
						"offset": 0,
						"slot": "2",
						"type": "t_string_storage"
					},
					{
						"astId": 8,
						"contract": "contracts/MusicPlatform.sol:MusicPlatform",
						"label": "_owner",
						"offset": 0,
						"slot": "3",
						"type": "t_address"
					},
					{
						"astId": 3125,
						"contract": "contracts/MusicPlatform.sol:MusicPlatform",
						"label": "currentID",
						"offset": 0,
						"slot": "4",
						"type": "t_uint256"
					},
					{
						"astId": 3129,
						"contract": "contracts/MusicPlatform.sol:MusicPlatform",
						"label": "tokenURIs",
						"offset": 0,
						"slot": "5",
						"type": "t_mapping(t_uint256,t_string_storage)"
					}
				],
				"types": {
					"t_address": {
						"encoding": "inplace",
						"label": "address",
						"numberOfBytes": "20"
					},
					"t_bool": {
						"encoding": "inplace",
						"label": "bool",
						"numberOfBytes": "1"
					},
					"t_mapping(t_address,t_bool)": {
						"encoding": "mapping",
						"key": "t_address",
						"label": "mapping(address => bool)",
						"numberOfBytes": "32",
						"value": "t_bool"
					},
					"t_mapping(t_address,t_mapping(t_address,t_bool))": {
						"encoding": "mapping",
						"key": "t_address",
						"label": "mapping(address => mapping(address => bool))",
						"numberOfBytes": "32",
						"value": "t_mapping(t_address,t_bool)"
					},
					"t_mapping(t_address,t_uint256)": {
						"encoding": "mapping",
						"key": "t_address",
						"label": "mapping(address => uint256)",
						"numberOfBytes": "32",
						"value": "t_uint256"
					},
					"t_mapping(t_uint256,t_mapping(t_address,t_uint256))": {
						"encoding": "mapping",
						"key": "t_uint256",
						"label": "mapping(uint256 => mapping(address => uint256))",
						"numberOfBytes": "32",
						"value": "t_mapping(t_address,t_uint256)"
					},
					"t_mapping(t_uint256,t_string_storage)": {
						"encoding": "mapping",
						"key": "t_uint256",
						"label": "mapping(uint256 => string)",
						"numberOfBytes": "32",
						"value": "t_string_storage"
					},
					"t_string_storage": {
						"encoding": "bytes",
						"label": "string",
						"numberOfBytes": "32"
					},
					"t_uint256": {
						"encoding": "inplace",
						"label": "uint256",
						"numberOfBytes": "32"
					}
				}
			},
			"userdoc": {
				"kind": "user",
				"methods": {},
				"version": 1
			}
		}
	}
}