{
	"contracts/SongNFT.sol": {
		"SongNFT": {
			"abi": [
				{
					"inputs": [],
					"stateMutability": "nonpayable",
					"type": "constructor"
				},
				{
					"inputs": [
						{
							"internalType": "address",
							"name": "sender",
							"type": "address"
						},
						{
							"internalType": "uint256",
							"name": "balance",
							"type": "uint256"
						},
						{
							"internalType": "uint256",
							"name": "needed",
							"type": "uint256"
						},
						{
							"internalType": "uint256",
							"name": "tokenId",
							"type": "uint256"
						}
					],
					"name": "ERC1155InsufficientBalance",
					"type": "error"
				},
				{
					"inputs": [
						{
							"internalType": "address",
							"name": "approver",
							"type": "address"
						}
					],
					"name": "ERC1155InvalidApprover",
					"type": "error"
				},
				{
					"inputs": [
						{
							"internalType": "uint256",
							"name": "idsLength",
							"type": "uint256"
						},
						{
							"internalType": "uint256",
							"name": "valuesLength",
							"type": "uint256"
						}
					],
					"name": "ERC1155InvalidArrayLength",
					"type": "error"
				},
				{
					"inputs": [
						{
							"internalType": "address",
							"name": "operator",
							"type": "address"
						}
					],
					"name": "ERC1155InvalidOperator",
					"type": "error"
				},
				{
					"inputs": [
						{
							"internalType": "address",
							"name": "receiver",
							"type": "address"
						}
					],
					"name": "ERC1155InvalidReceiver",
					"type": "error"
				},
				{
					"inputs": [
						{
							"internalType": "address",
							"name": "sender",
							"type": "address"
						}
					],
					"name": "ERC1155InvalidSender",
					"type": "error"
				},
				{
					"inputs": [
						{
							"internalType": "address",
							"name": "operator",
							"type": "address"
						},
						{
							"internalType": "address",
							"name": "owner",
							"type": "address"
						}
					],
					"name": "ERC1155MissingApprovalForAll",
					"type": "error"
				},
				{
					"anonymous": false,
					"inputs": [
						{
							"indexed": true,
							"internalType": "address",
							"name": "account",
							"type": "address"
						},
						{
							"indexed": true,
							"internalType": "address",
							"name": "operator",
							"type": "address"
						},
						{
							"indexed": false,
							"internalType": "bool",
							"name": "approved",
							"type": "bool"
						}
					],
					"name": "ApprovalForAll",
					"type": "event"
				},
				{
					"anonymous": false,
					"inputs": [
						{
							"indexed": true,
							"internalType": "address",
							"name": "operator",
							"type": "address"
						},
						{
							"indexed": true,
							"internalType": "address",
							"name": "from",
							"type": "address"
						},
						{
							"indexed": true,
							"internalType": "address",
							"name": "to",
							"type": "address"
						},
						{
							"indexed": false,
							"internalType": "uint256[]",
							"name": "ids",
							"type": "uint256[]"
						},
						{
							"indexed": false,
							"internalType": "uint256[]",
							"name": "values",
							"type": "uint256[]"
						}
					],
					"name": "TransferBatch",
					"type": "event"
				},
				{
					"anonymous": false,
					"inputs": [
						{
							"indexed": true,
							"internalType": "address",
							"name": "operator",
							"type": "address"
						},
						{
							"indexed": true,
							"internalType": "address",
							"name": "from",
							"type": "address"
						},
						{
							"indexed": true,
							"internalType": "address",
							"name": "to",
							"type": "address"
						},
						{
							"indexed": false,
							"internalType": "uint256",
							"name": "id",
							"type": "uint256"
						},
						{
							"indexed": false,
							"internalType": "uint256",
							"name": "value",
							"type": "uint256"
						}
					],
					"name": "TransferSingle",
					"type": "event"
				},
				{
					"anonymous": false,
					"inputs": [
						{
							"indexed": false,
							"internalType": "string",
							"name": "value",
							"type": "string"
						},
						{
							"indexed": true,
							"internalType": "uint256",
							"name": "id",
							"type": "uint256"
						}
					],
					"name": "URI",
					"type": "event"
				},
				{
					"inputs": [
						{
							"internalType": "address",
							"name": "account",
							"type": "address"
						},
						{
							"internalType": "uint256",
							"name": "id",
							"type": "uint256"
						}
					],
					"name": "balanceOf",
					"outputs": [
						{
							"internalType": "uint256",
							"name": "",
							"type": "uint256"
						}
					],
					"stateMutability": "view",
					"type": "function"
				},
				{
					"inputs": [
						{
							"internalType": "address[]",
							"name": "accounts",
							"type": "address[]"
						},
						{
							"internalType": "uint256[]",
							"name": "ids",
							"type": "uint256[]"
						}
					],
					"name": "balanceOfBatch",
					"outputs": [
						{
							"internalType": "uint256[]",
							"name": "",
							"type": "uint256[]"
						}
					],
					"stateMutability": "view",
					"type": "function"
				},
				{
					"inputs": [],
					"name": "currentID",
					"outputs": [
						{
							"internalType": "uint256",
							"name": "",
							"type": "uint256"
						}
					],
					"stateMutability": "view",
					"type": "function"
				},
				{
					"inputs": [
						{
							"internalType": "address",
							"name": "account",
							"type": "address"
						},
						{
							"internalType": "address",
							"name": "operator",
							"type": "address"
						}
					],
					"name": "isApprovedForAll",
					"outputs": [
						{
							"internalType": "bool",
							"name": "",
							"type": "bool"
						}
					],
					"stateMutability": "view",
					"type": "function"
				},
				{
					"inputs": [
						{
							"internalType": "address",
							"name": "to",
							"type": "address"
						},
						{
							"internalType": "uint256",
							"name": "amount",
							"type": "uint256"
						},
						{
							"internalType": "string",
							"name": "uri",
							"type": "string"
						}
					],
					"name": "mint",
					"outputs": [],
					"stateMutability": "nonpayable",
					"type": "function"
				},
				{
					"inputs": [
						{
							"internalType": "address",
							"name": "from",
							"type": "address"
						},
						{
							"internalType": "address",
							"name": "to",
							"type": "address"
						},
						{
							"internalType": "uint256[]",
							"name": "ids",
							"type": "uint256[]"
						},
						{
							"internalType": "uint256[]",
							"name": "values",
							"type": "uint256[]"
						},
						{
							"internalType": "bytes",
							"name": "data",
							"type": "bytes"
						}
					],
					"name": "safeBatchTransferFrom",
					"outputs": [],
					"stateMutability": "nonpayable",
					"type": "function"
				},
				{
					"inputs": [
						{
							"internalType": "address",
							"name": "from",
							"type": "address"
						},
						{
							"internalType": "address",
							"name": "to",
							"type": "address"
						},
						{
							"internalType": "uint256",
							"name": "id",
							"type": "uint256"
						},
						{
							"internalType": "uint256",
							"name": "value",
							"type": "uint256"
						}
					],
					"name": "safeTransferFrom",
					"outputs": [],
					"stateMutability": "nonpayable",
					"type": "function"
				},
				{
					"inputs": [
						{
							"internalType": "address",
							"name": "from",
							"type": "address"
						},
						{
							"internalType": "address",
							"name": "to",
							"type": "address"
						},
						{
							"internalType": "uint256",
							"name": "id",
							"type": "uint256"
						},
						{
							"internalType": "uint256",
							"name": "value",
							"type": "uint256"
						},
						{
							"internalType": "bytes",
							"name": "data",
							"type": "bytes"
						}
					],
					"name": "safeTransferFrom",
					"outputs": [],
					"stateMutability": "nonpayable",
					"type": "function"
				},
				{
					"inputs": [
						{
							"internalType": "address",
							"name": "operator",
							"type": "address"
						},
						{
							"internalType": "bool",
							"name": "approved",
							"type": "bool"
						}
					],
					"name": "setApprovalForAll",
					"outputs": [],
					"stateMutability": "nonpayable",
					"type": "function"
				},
				{
					"inputs": [
						{
							"internalType": "bytes4",
							"name": "interfaceId",
							"type": "bytes4"
						}
					],
					"name": "supportsInterface",
					"outputs": [
						{
							"internalType": "bool",
							"name": "",
							"type": "bool"
						}
					],
					"stateMutability": "view",
					"type": "function"
				},
				{
					"inputs": [
						{
							"internalType": "uint256",
							"name": "tokenId",
							"type": "uint256"
						}
					],
					"name": "uri",
					"outputs": [
						{
							"internalType": "string",
							"name": "",
							"type": "string"
						}
					],
					"stateMutability": "view",
					"type": "function"
				}
			],
			"devdoc": {
				"errors": {
					"ERC1155InsufficientBalance(address,uint256,uint256,uint256)": [
						{
							"details": "Indicates an error related to the current `balance` of a `sender`. Used in transfers.",
							"params": {
								"balance": "Current balance for the interacting account.",
								"needed": "Minimum amount required to perform a transfer.",
								"sender": "Address whose tokens are being transferred.",
								"tokenId": "Identifier number of a token."
							}
						}
					],
					"ERC1155InvalidApprover(address)": [
						{
							"details": "Indicates a failure with the `approver` of a token to be approved. Used in approvals.",
							"params": {
								"approver": "Address initiating an approval operation."
							}
						}
					],
					"ERC1155InvalidArrayLength(uint256,uint256)": [
						{
							"details": "Indicates an array length mismatch between ids and values in a safeBatchTransferFrom operation. Used in batch transfers.",
							"params": {
								"idsLength": "Length of the array of token identifiers",
								"valuesLength": "Length of the array of token amounts"
							}
						}
					],
					"ERC1155InvalidOperator(address)": [
						{
							"details": "Indicates a failure with the `operator` to be approved. Used in approvals.",
							"params": {
								"operator": "Address that may be allowed to operate on tokens without being their owner."
							}
						}
					],
					"ERC1155InvalidReceiver(address)": [
						{
							"details": "Indicates a failure with the token `receiver`. Used in transfers.",
							"params": {
								"receiver": "Address to which tokens are being transferred."
							}
						}
					],
					"ERC1155InvalidSender(address)": [
						{
							"details": "Indicates a failure with the token `sender`. Used in transfers.",
							"params": {
								"sender": "Address whose tokens are being transferred."
							}
						}
					],
					"ERC1155MissingApprovalForAll(address,address)": [
						{
							"details": "Indicates a failure with the `operator`’s approval. Used in transfers.",
							"params": {
								"operator": "Address that may be allowed to operate on tokens without being their owner.",
								"owner": "Address of the current owner of a token."
							}
						}
					]
				},
				"events": {
					"ApprovalForAll(address,address,bool)": {
						"details": "Emitted when `account` grants or revokes permission to `operator` to transfer their tokens, according to `approved`."
					},
					"TransferBatch(address,address,address,uint256[],uint256[])": {
						"details": "Equivalent to multiple {TransferSingle} events, where `operator`, `from` and `to` are the same for all transfers."
					},
					"TransferSingle(address,address,address,uint256,uint256)": {
						"details": "Emitted when `value` amount of tokens of type `id` are transferred from `from` to `to` by `operator`."
					},
					"URI(string,uint256)": {
						"details": "Emitted when the URI for token type `id` changes to `value`, if it is a non-programmatic URI. If an {URI} event was emitted for `id`, the standard https://eips.ethereum.org/EIPS/eip-1155#metadata-extensions[guarantees] that `value` will equal the value returned by {IERC1155MetadataURI-uri}."
					}
				},
				"kind": "dev",
				"methods": {
					"balanceOf(address,uint256)": {
						"details": "See {IERC1155-balanceOf}."
					},
					"balanceOfBatch(address[],uint256[])": {
						"details": "See {IERC1155-balanceOfBatch}. Requirements: - `accounts` and `ids` must have the same length."
					},
					"isApprovedForAll(address,address)": {
						"details": "See {IERC1155-isApprovedForAll}."
					},
					"safeBatchTransferFrom(address,address,uint256[],uint256[],bytes)": {
						"details": "See {IERC1155-safeBatchTransferFrom}."
					},
					"safeTransferFrom(address,address,uint256,uint256,bytes)": {
						"details": "See {IERC1155-safeTransferFrom}."
					},
					"setApprovalForAll(address,bool)": {
						"details": "See {IERC1155-setApprovalForAll}."
					},
					"supportsInterface(bytes4)": {
						"details": "See {IERC165-supportsInterface}."
					},
					"uri(uint256)": {
						"details": "See {IERC1155MetadataURI-uri}. This implementation returns the concatenation of the `_baseURI` and the token-specific uri if the latter is set This enables the following behaviors: - if `_tokenURIs[tokenId]` is set, then the result is the concatenation   of `_baseURI` and `_tokenURIs[tokenId]` (keep in mind that `_baseURI`   is empty per default); - if `_tokenURIs[tokenId]` is NOT set then we fallback to `super.uri()`   which in most cases will contain `ERC1155._uri`; - if `_tokenURIs[tokenId]` is NOT set, and if the parents do not have a   uri value set, then the result is empty."
					}
				},
				"version": 1
			},
			"evm": {
				"assembly": "    /* \"@openzeppelin/contracts/token/ERC1155/extensions/ERC1155URIStorage.sol\":476:504  string private _baseURI = \"\" */\n  0xa0\n    /* \"contracts/SongNFT.sol\":249:724  contract SongNFT is ERC1155URIStorage {... */\n  0x40\n    /* \"@openzeppelin/contracts/token/ERC1155/extensions/ERC1155URIStorage.sol\":476:504  string private _baseURI = \"\" */\n  mstore\n  0x00\n    /* \"contracts/SongNFT.sol\":249:724  contract SongNFT is ERC1155URIStorage {... */\n  0x80\n    /* \"@openzeppelin/contracts/token/ERC1155/extensions/ERC1155URIStorage.sol\":476:504  string private _baseURI = \"\" */\n  swap1\n  dup2\n  mstore\n  0x03\n  swap1\n  tag_1\n  swap1\n  dup3\n  tag_2\n  jump\t// in\ntag_1:\n  pop\n    /* \"contracts/SongNFT.sol\":293:320  constructor() ERC1155(\"\"){} */\n  callvalue\n  dup1\n  iszero\n  tag_3\n  jumpi\n  0x00\n  dup1\n  revert\ntag_3:\n  pop\n    /* \"@openzeppelin/contracts/token/ERC1155/ERC1155.sol\":1251:1313  constructor(string memory uri_) {... */\n  0x40\n  dup1\n  mload\n  0x20\n  dup2\n  add\n  swap1\n  swap2\n  mstore\n  0x00\n  dup2\n  mstore\n    /* \"@openzeppelin/contracts/token/ERC1155/ERC1155.sol\":1293:1306  _setURI(uri_) */\n  tag_7\n    /* \"@openzeppelin/contracts/token/ERC1155/ERC1155.sol\":1251:1313  constructor(string memory uri_) {... */\n  dup2\n    /* \"@openzeppelin/contracts/token/ERC1155/ERC1155.sol\":1293:1300  _setURI */\n  tag_8\n    /* \"@openzeppelin/contracts/token/ERC1155/ERC1155.sol\":1293:1306  _setURI(uri_) */\n  jump\t// in\ntag_7:\n    /* \"@openzeppelin/contracts/token/ERC1155/ERC1155.sol\":1251:1313  constructor(string memory uri_) {... */\n  pop\n    /* \"contracts/SongNFT.sol\":249:724  contract SongNFT is ERC1155URIStorage {... */\n  jump(tag_18)\n    /* \"@openzeppelin/contracts/token/ERC1155/ERC1155.sol\":10282:10368  function _setURI(string memory newuri) internal virtual {... */\ntag_8:\n    /* \"@openzeppelin/contracts/token/ERC1155/ERC1155.sol\":10348:10352  _uri */\n  0x02\n    /* \"@openzeppelin/contracts/token/ERC1155/ERC1155.sol\":10348:10361  _uri = newuri */\n  tag_12\n    /* \"@openzeppelin/contracts/token/ERC1155/ERC1155.sol\":10355:10361  newuri */\n  dup3\n    /* \"@openzeppelin/contracts/token/ERC1155/ERC1155.sol\":10348:10352  _uri */\n  dup3\n    /* \"@openzeppelin/contracts/token/ERC1155/ERC1155.sol\":10348:10361  _uri = newuri */\n  tag_2\n  jump\t// in\ntag_12:\n  pop\n    /* \"@openzeppelin/contracts/token/ERC1155/ERC1155.sol\":10282:10368  function _setURI(string memory newuri) internal virtual {... */\n  pop\n  jump\t// out\n    /* \"#utility.yul\":14:141   */\ntag_13:\n    /* \"#utility.yul\":75:85   */\n  0x4e487b71\n    /* \"#utility.yul\":70:73   */\n  0xe0\n    /* \"#utility.yul\":66:86   */\n  shl\n    /* \"#utility.yul\":63:64   */\n  0x00\n    /* \"#utility.yul\":56:87   */\n  mstore\n    /* \"#utility.yul\":106:110   */\n  0x41\n    /* \"#utility.yul\":103:104   */\n  0x04\n    /* \"#utility.yul\":96:111   */\n  mstore\n    /* \"#utility.yul\":130:134   */\n  0x24\n    /* \"#utility.yul\":127:128   */\n  0x00\n    /* \"#utility.yul\":120:135   */\n  revert\n    /* \"#utility.yul\":146:526   */\ntag_14:\n    /* \"#utility.yul\":225:226   */\n  0x01\n    /* \"#utility.yul\":221:233   */\n  dup2\n  dup2\n  shr\n  swap1\n    /* \"#utility.yul\":268:280   */\n  dup3\n  and\n  dup1\n    /* \"#utility.yul\":289:350   */\n  tag_21\n  jumpi\n    /* \"#utility.yul\":343:347   */\n  0x7f\n    /* \"#utility.yul\":335:341   */\n  dup3\n    /* \"#utility.yul\":331:348   */\n  and\n    /* \"#utility.yul\":321:348   */\n  swap2\n  pop\n    /* \"#utility.yul\":289:350   */\ntag_21:\n    /* \"#utility.yul\":396:398   */\n  0x20\n    /* \"#utility.yul\":388:394   */\n  dup3\n    /* \"#utility.yul\":385:399   */\n  lt\n    /* \"#utility.yul\":365:383   */\n  dup2\n    /* \"#utility.yul\":362:400   */\n  sub\n    /* \"#utility.yul\":359:520   */\n  tag_22\n  jumpi\n    /* \"#utility.yul\":442:452   */\n  0x4e487b71\n    /* \"#utility.yul\":437:440   */\n  0xe0\n    /* \"#utility.yul\":433:453   */\n  shl\n    /* \"#utility.yul\":430:431   */\n  0x00\n    /* \"#utility.yul\":423:454   */\n  mstore\n    /* \"#utility.yul\":477:481   */\n  0x22\n    /* \"#utility.yul\":474:475   */\n  0x04\n    /* \"#utility.yul\":467:482   */\n  mstore\n    /* \"#utility.yul\":505:509   */\n  0x24\n    /* \"#utility.yul\":502:503   */\n  0x00\n    /* \"#utility.yul\":495:510   */\n  revert\n    /* \"#utility.yul\":359:520   */\ntag_22:\n  pop\n    /* \"#utility.yul\":146:526   */\n  swap2\n  swap1\n  pop\n  jump\t// out\n    /* \"#utility.yul\":657:1175   */\ntag_16:\n    /* \"#utility.yul\":759:761   */\n  0x1f\n    /* \"#utility.yul\":754:757   */\n  dup3\n    /* \"#utility.yul\":751:762   */\n  gt\n    /* \"#utility.yul\":748:1169   */\n  iszero\n  tag_25\n  jumpi\n    /* \"#utility.yul\":795:800   */\n  dup1\n    /* \"#utility.yul\":792:793   */\n  0x00\n    /* \"#utility.yul\":785:801   */\n  mstore\n    /* \"#utility.yul\":839:843   */\n  0x20\n    /* \"#utility.yul\":836:837   */\n  0x00\n    /* \"#utility.yul\":826:844   */\n  keccak256\n    /* \"#utility.yul\":909:911   */\n  0x1f\n    /* \"#utility.yul\":897:907   */\n  dup5\n    /* \"#utility.yul\":893:912   */\n  add\n    /* \"#utility.yul\":890:891   */\n  0x05\n    /* \"#utility.yul\":886:913   */\n  shr\n    /* \"#utility.yul\":880:884   */\n  dup2\n    /* \"#utility.yul\":876:914   */\n  add\n    /* \"#utility.yul\":945:949   */\n  0x20\n    /* \"#utility.yul\":933:943   */\n  dup6\n    /* \"#utility.yul\":930:950   */\n  lt\n    /* \"#utility.yul\":927:974   */\n  iszero\n  tag_26\n  jumpi\n  pop\n    /* \"#utility.yul\":968:972   */\n  dup1\n    /* \"#utility.yul\":927:974   */\ntag_26:\n    /* \"#utility.yul\":1023:1025   */\n  0x1f\n    /* \"#utility.yul\":1018:1021   */\n  dup5\n    /* \"#utility.yul\":1014:1026   */\n  add\n    /* \"#utility.yul\":1011:1012   */\n  0x05\n    /* \"#utility.yul\":1007:1027   */\n  shr\n    /* \"#utility.yul\":1001:1005   */\n  dup3\n    /* \"#utility.yul\":997:1028   */\n  add\n    /* \"#utility.yul\":987:1028   */\n  swap2\n  pop\n    /* \"#utility.yul\":1078:1159   */\ntag_27:\n    /* \"#utility.yul\":1096:1098   */\n  dup2\n    /* \"#utility.yul\":1089:1094   */\n  dup2\n    /* \"#utility.yul\":1086:1099   */\n  lt\n    /* \"#utility.yul\":1078:1159   */\n  iszero\n  tag_29\n  jumpi\n    /* \"#utility.yul\":1155:1156   */\n  0x00\n    /* \"#utility.yul\":1141:1157   */\n  dup2\n  sstore\n    /* \"#utility.yul\":1122:1123   */\n  0x01\n    /* \"#utility.yul\":1111:1124   */\n  add\n    /* \"#utility.yul\":1078:1159   */\n  jump(tag_27)\ntag_29:\n    /* \"#utility.yul\":1082:1085   */\n  pop\n  pop\n    /* \"#utility.yul\":748:1169   */\ntag_25:\n    /* \"#utility.yul\":657:1175   */\n  pop\n  pop\n  pop\n  jump\t// out\n    /* \"#utility.yul\":1351:2650   */\ntag_2:\n    /* \"#utility.yul\":1471:1481   */\n  dup2\n  mload\n  sub(shl(0x40, 0x01), 0x01)\n    /* \"#utility.yul\":1493:1523   */\n  dup2\n  gt\n    /* \"#utility.yul\":1490:1546   */\n  iszero\n  tag_33\n  jumpi\n    /* \"#utility.yul\":1526:1544   */\n  tag_33\n  tag_13\n  jump\t// in\ntag_33:\n    /* \"#utility.yul\":1555:1652   */\n  tag_34\n    /* \"#utility.yul\":1645:1651   */\n  dup2\n    /* \"#utility.yul\":1605:1643   */\n  tag_35\n    /* \"#utility.yul\":1637:1641   */\n  dup5\n    /* \"#utility.yul\":1631:1642   */\n  sload\n    /* \"#utility.yul\":1605:1643   */\n  tag_14\n  jump\t// in\ntag_35:\n    /* \"#utility.yul\":1599:1603   */\n  dup5\n    /* \"#utility.yul\":1555:1652   */\n  tag_16\n  jump\t// in\ntag_34:\n    /* \"#utility.yul\":1701:1705   */\n  0x20\n    /* \"#utility.yul\":1732:1734   */\n  0x1f\n    /* \"#utility.yul\":1721:1735   */\n  dup3\n  gt\n    /* \"#utility.yul\":1749:1750   */\n  0x01\n    /* \"#utility.yul\":1744:2393   */\n  dup2\n  eq\n  tag_37\n  jumpi\n    /* \"#utility.yul\":2437:2438   */\n  0x00\n    /* \"#utility.yul\":2454:2460   */\n  dup4\n    /* \"#utility.yul\":2451:2540   */\n  iszero\n  tag_38\n  jumpi\n  pop\n    /* \"#utility.yul\":2506:2525   */\n  dup5\n  dup3\n  add\n    /* \"#utility.yul\":2500:2526   */\n  mload\n    /* \"#utility.yul\":2451:2540   */\ntag_38:\n  not(0x00)\n    /* \"#utility.yul\":1308:1309   */\n  0x03\n    /* \"#utility.yul\":1304:1315   */\n  dup6\n  swap1\n  shl\n    /* \"#utility.yul\":1300:1324   */\n  shr\n    /* \"#utility.yul\":1296:1325   */\n  not\n    /* \"#utility.yul\":1286:1326   */\n  and\n    /* \"#utility.yul\":1332:1333   */\n  0x01\n    /* \"#utility.yul\":1328:1339   */\n  dup5\n  swap1\n  shl\n    /* \"#utility.yul\":1283:1340   */\n  or\n    /* \"#utility.yul\":2553:2634   */\n  dup5\n  sstore\n    /* \"#utility.yul\":1714:2644   */\n  jump(tag_29)\n    /* \"#utility.yul\":1744:2393   */\ntag_37:\n    /* \"#utility.yul\":604:605   */\n  0x00\n    /* \"#utility.yul\":597:611   */\n  dup5\n  dup2\n  mstore\n    /* \"#utility.yul\":641:645   */\n  0x20\n    /* \"#utility.yul\":628:646   */\n  dup2\n  keccak256\n  not(0x1f)\n    /* \"#utility.yul\":1780:1800   */\n  dup6\n  and\n  swap2\n    /* \"#utility.yul\":1898:2120   */\ntag_41:\n    /* \"#utility.yul\":1912:1919   */\n  dup3\n    /* \"#utility.yul\":1909:1910   */\n  dup2\n    /* \"#utility.yul\":1906:1920   */\n  lt\n    /* \"#utility.yul\":1898:2120   */\n  iszero\n  tag_43\n  jumpi\n    /* \"#utility.yul\":1994:2013   */\n  dup8\n  dup6\n  add\n    /* \"#utility.yul\":1988:2014   */\n  mload\n    /* \"#utility.yul\":1973:2015   */\n  dup3\n  sstore\n    /* \"#utility.yul\":2101:2105   */\n  0x20\n    /* \"#utility.yul\":2086:2106   */\n  swap5\n  dup6\n  add\n  swap5\n    /* \"#utility.yul\":2054:2055   */\n  0x01\n    /* \"#utility.yul\":2042:2056   */\n  swap1\n  swap3\n  add\n  swap2\n    /* \"#utility.yul\":1928:1940   */\n  add\n    /* \"#utility.yul\":1898:2120   */\n  jump(tag_41)\ntag_43:\n    /* \"#utility.yul\":1902:1905   */\n  pop\n    /* \"#utility.yul\":2148:2154   */\n  dup5\n    /* \"#utility.yul\":2139:2146   */\n  dup3\n    /* \"#utility.yul\":2136:2155   */\n  lt\n    /* \"#utility.yul\":2133:2334   */\n  iszero\n  tag_44\n  jumpi\n    /* \"#utility.yul\":2209:2228   */\n  dup7\n  dup5\n  add\n    /* \"#utility.yul\":2203:2229   */\n  mload\n  not(0x00)\n    /* \"#utility.yul\":2292:2293   */\n  0x03\n    /* \"#utility.yul\":2288:2302   */\n  dup8\n  swap1\n  shl\n    /* \"#utility.yul\":2304:2307   */\n  0xf8\n    /* \"#utility.yul\":2284:2308   */\n  and\n    /* \"#utility.yul\":2280:2317   */\n  shr\n    /* \"#utility.yul\":2276:2318   */\n  not\n    /* \"#utility.yul\":2261:2319   */\n  and\n    /* \"#utility.yul\":2246:2320   */\n  dup2\n  sstore\n    /* \"#utility.yul\":2133:2334   */\ntag_44:\n  pop\n  pop\n  pop\n  pop\n    /* \"#utility.yul\":2380:2381   */\n  0x01\n    /* \"#utility.yul\":2364:2378   */\n  swap1\n  dup2\n  shl\n    /* \"#utility.yul\":2360:2382   */\n  add\n    /* \"#utility.yul\":2347:2383   */\n  swap1\n  sstore\n  pop\n    /* \"#utility.yul\":1351:2650   */\n  jump\t// out\ntag_18:\n    /* \"contracts/SongNFT.sol\":249:724  contract SongNFT is ERC1155URIStorage {... */\n  dataSize(sub_0)\n  dup1\n  dataOffset(sub_0)\n  0x00\n  codecopy\n  0x00\n  return\nstop\n\nsub_0: assembly {\n        /* \"contracts/SongNFT.sol\":249:724  contract SongNFT is ERC1155URIStorage {... */\n      mstore(0x40, 0x80)\n      callvalue\n      dup1\n      iszero\n      tag_1\n      jumpi\n      0x00\n      dup1\n      revert\n    tag_1:\n      pop\n      jumpi(tag_2, lt(calldatasize, 0x04))\n      shr(0xe0, calldataload(0x00))\n      dup1\n      0x2eb2c2d6\n      gt\n      tag_14\n      jumpi\n      dup1\n      0x2eb2c2d6\n      eq\n      tag_8\n      jumpi\n      dup1\n      0x4e1273f4\n      eq\n      tag_9\n      jumpi\n      dup1\n      0xa22cb465\n      eq\n      tag_10\n      jumpi\n      dup1\n      0xd3fc9864\n      eq\n      tag_11\n      jumpi\n      dup1\n      0xe985e9c5\n      eq\n      tag_12\n      jumpi\n      dup1\n      0xf242432a\n      eq\n      tag_13\n      jumpi\n      0x00\n      dup1\n      revert\n    tag_14:\n      dup1\n      0xfdd58e\n      eq\n      tag_3\n      jumpi\n      dup1\n      0x01ffc9a7\n      eq\n      tag_4\n      jumpi\n      dup1\n      0x0e89341c\n      eq\n      tag_5\n      jumpi\n      dup1\n      0x0febdd49\n      eq\n      tag_6\n      jumpi\n      dup1\n      0x1c75cfb4\n      eq\n      tag_7\n      jumpi\n    tag_2:\n      0x00\n      dup1\n      revert\n        /* \"@openzeppelin/contracts/token/ERC1155/ERC1155.sol\":2247:2379  function balanceOf(address account, uint256 id) public view virtual returns (uint256) {... */\n    tag_3:\n      tag_15\n      tag_16\n      calldatasize\n      0x04\n      tag_17\n      jump\t// in\n    tag_16:\n      tag_18\n      jump\t// in\n    tag_15:\n      mload(0x40)\n        /* \"#utility.yul\":643:668   */\n      swap1\n      dup2\n      mstore\n        /* \"#utility.yul\":631:633   */\n      0x20\n        /* \"#utility.yul\":616:634   */\n      add\n        /* \"@openzeppelin/contracts/token/ERC1155/ERC1155.sol\":2247:2379  function balanceOf(address account, uint256 id) public view virtual returns (uint256) {... */\n    tag_19:\n      mload(0x40)\n      dup1\n      swap2\n      sub\n      swap1\n      return\n        /* \"@openzeppelin/contracts/token/ERC1155/ERC1155.sol\":1380:1685  function supportsInterface(bytes4 interfaceId) public view virtual override(ERC165, IERC165) returns (bool) {... */\n    tag_4:\n      tag_21\n      tag_22\n      calldatasize\n      0x04\n      tag_23\n      jump\t// in\n    tag_22:\n      tag_24\n      jump\t// in\n    tag_21:\n      mload(0x40)\n        /* \"#utility.yul\":1230:1244   */\n      swap1\n      iszero\n        /* \"#utility.yul\":1223:1245   */\n      iszero\n        /* \"#utility.yul\":1205:1246   */\n      dup2\n      mstore\n        /* \"#utility.yul\":1193:1195   */\n      0x20\n        /* \"#utility.yul\":1178:1196   */\n      add\n        /* \"@openzeppelin/contracts/token/ERC1155/ERC1155.sol\":1380:1685  function supportsInterface(bytes4 interfaceId) public view virtual override(ERC165, IERC165) returns (bool) {... */\n      tag_19\n        /* \"#utility.yul\":1065:1252   */\n      jump\n        /* \"@openzeppelin/contracts/token/ERC1155/extensions/ERC1155URIStorage.sol\":1331:1663  function uri(uint256 tokenId) public view virtual override returns (string memory) {... */\n    tag_5:\n      tag_27\n      tag_28\n      calldatasize\n      0x04\n      tag_29\n      jump\t// in\n    tag_28:\n      tag_30\n      jump\t// in\n    tag_27:\n      mload(0x40)\n      tag_19\n      swap2\n      swap1\n      tag_32\n      jump\t// in\n        /* \"contracts/SongNFT.sol\":566:722  function safeTransferFrom(address from, address to, uint256 id, uint256 value) external  {... */\n    tag_6:\n      tag_33\n      tag_34\n      calldatasize\n      0x04\n      tag_35\n      jump\t// in\n    tag_34:\n      tag_36\n      jump\t// in\n    tag_33:\n      stop\n        /* \"contracts/SongNFT.sol\":326:350  uint256 public currentID */\n    tag_7:\n      tag_15\n      sload(0x05)\n      dup2\n      jump\n        /* \"@openzeppelin/contracts/token/ERC1155/ERC1155.sol\":4014:4443  function safeBatchTransferFrom(... */\n    tag_8:\n      tag_33\n      tag_41\n      calldatasize\n      0x04\n      tag_42\n      jump\t// in\n    tag_41:\n      tag_43\n      jump\t// in\n        /* \"@openzeppelin/contracts/token/ERC1155/ERC1155.sol\":2536:3088  function balanceOfBatch(... */\n    tag_9:\n      tag_44\n      tag_45\n      calldatasize\n      0x04\n      tag_46\n      jump\t// in\n    tag_45:\n      tag_47\n      jump\t// in\n    tag_44:\n      mload(0x40)\n      tag_19\n      swap2\n      swap1\n      tag_49\n      jump\t// in\n        /* \"@openzeppelin/contracts/token/ERC1155/ERC1155.sol\":3156:3300  function setApprovalForAll(address operator, bool approved) public virtual {... */\n    tag_10:\n      tag_33\n      tag_51\n      calldatasize\n      0x04\n      tag_52\n      jump\t// in\n    tag_51:\n      tag_53\n      jump\t// in\n        /* \"contracts/SongNFT.sol\":357:560  function mint(... */\n    tag_11:\n      tag_33\n      tag_55\n      calldatasize\n      0x04\n      tag_56\n      jump\t// in\n    tag_55:\n      tag_57\n      jump\t// in\n        /* \"@openzeppelin/contracts/token/ERC1155/ERC1155.sol\":3367:3524  function isApprovedForAll(address account, address operator) public view virtual returns (bool) {... */\n    tag_12:\n      tag_21\n      tag_59\n      calldatasize\n      0x04\n      tag_60\n      jump\t// in\n    tag_59:\n      tag_61\n      jump\t// in\n        /* \"@openzeppelin/contracts/token/ERC1155/ERC1155.sol\":3591:3942  function safeTransferFrom(address from, address to, uint256 id, uint256 value, bytes memory data) public virtual {... */\n    tag_13:\n      tag_33\n      tag_64\n      calldatasize\n      0x04\n      tag_65\n      jump\t// in\n    tag_64:\n      tag_66\n      jump\t// in\n        /* \"@openzeppelin/contracts/token/ERC1155/ERC1155.sol\":2247:2379  function balanceOf(address account, uint256 id) public view virtual returns (uint256) {... */\n    tag_18:\n        /* \"@openzeppelin/contracts/token/ERC1155/ERC1155.sol\":2324:2331  uint256 */\n      0x00\n        /* \"@openzeppelin/contracts/token/ERC1155/ERC1155.sol\":2350:2363  _balances[id] */\n      dup2\n      dup2\n      mstore\n      0x20\n      dup2\n      dup2\n      mstore\n      0x40\n      dup1\n      dup4\n      keccak256\n      sub(shl(0xa0, 0x01), 0x01)\n        /* \"@openzeppelin/contracts/token/ERC1155/ERC1155.sol\":2350:2372  _balances[id][account] */\n      dup7\n      and\n      dup5\n      mstore\n      swap1\n      swap2\n      mstore\n      swap1\n      keccak256\n      sload\n        /* \"@openzeppelin/contracts/token/ERC1155/ERC1155.sol\":2247:2379  function balanceOf(address account, uint256 id) public view virtual returns (uint256) {... */\n    tag_67:\n      swap3\n      swap2\n      pop\n      pop\n      jump\t// out\n        /* \"@openzeppelin/contracts/token/ERC1155/ERC1155.sol\":1380:1685  function supportsInterface(bytes4 interfaceId) public view virtual override(ERC165, IERC165) returns (bool) {... */\n    tag_24:\n        /* \"@openzeppelin/contracts/token/ERC1155/ERC1155.sol\":1482:1486  bool */\n      0x00\n      not(sub(shl(0xe0, 0x01), 0x01))\n        /* \"@openzeppelin/contracts/token/ERC1155/ERC1155.sol\":1517:1558  interfaceId == type(IERC1155).interfaceId */\n      dup3\n      and\n      shl(0xe1, 0x6cdb3d13)\n      eq\n      dup1\n        /* \"@openzeppelin/contracts/token/ERC1155/ERC1155.sol\":1517:1626  interfaceId == type(IERC1155).interfaceId ||... */\n      tag_69\n      jumpi\n      pop\n      not(sub(shl(0xe0, 0x01), 0x01))\n        /* \"@openzeppelin/contracts/token/ERC1155/ERC1155.sol\":1574:1626  interfaceId == type(IERC1155MetadataURI).interfaceId */\n      dup3\n      and\n      shl(0xe2, 0x03a24d07)\n      eq\n        /* \"@openzeppelin/contracts/token/ERC1155/ERC1155.sol\":1517:1626  interfaceId == type(IERC1155).interfaceId ||... */\n    tag_69:\n        /* \"@openzeppelin/contracts/token/ERC1155/ERC1155.sol\":1517:1678  interfaceId == type(IERC1155).interfaceId ||... */\n      dup1\n      tag_67\n      jumpi\n      pop\n      shl(0xe0, 0x01ffc9a7)\n      not(sub(shl(0xe0, 0x01), 0x01))\n        /* \"@openzeppelin/contracts/utils/introspection/ERC165.sol\":861:901  interfaceId == type(IERC165).interfaceId */\n      dup4\n      and\n      eq\n        /* \"@openzeppelin/contracts/token/ERC1155/ERC1155.sol\":1642:1678  super.supportsInterface(interfaceId) */\n      tag_67\n        /* \"@openzeppelin/contracts/utils/introspection/ERC165.sol\":762:908  function supportsInterface(bytes4 interfaceId) public view virtual returns (bool) {... */\n      jump\n        /* \"@openzeppelin/contracts/token/ERC1155/extensions/ERC1155URIStorage.sol\":1331:1663  function uri(uint256 tokenId) public view virtual override returns (string memory) {... */\n    tag_30:\n        /* \"@openzeppelin/contracts/token/ERC1155/extensions/ERC1155URIStorage.sol\":1424:1446  string memory tokenURI */\n      0x00\n        /* \"@openzeppelin/contracts/token/ERC1155/extensions/ERC1155URIStorage.sol\":1449:1468  _tokenURIs[tokenId] */\n      dup2\n      dup2\n      mstore\n        /* \"@openzeppelin/contracts/token/ERC1155/extensions/ERC1155URIStorage.sol\":1449:1459  _tokenURIs */\n      0x04\n        /* \"@openzeppelin/contracts/token/ERC1155/extensions/ERC1155URIStorage.sol\":1449:1468  _tokenURIs[tokenId] */\n      0x20\n      mstore\n      0x40\n      dup2\n      keccak256\n        /* \"@openzeppelin/contracts/token/ERC1155/extensions/ERC1155URIStorage.sol\":1424:1468  string memory tokenURI = _tokenURIs[tokenId] */\n      dup1\n      sload\n        /* \"@openzeppelin/contracts/token/ERC1155/extensions/ERC1155URIStorage.sol\":1399:1412  string memory */\n      0x60\n      swap3\n        /* \"@openzeppelin/contracts/token/ERC1155/extensions/ERC1155URIStorage.sol\":1424:1446  string memory tokenURI */\n      swap2\n        /* \"@openzeppelin/contracts/token/ERC1155/extensions/ERC1155URIStorage.sol\":1449:1468  _tokenURIs[tokenId] */\n      swap1\n        /* \"@openzeppelin/contracts/token/ERC1155/extensions/ERC1155URIStorage.sol\":1424:1468  string memory tokenURI = _tokenURIs[tokenId] */\n      tag_74\n      swap1\n      tag_75\n      jump\t// in\n    tag_74:\n      dup1\n      0x1f\n      add\n      0x20\n      dup1\n      swap2\n      div\n      mul\n      0x20\n      add\n      mload(0x40)\n      swap1\n      dup2\n      add\n      0x40\n      mstore\n      dup1\n      swap3\n      swap2\n      swap1\n      dup2\n      dup2\n      mstore\n      0x20\n      add\n      dup3\n      dup1\n      sload\n      tag_76\n      swap1\n      tag_75\n      jump\t// in\n    tag_76:\n      dup1\n      iszero\n      tag_77\n      jumpi\n      dup1\n      0x1f\n      lt\n      tag_78\n      jumpi\n      0x0100\n      dup1\n      dup4\n      sload\n      div\n      mul\n      dup4\n      mstore\n      swap2\n      0x20\n      add\n      swap2\n      jump(tag_77)\n    tag_78:\n      dup3\n      add\n      swap2\n      swap1\n      0x00\n      mstore\n      keccak256(0x00, 0x20)\n      swap1\n    tag_79:\n      dup2\n      sload\n      dup2\n      mstore\n      swap1\n      0x01\n      add\n      swap1\n      0x20\n      add\n      dup1\n      dup4\n      gt\n      tag_79\n      jumpi\n      dup3\n      swap1\n      sub\n      0x1f\n      and\n      dup3\n      add\n      swap2\n    tag_77:\n      pop\n      pop\n      pop\n      pop\n      pop\n      swap1\n      pop\n        /* \"@openzeppelin/contracts/token/ERC1155/extensions/ERC1155URIStorage.sol\":1598:1599  0 */\n      0x00\n        /* \"@openzeppelin/contracts/token/ERC1155/extensions/ERC1155URIStorage.sol\":1579:1587  tokenURI */\n      dup2\n        /* \"@openzeppelin/contracts/token/ERC1155/extensions/ERC1155URIStorage.sol\":1573:1595  bytes(tokenURI).length */\n      mload\n        /* \"@openzeppelin/contracts/token/ERC1155/extensions/ERC1155URIStorage.sol\":1573:1599  bytes(tokenURI).length > 0 */\n      gt\n        /* \"@openzeppelin/contracts/token/ERC1155/extensions/ERC1155URIStorage.sol\":1573:1656  bytes(tokenURI).length > 0 ? string.concat(_baseURI, tokenURI) : super.uri(tokenId) */\n      tag_80\n      jumpi\n        /* \"@openzeppelin/contracts/token/ERC1155/extensions/ERC1155URIStorage.sol\":1638:1656  super.uri(tokenId) */\n      tag_81\n        /* \"@openzeppelin/contracts/token/ERC1155/extensions/ERC1155URIStorage.sol\":1648:1655  tokenId */\n      dup4\n        /* \"@openzeppelin/contracts/token/ERC1155/extensions/ERC1155URIStorage.sol\":1638:1647  super.uri */\n      tag_82\n        /* \"@openzeppelin/contracts/token/ERC1155/extensions/ERC1155URIStorage.sol\":1638:1656  super.uri(tokenId) */\n      jump\t// in\n    tag_81:\n        /* \"@openzeppelin/contracts/token/ERC1155/extensions/ERC1155URIStorage.sol\":1573:1656  bytes(tokenURI).length > 0 ? string.concat(_baseURI, tokenURI) : super.uri(tokenId) */\n      jump(tag_83)\n    tag_80:\n        /* \"@openzeppelin/contracts/token/ERC1155/extensions/ERC1155URIStorage.sol\":1616:1624  _baseURI */\n      0x03\n        /* \"@openzeppelin/contracts/token/ERC1155/extensions/ERC1155URIStorage.sol\":1626:1634  tokenURI */\n      dup2\n        /* \"@openzeppelin/contracts/token/ERC1155/extensions/ERC1155URIStorage.sol\":1602:1635  string.concat(_baseURI, tokenURI) */\n      add(0x20, mload(0x40))\n      tag_84\n      swap3\n      swap2\n      swap1\n      tag_85\n      jump\t// in\n    tag_84:\n      mload(0x40)\n      0x20\n      dup2\n      dup4\n      sub\n      sub\n      dup2\n      mstore\n      swap1\n      0x40\n      mstore\n        /* \"@openzeppelin/contracts/token/ERC1155/extensions/ERC1155URIStorage.sol\":1573:1656  bytes(tokenURI).length > 0 ? string.concat(_baseURI, tokenURI) : super.uri(tokenId) */\n    tag_83:\n        /* \"@openzeppelin/contracts/token/ERC1155/extensions/ERC1155URIStorage.sol\":1566:1656  return bytes(tokenURI).length > 0 ? string.concat(_baseURI, tokenURI) : super.uri(tokenId) */\n      swap4\n        /* \"@openzeppelin/contracts/token/ERC1155/extensions/ERC1155URIStorage.sol\":1331:1663  function uri(uint256 tokenId) public view virtual override returns (string memory) {... */\n      swap3\n      pop\n      pop\n      pop\n      jump\t// out\n        /* \"contracts/SongNFT.sol\":566:722  function safeTransferFrom(address from, address to, uint256 id, uint256 value) external  {... */\n    tag_36:\n        /* \"contracts/SongNFT.sol\":665:715  super.safeTransferFrom(from,  to,  id,  value, \"\") */\n      tag_87\n        /* \"contracts/SongNFT.sol\":688:692  from */\n      dup5\n        /* \"contracts/SongNFT.sol\":695:697  to */\n      dup5\n        /* \"contracts/SongNFT.sol\":700:702  id */\n      dup5\n        /* \"contracts/SongNFT.sol\":705:710  value */\n      dup5\n        /* \"contracts/SongNFT.sol\":665:715  super.safeTransferFrom(from,  to,  id,  value, \"\") */\n      mload(0x40)\n      dup1\n      0x20\n      add\n      0x40\n      mstore\n      dup1\n      0x00\n      dup2\n      mstore\n      pop\n        /* \"contracts/SongNFT.sol\":665:687  super.safeTransferFrom */\n      tag_66\n        /* \"contracts/SongNFT.sol\":665:715  super.safeTransferFrom(from,  to,  id,  value, \"\") */\n      jump\t// in\n    tag_87:\n        /* \"contracts/SongNFT.sol\":566:722  function safeTransferFrom(address from, address to, uint256 id, uint256 value) external  {... */\n      pop\n      pop\n      pop\n      pop\n      jump\t// out\n        /* \"@openzeppelin/contracts/token/ERC1155/ERC1155.sol\":4014:4443  function safeBatchTransferFrom(... */\n    tag_43:\n        /* \"@openzeppelin/contracts/utils/Context.sol\":735:745  msg.sender */\n      caller\n      sub(shl(0xa0, 0x01), 0x01)\n        /* \"@openzeppelin/contracts/token/ERC1155/ERC1155.sol\":4251:4265  from != sender */\n      dup7\n      and\n      dup2\n      eq\n      dup1\n      iszero\n      swap1\n        /* \"@openzeppelin/contracts/token/ERC1155/ERC1155.sol\":4251:4300  from != sender && !isApprovedForAll(from, sender) */\n      tag_91\n      jumpi\n      pop\n        /* \"@openzeppelin/contracts/token/ERC1155/ERC1155.sol\":4270:4300  isApprovedForAll(from, sender) */\n      tag_92\n        /* \"@openzeppelin/contracts/token/ERC1155/ERC1155.sol\":4287:4291  from */\n      dup7\n        /* \"@openzeppelin/contracts/token/ERC1155/ERC1155.sol\":4293:4299  sender */\n      dup3\n        /* \"@openzeppelin/contracts/token/ERC1155/ERC1155.sol\":4270:4286  isApprovedForAll */\n      tag_61\n        /* \"@openzeppelin/contracts/token/ERC1155/ERC1155.sol\":4270:4300  isApprovedForAll(from, sender) */\n      jump\t// in\n    tag_92:\n        /* \"@openzeppelin/contracts/token/ERC1155/ERC1155.sol\":4269:4300  !isApprovedForAll(from, sender) */\n      iszero\n        /* \"@openzeppelin/contracts/token/ERC1155/ERC1155.sol\":4251:4300  from != sender && !isApprovedForAll(from, sender) */\n    tag_91:\n        /* \"@openzeppelin/contracts/token/ERC1155/ERC1155.sol\":4247:4376  if (from != sender && !isApprovedForAll(from, sender)) {... */\n      iszero\n      tag_93\n      jumpi\n        /* \"@openzeppelin/contracts/token/ERC1155/ERC1155.sol\":4323:4365  ERC1155MissingApprovalForAll(sender, from) */\n      mload(0x40)\n      shl(0xe1, 0x711bec91)\n      dup2\n      mstore\n      sub(shl(0xa0, 0x01), 0x01)\n        /* \"#utility.yul\":11204:11236   */\n      dup1\n      dup4\n      and\n        /* \"@openzeppelin/contracts/token/ERC1155/ERC1155.sol\":4323:4365  ERC1155MissingApprovalForAll(sender, from) */\n      0x04\n      dup4\n      add\n        /* \"#utility.yul\":11186:11237   */\n      mstore\n        /* \"#utility.yul\":11273:11305   */\n      dup8\n      and\n        /* \"#utility.yul\":11253:11271   */\n      0x24\n      dup3\n      add\n        /* \"#utility.yul\":11246:11306   */\n      mstore\n        /* \"#utility.yul\":11159:11177   */\n      0x44\n      add\n        /* \"@openzeppelin/contracts/token/ERC1155/ERC1155.sol\":4323:4365  ERC1155MissingApprovalForAll(sender, from) */\n    tag_94:\n      mload(0x40)\n      dup1\n      swap2\n      sub\n      swap1\n      revert\n        /* \"@openzeppelin/contracts/token/ERC1155/ERC1155.sol\":4247:4376  if (from != sender && !isApprovedForAll(from, sender)) {... */\n    tag_93:\n        /* \"@openzeppelin/contracts/token/ERC1155/ERC1155.sol\":4385:4436  _safeBatchTransferFrom(from, to, ids, values, data) */\n      tag_96\n        /* \"@openzeppelin/contracts/token/ERC1155/ERC1155.sol\":4408:4412  from */\n      dup7\n        /* \"@openzeppelin/contracts/token/ERC1155/ERC1155.sol\":4414:4416  to */\n      dup7\n        /* \"@openzeppelin/contracts/token/ERC1155/ERC1155.sol\":4418:4421  ids */\n      dup7\n        /* \"@openzeppelin/contracts/token/ERC1155/ERC1155.sol\":4423:4429  values */\n      dup7\n        /* \"@openzeppelin/contracts/token/ERC1155/ERC1155.sol\":4431:4435  data */\n      dup7\n        /* \"@openzeppelin/contracts/token/ERC1155/ERC1155.sol\":4385:4407  _safeBatchTransferFrom */\n      tag_97\n        /* \"@openzeppelin/contracts/token/ERC1155/ERC1155.sol\":4385:4436  _safeBatchTransferFrom(from, to, ids, values, data) */\n      jump\t// in\n    tag_96:\n        /* \"@openzeppelin/contracts/token/ERC1155/ERC1155.sol\":4198:4443  {... */\n      pop\n        /* \"@openzeppelin/contracts/token/ERC1155/ERC1155.sol\":4014:4443  function safeBatchTransferFrom(... */\n      pop\n      pop\n      pop\n      pop\n      pop\n      jump\t// out\n        /* \"@openzeppelin/contracts/token/ERC1155/ERC1155.sol\":2536:3088  function balanceOfBatch(... */\n    tag_47:\n        /* \"@openzeppelin/contracts/token/ERC1155/ERC1155.sol\":2660:2676  uint256[] memory */\n      0x60\n        /* \"@openzeppelin/contracts/token/ERC1155/ERC1155.sol\":2711:2714  ids */\n      dup2\n        /* \"@openzeppelin/contracts/token/ERC1155/ERC1155.sol\":2711:2721  ids.length */\n      mload\n        /* \"@openzeppelin/contracts/token/ERC1155/ERC1155.sol\":2692:2700  accounts */\n      dup4\n        /* \"@openzeppelin/contracts/token/ERC1155/ERC1155.sol\":2692:2707  accounts.length */\n      mload\n        /* \"@openzeppelin/contracts/token/ERC1155/ERC1155.sol\":2692:2721  accounts.length != ids.length */\n      eq\n        /* \"@openzeppelin/contracts/token/ERC1155/ERC1155.sol\":2688:2809  if (accounts.length != ids.length) {... */\n      tag_99\n      jumpi\n        /* \"@openzeppelin/contracts/token/ERC1155/ERC1155.sol\":2770:2780  ids.length */\n      dup2\n      mload\n        /* \"@openzeppelin/contracts/token/ERC1155/ERC1155.sol\":2782:2797  accounts.length */\n      dup4\n      mload\n        /* \"@openzeppelin/contracts/token/ERC1155/ERC1155.sol\":2744:2798  ERC1155InvalidArrayLength(ids.length, accounts.length) */\n      mload(0x40)\n      shl(0xe0, 0x5b059991)\n      dup2\n      mstore\n      0x04\n      dup2\n      add\n        /* \"#utility.yul\":11491:11516   */\n      swap3\n      swap1\n      swap3\n      mstore\n        /* \"#utility.yul\":11532:11550   */\n      0x24\n      dup3\n      add\n        /* \"#utility.yul\":11525:11559   */\n      mstore\n        /* \"#utility.yul\":11464:11482   */\n      0x44\n      add\n        /* \"@openzeppelin/contracts/token/ERC1155/ERC1155.sol\":2744:2798  ERC1155InvalidArrayLength(ids.length, accounts.length) */\n      tag_94\n        /* \"#utility.yul\":11317:11565   */\n      jump\n        /* \"@openzeppelin/contracts/token/ERC1155/ERC1155.sol\":2688:2809  if (accounts.length != ids.length) {... */\n    tag_99:\n        /* \"@openzeppelin/contracts/token/ERC1155/ERC1155.sol\":2819:2849  uint256[] memory batchBalances */\n      0x00\n        /* \"@openzeppelin/contracts/token/ERC1155/ERC1155.sol\":2866:2874  accounts */\n      dup4\n        /* \"@openzeppelin/contracts/token/ERC1155/ERC1155.sol\":2866:2881  accounts.length */\n      mload\n        /* \"@openzeppelin/contracts/token/ERC1155/ERC1155.sol\":2852:2882  new uint256[](accounts.length) */\n      0xffffffffffffffff\n      dup2\n      gt\n      iszero\n      tag_103\n      jumpi\n      tag_103\n      tag_104\n      jump\t// in\n    tag_103:\n      mload(0x40)\n      swap1\n      dup1\n      dup3\n      mstore\n      dup1\n      0x20\n      mul\n      0x20\n      add\n      dup3\n      add\n      0x40\n      mstore\n      dup1\n      iszero\n      tag_105\n      jumpi\n      dup2\n      0x20\n      add\n      0x20\n      dup3\n      mul\n      dup1\n      calldatasize\n      dup4\n      calldatacopy\n      add\n      swap1\n      pop\n    tag_105:\n      pop\n        /* \"@openzeppelin/contracts/token/ERC1155/ERC1155.sol\":2819:2882  uint256[] memory batchBalances = new uint256[](accounts.length) */\n      swap1\n      pop\n        /* \"@openzeppelin/contracts/token/ERC1155/ERC1155.sol\":2898:2907  uint256 i */\n      0x00\n        /* \"@openzeppelin/contracts/token/ERC1155/ERC1155.sol\":2893:3051  for (uint256 i = 0; i < accounts.length; ++i) {... */\n    tag_106:\n        /* \"@openzeppelin/contracts/token/ERC1155/ERC1155.sol\":2917:2925  accounts */\n      dup5\n        /* \"@openzeppelin/contracts/token/ERC1155/ERC1155.sol\":2917:2932  accounts.length */\n      mload\n        /* \"@openzeppelin/contracts/token/ERC1155/ERC1155.sol\":2913:2914  i */\n      dup2\n        /* \"@openzeppelin/contracts/token/ERC1155/ERC1155.sol\":2913:2932  i < accounts.length */\n      lt\n        /* \"@openzeppelin/contracts/token/ERC1155/ERC1155.sol\":2893:3051  for (uint256 i = 0; i < accounts.length; ++i) {... */\n      iszero\n      tag_107\n      jumpi\n        /* \"@openzeppelin/contracts/utils/Arrays.sol\":4777:4781  0x20 */\n      0x20\n        /* \"@openzeppelin/contracts/utils/Arrays.sol\":4768:4782  mul(pos, 0x20) */\n      dup1\n      dup3\n      mul\n        /* \"@openzeppelin/contracts/utils/Arrays.sol\":4748:4783  add(add(arr, 0x20), mul(pos, 0x20)) */\n      dup7\n      add\n      add\n        /* \"@openzeppelin/contracts/utils/Arrays.sol\":4742:4784  mload(add(add(arr, 0x20), mul(pos, 0x20))) */\n      mload\n        /* \"@openzeppelin/contracts/token/ERC1155/ERC1155.sol\":2972:3040  balanceOf(accounts.unsafeMemoryAccess(i), ids.unsafeMemoryAccess(i)) */\n      tag_109\n      swap1\n        /* \"@openzeppelin/contracts/utils/Arrays.sol\":4777:4781  0x20 */\n      0x20\n        /* \"@openzeppelin/contracts/utils/Arrays.sol\":4768:4782  mul(pos, 0x20) */\n      dup1\n      dup5\n      mul\n        /* \"@openzeppelin/contracts/utils/Arrays.sol\":4748:4783  add(add(arr, 0x20), mul(pos, 0x20)) */\n      dup8\n      add\n      add\n        /* \"@openzeppelin/contracts/utils/Arrays.sol\":4742:4784  mload(add(add(arr, 0x20), mul(pos, 0x20))) */\n      mload\n        /* \"@openzeppelin/contracts/token/ERC1155/ERC1155.sol\":2247:2379  function balanceOf(address account, uint256 id) public view virtual returns (uint256) {... */\n      tag_18\n      jump\t// in\n        /* \"@openzeppelin/contracts/token/ERC1155/ERC1155.sol\":2972:3040  balanceOf(accounts.unsafeMemoryAccess(i), ids.unsafeMemoryAccess(i)) */\n    tag_109:\n        /* \"@openzeppelin/contracts/token/ERC1155/ERC1155.sol\":2953:2966  batchBalances */\n      dup3\n        /* \"@openzeppelin/contracts/token/ERC1155/ERC1155.sol\":2967:2968  i */\n      dup3\n        /* \"@openzeppelin/contracts/token/ERC1155/ERC1155.sol\":2953:2969  batchBalances[i] */\n      dup2\n      mload\n      dup2\n      lt\n      tag_115\n      jumpi\n      tag_115\n      tag_116\n      jump\t// in\n    tag_115:\n      0x20\n      swap1\n      dup2\n      mul\n      swap2\n      swap1\n      swap2\n      add\n      add\n        /* \"@openzeppelin/contracts/token/ERC1155/ERC1155.sol\":2953:3040  batchBalances[i] = balanceOf(accounts.unsafeMemoryAccess(i), ids.unsafeMemoryAccess(i)) */\n      mstore\n        /* \"@openzeppelin/contracts/token/ERC1155/ERC1155.sol\":2934:2937  ++i */\n      0x01\n      add\n        /* \"@openzeppelin/contracts/token/ERC1155/ERC1155.sol\":2893:3051  for (uint256 i = 0; i < accounts.length; ++i) {... */\n      jump(tag_106)\n    tag_107:\n      pop\n        /* \"@openzeppelin/contracts/token/ERC1155/ERC1155.sol\":3068:3081  batchBalances */\n      swap4\n        /* \"@openzeppelin/contracts/token/ERC1155/ERC1155.sol\":2536:3088  function balanceOfBatch(... */\n      swap3\n      pop\n      pop\n      pop\n      jump\t// out\n        /* \"@openzeppelin/contracts/token/ERC1155/ERC1155.sol\":3156:3300  function setApprovalForAll(address operator, bool approved) public virtual {... */\n    tag_53:\n        /* \"@openzeppelin/contracts/token/ERC1155/ERC1155.sol\":3241:3293  _setApprovalForAll(_msgSender(), operator, approved) */\n      tag_118\n        /* \"@openzeppelin/contracts/utils/Context.sol\":735:745  msg.sender */\n      caller\n        /* \"@openzeppelin/contracts/token/ERC1155/ERC1155.sol\":3274:3282  operator */\n      dup4\n        /* \"@openzeppelin/contracts/token/ERC1155/ERC1155.sol\":3284:3292  approved */\n      dup4\n        /* \"@openzeppelin/contracts/token/ERC1155/ERC1155.sol\":3241:3259  _setApprovalForAll */\n      tag_120\n        /* \"@openzeppelin/contracts/token/ERC1155/ERC1155.sol\":3241:3293  _setApprovalForAll(_msgSender(), operator, approved) */\n      jump\t// in\n    tag_118:\n        /* \"@openzeppelin/contracts/token/ERC1155/ERC1155.sol\":3156:3300  function setApprovalForAll(address operator, bool approved) public virtual {... */\n      pop\n      pop\n      jump\t// out\n        /* \"contracts/SongNFT.sol\":357:560  function mint(... */\n    tag_57:\n        /* \"contracts/SongNFT.sol\":467:499  _mint(to, currentID, amount, \"\") */\n      tag_122\n        /* \"contracts/SongNFT.sol\":473:475  to */\n      dup4\n        /* \"contracts/SongNFT.sol\":477:486  currentID */\n      sload(0x05)\n        /* \"contracts/SongNFT.sol\":488:494  amount */\n      dup5\n        /* \"contracts/SongNFT.sol\":467:499  _mint(to, currentID, amount, \"\") */\n      mload(0x40)\n      dup1\n      0x20\n      add\n      0x40\n      mstore\n      dup1\n      0x00\n      dup2\n      mstore\n      pop\n        /* \"contracts/SongNFT.sol\":467:472  _mint */\n      tag_123\n        /* \"contracts/SongNFT.sol\":467:499  _mint(to, currentID, amount, \"\") */\n      jump\t// in\n    tag_122:\n        /* \"contracts/SongNFT.sol\":509:532  _setURI(currentID, uri) */\n      tag_124\n        /* \"contracts/SongNFT.sol\":517:526  currentID */\n      sload(0x05)\n        /* \"contracts/SongNFT.sol\":528:531  uri */\n      dup3\n        /* \"contracts/SongNFT.sol\":509:516  _setURI */\n      tag_125\n        /* \"contracts/SongNFT.sol\":509:532  _setURI(currentID, uri) */\n      jump\t// in\n    tag_124:\n        /* \"contracts/SongNFT.sol\":542:551  currentID */\n      0x05\n        /* \"contracts/SongNFT.sol\":542:553  currentID++ */\n      dup1\n      sload\n      swap1\n        /* \"contracts/SongNFT.sol\":542:551  currentID */\n      0x00\n        /* \"contracts/SongNFT.sol\":542:553  currentID++ */\n      tag_126\n      dup4\n      tag_127\n      jump\t// in\n    tag_126:\n      swap2\n      swap1\n      pop\n      sstore\n      pop\n        /* \"contracts/SongNFT.sol\":357:560  function mint(... */\n      pop\n      pop\n      pop\n      jump\t// out\n        /* \"@openzeppelin/contracts/token/ERC1155/ERC1155.sol\":3367:3524  function isApprovedForAll(address account, address operator) public view virtual returns (bool) {... */\n    tag_61:\n      sub(shl(0xa0, 0x01), 0x01)\n        /* \"@openzeppelin/contracts/token/ERC1155/ERC1155.sol\":3480:3507  _operatorApprovals[account] */\n      swap2\n      dup3\n      and\n        /* \"@openzeppelin/contracts/token/ERC1155/ERC1155.sol\":3457:3461  bool */\n      0x00\n        /* \"@openzeppelin/contracts/token/ERC1155/ERC1155.sol\":3480:3507  _operatorApprovals[account] */\n      swap1\n      dup2\n      mstore\n        /* \"@openzeppelin/contracts/token/ERC1155/ERC1155.sol\":3480:3498  _operatorApprovals */\n      0x01\n        /* \"@openzeppelin/contracts/token/ERC1155/ERC1155.sol\":3480:3507  _operatorApprovals[account] */\n      0x20\n      swap1\n      dup2\n      mstore\n      0x40\n      dup1\n      dup4\n      keccak256\n        /* \"@openzeppelin/contracts/token/ERC1155/ERC1155.sol\":3480:3517  _operatorApprovals[account][operator] */\n      swap4\n      swap1\n      swap5\n      and\n      dup3\n      mstore\n      swap2\n      swap1\n      swap2\n      mstore\n      keccak256\n      sload\n      0xff\n      and\n      swap1\n        /* \"@openzeppelin/contracts/token/ERC1155/ERC1155.sol\":3367:3524  function isApprovedForAll(address account, address operator) public view virtual returns (bool) {... */\n      jump\t// out\n        /* \"@openzeppelin/contracts/token/ERC1155/ERC1155.sol\":3591:3942  function safeTransferFrom(address from, address to, uint256 id, uint256 value, bytes memory data) public virtual {... */\n    tag_66:\n        /* \"@openzeppelin/contracts/utils/Context.sol\":735:745  msg.sender */\n      caller\n      sub(shl(0xa0, 0x01), 0x01)\n        /* \"@openzeppelin/contracts/token/ERC1155/ERC1155.sol\":3757:3771  from != sender */\n      dup7\n      and\n      dup2\n      eq\n      dup1\n      iszero\n      swap1\n        /* \"@openzeppelin/contracts/token/ERC1155/ERC1155.sol\":3757:3806  from != sender && !isApprovedForAll(from, sender) */\n      tag_131\n      jumpi\n      pop\n        /* \"@openzeppelin/contracts/token/ERC1155/ERC1155.sol\":3776:3806  isApprovedForAll(from, sender) */\n      tag_132\n        /* \"@openzeppelin/contracts/token/ERC1155/ERC1155.sol\":3793:3797  from */\n      dup7\n        /* \"@openzeppelin/contracts/token/ERC1155/ERC1155.sol\":3799:3805  sender */\n      dup3\n        /* \"@openzeppelin/contracts/token/ERC1155/ERC1155.sol\":3776:3792  isApprovedForAll */\n      tag_61\n        /* \"@openzeppelin/contracts/token/ERC1155/ERC1155.sol\":3776:3806  isApprovedForAll(from, sender) */\n      jump\t// in\n    tag_132:\n        /* \"@openzeppelin/contracts/token/ERC1155/ERC1155.sol\":3775:3806  !isApprovedForAll(from, sender) */\n      iszero\n        /* \"@openzeppelin/contracts/token/ERC1155/ERC1155.sol\":3757:3806  from != sender && !isApprovedForAll(from, sender) */\n    tag_131:\n        /* \"@openzeppelin/contracts/token/ERC1155/ERC1155.sol\":3753:3882  if (from != sender && !isApprovedForAll(from, sender)) {... */\n      iszero\n      tag_133\n      jumpi\n        /* \"@openzeppelin/contracts/token/ERC1155/ERC1155.sol\":3829:3871  ERC1155MissingApprovalForAll(sender, from) */\n      mload(0x40)\n      shl(0xe1, 0x711bec91)\n      dup2\n      mstore\n      sub(shl(0xa0, 0x01), 0x01)\n        /* \"#utility.yul\":11204:11236   */\n      dup1\n      dup4\n      and\n        /* \"@openzeppelin/contracts/token/ERC1155/ERC1155.sol\":3829:3871  ERC1155MissingApprovalForAll(sender, from) */\n      0x04\n      dup4\n      add\n        /* \"#utility.yul\":11186:11237   */\n      mstore\n        /* \"#utility.yul\":11273:11305   */\n      dup8\n      and\n        /* \"#utility.yul\":11253:11271   */\n      0x24\n      dup3\n      add\n        /* \"#utility.yul\":11246:11306   */\n      mstore\n        /* \"#utility.yul\":11159:11177   */\n      0x44\n      add\n        /* \"@openzeppelin/contracts/token/ERC1155/ERC1155.sol\":3829:3871  ERC1155MissingApprovalForAll(sender, from) */\n      tag_94\n        /* \"#utility.yul\":11012:11312   */\n      jump\n        /* \"@openzeppelin/contracts/token/ERC1155/ERC1155.sol\":3753:3882  if (from != sender && !isApprovedForAll(from, sender)) {... */\n    tag_133:\n        /* \"@openzeppelin/contracts/token/ERC1155/ERC1155.sol\":3891:3935  _safeTransferFrom(from, to, id, value, data) */\n      tag_96\n        /* \"@openzeppelin/contracts/token/ERC1155/ERC1155.sol\":3909:3913  from */\n      dup7\n        /* \"@openzeppelin/contracts/token/ERC1155/ERC1155.sol\":3915:3917  to */\n      dup7\n        /* \"@openzeppelin/contracts/token/ERC1155/ERC1155.sol\":3919:3921  id */\n      dup7\n        /* \"@openzeppelin/contracts/token/ERC1155/ERC1155.sol\":3923:3928  value */\n      dup7\n        /* \"@openzeppelin/contracts/token/ERC1155/ERC1155.sol\":3930:3934  data */\n      dup7\n        /* \"@openzeppelin/contracts/token/ERC1155/ERC1155.sol\":3891:3908  _safeTransferFrom */\n      tag_136\n        /* \"@openzeppelin/contracts/token/ERC1155/ERC1155.sol\":3891:3935  _safeTransferFrom(from, to, id, value, data) */\n      jump\t// in\n        /* \"@openzeppelin/contracts/token/ERC1155/ERC1155.sol\":2084:2187  function uri(uint256 /* id */) public view virtual returns (string memory) {... */\n    tag_82:\n        /* \"@openzeppelin/contracts/token/ERC1155/ERC1155.sol\":2144:2157  string memory */\n      0x60\n        /* \"@openzeppelin/contracts/token/ERC1155/ERC1155.sol\":2176:2180  _uri */\n      0x02\n        /* \"@openzeppelin/contracts/token/ERC1155/ERC1155.sol\":2169:2180  return _uri */\n      dup1\n      sload\n      tag_139\n      swap1\n      tag_75\n      jump\t// in\n    tag_139:\n      dup1\n      0x1f\n      add\n      0x20\n      dup1\n      swap2\n      div\n      mul\n      0x20\n      add\n      mload(0x40)\n      swap1\n      dup2\n      add\n      0x40\n      mstore\n      dup1\n      swap3\n      swap2\n      swap1\n      dup2\n      dup2\n      mstore\n      0x20\n      add\n      dup3\n      dup1\n      sload\n      tag_140\n      swap1\n      tag_75\n      jump\t// in\n    tag_140:\n      dup1\n      iszero\n      tag_141\n      jumpi\n      dup1\n      0x1f\n      lt\n      tag_142\n      jumpi\n      0x0100\n      dup1\n      dup4\n      sload\n      div\n      mul\n      dup4\n      mstore\n      swap2\n      0x20\n      add\n      swap2\n      jump(tag_141)\n    tag_142:\n      dup3\n      add\n      swap2\n      swap1\n      0x00\n      mstore\n      keccak256(0x00, 0x20)\n      swap1\n    tag_143:\n      dup2\n      sload\n      dup2\n      mstore\n      swap1\n      0x01\n      add\n      swap1\n      0x20\n      add\n      dup1\n      dup4\n      gt\n      tag_143\n      jumpi\n      dup3\n      swap1\n      sub\n      0x1f\n      and\n      dup3\n      add\n      swap2\n    tag_141:\n      pop\n      pop\n      pop\n      pop\n      pop\n      swap1\n      pop\n        /* \"@openzeppelin/contracts/token/ERC1155/ERC1155.sol\":2084:2187  function uri(uint256 /* id */) public view virtual returns (string memory) {... */\n      swap2\n      swap1\n      pop\n      jump\t// out\n        /* \"@openzeppelin/contracts/token/ERC1155/ERC1155.sol\":9015:9460  function _safeBatchTransferFrom(... */\n    tag_97:\n      sub(shl(0xa0, 0x01), 0x01)\n        /* \"@openzeppelin/contracts/token/ERC1155/ERC1155.sol\":9208:9224  to == address(0) */\n      dup5\n      and\n        /* \"@openzeppelin/contracts/token/ERC1155/ERC1155.sol\":9204:9292  if (to == address(0)) {... */\n      tag_146\n      jumpi\n        /* \"@openzeppelin/contracts/token/ERC1155/ERC1155.sol\":9247:9281  ERC1155InvalidReceiver(address(0)) */\n      mload(0x40)\n      shl(0xe1, 0x2bfa23e7)\n      dup2\n      mstore\n        /* \"@openzeppelin/contracts/token/ERC1155/ERC1155.sol\":9278:9279  0 */\n      0x00\n        /* \"@openzeppelin/contracts/token/ERC1155/ERC1155.sol\":9247:9281  ERC1155InvalidReceiver(address(0)) */\n      0x04\n      dup3\n      add\n        /* \"#utility.yul\":12120:12171   */\n      mstore\n        /* \"#utility.yul\":12093:12111   */\n      0x24\n      add\n        /* \"@openzeppelin/contracts/token/ERC1155/ERC1155.sol\":9247:9281  ERC1155InvalidReceiver(address(0)) */\n      tag_94\n        /* \"#utility.yul\":11974:12177   */\n      jump\n        /* \"@openzeppelin/contracts/token/ERC1155/ERC1155.sol\":9204:9292  if (to == address(0)) {... */\n    tag_146:\n      sub(shl(0xa0, 0x01), 0x01)\n        /* \"@openzeppelin/contracts/token/ERC1155/ERC1155.sol\":9305:9323  from == address(0) */\n      dup6\n      and\n        /* \"@openzeppelin/contracts/token/ERC1155/ERC1155.sol\":9301:9389  if (from == address(0)) {... */\n      tag_149\n      jumpi\n        /* \"@openzeppelin/contracts/token/ERC1155/ERC1155.sol\":9346:9378  ERC1155InvalidSender(address(0)) */\n      mload(0x40)\n      shl(0xe2, 0x6a0d45)\n      dup2\n      mstore\n        /* \"@openzeppelin/contracts/token/ERC1155/ERC1155.sol\":9375:9376  0 */\n      0x00\n        /* \"@openzeppelin/contracts/token/ERC1155/ERC1155.sol\":9346:9378  ERC1155InvalidSender(address(0)) */\n      0x04\n      dup3\n      add\n        /* \"#utility.yul\":12120:12171   */\n      mstore\n        /* \"#utility.yul\":12093:12111   */\n      0x24\n      add\n        /* \"@openzeppelin/contracts/token/ERC1155/ERC1155.sol\":9346:9378  ERC1155InvalidSender(address(0)) */\n      tag_94\n        /* \"#utility.yul\":11974:12177   */\n      jump\n        /* \"@openzeppelin/contracts/token/ERC1155/ERC1155.sol\":9301:9389  if (from == address(0)) {... */\n    tag_149:\n        /* \"@openzeppelin/contracts/token/ERC1155/ERC1155.sol\":9398:9453  _updateWithAcceptanceCheck(from, to, ids, values, data) */\n      tag_151\n        /* \"@openzeppelin/contracts/token/ERC1155/ERC1155.sol\":9425:9429  from */\n      dup6\n        /* \"@openzeppelin/contracts/token/ERC1155/ERC1155.sol\":9431:9433  to */\n      dup6\n        /* \"@openzeppelin/contracts/token/ERC1155/ERC1155.sol\":9435:9438  ids */\n      dup6\n        /* \"@openzeppelin/contracts/token/ERC1155/ERC1155.sol\":9440:9446  values */\n      dup6\n        /* \"@openzeppelin/contracts/token/ERC1155/ERC1155.sol\":9448:9452  data */\n      dup6\n        /* \"@openzeppelin/contracts/token/ERC1155/ERC1155.sol\":9398:9424  _updateWithAcceptanceCheck */\n      tag_152\n        /* \"@openzeppelin/contracts/token/ERC1155/ERC1155.sol\":9398:9453  _updateWithAcceptanceCheck(from, to, ids, values, data) */\n      jump\t// in\n    tag_151:\n        /* \"@openzeppelin/contracts/token/ERC1155/ERC1155.sol\":9015:9460  function _safeBatchTransferFrom(... */\n      pop\n      pop\n      pop\n      pop\n      pop\n      jump\t// out\n        /* \"@openzeppelin/contracts/token/ERC1155/ERC1155.sol\":13268:13583  function _setApprovalForAll(address owner, address operator, bool approved) internal virtual {... */\n    tag_120:\n      sub(shl(0xa0, 0x01), 0x01)\n        /* \"@openzeppelin/contracts/token/ERC1155/ERC1155.sol\":13375:13397  operator == address(0) */\n      dup3\n      and\n        /* \"@openzeppelin/contracts/token/ERC1155/ERC1155.sol\":13371:13465  if (operator == address(0)) {... */\n      tag_156\n      jumpi\n        /* \"@openzeppelin/contracts/token/ERC1155/ERC1155.sol\":13420:13454  ERC1155InvalidOperator(address(0)) */\n      mload(0x40)\n      shl(0xe8, 0xced3e1)\n      dup2\n      mstore\n        /* \"@openzeppelin/contracts/token/ERC1155/ERC1155.sol\":13451:13452  0 */\n      0x00\n        /* \"@openzeppelin/contracts/token/ERC1155/ERC1155.sol\":13420:13454  ERC1155InvalidOperator(address(0)) */\n      0x04\n      dup3\n      add\n        /* \"#utility.yul\":12120:12171   */\n      mstore\n        /* \"#utility.yul\":12093:12111   */\n      0x24\n      add\n        /* \"@openzeppelin/contracts/token/ERC1155/ERC1155.sol\":13420:13454  ERC1155InvalidOperator(address(0)) */\n      tag_94\n        /* \"#utility.yul\":11974:12177   */\n      jump\n        /* \"@openzeppelin/contracts/token/ERC1155/ERC1155.sol\":13371:13465  if (operator == address(0)) {... */\n    tag_156:\n      sub(shl(0xa0, 0x01), 0x01)\n        /* \"@openzeppelin/contracts/token/ERC1155/ERC1155.sol\":13474:13499  _operatorApprovals[owner] */\n      dup4\n      dup2\n      and\n      0x00\n      dup2\n      dup2\n      mstore\n        /* \"@openzeppelin/contracts/token/ERC1155/ERC1155.sol\":13474:13492  _operatorApprovals */\n      0x01\n        /* \"@openzeppelin/contracts/token/ERC1155/ERC1155.sol\":13474:13499  _operatorApprovals[owner] */\n      0x20\n      swap1\n      dup2\n      mstore\n      0x40\n      dup1\n      dup4\n      keccak256\n        /* \"@openzeppelin/contracts/token/ERC1155/ERC1155.sol\":13474:13509  _operatorApprovals[owner][operator] */\n      swap5\n      dup8\n      and\n      dup1\n      dup5\n      mstore\n      swap5\n      dup3\n      mstore\n      swap2\n      dup3\n      swap1\n      keccak256\n        /* \"@openzeppelin/contracts/token/ERC1155/ERC1155.sol\":13474:13520  _operatorApprovals[owner][operator] = approved */\n      dup1\n      sload\n      not(0xff)\n      and\n      dup7\n      iszero\n      iszero\n      swap1\n      dup2\n      or\n      swap1\n      swap2\n      sstore\n        /* \"@openzeppelin/contracts/token/ERC1155/ERC1155.sol\":13535:13576  ApprovalForAll(owner, operator, approved) */\n      swap2\n      mload\n        /* \"#utility.yul\":1205:1246   */\n      swap2\n      dup3\n      mstore\n        /* \"@openzeppelin/contracts/token/ERC1155/ERC1155.sol\":13535:13576  ApprovalForAll(owner, operator, approved) */\n      0x17307eab39ab6107e8899845ad3d59bd9653f200f220920489ca2b5937696c31\n      swap2\n        /* \"#utility.yul\":1178:1196   */\n      add\n        /* \"@openzeppelin/contracts/token/ERC1155/ERC1155.sol\":13535:13576  ApprovalForAll(owner, operator, approved) */\n      mload(0x40)\n      dup1\n      swap2\n      sub\n      swap1\n      log3\n        /* \"@openzeppelin/contracts/token/ERC1155/ERC1155.sol\":13268:13583  function _setApprovalForAll(address owner, address operator, bool approved) internal virtual {... */\n      pop\n      pop\n      pop\n      jump\t// out\n        /* \"@openzeppelin/contracts/token/ERC1155/ERC1155.sol\":10746:11092  function _mint(address to, uint256 id, uint256 value, bytes memory data) internal {... */\n    tag_123:\n      sub(shl(0xa0, 0x01), 0x01)\n        /* \"@openzeppelin/contracts/token/ERC1155/ERC1155.sol\":10842:10858  to == address(0) */\n      dup5\n      and\n        /* \"@openzeppelin/contracts/token/ERC1155/ERC1155.sol\":10838:10926  if (to == address(0)) {... */\n      tag_160\n      jumpi\n        /* \"@openzeppelin/contracts/token/ERC1155/ERC1155.sol\":10881:10915  ERC1155InvalidReceiver(address(0)) */\n      mload(0x40)\n      shl(0xe1, 0x2bfa23e7)\n      dup2\n      mstore\n        /* \"@openzeppelin/contracts/token/ERC1155/ERC1155.sol\":10912:10913  0 */\n      0x00\n        /* \"@openzeppelin/contracts/token/ERC1155/ERC1155.sol\":10881:10915  ERC1155InvalidReceiver(address(0)) */\n      0x04\n      dup3\n      add\n        /* \"#utility.yul\":12120:12171   */\n      mstore\n        /* \"#utility.yul\":12093:12111   */\n      0x24\n      add\n        /* \"@openzeppelin/contracts/token/ERC1155/ERC1155.sol\":10881:10915  ERC1155InvalidReceiver(address(0)) */\n      tag_94\n        /* \"#utility.yul\":11974:12177   */\n      jump\n        /* \"@openzeppelin/contracts/token/ERC1155/ERC1155.sol\":10838:10926  if (to == address(0)) {... */\n    tag_160:\n        /* \"@openzeppelin/contracts/token/ERC1155/ERC1155.sol\":16374:16378  0x40 */\n      0x40\n        /* \"@openzeppelin/contracts/token/ERC1155/ERC1155.sol\":16368:16379  mload(0x40) */\n      dup1\n      mload\n        /* \"@openzeppelin/contracts/token/ERC1155/ERC1155.sol\":16444:16445  1 */\n      0x01\n        /* \"@openzeppelin/contracts/token/ERC1155/ERC1155.sol\":16429:16446  mstore(array1, 1) */\n      dup1\n      dup3\n      mstore\n        /* \"@openzeppelin/contracts/token/ERC1155/ERC1155.sol\":16575:16579  0x20 */\n      0x20\n        /* \"@openzeppelin/contracts/token/ERC1155/ERC1155.sol\":16563:16580  add(array1, 0x20) */\n      dup3\n      add\n        /* \"@openzeppelin/contracts/token/ERC1155/ERC1155.sol\":16556:16591  mstore(add(array1, 0x20), element1) */\n      dup7\n      swap1\n      mstore\n        /* \"@openzeppelin/contracts/token/ERC1155/ERC1155.sol\":16692:16709  add(array1, 0x40) */\n      dup2\n      dup4\n      add\n        /* \"@openzeppelin/contracts/token/ERC1155/ERC1155.sol\":16722:16739  mstore(array2, 1) */\n      swap1\n      dup2\n      mstore\n        /* \"@openzeppelin/contracts/token/ERC1155/ERC1155.sol\":16188:16211  uint256[] memory array1 */\n      0x60\n        /* \"@openzeppelin/contracts/token/ERC1155/ERC1155.sol\":16759:16776  add(array2, 0x20) */\n      dup3\n      add\n        /* \"@openzeppelin/contracts/token/ERC1155/ERC1155.sol\":16752:16787  mstore(add(array2, 0x20), element2) */\n      dup6\n      swap1\n      mstore\n        /* \"@openzeppelin/contracts/token/ERC1155/ERC1155.sol\":16895:16912  add(array2, 0x40) */\n      0x80\n      dup3\n      add\n        /* \"@openzeppelin/contracts/token/ERC1155/ERC1155.sol\":16882:16913  mstore(0x40, add(array2, 0x40)) */\n      swap1\n      swap3\n      mstore\n        /* \"@openzeppelin/contracts/token/ERC1155/ERC1155.sol\":16368:16379  mload(0x40) */\n      swap1\n        /* \"@openzeppelin/contracts/token/ERC1155/ERC1155.sol\":11024:11085  _updateWithAcceptanceCheck(address(0), to, ids, values, data) */\n      tag_96\n      0x00\n        /* \"@openzeppelin/contracts/token/ERC1155/ERC1155.sol\":11063:11065  to */\n      dup8\n        /* \"@openzeppelin/contracts/token/ERC1155/ERC1155.sol\":16368:16379  mload(0x40) */\n      dup5\n        /* \"@openzeppelin/contracts/token/ERC1155/ERC1155.sol\":16692:16709  add(array1, 0x40) */\n      dup5\n        /* \"@openzeppelin/contracts/token/ERC1155/ERC1155.sol\":11080:11084  data */\n      dup8\n        /* \"@openzeppelin/contracts/token/ERC1155/ERC1155.sol\":11024:11050  _updateWithAcceptanceCheck */\n      tag_152\n        /* \"@openzeppelin/contracts/token/ERC1155/ERC1155.sol\":11024:11085  _updateWithAcceptanceCheck(address(0), to, ids, values, data) */\n      jump\t// in\n        /* \"@openzeppelin/contracts/token/ERC1155/extensions/ERC1155URIStorage.sol\":1743:1906  function _setURI(uint256 tokenId, string memory tokenURI) internal virtual {... */\n    tag_125:\n        /* \"@openzeppelin/contracts/token/ERC1155/extensions/ERC1155URIStorage.sol\":1828:1847  _tokenURIs[tokenId] */\n      0x00\n      dup3\n      dup2\n      mstore\n        /* \"@openzeppelin/contracts/token/ERC1155/extensions/ERC1155URIStorage.sol\":1828:1838  _tokenURIs */\n      0x04\n        /* \"@openzeppelin/contracts/token/ERC1155/extensions/ERC1155URIStorage.sol\":1828:1847  _tokenURIs[tokenId] */\n      0x20\n      mstore\n      0x40\n      swap1\n      keccak256\n        /* \"@openzeppelin/contracts/token/ERC1155/extensions/ERC1155URIStorage.sol\":1828:1858  _tokenURIs[tokenId] = tokenURI */\n      tag_166\n        /* \"@openzeppelin/contracts/token/ERC1155/extensions/ERC1155URIStorage.sol\":1850:1858  tokenURI */\n      dup3\n        /* \"@openzeppelin/contracts/token/ERC1155/extensions/ERC1155URIStorage.sol\":1828:1847  _tokenURIs[tokenId] */\n      dup3\n        /* \"@openzeppelin/contracts/token/ERC1155/extensions/ERC1155URIStorage.sol\":1828:1858  _tokenURIs[tokenId] = tokenURI */\n      tag_167\n      jump\t// in\n    tag_166:\n      pop\n        /* \"@openzeppelin/contracts/token/ERC1155/extensions/ERC1155URIStorage.sol\":1891:1898  tokenId */\n      dup2\n        /* \"@openzeppelin/contracts/token/ERC1155/extensions/ERC1155URIStorage.sol\":1873:1899  URI(uri(tokenId), tokenId) */\n      0x6bb7ff708619ba0610cba295a58592e0451dee2622938c8755667688daf3529b\n        /* \"@openzeppelin/contracts/token/ERC1155/extensions/ERC1155URIStorage.sol\":1877:1889  uri(tokenId) */\n      tag_168\n        /* \"@openzeppelin/contracts/token/ERC1155/extensions/ERC1155URIStorage.sol\":1881:1888  tokenId */\n      dup5\n        /* \"@openzeppelin/contracts/token/ERC1155/extensions/ERC1155URIStorage.sol\":1877:1880  uri */\n      tag_30\n        /* \"@openzeppelin/contracts/token/ERC1155/extensions/ERC1155URIStorage.sol\":1877:1889  uri(tokenId) */\n      jump\t// in\n    tag_168:\n        /* \"@openzeppelin/contracts/token/ERC1155/extensions/ERC1155URIStorage.sol\":1873:1899  URI(uri(tokenId), tokenId) */\n      mload(0x40)\n      tag_169\n      swap2\n      swap1\n      tag_32\n      jump\t// in\n    tag_169:\n      mload(0x40)\n      dup1\n      swap2\n      sub\n      swap1\n      log2\n        /* \"@openzeppelin/contracts/token/ERC1155/extensions/ERC1155URIStorage.sol\":1743:1906  function _setURI(uint256 tokenId, string memory tokenURI) internal virtual {... */\n      pop\n      pop\n      jump\t// out\n        /* \"@openzeppelin/contracts/token/ERC1155/ERC1155.sol\":8151:8614  function _safeTransferFrom(address from, address to, uint256 id, uint256 value, bytes memory data) internal {... */\n    tag_136:\n      sub(shl(0xa0, 0x01), 0x01)\n        /* \"@openzeppelin/contracts/token/ERC1155/ERC1155.sol\":8273:8289  to == address(0) */\n      dup5\n      and\n        /* \"@openzeppelin/contracts/token/ERC1155/ERC1155.sol\":8269:8357  if (to == address(0)) {... */\n      tag_171\n      jumpi\n        /* \"@openzeppelin/contracts/token/ERC1155/ERC1155.sol\":8312:8346  ERC1155InvalidReceiver(address(0)) */\n      mload(0x40)\n      shl(0xe1, 0x2bfa23e7)\n      dup2\n      mstore\n        /* \"@openzeppelin/contracts/token/ERC1155/ERC1155.sol\":8343:8344  0 */\n      0x00\n        /* \"@openzeppelin/contracts/token/ERC1155/ERC1155.sol\":8312:8346  ERC1155InvalidReceiver(address(0)) */\n      0x04\n      dup3\n      add\n        /* \"#utility.yul\":12120:12171   */\n      mstore\n        /* \"#utility.yul\":12093:12111   */\n      0x24\n      add\n        /* \"@openzeppelin/contracts/token/ERC1155/ERC1155.sol\":8312:8346  ERC1155InvalidReceiver(address(0)) */\n      tag_94\n        /* \"#utility.yul\":11974:12177   */\n      jump\n        /* \"@openzeppelin/contracts/token/ERC1155/ERC1155.sol\":8269:8357  if (to == address(0)) {... */\n    tag_171:\n      sub(shl(0xa0, 0x01), 0x01)\n        /* \"@openzeppelin/contracts/token/ERC1155/ERC1155.sol\":8370:8388  from == address(0) */\n      dup6\n      and\n        /* \"@openzeppelin/contracts/token/ERC1155/ERC1155.sol\":8366:8454  if (from == address(0)) {... */\n      tag_173\n      jumpi\n        /* \"@openzeppelin/contracts/token/ERC1155/ERC1155.sol\":8411:8443  ERC1155InvalidSender(address(0)) */\n      mload(0x40)\n      shl(0xe2, 0x6a0d45)\n      dup2\n      mstore\n        /* \"@openzeppelin/contracts/token/ERC1155/ERC1155.sol\":8440:8441  0 */\n      0x00\n        /* \"@openzeppelin/contracts/token/ERC1155/ERC1155.sol\":8411:8443  ERC1155InvalidSender(address(0)) */\n      0x04\n      dup3\n      add\n        /* \"#utility.yul\":12120:12171   */\n      mstore\n        /* \"#utility.yul\":12093:12111   */\n      0x24\n      add\n        /* \"@openzeppelin/contracts/token/ERC1155/ERC1155.sol\":8411:8443  ERC1155InvalidSender(address(0)) */\n      tag_94\n        /* \"#utility.yul\":11974:12177   */\n      jump\n        /* \"@openzeppelin/contracts/token/ERC1155/ERC1155.sol\":8366:8454  if (from == address(0)) {... */\n    tag_173:\n        /* \"@openzeppelin/contracts/token/ERC1155/ERC1155.sol\":16374:16378  0x40 */\n      0x40\n        /* \"@openzeppelin/contracts/token/ERC1155/ERC1155.sol\":16368:16379  mload(0x40) */\n      dup1\n      mload\n        /* \"@openzeppelin/contracts/token/ERC1155/ERC1155.sol\":16444:16445  1 */\n      0x01\n        /* \"@openzeppelin/contracts/token/ERC1155/ERC1155.sol\":16429:16446  mstore(array1, 1) */\n      dup1\n      dup3\n      mstore\n        /* \"@openzeppelin/contracts/token/ERC1155/ERC1155.sol\":16575:16579  0x20 */\n      0x20\n        /* \"@openzeppelin/contracts/token/ERC1155/ERC1155.sol\":16563:16580  add(array1, 0x20) */\n      dup3\n      add\n        /* \"@openzeppelin/contracts/token/ERC1155/ERC1155.sol\":16556:16591  mstore(add(array1, 0x20), element1) */\n      dup7\n      swap1\n      mstore\n        /* \"@openzeppelin/contracts/token/ERC1155/ERC1155.sol\":16692:16709  add(array1, 0x40) */\n      dup2\n      dup4\n      add\n        /* \"@openzeppelin/contracts/token/ERC1155/ERC1155.sol\":16722:16739  mstore(array2, 1) */\n      swap1\n      dup2\n      mstore\n        /* \"@openzeppelin/contracts/token/ERC1155/ERC1155.sol\":16188:16211  uint256[] memory array1 */\n      0x60\n        /* \"@openzeppelin/contracts/token/ERC1155/ERC1155.sol\":16759:16776  add(array2, 0x20) */\n      dup3\n      add\n        /* \"@openzeppelin/contracts/token/ERC1155/ERC1155.sol\":16752:16787  mstore(add(array2, 0x20), element2) */\n      dup6\n      swap1\n      mstore\n        /* \"@openzeppelin/contracts/token/ERC1155/ERC1155.sol\":16895:16912  add(array2, 0x40) */\n      0x80\n      dup3\n      add\n        /* \"@openzeppelin/contracts/token/ERC1155/ERC1155.sol\":16882:16913  mstore(0x40, add(array2, 0x40)) */\n      swap1\n      swap3\n      mstore\n        /* \"@openzeppelin/contracts/token/ERC1155/ERC1155.sol\":16368:16379  mload(0x40) */\n      swap1\n        /* \"@openzeppelin/contracts/token/ERC1155/ERC1155.sol\":8552:8607  _updateWithAcceptanceCheck(from, to, ids, values, data) */\n      tag_176\n        /* \"@openzeppelin/contracts/token/ERC1155/ERC1155.sol\":8579:8583  from */\n      dup8\n        /* \"@openzeppelin/contracts/token/ERC1155/ERC1155.sol\":8585:8587  to */\n      dup8\n        /* \"@openzeppelin/contracts/token/ERC1155/ERC1155.sol\":16368:16379  mload(0x40) */\n      dup5\n        /* \"@openzeppelin/contracts/token/ERC1155/ERC1155.sol\":16692:16709  add(array1, 0x40) */\n      dup5\n        /* \"@openzeppelin/contracts/token/ERC1155/ERC1155.sol\":8602:8606  data */\n      dup8\n        /* \"@openzeppelin/contracts/token/ERC1155/ERC1155.sol\":8552:8578  _updateWithAcceptanceCheck */\n      tag_152\n        /* \"@openzeppelin/contracts/token/ERC1155/ERC1155.sol\":8552:8607  _updateWithAcceptanceCheck(from, to, ids, values, data) */\n      jump\t// in\n    tag_176:\n        /* \"@openzeppelin/contracts/token/ERC1155/ERC1155.sol\":8259:8614  {... */\n      pop\n      pop\n        /* \"@openzeppelin/contracts/token/ERC1155/ERC1155.sol\":8151:8614  function _safeTransferFrom(address from, address to, uint256 id, uint256 value, bytes memory data) internal {... */\n      pop\n      pop\n      pop\n      pop\n      pop\n      jump\t// out\n        /* \"@openzeppelin/contracts/token/ERC1155/ERC1155.sol\":7004:7694  function _updateWithAcceptanceCheck(... */\n    tag_152:\n        /* \"@openzeppelin/contracts/token/ERC1155/ERC1155.sol\":7205:7235  _update(from, to, ids, values) */\n      tag_178\n        /* \"@openzeppelin/contracts/token/ERC1155/ERC1155.sol\":7213:7217  from */\n      dup6\n        /* \"@openzeppelin/contracts/token/ERC1155/ERC1155.sol\":7219:7221  to */\n      dup6\n        /* \"@openzeppelin/contracts/token/ERC1155/ERC1155.sol\":7223:7226  ids */\n      dup6\n        /* \"@openzeppelin/contracts/token/ERC1155/ERC1155.sol\":7228:7234  values */\n      dup6\n        /* \"@openzeppelin/contracts/token/ERC1155/ERC1155.sol\":7205:7212  _update */\n      tag_179\n        /* \"@openzeppelin/contracts/token/ERC1155/ERC1155.sol\":7205:7235  _update(from, to, ids, values) */\n      jump\t// in\n    tag_178:\n      sub(shl(0xa0, 0x01), 0x01)\n        /* \"@openzeppelin/contracts/token/ERC1155/ERC1155.sol\":7249:7265  to != address(0) */\n      dup5\n      and\n      iszero\n        /* \"@openzeppelin/contracts/token/ERC1155/ERC1155.sol\":7245:7688  if (to != address(0)) {... */\n      tag_151\n      jumpi\n        /* \"@openzeppelin/contracts/token/ERC1155/ERC1155.sol\":7330:7340  ids.length */\n      dup3\n      mload\n        /* \"@openzeppelin/contracts/utils/Context.sol\":735:745  msg.sender */\n      caller\n      swap1\n        /* \"@openzeppelin/contracts/token/ERC1155/ERC1155.sol\":7344:7345  1 */\n      0x01\n        /* \"@openzeppelin/contracts/token/ERC1155/ERC1155.sol\":7330:7345  ids.length == 1 */\n      sub\n        /* \"@openzeppelin/contracts/token/ERC1155/ERC1155.sol\":7326:7678  if (ids.length == 1) {... */\n      tag_182\n      jumpi\n        /* \"@openzeppelin/contracts/utils/Arrays.sol\":4777:4781  0x20 */\n      0x20\n        /* \"@openzeppelin/contracts/utils/Arrays.sol\":4748:4783  add(add(arr, 0x20), mul(pos, 0x20)) */\n      dup5\n      dup2\n      add\n        /* \"@openzeppelin/contracts/utils/Arrays.sol\":4742:4784  mload(add(add(arr, 0x20), mul(pos, 0x20))) */\n      mload\n        /* \"@openzeppelin/contracts/utils/Arrays.sol\":4748:4783  add(add(arr, 0x20), mul(pos, 0x20)) */\n      swap1\n      dup5\n      add\n        /* \"@openzeppelin/contracts/utils/Arrays.sol\":4742:4784  mload(add(add(arr, 0x20), mul(pos, 0x20))) */\n      mload\n        /* \"@openzeppelin/contracts/token/ERC1155/ERC1155.sol\":7483:7550  _doSafeTransferAcceptanceCheck(operator, from, to, id, value, data) */\n      tag_185\n        /* \"@openzeppelin/contracts/token/ERC1155/ERC1155.sol\":7514:7522  operator */\n      dup4\n        /* \"@openzeppelin/contracts/token/ERC1155/ERC1155.sol\":7524:7528  from */\n      dup10\n        /* \"@openzeppelin/contracts/token/ERC1155/ERC1155.sol\":7530:7532  to */\n      dup10\n        /* \"@openzeppelin/contracts/utils/Arrays.sol\":4742:4784  mload(add(add(arr, 0x20), mul(pos, 0x20))) */\n      dup6\n      dup6\n        /* \"@openzeppelin/contracts/token/ERC1155/ERC1155.sol\":7545:7549  data */\n      dup10\n        /* \"@openzeppelin/contracts/token/ERC1155/ERC1155.sol\":7483:7513  _doSafeTransferAcceptanceCheck */\n      tag_186\n        /* \"@openzeppelin/contracts/token/ERC1155/ERC1155.sol\":7483:7550  _doSafeTransferAcceptanceCheck(operator, from, to, id, value, data) */\n      jump\t// in\n    tag_185:\n        /* \"@openzeppelin/contracts/token/ERC1155/ERC1155.sol\":7347:7565  {... */\n      pop\n      pop\n        /* \"@openzeppelin/contracts/token/ERC1155/ERC1155.sol\":7326:7678  if (ids.length == 1) {... */\n      jump(tag_96)\n    tag_182:\n        /* \"@openzeppelin/contracts/token/ERC1155/ERC1155.sol\":7589:7663  _doSafeBatchTransferAcceptanceCheck(operator, from, to, ids, values, data) */\n      tag_96\n        /* \"@openzeppelin/contracts/token/ERC1155/ERC1155.sol\":7625:7633  operator */\n      dup2\n        /* \"@openzeppelin/contracts/token/ERC1155/ERC1155.sol\":7635:7639  from */\n      dup8\n        /* \"@openzeppelin/contracts/token/ERC1155/ERC1155.sol\":7641:7643  to */\n      dup8\n        /* \"@openzeppelin/contracts/token/ERC1155/ERC1155.sol\":7645:7648  ids */\n      dup8\n        /* \"@openzeppelin/contracts/token/ERC1155/ERC1155.sol\":7650:7656  values */\n      dup8\n        /* \"@openzeppelin/contracts/token/ERC1155/ERC1155.sol\":7658:7662  data */\n      dup8\n        /* \"@openzeppelin/contracts/token/ERC1155/ERC1155.sol\":7589:7624  _doSafeBatchTransferAcceptanceCheck */\n      tag_189\n        /* \"@openzeppelin/contracts/token/ERC1155/ERC1155.sol\":7589:7663  _doSafeBatchTransferAcceptanceCheck(operator, from, to, ids, values, data) */\n      jump\t// in\n        /* \"@openzeppelin/contracts/token/ERC1155/ERC1155.sol\":5144:6425  function _update(address from, address to, uint256[] memory ids, uint256[] memory values) internal virtual {... */\n    tag_179:\n        /* \"@openzeppelin/contracts/token/ERC1155/ERC1155.sol\":5279:5285  values */\n      dup1\n        /* \"@openzeppelin/contracts/token/ERC1155/ERC1155.sol\":5279:5292  values.length */\n      mload\n        /* \"@openzeppelin/contracts/token/ERC1155/ERC1155.sol\":5265:5268  ids */\n      dup3\n        /* \"@openzeppelin/contracts/token/ERC1155/ERC1155.sol\":5265:5275  ids.length */\n      mload\n        /* \"@openzeppelin/contracts/token/ERC1155/ERC1155.sol\":5265:5292  ids.length != values.length */\n      eq\n        /* \"@openzeppelin/contracts/token/ERC1155/ERC1155.sol\":5261:5378  if (ids.length != values.length) {... */\n      tag_192\n      jumpi\n        /* \"@openzeppelin/contracts/token/ERC1155/ERC1155.sol\":5341:5351  ids.length */\n      dup2\n      mload\n        /* \"@openzeppelin/contracts/token/ERC1155/ERC1155.sol\":5353:5366  values.length */\n      dup2\n      mload\n        /* \"@openzeppelin/contracts/token/ERC1155/ERC1155.sol\":5315:5367  ERC1155InvalidArrayLength(ids.length, values.length) */\n      mload(0x40)\n      shl(0xe0, 0x5b059991)\n      dup2\n      mstore\n      0x04\n      dup2\n      add\n        /* \"#utility.yul\":11491:11516   */\n      swap3\n      swap1\n      swap3\n      mstore\n        /* \"#utility.yul\":11532:11550   */\n      0x24\n      dup3\n      add\n        /* \"#utility.yul\":11525:11559   */\n      mstore\n        /* \"#utility.yul\":11464:11482   */\n      0x44\n      add\n        /* \"@openzeppelin/contracts/token/ERC1155/ERC1155.sol\":5315:5367  ERC1155InvalidArrayLength(ids.length, values.length) */\n      tag_94\n        /* \"#utility.yul\":11317:11565   */\n      jump\n        /* \"@openzeppelin/contracts/token/ERC1155/ERC1155.sol\":5261:5378  if (ids.length != values.length) {... */\n    tag_192:\n        /* \"@openzeppelin/contracts/utils/Context.sol\":735:745  msg.sender */\n      caller\n        /* \"@openzeppelin/contracts/token/ERC1155/ERC1155.sol\":5388:5404  address operator */\n      0x00\n        /* \"@openzeppelin/contracts/token/ERC1155/ERC1155.sol\":5430:6121  for (uint256 i = 0; i < ids.length; ++i) {... */\n    tag_195:\n        /* \"@openzeppelin/contracts/token/ERC1155/ERC1155.sol\":5454:5457  ids */\n      dup4\n        /* \"@openzeppelin/contracts/token/ERC1155/ERC1155.sol\":5454:5464  ids.length */\n      mload\n        /* \"@openzeppelin/contracts/token/ERC1155/ERC1155.sol\":5450:5451  i */\n      dup2\n        /* \"@openzeppelin/contracts/token/ERC1155/ERC1155.sol\":5450:5464  i < ids.length */\n      lt\n        /* \"@openzeppelin/contracts/token/ERC1155/ERC1155.sol\":5430:6121  for (uint256 i = 0; i < ids.length; ++i) {... */\n      iszero\n      tag_196\n      jumpi\n        /* \"@openzeppelin/contracts/utils/Arrays.sol\":4777:4781  0x20 */\n      0x20\n        /* \"@openzeppelin/contracts/utils/Arrays.sol\":4768:4782  mul(pos, 0x20) */\n      dup2\n      dup2\n      mul\n        /* \"@openzeppelin/contracts/utils/Arrays.sol\":4748:4783  add(add(arr, 0x20), mul(pos, 0x20)) */\n      dup6\n      dup2\n      add\n      dup3\n      add\n        /* \"@openzeppelin/contracts/utils/Arrays.sol\":4742:4784  mload(add(add(arr, 0x20), mul(pos, 0x20))) */\n      mload\n        /* \"@openzeppelin/contracts/utils/Arrays.sol\":4748:4783  add(add(arr, 0x20), mul(pos, 0x20)) */\n      swap1\n      dup6\n      add\n      swap1\n      swap2\n      add\n        /* \"@openzeppelin/contracts/utils/Arrays.sol\":4742:4784  mload(add(add(arr, 0x20), mul(pos, 0x20))) */\n      mload\n      sub(shl(0xa0, 0x01), 0x01)\n        /* \"@openzeppelin/contracts/token/ERC1155/ERC1155.sol\":5600:5618  from != address(0) */\n      dup9\n      and\n      iszero\n        /* \"@openzeppelin/contracts/token/ERC1155/ERC1155.sol\":5596:6016  if (from != address(0)) {... */\n      tag_200\n      jumpi\n        /* \"@openzeppelin/contracts/token/ERC1155/ERC1155.sol\":5638:5657  uint256 fromBalance */\n      0x00\n        /* \"@openzeppelin/contracts/token/ERC1155/ERC1155.sol\":5660:5673  _balances[id] */\n      dup3\n      dup2\n      mstore\n      0x20\n      dup2\n      dup2\n      mstore\n      0x40\n      dup1\n      dup4\n      keccak256\n      sub(shl(0xa0, 0x01), 0x01)\n        /* \"@openzeppelin/contracts/token/ERC1155/ERC1155.sol\":5660:5679  _balances[id][from] */\n      dup13\n      and\n      dup5\n      mstore\n      swap1\n      swap2\n      mstore\n      swap1\n      keccak256\n      sload\n        /* \"@openzeppelin/contracts/token/ERC1155/ERC1155.sol\":5701:5720  fromBalance < value */\n      dup2\n      dup2\n      lt\n        /* \"@openzeppelin/contracts/token/ERC1155/ERC1155.sol\":5697:5826  if (fromBalance < value) {... */\n      iszero\n      tag_201\n      jumpi\n        /* \"@openzeppelin/contracts/token/ERC1155/ERC1155.sol\":5751:5807  ERC1155InsufficientBalance(from, fromBalance, value, id) */\n      mload(0x40)\n      shl(0xe0, 0x03dee4c5)\n      dup2\n      mstore\n      sub(shl(0xa0, 0x01), 0x01)\n        /* \"#utility.yul\":14429:14461   */\n      dup11\n      and\n        /* \"@openzeppelin/contracts/token/ERC1155/ERC1155.sol\":5751:5807  ERC1155InsufficientBalance(from, fromBalance, value, id) */\n      0x04\n      dup3\n      add\n        /* \"#utility.yul\":14411:14462   */\n      mstore\n        /* \"#utility.yul\":14478:14496   */\n      0x24\n      dup2\n      add\n        /* \"#utility.yul\":14471:14505   */\n      dup3\n      swap1\n      mstore\n        /* \"#utility.yul\":14521:14539   */\n      0x44\n      dup2\n      add\n        /* \"#utility.yul\":14514:14548   */\n      dup4\n      swap1\n      mstore\n        /* \"#utility.yul\":14564:14582   */\n      0x64\n      dup2\n      add\n        /* \"#utility.yul\":14557:14591   */\n      dup5\n      swap1\n      mstore\n        /* \"#utility.yul\":14383:14402   */\n      0x84\n      add\n        /* \"@openzeppelin/contracts/token/ERC1155/ERC1155.sol\":5751:5807  ERC1155InsufficientBalance(from, fromBalance, value, id) */\n      tag_94\n        /* \"#utility.yul\":14180:14597   */\n      jump\n        /* \"@openzeppelin/contracts/token/ERC1155/ERC1155.sol\":5697:5826  if (fromBalance < value) {... */\n    tag_201:\n        /* \"@openzeppelin/contracts/token/ERC1155/ERC1155.sol\":5942:5951  _balances */\n      0x00\n        /* \"@openzeppelin/contracts/token/ERC1155/ERC1155.sol\":5942:5955  _balances[id] */\n      dup4\n      dup2\n      mstore\n      0x20\n      dup2\n      dup2\n      mstore\n      0x40\n      dup1\n      dup4\n      keccak256\n      sub(shl(0xa0, 0x01), 0x01)\n        /* \"@openzeppelin/contracts/token/ERC1155/ERC1155.sol\":5942:5961  _balances[id][from] */\n      dup14\n      and\n      dup5\n      mstore\n      swap1\n      swap2\n      mstore\n      swap1\n      keccak256\n        /* \"@openzeppelin/contracts/token/ERC1155/ERC1155.sol\":5964:5983  fromBalance - value */\n      swap1\n      dup3\n      swap1\n      sub\n        /* \"@openzeppelin/contracts/token/ERC1155/ERC1155.sol\":5942:5983  _balances[id][from] = fromBalance - value */\n      swap1\n      sstore\n        /* \"@openzeppelin/contracts/token/ERC1155/ERC1155.sol\":5596:6016  if (from != address(0)) {... */\n    tag_200:\n      sub(shl(0xa0, 0x01), 0x01)\n        /* \"@openzeppelin/contracts/token/ERC1155/ERC1155.sol\":6034:6050  to != address(0) */\n      dup8\n      and\n      iszero\n        /* \"@openzeppelin/contracts/token/ERC1155/ERC1155.sol\":6030:6111  if (to != address(0)) {... */\n      tag_204\n      jumpi\n        /* \"@openzeppelin/contracts/token/ERC1155/ERC1155.sol\":6070:6079  _balances */\n      0x00\n        /* \"@openzeppelin/contracts/token/ERC1155/ERC1155.sol\":6070:6083  _balances[id] */\n      dup3\n      dup2\n      mstore\n      0x20\n      dup2\n      dup2\n      mstore\n      0x40\n      dup1\n      dup4\n      keccak256\n      sub(shl(0xa0, 0x01), 0x01)\n        /* \"@openzeppelin/contracts/token/ERC1155/ERC1155.sol\":6070:6087  _balances[id][to] */\n      dup12\n      and\n      dup5\n      mstore\n      swap1\n      swap2\n      mstore\n      dup2\n      keccak256\n        /* \"@openzeppelin/contracts/token/ERC1155/ERC1155.sol\":6070:6096  _balances[id][to] += value */\n      dup1\n      sload\n        /* \"@openzeppelin/contracts/token/ERC1155/ERC1155.sol\":6091:6096  value */\n      dup4\n      swap3\n        /* \"@openzeppelin/contracts/token/ERC1155/ERC1155.sol\":6070:6079  _balances */\n      swap1\n        /* \"@openzeppelin/contracts/token/ERC1155/ERC1155.sol\":6070:6096  _balances[id][to] += value */\n      tag_205\n      swap1\n        /* \"@openzeppelin/contracts/token/ERC1155/ERC1155.sol\":6091:6096  value */\n      dup5\n      swap1\n        /* \"@openzeppelin/contracts/token/ERC1155/ERC1155.sol\":6070:6096  _balances[id][to] += value */\n      tag_206\n      jump\t// in\n    tag_205:\n      swap1\n      swap2\n      sstore\n      pop\n      pop\n        /* \"@openzeppelin/contracts/token/ERC1155/ERC1155.sol\":6030:6111  if (to != address(0)) {... */\n    tag_204:\n      pop\n      pop\n        /* \"@openzeppelin/contracts/token/ERC1155/ERC1155.sol\":5466:5469  ++i */\n      0x01\n      add\n        /* \"@openzeppelin/contracts/token/ERC1155/ERC1155.sol\":5430:6121  for (uint256 i = 0; i < ids.length; ++i) {... */\n      jump(tag_195)\n    tag_196:\n      pop\n        /* \"@openzeppelin/contracts/token/ERC1155/ERC1155.sol\":6135:6138  ids */\n      dup3\n        /* \"@openzeppelin/contracts/token/ERC1155/ERC1155.sol\":6135:6145  ids.length */\n      mload\n        /* \"@openzeppelin/contracts/token/ERC1155/ERC1155.sol\":6149:6150  1 */\n      0x01\n        /* \"@openzeppelin/contracts/token/ERC1155/ERC1155.sol\":6135:6150  ids.length == 1 */\n      sub\n        /* \"@openzeppelin/contracts/token/ERC1155/ERC1155.sol\":6131:6419  if (ids.length == 1) {... */\n      tag_207\n      jumpi\n        /* \"@openzeppelin/contracts/utils/Arrays.sol\":4777:4781  0x20 */\n      0x20\n        /* \"@openzeppelin/contracts/utils/Arrays.sol\":4748:4783  add(add(arr, 0x20), mul(pos, 0x20)) */\n      dup4\n      add\n        /* \"@openzeppelin/contracts/utils/Arrays.sol\":4742:4784  mload(add(add(arr, 0x20), mul(pos, 0x20))) */\n      mload\n        /* \"@openzeppelin/contracts/token/ERC1155/ERC1155.sol\":6166:6176  uint256 id */\n      0x00\n      swap1\n        /* \"@openzeppelin/contracts/utils/Arrays.sol\":4777:4781  0x20 */\n      0x20\n        /* \"@openzeppelin/contracts/utils/Arrays.sol\":4748:4783  add(add(arr, 0x20), mul(pos, 0x20)) */\n      dup5\n      add\n        /* \"@openzeppelin/contracts/utils/Arrays.sol\":4742:4784  mload(add(add(arr, 0x20), mul(pos, 0x20))) */\n      mload\n        /* \"@openzeppelin/contracts/token/ERC1155/ERC1155.sol\":6166:6204  uint256 id = ids.unsafeMemoryAccess(0) */\n      swap1\n      swap2\n      pop\n        /* \"@openzeppelin/contracts/token/ERC1155/ERC1155.sol\":6312:6314  to */\n      dup6\n      sub(shl(0xa0, 0x01), 0x01)\n        /* \"@openzeppelin/contracts/token/ERC1155/ERC1155.sol\":6281:6326  TransferSingle(operator, from, to, id, value) */\n      and\n        /* \"@openzeppelin/contracts/token/ERC1155/ERC1155.sol\":6306:6310  from */\n      dup8\n      sub(shl(0xa0, 0x01), 0x01)\n        /* \"@openzeppelin/contracts/token/ERC1155/ERC1155.sol\":6281:6326  TransferSingle(operator, from, to, id, value) */\n      and\n        /* \"@openzeppelin/contracts/token/ERC1155/ERC1155.sol\":6296:6304  operator */\n      dup5\n      sub(shl(0xa0, 0x01), 0x01)\n        /* \"@openzeppelin/contracts/token/ERC1155/ERC1155.sol\":6281:6326  TransferSingle(operator, from, to, id, value) */\n      and\n      0xc3d58168c5ae7397731d063d5bbf3d657854427343f4c083240f7aacaa2d0f62\n        /* \"@openzeppelin/contracts/token/ERC1155/ERC1155.sol\":6316:6318  id */\n      dup6\n        /* \"@openzeppelin/contracts/token/ERC1155/ERC1155.sol\":6320:6325  value */\n      dup6\n        /* \"@openzeppelin/contracts/token/ERC1155/ERC1155.sol\":6281:6326  TransferSingle(operator, from, to, id, value) */\n      mload(0x40)\n      tag_210\n      swap3\n      swap2\n      swap1\n        /* \"#utility.yul\":11491:11516   */\n      swap2\n      dup3\n      mstore\n        /* \"#utility.yul\":11547:11549   */\n      0x20\n        /* \"#utility.yul\":11532:11550   */\n      dup3\n      add\n        /* \"#utility.yul\":11525:11559   */\n      mstore\n        /* \"#utility.yul\":11479:11481   */\n      0x40\n        /* \"#utility.yul\":11464:11482   */\n      add\n      swap1\n        /* \"#utility.yul\":11317:11565   */\n      jump\n        /* \"@openzeppelin/contracts/token/ERC1155/ERC1155.sol\":6281:6326  TransferSingle(operator, from, to, id, value) */\n    tag_210:\n      mload(0x40)\n      dup1\n      swap2\n      sub\n      swap1\n      log4\n        /* \"@openzeppelin/contracts/token/ERC1155/ERC1155.sol\":6152:6337  {... */\n      pop\n      pop\n        /* \"@openzeppelin/contracts/token/ERC1155/ERC1155.sol\":6131:6419  if (ids.length == 1) {... */\n      jump(tag_151)\n    tag_207:\n        /* \"@openzeppelin/contracts/token/ERC1155/ERC1155.sol\":6392:6394  to */\n      dup4\n      sub(shl(0xa0, 0x01), 0x01)\n        /* \"@openzeppelin/contracts/token/ERC1155/ERC1155.sol\":6362:6408  TransferBatch(operator, from, to, ids, values) */\n      and\n        /* \"@openzeppelin/contracts/token/ERC1155/ERC1155.sol\":6386:6390  from */\n      dup6\n      sub(shl(0xa0, 0x01), 0x01)\n        /* \"@openzeppelin/contracts/token/ERC1155/ERC1155.sol\":6362:6408  TransferBatch(operator, from, to, ids, values) */\n      and\n        /* \"@openzeppelin/contracts/token/ERC1155/ERC1155.sol\":6376:6384  operator */\n      dup3\n      sub(shl(0xa0, 0x01), 0x01)\n        /* \"@openzeppelin/contracts/token/ERC1155/ERC1155.sol\":6362:6408  TransferBatch(operator, from, to, ids, values) */\n      and\n      0x4a39dc06d4c0dbc64b70af90fd698a233a518aa5d07e595d983b8c0526c8f7fb\n        /* \"@openzeppelin/contracts/token/ERC1155/ERC1155.sol\":6396:6399  ids */\n      dup7\n        /* \"@openzeppelin/contracts/token/ERC1155/ERC1155.sol\":6401:6407  values */\n      dup7\n        /* \"@openzeppelin/contracts/token/ERC1155/ERC1155.sol\":6362:6408  TransferBatch(operator, from, to, ids, values) */\n      mload(0x40)\n      tag_212\n      swap3\n      swap2\n      swap1\n      tag_213\n      jump\t// in\n    tag_212:\n      mload(0x40)\n      dup1\n      swap2\n      sub\n      swap1\n      log4\n        /* \"@openzeppelin/contracts/token/ERC1155/ERC1155.sol\":5251:6425  {... */\n      pop\n        /* \"@openzeppelin/contracts/token/ERC1155/ERC1155.sol\":5144:6425  function _update(address from, address to, uint256[] memory ids, uint256[] memory values) internal virtual {... */\n      pop\n      pop\n      pop\n      pop\n      jump\t// out\n        /* \"@openzeppelin/contracts/token/ERC1155/ERC1155.sol\":13761:14735  function _doSafeTransferAcceptanceCheck(... */\n    tag_186:\n      sub(shl(0xa0, 0x01), 0x01)\n        /* \"@openzeppelin/contracts/token/ERC1155/ERC1155.sol\":13967:13981  to.code.length */\n      dup5\n      and\n      extcodesize\n        /* \"@openzeppelin/contracts/token/ERC1155/ERC1155.sol\":13967:13985  to.code.length > 0 */\n      iszero\n        /* \"@openzeppelin/contracts/token/ERC1155/ERC1155.sol\":13963:14729  if (to.code.length > 0) {... */\n      tag_96\n      jumpi\n        /* \"@openzeppelin/contracts/token/ERC1155/ERC1155.sol\":14005:14076  IERC1155Receiver(to).onERC1155Received(operator, from, id, value, data) */\n      mload(0x40)\n      shl(0xe0, 0xf23a6e61)\n      dup2\n      mstore\n      sub(shl(0xa0, 0x01), 0x01)\n        /* \"@openzeppelin/contracts/token/ERC1155/ERC1155.sol\":14005:14043  IERC1155Receiver(to).onERC1155Received */\n      dup6\n      and\n      swap1\n      0xf23a6e61\n      swap1\n        /* \"@openzeppelin/contracts/token/ERC1155/ERC1155.sol\":14005:14076  IERC1155Receiver(to).onERC1155Received(operator, from, id, value, data) */\n      tag_216\n      swap1\n        /* \"@openzeppelin/contracts/token/ERC1155/ERC1155.sol\":14044:14052  operator */\n      dup10\n      swap1\n        /* \"@openzeppelin/contracts/token/ERC1155/ERC1155.sol\":14054:14058  from */\n      dup10\n      swap1\n        /* \"@openzeppelin/contracts/token/ERC1155/ERC1155.sol\":14060:14062  id */\n      dup9\n      swap1\n        /* \"@openzeppelin/contracts/token/ERC1155/ERC1155.sol\":14064:14069  value */\n      dup9\n      swap1\n        /* \"@openzeppelin/contracts/token/ERC1155/ERC1155.sol\":14071:14075  data */\n      dup9\n      swap1\n        /* \"@openzeppelin/contracts/token/ERC1155/ERC1155.sol\":14005:14076  IERC1155Receiver(to).onERC1155Received(operator, from, id, value, data) */\n      0x04\n      add\n      tag_217\n      jump\t// in\n    tag_216:\n      0x20\n      mload(0x40)\n      dup1\n      dup4\n      sub\n      dup2\n      0x00\n      dup8\n      gas\n      call\n      swap3\n      pop\n      pop\n      pop\n      dup1\n      iszero\n      tag_218\n      jumpi\n      pop\n      0x40\n      dup1\n      mload\n      0x1f\n      returndatasize\n      swap1\n      dup2\n      add\n      not(0x1f)\n      and\n      dup3\n      add\n      swap1\n      swap3\n      mstore\n      tag_219\n      swap2\n      dup2\n      add\n      swap1\n      tag_220\n      jump\t// in\n    tag_219:\n      0x01\n    tag_218:\n        /* \"@openzeppelin/contracts/token/ERC1155/ERC1155.sol\":14001:14719  try IERC1155Receiver(to).onERC1155Received(operator, from, id, value, data) returns (bytes4 response) {... */\n      tag_221\n      jumpi\n      returndatasize\n      dup1\n      dup1\n      iszero\n      tag_226\n      jumpi\n      mload(0x40)\n      swap2\n      pop\n      and(add(returndatasize, 0x3f), not(0x1f))\n      dup3\n      add\n      0x40\n      mstore\n      returndatasize\n      dup3\n      mstore\n      returndatasize\n      0x00\n      0x20\n      dup5\n      add\n      returndatacopy\n      jump(tag_225)\n    tag_226:\n      0x60\n      swap2\n      pop\n    tag_225:\n      pop\n        /* \"@openzeppelin/contracts/token/ERC1155/ERC1155.sol\":14360:14366  reason */\n      dup1\n        /* \"@openzeppelin/contracts/token/ERC1155/ERC1155.sol\":14360:14373  reason.length */\n      mload\n        /* \"@openzeppelin/contracts/token/ERC1155/ERC1155.sol\":14377:14378  0 */\n      0x00\n        /* \"@openzeppelin/contracts/token/ERC1155/ERC1155.sol\":14360:14378  reason.length == 0 */\n      sub\n        /* \"@openzeppelin/contracts/token/ERC1155/ERC1155.sol\":14356:14705  if (reason.length == 0) {... */\n      tag_227\n      jumpi\n        /* \"@openzeppelin/contracts/token/ERC1155/ERC1155.sol\":14464:14490  ERC1155InvalidReceiver(to) */\n      mload(0x40)\n      shl(0xe1, 0x2bfa23e7)\n      dup2\n      mstore\n      sub(shl(0xa0, 0x01), 0x01)\n        /* \"#utility.yul\":12138:12170   */\n      dup7\n      and\n        /* \"@openzeppelin/contracts/token/ERC1155/ERC1155.sol\":14464:14490  ERC1155InvalidReceiver(to) */\n      0x04\n      dup3\n      add\n        /* \"#utility.yul\":12120:12171   */\n      mstore\n        /* \"#utility.yul\":12093:12111   */\n      0x24\n      add\n        /* \"@openzeppelin/contracts/token/ERC1155/ERC1155.sol\":14464:14490  ERC1155InvalidReceiver(to) */\n      tag_94\n        /* \"#utility.yul\":11974:12177   */\n      jump\n        /* \"@openzeppelin/contracts/token/ERC1155/ERC1155.sol\":14356:14705  if (reason.length == 0) {... */\n    tag_227:\n        /* \"@openzeppelin/contracts/token/ERC1155/ERC1155.sol\":14657:14663  reason */\n      dup1\n        /* \"@openzeppelin/contracts/token/ERC1155/ERC1155.sol\":14651:14664  mload(reason) */\n      mload\n        /* \"@openzeppelin/contracts/token/ERC1155/ERC1155.sol\":14642:14648  reason */\n      dup2\n        /* \"@openzeppelin/contracts/token/ERC1155/ERC1155.sol\":14638:14640  32 */\n      0x20\n        /* \"@openzeppelin/contracts/token/ERC1155/ERC1155.sol\":14634:14649  add(32, reason) */\n      add\n        /* \"@openzeppelin/contracts/token/ERC1155/ERC1155.sol\":14627:14665  revert(add(32, reason), mload(reason)) */\n      revert\n        /* \"@openzeppelin/contracts/token/ERC1155/ERC1155.sol\":14001:14719  try IERC1155Receiver(to).onERC1155Received(operator, from, id, value, data) returns (bytes4 response) {... */\n    tag_221:\n      not(sub(shl(0xe0, 0x01), 0x01))\n        /* \"@openzeppelin/contracts/token/ERC1155/ERC1155.sol\":14125:14180  response != IERC1155Receiver.onERC1155Received.selector */\n      dup2\n      and\n      shl(0xe0, 0xf23a6e61)\n      eq\n        /* \"@openzeppelin/contracts/token/ERC1155/ERC1155.sol\":14121:14295  if (response != IERC1155Receiver.onERC1155Received.selector) {... */\n      tag_176\n      jumpi\n        /* \"@openzeppelin/contracts/token/ERC1155/ERC1155.sol\":14250:14276  ERC1155InvalidReceiver(to) */\n      mload(0x40)\n      shl(0xe1, 0x2bfa23e7)\n      dup2\n      mstore\n      sub(shl(0xa0, 0x01), 0x01)\n        /* \"#utility.yul\":12138:12170   */\n      dup7\n      and\n        /* \"@openzeppelin/contracts/token/ERC1155/ERC1155.sol\":14250:14276  ERC1155InvalidReceiver(to) */\n      0x04\n      dup3\n      add\n        /* \"#utility.yul\":12120:12171   */\n      mstore\n        /* \"#utility.yul\":12093:12111   */\n      0x24\n      add\n        /* \"@openzeppelin/contracts/token/ERC1155/ERC1155.sol\":14250:14276  ERC1155InvalidReceiver(to) */\n      tag_94\n        /* \"#utility.yul\":11974:12177   */\n      jump\n        /* \"@openzeppelin/contracts/token/ERC1155/ERC1155.sol\":14923:15964  function _doSafeBatchTransferAcceptanceCheck(... */\n    tag_189:\n      sub(shl(0xa0, 0x01), 0x01)\n        /* \"@openzeppelin/contracts/token/ERC1155/ERC1155.sol\":15154:15168  to.code.length */\n      dup5\n      and\n      extcodesize\n        /* \"@openzeppelin/contracts/token/ERC1155/ERC1155.sol\":15154:15172  to.code.length > 0 */\n      iszero\n        /* \"@openzeppelin/contracts/token/ERC1155/ERC1155.sol\":15150:15958  if (to.code.length > 0) {... */\n      tag_96\n      jumpi\n        /* \"@openzeppelin/contracts/token/ERC1155/ERC1155.sol\":15192:15270  IERC1155Receiver(to).onERC1155BatchReceived(operator, from, ids, values, data) */\n      mload(0x40)\n      shl(0xe0, 0xbc197c81)\n      dup2\n      mstore\n      sub(shl(0xa0, 0x01), 0x01)\n        /* \"@openzeppelin/contracts/token/ERC1155/ERC1155.sol\":15192:15235  IERC1155Receiver(to).onERC1155BatchReceived */\n      dup6\n      and\n      swap1\n      0xbc197c81\n      swap1\n        /* \"@openzeppelin/contracts/token/ERC1155/ERC1155.sol\":15192:15270  IERC1155Receiver(to).onERC1155BatchReceived(operator, from, ids, values, data) */\n      tag_235\n      swap1\n        /* \"@openzeppelin/contracts/token/ERC1155/ERC1155.sol\":15236:15244  operator */\n      dup10\n      swap1\n        /* \"@openzeppelin/contracts/token/ERC1155/ERC1155.sol\":15246:15250  from */\n      dup10\n      swap1\n        /* \"@openzeppelin/contracts/token/ERC1155/ERC1155.sol\":15252:15255  ids */\n      dup9\n      swap1\n        /* \"@openzeppelin/contracts/token/ERC1155/ERC1155.sol\":15257:15263  values */\n      dup9\n      swap1\n        /* \"@openzeppelin/contracts/token/ERC1155/ERC1155.sol\":15265:15269  data */\n      dup9\n      swap1\n        /* \"@openzeppelin/contracts/token/ERC1155/ERC1155.sol\":15192:15270  IERC1155Receiver(to).onERC1155BatchReceived(operator, from, ids, values, data) */\n      0x04\n      add\n      tag_236\n      jump\t// in\n    tag_235:\n      0x20\n      mload(0x40)\n      dup1\n      dup4\n      sub\n      dup2\n      0x00\n      dup8\n      gas\n      call\n      swap3\n      pop\n      pop\n      pop\n      dup1\n      iszero\n      tag_237\n      jumpi\n      pop\n      0x40\n      dup1\n      mload\n      0x1f\n      returndatasize\n      swap1\n      dup2\n      add\n      not(0x1f)\n      and\n      dup3\n      add\n      swap1\n      swap3\n      mstore\n      tag_238\n      swap2\n      dup2\n      add\n      swap1\n      tag_220\n      jump\t// in\n    tag_238:\n      0x01\n    tag_237:\n        /* \"@openzeppelin/contracts/token/ERC1155/ERC1155.sol\":15188:15948  try IERC1155Receiver(to).onERC1155BatchReceived(operator, from, ids, values, data) returns (... */\n      tag_239\n      jumpi\n      returndatasize\n      dup1\n      dup1\n      iszero\n      tag_226\n      jumpi\n      mload(0x40)\n      swap2\n      pop\n      and(add(returndatasize, 0x3f), not(0x1f))\n      dup3\n      add\n      0x40\n      mstore\n      returndatasize\n      dup3\n      mstore\n      returndatasize\n      0x00\n      0x20\n      dup5\n      add\n      returndatacopy\n      jump(tag_225)\n    tag_239:\n      not(sub(shl(0xe0, 0x01), 0x01))\n        /* \"@openzeppelin/contracts/token/ERC1155/ERC1155.sol\":15349:15409  response != IERC1155Receiver.onERC1155BatchReceived.selector */\n      dup2\n      and\n      shl(0xe0, 0xbc197c81)\n      eq\n        /* \"@openzeppelin/contracts/token/ERC1155/ERC1155.sol\":15345:15524  if (response != IERC1155Receiver.onERC1155BatchReceived.selector) {... */\n      tag_176\n      jumpi\n        /* \"@openzeppelin/contracts/token/ERC1155/ERC1155.sol\":15479:15505  ERC1155InvalidReceiver(to) */\n      mload(0x40)\n      shl(0xe1, 0x2bfa23e7)\n      dup2\n      mstore\n      sub(shl(0xa0, 0x01), 0x01)\n        /* \"#utility.yul\":12138:12170   */\n      dup7\n      and\n        /* \"@openzeppelin/contracts/token/ERC1155/ERC1155.sol\":15479:15505  ERC1155InvalidReceiver(to) */\n      0x04\n      dup3\n      add\n        /* \"#utility.yul\":12120:12171   */\n      mstore\n        /* \"#utility.yul\":12093:12111   */\n      0x24\n      add\n        /* \"@openzeppelin/contracts/token/ERC1155/ERC1155.sol\":15479:15505  ERC1155InvalidReceiver(to) */\n      tag_94\n        /* \"#utility.yul\":11974:12177   */\n      jump\n        /* \"#utility.yul\":14:187   */\n    tag_251:\n        /* \"#utility.yul\":82:102   */\n      dup1\n      calldataload\n      sub(shl(0xa0, 0x01), 0x01)\n        /* \"#utility.yul\":131:162   */\n      dup2\n      and\n        /* \"#utility.yul\":121:163   */\n      dup2\n      eq\n        /* \"#utility.yul\":111:181   */\n      tag_267\n      jumpi\n        /* \"#utility.yul\":177:178   */\n      0x00\n        /* \"#utility.yul\":174:175   */\n      dup1\n        /* \"#utility.yul\":167:179   */\n      revert\n        /* \"#utility.yul\":111:181   */\n    tag_267:\n        /* \"#utility.yul\":14:187   */\n      swap2\n      swap1\n      pop\n      jump\t// out\n        /* \"#utility.yul\":192:492   */\n    tag_17:\n        /* \"#utility.yul\":260:266   */\n      0x00\n        /* \"#utility.yul\":268:274   */\n      dup1\n        /* \"#utility.yul\":321:323   */\n      0x40\n        /* \"#utility.yul\":309:318   */\n      dup4\n        /* \"#utility.yul\":300:307   */\n      dup6\n        /* \"#utility.yul\":296:319   */\n      sub\n        /* \"#utility.yul\":292:324   */\n      slt\n        /* \"#utility.yul\":289:341   */\n      iszero\n      tag_269\n      jumpi\n        /* \"#utility.yul\":337:338   */\n      0x00\n        /* \"#utility.yul\":334:335   */\n      dup1\n        /* \"#utility.yul\":327:339   */\n      revert\n        /* \"#utility.yul\":289:341   */\n    tag_269:\n        /* \"#utility.yul\":360:389   */\n      tag_270\n        /* \"#utility.yul\":379:388   */\n      dup4\n        /* \"#utility.yul\":360:389   */\n      tag_251\n      jump\t// in\n    tag_270:\n        /* \"#utility.yul\":350:389   */\n      swap5\n        /* \"#utility.yul\":458:460   */\n      0x20\n        /* \"#utility.yul\":443:461   */\n      swap4\n      swap1\n      swap4\n      add\n        /* \"#utility.yul\":430:462   */\n      calldataload\n      swap4\n      pop\n      pop\n      pop\n        /* \"#utility.yul\":192:492   */\n      jump\t// out\n        /* \"#utility.yul\":679:810   */\n    tag_252:\n      not(sub(shl(0xe0, 0x01), 0x01))\n        /* \"#utility.yul\":753:785   */\n      dup2\n      and\n        /* \"#utility.yul\":743:786   */\n      dup2\n      eq\n        /* \"#utility.yul\":733:804   */\n      tag_273\n      jumpi\n        /* \"#utility.yul\":800:801   */\n      0x00\n        /* \"#utility.yul\":797:798   */\n      dup1\n        /* \"#utility.yul\":790:802   */\n      revert\n        /* \"#utility.yul\":733:804   */\n    tag_273:\n        /* \"#utility.yul\":679:810   */\n      pop\n      jump\t// out\n        /* \"#utility.yul\":815:1060   */\n    tag_23:\n        /* \"#utility.yul\":873:879   */\n      0x00\n        /* \"#utility.yul\":926:928   */\n      0x20\n        /* \"#utility.yul\":914:923   */\n      dup3\n        /* \"#utility.yul\":905:912   */\n      dup5\n        /* \"#utility.yul\":901:924   */\n      sub\n        /* \"#utility.yul\":897:929   */\n      slt\n        /* \"#utility.yul\":894:946   */\n      iszero\n      tag_275\n      jumpi\n        /* \"#utility.yul\":942:943   */\n      0x00\n        /* \"#utility.yul\":939:940   */\n      dup1\n        /* \"#utility.yul\":932:944   */\n      revert\n        /* \"#utility.yul\":894:946   */\n    tag_275:\n        /* \"#utility.yul\":981:990   */\n      dup2\n        /* \"#utility.yul\":968:991   */\n      calldataload\n        /* \"#utility.yul\":1000:1030   */\n      tag_83\n        /* \"#utility.yul\":1024:1029   */\n      dup2\n        /* \"#utility.yul\":1000:1030   */\n      tag_252\n      jump\t// in\n        /* \"#utility.yul\":1257:1483   */\n    tag_29:\n        /* \"#utility.yul\":1316:1322   */\n      0x00\n        /* \"#utility.yul\":1369:1371   */\n      0x20\n        /* \"#utility.yul\":1357:1366   */\n      dup3\n        /* \"#utility.yul\":1348:1355   */\n      dup5\n        /* \"#utility.yul\":1344:1367   */\n      sub\n        /* \"#utility.yul\":1340:1372   */\n      slt\n        /* \"#utility.yul\":1337:1389   */\n      iszero\n      tag_279\n      jumpi\n        /* \"#utility.yul\":1385:1386   */\n      0x00\n        /* \"#utility.yul\":1382:1383   */\n      dup1\n        /* \"#utility.yul\":1375:1387   */\n      revert\n        /* \"#utility.yul\":1337:1389   */\n    tag_279:\n      pop\n        /* \"#utility.yul\":1430:1453   */\n      calldataload\n      swap2\n        /* \"#utility.yul\":1257:1483   */\n      swap1\n      pop\n      jump\t// out\n        /* \"#utility.yul\":1488:1738   */\n    tag_253:\n        /* \"#utility.yul\":1573:1574   */\n      0x00\n        /* \"#utility.yul\":1583:1696   */\n    tag_281:\n        /* \"#utility.yul\":1597:1603   */\n      dup4\n        /* \"#utility.yul\":1594:1595   */\n      dup2\n        /* \"#utility.yul\":1591:1604   */\n      lt\n        /* \"#utility.yul\":1583:1696   */\n      iszero\n      tag_283\n      jumpi\n        /* \"#utility.yul\":1673:1684   */\n      dup2\n      dup2\n      add\n        /* \"#utility.yul\":1667:1685   */\n      mload\n        /* \"#utility.yul\":1654:1665   */\n      dup4\n      dup3\n      add\n        /* \"#utility.yul\":1647:1686   */\n      mstore\n        /* \"#utility.yul\":1619:1621   */\n      0x20\n        /* \"#utility.yul\":1612:1622   */\n      add\n        /* \"#utility.yul\":1583:1696   */\n      jump(tag_281)\n    tag_283:\n      pop\n      pop\n        /* \"#utility.yul\":1730:1731   */\n      0x00\n        /* \"#utility.yul\":1712:1728   */\n      swap2\n      add\n        /* \"#utility.yul\":1705:1732   */\n      mstore\n        /* \"#utility.yul\":1488:1738   */\n      jump\t// out\n        /* \"#utility.yul\":1743:2014   */\n    tag_254:\n        /* \"#utility.yul\":1785:1788   */\n      0x00\n        /* \"#utility.yul\":1823:1828   */\n      dup2\n        /* \"#utility.yul\":1817:1829   */\n      mload\n        /* \"#utility.yul\":1850:1856   */\n      dup1\n        /* \"#utility.yul\":1845:1848   */\n      dup5\n        /* \"#utility.yul\":1838:1857   */\n      mstore\n        /* \"#utility.yul\":1866:1942   */\n      tag_285\n        /* \"#utility.yul\":1935:1941   */\n      dup2\n        /* \"#utility.yul\":1928:1932   */\n      0x20\n        /* \"#utility.yul\":1923:1926   */\n      dup7\n        /* \"#utility.yul\":1919:1933   */\n      add\n        /* \"#utility.yul\":1912:1916   */\n      0x20\n        /* \"#utility.yul\":1905:1910   */\n      dup7\n        /* \"#utility.yul\":1901:1917   */\n      add\n        /* \"#utility.yul\":1866:1942   */\n      tag_253\n      jump\t// in\n    tag_285:\n        /* \"#utility.yul\":1996:1998   */\n      0x1f\n        /* \"#utility.yul\":1975:1990   */\n      add\n      not(0x1f)\n        /* \"#utility.yul\":1971:2000   */\n      and\n        /* \"#utility.yul\":1962:2001   */\n      swap3\n      swap1\n      swap3\n      add\n        /* \"#utility.yul\":2003:2007   */\n      0x20\n        /* \"#utility.yul\":1958:2008   */\n      add\n      swap3\n        /* \"#utility.yul\":1743:2014   */\n      swap2\n      pop\n      pop\n      jump\t// out\n        /* \"#utility.yul\":2019:2239   */\n    tag_32:\n        /* \"#utility.yul\":2168:2170   */\n      0x20\n        /* \"#utility.yul\":2157:2166   */\n      dup2\n        /* \"#utility.yul\":2150:2171   */\n      mstore\n        /* \"#utility.yul\":2131:2135   */\n      0x00\n        /* \"#utility.yul\":2188:2233   */\n      tag_83\n        /* \"#utility.yul\":2229:2231   */\n      0x20\n        /* \"#utility.yul\":2218:2227   */\n      dup4\n        /* \"#utility.yul\":2214:2232   */\n      add\n        /* \"#utility.yul\":2206:2212   */\n      dup5\n        /* \"#utility.yul\":2188:2233   */\n      tag_254\n      jump\t// in\n        /* \"#utility.yul\":2244:2739   */\n    tag_35:\n        /* \"#utility.yul\":2330:2336   */\n      0x00\n        /* \"#utility.yul\":2338:2344   */\n      dup1\n        /* \"#utility.yul\":2346:2352   */\n      0x00\n        /* \"#utility.yul\":2354:2360   */\n      dup1\n        /* \"#utility.yul\":2407:2410   */\n      0x80\n        /* \"#utility.yul\":2395:2404   */\n      dup6\n        /* \"#utility.yul\":2386:2393   */\n      dup8\n        /* \"#utility.yul\":2382:2405   */\n      sub\n        /* \"#utility.yul\":2378:2411   */\n      slt\n        /* \"#utility.yul\":2375:2428   */\n      iszero\n      tag_289\n      jumpi\n        /* \"#utility.yul\":2424:2425   */\n      0x00\n        /* \"#utility.yul\":2421:2422   */\n      dup1\n        /* \"#utility.yul\":2414:2426   */\n      revert\n        /* \"#utility.yul\":2375:2428   */\n    tag_289:\n        /* \"#utility.yul\":2447:2476   */\n      tag_290\n        /* \"#utility.yul\":2466:2475   */\n      dup6\n        /* \"#utility.yul\":2447:2476   */\n      tag_251\n      jump\t// in\n    tag_290:\n        /* \"#utility.yul\":2437:2476   */\n      swap4\n      pop\n        /* \"#utility.yul\":2495:2533   */\n      tag_291\n        /* \"#utility.yul\":2529:2531   */\n      0x20\n        /* \"#utility.yul\":2518:2527   */\n      dup7\n        /* \"#utility.yul\":2514:2532   */\n      add\n        /* \"#utility.yul\":2495:2533   */\n      tag_251\n      jump\t// in\n    tag_291:\n        /* \"#utility.yul\":2244:2739   */\n      swap4\n      swap7\n        /* \"#utility.yul\":2485:2533   */\n      swap4\n      swap6\n      pop\n      pop\n      pop\n      pop\n        /* \"#utility.yul\":2602:2604   */\n      0x40\n        /* \"#utility.yul\":2587:2605   */\n      dup3\n      add\n        /* \"#utility.yul\":2574:2606   */\n      calldataload\n      swap2\n        /* \"#utility.yul\":2703:2705   */\n      0x60\n        /* \"#utility.yul\":2688:2706   */\n      add\n        /* \"#utility.yul\":2675:2707   */\n      calldataload\n      swap1\n        /* \"#utility.yul\":2244:2739   */\n      jump\t// out\n        /* \"#utility.yul\":2744:2871   */\n    tag_104:\n        /* \"#utility.yul\":2805:2815   */\n      0x4e487b71\n        /* \"#utility.yul\":2800:2803   */\n      0xe0\n        /* \"#utility.yul\":2796:2816   */\n      shl\n        /* \"#utility.yul\":2793:2794   */\n      0x00\n        /* \"#utility.yul\":2786:2817   */\n      mstore\n        /* \"#utility.yul\":2836:2840   */\n      0x41\n        /* \"#utility.yul\":2833:2834   */\n      0x04\n        /* \"#utility.yul\":2826:2841   */\n      mstore\n        /* \"#utility.yul\":2860:2864   */\n      0x24\n        /* \"#utility.yul\":2857:2858   */\n      0x00\n        /* \"#utility.yul\":2850:2865   */\n      revert\n        /* \"#utility.yul\":2876:3151   */\n    tag_255:\n        /* \"#utility.yul\":2947:2949   */\n      0x40\n        /* \"#utility.yul\":2941:2950   */\n      mload\n        /* \"#utility.yul\":3012:3014   */\n      0x1f\n        /* \"#utility.yul\":2993:3006   */\n      dup3\n      add\n      not(0x1f)\n        /* \"#utility.yul\":2989:3016   */\n      and\n        /* \"#utility.yul\":2977:3017   */\n      dup2\n      add\n        /* \"#utility.yul\":3047:3065   */\n      0xffffffffffffffff\n        /* \"#utility.yul\":3032:3066   */\n      dup2\n      gt\n        /* \"#utility.yul\":3068:3090   */\n      dup3\n      dup3\n      lt\n        /* \"#utility.yul\":3029:3091   */\n      or\n        /* \"#utility.yul\":3026:3114   */\n      iszero\n      tag_295\n      jumpi\n        /* \"#utility.yul\":3094:3112   */\n      tag_295\n      tag_104\n      jump\t// in\n    tag_295:\n        /* \"#utility.yul\":3130:3132   */\n      0x40\n        /* \"#utility.yul\":3123:3145   */\n      mstore\n        /* \"#utility.yul\":2876:3151   */\n      swap2\n      swap1\n      pop\n      jump\t// out\n        /* \"#utility.yul\":3156:3339   */\n    tag_256:\n        /* \"#utility.yul\":3216:3220   */\n      0x00\n        /* \"#utility.yul\":3249:3267   */\n      0xffffffffffffffff\n        /* \"#utility.yul\":3241:3247   */\n      dup3\n        /* \"#utility.yul\":3238:3268   */\n      gt\n        /* \"#utility.yul\":3235:3291   */\n      iszero\n      tag_298\n      jumpi\n        /* \"#utility.yul\":3271:3289   */\n      tag_298\n      tag_104\n      jump\t// in\n    tag_298:\n      pop\n        /* \"#utility.yul\":3316:3317   */\n      0x05\n        /* \"#utility.yul\":3312:3326   */\n      shl\n        /* \"#utility.yul\":3328:3332   */\n      0x20\n        /* \"#utility.yul\":3308:3333   */\n      add\n      swap1\n        /* \"#utility.yul\":3156:3339   */\n      jump\t// out\n        /* \"#utility.yul\":3344:4067   */\n    tag_257:\n        /* \"#utility.yul\":3398:3403   */\n      0x00\n        /* \"#utility.yul\":3451:3454   */\n      dup3\n        /* \"#utility.yul\":3444:3448   */\n      0x1f\n        /* \"#utility.yul\":3436:3442   */\n      dup4\n        /* \"#utility.yul\":3432:3449   */\n      add\n        /* \"#utility.yul\":3428:3455   */\n      slt\n        /* \"#utility.yul\":3418:3473   */\n      tag_300\n      jumpi\n        /* \"#utility.yul\":3469:3470   */\n      0x00\n        /* \"#utility.yul\":3466:3467   */\n      dup1\n        /* \"#utility.yul\":3459:3471   */\n      revert\n        /* \"#utility.yul\":3418:3473   */\n    tag_300:\n        /* \"#utility.yul\":3509:3515   */\n      dup2\n        /* \"#utility.yul\":3496:3516   */\n      calldataload\n        /* \"#utility.yul\":3536:3600   */\n      tag_301\n        /* \"#utility.yul\":3552:3599   */\n      tag_302\n        /* \"#utility.yul\":3592:3598   */\n      dup3\n        /* \"#utility.yul\":3552:3599   */\n      tag_256\n      jump\t// in\n    tag_302:\n        /* \"#utility.yul\":3536:3600   */\n      tag_255\n      jump\t// in\n    tag_301:\n        /* \"#utility.yul\":3624:3627   */\n      dup1\n        /* \"#utility.yul\":3648:3654   */\n      dup3\n        /* \"#utility.yul\":3643:3646   */\n      dup3\n        /* \"#utility.yul\":3636:3655   */\n      mstore\n        /* \"#utility.yul\":3680:3684   */\n      0x20\n        /* \"#utility.yul\":3675:3678   */\n      dup3\n        /* \"#utility.yul\":3671:3685   */\n      add\n        /* \"#utility.yul\":3664:3685   */\n      swap2\n      pop\n        /* \"#utility.yul\":3741:3745   */\n      0x20\n        /* \"#utility.yul\":3731:3737   */\n      dup4\n        /* \"#utility.yul\":3728:3729   */\n      0x05\n        /* \"#utility.yul\":3724:3738   */\n      shl\n        /* \"#utility.yul\":3716:3722   */\n      dup7\n        /* \"#utility.yul\":3712:3739   */\n      add\n        /* \"#utility.yul\":3708:3746   */\n      add\n        /* \"#utility.yul\":3694:3746   */\n      swap3\n      pop\n        /* \"#utility.yul\":3769:3772   */\n      dup6\n        /* \"#utility.yul\":3761:3767   */\n      dup4\n        /* \"#utility.yul\":3758:3773   */\n      gt\n        /* \"#utility.yul\":3755:3790   */\n      iszero\n      tag_303\n      jumpi\n        /* \"#utility.yul\":3786:3787   */\n      0x00\n        /* \"#utility.yul\":3783:3784   */\n      dup1\n        /* \"#utility.yul\":3776:3788   */\n      revert\n        /* \"#utility.yul\":3755:3790   */\n    tag_303:\n        /* \"#utility.yul\":3822:3826   */\n      0x20\n        /* \"#utility.yul\":3814:3820   */\n      dup6\n        /* \"#utility.yul\":3810:3827   */\n      add\n        /* \"#utility.yul\":3836:4036   */\n    tag_304:\n        /* \"#utility.yul\":3852:3858   */\n      dup4\n        /* \"#utility.yul\":3847:3850   */\n      dup2\n        /* \"#utility.yul\":3844:3859   */\n      lt\n        /* \"#utility.yul\":3836:4036   */\n      iszero\n      tag_306\n      jumpi\n        /* \"#utility.yul\":3944:3961   */\n      dup1\n      calldataload\n        /* \"#utility.yul\":3974:3992   */\n      dup4\n      mstore\n        /* \"#utility.yul\":4021:4025   */\n      0x20\n        /* \"#utility.yul\":4012:4026   */\n      swap3\n      dup4\n      add\n      swap3\n        /* \"#utility.yul\":3869:3883   */\n      add\n        /* \"#utility.yul\":3836:4036   */\n      jump(tag_304)\n    tag_306:\n      pop\n        /* \"#utility.yul\":4054:4061   */\n      swap6\n        /* \"#utility.yul\":3344:4067   */\n      swap5\n      pop\n      pop\n      pop\n      pop\n      pop\n      jump\t// out\n        /* \"#utility.yul\":4072:4521   */\n    tag_258:\n        /* \"#utility.yul\":4136:4141   */\n      0x00\n        /* \"#utility.yul\":4168:4169   */\n      dup1\n        /* \"#utility.yul\":4192:4210   */\n      0xffffffffffffffff\n        /* \"#utility.yul\":4184:4190   */\n      dup5\n        /* \"#utility.yul\":4181:4211   */\n      gt\n        /* \"#utility.yul\":4178:4234   */\n      iszero\n      tag_309\n      jumpi\n        /* \"#utility.yul\":4214:4232   */\n      tag_309\n      tag_104\n      jump\t// in\n    tag_309:\n      pop\n        /* \"#utility.yul\":4280:4282   */\n      0x1f\n        /* \"#utility.yul\":4259:4274   */\n      dup4\n      add\n      not(0x1f)\n        /* \"#utility.yul\":4255:4284   */\n      and\n        /* \"#utility.yul\":4286:4290   */\n      0x20\n        /* \"#utility.yul\":4251:4291   */\n      add\n        /* \"#utility.yul\":4309:4330   */\n      tag_310\n        /* \"#utility.yul\":4251:4291   */\n      dup2\n        /* \"#utility.yul\":4309:4330   */\n      tag_255\n      jump\t// in\n    tag_310:\n        /* \"#utility.yul\":4300:4330   */\n      swap2\n      pop\n      pop\n        /* \"#utility.yul\":4353:4359   */\n      dup3\n        /* \"#utility.yul\":4346:4351   */\n      dup2\n        /* \"#utility.yul\":4339:4360   */\n      mstore\n        /* \"#utility.yul\":4393:4396   */\n      dup4\n        /* \"#utility.yul\":4384:4390   */\n      dup4\n        /* \"#utility.yul\":4379:4382   */\n      dup4\n        /* \"#utility.yul\":4375:4391   */\n      add\n        /* \"#utility.yul\":4372:4397   */\n      gt\n        /* \"#utility.yul\":4369:4414   */\n      iszero\n      tag_311\n      jumpi\n        /* \"#utility.yul\":4410:4411   */\n      0x00\n        /* \"#utility.yul\":4407:4408   */\n      dup1\n        /* \"#utility.yul\":4400:4412   */\n      revert\n        /* \"#utility.yul\":4369:4414   */\n    tag_311:\n        /* \"#utility.yul\":4459:4465   */\n      dup3\n        /* \"#utility.yul\":4454:4457   */\n      dup3\n        /* \"#utility.yul\":4447:4451   */\n      0x20\n        /* \"#utility.yul\":4440:4445   */\n      dup4\n        /* \"#utility.yul\":4436:4452   */\n      add\n        /* \"#utility.yul\":4423:4466   */\n      calldatacopy\n        /* \"#utility.yul\":4513:4514   */\n      0x00\n        /* \"#utility.yul\":4506:4510   */\n      0x20\n        /* \"#utility.yul\":4497:4503   */\n      dup5\n        /* \"#utility.yul\":4490:4495   */\n      dup4\n        /* \"#utility.yul\":4486:4504   */\n      add\n        /* \"#utility.yul\":4482:4511   */\n      add\n        /* \"#utility.yul\":4475:4515   */\n      mstore\n        /* \"#utility.yul\":4072:4521   */\n      swap4\n      swap3\n      pop\n      pop\n      pop\n      jump\t// out\n        /* \"#utility.yul\":4526:4746   */\n    tag_259:\n        /* \"#utility.yul\":4568:4573   */\n      0x00\n        /* \"#utility.yul\":4621:4624   */\n      dup3\n        /* \"#utility.yul\":4614:4618   */\n      0x1f\n        /* \"#utility.yul\":4606:4612   */\n      dup4\n        /* \"#utility.yul\":4602:4619   */\n      add\n        /* \"#utility.yul\":4598:4625   */\n      slt\n        /* \"#utility.yul\":4588:4643   */\n      tag_313\n      jumpi\n        /* \"#utility.yul\":4639:4640   */\n      0x00\n        /* \"#utility.yul\":4636:4637   */\n      dup1\n        /* \"#utility.yul\":4629:4641   */\n      revert\n        /* \"#utility.yul\":4588:4643   */\n    tag_313:\n        /* \"#utility.yul\":4661:4740   */\n      tag_83\n        /* \"#utility.yul\":4736:4739   */\n      dup4\n        /* \"#utility.yul\":4727:4733   */\n      dup4\n        /* \"#utility.yul\":4714:4734   */\n      calldataload\n        /* \"#utility.yul\":4707:4711   */\n      0x20\n        /* \"#utility.yul\":4699:4705   */\n      dup6\n        /* \"#utility.yul\":4695:4712   */\n      add\n        /* \"#utility.yul\":4661:4740   */\n      tag_258\n      jump\t// in\n        /* \"#utility.yul\":4751:5705   */\n    tag_42:\n        /* \"#utility.yul\":4905:4911   */\n      0x00\n        /* \"#utility.yul\":4913:4919   */\n      dup1\n        /* \"#utility.yul\":4921:4927   */\n      0x00\n        /* \"#utility.yul\":4929:4935   */\n      dup1\n        /* \"#utility.yul\":4937:4943   */\n      0x00\n        /* \"#utility.yul\":4990:4993   */\n      0xa0\n        /* \"#utility.yul\":4978:4987   */\n      dup7\n        /* \"#utility.yul\":4969:4976   */\n      dup9\n        /* \"#utility.yul\":4965:4988   */\n      sub\n        /* \"#utility.yul\":4961:4994   */\n      slt\n        /* \"#utility.yul\":4958:5011   */\n      iszero\n      tag_316\n      jumpi\n        /* \"#utility.yul\":5007:5008   */\n      0x00\n        /* \"#utility.yul\":5004:5005   */\n      dup1\n        /* \"#utility.yul\":4997:5009   */\n      revert\n        /* \"#utility.yul\":4958:5011   */\n    tag_316:\n        /* \"#utility.yul\":5030:5059   */\n      tag_317\n        /* \"#utility.yul\":5049:5058   */\n      dup7\n        /* \"#utility.yul\":5030:5059   */\n      tag_251\n      jump\t// in\n    tag_317:\n        /* \"#utility.yul\":5020:5059   */\n      swap5\n      pop\n        /* \"#utility.yul\":5078:5116   */\n      tag_318\n        /* \"#utility.yul\":5112:5114   */\n      0x20\n        /* \"#utility.yul\":5101:5110   */\n      dup8\n        /* \"#utility.yul\":5097:5115   */\n      add\n        /* \"#utility.yul\":5078:5116   */\n      tag_251\n      jump\t// in\n    tag_318:\n        /* \"#utility.yul\":5068:5116   */\n      swap4\n      pop\n        /* \"#utility.yul\":5167:5169   */\n      0x40\n        /* \"#utility.yul\":5156:5165   */\n      dup7\n        /* \"#utility.yul\":5152:5170   */\n      add\n        /* \"#utility.yul\":5139:5171   */\n      calldataload\n        /* \"#utility.yul\":5194:5212   */\n      0xffffffffffffffff\n        /* \"#utility.yul\":5186:5192   */\n      dup2\n        /* \"#utility.yul\":5183:5213   */\n      gt\n        /* \"#utility.yul\":5180:5230   */\n      iszero\n      tag_319\n      jumpi\n        /* \"#utility.yul\":5226:5227   */\n      0x00\n        /* \"#utility.yul\":5223:5224   */\n      dup1\n        /* \"#utility.yul\":5216:5228   */\n      revert\n        /* \"#utility.yul\":5180:5230   */\n    tag_319:\n        /* \"#utility.yul\":5249:5310   */\n      tag_320\n        /* \"#utility.yul\":5302:5309   */\n      dup9\n        /* \"#utility.yul\":5293:5299   */\n      dup3\n        /* \"#utility.yul\":5282:5291   */\n      dup10\n        /* \"#utility.yul\":5278:5300   */\n      add\n        /* \"#utility.yul\":5249:5310   */\n      tag_257\n      jump\t// in\n    tag_320:\n        /* \"#utility.yul\":5239:5310   */\n      swap4\n      pop\n      pop\n        /* \"#utility.yul\":5363:5365   */\n      0x60\n        /* \"#utility.yul\":5352:5361   */\n      dup7\n        /* \"#utility.yul\":5348:5366   */\n      add\n        /* \"#utility.yul\":5335:5367   */\n      calldataload\n        /* \"#utility.yul\":5392:5410   */\n      0xffffffffffffffff\n        /* \"#utility.yul\":5382:5390   */\n      dup2\n        /* \"#utility.yul\":5379:5411   */\n      gt\n        /* \"#utility.yul\":5376:5428   */\n      iszero\n      tag_321\n      jumpi\n        /* \"#utility.yul\":5424:5425   */\n      0x00\n        /* \"#utility.yul\":5421:5422   */\n      dup1\n        /* \"#utility.yul\":5414:5426   */\n      revert\n        /* \"#utility.yul\":5376:5428   */\n    tag_321:\n        /* \"#utility.yul\":5447:5510   */\n      tag_322\n        /* \"#utility.yul\":5502:5509   */\n      dup9\n        /* \"#utility.yul\":5491:5499   */\n      dup3\n        /* \"#utility.yul\":5480:5489   */\n      dup10\n        /* \"#utility.yul\":5476:5500   */\n      add\n        /* \"#utility.yul\":5447:5510   */\n      tag_257\n      jump\t// in\n    tag_322:\n        /* \"#utility.yul\":5437:5510   */\n      swap3\n      pop\n      pop\n        /* \"#utility.yul\":5563:5566   */\n      0x80\n        /* \"#utility.yul\":5552:5561   */\n      dup7\n        /* \"#utility.yul\":5548:5567   */\n      add\n        /* \"#utility.yul\":5535:5568   */\n      calldataload\n        /* \"#utility.yul\":5593:5611   */\n      0xffffffffffffffff\n        /* \"#utility.yul\":5583:5591   */\n      dup2\n        /* \"#utility.yul\":5580:5612   */\n      gt\n        /* \"#utility.yul\":5577:5629   */\n      iszero\n      tag_323\n      jumpi\n        /* \"#utility.yul\":5625:5626   */\n      0x00\n        /* \"#utility.yul\":5622:5623   */\n      dup1\n        /* \"#utility.yul\":5615:5627   */\n      revert\n        /* \"#utility.yul\":5577:5629   */\n    tag_323:\n        /* \"#utility.yul\":5648:5699   */\n      tag_324\n        /* \"#utility.yul\":5691:5698   */\n      dup9\n        /* \"#utility.yul\":5680:5688   */\n      dup3\n        /* \"#utility.yul\":5669:5678   */\n      dup10\n        /* \"#utility.yul\":5665:5689   */\n      add\n        /* \"#utility.yul\":5648:5699   */\n      tag_259\n      jump\t// in\n    tag_324:\n        /* \"#utility.yul\":5638:5699   */\n      swap2\n      pop\n      pop\n        /* \"#utility.yul\":4751:5705   */\n      swap3\n      swap6\n      pop\n      swap3\n      swap6\n      swap1\n      swap4\n      pop\n      jump\t// out\n        /* \"#utility.yul\":5710:6856   */\n    tag_46:\n        /* \"#utility.yul\":5828:5834   */\n      0x00\n        /* \"#utility.yul\":5836:5842   */\n      dup1\n        /* \"#utility.yul\":5889:5891   */\n      0x40\n        /* \"#utility.yul\":5877:5886   */\n      dup4\n        /* \"#utility.yul\":5868:5875   */\n      dup6\n        /* \"#utility.yul\":5864:5887   */\n      sub\n        /* \"#utility.yul\":5860:5892   */\n      slt\n        /* \"#utility.yul\":5857:5909   */\n      iszero\n      tag_326\n      jumpi\n        /* \"#utility.yul\":5905:5906   */\n      0x00\n        /* \"#utility.yul\":5902:5903   */\n      dup1\n        /* \"#utility.yul\":5895:5907   */\n      revert\n        /* \"#utility.yul\":5857:5909   */\n    tag_326:\n        /* \"#utility.yul\":5945:5954   */\n      dup3\n        /* \"#utility.yul\":5932:5955   */\n      calldataload\n        /* \"#utility.yul\":5978:5996   */\n      0xffffffffffffffff\n        /* \"#utility.yul\":5970:5976   */\n      dup2\n        /* \"#utility.yul\":5967:5997   */\n      gt\n        /* \"#utility.yul\":5964:6014   */\n      iszero\n      tag_327\n      jumpi\n        /* \"#utility.yul\":6010:6011   */\n      0x00\n        /* \"#utility.yul\":6007:6008   */\n      dup1\n        /* \"#utility.yul\":6000:6012   */\n      revert\n        /* \"#utility.yul\":5964:6014   */\n    tag_327:\n        /* \"#utility.yul\":6033:6055   */\n      dup4\n      add\n        /* \"#utility.yul\":6086:6090   */\n      0x1f\n        /* \"#utility.yul\":6078:6091   */\n      dup2\n      add\n        /* \"#utility.yul\":6074:6101   */\n      dup6\n      sgt\n        /* \"#utility.yul\":6064:6119   */\n      tag_328\n      jumpi\n        /* \"#utility.yul\":6115:6116   */\n      0x00\n        /* \"#utility.yul\":6112:6113   */\n      dup1\n        /* \"#utility.yul\":6105:6117   */\n      revert\n        /* \"#utility.yul\":6064:6119   */\n    tag_328:\n        /* \"#utility.yul\":6155:6157   */\n      dup1\n        /* \"#utility.yul\":6142:6158   */\n      calldataload\n        /* \"#utility.yul\":6178:6242   */\n      tag_329\n        /* \"#utility.yul\":6194:6241   */\n      tag_302\n        /* \"#utility.yul\":6234:6240   */\n      dup3\n        /* \"#utility.yul\":6194:6241   */\n      tag_256\n      jump\t// in\n        /* \"#utility.yul\":6178:6242   */\n    tag_329:\n        /* \"#utility.yul\":6264:6267   */\n      dup1\n        /* \"#utility.yul\":6288:6294   */\n      dup3\n        /* \"#utility.yul\":6283:6286   */\n      dup3\n        /* \"#utility.yul\":6276:6295   */\n      mstore\n        /* \"#utility.yul\":6320:6324   */\n      0x20\n        /* \"#utility.yul\":6315:6318   */\n      dup3\n        /* \"#utility.yul\":6311:6325   */\n      add\n        /* \"#utility.yul\":6304:6325   */\n      swap2\n      pop\n        /* \"#utility.yul\":6377:6381   */\n      0x20\n        /* \"#utility.yul\":6367:6373   */\n      dup4\n        /* \"#utility.yul\":6364:6365   */\n      0x05\n        /* \"#utility.yul\":6360:6374   */\n      shl\n        /* \"#utility.yul\":6356:6358   */\n      dup6\n        /* \"#utility.yul\":6352:6375   */\n      add\n        /* \"#utility.yul\":6348:6382   */\n      add\n        /* \"#utility.yul\":6334:6382   */\n      swap3\n      pop\n        /* \"#utility.yul\":6405:6412   */\n      dup8\n        /* \"#utility.yul\":6397:6403   */\n      dup4\n        /* \"#utility.yul\":6394:6413   */\n      gt\n        /* \"#utility.yul\":6391:6430   */\n      iszero\n      tag_331\n      jumpi\n        /* \"#utility.yul\":6426:6427   */\n      0x00\n        /* \"#utility.yul\":6423:6424   */\n      dup1\n        /* \"#utility.yul\":6416:6428   */\n      revert\n        /* \"#utility.yul\":6391:6430   */\n    tag_331:\n        /* \"#utility.yul\":6458:6462   */\n      0x20\n        /* \"#utility.yul\":6454:6456   */\n      dup5\n        /* \"#utility.yul\":6450:6463   */\n      add\n        /* \"#utility.yul\":6439:6463   */\n      swap4\n      pop\n        /* \"#utility.yul\":6472:6624   */\n    tag_332:\n        /* \"#utility.yul\":6488:6494   */\n      dup3\n        /* \"#utility.yul\":6483:6486   */\n      dup5\n        /* \"#utility.yul\":6480:6495   */\n      lt\n        /* \"#utility.yul\":6472:6624   */\n      iszero\n      tag_334\n      jumpi\n        /* \"#utility.yul\":6556:6579   */\n      tag_335\n        /* \"#utility.yul\":6575:6578   */\n      dup5\n        /* \"#utility.yul\":6556:6579   */\n      tag_251\n      jump\t// in\n    tag_335:\n        /* \"#utility.yul\":6544:6580   */\n      dup3\n      mstore\n        /* \"#utility.yul\":6609:6613   */\n      0x20\n        /* \"#utility.yul\":6505:6519   */\n      swap4\n      dup5\n      add\n      swap4\n        /* \"#utility.yul\":6600:6614   */\n      swap1\n      swap2\n      add\n      swap1\n        /* \"#utility.yul\":6472:6624   */\n      jump(tag_332)\n    tag_334:\n        /* \"#utility.yul\":6643:6648   */\n      swap5\n      pop\n      pop\n      pop\n      pop\n        /* \"#utility.yul\":6701:6705   */\n      0x20\n        /* \"#utility.yul\":6686:6706   */\n      dup4\n      add\n        /* \"#utility.yul\":6673:6707   */\n      calldataload\n        /* \"#utility.yul\":6732:6750   */\n      0xffffffffffffffff\n        /* \"#utility.yul\":6719:6751   */\n      dup2\n      gt\n        /* \"#utility.yul\":6716:6768   */\n      iszero\n      tag_336\n      jumpi\n        /* \"#utility.yul\":6764:6765   */\n      0x00\n        /* \"#utility.yul\":6761:6762   */\n      dup1\n        /* \"#utility.yul\":6754:6766   */\n      revert\n        /* \"#utility.yul\":6716:6768   */\n    tag_336:\n        /* \"#utility.yul\":6787:6850   */\n      tag_337\n        /* \"#utility.yul\":6842:6849   */\n      dup6\n        /* \"#utility.yul\":6831:6839   */\n      dup3\n        /* \"#utility.yul\":6820:6829   */\n      dup7\n        /* \"#utility.yul\":6816:6840   */\n      add\n        /* \"#utility.yul\":6787:6850   */\n      tag_257\n      jump\t// in\n    tag_337:\n        /* \"#utility.yul\":6777:6850   */\n      swap2\n      pop\n      pop\n        /* \"#utility.yul\":5710:6856   */\n      swap3\n      pop\n      swap3\n      swap1\n      pop\n      jump\t// out\n        /* \"#utility.yul\":6861:7281   */\n    tag_260:\n        /* \"#utility.yul\":6914:6917   */\n      0x00\n        /* \"#utility.yul\":6952:6957   */\n      dup2\n        /* \"#utility.yul\":6946:6958   */\n      mload\n        /* \"#utility.yul\":6979:6985   */\n      dup1\n        /* \"#utility.yul\":6974:6977   */\n      dup5\n        /* \"#utility.yul\":6967:6986   */\n      mstore\n        /* \"#utility.yul\":7011:7015   */\n      0x20\n        /* \"#utility.yul\":7006:7009   */\n      dup5\n        /* \"#utility.yul\":7002:7016   */\n      add\n        /* \"#utility.yul\":6995:7016   */\n      swap4\n      pop\n        /* \"#utility.yul\":7050:7054   */\n      0x20\n        /* \"#utility.yul\":7043:7048   */\n      dup4\n        /* \"#utility.yul\":7039:7055   */\n      add\n        /* \"#utility.yul\":7073:7074   */\n      0x00\n        /* \"#utility.yul\":7083:7256   */\n    tag_339:\n        /* \"#utility.yul\":7097:7103   */\n      dup3\n        /* \"#utility.yul\":7094:7095   */\n      dup2\n        /* \"#utility.yul\":7091:7104   */\n      lt\n        /* \"#utility.yul\":7083:7256   */\n      iszero\n      tag_341\n      jumpi\n        /* \"#utility.yul\":7158:7171   */\n      dup2\n      mload\n        /* \"#utility.yul\":7146:7172   */\n      dup7\n      mstore\n        /* \"#utility.yul\":7201:7205   */\n      0x20\n        /* \"#utility.yul\":7192:7206   */\n      swap6\n      dup7\n      add\n      swap6\n        /* \"#utility.yul\":7229:7246   */\n      swap1\n      swap2\n      add\n      swap1\n        /* \"#utility.yul\":7119:7120   */\n      0x01\n        /* \"#utility.yul\":7112:7121   */\n      add\n        /* \"#utility.yul\":7083:7256   */\n      jump(tag_339)\n    tag_341:\n      pop\n        /* \"#utility.yul\":7272:7275   */\n      swap4\n      swap5\n        /* \"#utility.yul\":6861:7281   */\n      swap4\n      pop\n      pop\n      pop\n      pop\n      jump\t// out\n        /* \"#utility.yul\":7286:7547   */\n    tag_49:\n        /* \"#utility.yul\":7465:7467   */\n      0x20\n        /* \"#utility.yul\":7454:7463   */\n      dup2\n        /* \"#utility.yul\":7447:7468   */\n      mstore\n        /* \"#utility.yul\":7428:7432   */\n      0x00\n        /* \"#utility.yul\":7485:7541   */\n      tag_83\n        /* \"#utility.yul\":7537:7539   */\n      0x20\n        /* \"#utility.yul\":7526:7535   */\n      dup4\n        /* \"#utility.yul\":7522:7540   */\n      add\n        /* \"#utility.yul\":7514:7520   */\n      dup5\n        /* \"#utility.yul\":7485:7541   */\n      tag_260\n      jump\t// in\n        /* \"#utility.yul\":7552:7899   */\n    tag_52:\n        /* \"#utility.yul\":7617:7623   */\n      0x00\n        /* \"#utility.yul\":7625:7631   */\n      dup1\n        /* \"#utility.yul\":7678:7680   */\n      0x40\n        /* \"#utility.yul\":7666:7675   */\n      dup4\n        /* \"#utility.yul\":7657:7664   */\n      dup6\n        /* \"#utility.yul\":7653:7676   */\n      sub\n        /* \"#utility.yul\":7649:7681   */\n      slt\n        /* \"#utility.yul\":7646:7698   */\n      iszero\n      tag_345\n      jumpi\n        /* \"#utility.yul\":7694:7695   */\n      0x00\n        /* \"#utility.yul\":7691:7692   */\n      dup1\n        /* \"#utility.yul\":7684:7696   */\n      revert\n        /* \"#utility.yul\":7646:7698   */\n    tag_345:\n        /* \"#utility.yul\":7717:7746   */\n      tag_346\n        /* \"#utility.yul\":7736:7745   */\n      dup4\n        /* \"#utility.yul\":7717:7746   */\n      tag_251\n      jump\t// in\n    tag_346:\n        /* \"#utility.yul\":7707:7746   */\n      swap2\n      pop\n        /* \"#utility.yul\":7796:7798   */\n      0x20\n        /* \"#utility.yul\":7785:7794   */\n      dup4\n        /* \"#utility.yul\":7781:7799   */\n      add\n        /* \"#utility.yul\":7768:7800   */\n      calldataload\n        /* \"#utility.yul\":7843:7848   */\n      dup1\n        /* \"#utility.yul\":7836:7849   */\n      iszero\n        /* \"#utility.yul\":7829:7850   */\n      iszero\n        /* \"#utility.yul\":7822:7827   */\n      dup2\n        /* \"#utility.yul\":7819:7851   */\n      eq\n        /* \"#utility.yul\":7809:7869   */\n      tag_347\n      jumpi\n        /* \"#utility.yul\":7865:7866   */\n      0x00\n        /* \"#utility.yul\":7862:7863   */\n      dup1\n        /* \"#utility.yul\":7855:7867   */\n      revert\n        /* \"#utility.yul\":7809:7869   */\n    tag_347:\n        /* \"#utility.yul\":7888:7893   */\n      dup1\n        /* \"#utility.yul\":7878:7893   */\n      swap2\n      pop\n      pop\n        /* \"#utility.yul\":7552:7899   */\n      swap3\n      pop\n      swap3\n      swap1\n      pop\n      jump\t// out\n        /* \"#utility.yul\":7904:8542   */\n    tag_56:\n        /* \"#utility.yul\":7991:7997   */\n      0x00\n        /* \"#utility.yul\":7999:8005   */\n      dup1\n        /* \"#utility.yul\":8007:8013   */\n      0x00\n        /* \"#utility.yul\":8060:8062   */\n      0x60\n        /* \"#utility.yul\":8048:8057   */\n      dup5\n        /* \"#utility.yul\":8039:8046   */\n      dup7\n        /* \"#utility.yul\":8035:8058   */\n      sub\n        /* \"#utility.yul\":8031:8063   */\n      slt\n        /* \"#utility.yul\":8028:8080   */\n      iszero\n      tag_349\n      jumpi\n        /* \"#utility.yul\":8076:8077   */\n      0x00\n        /* \"#utility.yul\":8073:8074   */\n      dup1\n        /* \"#utility.yul\":8066:8078   */\n      revert\n        /* \"#utility.yul\":8028:8080   */\n    tag_349:\n        /* \"#utility.yul\":8099:8128   */\n      tag_350\n        /* \"#utility.yul\":8118:8127   */\n      dup5\n        /* \"#utility.yul\":8099:8128   */\n      tag_251\n      jump\t// in\n    tag_350:\n        /* \"#utility.yul\":8089:8128   */\n      swap3\n      pop\n        /* \"#utility.yul\":8197:8199   */\n      0x20\n        /* \"#utility.yul\":8182:8200   */\n      dup5\n      add\n        /* \"#utility.yul\":8169:8201   */\n      calldataload\n      swap2\n      pop\n        /* \"#utility.yul\":8276:8278   */\n      0x40\n        /* \"#utility.yul\":8261:8279   */\n      dup5\n      add\n        /* \"#utility.yul\":8248:8280   */\n      calldataload\n        /* \"#utility.yul\":8303:8321   */\n      0xffffffffffffffff\n        /* \"#utility.yul\":8292:8322   */\n      dup2\n      gt\n        /* \"#utility.yul\":8289:8339   */\n      iszero\n      tag_351\n      jumpi\n        /* \"#utility.yul\":8335:8336   */\n      0x00\n        /* \"#utility.yul\":8332:8333   */\n      dup1\n        /* \"#utility.yul\":8325:8337   */\n      revert\n        /* \"#utility.yul\":8289:8339   */\n    tag_351:\n        /* \"#utility.yul\":8358:8380   */\n      dup5\n      add\n        /* \"#utility.yul\":8411:8415   */\n      0x1f\n        /* \"#utility.yul\":8403:8416   */\n      dup2\n      add\n        /* \"#utility.yul\":8399:8426   */\n      dup7\n      sgt\n        /* \"#utility.yul\":8389:8444   */\n      tag_352\n      jumpi\n        /* \"#utility.yul\":8440:8441   */\n      0x00\n        /* \"#utility.yul\":8437:8438   */\n      dup1\n        /* \"#utility.yul\":8430:8442   */\n      revert\n        /* \"#utility.yul\":8389:8444   */\n    tag_352:\n        /* \"#utility.yul\":8463:8536   */\n      tag_353\n        /* \"#utility.yul\":8528:8535   */\n      dup7\n        /* \"#utility.yul\":8523:8525   */\n      dup3\n        /* \"#utility.yul\":8510:8526   */\n      calldataload\n        /* \"#utility.yul\":8505:8507   */\n      0x20\n        /* \"#utility.yul\":8501:8503   */\n      dup5\n        /* \"#utility.yul\":8497:8508   */\n      add\n        /* \"#utility.yul\":8463:8536   */\n      tag_258\n      jump\t// in\n    tag_353:\n        /* \"#utility.yul\":8453:8536   */\n      swap2\n      pop\n      pop\n        /* \"#utility.yul\":7904:8542   */\n      swap3\n      pop\n      swap3\n      pop\n      swap3\n      jump\t// out\n        /* \"#utility.yul\":8547:8807   */\n    tag_60:\n        /* \"#utility.yul\":8615:8621   */\n      0x00\n        /* \"#utility.yul\":8623:8629   */\n      dup1\n        /* \"#utility.yul\":8676:8678   */\n      0x40\n        /* \"#utility.yul\":8664:8673   */\n      dup4\n        /* \"#utility.yul\":8655:8662   */\n      dup6\n        /* \"#utility.yul\":8651:8674   */\n      sub\n        /* \"#utility.yul\":8647:8679   */\n      slt\n        /* \"#utility.yul\":8644:8696   */\n      iszero\n      tag_355\n      jumpi\n        /* \"#utility.yul\":8692:8693   */\n      0x00\n        /* \"#utility.yul\":8689:8690   */\n      dup1\n        /* \"#utility.yul\":8682:8694   */\n      revert\n        /* \"#utility.yul\":8644:8696   */\n    tag_355:\n        /* \"#utility.yul\":8715:8744   */\n      tag_356\n        /* \"#utility.yul\":8734:8743   */\n      dup4\n        /* \"#utility.yul\":8715:8744   */\n      tag_251\n      jump\t// in\n    tag_356:\n        /* \"#utility.yul\":8705:8744   */\n      swap2\n      pop\n        /* \"#utility.yul\":8763:8801   */\n      tag_357\n        /* \"#utility.yul\":8797:8799   */\n      0x20\n        /* \"#utility.yul\":8786:8795   */\n      dup5\n        /* \"#utility.yul\":8782:8800   */\n      add\n        /* \"#utility.yul\":8763:8801   */\n      tag_251\n      jump\t// in\n    tag_357:\n        /* \"#utility.yul\":8753:8801   */\n      swap1\n      pop\n        /* \"#utility.yul\":8547:8807   */\n      swap3\n      pop\n      swap3\n      swap1\n      pop\n      jump\t// out\n        /* \"#utility.yul\":8812:9516   */\n    tag_65:\n        /* \"#utility.yul\":8916:8922   */\n      0x00\n        /* \"#utility.yul\":8924:8930   */\n      dup1\n        /* \"#utility.yul\":8932:8938   */\n      0x00\n        /* \"#utility.yul\":8940:8946   */\n      dup1\n        /* \"#utility.yul\":8948:8954   */\n      0x00\n        /* \"#utility.yul\":9001:9004   */\n      0xa0\n        /* \"#utility.yul\":8989:8998   */\n      dup7\n        /* \"#utility.yul\":8980:8987   */\n      dup9\n        /* \"#utility.yul\":8976:8999   */\n      sub\n        /* \"#utility.yul\":8972:9005   */\n      slt\n        /* \"#utility.yul\":8969:9022   */\n      iszero\n      tag_359\n      jumpi\n        /* \"#utility.yul\":9018:9019   */\n      0x00\n        /* \"#utility.yul\":9015:9016   */\n      dup1\n        /* \"#utility.yul\":9008:9020   */\n      revert\n        /* \"#utility.yul\":8969:9022   */\n    tag_359:\n        /* \"#utility.yul\":9041:9070   */\n      tag_360\n        /* \"#utility.yul\":9060:9069   */\n      dup7\n        /* \"#utility.yul\":9041:9070   */\n      tag_251\n      jump\t// in\n    tag_360:\n        /* \"#utility.yul\":9031:9070   */\n      swap5\n      pop\n        /* \"#utility.yul\":9089:9127   */\n      tag_361\n        /* \"#utility.yul\":9123:9125   */\n      0x20\n        /* \"#utility.yul\":9112:9121   */\n      dup8\n        /* \"#utility.yul\":9108:9126   */\n      add\n        /* \"#utility.yul\":9089:9127   */\n      tag_251\n      jump\t// in\n    tag_361:\n        /* \"#utility.yul\":9079:9127   */\n      swap4\n      pop\n        /* \"#utility.yul\":9196:9198   */\n      0x40\n        /* \"#utility.yul\":9181:9199   */\n      dup7\n      add\n        /* \"#utility.yul\":9168:9200   */\n      calldataload\n      swap3\n      pop\n        /* \"#utility.yul\":9297:9299   */\n      0x60\n        /* \"#utility.yul\":9282:9300   */\n      dup7\n      add\n        /* \"#utility.yul\":9269:9301   */\n      calldataload\n      swap2\n      pop\n        /* \"#utility.yul\":9378:9381   */\n      0x80\n        /* \"#utility.yul\":9363:9382   */\n      dup7\n      add\n        /* \"#utility.yul\":9350:9383   */\n      calldataload\n        /* \"#utility.yul\":9406:9424   */\n      0xffffffffffffffff\n        /* \"#utility.yul\":9395:9425   */\n      dup2\n      gt\n        /* \"#utility.yul\":9392:9442   */\n      iszero\n      tag_323\n      jumpi\n        /* \"#utility.yul\":9438:9439   */\n      0x00\n        /* \"#utility.yul\":9435:9436   */\n      dup1\n        /* \"#utility.yul\":9428:9440   */\n      revert\n        /* \"#utility.yul\":9521:9901   */\n    tag_75:\n        /* \"#utility.yul\":9600:9601   */\n      0x01\n        /* \"#utility.yul\":9596:9608   */\n      dup2\n      dup2\n      shr\n      swap1\n        /* \"#utility.yul\":9643:9655   */\n      dup3\n      and\n      dup1\n        /* \"#utility.yul\":9664:9725   */\n      tag_365\n      jumpi\n        /* \"#utility.yul\":9718:9722   */\n      0x7f\n        /* \"#utility.yul\":9710:9716   */\n      dup3\n        /* \"#utility.yul\":9706:9723   */\n      and\n        /* \"#utility.yul\":9696:9723   */\n      swap2\n      pop\n        /* \"#utility.yul\":9664:9725   */\n    tag_365:\n        /* \"#utility.yul\":9771:9773   */\n      0x20\n        /* \"#utility.yul\":9763:9769   */\n      dup3\n        /* \"#utility.yul\":9760:9774   */\n      lt\n        /* \"#utility.yul\":9740:9758   */\n      dup2\n        /* \"#utility.yul\":9737:9775   */\n      sub\n        /* \"#utility.yul\":9734:9895   */\n      tag_366\n      jumpi\n        /* \"#utility.yul\":9817:9827   */\n      0x4e487b71\n        /* \"#utility.yul\":9812:9815   */\n      0xe0\n        /* \"#utility.yul\":9808:9828   */\n      shl\n        /* \"#utility.yul\":9805:9806   */\n      0x00\n        /* \"#utility.yul\":9798:9829   */\n      mstore\n        /* \"#utility.yul\":9852:9856   */\n      0x22\n        /* \"#utility.yul\":9849:9850   */\n      0x04\n        /* \"#utility.yul\":9842:9857   */\n      mstore\n        /* \"#utility.yul\":9880:9884   */\n      0x24\n        /* \"#utility.yul\":9877:9878   */\n      0x00\n        /* \"#utility.yul\":9870:9885   */\n      revert\n        /* \"#utility.yul\":9734:9895   */\n    tag_366:\n      pop\n        /* \"#utility.yul\":9521:9901   */\n      swap2\n      swap1\n      pop\n      jump\t// out\n        /* \"#utility.yul\":10032:11007   */\n    tag_85:\n        /* \"#utility.yul\":10208:10211   */\n      0x00\n        /* \"#utility.yul\":10237:10238   */\n      dup1\n        /* \"#utility.yul\":10270:10276   */\n      dup5\n        /* \"#utility.yul\":10264:10277   */\n      sload\n        /* \"#utility.yul\":10300:10336   */\n      tag_369\n        /* \"#utility.yul\":10326:10335   */\n      dup2\n        /* \"#utility.yul\":10300:10336   */\n      tag_75\n      jump\t// in\n    tag_369:\n        /* \"#utility.yul\":10367:10368   */\n      0x01\n        /* \"#utility.yul\":10352:10369   */\n      dup3\n      and\n        /* \"#utility.yul\":10378:10511   */\n      dup1\n      iszero\n      tag_371\n      jumpi\n        /* \"#utility.yul\":10525:10526   */\n      0x01\n        /* \"#utility.yul\":10520:10852   */\n      dup2\n      eq\n      tag_372\n      jumpi\n        /* \"#utility.yul\":10345:10852   */\n      jump(tag_370)\n        /* \"#utility.yul\":10378:10511   */\n    tag_371:\n      not(0xff)\n        /* \"#utility.yul\":10411:10435   */\n      dup4\n      and\n        /* \"#utility.yul\":10399:10436   */\n      dup7\n      mstore\n        /* \"#utility.yul\":10484:10498   */\n      dup2\n      iszero\n        /* \"#utility.yul\":10477:10499   */\n      iszero\n        /* \"#utility.yul\":10465:10500   */\n      dup3\n      mul\n        /* \"#utility.yul\":10456:10501   */\n      dup7\n      add\n      swap4\n      pop\n        /* \"#utility.yul\":10378:10511   */\n      jump(tag_370)\n        /* \"#utility.yul\":10520:10852   */\n    tag_372:\n        /* \"#utility.yul\":10551:10557   */\n      dup8\n        /* \"#utility.yul\":10548:10549   */\n      0x00\n        /* \"#utility.yul\":10541:10558   */\n      mstore\n        /* \"#utility.yul\":10599:10603   */\n      0x20\n        /* \"#utility.yul\":10596:10597   */\n      0x00\n        /* \"#utility.yul\":10586:10604   */\n      keccak256\n        /* \"#utility.yul\":10626:10627   */\n      0x00\n        /* \"#utility.yul\":10640:10806   */\n    tag_373:\n        /* \"#utility.yul\":10654:10660   */\n      dup4\n        /* \"#utility.yul\":10651:10652   */\n      dup2\n        /* \"#utility.yul\":10648:10661   */\n      lt\n        /* \"#utility.yul\":10640:10806   */\n      iszero\n      tag_375\n      jumpi\n        /* \"#utility.yul\":10734:10748   */\n      dup2\n      sload\n        /* \"#utility.yul\":10721:10732   */\n      dup9\n      dup3\n      add\n        /* \"#utility.yul\":10714:10749   */\n      mstore\n        /* \"#utility.yul\":10790:10791   */\n      0x01\n        /* \"#utility.yul\":10777:10792   */\n      swap1\n      swap2\n      add\n      swap1\n        /* \"#utility.yul\":10676:10680   */\n      0x20\n        /* \"#utility.yul\":10669:10681   */\n      add\n        /* \"#utility.yul\":10640:10806   */\n      jump(tag_373)\n    tag_375:\n        /* \"#utility.yul\":10644:10647   */\n      pop\n      pop\n        /* \"#utility.yul\":10835:10841   */\n      dup2\n        /* \"#utility.yul\":10830:10833   */\n      dup7\n        /* \"#utility.yul\":10826:10842   */\n      add\n        /* \"#utility.yul\":10819:10842   */\n      swap4\n      pop\n        /* \"#utility.yul\":10345:10852   */\n    tag_370:\n      pop\n      pop\n      pop\n        /* \"#utility.yul\":10883:10889   */\n      dup4\n        /* \"#utility.yul\":10877:10890   */\n      mload\n        /* \"#utility.yul\":10899:10967   */\n      tag_376\n        /* \"#utility.yul\":10958:10966   */\n      dup2\n        /* \"#utility.yul\":10953:10956   */\n      dup4\n        /* \"#utility.yul\":10946:10950   */\n      0x20\n        /* \"#utility.yul\":10938:10944   */\n      dup9\n        /* \"#utility.yul\":10934:10951   */\n      add\n        /* \"#utility.yul\":10899:10967   */\n      tag_253\n      jump\t// in\n    tag_376:\n        /* \"#utility.yul\":10983:11001   */\n      add\n      swap5\n        /* \"#utility.yul\":10032:11007   */\n      swap4\n      pop\n      pop\n      pop\n      pop\n      jump\t// out\n        /* \"#utility.yul\":11570:11697   */\n    tag_116:\n        /* \"#utility.yul\":11631:11641   */\n      0x4e487b71\n        /* \"#utility.yul\":11626:11629   */\n      0xe0\n        /* \"#utility.yul\":11622:11642   */\n      shl\n        /* \"#utility.yul\":11619:11620   */\n      0x00\n        /* \"#utility.yul\":11612:11643   */\n      mstore\n        /* \"#utility.yul\":11662:11666   */\n      0x32\n        /* \"#utility.yul\":11659:11660   */\n      0x04\n        /* \"#utility.yul\":11652:11667   */\n      mstore\n        /* \"#utility.yul\":11686:11690   */\n      0x24\n        /* \"#utility.yul\":11683:11684   */\n      0x00\n        /* \"#utility.yul\":11676:11691   */\n      revert\n        /* \"#utility.yul\":11702:11829   */\n    tag_262:\n        /* \"#utility.yul\":11763:11773   */\n      0x4e487b71\n        /* \"#utility.yul\":11758:11761   */\n      0xe0\n        /* \"#utility.yul\":11754:11774   */\n      shl\n        /* \"#utility.yul\":11751:11752   */\n      0x00\n        /* \"#utility.yul\":11744:11775   */\n      mstore\n        /* \"#utility.yul\":11794:11798   */\n      0x11\n        /* \"#utility.yul\":11791:11792   */\n      0x04\n        /* \"#utility.yul\":11784:11799   */\n      mstore\n        /* \"#utility.yul\":11818:11822   */\n      0x24\n        /* \"#utility.yul\":11815:11816   */\n      0x00\n        /* \"#utility.yul\":11808:11823   */\n      revert\n        /* \"#utility.yul\":11834:11969   */\n    tag_127:\n        /* \"#utility.yul\":11873:11876   */\n      0x00\n        /* \"#utility.yul\":11894:11911   */\n      0x01\n      dup3\n      add\n        /* \"#utility.yul\":11891:11934   */\n      tag_383\n      jumpi\n        /* \"#utility.yul\":11914:11932   */\n      tag_383\n      tag_262\n      jump\t// in\n    tag_383:\n      pop\n        /* \"#utility.yul\":11961:11962   */\n      0x01\n        /* \"#utility.yul\":11950:11963   */\n      add\n      swap1\n        /* \"#utility.yul\":11834:11969   */\n      jump\t// out\n        /* \"#utility.yul\":12182:12700   */\n    tag_263:\n        /* \"#utility.yul\":12284:12286   */\n      0x1f\n        /* \"#utility.yul\":12279:12282   */\n      dup3\n        /* \"#utility.yul\":12276:12287   */\n      gt\n        /* \"#utility.yul\":12273:12694   */\n      iszero\n      tag_386\n      jumpi\n        /* \"#utility.yul\":12320:12325   */\n      dup1\n        /* \"#utility.yul\":12317:12318   */\n      0x00\n        /* \"#utility.yul\":12310:12326   */\n      mstore\n        /* \"#utility.yul\":12364:12368   */\n      0x20\n        /* \"#utility.yul\":12361:12362   */\n      0x00\n        /* \"#utility.yul\":12351:12369   */\n      keccak256\n        /* \"#utility.yul\":12434:12436   */\n      0x1f\n        /* \"#utility.yul\":12422:12432   */\n      dup5\n        /* \"#utility.yul\":12418:12437   */\n      add\n        /* \"#utility.yul\":12415:12416   */\n      0x05\n        /* \"#utility.yul\":12411:12438   */\n      shr\n        /* \"#utility.yul\":12405:12409   */\n      dup2\n        /* \"#utility.yul\":12401:12439   */\n      add\n        /* \"#utility.yul\":12470:12474   */\n      0x20\n        /* \"#utility.yul\":12458:12468   */\n      dup6\n        /* \"#utility.yul\":12455:12475   */\n      lt\n        /* \"#utility.yul\":12452:12499   */\n      iszero\n      tag_387\n      jumpi\n      pop\n        /* \"#utility.yul\":12493:12497   */\n      dup1\n        /* \"#utility.yul\":12452:12499   */\n    tag_387:\n        /* \"#utility.yul\":12548:12550   */\n      0x1f\n        /* \"#utility.yul\":12543:12546   */\n      dup5\n        /* \"#utility.yul\":12539:12551   */\n      add\n        /* \"#utility.yul\":12536:12537   */\n      0x05\n        /* \"#utility.yul\":12532:12552   */\n      shr\n        /* \"#utility.yul\":12526:12530   */\n      dup3\n        /* \"#utility.yul\":12522:12553   */\n      add\n        /* \"#utility.yul\":12512:12553   */\n      swap2\n      pop\n        /* \"#utility.yul\":12603:12684   */\n    tag_388:\n        /* \"#utility.yul\":12621:12623   */\n      dup2\n        /* \"#utility.yul\":12614:12619   */\n      dup2\n        /* \"#utility.yul\":12611:12624   */\n      lt\n        /* \"#utility.yul\":12603:12684   */\n      iszero\n      tag_151\n      jumpi\n        /* \"#utility.yul\":12680:12681   */\n      0x00\n        /* \"#utility.yul\":12666:12682   */\n      dup2\n      sstore\n        /* \"#utility.yul\":12647:12648   */\n      0x01\n        /* \"#utility.yul\":12636:12649   */\n      add\n        /* \"#utility.yul\":12603:12684   */\n      jump(tag_388)\n        /* \"#utility.yul\":12273:12694   */\n    tag_386:\n        /* \"#utility.yul\":12182:12700   */\n      pop\n      pop\n      pop\n      jump\t// out\n        /* \"#utility.yul\":12876:14175   */\n    tag_167:\n        /* \"#utility.yul\":13002:13005   */\n      dup2\n        /* \"#utility.yul\":12996:13006   */\n      mload\n        /* \"#utility.yul\":13029:13047   */\n      0xffffffffffffffff\n        /* \"#utility.yul\":13021:13027   */\n      dup2\n        /* \"#utility.yul\":13018:13048   */\n      gt\n        /* \"#utility.yul\":13015:13071   */\n      iszero\n      tag_394\n      jumpi\n        /* \"#utility.yul\":13051:13069   */\n      tag_394\n      tag_104\n      jump\t// in\n    tag_394:\n        /* \"#utility.yul\":13080:13177   */\n      tag_395\n        /* \"#utility.yul\":13170:13176   */\n      dup2\n        /* \"#utility.yul\":13130:13168   */\n      tag_396\n        /* \"#utility.yul\":13162:13166   */\n      dup5\n        /* \"#utility.yul\":13156:13167   */\n      sload\n        /* \"#utility.yul\":13130:13168   */\n      tag_75\n      jump\t// in\n    tag_396:\n        /* \"#utility.yul\":13124:13128   */\n      dup5\n        /* \"#utility.yul\":13080:13177   */\n      tag_263\n      jump\t// in\n    tag_395:\n        /* \"#utility.yul\":13226:13230   */\n      0x20\n        /* \"#utility.yul\":13257:13259   */\n      0x1f\n        /* \"#utility.yul\":13246:13260   */\n      dup3\n      gt\n        /* \"#utility.yul\":13274:13275   */\n      0x01\n        /* \"#utility.yul\":13269:13918   */\n      dup2\n      eq\n      tag_398\n      jumpi\n        /* \"#utility.yul\":13962:13963   */\n      0x00\n        /* \"#utility.yul\":13979:13985   */\n      dup4\n        /* \"#utility.yul\":13976:14065   */\n      iszero\n      tag_399\n      jumpi\n      pop\n        /* \"#utility.yul\":14031:14050   */\n      dup5\n      dup3\n      add\n        /* \"#utility.yul\":14025:14051   */\n      mload\n        /* \"#utility.yul\":13976:14065   */\n    tag_399:\n      not(0x00)\n        /* \"#utility.yul\":12833:12834   */\n      0x03\n        /* \"#utility.yul\":12829:12840   */\n      dup6\n      swap1\n      shl\n        /* \"#utility.yul\":12825:12849   */\n      shr\n        /* \"#utility.yul\":12821:12850   */\n      not\n        /* \"#utility.yul\":12811:12851   */\n      and\n        /* \"#utility.yul\":12857:12858   */\n      0x01\n        /* \"#utility.yul\":12853:12864   */\n      dup5\n      swap1\n      shl\n        /* \"#utility.yul\":12808:12865   */\n      or\n        /* \"#utility.yul\":14078:14159   */\n      dup5\n      sstore\n        /* \"#utility.yul\":13239:14169   */\n      jump(tag_151)\n        /* \"#utility.yul\":13269:13918   */\n    tag_398:\n        /* \"#utility.yul\":9979:9980   */\n      0x00\n        /* \"#utility.yul\":9972:9986   */\n      dup5\n      dup2\n      mstore\n        /* \"#utility.yul\":10016:10020   */\n      0x20\n        /* \"#utility.yul\":10003:10021   */\n      dup2\n      keccak256\n      not(0x1f)\n        /* \"#utility.yul\":13305:13325   */\n      dup6\n      and\n      swap2\n        /* \"#utility.yul\":13423:13645   */\n    tag_402:\n        /* \"#utility.yul\":13437:13444   */\n      dup3\n        /* \"#utility.yul\":13434:13435   */\n      dup2\n        /* \"#utility.yul\":13431:13445   */\n      lt\n        /* \"#utility.yul\":13423:13645   */\n      iszero\n      tag_404\n      jumpi\n        /* \"#utility.yul\":13519:13538   */\n      dup8\n      dup6\n      add\n        /* \"#utility.yul\":13513:13539   */\n      mload\n        /* \"#utility.yul\":13498:13540   */\n      dup3\n      sstore\n        /* \"#utility.yul\":13626:13630   */\n      0x20\n        /* \"#utility.yul\":13611:13631   */\n      swap5\n      dup6\n      add\n      swap5\n        /* \"#utility.yul\":13579:13580   */\n      0x01\n        /* \"#utility.yul\":13567:13581   */\n      swap1\n      swap3\n      add\n      swap2\n        /* \"#utility.yul\":13453:13465   */\n      add\n        /* \"#utility.yul\":13423:13645   */\n      jump(tag_402)\n    tag_404:\n        /* \"#utility.yul\":13427:13430   */\n      pop\n        /* \"#utility.yul\":13673:13679   */\n      dup5\n        /* \"#utility.yul\":13664:13671   */\n      dup3\n        /* \"#utility.yul\":13661:13680   */\n      lt\n        /* \"#utility.yul\":13658:13859   */\n      iszero\n      tag_405\n      jumpi\n        /* \"#utility.yul\":13734:13753   */\n      dup7\n      dup5\n      add\n        /* \"#utility.yul\":13728:13754   */\n      mload\n      not(0x00)\n        /* \"#utility.yul\":13817:13818   */\n      0x03\n        /* \"#utility.yul\":13813:13827   */\n      dup8\n      swap1\n      shl\n        /* \"#utility.yul\":13829:13832   */\n      0xf8\n        /* \"#utility.yul\":13809:13833   */\n      and\n        /* \"#utility.yul\":13805:13842   */\n      shr\n        /* \"#utility.yul\":13801:13843   */\n      not\n        /* \"#utility.yul\":13786:13844   */\n      and\n        /* \"#utility.yul\":13771:13845   */\n      dup2\n      sstore\n        /* \"#utility.yul\":13658:13859   */\n    tag_405:\n      pop\n      pop\n      pop\n      pop\n        /* \"#utility.yul\":13905:13906   */\n      0x01\n        /* \"#utility.yul\":13889:13903   */\n      swap1\n      dup2\n      shl\n        /* \"#utility.yul\":13885:13907   */\n      add\n        /* \"#utility.yul\":13872:13908   */\n      swap1\n      sstore\n      pop\n        /* \"#utility.yul\":12876:14175   */\n      jump\t// out\n        /* \"#utility.yul\":14602:14727   */\n    tag_206:\n        /* \"#utility.yul\":14667:14676   */\n      dup1\n      dup3\n      add\n        /* \"#utility.yul\":14688:14698   */\n      dup1\n      dup3\n      gt\n        /* \"#utility.yul\":14685:14721   */\n      iszero\n      tag_67\n      jumpi\n        /* \"#utility.yul\":14701:14719   */\n      tag_67\n      tag_262\n      jump\t// in\n        /* \"#utility.yul\":14732:15197   */\n    tag_213:\n        /* \"#utility.yul\":14989:14991   */\n      0x40\n        /* \"#utility.yul\":14978:14987   */\n      dup2\n        /* \"#utility.yul\":14971:14992   */\n      mstore\n        /* \"#utility.yul\":14952:14956   */\n      0x00\n        /* \"#utility.yul\":15015:15071   */\n      tag_411\n        /* \"#utility.yul\":15067:15069   */\n      0x40\n        /* \"#utility.yul\":15056:15065   */\n      dup4\n        /* \"#utility.yul\":15052:15070   */\n      add\n        /* \"#utility.yul\":15044:15050   */\n      dup6\n        /* \"#utility.yul\":15015:15071   */\n      tag_260\n      jump\t// in\n    tag_411:\n        /* \"#utility.yul\":15119:15128   */\n      dup3\n        /* \"#utility.yul\":15111:15117   */\n      dup2\n        /* \"#utility.yul\":15107:15129   */\n      sub\n        /* \"#utility.yul\":15102:15104   */\n      0x20\n        /* \"#utility.yul\":15091:15100   */\n      dup5\n        /* \"#utility.yul\":15087:15105   */\n      add\n        /* \"#utility.yul\":15080:15130   */\n      mstore\n        /* \"#utility.yul\":15147:15191   */\n      tag_412\n        /* \"#utility.yul\":15184:15190   */\n      dup2\n        /* \"#utility.yul\":15176:15182   */\n      dup6\n        /* \"#utility.yul\":15147:15191   */\n      tag_260\n      jump\t// in\n    tag_412:\n        /* \"#utility.yul\":15139:15191   */\n      swap6\n        /* \"#utility.yul\":14732:15197   */\n      swap5\n      pop\n      pop\n      pop\n      pop\n      pop\n      jump\t// out\n        /* \"#utility.yul\":15202:15759   */\n    tag_217:\n      sub(shl(0xa0, 0x01), 0x01)\n        /* \"#utility.yul\":15461:15493   */\n      dup7\n      dup2\n      and\n        /* \"#utility.yul\":15443:15494   */\n      dup3\n      mstore\n        /* \"#utility.yul\":15530:15562   */\n      dup6\n      and\n        /* \"#utility.yul\":15525:15527   */\n      0x20\n        /* \"#utility.yul\":15510:15528   */\n      dup3\n      add\n        /* \"#utility.yul\":15503:15563   */\n      mstore\n        /* \"#utility.yul\":15594:15596   */\n      0x40\n        /* \"#utility.yul\":15579:15597   */\n      dup2\n      add\n        /* \"#utility.yul\":15572:15606   */\n      dup5\n      swap1\n      mstore\n        /* \"#utility.yul\":15637:15639   */\n      0x60\n        /* \"#utility.yul\":15622:15640   */\n      dup2\n      add\n        /* \"#utility.yul\":15615:15649   */\n      dup4\n      swap1\n      mstore\n        /* \"#utility.yul\":15481:15484   */\n      0xa0\n        /* \"#utility.yul\":15680:15683   */\n      0x80\n        /* \"#utility.yul\":15665:15684   */\n      dup3\n      add\n        /* \"#utility.yul\":15658:15690   */\n      dup2\n      swap1\n      mstore\n      0x00\n      swap1\n        /* \"#utility.yul\":15707:15753   */\n      tag_414\n      swap1\n        /* \"#utility.yul\":15733:15752   */\n      dup4\n      add\n        /* \"#utility.yul\":15725:15731   */\n      dup5\n        /* \"#utility.yul\":15707:15753   */\n      tag_254\n      jump\t// in\n    tag_414:\n        /* \"#utility.yul\":15699:15753   */\n      swap8\n        /* \"#utility.yul\":15202:15759   */\n      swap7\n      pop\n      pop\n      pop\n      pop\n      pop\n      pop\n      pop\n      jump\t// out\n        /* \"#utility.yul\":15764:16013   */\n    tag_220:\n        /* \"#utility.yul\":15833:15839   */\n      0x00\n        /* \"#utility.yul\":15886:15888   */\n      0x20\n        /* \"#utility.yul\":15874:15883   */\n      dup3\n        /* \"#utility.yul\":15865:15872   */\n      dup5\n        /* \"#utility.yul\":15861:15884   */\n      sub\n        /* \"#utility.yul\":15857:15889   */\n      slt\n        /* \"#utility.yul\":15854:15906   */\n      iszero\n      tag_416\n      jumpi\n        /* \"#utility.yul\":15902:15903   */\n      0x00\n        /* \"#utility.yul\":15899:15900   */\n      dup1\n        /* \"#utility.yul\":15892:15904   */\n      revert\n        /* \"#utility.yul\":15854:15906   */\n    tag_416:\n        /* \"#utility.yul\":15934:15943   */\n      dup2\n        /* \"#utility.yul\":15928:15944   */\n      mload\n        /* \"#utility.yul\":15953:15983   */\n      tag_83\n        /* \"#utility.yul\":15977:15982   */\n      dup2\n        /* \"#utility.yul\":15953:15983   */\n      tag_252\n      jump\t// in\n        /* \"#utility.yul\":16018:16841   */\n    tag_236:\n      sub(shl(0xa0, 0x01), 0x01)\n        /* \"#utility.yul\":16377:16409   */\n      dup7\n      dup2\n      and\n        /* \"#utility.yul\":16359:16410   */\n      dup3\n      mstore\n        /* \"#utility.yul\":16446:16478   */\n      dup6\n      and\n        /* \"#utility.yul\":16441:16443   */\n      0x20\n        /* \"#utility.yul\":16426:16444   */\n      dup3\n      add\n        /* \"#utility.yul\":16419:16479   */\n      mstore\n        /* \"#utility.yul\":16397:16400   */\n      0xa0\n        /* \"#utility.yul\":16510:16512   */\n      0x40\n        /* \"#utility.yul\":16495:16513   */\n      dup3\n      add\n        /* \"#utility.yul\":16488:16519   */\n      dup2\n      swap1\n      mstore\n      0x00\n      swap1\n        /* \"#utility.yul\":16542:16599   */\n      tag_419\n      swap1\n        /* \"#utility.yul\":16579:16598   */\n      dup4\n      add\n        /* \"#utility.yul\":16571:16577   */\n      dup7\n        /* \"#utility.yul\":16542:16599   */\n      tag_260\n      jump\t// in\n    tag_419:\n        /* \"#utility.yul\":16647:16656   */\n      dup3\n        /* \"#utility.yul\":16639:16645   */\n      dup2\n        /* \"#utility.yul\":16635:16657   */\n      sub\n        /* \"#utility.yul\":16630:16632   */\n      0x60\n        /* \"#utility.yul\":16619:16628   */\n      dup5\n        /* \"#utility.yul\":16615:16633   */\n      add\n        /* \"#utility.yul\":16608:16658   */\n      mstore\n        /* \"#utility.yul\":16681:16725   */\n      tag_420\n        /* \"#utility.yul\":16718:16724   */\n      dup2\n        /* \"#utility.yul\":16710:16716   */\n      dup7\n        /* \"#utility.yul\":16681:16725   */\n      tag_260\n      jump\t// in\n    tag_420:\n        /* \"#utility.yul\":16667:16725   */\n      swap1\n      pop\n        /* \"#utility.yul\":16774:16783   */\n      dup3\n        /* \"#utility.yul\":16766:16772   */\n      dup2\n        /* \"#utility.yul\":16762:16784   */\n      sub\n        /* \"#utility.yul\":16756:16759   */\n      0x80\n        /* \"#utility.yul\":16745:16754   */\n      dup5\n        /* \"#utility.yul\":16741:16760   */\n      add\n        /* \"#utility.yul\":16734:16785   */\n      mstore\n        /* \"#utility.yul\":16802:16835   */\n      tag_421\n        /* \"#utility.yul\":16828:16834   */\n      dup2\n        /* \"#utility.yul\":16820:16826   */\n      dup6\n        /* \"#utility.yul\":16802:16835   */\n      tag_254\n      jump\t// in\n    tag_421:\n        /* \"#utility.yul\":16794:16835   */\n      swap9\n        /* \"#utility.yul\":16018:16841   */\n      swap8\n      pop\n      pop\n      pop\n      pop\n      pop\n      pop\n      pop\n      pop\n      jump\t// out\n\n    auxdata: 0xa264697066735822122052fdafcd2ee8d69b5154f76ad2b24e5306494a4397c10692db7c0eb57ef6069b64736f6c634300081a0033\n}\n",
				"bytecode": {
					"linkReferences": {},
					"object": "60a06040526000608090815260039061001890826100f3565b5034801561002557600080fd5b5060408051602081019091526000815261003e81610044565b506101b1565b600261005082826100f3565b5050565b634e487b7160e01b600052604160045260246000fd5b600181811c9082168061007e57607f821691505b60208210810361009e57634e487b7160e01b600052602260045260246000fd5b50919050565b601f8211156100ee57806000526020600020601f840160051c810160208510156100cb5750805b601f840160051c820191505b818110156100eb57600081556001016100d7565b50505b505050565b81516001600160401b0381111561010c5761010c610054565b6101208161011a845461006a565b846100a4565b6020601f821160018114610154576000831561013c5750848201515b600019600385901b1c1916600184901b1784556100eb565b600084815260208120601f198516915b828110156101845787850151825560209485019460019092019101610164565b50848210156101a25786840151600019600387901b60f8161c191681555b50505050600190811b01905550565b611568806101c06000396000f3fe608060405234801561001057600080fd5b50600436106100a85760003560e01c80632eb2c2d6116100715780632eb2c2d6146101345780634e1273f414610147578063a22cb46514610167578063d3fc98641461017a578063e985e9c51461018d578063f242432a146101a057600080fd5b8062fdd58e146100ad57806301ffc9a7146100d35780630e89341c146100f65780630febdd49146101165780631c75cfb41461012b575b600080fd5b6100c06100bb366004610cae565b6101b3565b6040519081526020015b60405180910390f35b6100e66100e1366004610cf1565b6101db565b60405190151581526020016100ca565b610109610104366004610d0e565b61022b565b6040516100ca9190610d77565b610129610124366004610d8a565b61030b565b005b6100c060055481565b610129610142366004610f20565b61032d565b61015a610155366004610fd6565b610399565b6040516100ca91906110db565b6101296101753660046110ee565b610466565b61012961018836600461112a565b610475565b6100e661019b366004611195565b6104b8565b6101296101ae3660046111c8565b6104e6565b6000818152602081815260408083206001600160a01b03861684529091529020545b92915050565b60006001600160e01b03198216636cdb3d1360e11b148061020c57506001600160e01b031982166303a24d0760e21b145b806101d557506301ffc9a760e01b6001600160e01b03198316146101d5565b60008181526004602052604081208054606092919061024990611221565b80601f016020809104026020016040519081016040528092919081815260200182805461027590611221565b80156102c25780601f10610297576101008083540402835291602001916102c2565b820191906000526020600020905b8154815290600101906020018083116102a557829003601f168201915b5050505050905060008151116102e0576102db83610545565b610304565b6003816040516020016102f492919061125b565b6040516020818303038152906040525b9392505050565b61032784848484604051806020016040528060008152506104e6565b50505050565b336001600160a01b038616811480159061034e575061034c86826104b8565b155b156103845760405163711bec9160e11b81526001600160a01b038083166004830152871660248201526044015b60405180910390fd5b61039186868686866105d9565b505050505050565b606081518351146103ca5781518351604051635b05999160e01b81526004810192909252602482015260440161037b565b6000835167ffffffffffffffff8111156103e6576103e6610dcc565b60405190808252806020026020018201604052801561040f578160200160208202803683370190505b50905060005b845181101561045e57602080820286010151610439906020808402870101516101b3565b82828151811061044b5761044b6112e1565b6020908102919091010152600101610415565b509392505050565b610471338383610640565b5050565b6104928360055484604051806020016040528060008152506106d6565b61049e60055482610733565b600580549060006104ae8361130d565b9190505550505050565b6001600160a01b03918216600090815260016020908152604080832093909416825291909152205460ff1690565b336001600160a01b0386168114801590610507575061050586826104b8565b155b156105385760405163711bec9160e11b81526001600160a01b0380831660048301528716602482015260440161037b565b6103918686868686610790565b60606002805461055490611221565b80601f016020809104026020016040519081016040528092919081815260200182805461058090611221565b80156105cd5780601f106105a2576101008083540402835291602001916105cd565b820191906000526020600020905b8154815290600101906020018083116105b057829003601f168201915b50505050509050919050565b6001600160a01b03841661060357604051632bfa23e760e11b81526000600482015260240161037b565b6001600160a01b03851661062c57604051626a0d4560e21b81526000600482015260240161037b565b610639858585858561081e565b5050505050565b6001600160a01b0382166106695760405162ced3e160e81b81526000600482015260240161037b565b6001600160a01b03838116600081815260016020908152604080832094871680845294825291829020805460ff191686151590811790915591519182527f17307eab39ab6107e8899845ad3d59bd9653f200f220920489ca2b5937696c31910160405180910390a3505050565b6001600160a01b03841661070057604051632bfa23e760e11b81526000600482015260240161037b565b6040805160018082526020820186905281830190815260608201859052608082019092529061039160008784848761081e565b600082815260046020526040902061074b8282611372565b50817f6bb7ff708619ba0610cba295a58592e0451dee2622938c8755667688daf3529b6107778461022b565b6040516107849190610d77565b60405180910390a25050565b6001600160a01b0384166107ba57604051632bfa23e760e11b81526000600482015260240161037b565b6001600160a01b0385166107e357604051626a0d4560e21b81526000600482015260240161037b565b60408051600180825260208201869052818301908152606082018590526080820190925290610815878784848761081e565b50505050505050565b61082a85858585610871565b6001600160a01b038416156106395782513390600103610863576020848101519084015161085c838989858589610a85565b5050610391565b610391818787878787610ba9565b80518251146108a05781518151604051635b05999160e01b81526004810192909252602482015260440161037b565b3360005b83518110156109a6576020818102858101820151908501909101516001600160a01b03881615610957576000828152602081815260408083206001600160a01b038c16845290915290205481811015610930576040516303dee4c560e01b81526001600160a01b038a16600482015260248101829052604481018390526064810184905260840161037b565b6000838152602081815260408083206001600160a01b038d16845290915290209082900390555b6001600160a01b0387161561099c576000828152602081815260408083206001600160a01b038b16845290915281208054839290610996908490611431565b90915550505b50506001016108a4565b508251600103610a275760208301516000906020840151909150856001600160a01b0316876001600160a01b0316846001600160a01b03167fc3d58168c5ae7397731d063d5bbf3d657854427343f4c083240f7aacaa2d0f628585604051610a18929190918252602082015260400190565b60405180910390a45050610639565b836001600160a01b0316856001600160a01b0316826001600160a01b03167f4a39dc06d4c0dbc64b70af90fd698a233a518aa5d07e595d983b8c0526c8f7fb8686604051610a76929190611444565b60405180910390a45050505050565b6001600160a01b0384163b156103915760405163f23a6e6160e01b81526001600160a01b0385169063f23a6e6190610ac99089908990889088908890600401611472565b6020604051808303816000875af1925050508015610b04575060408051601f3d908101601f19168201909252610b01918101906114b7565b60015b610b6d573d808015610b32576040519150601f19603f3d011682016040523d82523d6000602084013e610b37565b606091505b508051600003610b6557604051632bfa23e760e11b81526001600160a01b038616600482015260240161037b565b805181602001fd5b6001600160e01b0319811663f23a6e6160e01b1461081557604051632bfa23e760e11b81526001600160a01b038616600482015260240161037b565b6001600160a01b0384163b156103915760405163bc197c8160e01b81526001600160a01b0385169063bc197c8190610bed90899089908890889088906004016114d4565b6020604051808303816000875af1925050508015610c28575060408051601f3d908101601f19168201909252610c25918101906114b7565b60015b610c56573d808015610b32576040519150601f19603f3d011682016040523d82523d6000602084013e610b37565b6001600160e01b0319811663bc197c8160e01b1461081557604051632bfa23e760e11b81526001600160a01b038616600482015260240161037b565b80356001600160a01b0381168114610ca957600080fd5b919050565b60008060408385031215610cc157600080fd5b610cca83610c92565b946020939093013593505050565b6001600160e01b031981168114610cee57600080fd5b50565b600060208284031215610d0357600080fd5b813561030481610cd8565b600060208284031215610d2057600080fd5b5035919050565b60005b83811015610d42578181015183820152602001610d2a565b50506000910152565b60008151808452610d63816020860160208601610d27565b601f01601f19169290920160200192915050565b6020815260006103046020830184610d4b565b60008060008060808587031215610da057600080fd5b610da985610c92565b9350610db760208601610c92565b93969395505050506040820135916060013590565b634e487b7160e01b600052604160045260246000fd5b604051601f8201601f1916810167ffffffffffffffff81118282101715610e0b57610e0b610dcc565b604052919050565b600067ffffffffffffffff821115610e2d57610e2d610dcc565b5060051b60200190565b600082601f830112610e4857600080fd5b8135610e5b610e5682610e13565b610de2565b8082825260208201915060208360051b860101925085831115610e7d57600080fd5b602085015b83811015610e9a578035835260209283019201610e82565b5095945050505050565b60008067ffffffffffffffff841115610ebf57610ebf610dcc565b50601f8301601f1916602001610ed481610de2565b915050828152838383011115610ee957600080fd5b828260208301376000602084830101529392505050565b600082601f830112610f1157600080fd5b61030483833560208501610ea4565b600080600080600060a08688031215610f3857600080fd5b610f4186610c92565b9450610f4f60208701610c92565b9350604086013567ffffffffffffffff811115610f6b57600080fd5b610f7788828901610e37565b935050606086013567ffffffffffffffff811115610f9457600080fd5b610fa088828901610e37565b925050608086013567ffffffffffffffff811115610fbd57600080fd5b610fc988828901610f00565b9150509295509295909350565b60008060408385031215610fe957600080fd5b823567ffffffffffffffff81111561100057600080fd5b8301601f8101851361101157600080fd5b803561101f610e5682610e13565b8082825260208201915060208360051b85010192508783111561104157600080fd5b6020840193505b8284101561106a5761105984610c92565b825260209384019390910190611048565b9450505050602083013567ffffffffffffffff81111561108957600080fd5b61109585828601610e37565b9150509250929050565b600081518084526020840193506020830160005b828110156110d15781518652602095860195909101906001016110b3565b5093949350505050565b602081526000610304602083018461109f565b6000806040838503121561110157600080fd5b61110a83610c92565b91506020830135801515811461111f57600080fd5b809150509250929050565b60008060006060848603121561113f57600080fd5b61114884610c92565b925060208401359150604084013567ffffffffffffffff81111561116b57600080fd5b8401601f8101861361117c57600080fd5b61118b86823560208401610ea4565b9150509250925092565b600080604083850312156111a857600080fd5b6111b183610c92565b91506111bf60208401610c92565b90509250929050565b600080600080600060a086880312156111e057600080fd5b6111e986610c92565b94506111f760208701610c92565b93506040860135925060608601359150608086013567ffffffffffffffff811115610fbd57600080fd5b600181811c9082168061123557607f821691505b60208210810361125557634e487b7160e01b600052602260045260246000fd5b50919050565b600080845461126981611221565b6001821680156112805760018114611295576112c5565b60ff19831686528115158202860193506112c5565b87600052602060002060005b838110156112bd578154888201526001909101906020016112a1565b505081860193505b50505083516112d8818360208801610d27565b01949350505050565b634e487b7160e01b600052603260045260246000fd5b634e487b7160e01b600052601160045260246000fd5b60006001820161131f5761131f6112f7565b5060010190565b601f82111561136d57806000526020600020601f840160051c8101602085101561134d5750805b601f840160051c820191505b818110156106395760008155600101611359565b505050565b815167ffffffffffffffff81111561138c5761138c610dcc565b6113a08161139a8454611221565b84611326565b6020601f8211600181146113d457600083156113bc5750848201515b600019600385901b1c1916600184901b178455610639565b600084815260208120601f198516915b8281101561140457878501518255602094850194600190920191016113e4565b50848210156114225786840151600019600387901b60f8161c191681555b50505050600190811b01905550565b808201808211156101d5576101d56112f7565b604081526000611457604083018561109f565b8281036020840152611469818561109f565b95945050505050565b6001600160a01b03868116825285166020820152604081018490526060810183905260a0608082018190526000906114ac90830184610d4b565b979650505050505050565b6000602082840312156114c957600080fd5b815161030481610cd8565b6001600160a01b0386811682528516602082015260a0604082018190526000906115009083018661109f565b8281036060840152611512818661109f565b905082810360808401526115268185610d4b565b9897505050505050505056fea264697066735822122052fdafcd2ee8d69b5154f76ad2b24e5306494a4397c10692db7c0eb57ef6069b64736f6c634300081a0033",
					"opcodes": "PUSH1 0xA0 PUSH1 0x40 MSTORE PUSH1 0x0 PUSH1 0x80 SWAP1 DUP2 MSTORE PUSH1 0x3 SWAP1 PUSH2 0x18 SWAP1 DUP3 PUSH2 0xF3 JUMP JUMPDEST POP CALLVALUE DUP1 ISZERO PUSH2 0x25 JUMPI PUSH1 0x0 DUP1 REVERT JUMPDEST POP PUSH1 0x40 DUP1 MLOAD PUSH1 0x20 DUP2 ADD SWAP1 SWAP2 MSTORE PUSH1 0x0 DUP2 MSTORE PUSH2 0x3E DUP2 PUSH2 0x44 JUMP JUMPDEST POP PUSH2 0x1B1 JUMP JUMPDEST PUSH1 0x2 PUSH2 0x50 DUP3 DUP3 PUSH2 0xF3 JUMP JUMPDEST POP POP JUMP JUMPDEST PUSH4 0x4E487B71 PUSH1 0xE0 SHL PUSH1 0x0 MSTORE PUSH1 0x41 PUSH1 0x4 MSTORE PUSH1 0x24 PUSH1 0x0 REVERT JUMPDEST PUSH1 0x1 DUP2 DUP2 SHR SWAP1 DUP3 AND DUP1 PUSH2 0x7E JUMPI PUSH1 0x7F DUP3 AND SWAP2 POP JUMPDEST PUSH1 0x20 DUP3 LT DUP2 SUB PUSH2 0x9E JUMPI PUSH4 0x4E487B71 PUSH1 0xE0 SHL PUSH1 0x0 MSTORE PUSH1 0x22 PUSH1 0x4 MSTORE PUSH1 0x24 PUSH1 0x0 REVERT JUMPDEST POP SWAP2 SWAP1 POP JUMP JUMPDEST PUSH1 0x1F DUP3 GT ISZERO PUSH2 0xEE JUMPI DUP1 PUSH1 0x0 MSTORE PUSH1 0x20 PUSH1 0x0 KECCAK256 PUSH1 0x1F DUP5 ADD PUSH1 0x5 SHR DUP2 ADD PUSH1 0x20 DUP6 LT ISZERO PUSH2 0xCB JUMPI POP DUP1 JUMPDEST PUSH1 0x1F DUP5 ADD PUSH1 0x5 SHR DUP3 ADD SWAP2 POP JUMPDEST DUP2 DUP2 LT ISZERO PUSH2 0xEB JUMPI PUSH1 0x0 DUP2 SSTORE PUSH1 0x1 ADD PUSH2 0xD7 JUMP JUMPDEST POP POP JUMPDEST POP POP POP JUMP JUMPDEST DUP2 MLOAD PUSH1 0x1 PUSH1 0x1 PUSH1 0x40 SHL SUB DUP2 GT ISZERO PUSH2 0x10C JUMPI PUSH2 0x10C PUSH2 0x54 JUMP JUMPDEST PUSH2 0x120 DUP2 PUSH2 0x11A DUP5 SLOAD PUSH2 0x6A JUMP JUMPDEST DUP5 PUSH2 0xA4 JUMP JUMPDEST PUSH1 0x20 PUSH1 0x1F DUP3 GT PUSH1 0x1 DUP2 EQ PUSH2 0x154 JUMPI PUSH1 0x0 DUP4 ISZERO PUSH2 0x13C JUMPI POP DUP5 DUP3 ADD MLOAD JUMPDEST PUSH1 0x0 NOT PUSH1 0x3 DUP6 SWAP1 SHL SHR NOT AND PUSH1 0x1 DUP5 SWAP1 SHL OR DUP5 SSTORE PUSH2 0xEB JUMP JUMPDEST PUSH1 0x0 DUP5 DUP2 MSTORE PUSH1 0x20 DUP2 KECCAK256 PUSH1 0x1F NOT DUP6 AND SWAP2 JUMPDEST DUP3 DUP2 LT ISZERO PUSH2 0x184 JUMPI DUP8 DUP6 ADD MLOAD DUP3 SSTORE PUSH1 0x20 SWAP5 DUP6 ADD SWAP5 PUSH1 0x1 SWAP1 SWAP3 ADD SWAP2 ADD PUSH2 0x164 JUMP JUMPDEST POP DUP5 DUP3 LT ISZERO PUSH2 0x1A2 JUMPI DUP7 DUP5 ADD MLOAD PUSH1 0x0 NOT PUSH1 0x3 DUP8 SWAP1 SHL PUSH1 0xF8 AND SHR NOT AND DUP2 SSTORE JUMPDEST POP POP POP POP PUSH1 0x1 SWAP1 DUP2 SHL ADD SWAP1 SSTORE POP JUMP JUMPDEST PUSH2 0x1568 DUP1 PUSH2 0x1C0 PUSH1 0x0 CODECOPY PUSH1 0x0 RETURN INVALID PUSH1 0x80 PUSH1 0x40 MSTORE CALLVALUE DUP1 ISZERO PUSH2 0x10 JUMPI PUSH1 0x0 DUP1 REVERT JUMPDEST POP PUSH1 0x4 CALLDATASIZE LT PUSH2 0xA8 JUMPI PUSH1 0x0 CALLDATALOAD PUSH1 0xE0 SHR DUP1 PUSH4 0x2EB2C2D6 GT PUSH2 0x71 JUMPI DUP1 PUSH4 0x2EB2C2D6 EQ PUSH2 0x134 JUMPI DUP1 PUSH4 0x4E1273F4 EQ PUSH2 0x147 JUMPI DUP1 PUSH4 0xA22CB465 EQ PUSH2 0x167 JUMPI DUP1 PUSH4 0xD3FC9864 EQ PUSH2 0x17A JUMPI DUP1 PUSH4 0xE985E9C5 EQ PUSH2 0x18D JUMPI DUP1 PUSH4 0xF242432A EQ PUSH2 0x1A0 JUMPI PUSH1 0x0 DUP1 REVERT JUMPDEST DUP1 PUSH3 0xFDD58E EQ PUSH2 0xAD JUMPI DUP1 PUSH4 0x1FFC9A7 EQ PUSH2 0xD3 JUMPI DUP1 PUSH4 0xE89341C EQ PUSH2 0xF6 JUMPI DUP1 PUSH4 0xFEBDD49 EQ PUSH2 0x116 JUMPI DUP1 PUSH4 0x1C75CFB4 EQ PUSH2 0x12B JUMPI JUMPDEST PUSH1 0x0 DUP1 REVERT JUMPDEST PUSH2 0xC0 PUSH2 0xBB CALLDATASIZE PUSH1 0x4 PUSH2 0xCAE JUMP JUMPDEST PUSH2 0x1B3 JUMP JUMPDEST PUSH1 0x40 MLOAD SWAP1 DUP2 MSTORE PUSH1 0x20 ADD JUMPDEST PUSH1 0x40 MLOAD DUP1 SWAP2 SUB SWAP1 RETURN JUMPDEST PUSH2 0xE6 PUSH2 0xE1 CALLDATASIZE PUSH1 0x4 PUSH2 0xCF1 JUMP JUMPDEST PUSH2 0x1DB JUMP JUMPDEST PUSH1 0x40 MLOAD SWAP1 ISZERO ISZERO DUP2 MSTORE PUSH1 0x20 ADD PUSH2 0xCA JUMP JUMPDEST PUSH2 0x109 PUSH2 0x104 CALLDATASIZE PUSH1 0x4 PUSH2 0xD0E JUMP JUMPDEST PUSH2 0x22B JUMP JUMPDEST PUSH1 0x40 MLOAD PUSH2 0xCA SWAP2 SWAP1 PUSH2 0xD77 JUMP JUMPDEST PUSH2 0x129 PUSH2 0x124 CALLDATASIZE PUSH1 0x4 PUSH2 0xD8A JUMP JUMPDEST PUSH2 0x30B JUMP JUMPDEST STOP JUMPDEST PUSH2 0xC0 PUSH1 0x5 SLOAD DUP2 JUMP JUMPDEST PUSH2 0x129 PUSH2 0x142 CALLDATASIZE PUSH1 0x4 PUSH2 0xF20 JUMP JUMPDEST PUSH2 0x32D JUMP JUMPDEST PUSH2 0x15A PUSH2 0x155 CALLDATASIZE PUSH1 0x4 PUSH2 0xFD6 JUMP JUMPDEST PUSH2 0x399 JUMP JUMPDEST PUSH1 0x40 MLOAD PUSH2 0xCA SWAP2 SWAP1 PUSH2 0x10DB JUMP JUMPDEST PUSH2 0x129 PUSH2 0x175 CALLDATASIZE PUSH1 0x4 PUSH2 0x10EE JUMP JUMPDEST PUSH2 0x466 JUMP JUMPDEST PUSH2 0x129 PUSH2 0x188 CALLDATASIZE PUSH1 0x4 PUSH2 0x112A JUMP JUMPDEST PUSH2 0x475 JUMP JUMPDEST PUSH2 0xE6 PUSH2 0x19B CALLDATASIZE PUSH1 0x4 PUSH2 0x1195 JUMP JUMPDEST PUSH2 0x4B8 JUMP JUMPDEST PUSH2 0x129 PUSH2 0x1AE CALLDATASIZE PUSH1 0x4 PUSH2 0x11C8 JUMP JUMPDEST PUSH2 0x4E6 JUMP JUMPDEST PUSH1 0x0 DUP2 DUP2 MSTORE PUSH1 0x20 DUP2 DUP2 MSTORE PUSH1 0x40 DUP1 DUP4 KECCAK256 PUSH1 0x1 PUSH1 0x1 PUSH1 0xA0 SHL SUB DUP7 AND DUP5 MSTORE SWAP1 SWAP2 MSTORE SWAP1 KECCAK256 SLOAD JUMPDEST SWAP3 SWAP2 POP POP JUMP JUMPDEST PUSH1 0x0 PUSH1 0x1 PUSH1 0x1 PUSH1 0xE0 SHL SUB NOT DUP3 AND PUSH4 0x6CDB3D13 PUSH1 0xE1 SHL EQ DUP1 PUSH2 0x20C JUMPI POP PUSH1 0x1 PUSH1 0x1 PUSH1 0xE0 SHL SUB NOT DUP3 AND PUSH4 0x3A24D07 PUSH1 0xE2 SHL EQ JUMPDEST DUP1 PUSH2 0x1D5 JUMPI POP PUSH4 0x1FFC9A7 PUSH1 0xE0 SHL PUSH1 0x1 PUSH1 0x1 PUSH1 0xE0 SHL SUB NOT DUP4 AND EQ PUSH2 0x1D5 JUMP JUMPDEST PUSH1 0x0 DUP2 DUP2 MSTORE PUSH1 0x4 PUSH1 0x20 MSTORE PUSH1 0x40 DUP2 KECCAK256 DUP1 SLOAD PUSH1 0x60 SWAP3 SWAP2 SWAP1 PUSH2 0x249 SWAP1 PUSH2 0x1221 JUMP JUMPDEST DUP1 PUSH1 0x1F ADD PUSH1 0x20 DUP1 SWAP2 DIV MUL PUSH1 0x20 ADD PUSH1 0x40 MLOAD SWAP1 DUP2 ADD PUSH1 0x40 MSTORE DUP1 SWAP3 SWAP2 SWAP1 DUP2 DUP2 MSTORE PUSH1 0x20 ADD DUP3 DUP1 SLOAD PUSH2 0x275 SWAP1 PUSH2 0x1221 JUMP JUMPDEST DUP1 ISZERO PUSH2 0x2C2 JUMPI DUP1 PUSH1 0x1F LT PUSH2 0x297 JUMPI PUSH2 0x100 DUP1 DUP4 SLOAD DIV MUL DUP4 MSTORE SWAP2 PUSH1 0x20 ADD SWAP2 PUSH2 0x2C2 JUMP JUMPDEST DUP3 ADD SWAP2 SWAP1 PUSH1 0x0 MSTORE PUSH1 0x20 PUSH1 0x0 KECCAK256 SWAP1 JUMPDEST DUP2 SLOAD DUP2 MSTORE SWAP1 PUSH1 0x1 ADD SWAP1 PUSH1 0x20 ADD DUP1 DUP4 GT PUSH2 0x2A5 JUMPI DUP3 SWAP1 SUB PUSH1 0x1F AND DUP3 ADD SWAP2 JUMPDEST POP POP POP POP POP SWAP1 POP PUSH1 0x0 DUP2 MLOAD GT PUSH2 0x2E0 JUMPI PUSH2 0x2DB DUP4 PUSH2 0x545 JUMP JUMPDEST PUSH2 0x304 JUMP JUMPDEST PUSH1 0x3 DUP2 PUSH1 0x40 MLOAD PUSH1 0x20 ADD PUSH2 0x2F4 SWAP3 SWAP2 SWAP1 PUSH2 0x125B JUMP JUMPDEST PUSH1 0x40 MLOAD PUSH1 0x20 DUP2 DUP4 SUB SUB DUP2 MSTORE SWAP1 PUSH1 0x40 MSTORE JUMPDEST SWAP4 SWAP3 POP POP POP JUMP JUMPDEST PUSH2 0x327 DUP5 DUP5 DUP5 DUP5 PUSH1 0x40 MLOAD DUP1 PUSH1 0x20 ADD PUSH1 0x40 MSTORE DUP1 PUSH1 0x0 DUP2 MSTORE POP PUSH2 0x4E6 JUMP JUMPDEST POP POP POP POP JUMP JUMPDEST CALLER PUSH1 0x1 PUSH1 0x1 PUSH1 0xA0 SHL SUB DUP7 AND DUP2 EQ DUP1 ISZERO SWAP1 PUSH2 0x34E JUMPI POP PUSH2 0x34C DUP7 DUP3 PUSH2 0x4B8 JUMP JUMPDEST ISZERO JUMPDEST ISZERO PUSH2 0x384 JUMPI PUSH1 0x40 MLOAD PUSH4 0x711BEC91 PUSH1 0xE1 SHL DUP2 MSTORE PUSH1 0x1 PUSH1 0x1 PUSH1 0xA0 SHL SUB DUP1 DUP4 AND PUSH1 0x4 DUP4 ADD MSTORE DUP8 AND PUSH1 0x24 DUP3 ADD MSTORE PUSH1 0x44 ADD JUMPDEST PUSH1 0x40 MLOAD DUP1 SWAP2 SUB SWAP1 REVERT JUMPDEST PUSH2 0x391 DUP7 DUP7 DUP7 DUP7 DUP7 PUSH2 0x5D9 JUMP JUMPDEST POP POP POP POP POP POP JUMP JUMPDEST PUSH1 0x60 DUP2 MLOAD DUP4 MLOAD EQ PUSH2 0x3CA JUMPI DUP2 MLOAD DUP4 MLOAD PUSH1 0x40 MLOAD PUSH4 0x5B059991 PUSH1 0xE0 SHL DUP2 MSTORE PUSH1 0x4 DUP2 ADD SWAP3 SWAP1 SWAP3 MSTORE PUSH1 0x24 DUP3 ADD MSTORE PUSH1 0x44 ADD PUSH2 0x37B JUMP JUMPDEST PUSH1 0x0 DUP4 MLOAD PUSH8 0xFFFFFFFFFFFFFFFF DUP2 GT ISZERO PUSH2 0x3E6 JUMPI PUSH2 0x3E6 PUSH2 0xDCC JUMP JUMPDEST PUSH1 0x40 MLOAD SWAP1 DUP1 DUP3 MSTORE DUP1 PUSH1 0x20 MUL PUSH1 0x20 ADD DUP3 ADD PUSH1 0x40 MSTORE DUP1 ISZERO PUSH2 0x40F JUMPI DUP2 PUSH1 0x20 ADD PUSH1 0x20 DUP3 MUL DUP1 CALLDATASIZE DUP4 CALLDATACOPY ADD SWAP1 POP JUMPDEST POP SWAP1 POP PUSH1 0x0 JUMPDEST DUP5 MLOAD DUP2 LT ISZERO PUSH2 0x45E JUMPI PUSH1 0x20 DUP1 DUP3 MUL DUP7 ADD ADD MLOAD PUSH2 0x439 SWAP1 PUSH1 0x20 DUP1 DUP5 MUL DUP8 ADD ADD MLOAD PUSH2 0x1B3 JUMP JUMPDEST DUP3 DUP3 DUP2 MLOAD DUP2 LT PUSH2 0x44B JUMPI PUSH2 0x44B PUSH2 0x12E1 JUMP JUMPDEST PUSH1 0x20 SWAP1 DUP2 MUL SWAP2 SWAP1 SWAP2 ADD ADD MSTORE PUSH1 0x1 ADD PUSH2 0x415 JUMP JUMPDEST POP SWAP4 SWAP3 POP POP POP JUMP JUMPDEST PUSH2 0x471 CALLER DUP4 DUP4 PUSH2 0x640 JUMP JUMPDEST POP POP JUMP JUMPDEST PUSH2 0x492 DUP4 PUSH1 0x5 SLOAD DUP5 PUSH1 0x40 MLOAD DUP1 PUSH1 0x20 ADD PUSH1 0x40 MSTORE DUP1 PUSH1 0x0 DUP2 MSTORE POP PUSH2 0x6D6 JUMP JUMPDEST PUSH2 0x49E PUSH1 0x5 SLOAD DUP3 PUSH2 0x733 JUMP JUMPDEST PUSH1 0x5 DUP1 SLOAD SWAP1 PUSH1 0x0 PUSH2 0x4AE DUP4 PUSH2 0x130D JUMP JUMPDEST SWAP2 SWAP1 POP SSTORE POP POP POP POP JUMP JUMPDEST PUSH1 0x1 PUSH1 0x1 PUSH1 0xA0 SHL SUB SWAP2 DUP3 AND PUSH1 0x0 SWAP1 DUP2 MSTORE PUSH1 0x1 PUSH1 0x20 SWAP1 DUP2 MSTORE PUSH1 0x40 DUP1 DUP4 KECCAK256 SWAP4 SWAP1 SWAP5 AND DUP3 MSTORE SWAP2 SWAP1 SWAP2 MSTORE KECCAK256 SLOAD PUSH1 0xFF AND SWAP1 JUMP JUMPDEST CALLER PUSH1 0x1 PUSH1 0x1 PUSH1 0xA0 SHL SUB DUP7 AND DUP2 EQ DUP1 ISZERO SWAP1 PUSH2 0x507 JUMPI POP PUSH2 0x505 DUP7 DUP3 PUSH2 0x4B8 JUMP JUMPDEST ISZERO JUMPDEST ISZERO PUSH2 0x538 JUMPI PUSH1 0x40 MLOAD PUSH4 0x711BEC91 PUSH1 0xE1 SHL DUP2 MSTORE PUSH1 0x1 PUSH1 0x1 PUSH1 0xA0 SHL SUB DUP1 DUP4 AND PUSH1 0x4 DUP4 ADD MSTORE DUP8 AND PUSH1 0x24 DUP3 ADD MSTORE PUSH1 0x44 ADD PUSH2 0x37B JUMP JUMPDEST PUSH2 0x391 DUP7 DUP7 DUP7 DUP7 DUP7 PUSH2 0x790 JUMP JUMPDEST PUSH1 0x60 PUSH1 0x2 DUP1 SLOAD PUSH2 0x554 SWAP1 PUSH2 0x1221 JUMP JUMPDEST DUP1 PUSH1 0x1F ADD PUSH1 0x20 DUP1 SWAP2 DIV MUL PUSH1 0x20 ADD PUSH1 0x40 MLOAD SWAP1 DUP2 ADD PUSH1 0x40 MSTORE DUP1 SWAP3 SWAP2 SWAP1 DUP2 DUP2 MSTORE PUSH1 0x20 ADD DUP3 DUP1 SLOAD PUSH2 0x580 SWAP1 PUSH2 0x1221 JUMP JUMPDEST DUP1 ISZERO PUSH2 0x5CD JUMPI DUP1 PUSH1 0x1F LT PUSH2 0x5A2 JUMPI PUSH2 0x100 DUP1 DUP4 SLOAD DIV MUL DUP4 MSTORE SWAP2 PUSH1 0x20 ADD SWAP2 PUSH2 0x5CD JUMP JUMPDEST DUP3 ADD SWAP2 SWAP1 PUSH1 0x0 MSTORE PUSH1 0x20 PUSH1 0x0 KECCAK256 SWAP1 JUMPDEST DUP2 SLOAD DUP2 MSTORE SWAP1 PUSH1 0x1 ADD SWAP1 PUSH1 0x20 ADD DUP1 DUP4 GT PUSH2 0x5B0 JUMPI DUP3 SWAP1 SUB PUSH1 0x1F AND DUP3 ADD SWAP2 JUMPDEST POP POP POP POP POP SWAP1 POP SWAP2 SWAP1 POP JUMP JUMPDEST PUSH1 0x1 PUSH1 0x1 PUSH1 0xA0 SHL SUB DUP5 AND PUSH2 0x603 JUMPI PUSH1 0x40 MLOAD PUSH4 0x2BFA23E7 PUSH1 0xE1 SHL DUP2 MSTORE PUSH1 0x0 PUSH1 0x4 DUP3 ADD MSTORE PUSH1 0x24 ADD PUSH2 0x37B JUMP JUMPDEST PUSH1 0x1 PUSH1 0x1 PUSH1 0xA0 SHL SUB DUP6 AND PUSH2 0x62C JUMPI PUSH1 0x40 MLOAD PUSH3 0x6A0D45 PUSH1 0xE2 SHL DUP2 MSTORE PUSH1 0x0 PUSH1 0x4 DUP3 ADD MSTORE PUSH1 0x24 ADD PUSH2 0x37B JUMP JUMPDEST PUSH2 0x639 DUP6 DUP6 DUP6 DUP6 DUP6 PUSH2 0x81E JUMP JUMPDEST POP POP POP POP POP JUMP JUMPDEST PUSH1 0x1 PUSH1 0x1 PUSH1 0xA0 SHL SUB DUP3 AND PUSH2 0x669 JUMPI PUSH1 0x40 MLOAD PUSH3 0xCED3E1 PUSH1 0xE8 SHL DUP2 MSTORE PUSH1 0x0 PUSH1 0x4 DUP3 ADD MSTORE PUSH1 0x24 ADD PUSH2 0x37B JUMP JUMPDEST PUSH1 0x1 PUSH1 0x1 PUSH1 0xA0 SHL SUB DUP4 DUP2 AND PUSH1 0x0 DUP2 DUP2 MSTORE PUSH1 0x1 PUSH1 0x20 SWAP1 DUP2 MSTORE PUSH1 0x40 DUP1 DUP4 KECCAK256 SWAP5 DUP8 AND DUP1 DUP5 MSTORE SWAP5 DUP3 MSTORE SWAP2 DUP3 SWAP1 KECCAK256 DUP1 SLOAD PUSH1 0xFF NOT AND DUP7 ISZERO ISZERO SWAP1 DUP2 OR SWAP1 SWAP2 SSTORE SWAP2 MLOAD SWAP2 DUP3 MSTORE PUSH32 0x17307EAB39AB6107E8899845AD3D59BD9653F200F220920489CA2B5937696C31 SWAP2 ADD PUSH1 0x40 MLOAD DUP1 SWAP2 SUB SWAP1 LOG3 POP POP POP JUMP JUMPDEST PUSH1 0x1 PUSH1 0x1 PUSH1 0xA0 SHL SUB DUP5 AND PUSH2 0x700 JUMPI PUSH1 0x40 MLOAD PUSH4 0x2BFA23E7 PUSH1 0xE1 SHL DUP2 MSTORE PUSH1 0x0 PUSH1 0x4 DUP3 ADD MSTORE PUSH1 0x24 ADD PUSH2 0x37B JUMP JUMPDEST PUSH1 0x40 DUP1 MLOAD PUSH1 0x1 DUP1 DUP3 MSTORE PUSH1 0x20 DUP3 ADD DUP7 SWAP1 MSTORE DUP2 DUP4 ADD SWAP1 DUP2 MSTORE PUSH1 0x60 DUP3 ADD DUP6 SWAP1 MSTORE PUSH1 0x80 DUP3 ADD SWAP1 SWAP3 MSTORE SWAP1 PUSH2 0x391 PUSH1 0x0 DUP8 DUP5 DUP5 DUP8 PUSH2 0x81E JUMP JUMPDEST PUSH1 0x0 DUP3 DUP2 MSTORE PUSH1 0x4 PUSH1 0x20 MSTORE PUSH1 0x40 SWAP1 KECCAK256 PUSH2 0x74B DUP3 DUP3 PUSH2 0x1372 JUMP JUMPDEST POP DUP2 PUSH32 0x6BB7FF708619BA0610CBA295A58592E0451DEE2622938C8755667688DAF3529B PUSH2 0x777 DUP5 PUSH2 0x22B JUMP JUMPDEST PUSH1 0x40 MLOAD PUSH2 0x784 SWAP2 SWAP1 PUSH2 0xD77 JUMP JUMPDEST PUSH1 0x40 MLOAD DUP1 SWAP2 SUB SWAP1 LOG2 POP POP JUMP JUMPDEST PUSH1 0x1 PUSH1 0x1 PUSH1 0xA0 SHL SUB DUP5 AND PUSH2 0x7BA JUMPI PUSH1 0x40 MLOAD PUSH4 0x2BFA23E7 PUSH1 0xE1 SHL DUP2 MSTORE PUSH1 0x0 PUSH1 0x4 DUP3 ADD MSTORE PUSH1 0x24 ADD PUSH2 0x37B JUMP JUMPDEST PUSH1 0x1 PUSH1 0x1 PUSH1 0xA0 SHL SUB DUP6 AND PUSH2 0x7E3 JUMPI PUSH1 0x40 MLOAD PUSH3 0x6A0D45 PUSH1 0xE2 SHL DUP2 MSTORE PUSH1 0x0 PUSH1 0x4 DUP3 ADD MSTORE PUSH1 0x24 ADD PUSH2 0x37B JUMP JUMPDEST PUSH1 0x40 DUP1 MLOAD PUSH1 0x1 DUP1 DUP3 MSTORE PUSH1 0x20 DUP3 ADD DUP7 SWAP1 MSTORE DUP2 DUP4 ADD SWAP1 DUP2 MSTORE PUSH1 0x60 DUP3 ADD DUP6 SWAP1 MSTORE PUSH1 0x80 DUP3 ADD SWAP1 SWAP3 MSTORE SWAP1 PUSH2 0x815 DUP8 DUP8 DUP5 DUP5 DUP8 PUSH2 0x81E JUMP JUMPDEST POP POP POP POP POP POP POP JUMP JUMPDEST PUSH2 0x82A DUP6 DUP6 DUP6 DUP6 PUSH2 0x871 JUMP JUMPDEST PUSH1 0x1 PUSH1 0x1 PUSH1 0xA0 SHL SUB DUP5 AND ISZERO PUSH2 0x639 JUMPI DUP3 MLOAD CALLER SWAP1 PUSH1 0x1 SUB PUSH2 0x863 JUMPI PUSH1 0x20 DUP5 DUP2 ADD MLOAD SWAP1 DUP5 ADD MLOAD PUSH2 0x85C DUP4 DUP10 DUP10 DUP6 DUP6 DUP10 PUSH2 0xA85 JUMP JUMPDEST POP POP PUSH2 0x391 JUMP JUMPDEST PUSH2 0x391 DUP2 DUP8 DUP8 DUP8 DUP8 DUP8 PUSH2 0xBA9 JUMP JUMPDEST DUP1 MLOAD DUP3 MLOAD EQ PUSH2 0x8A0 JUMPI DUP2 MLOAD DUP2 MLOAD PUSH1 0x40 MLOAD PUSH4 0x5B059991 PUSH1 0xE0 SHL DUP2 MSTORE PUSH1 0x4 DUP2 ADD SWAP3 SWAP1 SWAP3 MSTORE PUSH1 0x24 DUP3 ADD MSTORE PUSH1 0x44 ADD PUSH2 0x37B JUMP JUMPDEST CALLER PUSH1 0x0 JUMPDEST DUP4 MLOAD DUP2 LT ISZERO PUSH2 0x9A6 JUMPI PUSH1 0x20 DUP2 DUP2 MUL DUP6 DUP2 ADD DUP3 ADD MLOAD SWAP1 DUP6 ADD SWAP1 SWAP2 ADD MLOAD PUSH1 0x1 PUSH1 0x1 PUSH1 0xA0 SHL SUB DUP9 AND ISZERO PUSH2 0x957 JUMPI PUSH1 0x0 DUP3 DUP2 MSTORE PUSH1 0x20 DUP2 DUP2 MSTORE PUSH1 0x40 DUP1 DUP4 KECCAK256 PUSH1 0x1 PUSH1 0x1 PUSH1 0xA0 SHL SUB DUP13 AND DUP5 MSTORE SWAP1 SWAP2 MSTORE SWAP1 KECCAK256 SLOAD DUP2 DUP2 LT ISZERO PUSH2 0x930 JUMPI PUSH1 0x40 MLOAD PUSH4 0x3DEE4C5 PUSH1 0xE0 SHL DUP2 MSTORE PUSH1 0x1 PUSH1 0x1 PUSH1 0xA0 SHL SUB DUP11 AND PUSH1 0x4 DUP3 ADD MSTORE PUSH1 0x24 DUP2 ADD DUP3 SWAP1 MSTORE PUSH1 0x44 DUP2 ADD DUP4 SWAP1 MSTORE PUSH1 0x64 DUP2 ADD DUP5 SWAP1 MSTORE PUSH1 0x84 ADD PUSH2 0x37B JUMP JUMPDEST PUSH1 0x0 DUP4 DUP2 MSTORE PUSH1 0x20 DUP2 DUP2 MSTORE PUSH1 0x40 DUP1 DUP4 KECCAK256 PUSH1 0x1 PUSH1 0x1 PUSH1 0xA0 SHL SUB DUP14 AND DUP5 MSTORE SWAP1 SWAP2 MSTORE SWAP1 KECCAK256 SWAP1 DUP3 SWAP1 SUB SWAP1 SSTORE JUMPDEST PUSH1 0x1 PUSH1 0x1 PUSH1 0xA0 SHL SUB DUP8 AND ISZERO PUSH2 0x99C JUMPI PUSH1 0x0 DUP3 DUP2 MSTORE PUSH1 0x20 DUP2 DUP2 MSTORE PUSH1 0x40 DUP1 DUP4 KECCAK256 PUSH1 0x1 PUSH1 0x1 PUSH1 0xA0 SHL SUB DUP12 AND DUP5 MSTORE SWAP1 SWAP2 MSTORE DUP2 KECCAK256 DUP1 SLOAD DUP4 SWAP3 SWAP1 PUSH2 0x996 SWAP1 DUP5 SWAP1 PUSH2 0x1431 JUMP JUMPDEST SWAP1 SWAP2 SSTORE POP POP JUMPDEST POP POP PUSH1 0x1 ADD PUSH2 0x8A4 JUMP JUMPDEST POP DUP3 MLOAD PUSH1 0x1 SUB PUSH2 0xA27 JUMPI PUSH1 0x20 DUP4 ADD MLOAD PUSH1 0x0 SWAP1 PUSH1 0x20 DUP5 ADD MLOAD SWAP1 SWAP2 POP DUP6 PUSH1 0x1 PUSH1 0x1 PUSH1 0xA0 SHL SUB AND DUP8 PUSH1 0x1 PUSH1 0x1 PUSH1 0xA0 SHL SUB AND DUP5 PUSH1 0x1 PUSH1 0x1 PUSH1 0xA0 SHL SUB AND PUSH32 0xC3D58168C5AE7397731D063D5BBF3D657854427343F4C083240F7AACAA2D0F62 DUP6 DUP6 PUSH1 0x40 MLOAD PUSH2 0xA18 SWAP3 SWAP2 SWAP1 SWAP2 DUP3 MSTORE PUSH1 0x20 DUP3 ADD MSTORE PUSH1 0x40 ADD SWAP1 JUMP JUMPDEST PUSH1 0x40 MLOAD DUP1 SWAP2 SUB SWAP1 LOG4 POP POP PUSH2 0x639 JUMP JUMPDEST DUP4 PUSH1 0x1 PUSH1 0x1 PUSH1 0xA0 SHL SUB AND DUP6 PUSH1 0x1 PUSH1 0x1 PUSH1 0xA0 SHL SUB AND DUP3 PUSH1 0x1 PUSH1 0x1 PUSH1 0xA0 SHL SUB AND PUSH32 0x4A39DC06D4C0DBC64B70AF90FD698A233A518AA5D07E595D983B8C0526C8F7FB DUP7 DUP7 PUSH1 0x40 MLOAD PUSH2 0xA76 SWAP3 SWAP2 SWAP1 PUSH2 0x1444 JUMP JUMPDEST PUSH1 0x40 MLOAD DUP1 SWAP2 SUB SWAP1 LOG4 POP POP POP POP POP JUMP JUMPDEST PUSH1 0x1 PUSH1 0x1 PUSH1 0xA0 SHL SUB DUP5 AND EXTCODESIZE ISZERO PUSH2 0x391 JUMPI PUSH1 0x40 MLOAD PUSH4 0xF23A6E61 PUSH1 0xE0 SHL DUP2 MSTORE PUSH1 0x1 PUSH1 0x1 PUSH1 0xA0 SHL SUB DUP6 AND SWAP1 PUSH4 0xF23A6E61 SWAP1 PUSH2 0xAC9 SWAP1 DUP10 SWAP1 DUP10 SWAP1 DUP9 SWAP1 DUP9 SWAP1 DUP9 SWAP1 PUSH1 0x4 ADD PUSH2 0x1472 JUMP JUMPDEST PUSH1 0x20 PUSH1 0x40 MLOAD DUP1 DUP4 SUB DUP2 PUSH1 0x0 DUP8 GAS CALL SWAP3 POP POP POP DUP1 ISZERO PUSH2 0xB04 JUMPI POP PUSH1 0x40 DUP1 MLOAD PUSH1 0x1F RETURNDATASIZE SWAP1 DUP2 ADD PUSH1 0x1F NOT AND DUP3 ADD SWAP1 SWAP3 MSTORE PUSH2 0xB01 SWAP2 DUP2 ADD SWAP1 PUSH2 0x14B7 JUMP JUMPDEST PUSH1 0x1 JUMPDEST PUSH2 0xB6D JUMPI RETURNDATASIZE DUP1 DUP1 ISZERO PUSH2 0xB32 JUMPI PUSH1 0x40 MLOAD SWAP2 POP PUSH1 0x1F NOT PUSH1 0x3F RETURNDATASIZE ADD AND DUP3 ADD PUSH1 0x40 MSTORE RETURNDATASIZE DUP3 MSTORE RETURNDATASIZE PUSH1 0x0 PUSH1 0x20 DUP5 ADD RETURNDATACOPY PUSH2 0xB37 JUMP JUMPDEST PUSH1 0x60 SWAP2 POP JUMPDEST POP DUP1 MLOAD PUSH1 0x0 SUB PUSH2 0xB65 JUMPI PUSH1 0x40 MLOAD PUSH4 0x2BFA23E7 PUSH1 0xE1 SHL DUP2 MSTORE PUSH1 0x1 PUSH1 0x1 PUSH1 0xA0 SHL SUB DUP7 AND PUSH1 0x4 DUP3 ADD MSTORE PUSH1 0x24 ADD PUSH2 0x37B JUMP JUMPDEST DUP1 MLOAD DUP2 PUSH1 0x20 ADD REVERT JUMPDEST PUSH1 0x1 PUSH1 0x1 PUSH1 0xE0 SHL SUB NOT DUP2 AND PUSH4 0xF23A6E61 PUSH1 0xE0 SHL EQ PUSH2 0x815 JUMPI PUSH1 0x40 MLOAD PUSH4 0x2BFA23E7 PUSH1 0xE1 SHL DUP2 MSTORE PUSH1 0x1 PUSH1 0x1 PUSH1 0xA0 SHL SUB DUP7 AND PUSH1 0x4 DUP3 ADD MSTORE PUSH1 0x24 ADD PUSH2 0x37B JUMP JUMPDEST PUSH1 0x1 PUSH1 0x1 PUSH1 0xA0 SHL SUB DUP5 AND EXTCODESIZE ISZERO PUSH2 0x391 JUMPI PUSH1 0x40 MLOAD PUSH4 0xBC197C81 PUSH1 0xE0 SHL DUP2 MSTORE PUSH1 0x1 PUSH1 0x1 PUSH1 0xA0 SHL SUB DUP6 AND SWAP1 PUSH4 0xBC197C81 SWAP1 PUSH2 0xBED SWAP1 DUP10 SWAP1 DUP10 SWAP1 DUP9 SWAP1 DUP9 SWAP1 DUP9 SWAP1 PUSH1 0x4 ADD PUSH2 0x14D4 JUMP JUMPDEST PUSH1 0x20 PUSH1 0x40 MLOAD DUP1 DUP4 SUB DUP2 PUSH1 0x0 DUP8 GAS CALL SWAP3 POP POP POP DUP1 ISZERO PUSH2 0xC28 JUMPI POP PUSH1 0x40 DUP1 MLOAD PUSH1 0x1F RETURNDATASIZE SWAP1 DUP2 ADD PUSH1 0x1F NOT AND DUP3 ADD SWAP1 SWAP3 MSTORE PUSH2 0xC25 SWAP2 DUP2 ADD SWAP1 PUSH2 0x14B7 JUMP JUMPDEST PUSH1 0x1 JUMPDEST PUSH2 0xC56 JUMPI RETURNDATASIZE DUP1 DUP1 ISZERO PUSH2 0xB32 JUMPI PUSH1 0x40 MLOAD SWAP2 POP PUSH1 0x1F NOT PUSH1 0x3F RETURNDATASIZE ADD AND DUP3 ADD PUSH1 0x40 MSTORE RETURNDATASIZE DUP3 MSTORE RETURNDATASIZE PUSH1 0x0 PUSH1 0x20 DUP5 ADD RETURNDATACOPY PUSH2 0xB37 JUMP JUMPDEST PUSH1 0x1 PUSH1 0x1 PUSH1 0xE0 SHL SUB NOT DUP2 AND PUSH4 0xBC197C81 PUSH1 0xE0 SHL EQ PUSH2 0x815 JUMPI PUSH1 0x40 MLOAD PUSH4 0x2BFA23E7 PUSH1 0xE1 SHL DUP2 MSTORE PUSH1 0x1 PUSH1 0x1 PUSH1 0xA0 SHL SUB DUP7 AND PUSH1 0x4 DUP3 ADD MSTORE PUSH1 0x24 ADD PUSH2 0x37B JUMP JUMPDEST DUP1 CALLDATALOAD PUSH1 0x1 PUSH1 0x1 PUSH1 0xA0 SHL SUB DUP2 AND DUP2 EQ PUSH2 0xCA9 JUMPI PUSH1 0x0 DUP1 REVERT JUMPDEST SWAP2 SWAP1 POP JUMP JUMPDEST PUSH1 0x0 DUP1 PUSH1 0x40 DUP4 DUP6 SUB SLT ISZERO PUSH2 0xCC1 JUMPI PUSH1 0x0 DUP1 REVERT JUMPDEST PUSH2 0xCCA DUP4 PUSH2 0xC92 JUMP JUMPDEST SWAP5 PUSH1 0x20 SWAP4 SWAP1 SWAP4 ADD CALLDATALOAD SWAP4 POP POP POP JUMP JUMPDEST PUSH1 0x1 PUSH1 0x1 PUSH1 0xE0 SHL SUB NOT DUP2 AND DUP2 EQ PUSH2 0xCEE JUMPI PUSH1 0x0 DUP1 REVERT JUMPDEST POP JUMP JUMPDEST PUSH1 0x0 PUSH1 0x20 DUP3 DUP5 SUB SLT ISZERO PUSH2 0xD03 JUMPI PUSH1 0x0 DUP1 REVERT JUMPDEST DUP2 CALLDATALOAD PUSH2 0x304 DUP2 PUSH2 0xCD8 JUMP JUMPDEST PUSH1 0x0 PUSH1 0x20 DUP3 DUP5 SUB SLT ISZERO PUSH2 0xD20 JUMPI PUSH1 0x0 DUP1 REVERT JUMPDEST POP CALLDATALOAD SWAP2 SWAP1 POP JUMP JUMPDEST PUSH1 0x0 JUMPDEST DUP4 DUP2 LT ISZERO PUSH2 0xD42 JUMPI DUP2 DUP2 ADD MLOAD DUP4 DUP3 ADD MSTORE PUSH1 0x20 ADD PUSH2 0xD2A JUMP JUMPDEST POP POP PUSH1 0x0 SWAP2 ADD MSTORE JUMP JUMPDEST PUSH1 0x0 DUP2 MLOAD DUP1 DUP5 MSTORE PUSH2 0xD63 DUP2 PUSH1 0x20 DUP7 ADD PUSH1 0x20 DUP7 ADD PUSH2 0xD27 JUMP JUMPDEST PUSH1 0x1F ADD PUSH1 0x1F NOT AND SWAP3 SWAP1 SWAP3 ADD PUSH1 0x20 ADD SWAP3 SWAP2 POP POP JUMP JUMPDEST PUSH1 0x20 DUP2 MSTORE PUSH1 0x0 PUSH2 0x304 PUSH1 0x20 DUP4 ADD DUP5 PUSH2 0xD4B JUMP JUMPDEST PUSH1 0x0 DUP1 PUSH1 0x0 DUP1 PUSH1 0x80 DUP6 DUP8 SUB SLT ISZERO PUSH2 0xDA0 JUMPI PUSH1 0x0 DUP1 REVERT JUMPDEST PUSH2 0xDA9 DUP6 PUSH2 0xC92 JUMP JUMPDEST SWAP4 POP PUSH2 0xDB7 PUSH1 0x20 DUP7 ADD PUSH2 0xC92 JUMP JUMPDEST SWAP4 SWAP7 SWAP4 SWAP6 POP POP POP POP PUSH1 0x40 DUP3 ADD CALLDATALOAD SWAP2 PUSH1 0x60 ADD CALLDATALOAD SWAP1 JUMP JUMPDEST PUSH4 0x4E487B71 PUSH1 0xE0 SHL PUSH1 0x0 MSTORE PUSH1 0x41 PUSH1 0x4 MSTORE PUSH1 0x24 PUSH1 0x0 REVERT JUMPDEST PUSH1 0x40 MLOAD PUSH1 0x1F DUP3 ADD PUSH1 0x1F NOT AND DUP2 ADD PUSH8 0xFFFFFFFFFFFFFFFF DUP2 GT DUP3 DUP3 LT OR ISZERO PUSH2 0xE0B JUMPI PUSH2 0xE0B PUSH2 0xDCC JUMP JUMPDEST PUSH1 0x40 MSTORE SWAP2 SWAP1 POP JUMP JUMPDEST PUSH1 0x0 PUSH8 0xFFFFFFFFFFFFFFFF DUP3 GT ISZERO PUSH2 0xE2D JUMPI PUSH2 0xE2D PUSH2 0xDCC JUMP JUMPDEST POP PUSH1 0x5 SHL PUSH1 0x20 ADD SWAP1 JUMP JUMPDEST PUSH1 0x0 DUP3 PUSH1 0x1F DUP4 ADD SLT PUSH2 0xE48 JUMPI PUSH1 0x0 DUP1 REVERT JUMPDEST DUP2 CALLDATALOAD PUSH2 0xE5B PUSH2 0xE56 DUP3 PUSH2 0xE13 JUMP JUMPDEST PUSH2 0xDE2 JUMP JUMPDEST DUP1 DUP3 DUP3 MSTORE PUSH1 0x20 DUP3 ADD SWAP2 POP PUSH1 0x20 DUP4 PUSH1 0x5 SHL DUP7 ADD ADD SWAP3 POP DUP6 DUP4 GT ISZERO PUSH2 0xE7D JUMPI PUSH1 0x0 DUP1 REVERT JUMPDEST PUSH1 0x20 DUP6 ADD JUMPDEST DUP4 DUP2 LT ISZERO PUSH2 0xE9A JUMPI DUP1 CALLDATALOAD DUP4 MSTORE PUSH1 0x20 SWAP3 DUP4 ADD SWAP3 ADD PUSH2 0xE82 JUMP JUMPDEST POP SWAP6 SWAP5 POP POP POP POP POP JUMP JUMPDEST PUSH1 0x0 DUP1 PUSH8 0xFFFFFFFFFFFFFFFF DUP5 GT ISZERO PUSH2 0xEBF JUMPI PUSH2 0xEBF PUSH2 0xDCC JUMP JUMPDEST POP PUSH1 0x1F DUP4 ADD PUSH1 0x1F NOT AND PUSH1 0x20 ADD PUSH2 0xED4 DUP2 PUSH2 0xDE2 JUMP JUMPDEST SWAP2 POP POP DUP3 DUP2 MSTORE DUP4 DUP4 DUP4 ADD GT ISZERO PUSH2 0xEE9 JUMPI PUSH1 0x0 DUP1 REVERT JUMPDEST DUP3 DUP3 PUSH1 0x20 DUP4 ADD CALLDATACOPY PUSH1 0x0 PUSH1 0x20 DUP5 DUP4 ADD ADD MSTORE SWAP4 SWAP3 POP POP POP JUMP JUMPDEST PUSH1 0x0 DUP3 PUSH1 0x1F DUP4 ADD SLT PUSH2 0xF11 JUMPI PUSH1 0x0 DUP1 REVERT JUMPDEST PUSH2 0x304 DUP4 DUP4 CALLDATALOAD PUSH1 0x20 DUP6 ADD PUSH2 0xEA4 JUMP JUMPDEST PUSH1 0x0 DUP1 PUSH1 0x0 DUP1 PUSH1 0x0 PUSH1 0xA0 DUP7 DUP9 SUB SLT ISZERO PUSH2 0xF38 JUMPI PUSH1 0x0 DUP1 REVERT JUMPDEST PUSH2 0xF41 DUP7 PUSH2 0xC92 JUMP JUMPDEST SWAP5 POP PUSH2 0xF4F PUSH1 0x20 DUP8 ADD PUSH2 0xC92 JUMP JUMPDEST SWAP4 POP PUSH1 0x40 DUP7 ADD CALLDATALOAD PUSH8 0xFFFFFFFFFFFFFFFF DUP2 GT ISZERO PUSH2 0xF6B JUMPI PUSH1 0x0 DUP1 REVERT JUMPDEST PUSH2 0xF77 DUP9 DUP3 DUP10 ADD PUSH2 0xE37 JUMP JUMPDEST SWAP4 POP POP PUSH1 0x60 DUP7 ADD CALLDATALOAD PUSH8 0xFFFFFFFFFFFFFFFF DUP2 GT ISZERO PUSH2 0xF94 JUMPI PUSH1 0x0 DUP1 REVERT JUMPDEST PUSH2 0xFA0 DUP9 DUP3 DUP10 ADD PUSH2 0xE37 JUMP JUMPDEST SWAP3 POP POP PUSH1 0x80 DUP7 ADD CALLDATALOAD PUSH8 0xFFFFFFFFFFFFFFFF DUP2 GT ISZERO PUSH2 0xFBD JUMPI PUSH1 0x0 DUP1 REVERT JUMPDEST PUSH2 0xFC9 DUP9 DUP3 DUP10 ADD PUSH2 0xF00 JUMP JUMPDEST SWAP2 POP POP SWAP3 SWAP6 POP SWAP3 SWAP6 SWAP1 SWAP4 POP JUMP JUMPDEST PUSH1 0x0 DUP1 PUSH1 0x40 DUP4 DUP6 SUB SLT ISZERO PUSH2 0xFE9 JUMPI PUSH1 0x0 DUP1 REVERT JUMPDEST DUP3 CALLDATALOAD PUSH8 0xFFFFFFFFFFFFFFFF DUP2 GT ISZERO PUSH2 0x1000 JUMPI PUSH1 0x0 DUP1 REVERT JUMPDEST DUP4 ADD PUSH1 0x1F DUP2 ADD DUP6 SGT PUSH2 0x1011 JUMPI PUSH1 0x0 DUP1 REVERT JUMPDEST DUP1 CALLDATALOAD PUSH2 0x101F PUSH2 0xE56 DUP3 PUSH2 0xE13 JUMP JUMPDEST DUP1 DUP3 DUP3 MSTORE PUSH1 0x20 DUP3 ADD SWAP2 POP PUSH1 0x20 DUP4 PUSH1 0x5 SHL DUP6 ADD ADD SWAP3 POP DUP8 DUP4 GT ISZERO PUSH2 0x1041 JUMPI PUSH1 0x0 DUP1 REVERT JUMPDEST PUSH1 0x20 DUP5 ADD SWAP4 POP JUMPDEST DUP3 DUP5 LT ISZERO PUSH2 0x106A JUMPI PUSH2 0x1059 DUP5 PUSH2 0xC92 JUMP JUMPDEST DUP3 MSTORE PUSH1 0x20 SWAP4 DUP5 ADD SWAP4 SWAP1 SWAP2 ADD SWAP1 PUSH2 0x1048 JUMP JUMPDEST SWAP5 POP POP POP POP PUSH1 0x20 DUP4 ADD CALLDATALOAD PUSH8 0xFFFFFFFFFFFFFFFF DUP2 GT ISZERO PUSH2 0x1089 JUMPI PUSH1 0x0 DUP1 REVERT JUMPDEST PUSH2 0x1095 DUP6 DUP3 DUP7 ADD PUSH2 0xE37 JUMP JUMPDEST SWAP2 POP POP SWAP3 POP SWAP3 SWAP1 POP JUMP JUMPDEST PUSH1 0x0 DUP2 MLOAD DUP1 DUP5 MSTORE PUSH1 0x20 DUP5 ADD SWAP4 POP PUSH1 0x20 DUP4 ADD PUSH1 0x0 JUMPDEST DUP3 DUP2 LT ISZERO PUSH2 0x10D1 JUMPI DUP2 MLOAD DUP7 MSTORE PUSH1 0x20 SWAP6 DUP7 ADD SWAP6 SWAP1 SWAP2 ADD SWAP1 PUSH1 0x1 ADD PUSH2 0x10B3 JUMP JUMPDEST POP SWAP4 SWAP5 SWAP4 POP POP POP POP JUMP JUMPDEST PUSH1 0x20 DUP2 MSTORE PUSH1 0x0 PUSH2 0x304 PUSH1 0x20 DUP4 ADD DUP5 PUSH2 0x109F JUMP JUMPDEST PUSH1 0x0 DUP1 PUSH1 0x40 DUP4 DUP6 SUB SLT ISZERO PUSH2 0x1101 JUMPI PUSH1 0x0 DUP1 REVERT JUMPDEST PUSH2 0x110A DUP4 PUSH2 0xC92 JUMP JUMPDEST SWAP2 POP PUSH1 0x20 DUP4 ADD CALLDATALOAD DUP1 ISZERO ISZERO DUP2 EQ PUSH2 0x111F JUMPI PUSH1 0x0 DUP1 REVERT JUMPDEST DUP1 SWAP2 POP POP SWAP3 POP SWAP3 SWAP1 POP JUMP JUMPDEST PUSH1 0x0 DUP1 PUSH1 0x0 PUSH1 0x60 DUP5 DUP7 SUB SLT ISZERO PUSH2 0x113F JUMPI PUSH1 0x0 DUP1 REVERT JUMPDEST PUSH2 0x1148 DUP5 PUSH2 0xC92 JUMP JUMPDEST SWAP3 POP PUSH1 0x20 DUP5 ADD CALLDATALOAD SWAP2 POP PUSH1 0x40 DUP5 ADD CALLDATALOAD PUSH8 0xFFFFFFFFFFFFFFFF DUP2 GT ISZERO PUSH2 0x116B JUMPI PUSH1 0x0 DUP1 REVERT JUMPDEST DUP5 ADD PUSH1 0x1F DUP2 ADD DUP7 SGT PUSH2 0x117C JUMPI PUSH1 0x0 DUP1 REVERT JUMPDEST PUSH2 0x118B DUP7 DUP3 CALLDATALOAD PUSH1 0x20 DUP5 ADD PUSH2 0xEA4 JUMP JUMPDEST SWAP2 POP POP SWAP3 POP SWAP3 POP SWAP3 JUMP JUMPDEST PUSH1 0x0 DUP1 PUSH1 0x40 DUP4 DUP6 SUB SLT ISZERO PUSH2 0x11A8 JUMPI PUSH1 0x0 DUP1 REVERT JUMPDEST PUSH2 0x11B1 DUP4 PUSH2 0xC92 JUMP JUMPDEST SWAP2 POP PUSH2 0x11BF PUSH1 0x20 DUP5 ADD PUSH2 0xC92 JUMP JUMPDEST SWAP1 POP SWAP3 POP SWAP3 SWAP1 POP JUMP JUMPDEST PUSH1 0x0 DUP1 PUSH1 0x0 DUP1 PUSH1 0x0 PUSH1 0xA0 DUP7 DUP9 SUB SLT ISZERO PUSH2 0x11E0 JUMPI PUSH1 0x0 DUP1 REVERT JUMPDEST PUSH2 0x11E9 DUP7 PUSH2 0xC92 JUMP JUMPDEST SWAP5 POP PUSH2 0x11F7 PUSH1 0x20 DUP8 ADD PUSH2 0xC92 JUMP JUMPDEST SWAP4 POP PUSH1 0x40 DUP7 ADD CALLDATALOAD SWAP3 POP PUSH1 0x60 DUP7 ADD CALLDATALOAD SWAP2 POP PUSH1 0x80 DUP7 ADD CALLDATALOAD PUSH8 0xFFFFFFFFFFFFFFFF DUP2 GT ISZERO PUSH2 0xFBD JUMPI PUSH1 0x0 DUP1 REVERT JUMPDEST PUSH1 0x1 DUP2 DUP2 SHR SWAP1 DUP3 AND DUP1 PUSH2 0x1235 JUMPI PUSH1 0x7F DUP3 AND SWAP2 POP JUMPDEST PUSH1 0x20 DUP3 LT DUP2 SUB PUSH2 0x1255 JUMPI PUSH4 0x4E487B71 PUSH1 0xE0 SHL PUSH1 0x0 MSTORE PUSH1 0x22 PUSH1 0x4 MSTORE PUSH1 0x24 PUSH1 0x0 REVERT JUMPDEST POP SWAP2 SWAP1 POP JUMP JUMPDEST PUSH1 0x0 DUP1 DUP5 SLOAD PUSH2 0x1269 DUP2 PUSH2 0x1221 JUMP JUMPDEST PUSH1 0x1 DUP3 AND DUP1 ISZERO PUSH2 0x1280 JUMPI PUSH1 0x1 DUP2 EQ PUSH2 0x1295 JUMPI PUSH2 0x12C5 JUMP JUMPDEST PUSH1 0xFF NOT DUP4 AND DUP7 MSTORE DUP2 ISZERO ISZERO DUP3 MUL DUP7 ADD SWAP4 POP PUSH2 0x12C5 JUMP JUMPDEST DUP8 PUSH1 0x0 MSTORE PUSH1 0x20 PUSH1 0x0 KECCAK256 PUSH1 0x0 JUMPDEST DUP4 DUP2 LT ISZERO PUSH2 0x12BD JUMPI DUP2 SLOAD DUP9 DUP3 ADD MSTORE PUSH1 0x1 SWAP1 SWAP2 ADD SWAP1 PUSH1 0x20 ADD PUSH2 0x12A1 JUMP JUMPDEST POP POP DUP2 DUP7 ADD SWAP4 POP JUMPDEST POP POP POP DUP4 MLOAD PUSH2 0x12D8 DUP2 DUP4 PUSH1 0x20 DUP9 ADD PUSH2 0xD27 JUMP JUMPDEST ADD SWAP5 SWAP4 POP POP POP POP JUMP JUMPDEST PUSH4 0x4E487B71 PUSH1 0xE0 SHL PUSH1 0x0 MSTORE PUSH1 0x32 PUSH1 0x4 MSTORE PUSH1 0x24 PUSH1 0x0 REVERT JUMPDEST PUSH4 0x4E487B71 PUSH1 0xE0 SHL PUSH1 0x0 MSTORE PUSH1 0x11 PUSH1 0x4 MSTORE PUSH1 0x24 PUSH1 0x0 REVERT JUMPDEST PUSH1 0x0 PUSH1 0x1 DUP3 ADD PUSH2 0x131F JUMPI PUSH2 0x131F PUSH2 0x12F7 JUMP JUMPDEST POP PUSH1 0x1 ADD SWAP1 JUMP JUMPDEST PUSH1 0x1F DUP3 GT ISZERO PUSH2 0x136D JUMPI DUP1 PUSH1 0x0 MSTORE PUSH1 0x20 PUSH1 0x0 KECCAK256 PUSH1 0x1F DUP5 ADD PUSH1 0x5 SHR DUP2 ADD PUSH1 0x20 DUP6 LT ISZERO PUSH2 0x134D JUMPI POP DUP1 JUMPDEST PUSH1 0x1F DUP5 ADD PUSH1 0x5 SHR DUP3 ADD SWAP2 POP JUMPDEST DUP2 DUP2 LT ISZERO PUSH2 0x639 JUMPI PUSH1 0x0 DUP2 SSTORE PUSH1 0x1 ADD PUSH2 0x1359 JUMP JUMPDEST POP POP POP JUMP JUMPDEST DUP2 MLOAD PUSH8 0xFFFFFFFFFFFFFFFF DUP2 GT ISZERO PUSH2 0x138C JUMPI PUSH2 0x138C PUSH2 0xDCC JUMP JUMPDEST PUSH2 0x13A0 DUP2 PUSH2 0x139A DUP5 SLOAD PUSH2 0x1221 JUMP JUMPDEST DUP5 PUSH2 0x1326 JUMP JUMPDEST PUSH1 0x20 PUSH1 0x1F DUP3 GT PUSH1 0x1 DUP2 EQ PUSH2 0x13D4 JUMPI PUSH1 0x0 DUP4 ISZERO PUSH2 0x13BC JUMPI POP DUP5 DUP3 ADD MLOAD JUMPDEST PUSH1 0x0 NOT PUSH1 0x3 DUP6 SWAP1 SHL SHR NOT AND PUSH1 0x1 DUP5 SWAP1 SHL OR DUP5 SSTORE PUSH2 0x639 JUMP JUMPDEST PUSH1 0x0 DUP5 DUP2 MSTORE PUSH1 0x20 DUP2 KECCAK256 PUSH1 0x1F NOT DUP6 AND SWAP2 JUMPDEST DUP3 DUP2 LT ISZERO PUSH2 0x1404 JUMPI DUP8 DUP6 ADD MLOAD DUP3 SSTORE PUSH1 0x20 SWAP5 DUP6 ADD SWAP5 PUSH1 0x1 SWAP1 SWAP3 ADD SWAP2 ADD PUSH2 0x13E4 JUMP JUMPDEST POP DUP5 DUP3 LT ISZERO PUSH2 0x1422 JUMPI DUP7 DUP5 ADD MLOAD PUSH1 0x0 NOT PUSH1 0x3 DUP8 SWAP1 SHL PUSH1 0xF8 AND SHR NOT AND DUP2 SSTORE JUMPDEST POP POP POP POP PUSH1 0x1 SWAP1 DUP2 SHL ADD SWAP1 SSTORE POP JUMP JUMPDEST DUP1 DUP3 ADD DUP1 DUP3 GT ISZERO PUSH2 0x1D5 JUMPI PUSH2 0x1D5 PUSH2 0x12F7 JUMP JUMPDEST PUSH1 0x40 DUP2 MSTORE PUSH1 0x0 PUSH2 0x1457 PUSH1 0x40 DUP4 ADD DUP6 PUSH2 0x109F JUMP JUMPDEST DUP3 DUP2 SUB PUSH1 0x20 DUP5 ADD MSTORE PUSH2 0x1469 DUP2 DUP6 PUSH2 0x109F JUMP JUMPDEST SWAP6 SWAP5 POP POP POP POP POP JUMP JUMPDEST PUSH1 0x1 PUSH1 0x1 PUSH1 0xA0 SHL SUB DUP7 DUP2 AND DUP3 MSTORE DUP6 AND PUSH1 0x20 DUP3 ADD MSTORE PUSH1 0x40 DUP2 ADD DUP5 SWAP1 MSTORE PUSH1 0x60 DUP2 ADD DUP4 SWAP1 MSTORE PUSH1 0xA0 PUSH1 0x80 DUP3 ADD DUP2 SWAP1 MSTORE PUSH1 0x0 SWAP1 PUSH2 0x14AC SWAP1 DUP4 ADD DUP5 PUSH2 0xD4B JUMP JUMPDEST SWAP8 SWAP7 POP POP POP POP POP POP POP JUMP JUMPDEST PUSH1 0x0 PUSH1 0x20 DUP3 DUP5 SUB SLT ISZERO PUSH2 0x14C9 JUMPI PUSH1 0x0 DUP1 REVERT JUMPDEST DUP2 MLOAD PUSH2 0x304 DUP2 PUSH2 0xCD8 JUMP JUMPDEST PUSH1 0x1 PUSH1 0x1 PUSH1 0xA0 SHL SUB DUP7 DUP2 AND DUP3 MSTORE DUP6 AND PUSH1 0x20 DUP3 ADD MSTORE PUSH1 0xA0 PUSH1 0x40 DUP3 ADD DUP2 SWAP1 MSTORE PUSH1 0x0 SWAP1 PUSH2 0x1500 SWAP1 DUP4 ADD DUP7 PUSH2 0x109F JUMP JUMPDEST DUP3 DUP2 SUB PUSH1 0x60 DUP5 ADD MSTORE PUSH2 0x1512 DUP2 DUP7 PUSH2 0x109F JUMP JUMPDEST SWAP1 POP DUP3 DUP2 SUB PUSH1 0x80 DUP5 ADD MSTORE PUSH2 0x1526 DUP2 DUP6 PUSH2 0xD4B JUMP JUMPDEST SWAP9 SWAP8 POP POP POP POP POP POP POP POP JUMP INVALID LOG2 PUSH5 0x6970667358 0x22 SLT KECCAK256 MSTORE REVERT 0xAF 0xCD 0x2E 0xE8 0xD6 SWAP12 MLOAD SLOAD 0xF7 PUSH11 0xD2B24E5306494A4397C106 SWAP3 0xDB PUSH29 0xEB57EF6069B64736F6C634300081A0033000000000000000000000000 "
				},
				"gasEstimates": {
					"creation": {
						"codeDepositCost": "1096000",
						"executionCost": "infinite",
						"totalCost": "infinite"
					},
					"external": {
						"balanceOf(address,uint256)": "2637",
						"balanceOfBatch(address[],uint256[])": "infinite",
						"currentID()": "2373",
						"isApprovedForAll(address,address)": "infinite",
						"mint(address,uint256,string)": "infinite",
						"safeBatchTransferFrom(address,address,uint256[],uint256[],bytes)": "infinite",
						"safeTransferFrom(address,address,uint256,uint256)": "infinite",
						"safeTransferFrom(address,address,uint256,uint256,bytes)": "infinite",
						"setApprovalForAll(address,bool)": "26703",
						"supportsInterface(bytes4)": "555",
						"uri(uint256)": "infinite"
					}
				},
				"methodIdentifiers": {
					"balanceOf(address,uint256)": "00fdd58e",
					"balanceOfBatch(address[],uint256[])": "4e1273f4",
					"currentID()": "1c75cfb4",
					"isApprovedForAll(address,address)": "e985e9c5",
					"mint(address,uint256,string)": "d3fc9864",
					"safeBatchTransferFrom(address,address,uint256[],uint256[],bytes)": "2eb2c2d6",
					"safeTransferFrom(address,address,uint256,uint256)": "0febdd49",
					"safeTransferFrom(address,address,uint256,uint256,bytes)": "f242432a",
					"setApprovalForAll(address,bool)": "a22cb465",
					"supportsInterface(bytes4)": "01ffc9a7",
					"uri(uint256)": "0e89341c"
				}
			},
			"storageLayout": {
				"storage": [
					{
						"astId": 178,
						"contract": "contracts/SongNFT.sol:SongNFT",
						"label": "_balances",
						"offset": 0,
						"slot": "0",
						"type": "t_mapping(t_uint256,t_mapping(t_address,t_uint256))"
					},
					{
						"astId": 184,
						"contract": "contracts/SongNFT.sol:SongNFT",
						"label": "_operatorApprovals",
						"offset": 0,
						"slot": "1",
						"type": "t_mapping(t_address,t_mapping(t_address,t_bool))"
					},
					{
						"astId": 186,
						"contract": "contracts/SongNFT.sol:SongNFT",
						"label": "_uri",
						"offset": 0,
						"slot": "2",
						"type": "t_string_storage"
					},
					{
						"astId": 1367,
						"contract": "contracts/SongNFT.sol:SongNFT",
						"label": "_baseURI",
						"offset": 0,
						"slot": "3",
						"type": "t_string_storage"
					},
					{
						"astId": 1371,
						"contract": "contracts/SongNFT.sol:SongNFT",
						"label": "_tokenURIs",
						"offset": 0,
						"slot": "4",
						"type": "t_mapping(t_uint256,t_string_storage)"
					},
					{
						"astId": 3244,
						"contract": "contracts/SongNFT.sol:SongNFT",
						"label": "currentID",
						"offset": 0,
						"slot": "5",
						"type": "t_uint256"
					}
				],
				"types": {
					"t_address": {
						"encoding": "inplace",
						"label": "address",
						"numberOfBytes": "20"
					},
					"t_bool": {
						"encoding": "inplace",
						"label": "bool",
						"numberOfBytes": "1"
					},
					"t_mapping(t_address,t_bool)": {
						"encoding": "mapping",
						"key": "t_address",
						"label": "mapping(address => bool)",
						"numberOfBytes": "32",
						"value": "t_bool"
					},
					"t_mapping(t_address,t_mapping(t_address,t_bool))": {
						"encoding": "mapping",
						"key": "t_address",
						"label": "mapping(address => mapping(address => bool))",
						"numberOfBytes": "32",
						"value": "t_mapping(t_address,t_bool)"
					},
					"t_mapping(t_address,t_uint256)": {
						"encoding": "mapping",
						"key": "t_address",
						"label": "mapping(address => uint256)",
						"numberOfBytes": "32",
						"value": "t_uint256"
					},
					"t_mapping(t_uint256,t_mapping(t_address,t_uint256))": {
						"encoding": "mapping",
						"key": "t_uint256",
						"label": "mapping(uint256 => mapping(address => uint256))",
						"numberOfBytes": "32",
						"value": "t_mapping(t_address,t_uint256)"
					},
					"t_mapping(t_uint256,t_string_storage)": {
						"encoding": "mapping",
						"key": "t_uint256",
						"label": "mapping(uint256 => string)",
						"numberOfBytes": "32",
						"value": "t_string_storage"
					},
					"t_string_storage": {
						"encoding": "bytes",
						"label": "string",
						"numberOfBytes": "32"
					},
					"t_uint256": {
						"encoding": "inplace",
						"label": "uint256",
						"numberOfBytes": "32"
					}
				}
			},
			"userdoc": {
				"kind": "user",
				"methods": {},
				"version": 1
			}
		}
	}
}