{
  "_format": "hh-sol-artifact-1",
  "contractName": "SongNFT",
  "sourceName": "contracts/SongNFT.sol",
  "abi": [
    {
      "inputs": [],
      "stateMutability": "nonpayable",
      "type": "constructor"
    },
    {
      "inputs": [
        {
          "internalType": "address",
          "name": "sender",
          "type": "address"
        },
        {
          "internalType": "uint256",
          "name": "balance",
          "type": "uint256"
        },
        {
          "internalType": "uint256",
          "name": "needed",
          "type": "uint256"
        },
        {
          "internalType": "uint256",
          "name": "tokenId",
          "type": "uint256"
        }
      ],
      "name": "ERC1155InsufficientBalance",
      "type": "error"
    },
    {
      "inputs": [
        {
          "internalType": "address",
          "name": "approver",
          "type": "address"
        }
      ],
      "name": "ERC1155InvalidApprover",
      "type": "error"
    },
    {
      "inputs": [
        {
          "internalType": "uint256",
          "name": "idsLength",
          "type": "uint256"
        },
        {
          "internalType": "uint256",
          "name": "valuesLength",
          "type": "uint256"
        }
      ],
      "name": "ERC1155InvalidArrayLength",
      "type": "error"
    },
    {
      "inputs": [
        {
          "internalType": "address",
          "name": "operator",
          "type": "address"
        }
      ],
      "name": "ERC1155InvalidOperator",
      "type": "error"
    },
    {
      "inputs": [
        {
          "internalType": "address",
          "name": "receiver",
          "type": "address"
        }
      ],
      "name": "ERC1155InvalidReceiver",
      "type": "error"
    },
    {
      "inputs": [
        {
          "internalType": "address",
          "name": "sender",
          "type": "address"
        }
      ],
      "name": "ERC1155InvalidSender",
      "type": "error"
    },
    {
      "inputs": [
        {
          "internalType": "address",
          "name": "operator",
          "type": "address"
        },
        {
          "internalType": "address",
          "name": "owner",
          "type": "address"
        }
      ],
      "name": "ERC1155MissingApprovalForAll",
      "type": "error"
    },
    {
      "anonymous": false,
      "inputs": [
        {
          "indexed": true,
          "internalType": "address",
          "name": "account",
          "type": "address"
        },
        {
          "indexed": true,
          "internalType": "address",
          "name": "operator",
          "type": "address"
        },
        {
          "indexed": false,
          "internalType": "bool",
          "name": "approved",
          "type": "bool"
        }
      ],
      "name": "ApprovalForAll",
      "type": "event"
    },
    {
      "anonymous": false,
      "inputs": [
        {
          "indexed": true,
          "internalType": "address",
          "name": "operator",
          "type": "address"
        },
        {
          "indexed": true,
          "internalType": "address",
          "name": "from",
          "type": "address"
        },
        {
          "indexed": true,
          "internalType": "address",
          "name": "to",
          "type": "address"
        },
        {
          "indexed": false,
          "internalType": "uint256[]",
          "name": "ids",
          "type": "uint256[]"
        },
        {
          "indexed": false,
          "internalType": "uint256[]",
          "name": "values",
          "type": "uint256[]"
        }
      ],
      "name": "TransferBatch",
      "type": "event"
    },
    {
      "anonymous": false,
      "inputs": [
        {
          "indexed": true,
          "internalType": "address",
          "name": "operator",
          "type": "address"
        },
        {
          "indexed": true,
          "internalType": "address",
          "name": "from",
          "type": "address"
        },
        {
          "indexed": true,
          "internalType": "address",
          "name": "to",
          "type": "address"
        },
        {
          "indexed": false,
          "internalType": "uint256",
          "name": "id",
          "type": "uint256"
        },
        {
          "indexed": false,
          "internalType": "uint256",
          "name": "value",
          "type": "uint256"
        }
      ],
      "name": "TransferSingle",
      "type": "event"
    },
    {
      "anonymous": false,
      "inputs": [
        {
          "indexed": false,
          "internalType": "string",
          "name": "value",
          "type": "string"
        },
        {
          "indexed": true,
          "internalType": "uint256",
          "name": "id",
          "type": "uint256"
        }
      ],
      "name": "URI",
      "type": "event"
    },
    {
      "inputs": [
        {
          "internalType": "address",
          "name": "account",
          "type": "address"
        },
        {
          "internalType": "uint256",
          "name": "id",
          "type": "uint256"
        }
      ],
      "name": "balanceOf",
      "outputs": [
        {
          "internalType": "uint256",
          "name": "",
          "type": "uint256"
        }
      ],
      "stateMutability": "view",
      "type": "function"
    },
    {
      "inputs": [
        {
          "internalType": "address[]",
          "name": "accounts",
          "type": "address[]"
        },
        {
          "internalType": "uint256[]",
          "name": "ids",
          "type": "uint256[]"
        }
      ],
      "name": "balanceOfBatch",
      "outputs": [
        {
          "internalType": "uint256[]",
          "name": "",
          "type": "uint256[]"
        }
      ],
      "stateMutability": "view",
      "type": "function"
    },
    {
      "inputs": [],
      "name": "currentID",
      "outputs": [
        {
          "internalType": "uint256",
          "name": "",
          "type": "uint256"
        }
      ],
      "stateMutability": "view",
      "type": "function"
    },
    {
      "inputs": [
        {
          "internalType": "address",
          "name": "account",
          "type": "address"
        },
        {
          "internalType": "address",
          "name": "operator",
          "type": "address"
        }
      ],
      "name": "isApprovedForAll",
      "outputs": [
        {
          "internalType": "bool",
          "name": "",
          "type": "bool"
        }
      ],
      "stateMutability": "view",
      "type": "function"
    },
    {
      "inputs": [
        {
          "internalType": "uint256",
          "name": "amount",
          "type": "uint256"
        },
        {
          "internalType": "string",
          "name": "uri",
          "type": "string"
        }
      ],
      "name": "mint",
      "outputs": [],
      "stateMutability": "nonpayable",
      "type": "function"
    },
    {
      "inputs": [
        {
          "internalType": "address",
          "name": "from",
          "type": "address"
        },
        {
          "internalType": "address",
          "name": "to",
          "type": "address"
        },
        {
          "internalType": "uint256[]",
          "name": "ids",
          "type": "uint256[]"
        },
        {
          "internalType": "uint256[]",
          "name": "values",
          "type": "uint256[]"
        },
        {
          "internalType": "bytes",
          "name": "data",
          "type": "bytes"
        }
      ],
      "name": "safeBatchTransferFrom",
      "outputs": [],
      "stateMutability": "nonpayable",
      "type": "function"
    },
    {
      "inputs": [
        {
          "internalType": "address",
          "name": "from",
          "type": "address"
        },
        {
          "internalType": "address",
          "name": "to",
          "type": "address"
        },
        {
          "internalType": "uint256",
          "name": "id",
          "type": "uint256"
        },
        {
          "internalType": "uint256",
          "name": "value",
          "type": "uint256"
        }
      ],
      "name": "safeTransferFrom",
      "outputs": [],
      "stateMutability": "nonpayable",
      "type": "function"
    },
    {
      "inputs": [
        {
          "internalType": "address",
          "name": "from",
          "type": "address"
        },
        {
          "internalType": "address",
          "name": "to",
          "type": "address"
        },
        {
          "internalType": "uint256",
          "name": "id",
          "type": "uint256"
        },
        {
          "internalType": "uint256",
          "name": "value",
          "type": "uint256"
        },
        {
          "internalType": "bytes",
          "name": "data",
          "type": "bytes"
        }
      ],
      "name": "safeTransferFrom",
      "outputs": [],
      "stateMutability": "nonpayable",
      "type": "function"
    },
    {
      "inputs": [
        {
          "internalType": "address",
          "name": "operator",
          "type": "address"
        },
        {
          "internalType": "bool",
          "name": "approved",
          "type": "bool"
        }
      ],
      "name": "setApprovalForAll",
      "outputs": [],
      "stateMutability": "nonpayable",
      "type": "function"
    },
    {
      "inputs": [
        {
          "internalType": "bytes4",
          "name": "interfaceId",
          "type": "bytes4"
        }
      ],
      "name": "supportsInterface",
      "outputs": [
        {
          "internalType": "bool",
          "name": "",
          "type": "bool"
        }
      ],
      "stateMutability": "view",
      "type": "function"
    },
    {
      "inputs": [
        {
          "internalType": "uint256",
          "name": "tokenId",
          "type": "uint256"
        }
      ],
      "name": "uri",
      "outputs": [
        {
          "internalType": "string",
          "name": "",
          "type": "string"
        }
      ],
      "stateMutability": "view",
      "type": "function"
    }
  ],
  "bytecode": "0x60806040526040518060200160405280600081525060039081620000249190620002ea565b503480156200003257600080fd5b506040518060200160405280600081525062000054816200005b60201b60201c565b50620003d1565b80600290816200006c9190620002ea565b5050565b600081519050919050565b7f4e487b7100000000000000000000000000000000000000000000000000000000600052604160045260246000fd5b7f4e487b7100000000000000000000000000000000000000000000000000000000600052602260045260246000fd5b60006002820490506001821680620000f257607f821691505b602082108103620001085762000107620000aa565b5b50919050565b60008190508160005260206000209050919050565b60006020601f8301049050919050565b600082821b905092915050565b600060088302620001727fffffffffffffffffffffffffffffffffffffffffffffffffffffffffffffffff8262000133565b6200017e868362000133565b95508019841693508086168417925050509392505050565b6000819050919050565b6000819050919050565b6000620001cb620001c5620001bf8462000196565b620001a0565b62000196565b9050919050565b6000819050919050565b620001e783620001aa565b620001ff620001f682620001d2565b84845462000140565b825550505050565b600090565b6200021662000207565b62000223818484620001dc565b505050565b5b818110156200024b576200023f6000826200020c565b60018101905062000229565b5050565b601f8211156200029a5762000264816200010e565b6200026f8462000123565b810160208510156200027f578190505b620002976200028e8562000123565b83018262000228565b50505b505050565b600082821c905092915050565b6000620002bf600019846008026200029f565b1980831691505092915050565b6000620002da8383620002ac565b9150826002028217905092915050565b620002f58262000070565b67ffffffffffffffff8111156200031157620003106200007b565b5b6200031d8254620000d9565b6200032a8282856200024f565b600060209050601f8311600181146200036257600084156200034d578287015190505b620003598582620002cc565b865550620003c9565b601f19841662000372866200010e565b60005b828110156200039c5784890151825560018201915060208501945060208101905062000375565b86831015620003bc5784890151620003b8601f891682620002ac565b8355505b6001600288020188555050505b505050505050565b6126c580620003e16000396000f3fe608060405234801561001057600080fd5b50600436106100a85760003560e01c80632eb2c2d6116100715780632eb2c2d6146101775780634e1273f41461019357806377097fc8146101c3578063a22cb465146101df578063e985e9c5146101fb578063f242432a1461022b576100a8565b8062fdd58e146100ad57806301ffc9a7146100dd5780630e89341c1461010d5780630febdd491461013d5780631c75cfb414610159575b600080fd5b6100c760048036038101906100c29190611611565b610247565b6040516100d49190611660565b60405180910390f35b6100f760048036038101906100f291906116d3565b6102a1565b604051610104919061171b565b60405180910390f35b61012760048036038101906101229190611736565b610383565b60405161013491906117f3565b60405180910390f35b61015760048036038101906101529190611815565b610468565b005b61016161048a565b60405161016e9190611660565b60405180910390f35b610191600480360381019061018c9190611a79565b610490565b005b6101ad60048036038101906101a89190611c0b565b610538565b6040516101ba9190611d41565b60405180910390f35b6101dd60048036038101906101d89190611e04565b610641565b005b6101f960048036038101906101f49190611e8c565b610686565b005b61021560048036038101906102109190611ecc565b61069c565b604051610222919061171b565b60405180910390f35b61024560048036038101906102409190611f0c565b610730565b005b600080600083815260200190815260200160002060008473ffffffffffffffffffffffffffffffffffffffff1673ffffffffffffffffffffffffffffffffffffffff16815260200190815260200160002054905092915050565b60007fd9b67a26000000000000000000000000000000000000000000000000000000007bffffffffffffffffffffffffffffffffffffffffffffffffffffffff1916827bffffffffffffffffffffffffffffffffffffffffffffffffffffffff1916148061036c57507f0e89341c000000000000000000000000000000000000000000000000000000007bffffffffffffffffffffffffffffffffffffffffffffffffffffffff1916827bffffffffffffffffffffffffffffffffffffffffffffffffffffffff1916145b8061037c575061037b826107d8565b5b9050919050565b606060006004600084815260200190815260200160002080546103a590611fd2565b80601f01602080910402602001604051908101604052809291908181526020018280546103d190611fd2565b801561041e5780601f106103f35761010080835404028352916020019161041e565b820191906000526020600020905b81548152906001019060200180831161040157829003601f168201915b50505050509050600081511161043c5761043783610842565b610460565b6003816040516020016104509291906120d7565b6040516020818303038152906040525b915050919050565b6104848484848460405180602001604052806000815250610730565b50505050565b60055481565b600061049a6108d6565b90508073ffffffffffffffffffffffffffffffffffffffff168673ffffffffffffffffffffffffffffffffffffffff16141580156104df57506104dd868261069c565b155b156105235780866040517fe237d92200000000000000000000000000000000000000000000000000000000815260040161051a92919061210a565b60405180910390fd5b61053086868686866108de565b505050505050565b6060815183511461058457815183516040517f5b05999100000000000000000000000000000000000000000000000000000000815260040161057b929190612133565b60405180910390fd5b6000835167ffffffffffffffff8111156105a1576105a0611881565b5b6040519080825280602002602001820160405280156105cf5781602001602082028036833780820191505090505b50905060005b84518110156106365761060c6105f482876109d690919063ffffffff16565b61060783876109ea90919063ffffffff16565b610247565b82828151811061061f5761061e61215c565b5b6020026020010181815250508060010190506105d5565b508091505092915050565b61065e3360055484604051806020016040528060008152506109fe565b61066a60055482610a97565b6005600081548092919061067d906121ba565b91905055505050565b6106986106916108d6565b8383610afc565b5050565b6000600160008473ffffffffffffffffffffffffffffffffffffffff1673ffffffffffffffffffffffffffffffffffffffff16815260200190815260200160002060008373ffffffffffffffffffffffffffffffffffffffff1673ffffffffffffffffffffffffffffffffffffffff16815260200190815260200160002060009054906101000a900460ff16905092915050565b600061073a6108d6565b90508073ffffffffffffffffffffffffffffffffffffffff168673ffffffffffffffffffffffffffffffffffffffff161415801561077f575061077d868261069c565b155b156107c35780866040517fe237d9220000000000000000000000000000000000000000000000000000000081526004016107ba92919061210a565b60405180910390fd5b6107d08686868686610c6c565b505050505050565b60007f01ffc9a7000000000000000000000000000000000000000000000000000000007bffffffffffffffffffffffffffffffffffffffffffffffffffffffff1916827bffffffffffffffffffffffffffffffffffffffffffffffffffffffff1916149050919050565b60606002805461085190611fd2565b80601f016020809104026020016040519081016040528092919081815260200182805461087d90611fd2565b80156108ca5780601f1061089f576101008083540402835291602001916108ca565b820191906000526020600020905b8154815290600101906020018083116108ad57829003601f168201915b50505050509050919050565b600033905090565b600073ffffffffffffffffffffffffffffffffffffffff168473ffffffffffffffffffffffffffffffffffffffff16036109505760006040517f57f447ce0000000000000000000000000000000000000000000000000000000081526004016109479190612202565b60405180910390fd5b600073ffffffffffffffffffffffffffffffffffffffff168573ffffffffffffffffffffffffffffffffffffffff16036109c25760006040517f01a835140000000000000000000000000000000000000000000000000000000081526004016109b99190612202565b60405180910390fd5b6109cf8585858585610d77565b5050505050565b600060208202602084010151905092915050565b600060208202602084010151905092915050565b600073ffffffffffffffffffffffffffffffffffffffff168473ffffffffffffffffffffffffffffffffffffffff1603610a705760006040517f57f447ce000000000000000000000000000000000000000000000000000000008152600401610a679190612202565b60405180910390fd5b600080610a7d8585610e29565b91509150610a8f600087848487610d77565b505050505050565b80600460008481526020019081526020016000209081610ab791906123b4565b50817f6bb7ff708619ba0610cba295a58592e0451dee2622938c8755667688daf3529b610ae384610383565b604051610af091906117f3565b60405180910390a25050565b600073ffffffffffffffffffffffffffffffffffffffff168273ffffffffffffffffffffffffffffffffffffffff1603610b6e5760006040517fced3e100000000000000000000000000000000000000000000000000000000008152600401610b659190612202565b60405180910390fd5b80600160008573ffffffffffffffffffffffffffffffffffffffff1673ffffffffffffffffffffffffffffffffffffffff16815260200190815260200160002060008473ffffffffffffffffffffffffffffffffffffffff1673ffffffffffffffffffffffffffffffffffffffff16815260200190815260200160002060006101000a81548160ff0219169083151502179055508173ffffffffffffffffffffffffffffffffffffffff168373ffffffffffffffffffffffffffffffffffffffff167f17307eab39ab6107e8899845ad3d59bd9653f200f220920489ca2b5937696c3183604051610c5f919061171b565b60405180910390a3505050565b600073ffffffffffffffffffffffffffffffffffffffff168473ffffffffffffffffffffffffffffffffffffffff1603610cde5760006040517f57f447ce000000000000000000000000000000000000000000000000000000008152600401610cd59190612202565b60405180910390fd5b600073ffffffffffffffffffffffffffffffffffffffff168573ffffffffffffffffffffffffffffffffffffffff1603610d505760006040517f01a83514000000000000000000000000000000000000000000000000000000008152600401610d479190612202565b60405180910390fd5b600080610d5d8585610e29565b91509150610d6e8787848487610d77565b50505050505050565b610d8385858585610e59565b600073ffffffffffffffffffffffffffffffffffffffff168473ffffffffffffffffffffffffffffffffffffffff1614610e22576000610dc16108d6565b90506001845103610e11576000610de26000866109ea90919063ffffffff16565b90506000610dfa6000866109ea90919063ffffffff16565b9050610e0a838989858589611201565b5050610e20565b610e1f8187878787876113b5565b5b505b5050505050565b60608060405191506001825283602083015260408201905060018152826020820152604081016040529250929050565b8051825114610ea357815181516040517f5b059991000000000000000000000000000000000000000000000000000000008152600401610e9a929190612133565b60405180910390fd5b6000610ead6108d6565b905060005b83518110156110bc576000610ed082866109ea90919063ffffffff16565b90506000610ee783866109ea90919063ffffffff16565b9050600073ffffffffffffffffffffffffffffffffffffffff168873ffffffffffffffffffffffffffffffffffffffff161461101457600080600084815260200190815260200160002060008a73ffffffffffffffffffffffffffffffffffffffff1673ffffffffffffffffffffffffffffffffffffffff16815260200190815260200160002054905081811015610fbc57888183856040517f03dee4c5000000000000000000000000000000000000000000000000000000008152600401610fb39493929190612486565b60405180910390fd5b81810360008085815260200190815260200160002060008b73ffffffffffffffffffffffffffffffffffffffff1673ffffffffffffffffffffffffffffffffffffffff16815260200190815260200160002081905550505b600073ffffffffffffffffffffffffffffffffffffffff168773ffffffffffffffffffffffffffffffffffffffff16146110af578060008084815260200190815260200160002060008973ffffffffffffffffffffffffffffffffffffffff1673ffffffffffffffffffffffffffffffffffffffff16815260200190815260200160002060008282546110a791906124cb565b925050819055505b5050806001019050610eb2565b50600183510361117b5760006110dc6000856109ea90919063ffffffff16565b905060006110f46000856109ea90919063ffffffff16565b90508573ffffffffffffffffffffffffffffffffffffffff168773ffffffffffffffffffffffffffffffffffffffff168473ffffffffffffffffffffffffffffffffffffffff167fc3d58168c5ae7397731d063d5bbf3d657854427343f4c083240f7aacaa2d0f62858560405161116c929190612133565b60405180910390a450506111fa565b8373ffffffffffffffffffffffffffffffffffffffff168573ffffffffffffffffffffffffffffffffffffffff168273ffffffffffffffffffffffffffffffffffffffff167f4a39dc06d4c0dbc64b70af90fd698a233a518aa5d07e595d983b8c0526c8f7fb86866040516111f19291906124ff565b60405180910390a45b5050505050565b60008473ffffffffffffffffffffffffffffffffffffffff163b11156113ad578373ffffffffffffffffffffffffffffffffffffffff1663f23a6e6187878686866040518663ffffffff1660e01b815260040161126295949392919061258b565b6020604051808303816000875af192505050801561129e57506040513d601f19601f8201168201806040525081019061129b91906125fa565b60015b611322573d80600081146112ce576040519150601f19603f3d011682016040523d82523d6000602084013e6112d3565b606091505b50600081510361131a57846040517f57f447ce0000000000000000000000000000000000000000000000000000000081526004016113119190612202565b60405180910390fd5b805181602001fd5b63f23a6e6160e01b7bffffffffffffffffffffffffffffffffffffffffffffffffffffffff1916817bffffffffffffffffffffffffffffffffffffffffffffffffffffffff1916146113ab57846040517f57f447ce0000000000000000000000000000000000000000000000000000000081526004016113a29190612202565b60405180910390fd5b505b505050505050565b60008473ffffffffffffffffffffffffffffffffffffffff163b1115611561578373ffffffffffffffffffffffffffffffffffffffff1663bc197c8187878686866040518663ffffffff1660e01b8152600401611416959493929190612627565b6020604051808303816000875af192505050801561145257506040513d601f19601f8201168201806040525081019061144f91906125fa565b60015b6114d6573d8060008114611482576040519150601f19603f3d011682016040523d82523d6000602084013e611487565b606091505b5060008151036114ce57846040517f57f447ce0000000000000000000000000000000000000000000000000000000081526004016114c59190612202565b60405180910390fd5b805181602001fd5b63bc197c8160e01b7bffffffffffffffffffffffffffffffffffffffffffffffffffffffff1916817bffffffffffffffffffffffffffffffffffffffffffffffffffffffff19161461155f57846040517f57f447ce0000000000000000000000000000000000000000000000000000000081526004016115569190612202565b60405180910390fd5b505b505050505050565b6000604051905090565b600080fd5b600080fd5b600073ffffffffffffffffffffffffffffffffffffffff82169050919050565b60006115a88261157d565b9050919050565b6115b88161159d565b81146115c357600080fd5b50565b6000813590506115d5816115af565b92915050565b6000819050919050565b6115ee816115db565b81146115f957600080fd5b50565b60008135905061160b816115e5565b92915050565b6000806040838503121561162857611627611573565b5b6000611636858286016115c6565b9250506020611647858286016115fc565b9150509250929050565b61165a816115db565b82525050565b60006020820190506116756000830184611651565b92915050565b60007fffffffff0000000000000000000000000000000000000000000000000000000082169050919050565b6116b08161167b565b81146116bb57600080fd5b50565b6000813590506116cd816116a7565b92915050565b6000602082840312156116e9576116e8611573565b5b60006116f7848285016116be565b91505092915050565b60008115159050919050565b61171581611700565b82525050565b6000602082019050611730600083018461170c565b92915050565b60006020828403121561174c5761174b611573565b5b600061175a848285016115fc565b91505092915050565b600081519050919050565b600082825260208201905092915050565b60005b8381101561179d578082015181840152602081019050611782565b60008484015250505050565b6000601f19601f8301169050919050565b60006117c582611763565b6117cf818561176e565b93506117df81856020860161177f565b6117e8816117a9565b840191505092915050565b6000602082019050818103600083015261180d81846117ba565b905092915050565b6000806000806080858703121561182f5761182e611573565b5b600061183d878288016115c6565b945050602061184e878288016115c6565b935050604061185f878288016115fc565b9250506060611870878288016115fc565b91505092959194509250565b600080fd5b7f4e487b7100000000000000000000000000000000000000000000000000000000600052604160045260246000fd5b6118b9826117a9565b810181811067ffffffffffffffff821117156118d8576118d7611881565b5b80604052505050565b60006118eb611569565b90506118f782826118b0565b919050565b600067ffffffffffffffff82111561191757611916611881565b5b602082029050602081019050919050565b600080fd5b600061194061193b846118fc565b6118e1565b9050808382526020820190506020840283018581111561196357611962611928565b5b835b8181101561198c578061197888826115fc565b845260208401935050602081019050611965565b5050509392505050565b600082601f8301126119ab576119aa61187c565b5b81356119bb84826020860161192d565b91505092915050565b600080fd5b600067ffffffffffffffff8211156119e4576119e3611881565b5b6119ed826117a9565b9050602081019050919050565b82818337600083830152505050565b6000611a1c611a17846119c9565b6118e1565b905082815260208101848484011115611a3857611a376119c4565b5b611a438482856119fa565b509392505050565b600082601f830112611a6057611a5f61187c565b5b8135611a70848260208601611a09565b91505092915050565b600080600080600060a08688031215611a9557611a94611573565b5b6000611aa3888289016115c6565b9550506020611ab4888289016115c6565b945050604086013567ffffffffffffffff811115611ad557611ad4611578565b5b611ae188828901611996565b935050606086013567ffffffffffffffff811115611b0257611b01611578565b5b611b0e88828901611996565b925050608086013567ffffffffffffffff811115611b2f57611b2e611578565b5b611b3b88828901611a4b565b9150509295509295909350565b600067ffffffffffffffff821115611b6357611b62611881565b5b602082029050602081019050919050565b6000611b87611b8284611b48565b6118e1565b90508083825260208201905060208402830185811115611baa57611ba9611928565b5b835b81811015611bd35780611bbf88826115c6565b845260208401935050602081019050611bac565b5050509392505050565b600082601f830112611bf257611bf161187c565b5b8135611c02848260208601611b74565b91505092915050565b60008060408385031215611c2257611c21611573565b5b600083013567ffffffffffffffff811115611c4057611c3f611578565b5b611c4c85828601611bdd565b925050602083013567ffffffffffffffff811115611c6d57611c6c611578565b5b611c7985828601611996565b9150509250929050565b600081519050919050565b600082825260208201905092915050565b6000819050602082019050919050565b611cb8816115db565b82525050565b6000611cca8383611caf565b60208301905092915050565b6000602082019050919050565b6000611cee82611c83565b611cf88185611c8e565b9350611d0383611c9f565b8060005b83811015611d34578151611d1b8882611cbe565b9750611d2683611cd6565b925050600181019050611d07565b5085935050505092915050565b60006020820190508181036000830152611d5b8184611ce3565b905092915050565b600067ffffffffffffffff821115611d7e57611d7d611881565b5b611d87826117a9565b9050602081019050919050565b6000611da7611da284611d63565b6118e1565b905082815260208101848484011115611dc357611dc26119c4565b5b611dce8482856119fa565b509392505050565b600082601f830112611deb57611dea61187c565b5b8135611dfb848260208601611d94565b91505092915050565b60008060408385031215611e1b57611e1a611573565b5b6000611e29858286016115fc565b925050602083013567ffffffffffffffff811115611e4a57611e49611578565b5b611e5685828601611dd6565b9150509250929050565b611e6981611700565b8114611e7457600080fd5b50565b600081359050611e8681611e60565b92915050565b60008060408385031215611ea357611ea2611573565b5b6000611eb1858286016115c6565b9250506020611ec285828601611e77565b9150509250929050565b60008060408385031215611ee357611ee2611573565b5b6000611ef1858286016115c6565b9250506020611f02858286016115c6565b9150509250929050565b600080600080600060a08688031215611f2857611f27611573565b5b6000611f36888289016115c6565b9550506020611f47888289016115c6565b9450506040611f58888289016115fc565b9350506060611f69888289016115fc565b925050608086013567ffffffffffffffff811115611f8a57611f89611578565b5b611f9688828901611a4b565b9150509295509295909350565b7f4e487b7100000000000000000000000000000000000000000000000000000000600052602260045260246000fd5b60006002820490506001821680611fea57607f821691505b602082108103611ffd57611ffc611fa3565b5b50919050565b600081905092915050565b60008190508160005260206000209050919050565b6000815461203081611fd2565b61203a8186612003565b94506001821660008114612055576001811461206a5761209d565b60ff198316865281151582028601935061209d565b6120738561200e565b60005b8381101561209557815481890152600182019150602081019050612076565b838801955050505b50505092915050565b60006120b182611763565b6120bb8185612003565b93506120cb81856020860161177f565b80840191505092915050565b60006120e38285612023565b91506120ef82846120a6565b91508190509392505050565b6121048161159d565b82525050565b600060408201905061211f60008301856120fb565b61212c60208301846120fb565b9392505050565b60006040820190506121486000830185611651565b6121556020830184611651565b9392505050565b7f4e487b7100000000000000000000000000000000000000000000000000000000600052603260045260246000fd5b7f4e487b7100000000000000000000000000000000000000000000000000000000600052601160045260246000fd5b60006121c5826115db565b91507fffffffffffffffffffffffffffffffffffffffffffffffffffffffffffffffff82036121f7576121f661218b565b5b600182019050919050565b600060208201905061221760008301846120fb565b92915050565b60006020601f8301049050919050565b600082821b905092915050565b60006008830261226a7fffffffffffffffffffffffffffffffffffffffffffffffffffffffffffffffff8261222d565b612274868361222d565b95508019841693508086168417925050509392505050565b6000819050919050565b60006122b16122ac6122a7846115db565b61228c565b6115db565b9050919050565b6000819050919050565b6122cb83612296565b6122df6122d7826122b8565b84845461223a565b825550505050565b600090565b6122f46122e7565b6122ff8184846122c2565b505050565b5b81811015612323576123186000826122ec565b600181019050612305565b5050565b601f821115612368576123398161200e565b6123428461221d565b81016020851015612351578190505b61236561235d8561221d565b830182612304565b50505b505050565b600082821c905092915050565b600061238b6000198460080261236d565b1980831691505092915050565b60006123a4838361237a565b9150826002028217905092915050565b6123bd82611763565b67ffffffffffffffff8111156123d6576123d5611881565b5b6123e08254611fd2565b6123eb828285612327565b600060209050601f83116001811461241e576000841561240c578287015190505b6124168582612398565b86555061247e565b601f19841661242c8661200e565b60005b828110156124545784890151825560018201915060208501945060208101905061242f565b86831015612471578489015161246d601f89168261237a565b8355505b6001600288020188555050505b505050505050565b600060808201905061249b60008301876120fb565b6124a86020830186611651565b6124b56040830185611651565b6124c26060830184611651565b95945050505050565b60006124d6826115db565b91506124e1836115db565b92508282019050808211156124f9576124f861218b565b5b92915050565b600060408201905081810360008301526125198185611ce3565b9050818103602083015261252d8184611ce3565b90509392505050565b600081519050919050565b600082825260208201905092915050565b600061255d82612536565b6125678185612541565b935061257781856020860161177f565b612580816117a9565b840191505092915050565b600060a0820190506125a060008301886120fb565b6125ad60208301876120fb565b6125ba6040830186611651565b6125c76060830185611651565b81810360808301526125d98184612552565b90509695505050505050565b6000815190506125f4816116a7565b92915050565b6000602082840312156126105761260f611573565b5b600061261e848285016125e5565b91505092915050565b600060a08201905061263c60008301886120fb565b61264960208301876120fb565b818103604083015261265b8186611ce3565b9050818103606083015261266f8185611ce3565b905081810360808301526126838184612552565b9050969550505050505056fea264697066735822122039428d83ca8fc8f22c317692410b680c07238821938abb4f32a5399209631dcc64736f6c63430008180033",
  "linkReferences": {},
  "deployedLinkReferences": {}
}