{
  "_format": "hh-sol-artifact-1",
  "contractName": "SongNFTTrade",
  "sourceName": "contracts/SongNFTTrade.sol",
  "abi": [
    {
      "inputs": [
        {
          "internalType": "contract IERC20",
          "name": "_token",
          "type": "address"
        },
        {
          "internalType": "contract SongNFT",
          "name": "_nft",
          "type": "address"
        }
      ],
      "stateMutability": "nonpayable",
      "type": "constructor"
    },
    {
      "anonymous": false,
      "inputs": [
        {
          "indexed": true,
          "internalType": "uint256",
          "name": "id",
          "type": "uint256"
        },
        {
          "indexed": false,
          "internalType": "address",
          "name": "buyer",
          "type": "address"
        },
        {
          "indexed": false,
          "internalType": "uint256",
          "name": "price",
          "type": "uint256"
        }
      ],
      "name": "SongPurchased",
      "type": "event"
    },
    {
      "inputs": [],
      "name": "nft",
      "outputs": [
        {
          "internalType": "contract SongNFT",
          "name": "",
          "type": "address"
        }
      ],
      "stateMutability": "view",
      "type": "function"
    },
    {
      "inputs": [
        {
          "internalType": "uint256",
          "name": "id",
          "type": "uint256"
        },
        {
          "internalType": "uint256",
          "name": "price",
          "type": "uint256"
        },
        {
          "internalType": "address",
          "name": "singer",
          "type": "address"
        }
      ],
      "name": "purchaseSong",
      "outputs": [],
      "stateMutability": "nonpayable",
      "type": "function"
    },
    {
      "inputs": [],
      "name": "token",
      "outputs": [
        {
          "internalType": "contract IERC20",
          "name": "",
          "type": "address"
        }
      ],
      "stateMutability": "view",
      "type": "function"
    }
  ],
  "bytecode": "0x608060405234801561001057600080fd5b50604051610a3c380380610a3c8339818101604052810190610032919061016d565b816000806101000a81548173ffffffffffffffffffffffffffffffffffffffff021916908373ffffffffffffffffffffffffffffffffffffffff16021790555080600160006101000a81548173ffffffffffffffffffffffffffffffffffffffff021916908373ffffffffffffffffffffffffffffffffffffffff16021790555050506101ad565b600080fd5b600073ffffffffffffffffffffffffffffffffffffffff82169050919050565b60006100ea826100bf565b9050919050565b60006100fc826100df565b9050919050565b61010c816100f1565b811461011757600080fd5b50565b60008151905061012981610103565b92915050565b600061013a826100df565b9050919050565b61014a8161012f565b811461015557600080fd5b50565b60008151905061016781610141565b92915050565b60008060408385031215610184576101836100ba565b5b60006101928582860161011a565b92505060206101a385828601610158565b9150509250929050565b610880806101bc6000396000f3fe608060405234801561001057600080fd5b50600436106100415760003560e01c806347ccca021461004657806389f5656914610064578063fc0c546a14610080575b600080fd5b61004e61009e565b60405161005b9190610499565b60405180910390f35b61007e6004803603810190610079919061052d565b6100c4565b005b6100886103f6565b60405161009591906105a1565b60405180910390f35b600160009054906101000a900473ffffffffffffffffffffffffffffffffffffffff1681565b6000600160009054906101000a900473ffffffffffffffffffffffffffffffffffffffff1673ffffffffffffffffffffffffffffffffffffffff1662fdd58e33866040518363ffffffff1660e01b81526004016101229291906105da565b602060405180830381865afa15801561013f573d6000803e3d6000fd5b505050506040513d601f19601f820116820180604052508101906101639190610618565b146101a3576040517f08c379a000000000000000000000000000000000000000000000000000000000815260040161019a906106a2565b60405180910390fd5b6000600160009054906101000a900473ffffffffffffffffffffffffffffffffffffffff1673ffffffffffffffffffffffffffffffffffffffff1662fdd58e83866040518363ffffffff1660e01b81526004016102019291906105da565b602060405180830381865afa15801561021e573d6000803e3d6000fd5b505050506040513d601f19601f820116820180604052508101906102429190610618565b11610282576040517f08c379a00000000000000000000000000000000000000000000000000000000081526004016102799061070e565b60405180910390fd5b60008054906101000a900473ffffffffffffffffffffffffffffffffffffffff1673ffffffffffffffffffffffffffffffffffffffff166323b872dd3383856040518463ffffffff1660e01b81526004016102df9392919061072e565b6020604051808303816000875af11580156102fe573d6000803e3d6000fd5b505050506040513d601f19601f82011682018060405250810190610322919061079d565b50600160009054906101000a900473ffffffffffffffffffffffffffffffffffffffff1673ffffffffffffffffffffffffffffffffffffffff16630febdd4982338660016040518563ffffffff1660e01b81526004016103859493929190610805565b600060405180830381600087803b15801561039f57600080fd5b505af11580156103b3573d6000803e3d6000fd5b50505050827f29d26227489513ba0617affd158f71dfd9f7c32d002e58a4393a98b8608d6a1333846040516103e99291906105da565b60405180910390a2505050565b60008054906101000a900473ffffffffffffffffffffffffffffffffffffffff1681565b600073ffffffffffffffffffffffffffffffffffffffff82169050919050565b6000819050919050565b600061045f61045a6104558461041a565b61043a565b61041a565b9050919050565b600061047182610444565b9050919050565b600061048382610466565b9050919050565b61049381610478565b82525050565b60006020820190506104ae600083018461048a565b92915050565b600080fd5b6000819050919050565b6104cc816104b9565b81146104d757600080fd5b50565b6000813590506104e9816104c3565b92915050565b60006104fa8261041a565b9050919050565b61050a816104ef565b811461051557600080fd5b50565b60008135905061052781610501565b92915050565b600080600060608486031215610546576105456104b4565b5b6000610554868287016104da565b9350506020610565868287016104da565b925050604061057686828701610518565b9150509250925092565b600061058b82610466565b9050919050565b61059b81610580565b82525050565b60006020820190506105b66000830184610592565b92915050565b6105c5816104ef565b82525050565b6105d4816104b9565b82525050565b60006040820190506105ef60008301856105bc565b6105fc60208301846105cb565b9392505050565b600081519050610612816104c3565b92915050565b60006020828403121561062e5761062d6104b4565b5b600061063c84828501610603565b91505092915050565b600082825260208201905092915050565b7f416c7265616479206f776e732074686520746f6b656e00000000000000000000600082015250565b600061068c601683610645565b915061069782610656565b602082019050919050565b600060208201905081810360008301526106bb8161067f565b9050919050565b7f496e73756666696369656e7420746f6b656e2062616c616e6365000000000000600082015250565b60006106f8601a83610645565b9150610703826106c2565b602082019050919050565b60006020820190508181036000830152610727816106eb565b9050919050565b600060608201905061074360008301866105bc565b61075060208301856105bc565b61075d60408301846105cb565b949350505050565b60008115159050919050565b61077a81610765565b811461078557600080fd5b50565b60008151905061079781610771565b92915050565b6000602082840312156107b3576107b26104b4565b5b60006107c184828501610788565b91505092915050565b6000819050919050565b60006107ef6107ea6107e5846107ca565b61043a565b6104b9565b9050919050565b6107ff816107d4565b82525050565b600060808201905061081a60008301876105bc565b61082760208301866105bc565b61083460408301856105cb565b61084160608301846107f6565b9594505050505056fea2646970667358221220d775eaa461817effa441f7733e51f879e77de9aab9252dd443ba4246ef26a25f64736f6c63430008180033",
  "linkReferences": {},
  "deployedLinkReferences": {}
}